:100000000C942F010C9466010C9466010C9466010B
:100010000C9466010C94EC200C94B70A0C94B82252
:100020000C9489220C9466010C9466010C94660170
:100030000C9466010C94D21E0C9466010C942F1F34
:100040000C9466010C944E0A0C9466010C946601A3
:100050000C9466010C9466010C9466010C94660184
:100060000C9466010C94AD210C940D220C94DF21AC
:100070000C9466010C94C7240C946A230C946601BA
:100080000C9466010C9466010C9466010C94660154
:100090000C941F210C947F210C9451210C94F0227C
:1000A0000C9466010C9466010C945E200C9466011D
:1000B0000C9466010C9466010C9466010C94660124
:1000C0000C9466010C9466010C946601646464648B
:1000D00064646464646464646464636363636363E6
:1000E00063636363636363626262626262626161EB
:1000F000616161606060605F5F5F5E5E5D5D5D5C11
:100100005C5B5B5A59595857575655545352515086
:100110004F4E4D4B4A4947454442403E3C3A3836A3
:1001200034312F2C2A29282827272626252525243F
:10013000242423232323222222222121212120209F
:100140002020201F1F1F1F1F1E1E1E1E1E0000011D
:100150000002000300040005000600070008000973
:10016000000A000B000C000D000E000F0010001222
:10017000001400160018001A001C001E00200022A7
:10018000002400260028002A002C002E0031003513
:100190000039003D004100450049004D0051005527
:1001A0000059005D006100650069006D0073007B0F
:1001B0000083008B0093009B00A300AB00B300BB47
:1001C00000C300CB00D300DB00E300EB00F7000727
:1001D000011701270137014701570167017701879F
:1001E000019701A701B701C701D701E701FF011F6F
:1001F000023F025F027F029F02BF02DF02FF021F77
:10020000033F035F037F039F03BF03DF030F044F1D
:10021000048F04CF040F054F058F05CF050F064F40
:10022000068F06CF060F074F078F07CF072F08AFA0
:10023000082F09AF092F0AAF0A2F0BAF0B2F0CAFF6
:100240000C2F0DAF0D2F0EAF0E2F0FAF0F6517BA7E
:1002500016BE166117C216C616030405060711243A
:100260008091F905823141F084B78F718093F9054F
:1002700080FF05C081E001C081E18093F90514BED3
:10028000809160008861809360001092600011246A
:100290001FBECFEFD1E2DEBFCDBF12E0A0E0B2E0E3
:1002A000E4EAF3E500E00BBF02C007900D92A63D23
:1002B000B107D9F715E0A6EDB2E001C01D92A93F44
:1002C000B107E1F70E947C070C94D0290C94000040
:1002D0007F937FB7F8949D9AA5988AEF0E94C701F3
:1002E0008AEF0E94C7019D9886E40E94C70181E0C1
:1002F000959980E08F9380EF0E94C7018F917FBF17
:100300007F9108957F937FB7F8949D9AA59886E092
:100310000E94C7019D988AE00E94C7018894959920
:100320000894881F8F9384E60E94C7018F917FBF36
:100330007F9108959F937F9398E00E948201879513
:1003400077959A959923C9F7872F7F919F91089563
:100350007F937FB7F894A5989D9A8F9386E00E942B
:10036000C7018F91879508F49D988F9384E60E942A
:10037000C7018F919D987FBF7F9108959F9398E0CB
:100380000E94A8019A959923D9F79F91089500009A
:100390000000000000008A958823C9F708955F9344
:1003A0007F937FB7F894CF93DF93C0E0D0E07F9343
:1003B0005091B2007091B2007517E1F373952196D8
:1003C0005091B2005717D9F77F91CE01DF91CF91AD
:1003D0007FBF7F915F910895EF92FF920F93DF931C
:1003E000CF93CDB7DEB760970FB6F894DEBF0FBEE0
:1003F000CDBFA82F002309F461C07E010894E11C41
:10040000F11C88E0F70111928A95E9F729833A8374
:100410004B835C836D837E83AF83988780E2801BF0
:10042000E82FFF27E7FDF0954D815E816F8178858C
:10043000181684F01D861E861F86188A882799271D
:100440008E1B9F0B04C076956795579547958A95A7
:10045000D2F728C0202F332727FD3095DB01CA01B2
:10046000022E04C0B695A795979587950A94D2F762
:100470008D879E87AF87B88B04C0440F551F661FBA
:10048000771FEA95D2F789819A81AB81BC8104C03C
:10049000B695A795979587952A95D2F7482B592B0E
:1004A0006A2B7B2B49875A876B877C8729853A85FE
:1004B0004B855C856D857E85AF8598898A2F609692
:1004C0000FB6F894DEBF0FBECDBFCF91DF910F9175
:1004D000FF90EF900895EF92FF920F93DF93CF93E9
:1004E000CDB7DEB760970FB6F894DEBF0FBECDBFB5
:1004F000A82F002309F461C07E010894E11CF11CBF
:1005000088E0F70111928A95E9F729833A834B83B2
:100510005C836D837E83AF83988780E2801BE82FA6
:10052000FF27E7FDF09549815A816B817C81181680
:1005300084F019861A861B861C86882799278E1BAD
:100540009F0B04C0440F551F661F771F8A95D2F773
:1005500028C0202F332727FD3095DB01CA01022E4A
:1005600004C0880F991FAA1FBB1F0A94D2F789875E
:100570009A87AB87BC8704C0769567955795479552
:10058000EA95D2F78D819E81AF81B88504C0880F2E
:10059000991FAA1FBB1F2A95D2F7482B592B6A2BEC
:1005A0007B2B4D875E876F87788B29853A854B85B6
:1005B0005C856D857E85AF8598898A2F60960FB69C
:1005C000F894DEBF0FBECDBFCF91DF910F91FF90AA
:1005D000EF900895813041F0813018F0823011F5AC
:1005E00006C060937D0208956093E80208956093C9
:1005F000BC031092EA021092EB021092EC021092ED
:10060000ED021092EE021092EF021092F0021092A0
:10061000F1021092E7021092E9021092F30281E0D7
:1006200080937C0208953FB7F8948091D20388604C
:100630008093D2032FB7F89480916B0590916C054D
:10064000946090936C0580936B052FBF3FBF089516
:1006500081E080937C0208951F938091BD038230D6
:1006600009F47BC0833030F4882371F0813009F0C5
:1006700023C147C0843009F4CEC0843008F4A3C03D
:10068000853009F019C1FDC086ED92E00E948E0709
:100690008DB79EB708970FB6F8949EBF0FBE8DBF5B
:1006A000EDB7FEB7319684EF92E0ADB7BEB71296C4
:1006B0009C938E93119780E092E093838283809144
:1006C000D6029091D702A091D802B091D90284832A
:1006D0009583A683B7830E94F9268093E6028DB79F
:1006E0009EB708960FB6F8949EBF0FBE8DBF80913F
:1006F000BC03882311F081E001C085E08093BD0335
:10070000DBC01091E602ADB7BEB718970FB6F894EC
:10071000BEBF0FBEADBFEDB7FEB73196812F90E0E3
:100720008C509D4F12969C938E9311978AE092E085
:10073000938382838091DA029091DB02A091DC02A4
:10074000B091DD0284839583A683B7830E94F92646
:10075000180F1093E60282E02BC01091E602ADB7AD
:10076000BEB718970FB6F894BEBF0FBEADBFEDB7BA
:10077000FEB73196812F90E08C509D4F12969C933E
:100780008E93119785E192E0938382838091DE02BC
:100790009091DF02A091E002B091E1028483958301
:1007A000A683B7830E94F926180F1093E60283E010
:1007B0008093BD038DB79EB708960FB6F8949EBF81
:1007C0000FBE8DBF79C01091E60200D000D000D0DE
:1007D000EDB7FEB73196812F90E08C509D4FADB7AD
:1007E000BEB712969C938E93119780E292E093830A
:1007F00082838091E2029091E302958384830E9438
:10080000F926180F1093E60284E08093BD038DB79C
:100810009EB70696D2CF2091E4023091E502109166
:10082000E602ADB7BEB718970FB6F894BEBF0FBEBD
:10083000ADBFEDB7FEB73196812F90E08C509D4F44
:1008400012969C938E93119789E292E09383828310
:1008500088ED92E0821B930B43E0969587954A952D
:10086000E1F79583848383E0369527958A95E1F7B0
:10087000378326830E94F926180F1093E60285E03D
:1008800097CF8091E60290E08C509D4F6DE372E02F
:100890000E94F2264091E60250E04E5F5F4F409387
:1008A000E6028BE592E064EF72E050E00E94D91519
:1008B0001092BD0310927C028091BD038823A1F0A9
:1008C0003FB7F8948091D20380618093D2032FB711
:1008D000F89480916B0590916C05946090936C05F1
:1008E00080936B052FBF3FBF1F9108951F93182F53
:1008F00082E00E94D40B81E00E94D40B80E00E9431
:10090000D40B10FF03C082E00E94C70B11FF03C08D
:1009100081E00E94C70B12FF03C080E00E94C70B5A
:100920001F910895A0E1B0E0E8E9F4E00C94BE2640
:100930008091E7028F5F8093E7028091BC03882358
:1009400009F055C08091E802813091F4CE01019602
:100950000E948E0789819A81AB81BC818051974228
:10096000A040B04028F08091E70280FF18C015C079
:100970008091E8028130A9F4CE0101960E948E0791
:1009800089819A81AB81BC8188529342A040B0405A
:1009900040F08091E70281FF02C080E0ACC087E0B8
:1009A000AAC01091E702123561F0133518F4103522
:1009B000C1F405C0143551F0163599F409C080E032
:1009C0000EC08091E802882339F408C082E007C095
:1009D0008091E802882311F484E001C081E00E9444
:1009E00076048091E702863508F47DC07AC08130B4
:1009F00009F083C08091E9028F5F8093E90284311E
:100A000009F03FC01092E902CE0101960E948E07C4
:100A100029813A814B815C818091EA029091EB02BD
:100A2000B901681B790B8D819E81AF81B885E090FB
:100A3000EE02F090EF020091F0021091F10220938B
:100A4000EA023093EB024093EC025093ED02809364
:100A5000EE029093EF02A093F002B093F1026A309D
:100A600071055CF020E030E08E199F09880F991F16
:100A7000880F991F6817790714F421E030E020935C
:100A8000F2028091F202882349F08091E70280FF10
:100A900002C080E001C087E00E9476048091F202EB
:100AA000882359F51091E702143591F0153528F493
:100AB000103551F0123589F40DC0183549F01A354A
:100AC00049F0163551F402C080E005C084E003C04F
:100AD00082E001C081E00E9476048091E7028A35BD
:100AE00010F01092E702103540F4E0917D02F0E042
:100AF000E05CFD4F80810E9476048091F3028F5F5D
:100B00008093F3028A30E1F41092F30280917C0228
:100B10008823B1F01092BD033FB7F8948091D203BF
:100B200080618093D2032FB7F89480916B059091E8
:100B30006C05946090936C0580936B052FBF3FBF4D
:100B40006096E6E00C94DA260E94BA0B8BE592E000
:100B50000E9469178EE792E00E943B1208951F934E
:100B6000CF93DF93142FEC0140E050E0A0E0B0E021
:100B70001CC0FB01EA0FFB1F90818881982799F028
:100B8000E92FE295EF70F0E0E557FD4F2081E92F66
:100B9000F0E0EF70F070E557FD4F808190E0820F3C
:100BA000911D480F591F11962196A11710F3CA01E4
:100BB000DF91CF911F910895DC01962F50E028E13D
:100BC00034E761E070EC18C040E0FD01E50FF11D75
:100BD00020FF09C026273727369527953068808162
:100BE0008695806804C03695279580818695808398
:100BF0004F5F483069F75F5F591730F30895CF931F
:100C0000DF93B62FEC01A0E0E0E0F0E01CC02991FA
:100C10002E27822F8295807F8227682F70E0562FA3
:100C200044272F2F3327422B532BFB0193E0EE0F4A
:100C3000FF1F9A95E1F782958F7090E0E827F927DA
:100C4000E427F527AF5FAB1710F3CF01DF91CF910A
:100C500008951092C2031092C3031092C40310921D
:100C6000C5031092C6031092C7031092C8031092D6
:100C7000C9031092CA031092CB031092CC031092B6
:100C8000CD031092CF031092CE031092D103109295
:100C9000D0031092BF031092BE031092C1031092B2
:100CA000C00308959C01742F8091C2039091C303E7
:100CB000A091C403B091C5030196A11DB11D8093FD
:100CC000C2039093C303A093C403B093C50321153B
:100CD000310599F08091C6039091C703A091C80394
:100CE000B091C9030196A11DB11D8093C6039093D5
:100CF000C703A093C803B093C903C901A0E0B0E043
:100D00002091CA033091CB034091CC035091CD0385
:100D1000820F931FA41FB51F8093CA039093CB0328
:100D2000A093CC03B093CD032091BE033091BF03B9
:100D3000862F90E09695982F882797958795A901FB
:100D4000481B590BCA01E5E095958795EA95E1F7AF
:100D5000281B390B3093BF032093BE03220F232F90
:100D6000221F330B3093CF032093CE032F3F310547
:100D700039F030F08FEF90E09093CF038093CE0363
:100D80008091C0039091C103272F30E03695322F18
:100D9000222737952795AC01421B530B9A0145E05A
:100DA000359527954A95E1F7821B930B9093C103E4
:100DB0008093C00324E0959587952A95E1F7909359
:100DC000D1038093D0030895DC01E2ECF3E080E1ED
:100DD00001900D928150E1F708951F93CF93DF9317
:100DE000EC01162F05C080E20E9446118993115034
:100DF0001123C9F7DF91CF911F9108950E945D11D2
:100E000080E20E94461108951F93CF93DF93EC0177
:100E1000162F0E945D1180E60E94461104C0899140
:100E20000E94461111501123D1F70E945B11DF91EE
:100E3000CF911F9108951F93182F0E945D111F736A
:100E40001068812F0E944611812F0E944611182F91
:100E50000E945B11812F1F9108950F931F93182FEC
:100E6000062F0E945D11812F806C0E944611802FF9
:100E70000E9446110E945B111F910F9108951092DC
:100E8000D2030895EF92FF920F931F93CF93DF93B6
:100E90000BE912E0C0E0D0E081E0E82EF12C809177
:100EA000D20390E00C2E02C0959587950A94E2F744
:100EB00080FF14C03FB7F8942091D203C7010C2ED5
:100EC00002C0880F991F0A94E2F7809582238093CD
:100ED000D2033FBFD801ED91FC91099521960E5F99
:100EE0001F4FC530D105D9F6CDB7DEB7E6E00C947B
:100EF000DA260E94420708950E94A90B0E946C0BFB
:100F0000FDCF8091D303882331F40E94090881E04A
:100F10008093D30308950E94420708950E94E40637
:100F200008950E94290682E061E00E94EA02089585
:100F30000E9415090895A0E1B0E0E1EAF7E00C9401
:100F4000C226809156048823F1F0CE0101960E94BA
:100F5000E40689819A81AB81BC8180519742A0408F
:100F6000B04068F08091D403813049F48091D5037A
:100F7000882349F00E943E0A1092D50304C00E94C3
:100F80001009109256046096E2E00C94DE261F933E
:100F9000182F8093D4030E94290681E0612F0E94BC
:100FA000EA020E949B071F9108950E94A409682FDE
:100FB00080E00E94EA0280915704882329F481E0AE
:100FC000809356040E949B0708951F93182F8093C7
:100FD0005704882329F481E08093560480E009C0F7
:100FE0008091D503882321F00E943E0A1092D503F8
:100FF00081E00E946B090E9429060E943F0782E05F
:10100000612F0E94EA02112311F40E949B071F9195
:1010100008950F931F9306ED13E0C80160E80E9446
:10102000DC058FE78093D603C80101966DE70E9427
:10103000FF05809354049093550489E498E06DE291
:1010400078E00E94B908C8010E9455080E94A405D2
:101050000E94FC0A1F910F910895CF93DF93EC013A
:1010600088818F3719F080E092E007C0CE010196A9
:1010700067ED73E04FE70E94AF05FE01EF5FFE4FA3
:10108000C050DF4F688140810E945206DF91CF91AE
:10109000089581E08093560480E090E060E040E0B5
:1010A0000E9452060E949B07089590935A048093D1
:1010B00059040895E0915B04F0915C04099508954A
:1010C000089508951F930E945D119FB7F8948FE8CB
:1010D0008EBD00000DB407FEFDCF9FBF8EB59FB73C
:1010E000F8948FE88EBD00000DB407FEFDCF9FBFC2
:1010F0001EB50E945B1113FF3AC00E945D119FB79D
:10110000F89487E88EBD00000DB407FEFDCF9FBFA9
:101110008EB59FB7F89487E88EBD00000DB407FE2A
:10112000FDCF9FBF1EB50E945B111093610580919A
:101130005804813041F08230D1F43FB7F894809167
:10114000D203816005C03FB7F8948091D2038260DA
:101150008093D2032FB7F89480916B0590916C0522
:10116000816090936C0580936B052FBF3FBF1F91EB
:10117000089590935C0480935B0470935E04609385
:101180005D048EE068E00E942D0708950E946411BE
:101190000E94FE068FE594E061E00E94ED0680E685
:1011A00094E060915F040E94ED068FE595E061E0B8
:1011B0000E94ED0690915F0520916105213210F0AB
:1011C00020E203C0222309F421E09295969596959A
:1011D00093708FEF989FC001112430E0AC01429FC3
:1011E000C001439F900D529F900D112460E670E066
:1011F0000E947C2660935F050E945B1180916105CF
:101200008093600582E066E00E942D070E946211D3
:10121000E0915D04F0915E048FE594E009950895F6
:101220000E9468110E946A110895A1E0B0E0EBE10C
:10123000F9E00C94C126182F0E94641185E00E94E9
:101240001B07682F133014F080E039C0123011F4FE
:1012500082E035C0113011F484E031C0112311F463
:1012600086E02DC01F3F11F487E029C01E3F11F416
:1012700088E025C01D3F11F489E021C01C3F11F416
:101280008AE01DC0812F8A5F823010F48BE017C086
:10129000812F885F823010F48CE011C0812F865F2F
:1012A000823010F48DE00BC0812F825F843010F407
:1012B0008EE005C0123F14F48FE001C085E0607F2E
:1012C000682B698385E00E942D070E946211219698
:1012D000E3E00C94DD26A1E0B0E0E1E7F9E00C9456
:1012E000C126182F0E94641182E063E00E942D073E
:1012F00081E00E941B0789838F718830C9F7112311
:1013000089F482E069E00E942D0781E0809358040F
:10131000E0915904F0915A0460816F5FCF010E94FF
:10132000040707C082E066E00E942D0782E08093F8
:1013300058048FE00E941B070E945F110E946211F7
:101340002196E3E00C94DD26A1E0B0E0EAEAF9E0C2
:101350000C94C126182F8B3110F01AE103C08B308A
:1013600008F41BE00E94641182E063E00E942D07F4
:1013700081E00E941B0789838F718830C9F70E9422
:101380001B07912F9F71682F607E692B698388E00E
:101390000E942D0780915804813019F482E069E0A1
:1013A00003C0823019F466E00E942D078FE00E948E
:1013B0001B070E945F110E946211812F2196E3E0BA
:1013C0000C94DD26A1E0B0E0E8EEF9E00C94C22632
:1013D0000E9475118FEF0E949B118FEF0E949B114D
:1013E0000E94731186E00E949B110E94711182E09D
:1013F00068E00E942D078FEF0E949B118FEF0E94E3
:101400009B1181E00E941B078F718830D1F71982F0
:101410000E948211823051F0833018F4882391F0B9
:1014200014C0833039F0843081F408C08981887F0A
:1014300082600EC08981887F83600AC08981887F2D
:10144000846006C08981887F03C08981887F81602C
:10145000898369816F7C6061698383E00E942D07C5
:101460008EE060E00E942D070E94DF0A0E945F115B
:101470000E9462112196E2E00C94DE269FB7F89458
:10148000B198EFE6F0E080818D7F80839FBF089563
:10149000E0916205F0916305099508951F920F92FE
:1014A0000FB60F9211242F933F938F939F938091A8
:1014B0006605909167050196909367058093660590
:1014C000209164053091650582179307C1F410924D
:1014D0006705109266053FB7F8948091D203846047
:1014E0008093D2032FB7F89480916B0590916C058F
:1014F000946090936C0580936B052FBF3FBF9F91C5
:101500008F913F912F910F900FBE0F901F901895C4
:1015100010926705109266059093650580936405A7
:10152000709363056093620589E0809381000E9457
:101530007A1020E432E44FE050E00E949026CA0185
:10154000B90128EE33E040E050E00E945D26709340
:10155000890060938800109285001092840082E0D8
:1015600086BBEFE6F0E080818260808308951F9261
:101570000F920FB60F920BB60F9211242F933F9339
:101580004F935F936F937F938F939F93AF93BF938B
:10159000EF93FF930E946208FF91EF91BF91AF918B
:1015A0009F918F917F916F915F914F913F912F917B
:1015B0000F900BBE0F900FBE0F901F9018950E94BA
:1015C0007C1108950E94331090E09695879596952A
:1015D0008795817008950E94331090E08370907019
:1015E0008230910519F0039719F404C089EF08952A
:1015F0008FEE089583E008958FE49BE06CE37BE039
:101600000E94180D85E10E94D5070E94E20A80938E
:101610006805882331F40E94EB0A809369050E94D3
:101620009807809168050E94E50785EA92E00E948C
:101630003B1208950E94E20A982F8091680589174D
:1016400029F090936805892F0E94E507809168052D
:10165000882361F40E94EB0A982F8091690589170D
:1016600029F090936905892F0E94980780916A0557
:101670008F5F80936A050895982F8091680588236D
:1016800069F4913059F480916A05843020F081E04A
:101690000E94C707089580E00E94C707089581301F
:1016A00051F480916805813019F40E9491070895E2
:1016B00010926A050895823071F48091B2028F5FB2
:1016C0008093B2028B3118F08BE08093B20280914C
:1016D000B2020E94D5070895E0E0F0E021E030E09A
:1016E000B9010E2E02C0660F771F0A94E2F78091AF
:1016F0006B0590916C0586239723892BC9F04FB712
:10170000F89420916B0530916C05CB0180959095F4
:101710008223932390936C0580936B054FBFEE0F4C
:10172000FF1FED54FD4F0190F081E02D099504C09D
:101730003196EB30F105A1F680916B0590916C0527
:1017400020E0892B09F021E0822F08950E946C0B84
:1017500008950E942B110E94E2092FB7F8948091FE
:101760006B0590916C05946090936C0580936B056C
:101770002FBF0895259A269A279A80E008952598E4
:101780002D9826982E9827982F9880E008958130DC
:1017900049F0813018F0823031F402C02D9808955C
:1017A0002F9808952E980895813049F0813018F0CF
:1017B000823031F402C02D9A08952F9A08952E9AFE
:1017C0000895813069F0813018F0823069F404C0E6
:1017D00085B190E2892702C085B1805885B9089506
:1017E00085B190E4892785B9089580916D0580FFC2
:1017F00007C080916D058E7F80936D050E943B0C24
:1018000080916D0581FF07C080916D058D7F80936C
:101810006D050E94B50D80916D0582FF07C0809116
:101820006D058B7F80936D050E942B0E80916D0559
:1018300083FF07C080916D05877F80936D050E94AF
:101840006F1080916D05882361F02FB7F894809117
:101850006B0590916C05916090936C0580936B057E
:101860002FBF089590916F05917080916F0581FD54
:101870009260892F089580916F0582FF12C0809138
:101880006F058B7F80936F0580916F0580618093DA
:101890006F05E0917005F0917105309711F081E0CE
:1018A000099580916F0584FF29C0669B16C08091C1
:1018B0006F058F7E80936F0580916F058E7F80937B
:1018C0006F05E0917205F0917305309711F081E09A
:1018D000099586E00E943F1911C080916D058160D5
:1018E00080936D052FB7F89480916B0590916C05EE
:1018F000916090936C0580936B052FBF80916F056D
:1019000083FF12C080916F05877F80936F05809160
:101910006F05806280936F05E0917005F09171050D
:10192000309711F082E0099580916F0585FF29C0FD
:10193000679B16C080916F058F7D80936F058091A6
:101940006F058D7F80936F05E0917205F0917305AF
:10195000309711F082E0099587E00E943F190895C1
:1019600080916D05816080936D052FB7F89480910B
:101970006B0590916C05916090936C0580936B055D
:101980002FBF089587E00E945E1980916F058260E5
:1019900080936F0580916F05886080936F058091BB
:1019A0006D05816080936D052FB7F89480916B056C
:1019B00090916C05916090936C0580936B052FBF9F
:1019C000089586E00E945E1980916F058160809382
:1019D0006F0580916F05846080936F0580916D0520
:1019E000816080936D052FB7F89480916B0590917D
:1019F0006C05916090936C0580936B052FBF0895E3
:101A000080916E05813011F081E0089586E00E949A
:101A10007E1987E00E947E19109271051092700560
:101A2000109273051092720510926E0580E0089571
:101A30009C0180916E05882311F081E0089581E07A
:101A400080936E0530937105209370057093730534
:101A50006093720586E060E041EE5CE00E94A819A8
:101A600087E060E042EC5CE00E94A819669B04C03D
:101A700080916F058E7F03C080916F058160809398
:101A80006F05679B04C080916F058D7F03C08091B7
:101A90006F05826080936F0586E00E943F1987E0A2
:101AA0000E943F1980E0089580917405811181E0C2
:101AB000089580917405811181E008958093DF0578
:101AC0008823D1F41092DB051092DC051092DD051D
:101AD0001092DE0580916D05826080936D052FB7B1
:101AE000F89480916B0590916C05916090936C05D2
:101AF00080936B052FBF0895809174058130A1F507
:101B00008091DB059091DC05A091DD05B091DE05AB
:101B1000382F20E0892F9A2FAB2FBB27A7FDBA952E
:101B20009070822B932B880F892F881F990BAA27DF
:101B300097FDA095BA2F8093DB059093DC05A093C9
:101B4000DD05B093DE0580916D05826080936D05A3
:101B50002FB7F89480916B0590916C0591609093EC
:101B60006C0580936B052FBF08950E94F0191092A9
:101B700074056091DB057091DC05E091E005F09162
:101B8000E1058091DF0509950895ADE0B0E0EBEC4B
:101B9000FDE00C94C0268C0180917405882379F5B2
:101BA0000115110561F188E38983CE0101960E9438
:101BB000A21B8F5F9F4F19F181E0809374051093F2
:101BC000E1050093E0058BED95E09E838D838EE526
:101BD0009DE09D878C8789E48A8382E090E09C83E6
:101BE0008B831F82CE0102960E943C1A8F5F9F4F0B
:101BF00011F080E005C0109274050E94F01981E098
:101C00002D96E4E00C94DC2690E0809175058230FE
:101C100008F091E0892F089590E080917505823059
:101C200008F091E0892F0895882319F485E08093C6
:101C3000750580916D05846080936D052FB7F894CC
:101C400080916B0590916C05916090936C058093E9
:101C50006B052FBF0895A9E0B0E0E1E3FEE00C942E
:101C6000BE260E94F01980917505843049F08530B8
:101C700009F47AC0833009F077C01092750577C0F7
:101C80001A821B821C821D821E821F821886198660
:101C900081E08093750560917605809177058623B4
:101CA00087FF65C070E06F777070660F771F635BAA
:101CB0007E4FCE01029642E050E00E94E9266091FC
:101CC000770570E06F777070660F771F635B7E4FEC
:101CD000CE01069642E050E00E94E9262A813B812F
:101CE0004C815D81211531054105510509F43FC045
:101CF0006E817F81888599856217730784079507B0
:101D0000B0F5E7E0660F771F881F991FEA95D1F7B6
:101D10000E94902630E024533F4FCE010196B90136
:101D200041E050E00E94E926698170E080E090E0A7
:101D30002A813B814C815D81EE80FF800885198579
:101D40002E193F09400B510B0E945D26672F782FFB
:101D5000892F992787E06733780720F091E066E3C1
:101D600077E008C091E006C081E08093750590E0BF
:101D700060E070E080E0911181E0E0917805F09101
:101D8000790509952996E6E00C94DA26ACE0B0E0F6
:101D9000ECECFEE00C94C226FE0131968CE0DF01F3
:101DA0001D928A95E9F789E3898381E090E09B831E
:101DB0008A8386E795E09D838C838DEB9FE09C87EB
:101DC0008B8783E480937605CF010E94011A20E07F
:101DD0008F5F9F4F09F021E0822F2C96E2E00C9458
:101DE000DE260E94C60E8823A9F485E0809375053F
:101DF00080916D05846080936D052FB7F894809174
:101E00006B0590916C05916090936C0580936B05C8
:101E10002FBF089584E0809375050895ADE0B0E08C
:101E2000E4E1FFE00C94C0268C01009709F446C061
:101E300088E3898380917505882339F5CE01019661
:101E40000E94A21B8F5F9F4FC9F1FE0132968CE06A
:101E5000DF011D928A95E9F789E38A8381E090E0AA
:101E60009C838B8386E795E09E838D8381EA9FE048
:101E70009D878C8783E080937605CF010E94011AAD
:101E80008F5F9F4F79F082E011C08130B9F4CE01AD
:101E900001960E94A21B8F5F9F4F81F00E94C60E89
:101EA000882319F40E94F01909C084E08093750515
:101EB000109379050093780580E001C081E02D96AC
:101EC000E4E00C94DC26ACE0B0E0E9E6FFE00C9442
:101ED000C22693E8909377058823D9F0FE013196C6
:101EE0008CE0DF011D928A95E9F788EF9FE09C87DF
:101EF0008B8787E795E09D838C8381E090E09B83CF
:101F00008A8389E38983CF010E94011A8F5F9F4FE3
:101F1000A1F485E08093750580916D0584608093C0
:101F20006D052FB7F89480916B0590916C059160C9
:101F300090936C0580936B052FBF2C96E2E00C9478
:101F4000DE268823A9F483E08093750580916D05D2
:101F5000846080936D052FB7F89480916B05909104
:101F60006C05916090936C0580936B052FBF08956D
:101F700089EC92E00E943B120895ACE0B0E0E3EC03
:101F8000FFE00C94C2268823D9F0FE0131968CE044
:101F9000DF011D928A95E9F783E69FE09C878B8796
:101FA00086E795E09D838C8381E090E09B838A8324
:101FB00089E38983CF010E943C1A8F5F9F4FA1F470
:101FC00085E08093750580916D05846080936D0533
:101FD0002FB7F89480916B0590916C059160909368
:101FE0006C0580936B052FBF2C96E2E00C94DE26E7
:101FF000ACE0B0E0EEEFFFE00C94C2268823D9F00D
:10200000FE0131968CE0DF011D928A95E9F784E1AB
:102010009EE09C878B8787E795E09D838C8381E09A
:1020200090E09B838A8389E38983CF010E943C1AD5
:102030008F5F9F4FA1F485E08093750580916D05BA
:10204000846080936D052FB7F89480916B05909113
:102050006C05916090936C0580936B052FBF2C9657
:10206000E2E00C94DE269898A098A09A9998A198FE
:10207000A19A9A98A298A29A000022B392B382B32E
:1020800092708470892B2170822B9898A0989998CF
:10209000A1989A98A29880958770089580E00895F5
:1020A00080E0089580E0089580E0089580E008953C
:1020B0009093E3058093E20580916D05886080939D
:1020C0006D052FB7F89480916B0590916C05916028
:1020D00090936C0580936B052FBF80E00895E0918D
:1020E000E205F091E30580E090E009950895809184
:1020F0007A05089560E072E18AE790E00895F99921
:10210000FECF9FB7F894E0E0F0E089E080935700BD
:1021100084919FBF8F70823019F410927A0503C0AA
:1021200081E080937A0580917A05882369F48FB7DE
:10213000F8945F9350E85093610050E05093610031
:102140005F918FBF0E941A110895A0E0B0E0EBEA02
:10215000F0E10C94B62600E8C2E8DBE810E092E873
:10216000C92E9BE8D92EE12CF12C82E8A82E8BE811
:10217000B82E0E94CF01BC018BE86338780718F1B4
:102180009E0140E050E0CB01A0E0B0E082589B48C7
:10219000A040B040281739074A075B074CF41230BB
:1021A00039F480916600815080936600000036C04B
:1021B000809166008150809366000000EB01C25858
:1021C000DB4811E028C08BE86238780739F1CE018E
:1021D000A0E0B0E09B0140E050E036014701621A08
:1021E000730A840A950A86159705A805B9054CF463
:1021F000113039F4809166008F5F80936600000093
:102200000DC0809166008F5F809366000000E5013D
:10221000C61BD70B12E0015009F0ABCFCDB7DEB72C
:10222000EEE00C94D2260E947710882311F40E94CD
:10223000A5100895CF93DF93C0E0D0E088EC0E9412
:10224000C701219683E1C838D807C1F70E9413114E
:10225000DF91CF9108950E943B110E94B91D0E9409
:102260007F100E94C0110E94B41F84E060E00E94B1
:102270003B2278940895289A23982B98229A219AA1
:10228000209A80E58CBD81E08DBD08958EBD000053
:10229000000000000000000000000000000000003E
:1022A000000000000000000000000000000000002E
:1022B0008DB58EB50895289A08952898089580E2DE
:1022C0008CBB0895ED9A08958DB3ED9880720895B2
:1022D0002C9A08952C98089524982C980895249A5F
:1022E0000895179A0895179808952C98249A179A84
:1022F0000F9A6D9875980895EAE6F0E080818C60F9
:102300008083089584E0089580E0089508950895F5
:10231000089508951F9310E00E945D1181E80E94C6
:102320004611812F0E944611182F0E945B11183010
:1023300099F71F9108950E94C7010895FC01009725
:1023400019F42FEF3FEF1AC080917B0580838091B5
:102350007C05818380917D05828380917E058383C6
:1023600080917F058483809180058583809181059C
:10237000868380918205878320E030E0C90108953B
:102380000F9380E06BE775E041E020E030E00E94D1
:102390003019813011F590917B05292F30917C0502
:1023A00040917D0550917E0560917F05709180057B
:1023B0008091810508E00E94EC0120937B05309319
:1023C0007C0540937D0550937E0560937F05709357
:1023D000800580938105909382050F9108958F92D7
:1023E0009F92AF92BF92CF92DF92EF92FF920F93A4
:1023F0000E94401E4B015C012091AD0530E040E0A1
:1024000050E060E070E080E090E000E20E946B024B
:10241000282939294A295B290F91FF90EF90DF90F5
:10242000CF90BF90AF909F908F900895CF93DF9300
:10243000EC010097D1F080918305909184058C1771
:102440009D0719F460E070E008C083E895E0BE01E4
:102450000E943A1DBC01009741F083E895E0AE016F
:102460000E941C1D20E030E002C02FEF3FEFC901A9
:10247000DF91CF910895CF93DF93EC01009771F036
:10248000E0918305F091840506C0EC17FD07D9F0B3
:102490000190F081E02D3097C1F706C02FEF3FEF9C
:1024A000C901DF91CF9108950E9453209B01AC0197
:1024B000198218826A837B838C839D8383E895E0ED
:1024C000BE010E94CD1C20E030E0EACFEF92FF92E7
:1024D0000F931F93CF93DF9318C083E895E060E0DC
:1024E00070E0AE010E941C1D8A85882359F4EA829F
:1024F000FB820C831D8383E895E0BE01A801970150
:102500000E94CD1CEB85FC850995809183059091F7
:102510008405892BD9F00E9453207B018C01C09146
:102520008305D09184058A819B81AC81BD81A801FE
:102530009701281B390B4A0B5B0B8E819F81A88565
:10254000B985281739074A075B0738F6CDB7DEB7D4
:10255000E6E00C94DA268091850580FF0BC09FB7DA
:10256000F894809185058E7F809385059FBF0E949A
:10257000AD2577C08091850581FF0BC09FB7F8948A
:10258000809185058D7F809385059FBF0E94A31E46
:1025900068C08091870587FF0BC09FB7F894809132
:1025A00087058F77809387059FBF0E94D31759C0F7
:1025B0008091880583FF0BC09FB7F89480918805B0
:1025C000877F809388059FBF0E94491D4AC08091E4
:1025D000880584FF0BC09FB7F894809188058F7E93
:1025E000809388059FBF0E94221C3BC08091890573
:1025F00082FF0BC09FB7F894809189058B7F8093F1
:1026000089059FBF0E9491232CC08091890585FF79
:102610000BC09FB7F894809189058F7D80938905C1
:102620009FBF0E94861B1DC08091890587FF0BC03C
:102630009FB7F894809189058F77809389059FBF14
:102640000E9466120EC080918A0587FF0AC09FB75C
:10265000F89480918A058F7780938A059FBF0E94A6
:102660005F24809185058823A1F4809186058823C5
:1026700081F480918705882361F4809188058823FF
:1026800041F480918905882321F480918A0588236B
:1026900061F02FB7F89480916B0590916C05826082
:1026A00090936C0580936B052FBF089590919205D0
:1026B00021E030E002C0220F331F8A95E2F7922B0F
:1026C00090939205809187058068809387052FB746
:1026D000F89480916B0590916C05826090936C05E5
:1026E00080936B052FBF0895CF93DF93E82FF0E021
:1026F000CF01805C9040A3E095958795AA95E1F77E
:10270000482F50E0EA01CC0FDD1FC557DA4FA881F2
:10271000B981109721F481818F7781836CC0909665
:102720008C91909783FD67C05496ED91FC915597DD
:1027300084FF09C06083E881F981848995890196C5
:10274000958B848B58C0EF2B09F455C01696CD910C
:10275000DC91179716968D919C9117970196179675
:102760009C938E93169716962D913C91179756969B
:102770008D919C9157972817390721F417961C9231
:102780001E92169716962D913C91179714968D913F
:102790009C9115972817390729F41796DC93CE9347
:1027A000169729C05496ED91FC915597EC0FFD1F9B
:1027B000608318968D919C911997019619969C9318
:1027C0008E931897440F551F45575A4FEA01E881D9
:1027D000F98180A180FF0FC08385883C61F4189641
:1027E0002D913C911997868997899695879582179F
:1027F000930708F45D9ADF91CF910895E82FF0E0F8
:10280000E05CF04083E0F595E7958A95E1F7F0E02C
:10281000EE0FFF1FE557FA4F0190F081E02D309742
:10282000C1F04FB7F89422813381808191814FBFED
:102830002817390711F481E08287828D938D892BC7
:1028400011F4118E108E068CF78DE02D309709F063
:1028500009950895E82FF0E0E05CF04023E0F5955D
:10286000E7952A95E1F7F0E0EE0FFF1FE557FA4FE5
:102870000190F081E02D309791F080A1887179F47A
:102880008FB7F894208531858FBF2115310539F038
:10289000048CF58DE02D309711F0C901099508954C
:1028A000909391058093900581E080938F05089522
:1028B00010928F050895803C21F0883C11F080E053
:1028C000089581E008951F93CF93DF93EC01009763
:1028D00051F11B85812F0E945B14882321F1E12F88
:1028E000F0E0E05CF04043E0F595E7954A95E1F7CC
:1028F000F0E0EE0FFF1FE557FA4F80819181C81776
:10290000D90789F44FB7F8942A813B81888199814E
:102910004FBF2817390719F020E030E006C08A853C
:10292000282F30E002C02FEF3FEFC901DF91CF9198
:102930001F9108951F93CF93DF93EC01009731F11E
:102940001B85812F0E945B14882301F1E12FF0E0A9
:10295000E05CF04073E0F595E7957A95E1F7F0E0FB
:10296000EE0FFF1FE557FA4F80819181C817D907F5
:1029700069F4183C59F48CB1282F30E054E03695B6
:1029800027955A95E1F72170307002C02FEF3FEF85
:10299000C901DF91CF911F9108951F93CF93DF93CA
:1029A000EC01009731F11B85812F0E945B14882375
:1029B00001F1E12FF0E0E05CF040B3E0F595E79540
:1029C000BA95E1F7F0E0EE0FFF1FE557FA4F80816F
:1029D0009181C817D90769F4183C59F489B1282F97
:1029E00030E0E4E036952795EA95E1F72170307004
:1029F00002C02FEF3FEFC901DF91CF911F910895E2
:102A00001F93CF93DF93EC010097F9F01B85812F83
:102A10000E945B148823C9F0E12FF0E0E05CF040F5
:102A200093E0F595E7959A95E1F7F0E0EE0FFF1F3B
:102A3000E557FA4F80819181C817D90731F4183CC6
:102A400021F45D9820E030E002C02FEF3FEFC90194
:102A5000DF91CF911F9108951F93CF93DF93EC01E6
:102A60000097F9F01B85812F0E945B148823C9F021
:102A7000E12FF0E0E05CF04033E0F595E7953A9522
:102A8000E1F7F0E0EE0FFF1FE557FA4F80819181EB
:102A9000C817D90731F4183C21F45D9A20E030E0E2
:102AA00002C02FEF3FEFC901DF91CF911F91089531
:102AB000A0E0B0E0EEE5F5E10C94BA268C015B01F4
:102AC0006A01009709F46DC0DC011B96FC908F2D04
:102AD0000E945B14882309F464C0A114B10409F4B2
:102AE00060C0C114D10409F45CC0EF2DF0E0E05CDB
:102AF000F040A3E0F595E795AA95E1F7F0E0EE0F39
:102B0000FF1FE557FA4FC081D1810C171D0709F04F
:102B100048C08FB7F894F8016681778124813581A8
:102B20008FBF40E050E01AC07501E40EF51ED801D9
:102B30005496ED91FC915597E20FF31F8081F701B8
:102B400080832F5F3F4F56968D919C915797281702
:102B5000390711F420E030E04F5F5F4F2617370749
:102B600019F04C155D0500F38FB7F8943D832C8365
:102B700028853985241B350B398728872885398591
:102B80008FBF8B85883C59F488A180FF08C08E894F
:102B90009F89969587958217930708F05D989A010B
:102BA00002C02FEF3FEFC901CDB7DEB7EAE00C94CA
:102BB000D626A0E0B0E0EFEDF5E10C94B826EC01EC
:102BC0006B018A01009709F46FC0FB848F2D0E946E
:102BD0005B14882309F468C0C114D10409F464C0EB
:102BE0000115110509F460C0EF2DF0E0E05CF04044
:102BF00083E0F595E7958A95E1F7F0E0EE0FFF1F8A
:102C0000E557FA4F80809180C815D90509F04CC06E
:102C10008A8D9B8D892B81F42A813B8188819981C2
:102C20002817390709F040C0D98EC88E1B830A8344
:102C300019821882B80130C08FB7F894AA80BB807F
:102C4000E880F9808FBFA50160E070E019C09A01AB
:102C50002F5F3F4F8A8D9B8D2817390711F420E095
:102C600030E02E153F0579F0E88DF98DE40FF51F62
:102C7000D601A60FB71F8C9180836F5F7F4FA9018C
:102C80006017710720F38FB7F894F40153834283E0
:102C90008FBFAE14BF0431F41A86EB85F0E081815A
:102CA000806281839B0102C02FEF3FEFC901CDB746
:102CB000DEB7ECE00C94D426FC018389938588234D
:102CC00049F4903C19F0983C89F402C06A9A08953E
:102CD000559A0895903C19F0983C41F404C06A98C4
:102CE0007298729A089555985D985D9A08951F9309
:102CF000CF93DF93FC010097B1F11385812F0E94E0
:102D00005B14882381F1812F90E0805C904033E058
:102D1000959587953A95E1F7C82FD0E0DE01AA0F87
:102D2000BB1FA557BA4FED91FC9111973097D9F081
:102D3000E385F0E01182ED91FC9180A180FF02C05B
:102D400055985D988485803429F481E0838BCF0188
:102D50000E945C16CC0FDD1FC557DA4F198218820E
:102D600020E030E002C02FEF3FEFC901DF91CF91AB
:102D70001F91089580EC0E94FE13089580EC0E943C
:102D80002A14089588EC0E94FE13089588EC0E948E
:102D90002A140895CF93DF93282FA82FB0E0CD01F8
:102DA000805C904033E0959587953A95E1F7C82F80
:102DB000D0E0FE01EE0FFF1FE557FA4F60817181F1
:102DC0006115710509F476C0283CD1F5FB0180A19D
:102DD000282F81FD02C030E009C08CB190E0E4E012
:102DE00096958795EA95E1F7382F317020FD02C05E
:102DF00080E008C089B190E054E0969587955A9597
:102E0000E1F78170332311F48823D1F08AE090E058
:102E1000A0E0B0E08093990590939A05A0939B055C
:102E2000B0939C0581E080939D058DE597E190939B
:102E30009F0580939E0583E995E00E943B123AC06E
:102E40002FB7F894FB0182819381408151812FBF7C
:102E50008417950749F1808D918D840F951FFC0192
:102E600090819A012F5F3F4F8C9180648C931696CE
:102E70009C931697CC0FDD1FC557DA4FE881F98177
:102E8000828D938D2817390711F420E030E01196D8
:102E90008C911197806211968C938FB7F894FB01F7
:102EA000318320838FBF06C011968C911197806467
:102EB00011968C93DF91CF91089588EC0E94CA16E9
:102EC000089588EC0E94CA16089580EC0E94CA16E4
:102ED00008951F93CF93DF93EC01009709F45CC032
:102EE0001B85812F0E945B14882309F455C088A19B
:102EF000282F30E0A9014170507080FF03C0183CBA
:102F000009F04AC0812F90E0805C904073E0959575
:102F100087957A95E1F7E82FF0E0EE0FFF1FE55770
:102F2000FA4F80819181892BB9F5D183C083183CF8
:102F300081F421FF02C06C987498452B51F0559A8A
:102F400054985C988C899D89892B11F45D9A01C0F5
:102F50005D988C85803419F4CE010E945C1619822C
:102F600018821B821A828C899D89892B11F41F8AF1
:102F70001E8A888D998D892B11F41B8E1A8E1D82C5
:102F80001C821F821E8281E08A87CE010E948420DB
:102F90008B85282F30E002C02FEF3FEFC901DF9172
:102FA000CF911F910895CF92DF92FF920F931F93BD
:102FB000DF93CF9300D00F92CDB7DEB781E0898346
:102FC000FF2400E010E0F2E0CF2ED12CCC0EDD1E6D
:102FD0009091920589818923B9F02FB7F894909147
:102FE000920589818927809392052FBF6F2D70E00C
:102FF000660F771F635B7D4FC60142E050E00E9481
:10300000E926EA81FB810995F3948981880F8983F8
:103010000F5F1F4F06301105D9F60F900F900F90DC
:10302000CF91DF911F910F91FF90DF90CF90089586
:103030001F93FC0170E01CE81AC0CD01042E02C0F1
:10304000959587950A94E2F7272F30E082279327FA
:10305000272F269580FF03C0722F712701C0722F82
:103060004F5F5F4F4830510541F7615031966623FD
:1030700031F08081A82FB0E040E050E0DECF872F14
:103080001F9108950E949A0108950E94BE0108951B
:103090000E9468010895CF92DF92EF92FF920F9302
:1030A0001F93082F1FB7F8940E9468011FBF882341
:1030B00029F41092A8051092A90558C01FB7F894DA
:1030C000802F0E94BE011FBFDD24D394CC24EE24A8
:1030D000FF24F3941FB7F8940E948201082F0E94E6
:1030E00082011FBF013021F48130B1F480E03EC085
:1030F000081709F042C08091A805D81640F4EE2DBB
:10310000F0E0E056FA4F20812F2121F005C020E0A9
:10311000D81611F0CD2C32C0EE2DF0E0E056FA4F6B
:1031200080818F29808321E01FB7F894822F0E942D
:10313000A8011FBFFF0C19F4E394FF24F39487E068
:103140008E1510F0D394C6CF80EA95E068E00E9417
:103150001818882311F082E009C0C092A805CC207D
:1031600011F081E003C081E08093A9051F910F91C8
:10317000FF90EF90DF90CF900895202FEE2DF0E09C
:10318000E056FA4F9F2D9095808189238083CCCF84
:10319000A0E0B0E0EEECF8E10C94BB26B82EF62EE1
:1031A000E22E68011092A8051092A905662361F02D
:1031B0006093A00581E48093A805E1EAF5E011920F
:1031C00085E0E83AF807D9F7EA0110E08B2D0E9474
:1031D0004B18982F813041F58091A0058F1521F073
:1031E000FF2011F090E020C08091A005888380919D
:1031F000A10589838091A2058A838091A3058B8391
:103200008091A4058C838091A5058D838091A6056E
:103210008E838091A7058F831F5F8091A9058823E6
:1032200019F428961E1590F2C114D10411F0F6017C
:103230001083111191E0892FCDB7DEB7E9E00C942E
:10324000D7260F931F93982FFB01742F89018CEEC3
:10325000692FAF01272F0E94C8181F910F91089561
:103260000F931F93982FFB01742F890180EF692F13
:10327000AF01272F0E94C8181F910F910895382F72
:10328000E82FE650E230B0F4F0E0EE0FFF1FE45418
:10329000FA4F80819181892B69F02DB381E090E014
:1032A00002C0880F991F3A95E2F7282B2DBB20E02A
:1032B00030E002C02FEF3FEFC9010895382FE82F0B
:1032C000E650E230B8F4F0E0EE0FFF1FE454FA4F9E
:1032D00080819181892B71F02DB381E090E002C053
:1032E000880F991F3A95E2F7809582238DBB20E0E5
:1032F00030E002C02FEF3FEFC9010895CF93DF9375
:10330000382F86508230F0F4C82FD0E0CC0FDD1F6C
:10331000C454DA4F88819981892BA1F02DB381E0C3
:1033200090E0032E02C0880F991F0A94E2F780955F
:1033300082238DBB832F0E946A221982188220E08B
:1033400030E002C02FEF3FEFC901DF91CF91089528
:103350000F931F93CF93DF93282F8A01E82FE65016
:10336000E230F0F4CE2FD0E0FE01EE0FFF1FE45468
:10337000FA4F80819181892B99F4613089F0011590
:10338000110571F061116150822F0E943B22CC0F18
:10339000DD1FC454DA4F1983088320E030E002C0F7
:1033A0002FEF3FEFC901DF91CF911F910F9108954A
:1033B00087E08093AA0580E98093BC00809189050D
:1033C0008062809389052FB7F89480916B05909166
:1033D0006C05826090936C0580936B052FBF0895F8
:1033E0008091AA05882319F42FEF3FEF08C01092AF
:1033F000EE051092ED051092AA0520E030E0C9011B
:103400000895FC018091AA05813091F5309781F1F2
:1034100080818093E805838194819093E505809372
:10342000E40585818093E70581818093E6058285A7
:1034300093859093EE058093ED0586819781A08515
:10344000B1858093E9059093EA05A093EB05B093CD
:10345000EC058091E705882311F484E001C082E047
:103460008093AA0585EA8093BC0020E030E002C08A
:103470002FEF3FEFC9010895FC018091AA0581302B
:1034800091F5309781F180818093E8058581809363
:10349000E70581818093E605838194819093E5051A
:1034A0008093E405828593859093EE058093ED05E6
:1034B00086819781A085B1858093E9059093EA057F
:1034C000A093EB05B093EC058091E705882311F4F8
:1034D00085E001C083E08093AA0585EA8093BC0063
:1034E00020E030E002C02FEF3FEFC9010895809146
:1034F000AA05823041F08091AA05833021F08091A5
:10350000AA05843021F48091E805880F08C08091D5
:10351000AA05853051F48091E805880F8F5F80936C
:10352000BB0085E88093BC0008950E94D8190895D7
:103530009091E7058091E605981790F48091E70552
:10354000E091E405F091E505E80FF11D90818F5FB2
:103550008093E7059093BB0085E88093BC000895B5
:1035600086E08093AA0584E98093BC008091890558
:103570008062809389052FB7F89480916B059091B4
:103580006C05826090936C0580936B052FBF089546
:103590008091E9059091EA05A091EB05B091EC05C9
:1035A0002091E70521502093E7052091E705220FA0
:1035B000220F220F04C0B695A795979587952A9557
:1035C000D2F78093BB0085E88093BC008091E7052B
:1035D000882359F48091AA05823021F484E08093F5
:1035E000AA05089585E08093AA0508958091AA050B
:1035F000843019F40E94981A08958091AA058230A7
:1036000021F08091AA05833019F40E94C81A089508
:103610008091AA05853021F485EA8093BC00089545
:103620000E94D81908958091AA05853099F4809157
:10363000E605813021F48091BC008F7B03C080912E
:10364000BC0080648093BC008091BC00856880933E
:10365000BC0008950E94D8190895982F8091AA055A
:10366000853029F58091E705E091E405F091E505C5
:10367000E80FF11D90838F5F8093E7052091E705A8
:103680008091E60530E090E001972817390724F48F
:103690008091BC00806403C08091BC008F7B8093CC
:1036A000BC008091BC0085688093BC0008950E9496
:1036B000D8190895982F8091AA05853021F5809119
:1036C000E705E091E405F091E505E80FF11D908331
:1036D0008F5F8093E70586E08093AA0584E9809355
:1036E000BC00809189058062809389052FB7F8948A
:1036F00080916B0590916C05826090936C0580932E
:103700006B052FBF08950E94D8190895E091ED052B
:10371000F091EE05309791F08091AA05863041F442
:103720008091BC0084FDFCCF81E08093AA0504C099
:1037300081E08093AA0580E00995089581E0809357
:10374000AA0508959C01009779F08091AA05882325
:1037500059F4C9010E94E72281E08093AA051092E2
:10376000E70520E030E002C02FEF3FEFC9010895E8
:10377000FC018091AB05882319F02EEF3FEF58C074
:10378000309709F453C08481958120813181820F63
:10379000931F8150904108F049C081E08093AB05B0
:1037A0007093F6056093F505AFEEB5E086E0019005
:1037B0000D928150E1F7F999FECF20E030E017C07B
:1037C000E091F105F091F205E20FF31F8091EF0512
:1037D0009091F00501969093F0058093EF05019785
:1037E00092BD81BDF89A80B580832F5F3F4F809155
:1037F000F3059091F4052817390710F31092F4059A
:103800001092F305809188058061809388052FB719
:10381000F89480916B0590916C05826090936C0593
:1038200080936B052FBF20E030E002C02FEF3FEF09
:10383000C901089590E08091AB05813009F491E0D1
:10384000892F08958091F3059091F405892B51F407
:103850001092AB05E091F505F091F605309719F15E
:10386000099508956091EF057091F0056F5F7F4FA6
:103870007093F0056093EF0561507040E091F105A1
:10388000F091F2054191F093F205E093F1058CE09F
:103890000E945B238091F3059091F405019790932A
:1038A000F4058093F3050895CF93DF93FC01809195
:1038B000AB05882319F02EEF3FEF6BC0309709F46A
:1038C00066C08481958120813181820F931F815050
:1038D000904108F05CC081E08093AB05AFEEB5E0AD
:1038E00086E001900D928150E1F77093F6056093A8
:1038F000F505672B19F4C0E0D0E03BC06091EF05FF
:103900007091F0056F5F7F4F7093F0056093EF0546
:1039100061507040E091F105F091F2054191F09312
:10392000F205E093F1058CE00E945B238091F305A2
:103930009091F40501979093F4058093F30524C0CA
:103940006091EF057091F0056F5F7F4F7093F00508
:103950006093EF0561507040E091F105F091F20540
:103960004191F093F205E093F10584E00E945B231E
:1039700021968091F3059091F405C817D90700F3BB
:10398000F999FECF1092AB0520E030E002C02FEF96
:103990003FEFC901DF91CF910895A0E0B0E0E3EDE2
:1039A000FCE10C94BA268C01EB0169017A01FC015F
:1039B000608171816115710589F1FB01AA24BB2425
:1039C000268137814085518582819381A481B5818B
:1039D000280F391F4A1F5B1F2C193D094E095F092B
:1039E0002F3F8FEF38078FEF48078FE7580748F4CE
:1039F0008E819F81A885B985281739074A075B07FB
:103A000038F4808191815F01009761F0FC01D8CF8B
:103A1000E617F70731F4F983E883F801D183C0830F
:103A200006C0CF01F501D183C08399838883CDB7C8
:103A3000DEB7EAE00C94D626CF93DF93EC01DB01EE
:103A4000FA01888199814817590739F48081918159
:103A500011821082888399830AC080819181119696
:103A60009C938E93118210828C9111969C91DF9180
:103A7000CF910895FC010190F081E02D06C0808176
:103A800091818617970719F0FC013097C1F7CF0194
:103A900008958091AC05813051F482E08093AC05AB
:103AA000E091F705F091F805309709F00995089530
:103AB0008091AC05882319F42FEF3FEF06C01092D8
:103AC000AC050E94C02420E030E0C9010895982F81
:103AD0008091AC05823079F4892F8450843058F07D
:103AE000903148F481E08093AC05892F0E942C2509
:103AF00020E030E002C02FEF3FEFC9010895CF93DF
:103B0000DF93EC018091AC05882319F5209709F12A
:103B10008B819C81892BE9F028812230D0F48A8125
:103B200090E08F739070892BA1F4213019F4898172
:103B3000833078F082E08093AC05CE010E94792535
:103B40008F8198859093F8058093F70520E030E009
:103B500002C02FEF3FEFC901DF91CF9108958FB7DA
:103B6000F8941092B5051092B4051092B3058FBF6A
:103B70000895809170008C7F809370008091B600D2
:103B800080628093B6001092B2001092B000109242
:103B9000B1001092B3008091B60090E08F719070E8
:103BA000892BC9F783E087BB87E08093B1008091C0
:103BB000700081608093700008958091B60090E05D
:103BC0008F719070892BC9F7809170008C7F8093E2
:103BD00070008091B100887F8093B10083B58260CE
:103BE00083BD8091B60090E08F719070892BC9F7EA
:103BF0008091B6008F7D8093B6000895EF92FF927A
:103C00000F931F937B018C016091B200862F90E08F
:103C1000809590959C01442737FD4095542F307036
:103C2000407050702E153F054007510798F4D80199
:103C3000C701821B930BA40BB50B9C01AD01BB27E5
:103C4000A52F942F832F9093B4058093B3052093D1
:103C5000B50511C08091B60090E08F719070892BEE
:103C6000C9F76E0D6093B30082E087BB809170004E
:103C70008260809370001F910F91FF90EF900895E4
:103C8000EF92FF920F931F936FB7F8947091AE0568
:103C90002091B20084E48093B4008091B60090E05B
:103CA0008F719070892BC9F7B89904C030E040E05B
:103CB00050E00AC08091B200282F30E040E050E090
:103CC00021503F4F4F4F5F4F6FBF8FEF789FC00125
:103CD0001124AA2797FDA095BA2F820F931FA41F26
:103CE000B51F9C01AD0175E0220F331F441F551F06
:103CF0007A95D1F77C018D0162E016950795F794CE
:103D0000E7946A95D1F72E0D3F1D401F511FE0909B
:103D1000AF05F090B0050091B1051091B2052E0DE0
:103D20003F1D401F511F281B390B4A0B5B0BB9016C
:103D3000CA011F910F91FF90EF90089560E270E02B
:103D400080E090E008952FB7F8946091AE0510924E
:103D5000AE052FBF70E080E090E020E43FE140E05E
:103D600050E00E945D262091AF053091B005409152
:103D7000B1055091B205260F371F481F591F2093D8
:103D8000AF053093B0054093B1055093B2052617A7
:103D900037074807590728F48091AD058F5F809356
:103DA000AD0508951F920F920FB60F920BB60F92AA
:103DB00011242F933F934F935F936F937F938F9330
:103DC0009F93AF93BF93EF93FF93809170008D7F8C
:103DD000809370001092B5058091DA0580FF03C0D2
:103DE00080E00E9430248091DA0582FF11C080912A
:103DF00085058160809385052FB7F89480916B05C8
:103E000090916C05826090936C0580936B052FBF39
:103E1000FF91EF91BF91AF919F918F917F916F91A2
:103E20005F914F913F912F910F900BBE0F900FBE5E
:103E30000F901F9018958091DA0580FF0FC081E0E8
:103E40000E943024809170008D7F809370000E94CA
:103E5000AF1D8091DA058B7F8093DA0508951F925C
:103E60000F920FB60F920BB60F9211242F933F9320
:103E70004F935F936F937F938F939F93AF93BF9372
:103E8000EF93FF938091B3059091B405892BA1F531
:103E90008091B5058823E9F48091DA0580FF03C09D
:103EA00080E00E9430248091DA0582FF34C0809146
:103EB00085058160809385052FB7F89480916B0507
:103EC00090916C05826090936C0580936B052FBF79
:103ED00022C08091B60090E08F719070892BC9F755
:103EE0008091B5058093B30082E087BB809170001C
:103EF00082608093700009C08091B3059091B405F1
:103F000001979093B4058093B3058091DA0580FF03
:103F100002C00E94BC238091AE058F5F8093AE05E6
:103F2000809185058260809385052FB7F8948091F4
:103F30006B0590916C05826090936C0580936B0586
:103F40002FBFFF91EF91BF91AF919F918F917F9183
:103F50006F915F914F913F912F910F900BBE0F90FA
:103F60000FBE0F901F90189580E197E29093A900E3
:103F70008093A800E1EAF0E088E08083808182609D
:103F80008083E2E7F0E080818260808308958F92F1
:103F90009F92AF92BF92CF92DF92EF92FF920F93D8
:103FA0001F934C01A090A400B090A500CC24DD2468
:103FB0006091B8057091B9058091BA059091BB05E3
:103FC00028EE33E040E050E00E945D26A60EB71ECA
:103FD000C81ED91EF401A082B182C282D38214828B
:103FE0001582168217821F910F91FF90EF90DF903C
:103FF000CF90BF90AF909F908F9008952091B8057B
:104000003091B9054091BA055091BB05260F371F75
:10401000481F591F2093B8053093B9054093BA053E
:104020005093BB05809189058068809389052FB7DF
:10403000F89480916B0590916C05826090936C056B
:1040400080936B052FBF08952FB7F8946091B70543
:104050001092B7052FBF70E080E090E02AE030E0DA
:1040600040E050E00E945D262091B8053091B905EE
:104070004091BA055091BB05260F371F481F591FA5
:104080002093B8053093B9054093BA055093BB050A
:10409000261737074807590728F48091B6058F5F20
:1040A0008093B60508950E9424206091B805709110
:1040B000B9058091BA059091BB0508951F920F92A2
:1040C0000FB60F9211242F938F939F938091B70572
:1040D0008F5F8093B70580918905806880938905FB
:1040E0002FB7F89480916B0590916C058260909346
:1040F0006C0580936B052FBF9F918F912F910F902F
:104100000FBE0F901F901895DC011B96EC911B972A
:10411000F0E011821B96EC911B97F0E01D968D91BB
:104120009C911E97958384831C968C911C971B965B
:10413000EC911B97882349F4F0E082E080831B9682
:10414000EC911B97F0E012820AC0F0E010821B96FF
:10415000EC911B97F0E052968C91529782831B96BC
:10416000EC911B97F0E082811C969C911C97892B07
:1041700082831B96EC911B97F0E082811F969C91A5
:104180001F97892B82831B96EC911B97F0E082810D
:1041900050969C915097892B82831B96EC911B978C
:1041A000F0E0828151969C915197892B82831B96D6
:1041B000EC911B97F0E08081806880831B96EC91E6
:1041C0001B97F0E08181886181831B96EC91F0E080
:1041D00081818068818308951F920F920FB60F929C
:1041E0000BB60F9211242F933F934F935F936F93CE
:1041F0007F938F939F93AF93BF93EF93FF930E940F
:104200001B1F80918F058111EC98E0919005F09132
:104210009105309709F00995FF91EF91BF91AF910A
:104220009F918F917F916F915F914F913F912F91CE
:104230000F900BBE0F900FBE0F901F9018951F92FE
:104240000F920FB60F920BB60F9211242F933F933C
:104250004F935F936F937F938F939F93AF93BF938E
:10426000EF93FF938091C8006091CE008C7131F480
:1042700088EC0E94741385E00E945613FF91EF9121
:10428000BF91AF919F918F917F916F915F914F916E
:104290003F912F910F900BBE0F900FBE0F901F906C
:1042A00018951F920F920FB60F920BB60F92112412
:1042B0002F933F934F935F936F937F938F939F932E
:1042C000AF93BF93EF93FF93E9ECF0E080818F7B96
:1042D000808384E00E945613FF91EF91BF91AF91CC
:1042E0009F918F917F916F915F914F913F912F910E
:1042F0000F900BBE0F900FBE0F901F9018951F923E
:104300000F920FB60F920BB60F9211242F933F937B
:104310004F935F936F937F938F939F93AF93BF93CD
:10432000EF93FF93E9ECF0E080818F7D808383E061
:104330000E945613FF91EF91BF91AF919F918F9182
:104340007F916F915F914F913F912F910F900BBE95
:104350000F900FBE0F901F9018951F920F920FB6DF
:104360000F920BB60F9211242F933F934F935F93AD
:104370006F937F938F939F93AF93BF93EF93FF932D
:104380008091C0006091C6008C7131F480EC0E9475
:10439000741382E00E945613FF91EF91BF91AF9189
:1043A0009F918F917F916F915F914F913F912F914D
:1043B0000F900BBE0F900FBE0F901F9018951F927D
:1043C0000F920FB60F920BB60F9211242F933F93BB
:1043D0004F935F936F937F938F939F93AF93BF930D
:1043E000EF93FF93E1ECF0E080818F7B808381E0AD
:1043F0000E945613FF91EF91BF91AF919F918F91C2
:104400007F916F915F914F913F912F910F900BBED4
:104410000F900FBE0F901F9018951F920F920FB61E
:104420000F920BB60F9211242F933F934F935F93EC
:104430006F937F938F939F93AF93BF93EF93FF936C
:10444000E1ECF0E080818F7D808380E00E94561354
:10445000FF91EF91BF91AF919F918F917F916F915C
:104460005F914F913F912F910F900BBE0F900FBE18
:104470000F901F9018952DB141E050E0082E02C01A
:10448000440F551F0A94E2F7942F909592239DB9FB
:104490009EB1942B9EB9EAE6F0E090818450880F9B
:1044A00023E030E0082E02C0220F331F0A94E2F707
:1044B000209529232083908170E06370707002C082
:1044C000660F771F8A95E2F7962B90838CB3482B63
:1044D0004CBB08959DB121E030E0082E02C0220FB0
:1044E000331F0A94E2F7209592239DB99EB12923A8
:1044F0002EB9EAE6F0E090818450880F23E030E0A6
:1045000002C0220F331F8A95E2F7209529232083CA
:1045100008951F920F920FB60F920BB60F921124AF
:104520002F933F934F935F936F937F938F939F93BB
:10453000AF93BF93EF93FF930E941B1FE091BE05C3
:10454000F091BF05309709F00995FF91EF91BF9168
:10455000AF919F918F917F916F915F914F913F911B
:104560002F910F900BBE0F900FBE0F901F901895BC
:104570001F920F920FB60F920BB60F9211242F932A
:104580003F934F935F936F937F938F939F93AF93DB
:10459000BF93EF93FF930E941B1FE091BC05F09126
:1045A000BD05309709F00995FF91EF91BF91AF914B
:1045B0009F918F917F916F915F914F913F912F913B
:1045C0000F900BBE0F900FBE0F901F901895FC011F
:1045D0001092BC001092B90080818093B8000895B9
:1045E0001F920F920FB60F920BB60F9211242F93BA
:1045F0003F934F935F936F937F938F939F93AF936B
:10460000BF93EF93FF938091B90090E0887F907003
:104610008832910559F1893291058CF480319105E8
:1046200011F1813191052CF4009719F1089781F56A
:104630001AC088319105D1F0809751F51AC088349D
:104640009105B9F0893491053CF48033910589F0E6
:1046500080349105E9F410C08035910581F08835EA
:104660009105B1F411C00E94771A12C00E94F61A87
:104670000FC00E94D8190CC00E94131B09C0809162
:10468000BB000E942D1B04C08091BB000E945A1BDE
:10469000FF91EF91BF91AF919F918F917F916F911A
:1046A0005F914F913F912F910F900BBE0F900FBED6
:1046B0000F901F901895982FF999FECF07B600FC20
:1046C000FDCF72BD61BD40BD8FB7F8949FBBF99A15
:1046D0008FBF08951F920F920FB60F9211242F9340
:1046E0008F939F93FB9880918805806180938805C4
:1046F0002FB7F89480916B0590916C058260909330
:104700006C0580936B052FBF9F918F912F910F9018
:104710000FBE0F901F90189581E083BF889513BE40
:1047200008950E94401E2091C0053091C10540911E
:10473000C2055091C305621B730B840B950B10923D
:10474000C0051092C1051092C2051092C3050E94C7
:10475000FE1F8091A10082608093A1000E948A11B7
:104760008091DA0581FD07C0E091CB05F091CC0581
:10477000309709F0099508950E947710882309F46D
:104780004EC08091DA0582FD03C02FEF3FEF66C077
:1047900024982C988091B60090E08F719070892BAE
:1047A000C9F78091700081FD0AC08FEF8093B3003C
:1047B0008091B60090E08F719070892BC9F780913D
:1047C000B000806C8093B0008091B60090E08F7153
:1047D0009070892BC9F78091B10080688093B100F7
:1047E0008091B60090E08F719070892BC9F780910D
:1047F000B0008F738093B0008091B60090E08F710D
:104800009070892BC9F78091B00080688093B000C8
:104810008091B60090E08F719070892BC9F78091DC
:10482000DA0581608093DA058091B60090E08F719F
:104830009070892BC9F780918A05806880938A05DA
:104840002FB7F89480916B0590916C0582609093DE
:104850006C0580936B052FBF20E030E0C9010895FF
:104860009091DA058170880F9C7F982B9093DA05E0
:104870000E947710882311F42C980EC024982C984D
:104880008091B0008F738093B0008091B60090E06B
:104890008F719070892BC9F7249A80918905846063
:1048A000809389052FB7F89480916B0590916C05E2
:1048B000826090936C0580936B052FBF0895809163
:1048C000DA0580FF5CC08091A1008D7F8093A100FC
:1048D0008091C0059091C105A091C205B091C3051A
:1048E0000097A105B10551F40E94401E6093C005D8
:1048F0007093C1058093C2059093C30580918F0585
:104900008111EC9AF999FECF0E9477108823B1F4B7
:104910002C9A249A8091DA0582FF05C087E083BF34
:10492000889513BE22C00E94DD1D85E083BF889557
:1049300013BE0E94B91D0E941A1117C090917200F7
:104940002091BC0030917A00109272001092BC004D
:1049500010927A00249A87E083BF889513BE9093C3
:1049600072002093BC0030937A0084E48093B400FA
:104970008091B60090E08F719070892BC9F70895EF
:1049800010927C0010927A0010927E0008951F927F
:104990000F920FB60F920BB60F9211242F933F93E5
:1049A0004F935F938F939F93EF93FF938091C405F1
:1049B000E091C505F091C605882351F48091C705A3
:1049C0009091C80520917900E80FF91F20830FC04E
:1049D0008091C7059091C805409178005091790069
:1049E0009C01220F331FE20FF31F51834083019676
:1049F0009093C8058093C7052091C7053091C805DD
:104A00008091C9059091CA0528173907B1F48091A2
:104A10007A00877F80937A008091880588608093F0
:104A200088052FB7F89480916B0590916C05826092
:104A300090936C0580936B052FBFFF91EF919F9131
:104A40008F915F914F913F912F910F900BBE0F90DF
:104A50000FBE0F901F901895282F1092C805109226
:104A6000C705843048F481E090E0022E02C0880F30
:104A7000991F0A94E2F717C0883011F08A3011F4B8
:104A800081E011C0893011F08B3011F483E00BC04C
:104A90008C3011F08E3011F484E005C08D3011F0AF
:104AA0008F3019F48CE080937E0080917C0090918F
:104AB0007C00907E90937C0090917C00922B909350
:104AC0007C008F71821729F0243018F08DE70E9446
:104AD000C7018091C9059091CA05029720F0809185
:104AE0007A00886603C080917A00886480937A0097
:104AF0000895A1E0B0E0EFE7F5E20C94C226FC01D6
:104B0000858196819093CA058093C90580818093A1
:104B1000C405838194819093C6058093C5058281E5
:104B200080937C008091C405882329F480917C00C7
:104B3000806280937C00618170E0675A7D4FCE0176
:104B4000019641E050E00E94E926898180688093C7
:104B50007A002196E2E00C94DE269091DA0592FF2D
:104B600024C08091D7058823B1F4E091D805F09155
:104B7000D905309709F009958091DA0582FF15C0B3
:104B80006091D3057091D4058091D5059091D6059B
:104B90000E94FE1D08959B7F9093DA05E091D80551
:104BA000F091D905309709F0099508958091DA05BB
:104BB00082FD03C02FEF3FEF09C00E94AF1D80911F
:104BC000DA058B7F8093DA0520E030E0C901089593
:104BD000CF93DF93EC01009719F42FEF3FEF2EC036
:104BE0000E949E1E2E813F81488559850E945D2628
:104BF00028EE33E040E050E00E949026B901CA015F
:104C0000611571058105910519F42EEF3FEF16C06E
:104C10002091DA0522FF03C02DEF3FEF0FC0246083
:104C20002093DA05ADECB5E0FE012DE001900D9288
:104C30002150E1F70E94FE1D20E030E0C901DF9124
:104C4000CF910895ADE0B0E0E8E2F6E20C94C22620
:104C5000FC01009719F42FEF3FEF2AC08481958162
:104C60009093CC058093CB0580819181A281B38103
:104C70008F839887A987BA8781E08B871D861C86DA
:104C8000CE0101960E94E8252FEF8F3F920771F029
:104C90008D5F9F4F59F00E94BC238F5F9F4F19F08B
:104CA00020E030E005C02DEF3FEF02C02EEF3FEFD8
:104CB000C9012D96E2E00C94DE26629FD001739F1D
:104CC000F001829FE00DF11D649FE00DF11D929FA8
:104CD000F00D839FF00D749FF00D659FF00D9927E7
:104CE000729FB00DE11DF91F639FB00DE11DF91F0B
:104CF000BD01CF0111240895AA1BBB1B51E107C0C0
:104D0000AA1FBB1FA617B70710F0A61BB70B881F5B
:104D1000991F5A95A9F780959095BC01CD010895EA
:104D2000A1E21A2EAA1BBB1BFD010DC0AA1FBB1FAF
:104D3000EE1FFF1FA217B307E407F50720F0A21B21
:104D4000B30BE40BF50B661F771F881F991F1A948E
:104D500069F760957095809590959B01AC01BD01B8
:104D6000CF0108952F923F924F925F926F927F9260
:104D70008F929F92AF92BF92CF92DF92EF92FF926B
:104D80000F931F93CF93DF93CDB7DEB7CA1BDB0B17
:104D90000FB6F894DEBF0FBECDBF09942A883988BC
:104DA00048885F846E847D848C849B84AA84B984C3
:104DB000C884DF80EE80FD800C811B81AA81B981CF
:104DC000CE0FD11D0FB6F894DEBF0FBECDBFED01E3
:104DD0000895FB01DC0102C005900D924150504046
:104DE000D8F70895FB01DC0101900D920020E1F756
:104DF00008950F931F93DF93CF93CDB7DEB72E9710
:104E00000FB6F894DEBF0FBECDBF0D891E8986E0B8
:104E10008C831A8309838FEF9FE79E838D839E0186
:104E2000275E3F4FCE0101966F89788DA9010E94C0
:104E30002A272F813885020F131FF80110822E9622
:104E40000FB6F894DEBF0FBECDBFCF91DF911F919B
:104E50000F9108952F923F924F925F926F927F929F
:104E60008F929F92AF92BF92CF92DF92EF92FF927A
:104E70000F931F93DF93CF93CDB7DEB72B970FB66A
:104E8000F894DEBF0FBECDBF3C012B015A01FC01DF
:104E900017821682838181FD03C06FEF7FEFC6C149
:104EA0009AE0892E1E010894211C311CF3012381F4
:104EB000F20123FD859123FF81912F01882309F4BD
:104EC000B2C1853239F423FD859123FF81912F01F1
:104ED000853229F490E0B3010E944629E7CF982F4C
:104EE000FF24EE249924FFE1FF15D0F09B3269F0F6
:104EF0009C3228F4903259F0933291F40EC09D32D6
:104F000049F0903369F441E024C052E0F52A84E08E
:104F1000F82A28C098E0F92A25C0E0E1FE2A22C03C
:104F2000F7FC29C0892F80538A3070F4F6FE05C043
:104F3000989C902C1124980E15C0E89CE02C11240C
:104F4000E80EF0E2FF2A0EC09E3229F4F6FC6BC197
:104F500040E4F42A07C09C3619F450E8F52A02C050
:104F6000983649F4F20123FD959123FF91912F0189
:104F7000992309F0B8CF892F8554833018F08052D7
:104F8000833038F444E050E0A40EB51E5FE359834B
:104F90000FC0933631F0933779F0933509F056C04E
:104FA00020C0F5018081898342E050E0A40EB51E47
:104FB000610101E010E012C0F501C080D180F6FC73
:104FC00003C06FEF7FEF02C0692D70E042E050E058
:104FD000A40EB51EC6010E943B298C015FE7F52295
:104FE00014C0F501C080D180F6FC03C06FEF7FEFE5
:104FF00002C0692D70E042E050E0A40EB51EC6016B
:105000000E9430298C0150E8F52AF3FE07C01AC02F
:1050100080E290E0B3010E944629EA948E2D90E050
:1050200008171907A8F30EC0F601F7FC8591F7FEE3
:1050300081916F0190E0B3010E944629E110EA944A
:10504000015010400115110579F7EAC0943611F0AE
:10505000993669F5F7FE08C0F5012081318142815A
:10506000538184E090E00AC0F501808191819C0128
:10507000442737FD4095542F82E090E0A80EB91EDA
:105080009FE6F92257FF09C050954095309521952C
:105090003F4F4F4F5F4FE0E8FE2ACA01B901A1011F
:1050A0002AE030E00E947229D82ED21840C09537ED
:1050B00029F41F2D1F7E2AE030E01DC01F2D197F0F
:1050C0009F3661F0903720F4983509F0ACC00FC0DE
:1050D000903739F0983709F0A6C004C028E030E0D6
:1050E0000AC0106114FD146020E130E004C014FD1A
:1050F000166020E132E017FF08C0F5016081718180
:105100008281938144E050E008C0F5018081918163
:10511000BC0180E090E042E050E0A40EB51EA10189
:105120000E947229D82ED2188FE7F82EF122F6FEAF
:105130000BC05EEFF522D91438F4F4FE07C0F2FC80
:1051400005C08FEEF82202C01D2D01C0192DF4FEFE
:105150000DC0FE01ED0DF11D8081803319F499EE33
:10516000F92208C01F5FF2FE05C003C08F2D8678AC
:1051700009F01F5F0F2DF3FC14C0F0FE0FC01E15C9
:1051800010F09D2C0BC09D2C9E0C911A1E2D06C05C
:1051900080E290E0B3010E9446291F5F1E15C0F314
:1051A00004C01E1510F4E11A01C0EE2404FF0FC064
:1051B00080E390E0B3010E94462902FF1DC001FD7B
:1051C00003C088E790E00EC088E590E00BC0802F18
:1051D000867891F001FF02C08BE201C080E2F7FC0B
:1051E0008DE290E0B3010E94462906C080E390E082
:1051F000B3010E9446299A94D914C0F3DA94F101BC
:10520000ED0DF11D808190E0B3010E944629DD2063
:10521000A9F706C080E290E0B3010E944629EA9413
:10522000EE20C1F743CEF30166817781CB012B9647
:105230000FB6F894DEBF0FBECDBFCF91DF911F91A7
:105240000F91FF90EF90DF90CF90BF90AF909F9025
:105250008F907F906F905F904F903F902F90089528
:10526000FC010590615070400110D8F78095909531
:105270008E0F9F1F0895FC01615070400190011036
:10528000D8F7809590958E0F9F1F08950F931F93C9
:10529000CF93DF938C01EB018B8181FF1BC082FFD9
:1052A0000DC02E813F818C819D812817390764F4C0
:1052B000E881F9810193F983E88306C0E885F985DF
:1052C000802F0995892B31F48E819F8101969F83D0
:1052D0008E8302C00FEF1FEFC801DF91CF911F91A6
:1052E0000F910895FA01AA27283051F1203181F158
:1052F000E8946F936E7F6E5F7F4F8F4F9F4FAF4FDE
:10530000B1E03ED0B4E03CD0670F781F891F9A1FF0
:10531000A11D680F791F8A1F911DA11D6A0F711DA4
:10532000811D911DA11D20D009F468943F912AE0B0
:10533000269F11243019305D3193DEF6CF01089598
:10534000462F4770405D4193B3E00FD0C9F7F6CFC9
:10535000462F4F70405D4A3318F0495D31FD405291
:10536000419302D0A9F7EACFB4E0A6959795879527
:1053700077956795BA95C9F7009761057105089506
:105380009B01AC010A2E06945795479537952795B2
:10539000BA95C9F7620F731F841F951FA01D08954A
:0453A000F894FFCFAF
:1053A40046433D252D31326C75004645433D252D40
:1053B40031326C75004245433D252D31326C750008
:1053C4004C51493D252D386400525353493D2D25F8
:1053D40030326464426D282530326429000D0A009D
:1053E4000001020304050607000102000102030490
:1053F400050607000102030405060700000000007B
:10540400000000000000C8001900060000000000B1
:105414000000000000000000002803000115000047
:10542400000000003200000000130300010102012B
:105434000202030102020302030304C6085A0848D5
:105444000A92042C03000000000000FA000000008F
:105454001A0B157907AB12000000000000000000D1
:10546400000000F50B00008107000000000000E8C8
:0654740003000001F10E2F
:00000001FF
