:100000000C942F010C9466010C9466010C9466010B
:100010000C9466010C94F7200C94C30A0C94C32230
:100020000C9494220C9466010C9466010C94660165
:100030000C9466010C94DD1E0C9466010C943A1F1E
:100040000C9466010C945A0A0C9466010C94660197
:100050000C9466010C9466010C9466010C94660184
:100060000C9466010C94B8210C9418220C94EA218B
:100070000C9466010C94D2240C9475230C946601A4
:100080000C9466010C9466010C9466010C94660154
:100090000C942A210C948A210C945C210C94FB2250
:1000A0000C9466010C9466010C9469200C94660112
:1000B0000C9466010C9466010C9466010C94660124
:1000C0000C9466010C9466010C946601646464648B
:1000D00064646464646464646464636363636363E6
:1000E00063636363636363626262626262626161EB
:1000F000616161606060605F5F5F5E5E5D5D5D5C11
:100100005C5B5B5A59595857575655545352515086
:100110004F4E4D4B4A4947454442403E3C3A3836A3
:1001200034312F2C2A29282827272626252525243F
:10013000242423232323222222222121212120209F
:100140002020201F1F1F1F1F1E1E1E1E1E0000011D
:100150000002000300040005000600070008000973
:10016000000A000B000C000D000E000F0010001222
:10017000001400160018001A001C001E00200022A7
:10018000002400260028002A002C002E0031003513
:100190000039003D004100450049004D0051005527
:1001A0000059005D006100650069006D0073007B0F
:1001B0000083008B0093009B00A300AB00B300BB47
:1001C00000C300CB00D300DB00E300EB00F7000727
:1001D000011701270137014701570167017701879F
:1001E000019701A701B701C701D701E701FF011F6F
:1001F000023F025F027F029F02BF02DF02FF021F77
:10020000033F035F037F039F03BF03DF030F044F1D
:10021000048F04CF040F054F058F05CF050F064F40
:10022000068F06CF060F074F078F07CF072F08AFA0
:10023000082F09AF092F0AAF0A2F0BAF0B2F0CAFF6
:100240000C2F0DAF0D2F0EAF0E2F0FAF0F7017C568
:1002500016C9166C17CD16D116030405060711240E
:100260008091F905823141F084B78F718093F9054F
:1002700080FF05C081E001C081E18093F90514BED3
:10028000809160008861809360001092600011246A
:100290001FBECFEFD1E2DEBFCDBF12E0A0E0B2E0E3
:1002A000E2E9F3E500E00BBF02C007900D92A43D28
:1002B000B107D9F715E0A4EDB2E001C01D92A93F46
:1002C000B107E1F70E947C070C94C7290C94000049
:1002D0007F937FB7F8949D9AA5988AEF0E94C701F3
:1002E0008AEF0E94C7019D9886E40E94C70181E0C1
:1002F000959980E08F9380EF0E94C7018F917FBF17
:100300007F9108957F937FB7F8949D9AA59886E092
:100310000E94C7019D988AE00E94C7018894959920
:100320000894881F8F9384E60E94C7018F917FBF36
:100330007F9108959F937F9398E00E948201879513
:1003400077959A959923C9F7872F7F919F91089563
:100350007F937FB7F894A5989D9A8F9386E00E942B
:10036000C7018F91879508F49D988F9384E60E942A
:10037000C7018F919D987FBF7F9108959F9398E0CB
:100380000E94A8019A959923D9F79F91089500009A
:100390000000000000008A958823C9F708955F9344
:1003A0007F937FB7F894CF93DF93C0E0D0E07F9343
:1003B0005091B2007091B2007517E1F373952196D8
:1003C0005091B2005717D9F77F91CE01DF91CF91AD
:1003D0007FBF7F915F910895EF92FF920F93DF931C
:1003E000CF93CDB7DEB760970FB6F894DEBF0FBEE0
:1003F000CDBFA82F002309F461C07E010894E11C41
:10040000F11C88E0F70111928A95E9F729833A8374
:100410004B835C836D837E83AF83988780E2801BF0
:10042000E82FFF27E7FDF0954D815E816F8178858C
:10043000181684F01D861E861F86188A882799271D
:100440008E1B9F0B04C076956795579547958A95A7
:10045000D2F728C0202F332727FD3095DB01CA01B2
:10046000022E04C0B695A795979587950A94D2F762
:100470008D879E87AF87B88B04C0440F551F661FBA
:10048000771FEA95D2F789819A81AB81BC8104C03C
:10049000B695A795979587952A95D2F7482B592B0E
:1004A0006A2B7B2B49875A876B877C8729853A85FE
:1004B0004B855C856D857E85AF8598898A2F609692
:1004C0000FB6F894DEBF0FBECDBFCF91DF910F9175
:1004D000FF90EF900895EF92FF920F93DF93CF93E9
:1004E000CDB7DEB760970FB6F894DEBF0FBECDBFB5
:1004F000A82F002309F461C07E010894E11CF11CBF
:1005000088E0F70111928A95E9F729833A834B83B2
:100510005C836D837E83AF83988780E2801BE82FA6
:10052000FF27E7FDF09549815A816B817C81181680
:1005300084F019861A861B861C86882799278E1BAD
:100540009F0B04C0440F551F661F771F8A95D2F773
:1005500028C0202F332727FD3095DB01CA01022E4A
:1005600004C0880F991FAA1FBB1F0A94D2F789875E
:100570009A87AB87BC8704C0769567955795479552
:10058000EA95D2F78D819E81AF81B88504C0880F2E
:10059000991FAA1FBB1F2A95D2F7482B592B6A2BEC
:1005A0007B2B4D875E876F87788B29853A854B85B6
:1005B0005C856D857E85AF8598898A2F60960FB69C
:1005C000F894DEBF0FBECDBFCF91DF910F91FF90AA
:1005D000EF900895813041F0813018F0823011F5AC
:1005E00006C06093F10208956093E6020895609357
:1005F000BB031092E8021092E9021092EA021092F4
:10060000EB021092EC021092ED021092EE021092A8
:10061000EF021092E5021092E7021092F20281E0DE
:1006200080937C0208953FB7F8948091D10388604D
:100630008093D1032FB7F89480916B0590916C054E
:10064000946090936C0580936B052FBF3FBF089516
:1006500081E080937C0208951F938091BC038230D7
:1006600009F47BC0833030F4882371F0813009F0C5
:1006700023C147C0843009F4CEC0843008F4A3C03D
:10068000853009F019C1FDC084ED92E00E948E070B
:100690008DB79EB708970FB6F8949EBF0FBE8DBF5B
:1006A000EDB7FEB7319683EF92E0ADB7BEB71296C5
:1006B0009C938E93119780E092E093838283809144
:1006C000D4029091D502A091D602B091D702848332
:1006D0009583A683B7830E94F0268093E4028DB7AA
:1006E0009EB708960FB6F8949EBF0FBE8DBF80913F
:1006F000BB03882311F081E001C085E08093BC0337
:10070000DBC01091E402ADB7BEB718970FB6F894EE
:10071000BEBF0FBEADBFEDB7FEB73196812F90E0E3
:100720008D509D4F12969C938E9311978AE092E084
:10073000938382838091D8029091D902A091DA02AA
:10074000B091DB0284839583A683B7830E94F02651
:10075000180F1093E40282E02BC01091E402ADB7B1
:10076000BEB718970FB6F894BEBF0FBEADBFEDB7BA
:10077000FEB73196812F90E08D509D4F12969C933D
:100780008E93119785E192E0938382838091DC02BE
:100790009091DD02A091DE02B091DF028483958307
:1007A000A683B7830E94F026180F1093E40283E01B
:1007B0008093BC038DB79EB708960FB6F8949EBF82
:1007C0000FBE8DBF79C01091E40200D000D000D0E0
:1007D000EDB7FEB73196812F90E08D509D4FADB7AC
:1007E000BEB712969C938E93119780E292E093830A
:1007F00082838091E0029091E102958384830E943C
:10080000F026180F1093E40284E08093BC038DB7A8
:100810009EB70696D2CF2091E2023091E30210916A
:10082000E402ADB7BEB718970FB6F894BEBF0FBEBF
:10083000ADBFEDB7FEB73196812F90E08D509D4F43
:1008400012969C938E93119789E292E09383828310
:1008500088ED92E0821B930B43E0969587954A952D
:10086000E1F79583848383E0369527958A95E1F7B0
:10087000378326830E94F026180F1093E40285E048
:1008800097CF8091E40290E08D509D4F6DE372E030
:100890000E94E9264091E40250E04E5F5F4F409392
:1008A000E4028BE592E063EF72E050E00E94E41511
:1008B0001092BC0310927C028091BC038823A1F0AB
:1008C0003FB7F8948091D10380618093D1032FB713
:1008D000F89480916B0590916C05946090936C05F1
:1008E00080936B052FBF3FBF1F9108951F93182F53
:1008F00082E00E94DF0B81E00E94DF0B80E00E941B
:10090000DF0B10FF03C082E00E94D20B11FF03C077
:1009100081E00E94D20B12FF03C080E00E94D20B44
:100920001F910895A0E1B0E0E8E9F4E00C94B52649
:100930008091E5028F5F8093E5028091BB0388235D
:1009400009F055C08091E602813091F4CE01019604
:100950000E948E0789819A81AB81BC818051974228
:10096000A040B04028F08091E50280FF18C015C07B
:100970008091E6028130A9F4CE0101960E948E0793
:1009800089819A81AB81BC8188529342A040B0405A
:1009900040F08091E50281FF02C080E0ACC087E0BA
:1009A000AAC01091E502123561F0133518F4103524
:1009B000C1F405C0143551F0163599F409C080E032
:1009C0000EC08091E602882339F408C082E007C097
:1009D0008091E602882311F484E001C081E00E9446
:1009E00076048091E502863508F47DC07AC08130B6
:1009F00009F083C08091E7028F5F8093E702843122
:100A000009F03FC01092E702CE0101960E948E07C6
:100A100029813A814B815C818091E8029091E902C1
:100A2000B901681B790B8D819E81AF81B885E090FB
:100A3000EC02F090ED020091EE021091EF02209393
:100A4000E8023093E9024093EA025093EB0280936C
:100A5000EC029093ED02A093EE02B093EF026A30A5
:100A600071055CF020E030E08E199F09880F991F16
:100A7000880F991F6817790714F421E030E020935C
:100A8000F0028091F002882349F08091E50280FF16
:100A900002C080E001C087E00E9476048091F002ED
:100AA000882359F51091E502143591F0153528F495
:100AB000103551F0123589F40DC0183549F01A354A
:100AC00049F0163551F402C080E005C084E003C04F
:100AD00082E001C081E00E9476048091E5028A35BF
:100AE00010F01092E502103540F4E091F102F0E0D0
:100AF000E05CFD4F80810E9476048091F2028F5F5E
:100B00008093F2028A30E1F41092F20280917C022A
:100B10008823B1F01092BC033FB7F8948091D103C1
:100B200080618093D1032FB7F89480916B059091E9
:100B30006C05946090936C0580936B052FBF3FBF4D
:100B40006096E6E00C94D1260E94C50B8BE592E0FE
:100B50000E9474178DE792E00E94461208951F9339
:100B6000CF93DF93142FEC0140E050E0A0E0B0E021
:100B70001CC0FB01EA0FFB1F90818881982799F028
:100B8000E92FE295EF70F0E0E657FD4F2081E92F65
:100B9000F0E0EF70F070E657FD4F808190E0820F3B
:100BA000911D480F591F11962196A11710F3CA01E4
:100BB000DF91CF911F910895DC01962F50E028E13D
:100BC00034E761E070EC18C040E0FD01E50FF11D75
:100BD00020FF09C026273727369527953068808162
:100BE0008695806804C03695279580818695808398
:100BF0004F5F483069F75F5F591730F30895CF931F
:100C0000DF93B62FEC01A0E0E0E0F0E01CC02991FA
:100C10002E27822F8295807F8227682F70E0562FA3
:100C200044272F2F3327422B532BFB0193E0EE0F4A
:100C3000FF1F9A95E1F782958F7090E0E827F927DA
:100C4000E427F527AF5FAB1710F3CF01DF91CF910A
:100C500008951092C1031092C2031092C303109220
:100C6000C4031092C5031092C6031092C7031092DA
:100C7000C8031092C9031092CA031092CB031092BA
:100C8000CC031092CE031092CD031092D003109299
:100C9000CF031092BE031092BD031092C0031092B6
:100CA000BF0308959C01742F8091C1039091C203EA
:100CB000A091C303B091C4030196A11DB11D8093FF
:100CC000C1039093C203A093C303B093C40321153F
:100CD000310599F08091C5039091C603A091C70397
:100CE000B091C8030196A11DB11D8093C5039093D7
:100CF000C603A093C703B093C803C901A0E0B0E046
:100D00002091C9033091CA034091CB035091CC0389
:100D1000820F931FA41FB51F8093C9039093CA032A
:100D2000A093CB03B093CC032091BD033091BE03BD
:100D3000862F90E09695982F882797958795A901FB
:100D4000481B590BCA01E5E095958795EA95E1F7AF
:100D5000281B390B3093BE032093BD03220F232F92
:100D6000221F330B3093CE032093CD032F3F310549
:100D700039F030F08FEF90E09093CE038093CD0365
:100D80008091BF039091C003272F30E03695322F1A
:100D9000222737952795AC01421B530B9A0145E05A
:100DA000359527954A95E1F7821B930B9093C003E5
:100DB0008093BF0324E0959587952A95E1F790935A
:100DC000D0038093CF030895DC01E1ECF3E080E1F0
:100DD00001900D928150E1F708951F93CF93DF9317
:100DE000EC01162F05C080E20E9451118993115029
:100DF0001123C9F7DF91CF911F9108950E946811C7
:100E000080E20E94511108951F93CF93DF93EC016C
:100E1000162F0E94681180E60E94511104C089912A
:100E20000E94511111501123D1F70E946611DF91D8
:100E3000CF911F9108951F93182F0E9468111F735F
:100E40001068812F0E945111812F0E945111182F7B
:100E50000E946611812F1F9108950F931F93182FE1
:100E6000062F0E946811812F806C0E945111802FE3
:100E70000E9451110E9466111F910F9108951092C6
:100E8000D1030895EF92FF920F931F93CF93DF93B7
:100E90000AE912E0C0E0D0E081E0E82EF12C809178
:100EA000D10390E00C2E02C0959587950A94E2F745
:100EB00080FF14C03FB7F8942091D103C7010C2ED6
:100EC00002C0880F991F0A94E2F7809582238093CD
:100ED000D1033FBFD801ED91FC91099521960E5F9A
:100EE0001F4FC530D105D9F6CDB7DEB7E6E00C947B
:100EF000D1260E94420708950E94B40B0E94770BEE
:100F0000FDCF8091D203882331F40E94090881E04B
:100F10008093D20308950E94420708950E94E40638
:100F200008950E94290682E061E00E94EA02089585
:100F30000E94E5080895A0E1B0E0E1EAF7E00C9432
:100F4000B926809155048823F1F0CE0101960E94C4
:100F5000E40689819A81AB81BC8180519742A0408F
:100F6000B04068F08091D303813049F48091D4037C
:100F7000882349F00E944A0A1092D40304C00E94B8
:100F80004909109255046096E2E00C94D5261F930F
:100F9000182F8093D3030E94290681E0612F0E94BD
:100FA000EA020E949B071F9108950E94A709682FDB
:100FB00080E00E94EA0280915604882329F481E0AF
:100FC000809355040E949B0708951F93182F8093C8
:100FD0005604882329F481E08093550480E009C0F9
:100FE0008091D403882321F00E944A0A1092D403EE
:100FF00081E00E946E090E9429060E943F0782E05C
:10100000612F0E94EA02112311F40E949B071F9195
:1010100008950F931F9305ED13E0C80160E80E9447
:10102000DC058FE78093D503C80101966DE70E9428
:10103000FF05809353049093540489E498E06DE293
:1010400078E00E944E09C8010E9455080E94A4053C
:101050000E94080B1F910F910895CF93DF93EC012D
:1010600088818F3719F080E092E007C0CE010196A9
:1010700066ED73E04FE70E94AF05FE01EF5FFE4FA4
:10108000C050DF4F688140810E945206DF91CF91AE
:10109000089581E08093550480E090E060E040E0B6
:1010A0000E9452060E949B070895909359048093D2
:1010B00058040895E0915A04F0915B04099508954D
:1010C000089508951F930E9468119FB7F8948FE8C0
:1010D0008EBD00000DB407FEFDCF9FBF8EB59FB73C
:1010E000F8948FE88EBD00000DB407FEFDCF9FBFC2
:1010F0001EB50E94661113FF3AC00E9468119FB787
:10110000F89487E88EBD00000DB407FEFDCF9FBFA9
:101110008EB59FB7F89487E88EBD00000DB407FE2A
:10112000FDCF9FBF1EB50E94661110936005809190
:101130005704813041F08230D1F43FB7F894809168
:10114000D103816005C03FB7F8948091D1038260DC
:101150008093D1032FB7F89480916B0590916C0523
:10116000816090936C0580936B052FBF3FBF1F91EB
:1011700008950F931F930E946F110E94FE060EE5C3
:1011800014E0C80161E00E94ED06C801019660917B
:101190005E040E94ED068EE595E061E00E94ED069A
:1011A0000E9466118091600580935F0582E066E091
:1011B0000E942D070E946D11E0915C04F0915D0486
:1011C000C80109951F910F9108951F93182F0E9430
:1011D0006F111B3014F060EE55C01A3011F461EC41
:1011E00051C0193011F461EA4DC0183011F461E8B2
:1011F00049C0173011F462E845C0163011F463E8B5
:1012000041C0153011F460E63DC0143011F461E6C0
:1012100039C0133011F462E635C0123011F463E6C0
:1012200031C0113011F464E62DC0112311F465E6CC
:1012300029C01F3F11F466E625C01E3F11F466E485
:1012400021C01D3F11F466E21DC01C3F11F465E092
:1012500019C01B3F11F466E015C01A3F11F467E096
:1012600011C0193F11F468E00DC0183F11F469E096
:1012700009C0173F11F46AE005C0163F11F06CE099
:1012800001C06BE085E00E942D070E946D111F9147
:1012900008950E9473110E9475110895A1E0B0E0B5
:1012A000E4E5F9E00C94B92690935B0480935A042A
:1012B00070935D0460935C0419828CE00E941B07AC
:1012C000682F677F69838CE00E942D078EE068E0BD
:1012D0000E942D072196E2E00C94D526A1E0B0E013
:1012E000E4E7F9E00C94B826182F0E946F1182E011
:1012F00063E00E942D0781E00E941B0789838F71A4
:101300008830C9F7112389F482E069E00E942D0733
:1013100081E080935704E0915804F0915904608172
:101320006F5FCF010E94040707C082E066E00E9461
:101330002D0782E0809357048FE00E941B070E94D4
:101340006A110E946D112196E3E00C94D426A1E06D
:10135000B0E0EDEAF9E00C94B826182F8B3008F0D5
:101360001AE00E946F1182E063E00E942D0781E085
:101370000E941B0789838F718830C9F70E941B0761
:10138000912F9F71682F607E692B698388E00E948E
:101390002D078CE00E941B07112311F48B7F01C0E5
:1013A000846089838CE069810E942D0780915704B5
:1013B000813019F482E069E003C0823019F466E0FC
:1013C0000E942D078FE00E941B070E946A110E9455
:1013D0006D11812F2196E3E00C94D426A1E0B0E0BA
:1013E000E4EFF9E00C94B9260E9480118FEF0E947F
:1013F000A6118FEF0E94A6110E947E1186E00E9426
:10140000A6110E947C1182E068E00E942D078FEFF8
:101410000E94A6118FEF0E94A61181E00E941B0777
:101420008F718830D1F719820E948D11823051F06E
:10143000833018F4882391F014C0833039F084305D
:1014400081F408C08981887F82600EC08981887F8D
:1014500083600AC08981887F846006C08981887F13
:1014600003C08981887F8160898369816F7C606125
:10147000698383E00E942D078EE060E00E942D07C3
:101480000E94EB0A0E946A110E946D112196E2E00F
:101490000C94D5269FB7F894B198EFE6F0E08081E0
:1014A0008D7F80839FBF0895E0916105F091620573
:1014B000099508951F920F920FB60F9211242F9342
:1014C0003F938F939F938091650590916605019658
:1014D00090936605809365052091630530916405BE
:1014E00082179307C1F410926605109265053FB705
:1014F000F8948091D10384608093D1032FB7F8943E
:1015000080916B0590916C05946090936C0580932D
:101510006B052FBF3FBF9F918F913F912F910F90F0
:101520000FBE0F901F9018951092660510926505DA
:1015300090936405809363057093620560936105E1
:1015400089E0809381000E94851020E432E44FE01E
:1015500050E00E948726CA01B90128EE33E040E03E
:1015600050E00E9468267093890060938800109272
:1015700085001092840082E086BBEFE6F0E0808177
:101580008260808308951F920F920FB60F920BB660
:101590000F9211242F933F934F935F936F937F93F9
:1015A0008F939F93AF93BF93EF93FF930E94620833
:1015B000FF91EF91BF91AF919F918F917F916F912B
:1015C0005F914F913F912F910F900BBE0F900FBEE7
:1015D0000F901F9018950E94871108950E943E1049
:1015E00090E09695879596958795817008950E94CD
:1015F0003E1090E0837090708230910519F003974F
:1016000019F404C081E0089587EF08958BE00895F0
:101610008BE59BE068E47BE00E94230D80E00E9464
:10162000D5070E94EE0A80936805882331F40E9452
:10163000F70A809369050E949807809168050E94C7
:10164000E50784EA92E00E94461208950E94EE0A9D
:10165000982F80916805891729F090936805892F44
:101660000E94E50780916805882361F40E94F70ACB
:10167000982F80916905891729F090936905892F22
:101680000E94980780916A058F5F80936A0508958C
:10169000982F80916805882369F4913059F48091DE
:1016A0006A05843020F081E00E94C707089580E039
:1016B0000E94C7070895813051F4809168058130F8
:1016C00019F40E949107089510926A0508958230D6
:1016D00069F4809167058F5F809367058B3010F008
:1016E00010926705809167050E94D5070895E0E094
:1016F000F0E021E030E0B9010E2E02C0660F771F46
:101700000A94E2F780916B0590916C0586239723EC
:10171000892BC9F04FB7F89420916B0530916C0577
:10172000CB01809590958223932390936C058093B1
:101730006B054FBFEE0FFF1FEF54FD4F0190F0817F
:10174000E02D099504C03196EB30F105A1F68091AA
:101750006B0590916C0520E0892B09F021E0822F28
:1017600008950E94770B08950E9436110E94EE0999
:101770002FB7F89480916B0590916C0594609093CD
:101780006C0580936B052FBF0895259A269A279A9A
:1017900080E0089525982D9826982E9827982F98C0
:1017A00080E00895813049F0813018F0823031F4C2
:1017B00002C02D9808952F9808952E98089581308D
:1017C00049F0813018F0823031F402C02D9A08952A
:1017D0002F9A08952E9A0895813069F0813018F07B
:1017E000823069F404C085B190E2892702C085B1D6
:1017F000805885B9089585B190E4892785B9089501
:1018000080916D0580FF07C080916D058E7F80936C
:101810006D050E94460C80916D0581FF07C0809187
:101820006D058D7F80936D050E94C00D80916D05C3
:1018300082FF07C080916D058B7F80936D050E94AC
:10184000360E80916D0583FF07C080916D05877FFF
:1018500080936D050E947A1080916D05882361F058
:101860002FB7F89480916B0590916C0591609093DF
:101870006C0580936B052FBF089590916F05917053
:1018800080916F0581FD9260892F089580916F0589
:1018900082FF12C080916F058B7F80936F058091CE
:1018A0006F05806180936F05E0917005F09171057F
:1018B000309711F081E0099580916F0584FF29C070
:1018C000669B16C080916F058F7E80936F05809117
:1018D0006F058E7F80936F05E0917205F09173051F
:1018E000309711F081E0099586E00E944A1911C0F5
:1018F00080916D05816080936D052FB7F89480917C
:101900006B0590916C05916090936C0580936B05CD
:101910002FBF80916F0583FF12C080916F05877F75
:1019200080936F0580916F05806280936F05E091D1
:101930007005F0917105309711F082E00995809162
:101940006F0585FF29C0679B16C080916F058F7D4D
:1019500080936F0580916F058D7F80936F05E09177
:101960007205F0917305309711F082E0099587E0D8
:101970000E944A19089580916D05816080936D05DC
:101980002FB7F89480916B0590916C0591609093BE
:101990006C0580936B052FBF089587E00E9469193D
:1019A00080916F05826080936F0580916F058860DC
:1019B00080936F0580916D05816080936D052FB7D1
:1019C000F89480916B0590916C05916090936C05F3
:1019D00080936B052FBF089586E00E94691980915E
:1019E0006F05816080936F0580916F05846080939F
:1019F0006F0580916D05816080936D052FB7F89418
:101A000080916B0590916C05916090936C0580932B
:101A10006B052FBF089580916E05813011F081E034
:101A2000089586E00E94891987E00E948919109222
:101A30007105109270051092730510927205109244
:101A40006E0580E008959C0180916E05882311F059
:101A500081E0089581E080936E05309371052093B5
:101A60007005709373056093720586E060E04CEE3C
:101A70005CE00E94B31987E060E04DEC5CE00E94FE
:101A8000B319669B04C080916F058E7F03C080915F
:101A90006F05816080936F05679B04C080916F051F
:101AA0008D7F03C080916F05826080936F0586E013
:101AB0000E944A1987E00E944A1980E008958091A7
:101AC0007405811181E0089580917405811181E090
:101AD00008958093DF058823D1F41092DB051092DE
:101AE000DC051092DD051092DE0580916D058260A7
:101AF00080936D052FB7F89480916B0590916C05DC
:101B0000916090936C0580936B052FBF0895809131
:101B100074058130A1F58091DB059091DC05A091E1
:101B2000DD05B091DE05382F20E0892F9A2FAB2FED
:101B3000BB27A7FDBA959070822B932B880F892F16
:101B4000881F990BAA2797FDA095BA2F8093DB05D4
:101B50009093DC05A093DD05B093DE0580916D05C3
:101B6000826080936D052FB7F89480916B059091FA
:101B70006C05916090936C0580936B052FBF089561
:101B80000E94FB19109274056091DB057091DC05D1
:101B9000E091E005F091E1058091DF050995089558
:101BA000ADE0B0E0E6EDFDE00C94B7268C0180914D
:101BB0007405882379F50115110561F188E389839E
:101BC000CE0101960E94AD1B8F5F9F4F19F181E0FE
:101BD000809374051093E1050093E0058BED95E08B
:101BE0009E838D8389E69DE09D878C8789E48A8327
:101BF00082E090E09C838B831F82CE0102960E943C
:101C0000471A8F5F9F4F11F080E005C01092740556
:101C10000E94FB1981E02D96E4E00C94D32690E01D
:101C200080917505823008F091E0892F089590E049
:101C300080917505823008F091E0892F08958823FE
:101C400019F485E08093750580916D05846080931B
:101C50006D052FB7F89480916B0590916C0591609C
:101C600090936C0580936B052FBF0895A9E0B0E0B9
:101C7000ECE3FEE00C94B5260E94FB1980917505FB
:101C8000843049F0853009F47AC0833009F077C098
:101C90001092750577C01A821B821C821D821E82DB
:101CA0001F821886198681E08093750560917605FC
:101CB00080917705862387FF65C070E06F7770702D
:101CC000660F771F635B7E4FCE01029642E050E0C5
:101CD0000E94E0266091770570E06F777070660F64
:101CE000771F635B7E4FCE01069642E050E00E9474
:101CF000E0262A813B814C815D812115310541051A
:101D0000510509F43FC06E817F81888599856217EE
:101D1000730784079507B0F5E7E0660F771F881F04
:101D2000991FEA95D1F70E94872630E024533F4F50
:101D3000CE010196B90141E050E00E94E0266981A0
:101D400070E080E090E02A813B814C815D81EE80F3
:101D5000FF80088519852E193F09400B510B0E9401
:101D60006826672F782F892F992787E067337807B0
:101D700020F091E066E377E008C091E006C081E0E2
:101D80008093750590E060E070E080E0911181E063
:101D9000E0917805F091790509952996E6E00C9493
:101DA000D126ACE0B0E0E7EDFEE00C94B926FE01F0
:101DB00031968CE0DF011D928A95E9F789E38983EA
:101DC00081E090E09B838A8386E795E09D838C8306
:101DD00088EC9FE09C878B8783E480937605CF0116
:101DE0000E940C1A20E08F5F9F4F09F021E0822FA4
:101DF0002C96E2E00C94D5260E94D10E8823A9F4FB
:101E000085E08093750580916D05846080936D05F4
:101E10002FB7F89480916B0590916C059160909329
:101E20006C0580936B052FBF089584E08093750542
:101E30000895ADE0B0E0EFE1FFE00C94B7268C012F
:101E4000009709F446C088E389838091750588234B
:101E500039F5CE0101960E94AD1B8F5F9F4FC9F1EE
:101E6000FE0132968CE0DF011D928A95E9F789E345
:101E70008A8381E090E09C838B8386E795E09E8354
:101E80008D838CEA9FE09D878C8783E08093760525
:101E9000CF010E940C1A8F5F9F4F79F082E011C032
:101EA0008130B9F4CE0101960E94AD1B8F5F9F4F28
:101EB00081F00E94D10E882319F40E94FB1909C0F9
:101EC00084E080937505109379050093780580E090
:101ED00001C081E02D96E4E00C94D326ACE0B0E0A4
:101EE000E4E7FFE00C94B92693E890937705882304
:101EF000D9F0FE0131968CE0DF011D928A95E9F759
:101F000083E090E19C878B8787E795E09D838C83B6
:101F100081E090E09B838A8389E38983CF010E94DB
:101F20000C1A8F5F9F4FA1F485E080937505809117
:101F30006D05846080936D052FB7F89480916B05D3
:101F400090916C05916090936C0580936B052FBF09
:101F50002C96E2E00C94D5268823A9F483E08093A4
:101F6000750580916D05846080936D052FB7F89499
:101F700080916B0590916C05916090936C058093B6
:101F80006B052FBF089587EC92E00E9446120895DA
:101F9000ACE0B0E0EEECFFE00C94B9268823D9F079
:101FA000FE0131968CE0DF011D928A95E9F78EE6FD
:101FB0009FE09C878B8786E795E09D838C8381E0FB
:101FC00090E09B838A8389E38983CF010E94471A2B
:101FD0008F5F9F4FA1F485E08093750580916D051B
:101FE000846080936D052FB7F89480916B05909174
:101FF0006C05916090936C0580936B052FBF2C96B8
:10200000E2E00C94D526ACE0B0E0E9E0F0E10C941D
:10201000B9268823D9F0FE0131968CE0DF011D92AC
:102020008A95E9F78FE19EE09C878B8787E795E0AB
:102030009D838C8381E090E09B838A8389E38983FD
:10204000CF010E94471A8F5F9F4FA1F485E08093D4
:10205000750580916D05846080936D052FB7F894A8
:1020600080916B0590916C05916090936C058093C5
:102070006B052FBF2C96E2E00C94D5269898A0987B
:10208000A09A9998A198A19A9A98A298A29A0000C9
:1020900022B392B382B392708470892B2170822B09
:1020A0009898A0989998A1989A98A29880958770E6
:1020B000089580E0089580E0089580E0089580E02C
:1020C000089580E008959093E3058093E205809160
:1020D0006D05886080936D052FB7F89480916B052E
:1020E00090916C05916090936C0580936B052FBF68
:1020F00080E00895E091E205F091E30580E090E052
:102100000995089580917A05089560E072E18AE763
:1021100090E00895F999FECF9FB7F894E0E0F0E0E1
:1021200089E08093570084919FBF8F70823019F4AB
:1021300010927A0503C081E080937A0580917A0538
:10214000882369F48FB7F8945F9350E85093610047
:1021500050E0509361005F918FBF0E942511089558
:10216000A0E0B0E0E6EBF0E10C94AD2600E8C2E8B8
:10217000DBE810E092E8C92E9BE8D92EE12CF12C87
:1021800082E8A82E8BE8B82E0E94CF01BC018BE814
:102190006338780718F19E0140E050E0CB01A0E0E1
:1021A000B0E082589B48A040B040281739074A0742
:1021B0005B074CF4123039F48091660081508093B3
:1021C0006600000036C080916600815080936600F2
:1021D0000000EB01C258DB4811E028C08BE86238F0
:1021E000780739F1CE01A0E0B0E09B0140E050E07B
:1021F00036014701621A730A840A950A8615970503
:10220000A805B9054CF4113039F4809166008F5F50
:102210008093660000000DC0809166008F5F809300
:1022200066000000E501C61BD70B12E0015009F063
:10223000ABCFCDB7DEB7EEE00C94C9260E9482107A
:10224000882311F40E94B0100895CF93DF93C0E06B
:10225000D0E088EC0E94C701219683E1C838D807F6
:10226000C1F70E941E11DF91CF9108950E9446117F
:102270000E94C41D0E948A100E94CB110E94BF1FA1
:1022800084E060E00E94462278940895289A23987A
:102290002B98229A219A209A80E58CBD81E08DBDF1
:1022A00008958EBD00000000000000000000000046
:1022B000000000000000000000000000000000001E
:1022C0000000000000008DB58EB50895289A08958D
:1022D0002898089580E28CBB0895ED9A08958DB3F7
:1022E000ED98807208952C9A08952C98089524985A
:1022F0002C980895249A0895179A08951798089588
:102300002C98249A179A0F9A6D9875980895EAE672
:10231000F0E080818C608083089584E0089580E0FF
:10232000089508950895089508951F9310E00E9458
:10233000681181E80E945111812F0E945111182FBC
:102340000E946611183099F71F9108950E94C701E5
:102350000895FC01009719F42FEF3FEF1AC0809108
:102360007B05808380917C05818380917D058283BC
:1023700080917E05838380917F0584838091800591
:10238000858380918105868380918205878320E003
:1023900030E0C90108950F9380E06BE775E041E0FC
:1023A00020E030E00E943B19813011F590917B05CF
:1023B000292F30917C0540917D0550917E056091DB
:1023C0007F05709180058091810508E00E94EC01F5
:1023D00020937B0530937C0540937D0550937E05CB
:1023E00060937F05709380058093810590938205AB
:1023F0000F9108958F929F92AF92BF92CF92DF92EA
:10240000EF92FF920F930E944B1E4B015C012091B3
:10241000AD0530E040E050E060E070E080E090E04A
:1024200000E20E946B02282939294A295B290F9171
:10243000FF90EF90DF90CF90BF90AF909F908F90E4
:102440000895CF93DF93EC010097D1F0809183053D
:10245000909184058C179D0719F460E070E008C026
:1024600083E895E0BE010E94451DBC01009741F044
:1024700083E895E0AE010E94271D20E030E002C015
:102480002FEF3FEFC901DF91CF910895CF93DF93F5
:10249000EC01009771F0E0918305F091840506C08E
:1024A000EC17FD07D9F00190F081E02D3097C1F7CE
:1024B00006C02FEF3FEFC901DF91CF9108950E9431
:1024C0005E209B01AC01198218826A837B838C8316
:1024D0009D8383E895E0BE010E94D81C20E030E097
:1024E000EACFEF92FF920F931F93CF93DF9318C021
:1024F00083E895E060E070E0AE010E94271D8A85C8
:10250000882359F4EA82FB820C831D8383E895E0DB
:10251000BE01A80197010E94D81CEB85FC85099596
:102520008091830590918405892BD9F00E945E20CB
:102530007B018C01C0918305D09184058A819B81A8
:10254000AC81BD81A8019701281B390B4A0B5B0B9D
:102550008E819F81A885B985281739074A075B07AF
:1025600038F6CDB7DEB7E6E00C94D126809185052C
:1025700080FF0BC09FB7F894809185058E7F809374
:1025800085059FBF0E94B82577C08091850581FF92
:102590000BC09FB7F894809185058D7F809385054A
:1025A0009FBF0E94AE1E68C08091870587FF0BC049
:1025B0009FB7F894809187058F77809387059FBF99
:1025C0000E94DE1759C08091880583FF0BC09FB71A
:1025D000F89480918805877F809388059FBF0E942B
:1025E000541D4AC08091880584FF0BC09FB7F894A2
:1025F000809188058F7E809388059FBF0E942D1C47
:102600003BC08091890582FF0BC09FB7F8948091F1
:1026100089058B7F809389059FBF0E949C232CC0D6
:102620008091890585FF0BC09FB7F894809189053B
:102630008F7D809389059FBF0E94911B1DC0809153
:10264000890587FF0BC09FB7F894809189058F7724
:10265000809389059FBF0E9471120EC080918A05E8
:1026600087FF0AC09FB7F89480918A058F7780937F
:102670008A059FBF0E946A24809185058823A1F462
:1026800080918605882381F480918705882361F4F1
:1026900080918805882341F480918905882321F45D
:1026A00080918A05882361F02FB7F89480916B059B
:1026B00090916C05826090936C0580936B052FBFA1
:1026C00008959091920521E030E002C0220F331F5F
:1026D0008A95E2F7922B9093920580918705806806
:1026E000809387052FB7F89480916B0590916C05C6
:1026F000826090936C0580936B052FBF0895CF93F4
:10270000DF93E82FF0E0CF01805C9040A3E0959547
:102710008795AA95E1F7482F50E0EA01CC0FDD1F1D
:10272000C557DA4FA881B981109721F481818F773D
:1027300081836CC090968C91909783FD67C054966E
:10274000ED91FC91559784FF09C06083E881F98180
:10275000848995890196958B848B58C0EF2B09F459
:1027600055C01696CD91DC91179716968D919C9138
:102770001797019617969C938E93169716962D9100
:102780003C91179756968D919C915797281739072A
:1027900021F417961C921E92169716962D913C9135
:1027A000179714968D919C9115972817390729F43E
:1027B0001796DC93CE93169729C05496ED91FC9111
:1027C0005597EC0FFD1F608318968D919C9119977A
:1027D000019619969C938E931897440F551F455751
:1027E0005A4FEA01E881F98180A180FF0FC08385FB
:1027F000883C61F418962D913C91199786899789A8
:10280000969587958217930708F45D9ADF91CF918B
:102810000895E82FF0E0E05CF04083E0F595E7955F
:102820008A95E1F7F0E0EE0FFF1FE557FA4F0190B0
:10283000F081E02D3097C1F04FB7F89422813381B9
:10284000808191814FBF2817390711F481E0828779
:10285000828D938D892B11F4118E108E068CF78D3D
:10286000E02D309709F009950895E82FF0E0E05C3D
:10287000F04023E0F595E7952A95E1F7F0E0EE0FBB
:10288000FF1FE557FA4F0190F081E02D309791F04E
:1028900080A1887179F48FB7F894208531858FBF36
:1028A0002115310539F0048CF58DE02D309711F0AC
:1028B000C90109950895909391058093900581E051
:1028C00080938F05089510928F050895803C21F024
:1028D000883C11F080E0089581E008951F93CF9324
:1028E000DF93EC01009751F11B85812F0E94661444
:1028F000882321F1E12FF0E0E05CF04043E0F59522
:10290000E7954A95E1F7F0E0EE0FFF1FE557FA4F24
:1029100080819181C817D90789F44FB7F8942A812B
:102920003B81888199814FBF2817390719F020E032
:1029300030E006C08A85282F30E002C02FEF3FEF3D
:10294000C901DF91CF911F9108951F93CF93DF931A
:10295000EC01009731F11B85812F0E9466148823BA
:1029600001F1E12FF0E0E05CF04073E0F595E795D0
:102970007A95E1F7F0E0EE0FFF1FE557FA4F8081FF
:102980009181C817D90769F4183C59F48CB1282FE4
:1029900030E054E0369527955A95E1F72170307074
:1029A00002C02FEF3FEFC901DF91CF911F91089532
:1029B0001F93CF93DF93EC01009731F11B85812F9B
:1029C0000E946614882301F1E12FF0E0E05CF04002
:1029D000B3E0F595E795BA95E1F7F0E0EE0FFF1F4C
:1029E000E557FA4F80819181C817D90769F4183CDF
:1029F00059F489B1282F30E0E4E036952795EA951F
:102A0000E1F72170307002C02FEF3FEFC901DF9175
:102A1000CF911F9108951F93CF93DF93EC010097FF
:102A2000F9F01B85812F0E9466148823C9F0E12FDD
:102A3000F0E0E05CF04093E0F595E7959A95E1F7DA
:102A4000F0E0EE0FFF1FE557FA4F80819181C81724
:102A5000D90731F4183C21F45D9820E030E002C041
:102A60002FEF3FEFC901DF91CF911F9108951F9381
:102A7000CF93DF93EC010097F9F01B85812F0E9423
:102A800066148823C9F0E12FF0E0E05CF04033E009
:102A9000F595E7953A95E1F7F0E0EE0FFF1FE55762
:102AA000FA4F80819181C817D90731F4183C21F47D
:102AB0005D9A20E030E002C02FEF3FEFC901DF91C7
:102AC000CF911F910895A0E0B0E0E9E6F5E10C9404
:102AD000B1268C015B016A01009709F46DC0DC012D
:102AE0001B96FC908F2D0E946614882309F464C005
:102AF000A114B10409F460C0C114D10409F45CC08C
:102B0000EF2DF0E0E05CF040A3E0F595E795AA95A5
:102B1000E1F7F0E0EE0FFF1FE557FA4FC081D181DA
:102B20000C171D0709F048C08FB7F894F8016681AB
:102B30007781248135818FBF40E050E01AC0750154
:102B4000E40EF51ED8015496ED91FC915597E20FD5
:102B5000F31F8081F70180832F5F3F4F56968D9141
:102B60009C9157972817390711F420E030E04F5F08
:102B70005F4F2617370719F04C155D0500F38FB727
:102B8000F8943D832C8328853985241B350B3987A0
:102B90002887288539858FBF8B85883C59F488A183
:102BA00080FF08C08E899F89969587958217930725
:102BB00008F05D989A0102C02FEF3FEFC901CDB731
:102BC000DEB7EAE00C94CD26A0E0B0E0EAEEF5E155
:102BD0000C94AF26EC016B018A01009709F46FC0D9
:102BE000FB848F2D0E946614882309F468C0C114E9
:102BF000D10409F464C00115110509F460C0EF2D7A
:102C0000F0E0E05CF04083E0F595E7958A95E1F728
:102C1000F0E0EE0FFF1FE557FA4F80809180C81556
:102C2000D90509F04CC08A8D9B8D892B81F42A81AE
:102C30003B81888199812817390709F040C0D98ED6
:102C4000C88E1B830A8319821882B80130C08FB7DF
:102C5000F894AA80BB80E880F9808FBFA50160E06E
:102C600070E019C09A012F5F3F4F8A8D9B8D281706
:102C7000390711F420E030E02E153F0579F0E88D9A
:102C8000F98DE40FF51FD601A60FB71F8C91808335
:102C90006F5F7F4FA9016017710720F38FB7F8941A
:102CA000F401538342838FBFAE14BF0431F41A86FC
:102CB000EB85F0E08181806281839B0102C02FEF70
:102CC0003FEFC901CDB7DEB7ECE00C94CB26FC0199
:102CD00083899385882349F4903C19F0983C89F4C2
:102CE00002C06A9A0895559A0895903C19F0983C4C
:102CF00041F404C06A987298729A089555985D9844
:102D00005D9A08951F93CF93DF93FC010097B1F173
:102D10001385812F0E946614882381F1812F90E012
:102D2000805C904033E0959587953A95E1F7C82F00
:102D3000D0E0DE01AA0FBB1FA557BA4FED91FC9161
:102D400011973097D9F0E385F0E01182ED91FC9175
:102D500080A180FF02C055985D988485803429F455
:102D600081E0838BCF010E946716CC0FDD1FC55712
:102D7000DA4F1982188220E030E002C02FEF3FEFD7
:102D8000C901DF91CF911F91089580EC0E94091431
:102D9000089580EC0E943514089588EC0E9409146F
:102DA000089588EC0E9435140895CF93DF93282F5F
:102DB000A82FB0E0CD01805C904033E095958795D9
:102DC0003A95E1F7C82FD0E0FE01EE0FFF1FE5575F
:102DD000FA4F608171816115710509F476C0283C54
:102DE000D1F5FB0180A1282F81FD02C030E009C090
:102DF0008CB190E0E4E096958795EA95E1F7382F5D
:102E0000317020FD02C080E008C089B190E054E03C
:102E1000969587955A95E1F78170332311F48823AD
:102E2000D1F08AE090E0A0E0B0E080939905909323
:102E30009A05A0939B05B0939C0581E080939D0526
:102E400088E697E190939F0580939E0583E995E03E
:102E50000E9446123AC02FB7F894FB0182819381F9
:102E6000408151812FBF8417950749F1808D918D45
:102E7000840F951FFC0190819A012F5F3F4F8C9129
:102E800080648C9316969C931697CC0FDD1FC557C4
:102E9000DA4FE881F981828D938D2817390711F473
:102EA00020E030E011968C911197806211968C93FE
:102EB0008FB7F894FB01318320838FBF06C0119632
:102EC0008C911197806411968C93DF91CF91089526
:102ED00088EC0E94D516089588EC0E94D5160895B6
:102EE00080EC0E94D51608951F93CF93DF93EC01D9
:102EF000009709F45CC01B85812F0E94661488230B
:102F000009F455C088A1282F30E0A9014170507004
:102F100080FF03C0183C09F04AC0812F90E0805C1C
:102F2000904073E0959587957A95E1F7E82FF0E06A
:102F3000EE0FFF1FE557FA4F80819181892BB9F57C
:102F4000D183C083183C81F421FF02C06C9874982F
:102F5000452B51F0559A54985C988C899D89892B02
:102F600011F45D9A01C05D988C85803419F4CE010E
:102F70000E946716198218821B821A828C899D8989
:102F8000892B11F41F8A1E8A888D998D892B11F443
:102F90001B8E1A8E1D821C821F821E8281E08A87F0
:102FA000CE010E948F208B85282F30E002C02FEFAA
:102FB0003FEFC901DF91CF911F910895CF92DF922A
:102FC000FF920F931F93DF93CF9300D00F92CDB753
:102FD000DEB781E08983FF2400E010E0F2E0CF2E2D
:102FE000D12CCC0EDD1E9091920589818923B9F0F8
:102FF0002FB7F89490919205898189278093920543
:103000002FBF6F2D70E0660F771F635B7D4FC6018A
:1030100042E050E00E94E026EA81FB810995F394AA
:103020008981880F89830F5F1F4F06301105D9F6FC
:103030000F900F900F90CF91DF911F910F91FF9004
:10304000DF90CF9008951F93FC0170E01CE81AC038
:10305000CD01042E02C0959587950A94E2F7272F9B
:1030600030E082279327272F269580FF03C0722FF9
:10307000712701C0722F4F5F5F4F4830510541F7F4
:1030800061503196662331F08081A82FB0E040E096
:1030900050E0DECF872F1F9108950E949A01089576
:1030A0000E94BE0108950E9468010895CF92DF92A8
:1030B000EF92FF920F931F93082F1FB7F8940E946F
:1030C00068011FBF882329F41092A8051092A90552
:1030D00058C01FB7F894802F0E94BE011FBFDD2487
:1030E000D394CC24EE24FF24F3941FB7F8940E94C9
:1030F0008201082F0E9482011FBF013021F481301C
:10310000B1F480E03EC0081709F042C08091A805E4
:10311000D81640F4EE2DF0E0E056FA4F20812F2132
:1031200021F005C020E0D81611F0CD2C32C0EE2DD4
:10313000F0E0E056FA4F80818F29808321E01FB7AD
:10314000F894822F0E94A8011FBFFF0C19F4E3948A
:10315000FF24F39487E08E1510F0D394C6CF80EA55
:1031600095E068E00E942318882311F082E009C0EE
:10317000C092A805CC2011F081E003C081E08093CB
:10318000A9051F910F91FF90EF90DF90CF900895C8
:10319000202FEE2DF0E0E056FA4F9F2D9095808184
:1031A00089238083CCCFA0E0B0E0E9EDF8E10C9476
:1031B000B226B82EF62EE22E68011092A8051092C3
:1031C000A905662361F06093A00581E48093A805BA
:1031D000E1EAF5E0119285E0E83AF807D9F7EA016B
:1031E00010E08B2D0E945618982F813041F5809168
:1031F000A0058F1521F0FF2011F090E020C08091F4
:10320000A00588838091A10589838091A2058A8386
:103210008091A3058B838091A4058C838091A50563
:103220008D838091A6058E838091A7058F831F5F74
:103230008091A905882319F428961E1590F2C114CF
:10324000D10411F0F6011083111191E0892FCDB74F
:10325000DEB7E9E00C94CE260F931F93982FFB0165
:10326000742F89018CEE692FAF01272F0E94D3188C
:103270001F910F9108950F931F93982FFB01742FA7
:10328000890180EF692FAF01272F0E94D3181F916A
:103290000F910895382FE82FE650E230B0F4F0E0B7
:1032A000EE0FFF1FE454FA4F80819181892B69F062
:1032B0002DB381E090E002C0880F991F3A95E2F7A4
:1032C000282B2DBB20E030E002C02FEF3FEFC901DB
:1032D0000895382FE82FE650E230B8F4F0E0EE0F12
:1032E000FF1FE454FA4F80819181892B71F02DB337
:1032F00081E090E002C0880F991F3A95E2F780952F
:1033000082238DBB20E030E002C02FEF3FEFC901E8
:103310000895CF93DF93382F86508230F0F4C82F72
:10332000D0E0CC0FDD1FC454DA4F88819981892BFE
:10333000A1F02DB381E090E0032E02C0880F991F09
:103340000A94E2F7809582238DBB832F0E94752219
:103350001982188220E030E002C02FEF3FEFC90150
:10336000DF91CF9108950F931F93CF93DF93282F71
:103370008A01E82FE650E230F0F4CE2FD0E0FE01D3
:10338000EE0FFF1FE454FA4F80819181892B99F44D
:10339000613089F00115110571F061116150822FC2
:1033A0000E944622CC0FDD1FC454DA4F19830883D4
:1033B00020E030E002C02FEF3FEFC901DF91CF9155
:1033C0001F910F91089587E08093AA0580E980936B
:1033D000BC00809189058062809389052FB7F8949D
:1033E00080916B0590916C05826090936C05809341
:1033F0006B052FBF08958091AA05882319F42FEF3C
:103400003FEF08C01092EE051092ED051092AA054C
:1034100020E030E0C9010895FC018091AA058130C7
:1034200091F5309781F180818093E80583819481C3
:103430009093E5058093E40585818093E70581817C
:103440008093E605828593859093EE058093ED0544
:1034500086819781A085B1858093E9059093EA05DF
:10346000A093EB05B093EC058091E705882311F458
:1034700084E001C082E08093AA0585EA8093BC00C5
:1034800020E030E002C02FEF3FEFC9010895FC01BA
:103490008091AA05813091F5309781F180818093E8
:1034A000E80585818093E70581818093E605838126
:1034B00094819093E5058093E405828593859093AC
:1034C000EE058093ED0586819781A085B185809377
:1034D000E9059093EA05A093EB05B093EC05809184
:1034E000E705882311F485E001C083E08093AA05F5
:1034F00085EA8093BC0020E030E002C02FEF3FEF70
:10350000C90108958091AA05823041F08091AA05F1
:10351000833021F08091AA05843021F48091E80560
:10352000880F08C08091AA05853051F48091E80584
:10353000880F8F5F8093BB0085E88093BC0008955F
:103540000E94E31908959091E7058091E605981788
:1035500090F48091E705E091E405F091E505E80F2E
:10356000F11D90818F5F8093E7059093BB0085E804
:103570008093BC00089586E08093AA0584E9809337
:10358000BC00809189058062809389052FB7F894EB
:1035900080916B0590916C05826090936C0580938F
:1035A0006B052FBF08958091E9059091EA05A091E0
:1035B000EB05B091EC052091E70521502093E7053C
:1035C0002091E705220F220F220F04C0B695A79580
:1035D000979587952A95D2F78093BB0085E88093CD
:1035E000BC008091E705882359F48091AA058230B8
:1035F00021F484E08093AA05089585E08093AA05CC
:1036000008958091AA05843019F40E94A31A0895A0
:103610008091AA05823021F08091AA05833019F4A7
:103620000E94D31A08958091AA05853021F485EA75
:103630008093BC0008950E94E31908958091AA0523
:10364000853099F48091E605813021F48091BC00A9
:103650008F7B03C08091BC0080648093BC0080910C
:10366000BC0085688093BC0008950E94E31908950A
:10367000982F8091AA05853029F58091E705E09182
:10368000E405F091E505E80FF11D90838F5F8093CD
:10369000E7052091E7058091E60530E090E001978D
:1036A0002817390724F48091BC00806403C08091FE
:1036B000BC008F7B8093BC008091BC0085688093A8
:1036C000BC0008950E94E3190895982F8091AA05DF
:1036D000853021F58091E705E091E405F091E5055D
:1036E000E80FF11D90838F5F8093E70586E080935C
:1036F000AA0584E98093BC0080918905806280934B
:1037000089052FB7F89480916B0590916C058260C4
:1037100090936C0580936B052FBF08950E94E31969
:103720000895E091ED05F091EE05309791F08091CC
:10373000AA05863041F48091BC0084FDFCCF81E075
:103740008093AA0504C081E08093AA0580E00995D2
:10375000089581E08093AA0508959C01009779F06F
:103760008091AA05882359F4C9010E94F22281E0C0
:103770008093AA051092E70520E030E002C02FEF09
:103780003FEFC9010895FC018091AB05882319F032
:103790002EEF3FEF58C0309709F453C084819581D4
:1037A00020813181820F931F8150904108F049C0E0
:1037B00081E08093AB057093F6056093F505AFEE5D
:1037C000B5E086E001900D928150E1F7F999FECFC6
:1037D00020E030E017C0E091F105F091F205E20F32
:1037E000F31F8091EF059091F00501969093F005FD
:1037F0008093EF05019792BD81BDF89A80B58083D3
:103800002F5F3F4F8091F3059091F40528173907FA
:1038100010F31092F4051092F305809188058061F1
:10382000809388052FB7F89480916B0590916C0573
:10383000826090936C0580936B052FBF20E030E091
:1038400002C02FEF3FEFC901089590E08091AB05D2
:10385000813009F491E0892F08958091F3059091CA
:10386000F405892B51F41092AB05E091F505F09128
:10387000F605309719F1099508956091EF0570915B
:10388000F0056F5F7F4F7093F0056093EF05615017
:103890007040E091F105F091F2054191F093F2054D
:1038A000E093F1058CE00E9466238091F3059091EE
:1038B000F40501979093F4058093F3050895CF9351
:1038C000DF93FC018091AB05882319F02EEF3FEFC9
:1038D0006BC0309709F466C0848195812081318165
:1038E000820F931F8150904108F05CC081E080936B
:1038F000AB05AFEEB5E086E001900D928150E1F7A7
:103900007093F6056093F505672B19F4C0E0D0E0DD
:103910003BC06091EF057091F0056F5F7F4F709332
:10392000F0056093EF0561507040E091F105F09172
:10393000F2054191F093F205E093F1058CE00E94CD
:1039400066238091F3059091F40501979093F40517
:103950008093F30524C06091EF057091F0056F5FCF
:103960007F4F7093F0056093EF0561507040E091D8
:10397000F105F091F2054191F093F205E093F10524
:1039800084E00E94662321968091F3059091F405CE
:10399000C817D90700F3F999FECF1092AB0520E0C4
:1039A00030E002C02FEF3FEFC901DF91CF910895C2
:1039B000A0E0B0E0EEEDFCE10C94B1268C01EB014F
:1039C00069017A01FC01608171816115710589F1DC
:1039D000FB01AA24BB242681378140855185828141
:1039E0009381A481B581280F391F4A1F5B1F2C19B1
:1039F0003D094E095F092F3F8FEF38078FEF4807CA
:103A00008FE7580748F48E819F81A885B9852817CC
:103A100039074A075B0738F4808191815F0100977D
:103A200061F0FC01D8CFE617F70731F4F983E8839A
:103A3000F801D183C08306C0CF01F501D183C083D3
:103A400099838883CDB7DEB7EAE00C94CD26CF9377
:103A5000DF93EC01DB01FA0188819981481759074E
:103A600039F48081918111821082888399830AC000
:103A70008081918111969C938E93118210828C91FA
:103A800011969C91DF91CF910895FC010190F081F6
:103A9000E02D06C0808191818617970719F0FC01FF
:103AA0003097C1F7CF0108958091AC05813051F472
:103AB00082E08093AC05E091F705F091F80530972E
:103AC00009F0099508958091AC05882319F42FEF2A
:103AD0003FEF06C01092AC050E94CB2420E030E0FE
:103AE000C9010895982F8091AC05823079F4892F0F
:103AF0008450843058F0903148F481E08093AC05D4
:103B0000892F0E94372520E030E002C02FEF3FEFE1
:103B1000C9010895CF93DF93EC018091AC05882310
:103B200019F5209709F18B819C81892BE9F0288177
:103B30002230D0F48A8190E08F739070892BA1F4A9
:103B4000213019F48981833078F082E08093AC05CC
:103B5000CE010E9484258F8198859093F8058093EB
:103B6000F70520E030E002C02FEF3FEFC901DF9101
:103B7000CF9108958FB7F8941092B5051092B405BF
:103B80001092B3058FBF0895809170008C7F809351
:103B900070008091B60080628093B6001092B200EF
:103BA0001092B0001092B1001092B3008091B60054
:103BB00090E08F719070892BC9F783E087BB87E015
:103BC0008093B100809170008160809370000895AF
:103BD0008091B60090E08F719070892BC9F7809129
:103BE00070008C7F809370008091B100887F8093FB
:103BF000B10083B5826083BD8091B60090E08F7183
:103C00009070892BC9F78091B6008F7D8093B600A4
:103C10000895EF92FF920F931F937B018C016091A7
:103C2000B200862F90E0809590959C01442737FD47
:103C30004095542F3070407050702E153F0540074E
:103C4000510798F4D801C701821B930BA40BB50B45
:103C50009C01AD01BB27A52F942F832F9093B40512
:103C60008093B3052093B50511C08091B60090E014
:103C70008F719070892BC9F76E0D6093B30082E04D
:103C800087BB809170008260809370001F910F91BC
:103C9000FF90EF900895EF92FF920F931F936FB7ED
:103CA000F8947091AE052091B20084E48093B40042
:103CB0008091B60090E08F719070892BC9F7B89908
:103CC00004C030E040E050E00AC08091B200282FEC
:103CD00030E040E050E021503F4F4F4F5F4F6FBF0B
:103CE0008FEF789FC0011124AA2797FDA095BA2FC6
:103CF000820F931FA41FB51F9C01AD0175E0220F19
:103D0000331F441F551F7A95D1F77C018D0162E066
:103D100016950795F794E7946A95D1F72E0D3F1DF8
:103D2000401F511FE090AF05F090B0050091B10524
:103D30001091B2052E0D3F1D401F511F281B390B3E
:103D40004A0B5B0BB901CA011F910F91FF90EF90D5
:103D5000089560E270E080E090E008952FB7F89455
:103D60006091AE051092AE052FBF70E080E090E04C
:103D700020E43FE140E050E00E9468262091AF053A
:103D80003091B0054091B1055091B205260F371F13
:103D9000481F591F2093AF053093B0054093B105DC
:103DA0005093B205261737074807590728F4809122
:103DB000AD058F5F8093AD0508951F920F920FB6EA
:103DC0000F920BB60F9211242F933F934F935F9353
:103DD0006F937F938F939F93AF93BF93EF93FF93D3
:103DE000809170008D7F809370001092B505809156
:103DF000DA0580FF03C080E00E943B248091DA0551
:103E000082FF11C0809185058160809385052FB761
:103E1000F89480916B0590916C05826090936C058D
:103E200080936B052FBFFF91EF91BF91AF919F9151
:103E30008F917F916F915F914F913F912F910F9053
:103E40000BBE0F900FBE0F901F9018958091DA0552
:103E500080FF0FC081E00E943B24809170008D7F25
:103E6000809370000E94BA1D8091DA058B7F809349
:103E7000DA0508951F920F920FB60F920BB60F92AC
:103E800011242F933F934F935F936F937F938F935F
:103E90009F93AF93BF93EF93FF938091B30590915E
:103EA000B405892BA1F58091B5058823E9F48091AB
:103EB000DA0580FF03C080E00E943B248091DA0590
:103EC00082FF34C0809185058160809385052FB77E
:103ED000F89480916B0590916C05826090936C05CD
:103EE00080936B052FBF22C08091B60090E08F7148
:103EF0009070892BC9F78091B5058093B30082E05B
:103F000087BB8091700082608093700009C08091AF
:103F1000B3059091B40501979093B4058093B305D0
:103F20008091DA0580FF02C00E94C7238091AE0510
:103F30008F5F8093AE0580918505826080938505B3
:103F40002FB7F89480916B0590916C0582609093E7
:103F50006C0580936B052FBFFF91EF91BF91AF91DF
:103F60009F918F917F916F915F914F913F912F9191
:103F70000F900BBE0F900FBE0F901F90189580E111
:103F800097E29093A9008093A800E1EAF0E088E02E
:103F90008083808182608083E2E7F0E080818260BC
:103FA000808308958F929F92AF92BF92CF92DF92BB
:103FB000EF92FF920F931F934C01A090A400B0903A
:103FC000A500CC24DD246091B8057091B9058091DD
:103FD000BA059091BB0528EE33E040E050E00E9426
:103FE0006826A60EB71EC81ED91EF401A082B18293
:103FF000C282D38214821582168217821F910F917A
:10400000FF90EF90DF90CF90BF90AF909F908F90F8
:1040100008952091B8053091B9054091BA055091A5
:10402000BB05260F371F481F591F2093B805309333
:10403000B9054093BA055093BB0580918905806806
:10404000809389052FB7F89480916B0590916C054A
:10405000826090936C0580936B052FBF08952FB7F6
:10406000F8946091B7051092B7052FBF70E080E01B
:1040700090E02AE030E040E050E00E946826209185
:10408000B8053091B9054091BA055091BB05260F8E
:10409000371F481F591F2093B8053093B905409327
:1040A000BA055093BB05261737074807590728F468
:1040B0008091B6058F5F8093B60508950E942F20EA
:1040C0006091B8057091B9058091BA059091BB05D2
:1040D00008951F920F920FB60F9211242F938F9372
:1040E0009F938091B7058F5F8093B7058091890575
:1040F0008068809389052FB7F89480916B05909123
:104100006C05826090936C0580936B052FBF9F9127
:104110008F912F910F900FBE0F901F901895DC017B
:104120001B96EC911B97F0E011821B96EC911B976C
:10413000F0E01D968D919C911E97958384831C962B
:104140008C911C971B96EC911B97882349F4F0E007
:1041500082E080831B96EC911B97F0E012820AC0EC
:10416000F0E010821B96EC911B97F0E052968C9138
:10417000529782831B96EC911B97F0E082811C96EC
:104180009C911C97892B82831B96EC911B97F0E0E6
:1041900082811F969C911F97892B82831B96EC919D
:1041A0001B97F0E0828150969C915097892B8283D7
:1041B0001B96EC911B97F0E0828151969C91519750
:1041C000892B82831B96EC911B97F0E0808180689D
:1041D00080831B96EC911B97F0E08181886181833D
:1041E0001B96EC91F0E081818068818308951F9295
:1041F0000F920FB60F920BB60F9211242F933F938D
:104200004F935F936F937F938F939F93AF93BF93DE
:10421000EF93FF930E94261F80918F058111EC98E8
:10422000E0919005F0919105309709F00995FF9183
:10423000EF91BF91AF919F918F917F916F915F911E
:104240004F913F912F910F900BBE0F900FBE0F908B
:104250001F9018951F920F920FB60F920BB60F92E8
:1042600011242F933F934F935F936F937F938F937B
:104270009F93AF93BF93EF93FF938091C80060919A
:10428000CE008C7131F488EC0E947F1385E00E948F
:104290006113FF91EF91BF91AF919F918F917F91AA
:1042A0006F915F914F913F912F910F900BBE0F90A7
:1042B0000FBE0F901F9018951F920F920FB60F927E
:1042C0000BB60F9211242F933F934F935F936F93ED
:1042D0007F938F939F93AF93BF93EF93FF93E9ECFB
:1042E000F0E080818F7B808384E00E946113FF91E6
:1042F000EF91BF91AF919F918F917F916F915F915E
:104300004F913F912F910F900BBE0F900FBE0F90CA
:104310001F9018951F920F920FB60F920BB60F9227
:1043200011242F933F934F935F936F937F938F93BA
:104330009F93AF93BF93EF93FF93E9ECF0E08081FD
:104340008F7D808383E00E946113FF91EF91BF9185
:10435000AF919F918F917F916F915F914F913F911D
:104360002F910F900BBE0F900FBE0F901F901895BE
:104370001F920F920FB60F920BB60F9211242F932C
:104380003F934F935F936F937F938F939F93AF93DD
:10439000BF93EF93FF938091C0006091C6008C7132
:1043A00031F480EC0E947F1382E00E946113FF9140
:1043B000EF91BF91AF919F918F917F916F915F919D
:1043C0004F913F912F910F900BBE0F900FBE0F900A
:1043D0001F9018951F920F920FB60F920BB60F9267
:1043E00011242F933F934F935F936F937F938F93FA
:1043F0009F93AF93BF93EF93FF93E1ECF0E0808145
:104400008F7B808381E00E946113FF91EF91BF91C8
:10441000AF919F918F917F916F915F914F913F915C
:104420002F910F900BBE0F900FBE0F901F901895FD
:104430001F920F920FB60F920BB60F9211242F936B
:104440003F934F935F936F937F938F939F93AF931C
:10445000BF93EF93FF93E1ECF0E080818F7D808349
:1044600080E00E946113FF91EF91BF91AF919F9106
:104470008F917F916F915F914F913F912F910F900D
:104480000BBE0F900FBE0F901F9018952DB141E0FD
:1044900050E0082E02C0440F551F0A94E2F7942FF3
:1044A000909592239DB99EB1942B9EB9EAE6F0E0D7
:1044B00090818450880F23E030E0082E02C0220F44
:1044C000331F0A94E2F7209529232083908170E01E
:1044D0006370707002C0660F771F8A95E2F7962BA3
:1044E00090838CB3482B4CBB08959DB121E030E004
:1044F000082E02C0220F331F0A94E2F72095922360
:104500009DB99EB129232EB9EAE6F0E0908184504E
:10451000880F23E030E002C0220F331F8A95E2F7B4
:1045200020952923208308951F920F920FB60F9292
:104530000BB60F9211242F933F934F935F936F937A
:104540007F938F939F93AF93BF93EF93FF930E94BB
:10455000261FE091BE05F091BF05309709F009953F
:10456000FF91EF91BF91AF919F918F917F916F914B
:104570005F914F913F912F910F900BBE0F900FBE07
:104580000F901F9018951F920F920FB60F920BB6B7
:104590000F9211242F933F934F935F936F937F93C9
:1045A0008F939F93AF93BF93EF93FF930E94261F28
:1045B000E091BC05F091BD05309709F00995FF9198
:1045C000EF91BF91AF919F918F917F916F915F918B
:1045D0004F913F912F910F900BBE0F900FBE0F90F8
:1045E0001F901895FC011092BC001092B9008081B8
:1045F0008093B80008951F920F920FB60F920BB6DA
:104600000F9211242F933F934F935F936F937F9358
:104610008F939F93AF93BF93EF93FF938091B900D4
:1046200090E0887F90708832910559F18932910528
:104630008CF48031910511F1813191052CF40097B2
:1046400019F1089781F51AC088319105D1F080974A
:1046500051F51AC088349105B9F0893491053CF4BC
:104660008033910589F080349105E9F410C08035DC
:10467000910581F088359105B1F411C00E94821A2C
:1046800012C00E94011B0FC00E94E3190CC00E94BF
:104690001E1B09C08091BB000E94381B04C0809182
:1046A000BB000E94651BFF91EF91BF91AF919F915D
:1046B0008F917F916F915F914F913F912F910F90CB
:1046C0000BBE0F900FBE0F901F901895982FF99961
:1046D000FECF07B600FCFDCF72BD61BD40BD8FB7F8
:1046E000F8949FBBF99A8FBF08951F920F920FB64F
:1046F0000F9211242F938F939F93FB98809188059D
:104700008061809388052FB7F89480916B05909114
:104710006C05826090936C0580936B052FBF9F9111
:104720008F912F910F900FBE0F901F90189581E0E1
:1047300083BF889513BE08950E944B1E2091C0052B
:104740003091C1054091C2055091C305621B730BA6
:10475000840B950B1092C0051092C1051092C205F2
:104760001092C3050E9409208091A100826080936D
:10477000A1000E9495118091DA0581FD07C0E091AA
:10478000CB05F091CC05309709F0099508950E946A
:104790008210882309F44EC08091DA0582FD03C09F
:1047A0002FEF3FEF66C024982C988091B60090E0E0
:1047B0008F719070892BC9F78091700081FD0AC0BC
:1047C0008FEF8093B3008091B60090E08F7190706E
:1047D000892BC9F78091B000806C8093B0008091E4
:1047E000B60090E08F719070892BC9F78091B1006D
:1047F00080688093B1008091B60090E08F719070D6
:10480000892BC9F78091B0008F738093B00080919D
:10481000B60090E08F719070892BC9F78091B0003D
:1048200080688093B0008091B60090E08F719070A6
:10483000892BC9F78091DA0581608093DA05809130
:10484000B60090E08F719070892BC9F780918A052E
:10485000806880938A052FB7F89480916B059091BA
:104860006C05826090936C0580936B052FBF20E0F0
:1048700030E0C90108959091DA058170880F9C7F1E
:10488000982B9093DA050E948210882311F42C98BB
:104890000EC024982C988091B0008F738093B00044
:1048A0008091B60090E08F719070892BC9F7249A9F
:1048B000809189058460809389052FB7F894809151
:1048C0006B0590916C05826090936C0580936B05ED
:1048D0002FBF08958091DA0580FF5CC08091A10010
:1048E0008D7F8093A1008091C0059091C105A0911A
:1048F000C205B091C3050097A105B10551F40E940E
:104900004B1E6093C0057093C1058093C2059093C0
:10491000C30580918F058111EC9AF999FECF0E9411
:1049200082108823B1F42C9A249A8091DA0582FFB0
:1049300005C087E083BF889513BE22C00E94E81D92
:1049400085E083BF889513BE0E94C41D0E94251177
:1049500017C0909172002091BC0030917A001092A3
:1049600072001092BC0010927A00249A87E083BFF4
:10497000889513BE909372002093BC0030937A0008
:1049800084E48093B4008091B60090E08F719070C1
:10499000892BC9F7089510927C0010927A0010922A
:1049A0007E0008951F920F920FB60F920BB60F92D2
:1049B00011242F933F934F935F938F939F93EF9384
:1049C000FF938091C405E091C505F091C605882349
:1049D00051F48091C7059091C80520917900E80FA6
:1049E000F91F20830FC08091C7059091C8054091A1
:1049F0007800509179009C01220F331FE20FF31FC2
:104A00005183408301969093C8058093C7052091F8
:104A1000C7053091C8058091C9059091CA0528172E
:104A20003907B1F480917A00877F80937A00809172
:104A300088058860809388052FB7F89480916B056E
:104A400090916C05826090936C0580936B052FBFED
:104A5000FF91EF919F918F915F914F913F912F9196
:104A60000F900BBE0F900FBE0F901F901895282F20
:104A70001092C8051092C705843048F481E090E098
:104A8000022E02C0880F991F0A94E2F717C08830DF
:104A900011F08A3011F481E011C0893011F08B30AF
:104AA00011F483E00BC08C3011F08E3011F484E0EF
:104AB00005C08D3011F08F3019F48CE080937E00AA
:104AC00080917C0090917C00907E90937C009091EE
:104AD0007C00922B90937C008F71821729F02430F8
:104AE00018F08DE70E94C7018091C9059091CA0511
:104AF000029720F080917A00886603C080917A0046
:104B0000886480937A000895A1E0B0E0EAE8F5E2D5
:104B10000C94B926FC01858196819093CA058093F7
:104B2000C90580818093C405838194819093C605D3
:104B30008093C505828180937C008091C405882381
:104B400029F480917C00806280937C00618170E018
:104B5000675A7D4FCE01019641E050E00E94E02669
:104B60008981806880937A002196E2E00C94D526B2
:104B70009091DA0592FF24C08091D7058823B1F483
:104B8000E091D805F091D905309709F00995809109
:104B9000DA0582FF15C06091D3057091D40580912C
:104BA000D5059091D6050E94091E08959B7F90938C
:104BB000DA05E091D805F091D905309709F009950B
:104BC00008958091DA0582FD03C02FEF3FEF09C001
:104BD0000E94BA1D8091DA058B7F8093DA0520E070
:104BE00030E0C9010895CF93DF93EC01009719F4E9
:104BF0002FEF3FEF2EC00E94A91E2E813F814885D6
:104C000059850E94682628EE33E040E050E00E947B
:104C10008726B901CA01611571058105910519F44D
:104C20002EEF3FEF16C02091DA0522FF03C02DEFD3
:104C30003FEF0FC024602093DA05ADECB5E0FE0134
:104C40002DE001900D922150E1F70E94091E20E015
:104C500030E0C901DF91CF910895ADE0B0E0E3E32A
:104C6000F6E20C94B926FC01009719F42FEF3FEF00
:104C70002AC0848195819093CC058093CB05808157
:104C80009181A281B3818F839887A987BA8781E0B8
:104C90008B871D861C86CE0101960E94F3252FEF7F
:104CA0008F3F920771F08D5F9F4F59F00E94C7238D
:104CB0008F5F9F4F19F020E030E005C02DEF3FEFF0
:104CC00002C02EEF3FEFC9012D96E2E00C94D526ED
:104CD000629FD001739FF001829FE00DF11D649FE0
:104CE000E00DF11D929FF00D839FF00D749FF00D6C
:104CF000659FF00D9927729FB00DE11DF91F639F0D
:104D0000B00DE11DF91FBD01CF0111240895A1E2ED
:104D10001A2EAA1BBB1BFD010DC0AA1FBB1FEE1F35
:104D2000FF1FA217B307E407F50720F0A21BB30B80
:104D3000E40BF50B661F771F881F991F1A9469F7FC
:104D400060957095809590959B01AC01BD01CF0158
:104D500008952F923F924F925F926F927F928F921F
:104D60009F92AF92BF92CF92DF92EF92FF920F93FA
:104D70001F93CF93DF93CDB7DEB7CA1BDB0B0FB604
:104D8000F894DEBF0FBECDBF09942A8839884888C1
:104D90005F846E847D848C849B84AA84B984C88457
:104DA000DF80EE80FD800C811B81AA81B981CE0F4E
:104DB000D11D0FB6F894DEBF0FBECDBFED01089533
:104DC000FB01DC0102C005900D9241505040D8F724
:104DD0000895FB01DC0101900D920020E1F7089598
:104DE0000F931F93DF93CF93CDB7DEB72E970FB6F8
:104DF000F894DEBF0FBECDBF0D891E8986E08C837F
:104E00001A8309838FEF9FE79E838D839E01275E20
:104E10003F4FCE0101966F89788DA9010E9421270D
:104E20002F813885020F131FF80110822E960FB6BE
:104E3000F894DEBF0FBECDBFCF91DF911F910F91D0
:104E400008952F923F924F925F926F927F928F922E
:104E50009F92AF92BF92CF92DF92EF92FF920F9309
:104E60001F93DF93CF93CDB7DEB72B970FB6F89490
:104E7000DEBF0FBECDBF3C012B015A01FC011782E2
:104E80001682838181FD03C06FEF7FEFC6C19AE078
:104E9000892E1E010894211C311CF3012381F2018B
:104EA00023FD859123FF81912F01882309F4B2C14D
:104EB000853239F423FD859123FF81912F018532BD
:104EC00029F490E0B3010E943D29E7CF982FFF24F9
:104ED000EE249924FFE1FF15D0F09B3269F09C325B
:104EE00028F4903259F0933291F40EC09D3249F07B
:104EF000903369F441E024C052E0F52A84E0F82AB6
:104F000028C098E0F92A25C0E0E1FE2A22C0F7FC7B
:104F100029C0892F80538A3070F4F6FE05C0989C12
:104F2000902C1124980E15C0E89CE02C1124E80E5A
:104F3000F0E2FF2A0EC09E3229F4F6FC6BC140E479
:104F4000F42A07C09C3619F450E8F52A02C09836B6
:104F500049F4F20123FD959123FF91912F019923AB
:104F600009F0B8CF892F8554833018F080528330F0
:104F700038F444E050E0A40EB51E5FE359830FC03F
:104F8000933631F0933779F0933509F056C020C04D
:104F9000F5018081898342E050E0A40EB51E6101D5
:104FA00001E010E012C0F501C080D180F6FC03C022
:104FB0006FEF7FEF02C0692D70E042E050E0A40E79
:104FC000B51EC6010E9432298C015FE7F52214C08C
:104FD000F501C080D180F6FC03C06FEF7FEF02C007
:104FE000692D70E042E050E0A40EB51EC6010E949B
:104FF00027298C0150E8F52AF3FE07C01AC080E289
:1050000090E0B3010E943D29EA948E2D90E00817AC
:105010001907A8F30EC0F601F7FC8591F7FE819100
:105020006F0190E0B3010E943D29E110EA94015024
:1050300010400115110579F7EAC0943611F0993640
:1050400069F5F7FE08C0F501208131814281538165
:1050500084E090E00AC0F501808191819C014427A1
:1050600037FD4095542F82E090E0A80EB91E9FE6D0
:10507000F92257FF09C050954095309521953F4F33
:105080004F4F5F4FE0E8FE2ACA01B901A1012AE0B3
:1050900030E00E946929D82ED21840C0953729F4F3
:1050A0001F2D1F7E2AE030E01DC01F2D197F9F3667
:1050B00061F0903720F4983509F0ACC00FC09037FC
:1050C00039F0983709F0A6C004C028E030E00AC0E3
:1050D000106114FD146020E130E004C014FD16607E
:1050E00020E132E017FF08C0F50160817181828103
:1050F000938144E050E008C0F50180819181BC01BA
:1051000080E090E042E050E0A40EB51EA1010E94B4
:105110006929D82ED2188FE7F82EF122F6FE0BC09F
:105120005EEFF522D91438F4F4FE07C0F2FC05C096
:105130008FEEF82202C01D2D01C0192DF4FE0DC006
:10514000FE01ED0DF11D8081803319F499EEF922F5
:1051500008C01F5FF2FE05C003C08F2D867809F0DE
:105160001F5F0F2DF3FC14C0F0FE0FC01E1510F0D2
:105170009D2C0BC09D2C9E0C911A1E2D06C080E20A
:1051800090E0B3010E943D291F5F1E15C0F304C0CB
:105190001E1510F4E11A01C0EE2404FF0FC080E3D5
:1051A00090E0B3010E943D2902FF1DC001FD03C034
:1051B00088E790E00EC088E590E00BC0802F8678ED
:1051C00091F001FF02C08BE201C080E2F7FC8DE2AA
:1051D00090E0B3010E943D2906C080E390E0B30156
:1051E0000E943D299A94D914C0F3DA94F101ED0D8F
:1051F000F11D808190E0B3010E943D29DD20A9F7D7
:1052000006C080E290E0B3010E943D29EA94EE20BE
:10521000C1F743CEF30166817781CB012B960FB6A0
:10522000F894DEBF0FBECDBFCF91DF911F910F91DC
:10523000FF90EF90DF90CF90BF90AF909F908F90B6
:105240007F906F905F904F903F902F900895FC015A
:105250000590615070400110D8F7809590958E0FA1
:105260009F1F0895FC016150704001900110D8F714
:10527000809590958E0F9F1F08950F931F93CF9346
:10528000DF938C01EB018B8181FF1BC082FF0DC07E
:105290002E813F818C819D812817390764F4E88134
:1052A000F9810193F983E88306C0E885F985802FA9
:1052B0000995892B31F48E819F8101969F838E837E
:1052C00002C00FEF1FEFC801DF91CF911F910F9127
:1052D0000895FA01AA27283051F1203181F1E8948C
:1052E0006F936E7F6E5F7F4F8F4F9F4FAF4FB1E0D9
:1052F0003ED0B4E03CD0670F781F891F9A1FA11DD4
:10530000680F791F8A1F911DA11D6A0F711D811DD4
:10531000911DA11D20D009F468943F912AE0269F99
:1053200011243019305D3193DEF6CF010895462FF8
:105330004770405D4193B3E00FD0C9F7F6CF462FD9
:105340004F70405D4A3318F0495D31FD4052419342
:1053500002D0A9F7EACFB4E0A695979587957795FF
:105360006795BA95C9F700976105710508959B0186
:10537000AC010A2E06945795479537952795BA950F
:10538000C9F7620F731F841F951FA01D0895F8941D
:02539000FFCF4D
:1053920046433D252D31326C75004645433D252D52
:1053A20031326C75004245433D252D31326C75001A
:1053B2004C51493D252D386400525353493D2D250A
:1053C20030326464426D282530326429000D0A00AF
:1053D20000010203040506070001020001020304A2
:1053E200050607000102030405060700000000008D
:1053F200000000000000C8001900060000000000C4
:10540200000000000000000000280300010000006E
:10541200000000320000000013030001010201023B
:1054220002030102020302030304B9085A08540AE0
:1054320092042C03000000000000FA000000002685
:105442000B7907B612000000000000000000000007
:1054520000000C00008107000000000000E80300CB
:045462000001FC0E3B
:00000001FF
