S02B0000416C6C5F5A69674269745F41746D656761313238315F52663231325F384D687A5F4763632F4578656A
S2840000000C94CC040C9404050C9404050C9404050C9404050C94C8330C9457CE0C9475350C9446350C9404050C9404050C9404050C9404050C94E5310C9404050C9442320C9404050C9404050C9404050C9404050C9404050C9404050C9404050C9404050C9404050C9489340C94E9340C94BB340C9404050C946F370C941E360C94040565
S2840000800C9404050C9404050C9404050C9404050C94FB330C945B340C942D340C94A4350C9404050C9404050C943A330C947FCE0C9404050C9404050C9404050C9404050C9404050C9404050C9404052F49AA487C497C497C49B048B54846497C49B848BB48C548CD487C49D048D348D6487C49DB48DE484649E348234938497C492649CF
S2840001002949AE482C492C4946494649464946494649464946494649464946494649464946494649464946494649194946497C497C497C497C497C497C497C497C497C497C497C497C497C497C4946493B493E49464912498B4A96498D4A8D4A8D4A9B49A3498D4A8D4AAB49B049CA49D2498D4AD749DF49E9498D4AF149F6498D4AFE49DD
S2840001801B4A2D4A8D4A204A284A8B4A8B4A8B4A374A374A374A374A374A374A374A374A374A374A374A374A374A374A374A374A374A114A374A8D4A8D4A8D4A8D4A8D4A8D4A8D4A8D4A8D4A8D4A8D4A8D4A8D4A8D4A374A324A8B4A374A0C4A664B964B964B964B6B4B804B754B7A4BA54B704B854B854B8A4B964B9C4BA04BC04CC34CCC
S284000200C64CC64CC94CD54CCF4CD24CE54CCC4CD84CDB4CDE4CE14C2F53E253FF53B3527B547B54F053FF53055453542C547B547B5453540C535654287C307CBC7B657C657C037C107C657C657C657C3A7C497CDC7BE87B657CB97B1B7C607F6D7F817F937F9A7FA77FB47FBF7FC77FE57F1080D17F9881988156815D815D816981698164
S2840002807A817A817A81FDB701B829B805B809B829B80DB829B81BB81FB826B820BF25BFE0BFF8BF0FC007C136C1D8C1D8C1D8C1D8C1D8C1D8C1D8C1D8C1D8C1B3C0C1C0D8C1DABEE3C0CBBF03C237C26DC259C24AC26DC285C2B6C2B6C2B6C2B6C2B6C2B6C2B6C2B6C2B6C259C26DC2B6C2F6C160C244C29FCA9DCA9DCACCCAD3CAE6CA56
S284000300EECAF1CAF4CAF7CAFACA01CC08CC17CC1FCC21CC23CC25CC28CC646464646464646464646464646463636363636363636363636363626262626262626161616161606060605F5F5F5E5E5D5D5D5C5C5B5B5A5959585757565554535251504F4E4D4B4A4947454442403E3C3A383634312F2C2A2928282727262625252524242437
S28400038023232323222222222121212120202020201F1F1F1F1F1E1E1E1E1E00000100020003000400050006000700080009000A000B000C000D000E000F00100012001400160018001A001C001E00200022002400260028002A002C002E003100350039003D004100450049004D005100550059005D006100650069006D0073007B0083C6
S284000400008B0093009B00A300AB00B300BB00C300CB00D300DB00E300EB00F7000701170127013701470157016701770187019701A701B701C701D701E701FF011F023F025F027F029F02BF02DF02FF021F033F035F037F039F03BF03DF030F044F048F04CF040F054F058F05CF050F064F068F06CF060F074F078F07CF072F08AF082F7E
S28400048009AF092F0AAF0A2F0BAF0B2F0CAF0C2F0DAF0D2F0EAF0E2F0FAF0FA9150400C4150C00F2150D00591515008116190079161A00D5151B00D6151C00D7151D00E1151E00C6152F00CC153100831632007C163400FB1535000F1636001816380087163900CB1541000E164200020B4300901094000000000000000000000000000018
S284000500000000000000000000000000000000000000000000000000000000000000000000000000000000000000000000000000000000000000000000000000000000000000000000000000000000000000000000000000000000000000000000010201000202050800000100DDDD000000000000000001010200000000000000000000A2
S284000580000000000000000000000000000000000000000000000000000000000000000500FF000002000000000300DDDD0103030000E803000010270000010001E803000004E80300000000000000000000000000000000000000AAAAAAAAAAAAAAAA0300A00FFFFFFFFFFFFFFFFF60EA0000E093040000840000000303030201050204D8
S284000600020404040302050E050101000000001410A9150800B3150100C0150400C41501008016010087160800831602000F160200181601007C16010081160100C8150100C9150100CA150100CB150100C6150200CC1501007E1601007D1601008315010085150100F215080059150400D8150400CD150400D1150400D5150100D61501D7
S28400068000D7150100E115110079160100DC150100DD150400FA15010086150200FB150100C51501000A1604000E160100FC150200FE1508000616040000000000F4050200F8050100F6050200FA050100FB050100FC050100FD050100FE050100FF0501000006010001060100F905010002060100030601000F0602000406010005060105
S28400070000060601000B0604000706010008060100090601000A0601003C0A0000020B0000C00A0000530B000000000000620B00001F10000077100000360E0000960E0000520E0000B70E0000CB0E0000D90F0000000000000000000090100000C4110000C1140000CF14000005C311102617123C1714831816BB1663EF16656725673A60
S2840007801E68741D6BA71276981373B2127DD313868F156ED014758B148EA9149013147CEE135C440C5EA80CA0850EA7EB0CA9BB0CC0AA20E4D220EA8320EC0F25EEF224FCFC25FE2E26C24F20C42B20C60C20C8EA1FCACB1FCEAC1FD08D1FD4631FDE411FE81C1F18F01E20CC1EA37D0FA5E30ECC8121D88D1EDA501E40461C428F1A44EE
S2840008008F1A54AD191A9725EA2C3F2C432CE62C472C4B2C4346AA40000000000000000000000000C68530888B90BF8466827484C380A977CC6632803771D36DCE6A7666F4650E66000000000000000000000000020203020102010101010101010202010101020202020202020202020202020303020203025773248101087B75766701A1
S284000880017B75766701010F73E48101019972596E010199722E6E01085072A5850101F771DA8D01010000000001080000000001010000000001030000D15F01040000000001050000000001060000000001010000000001017B750000000100000000010000000000010800000000010A0000000001000000000001010000000001010097
S284000900000000000000004D68000800004D68000C00004D68000000004D68000A5D3362DE5DB65DD65D0000125D225DCE5D1A5DFD61E95C855F8D5FF55F7D5FE65D00003D635A83DB76DB90218E0000A6925087896F00000000ADAEB29B55A00A090807060504032546ACABAACAEAE9E8E6E5E40D0C0B0A09082A292848ADACABEBEAE973
S284000980E80D0C0B0A09080706050425242322428584838281A1E100112480911E1E823141F084B78F7180931E1E80FF05C081E001C081E180931E1E14BE809160008861809360001092600011241FBECFEFD1E2DEBFCDBF14E0A0E0B2E0E0ECF5EA01E00BBF02C007900D92AA3BB107D9F71EE1AAEBB4E001C01D92AE31B107E1F70E9416
S284000A004C950E940F95FDCF0C9400007F937FB7F8949D9AA5988AEF0E9465058AEF0E9465059D9886E40E94650581E0959980E08F9380EF0E9465058F917FBF7F9108957F937FB7F8949D9AA59886E00E9465059D988AE00E946505889495990894881F8F9384E60E9465058F917FBF7F9108959F937F9398E00E942005879577959A95DB
S284000A809923C9F7872F7F919F9108957F937FB7F894A5989D9A8F9386E00E9465058F91879508F49D988F9384E60E9465058F919D987FBF7F9108959F9398E00E9446059A959923D9F79F91089500000000000000008A958823C9F708955F937F937FB7F894CF93DF93C0E0D0E07F935091B2007091B2007517E1F3739521965091B20087
S284000B005717D9F77F91CE01DF91CF917FBF7F915F910895EF92FF920F93DF93CF93CDB7DEB760970FB6F894DEBF0FBECDBFA82F002309F461C07E010894E11CF11C88E0F70111928A95E9F729833A834B835C836D837E83AF83988780E2801BE82FFF27E7FDF0954D815E816F817885181684F01D861E861F86188A882799278E1B9F0B03
S284000B8004C076956795579547958A95D2F728C0202F332727FD3095DB01CA01022E04C0B695A795979587950A94D2F78D879E87AF87B88B04C0440F551F661F771FEA95D2F789819A81AB81BC8104C0B695A795979587952A95D2F7482B592B6A2B7B2B49875A876B877C8729853A854B855C856D857E85AF8598898A2F60960FB6F894A1
S284000C00DEBF0FBECDBFCF91DF910F91FF90EF900895EF92FF920F93DF93CF93CDB7DEB760970FB6F894DEBF0FBECDBFA82F002309F461C07E010894E11CF11C88E0F70111928A95E9F729833A834B835C836D837E83AF83988780E2801BE82FFF27E7FDF09549815A816B817C81181684F019861A861B861C86882799278E1B9F0B04C00D
S284000C80440F551F661F771F8A95D2F728C0202F332727FD3095DB01CA01022E04C0880F991FAA1FBB1F0A94D2F789879A87AB87BC8704C07695679557954795EA95D2F78D819E81AF81B88504C0880F991FAA1FBB1F2A95D2F7482B592B6A2B7B2B4D875E876F87788B29853A854B855C856D857E85AF8598898A2F60960FB6F894DEBF75
S284000D000FBECDBFCF91DF910F91FF90EF900895089502C00E9449950E94842F8823D1F708950F931F93CF93DF938C01EB010E948906C801BE010E94222F8F5F9F4F11F481E006C0C858D64011F40E94890680E0DF91CF911F910F9108950F931F93CF93DF938C01EB010E948906C801BE010E94BE2F8F5F9F4F11F481E006C0C858D640B1
S284000D8011F40E94890680E0DF91CF911F910F910895A8E0B0E0EFECF6E00C94F1D17B01082F10E0B801660F771F660F771F65567B4FCE01019644E050E00E948DD289819A81F701938382832B813C81318320838091000290E001970817190739F48091010290910202821B930B14C0000F111F000F111F01561B4FCE010596B80144E071
S284000E0050E00E948DD28F8198852B813C81821B930BF701958384832896E6E00C940DD2A6E0B0E0E6E1F7E00C94F1D10091000210E07E010894E11CF11C0CC0812FB7010E94C906C70168E876E00E949106882321F41F5F101790F380E02696E6E00C940DD2A4E0B0E0E7E3F7E00C94F5D19093340A8093330A662359F485E2BE016F5F68
S284000E807F4F0E94250C89819A81AB81BC8104C082E390E0A0E0B0E080932E0A90932F0AA093300AB093310A81E08093320A88E29AE00E946B292496E2E00C9411D285E697E060E00E9431070895ADE0B0E0EBE6F7E00C94E9D181E08093BA047090000252E0852E912C8C0E9D1E46E0642E38E0E32EF12CEC0EFD1E5E010894A11CB11C3F
S284000F0021E0C22ED12C33C0B4010E94C906F701862D11928A95E9F7BB86AA86DD86CC8600E010E01EC08A819B81800F911F99878887C70168E876E00E949106AA85BB85EC81FD81E00FF11F9C918081981739F0CE01029665E677E00E94AD0623C00F5F1F4F8E819F8108171907E8F215C08091BB04871548F21092BB040E940E098130FE
S284000F8031F485E697E061E00E9431070BC00E945F071092BA0406C08091BB048F5F8093BB04E5CF2D96EEE00C9405D202C00E9449958091BA048130D1F388E29AE00E9446290895A6E0B0E0E8EEF7E00C94F1D10E94670B0091000210E07E010894E11CF11C0CC0812FB7010E94C906C70168E876E00E94AD06882349F41F5F101790F314
S2840010000E941A08882311F40E940E092696E6E00C940DD20E94ED08882339F40E941007813039F00E945F070895813011F00E945F070895EF92FF921F93DF93CF93CDB7DEB727970FB6F894DEBF0FBECDBF8FEF8983CE0101969D838C8380910102909102029B838A8381E090E09F838E8310E082E0E82EF12CEC0EFD1EC70168E876E0FA
S2840010800E94AD06882351F42A813B811F5F1A3029F02F5F3F4F3B832A83EFCF27960FB6F894DEBF0FBECDBFCF91DF911F91FF90EF900895A6E0B0E0E0E6F8E00C94EBD18C010097E9F1E0900102F0900202FA82E98281E090E09E838D8348019AE0C92ED12CCE0CDF1C5E010894A11CB11C1FC08B829C820E948906C50160E070E00E94B8
S284001100222F8F5F9F4F21F481E0F801838318C00E948906F801808129813A818F3F19F0328321830CC02F5F3F4F3A83298389819A818C159D05E0F2F801F282E18213822696ECE00C9407D2A7E0B0E0EAEAF8E00C94EDD18C010097E1F11982FC01108284E090E09B838A8381E090E09F838E83E0900102F09002025E010894A11CB11C7F
S28400118022E0C22ED12CCC0EDD1E1CC0BD82AC820E948906C60160E070E00E94222F8F5F9F4F21F481E0F801838313C00E948906F80180819981890F80838A819B8101969B838A838A819B818E159F05F8F2F80113822796EAE00C9409D2A8E0B0E0E3EFF8E00C94F5D1CE0105960E94A4088885813079F0CE0101960E945A088C8181305E
S28400120041F089819D81890F11F082E003C080E001C081E02896E2E00C9411D2AFE0B0E0E4E1F9E00C94F5D18FEF8983CE0102960E945A088D818130E9F1CE0106960E94A40889858130B1F19E818A81890F99F191959E838B819C819B878A87CE0101969D878C8781E090E09F878E87CE010A9668E876E00E94AD068823E9F48A859B8549
S28400128001969B878A8740910102509102029A01265F3F4F8217930710F05B874A87CE0106969D878C87CE010A9668E876E00E94AD0601C081E02F96E2E00C9411D28091BD0482FF12C08091BD048B7F8093BD048091BD0480618093BD04E091BE04F091BF04309711F081E009958091BD0484FF29C0669B16C08091BD048F7E8093BD0438
S2840013008091BD048E7F8093BD04E091C004F091C104309711F081E0099586E00E949D2D11C08091D80481608093D8042FB7F8948091F7099091F80991609093F8098093F7092FBF8091BD0483FF12C08091BD04877F8093BD048091BD0480628093BD04E091BE04F091BF04309711F082E009958091BD0485FF29C0679B16C08091BD04D6
S2840013808F7D8093BD048091BD048D7F8093BD04E091C004F091C104309711F082E0099587E00E949D2D08958091D80481608093D8042FB7F8948091F7099091F80991609093F8098093F7092FBF08951F93182F8091C204882351F46B9A0E940529882311F0739801C0739A579A5F9A81E090E002C0880F991F1A95E2F72091C204282B56
S2840014002093C2041F910895813049F0813018F0823031F402C02D9A08952F9A08952E9A0895813049F0813018F0823031F402C02D9808952F9808952E980895259A269A279A84E00E94E60980E008956091C40470E080E090E026EA3EE040E050E00E9490D1DC01CB01892F9A2FAB2FBB2721E02093C304E091C504F091C6040995089524
S2840014800E94E62D1092D2046091350A7091360AE0913A0AF0913B0A8091390A09950895A9E0B0E0E6E5FAE00C94F1D10E94E62D8091D304843049F0853009F47AC0833009F077C01092D30477C01A821B821C821D821E821F821886198681E08093D3046091D4048091D504862387FF65C070E06F777070660F771F65567C4FCE010296C2
S28400150042E050E00E948DD26091D50470E06F777070660F771F65567C4FCE01069642E050E00E948DD22A813B814C815D81211531054105510509F43FC06E817F81888599856217730784079507B0F5E7E0660F771F881F991FEA95D1F70E94C3D130E0265E3C4FCE010196B90141E050E00E948DD2698170E080E090E02A813B814C8178
S2840015805D81EE80FF80088519852E193F09400B510B0E9490D1672F782F892F992787E06733780720F091E066E377E008C091E006C081E08093D30490E060E070E080E0911181E0E091D604F091D70409952996E6E00C940DD28091D80480FF07C08091D8048E7F8093D8040E945F098091D80481FF07C08091D8048D7F8093D8040E9487
S284001600400A8091D80482FF07C08091D8048B7F8093D8040E94500A8091D80483FF07C08091D804877F8093D8040E94260A8091D804882361F02FB7F8948091F7099091F80991609093F8098093F7092FBF0895E8E8F5E188E3DF011D928A95E9F7B1961092A915118212821382148215821682178285E08093B3158FE096E163EF74E0AD
S28400168042E850E00E948DD289E595E165E775E04FE250E00E948DD288E595E164EA75E041E050E00E948DD280EC95E165EA75E04FE450E00E948DD28CE19BE0ECE3FAE0DF019C011D9221503040E1F708951092A9151092AA151092AB151092AC151092AD151092AE151092AF151092B01523E02093C415E2EFF5E18AEA8093F2158183EA
S28400170082838383848385838683878382E090E0A0E0B0E08093591590935A15A0935B15B0935C151092811681E0809379168093D5151092D6158093D7158DED9DED9093C7158093C6151092CC1581E090E0909384168093831610927C161092FB158FEF9FEF9093101680930F161092181610928716109288161092891610928A16109291
S2840017808B1610928C1610928D1610928E161092CB1510920E1688E0809380162093C9152093CA151092C515E2E0FBE0DF011D922A95E9F78EE0E0E9F0E1DF011D928A95E9F70895A4E0B0E0E8EEFBE00C94F5D1682F70E0660F771F660F771F6F5E794FCE01019644E050E00E948DD269817A818B819C812496E2E00C9411D2CF93DF9325
S284001800EB010E94E20B009719F4CB0168839983DF91CF910895CF93DF93EB016115710589F08B3278F406C0CB01BE01422F0E94A3D208C00E94E20B592F282F392F2115310591F7DF91CF9108951F93CF93DF93182FEB016115710571F00E94E20B9B01AC011B3228F0CE01B9010E948DD203C0CE010E94A3D2DF91CF911F9108950E94A9
S284001880280B0E940A080895CF93DF93EC010E946912FC01009751F08AE59CE09587848712868F818387CF010E94943C1A82DF91CF910895CF93DF93EC01E0917904F0917A040995DC010097B1F083E090E014969C938E9313978DE590E016969C938E931597888117968C931797E091AF16F091B016CD010995CE010E948B12DF91CF91F1
S2840019000895CF93DF93EC01E0917904F0917A040995DC010097B1F083E090E014969C938E9313978FE590E016969C938E931597888117968C931797E091AF16F091B016CD010995CE010E948B12DF91CF910895CF93DF93EC010E946912FC01009739F081E89CE094838383CF010E948D3C1A82DF91CF910895CF93DF93EC01E0917904EA
S284001980F0917A040995DC018AEA90E016969C938E93159784E090E014969C938E9313978F8118968C93189717961C9217978F81863C21F489858093581504C08AEA17968C931797E091AF16F091B016CD010995DF91CF9108950F931F938C01E0917904F0917A040995DC0188EA90E016969C938E93159785E090E014969C938E93139706
S284001A00F801878118968C93189717961C9217978781863C79F413968D919C911497019614969C938E931397809158151A968C931A9704C08AEA17968C931797E091AF16F091B016CD0109951F910F910895EF92FF920F931F93CF93DF938C0185EEE82E8FEFF82EE00EF11EE0917904F0917A040995DC0181EA90E016969C938E93159768
S284001A80F701828117968C931797ED01289682818230A1F0833021F59E01A8014651504088E0FA010190AF01F90101929F018150C1F7F70185858887299612C008511040F80180819181085E1F4F19969C938E931897F70185851A968C931A97ED012B96F7018289FE0181939F01F801808189832A1B3B0B2450304014963C932E931397CF
S284001B00E091AF16F091B016CD010995F701858996890E948B12C8010E948B12CDB7DEB7E6E00C940DD2A8E0B0E0E9E9FDE00C94EED17C01B62EE0917904F0917A0409956C018091D9048F5F8093D90482EA90E0D60116969C938E931597F701828117968C93179718968281823049F483819481D60119969C938E9318971A9610C0833021
S284001B8071F49D01A7014B5F5F4F88E0FA010190AF01F90101929F018150C1F71896F7018585FD0181939F01F701868511968C93119787859089F90192838183FD013496D7011E968C91833071F49F01A7014F5E5F4F88E0DA010D90AD01D9010D929D018150C1F716C08FEF89838A838B838C838D838E838F8388879F01AE014F5F5F4FA7
S284001C0088E0DA010D90AD01D9010D929D018150C1F7D7015B968C915B9780875C968D919C915D97928781875E968D919C915F979487838790968D919C919197968785878F01015F1F4F92966C91929793967C91939790964D915C919197C8010E94A3D2F70120A131A1200F311FF9011192D70195968C91D90111968C93EC19FD093497A2
S284001C80D6011496FC93EE931397E091AF16F091B016C6010995F701868D978D83309105E9F08430910530F48130910569F0029741F50FC08D319105D9F0F0E180309F07E1F04C97F1F40FC0C7016B2D0E94A31018C0C7016B2D0E94981013C0C7016B2D0E9413110EC0C7016B2D0E942E1109C0C7016B2D0E94631104C0C7016B2D0E94D5
S284001D003B142896E9E00C940AD2EF92FF920F931F93CF93DF938C010E946912EC0180E2FE0111928A95E9F70E9469129C0187E29DE09A8F898FF80187818A83A801485F5F4F833059F4DE011596FA0188E001900D928150E1F7FA01389606C0F801808591859C838B833A9680818D87818192819F878E8783819481998B888B85818A8B15
S284001D80468157814B8B5C8B98E0E92EF12CEE0EFF1E8901005E1F4FC801B7010E94A3D21E8B0D8BEB89FC89EE0DFF1D80818F708F8B8181888FCE010E94C93CCDB7DEB7E6E00C940DD2A0E0B0E0E9EEFEE00C94EFD18C010E946912EC01E0917904F0917A0409956C0127E0E22EF12CE80EF91EF8013796D80117968C9188838181898300
S284001E0082818A8383818B8384818C8385818D8386818E8387818F8380858887818592859A87898783858B87833099F484858C8785858D8786858E8787858F878089888B8189898B82898A8B83898B8B84898C8B04C0848595859D878C87CE010E94163E8D89F701808388818183898182838A8183838B8184838C8185838D8186838E8198
S284001E8087838F81808789859A85938782878B8584878B85833099F48C8585878D8586878E8587878F85808B8889818B8989828B8A89838B8B89848B8C89858B07C08C859D85D7011E969C938E931D9786EA90E0F6019683858388E190E094838383E091AF16F091B016C6010995CE010E948B12CDB7DEB7E8E00C940BD2A0E0B0E0E3E83F
S284001F00FFE00C94EFD18C010E946912EC01E0917904F0917A0409956C0137E0E32EF12CE80EF91EF8013796D80117968C9188838181898382818A8383818B8384818C8385818D8386818E8387818F8380858887818592859A87898783858B87833099F484858C8785858D8786858E8787858F878089888B8189898B82898A8B83898B8B88
S284001F8084898C8B04C0848595859D878C87CE010E94B7468D89F70180838885818788818183898182838A8183838B8184838C8185838D8186838E8187838F81808789859A85938782878B8584878B85833099F48C8585878D8586878E8587878F85808B8889818B8989828B8A89838B8B89848B8C89858B07C08C859D85D7011E969C93D9
S2840020008E931D9784EA90E0F6019683858388E190E094838383E091AF16F091B016C6010995CE010E948B12CDB7DEB7E8E00C940BD2FC01608381E09FE7928381838FEF9FEF94838383158288E086838BE192E09087878389E081878BE292E0938782870895089508950F931F93CF93DF93182F092FE0917904F0917A040995FC0188E655
S28400208090E0968385831282EF012796212F302FC901DC018AE20D9009928150E1F7CF010E942416DF91CF911F910F910895E0917904F0917A040995FC0187E690E0968385831282CF010E94241608958AED94E061E00E94191086EE94E060EF0E94191082EF94E06FEE0E94191083E092E00E949B3C8BE092E00E949B3C83E192E00E9478
S2840021009B3C0E94BC2D813131F41092911680E090E00E94A41608956FEE0E94930D089560EF0E94930D089561E00E94930D08951092FF041092FE048FEF9FEF90930105809300050895FC0120A131A12430310500F102A0F3A1E02D41815281808190E02150304082179307A1F480910005909101058417950769F08091FE049091FF0451
S28400218001969093FF048093FE0450930105409300050895A0E0B0E0E0EDF0E10C94EFD18C017B01C42ED22E0E946912EC010E9469129E8B8D8BF80186858A83833089F481898D8382898E8383898F83848988878589898786898A8787898B87808D8C8705C0F801878590899C838B83F801838D8D8781E09FE79F878E87F98AE88ADA8A60
S284002200CB8A1C8A8D899E8980969E8B8D8B1F8A188E88E991E19A8F898FCE01CDB7DEB7E8E00C940BD2FC01262F80A191A1892BA1F4CF0164E070E042E00E94CA10DC015596ED91FC9156978091FE049091FF0491838083CD010E94C93C08950F931F93CF93DF93FC01262F80A191A1892B31F102A113A1D8014C914E5FCF0164E570E054
S2840022800E94CA10EC01AD89BE8911961C921197F80180818C938B899C898036910558F490E005C0FD01E90FF11D92839F5FF80180819817B8F3CE010E94C93CDF91CF911F910F9108950F931F93CF93DF93FC01262F80A191A1019731F502A113A1D8014C914E5FCF0165E570E00E94CA10EC01AD89BE8911961C921197F80180818C938E
S2840023008B899C898036910558F490E005C0FD01E90FF11D92839F5FF80180819817B8F3CE010E94C93CDF91CF911F910F910895CF93DF93FC01EC016B974D899E8980818823C1F0E42FF92F288939892435310519F02535310571F48181882359F481E08183108282E090E09C8B8B8BCE010E94C93C06C0842F0E948B12CE010E948B1223
S284002380DF91CF910895EF92FF920F931F93CF93DF938C010E946912EC0187E0E82EF12CE00EF11EF80187818887F70121812987828193819B878A87223029F4848195819D878C8713C0233089F4F70186818C8787818D8780858E8781858F878285888B8385898B84858A8B85858B8BF7018685888F87858F8B80898C8B0E9469128D8B8E
S2840024009E8BF701408997012F5E3F4FB90150E00E94A3D286E192E19A8F898FCE010E94224CCDB7DEB7E6E00C940DD2EF92FF920F931F937C018C010B511040E0917904F0917A040995FC0186E090E096838583D80157968C918087D70111968C91878384E090E0948383832091AF163091B016CF01F9010995C8010E948B12F8018589D1
S28400248096890E948B121F910F91FF90EF900895809102058823D1F40E941E0A80E00E94110A81E00E94110A82E00E94040A81E0809302050E94B92680E064E276E10E9424270E9466100E94701908950E943616089580910305882319F440E050E009C08091D005882319F020E030E012C041E050E08DEC90E0489F9001499F300D589F5A
S284002500300D1124F901ED5FFA4F81E080832A5F3A4FC901089525E083309207B9F0B0F0835095406DEC70E00E94AFD1623070F4262F30E08DEC90E0289FF001299FF00D389FF00D1124ED5FFA4F10820895FC012781308560E08185811161E0C9010E94ED7708950E946912FC01009739F08FEB92E197878687CF010E94BD6808950F9335
S2840025801F938C01E0917904F0917A040995FC0183E090E09483838384E790E096838583D8018C9187832091AF163091B016CF01F9010995C8010E948B121F910F9108950F931F93CF93DF938C01E0917904F0917A040995DC01FC0137968EE090E014969C938E93139787E790E016969C938E931597E801888117968C93179789819A8149
S284002600928381838B8183838C8184838D8185838E8186838F81878388858087898581878A8582878B858387E091AF16F091B016CD010995C8010E948B12DF91CF911F910F910895CF93DF93EC01E0917904F0917A040995DC010097B1F083E090E014969C938E9313978EE790E016969C938E931597888117968C931797E091AF16F09125
S284002680B016CD010995CE010E948B12DF91CF910895CF93DF93EC01E0917904F0917A040995DC010097E9F0FC01379686E090E014969C938E93139781E990E016969C938E931597888117968C93179789818183898182831382E091AF16F091B016CD010995CE010E948B12DF91CF9108950F931F938C01E0917904F0917A040995FC01C7
S28400270083E090E0948383838AE890E096838583D8018C9187832091AF163091B016CF01F9010995C8010E948B121F910F9108950F931F93CF93DF938C010E946912EC01009761F1F801379680EE92E19A8B898BD80117968C918A8381818B8382818C8383818D8384818E8385818F83868188878781898780858A8781859285A385B485A9
S2840027808B879C87AD87BE8785858F8790E08685811191E0988BCE010E942769DF91CF911F910F9108950F931F93CF93DF938C010E946912EC01009761F00E94716FF80180858B8382E293E19D838C83CE010E94E768DF91CF911F910F910895EF92FF920F931F937C01E0917904F0917A0409958C0183E090E0F8019483838381E890E031
S28400280096838583F70187810E946D61F8018783E091AF16F091B016C80109951F910F91FF90EF900895CF93DF93EC010E946912DC010097E9F0FE0137968F8112968C9312978181928114969C938E931397838115968C931597848116968C93169789E493E118969C938E931797CD010E94CD68DF91CF9108950F931F93CF93DF93FC01F5
S284002880262F80A191A1049719F5C2A1D3A188818823F1F0CF0161E070E141E00E94CA108C010E946912FC0133971283018333968DE694E1908787838881828389819A81948383838B8185831682CF010E94CD68DF91CF911F910F9108950F931F93CF93DF938C010C501040E801A981BA81045F1F4F5596ED91FC915697E8018881808303
S284002900CD010E94C93CC8010E948B12DF91CF911F910F910895EF92FF920F931F937C010E9469128C01B701695F7F4F84E10E940B0CF7018781F801828387E793E194838383C8010E94F7681F910F91FF90EF900895EF92FF920F931F937C01E0917904F0917A0409958C0184E090E0F801948383838FE890E096838583F701878190855B
S2840029800E94DC60F80190878783E091AF16F091B016C80109951F910F91FF90EF900895A8E0B0E0E6EDF4E10C94EBD14C0187E0E82EF12CE80CF91CE0917904F0917A0409956C018C01095F1F4F8CE090E0D60114969C938E9313978FE690E016969C938E931597F401A780B084FFEFAF16FFEFBF0609F052C0D70112968C91129789839D
S284002A0013968C9113978A8314968C9114978B8315968C9115978C8316968C9116978D8317968C9117978E8318968C9118978F8319968C918887CE0101960E94908EFC01009731F080819181F8019183808303C0D801AD92BC92F7018281D80112968C931297838113968C931397848114968C931497858115968C931597868116968C93B3
S284002A801697878117968C931797808518968C931897818519968C9338C0C5010E945574FC01009709F18081D80112968C931297818113968C931397828114968C931497838115968C931597848116968C931697858117968C931797868118968C931897878119968C9309C0F80112821382148215821682178210861186D40117968D917B
S284002B009C911897F80191838083E091AF16F091B016C60109952896ECE00C9407D20F931F93CF93DF938C010E946912FC019801295F3F4FD80117968C91818FE90189819A81AB81BC81828F938FA48FB58F8BEB95E1978F868FCF01869694A383A386E082A38D8185A3CF010E945769DF91CF911F910F9108950F931F93CF93DF938C0157
S284002B80E0917904F0917A040995EC01009769F184E090E09C838B83F801818190E024E0880F991F2A95E1F704969C838B8387E890E09E838D8380818F8381818887AE01475F5F4F218130E094E0220F331F9A95E1F763817481CA01A9010E94A3D2E091AF16F091B016CE010995C8010E948B12DF91CF911F910F910895AEE0B0E0E3E06E
S284002C00F6E10C94F5D1FC018EE0DF011D928A95E9F789E190E09183808382818460828386E086838DE392E090878783CF012E96E2E00C9411D20E94121A08950E94121A08950E94121A0895BC018FE996E00E949B932FB7F8948091F7099091F80994609093F8098093F7092FBF0895CF92DF92EF92FF921F93CF93DF938FE0C82ED12C0E
S284002C8053C08FE996E00E94B393F701858180939116F0929E06E0929D0681E00E94110AC9E6D7E081EA96E0BE0143E050E00E948DD29091A10680919116981749F4E091A206F091A306C70109951092A10605C02396F8E0C830DF0729F78091A1068823E9F082E00E94110A10919116E0917904F0917A040995FC01D682C58283E090E02C
S284002D009483838317832091AF163091B016CF01F901099510929E0610929D06E0917B04F0917C04C7010995E0909F06F090A006E114F10409F0A5CFDF91CF911F91FF90EF90DF90CF900895E0917904F0917A040995FC0183E090E09483838381E190E09683858317822091AF163091B016CF01F901099508950E946912FC0186EC96E1BC
S284002D80938B828BCF010E9442AA08950F931F938C01E0917904F0917A040995FC0185E090E09483838387E190E096838583D8011F968C911F97878311968D919C911297918780872091AF163091B016CF01F9010995C8010E948B121F910F910895A1E0B0E0E5EFF6E10C94EFD18C01E0917904F0917A0409957C0187E0C82ED12CCE0CF0
S284002E00DF1CF80187818983833010F021E007C08EE1BE016F5F7F4F0E940B0C20E084E090E0F7019483838384E690E0968385838981F60180832183E091AF16F091B016C70109952196E8E00C940BD20F931F938C0180E00E94040AF8018781882321F40E94D6070E94E207E091B116F091B21609950E94BF2DFFCF8F929F92AF92BF92C1
S284002E80CF92DF92EF92FF921F93DF93CF93CDB7DEB72D970FB6F894DEBF0FBECDBF6C01FC01138187E090E0C80ED91EE0917904F0917A0409955C0127E0822E912C880E991E96E0E92EF12CEC0EFD1EF601418189EF9FEFC80ED91E9601275F3F4FC701B90150E00E94A3D2F60187818C3A09F478C08D3A58F58E3809F4AAC08F3890F4AF
S284002F00823009F48BC0833038F4882309F4A6C0813009F042C0A6C0823509F484C08F36E1F586C08A3909F48FC08B3930F4863909F49CC0873989F559C0883A09F49EC08B3A09F45DC08B3941F577C0873F09F49DC0883F80F4883C09F45BC0893C28F4833CE9F0843CC9F437C0893C09F44DC08D3D99F424C08C3F09F490C08D3F30F4B1
S284002F80883F09F487C08B3F41F435C08E3F09F479C08F3F08F08BC085C022E08DC0183009F089C08E819F81A885B9858A839B83AC83BD8386E1BE016E5F7F4F09C0153009F079C08E8189838AE0BE016F5F7F4F0E940B0C20E070C01C3009F06CC085E164C0153009F067C081E15FC0153009F062C082E15AC0153009F05DC084E155C00A
S284003000183009F058C087E150C0183009F053C0E1CF183009F04FC088E147C0153009F04AC083E042C0153009F045C08AE13DC01C3009F040C080E038C01530E1F58BE0BE016A5F7F4FC4CF1C30A9F585E02DC0153089F58E810E94835DBCCF153059F58EE023C0163039F58FE01FC0163019F58E819F8160E00E94ED77ACCF1530D9F43B
S28400308089E013C01530B9F481E20FC0153099F484E00BC0153079F480E107C0153059F486E203C0183039F485E2B70191CF8E81809355028FCF21E084E090E0F5019483838383E190E096838583F4012083F6018781F4018183E091AF16F091B016C50109952D960FB6F894DEBF0FBECDBFCF91DF911F91FF90EF90DF90CF90BF90AF90C6
S2840031009F908F900895A4E1B0E0E9E8F8E10C94EBD14C01E0917904F0917A0409956C0137E0A32EB12CA80EB91EF40187818B3A09F46CC08C3A28F5863909F483C0873980F4823509F46FC0833520F4823009F099C067C08F3609F468C0803809F092C073C08A3909F465C08B3920F4873909F089C048C08B3909F45AC08A3A09F082C011
S28400318022C0893C09F448C08A3C70F4833CF1F0843C20F48C3A09F075C032C0843C71F1883C09F06FC03BC08A3F09F45EC08B3F20F48D3D09F066C018C08B3F29F18E3F09F060C04AC010E005E05EC086E1BE016B5F7F4F0E94250C8D819E81AF81B88589879A87AB87BC8748C08AE0BE016B5F7F4F0E94250C8D818D8735C085E11AC083
S28400320081E12CC082E12AC084E128C087E1BE01635F7F4F0E94250C10E009E035C088E1F6CF83E01BC08AE119C080E003C08BE015C085E0BE01635F7F4F0E94250C10E00DE022C086E001C08FE0BE01635F7F4F0E94250C10E007E017C081E2BE01635F7F4F0E94250C10E00EC080E491E0A0E0B0E089839A83AB83BC838D879E87AF871D
S284003280B88BCACF12E006E0E02EFF2495012D5F3F4FF7013597AE01435F5F4FC901BA01AF010E94A3D2F601F482E38285E190E096838583F5011083F4018781F501818305500283E091AF16F091B016C601099510929E0610929D066496ECE00C9407D208950F931F938C01E0917904F0917A040995FC01D8018C91878385E490E096835E
S284003300858383E090E0948383832091AF163091B016CF01F90109951F910F9108950F931F938C01E0917904F0917A040995FC01D8018C91878384E990E09683858383E090E0948383832091AF163091B016CF01F90109951F910F910895A1E0B0E0E3EBF9E10C94EBD17C018C01095F1F4FE0917904F0917A0409954C01F801C480CC205F
S28400338049F597E0C92ED12CC80CD91C8CE0A82EB12CA80CB91C6181728125813681F7018781F80143818E010F5F1F4F75010E94129AF4018783F60111828981848325E530E0F40136832583B5010E94289E0896F4011CC0F1E0CF16D9F4F8016181728125813681F7018781F80143810781EFE0F0E0EE0EFF1E0E94EA99F4018783C086E4
S28400340085E590E09683858384E090E094838383E091AF16F091B016C40109952196ECE00C9407D2A0E0B0E0E8E1FAE10C94EED18C01B62E6A01E0917904F0917A0409957C01FC013796D8011E968D919C911F97918B808BD6018E916D010894C11CD11C838BD8018C91D70117968C93D80111968D919C9112979283818313968C9113979A
S284003480838314968C911497848315968C911597858316968C911697868317968C911797878318968C911897808719968C91199781871A968C911A9782871B968D919C911C97948783871D968C911D9785871E968D919C911F979787868750968C91828BCB2DD0E09701255E3F4FC901B6014B2D50E00E94A3D286E490E0F7019683858367
S2840035006696D483C383E091AF16F091B016C701099580E0CDB7DEB7E9E00C940AD2CF93DF93FC01EC012796A381B48157978B8980938B088781809377088781823039F489819A8190937908809378081AC08330C1F48B8180937A088C8180937B088D8180937C088E8180937D088F8180937E08888580937F088985809380088A858093C6
S28400358081088F85988990938608809385088A898170809387088E85809384088B859C8590938308809382088D8580938A08A0938C0824EA37E030938F0820938E08898980938D08AE014B5E5F4FC901BA01AD010E94A3D28A892FE839E181FF0FC081E39BE1909374088093730830937608209375088CE698E00E94AA9C0EC081E799E100
S284003600909374088093730830937608209375088CE698E00E949A9CDF91CF910895A6E0B0E0E5E1FBE10C94F1D189836A835C834B8300E010E07E010894E11CF11C0F5F1F4F1E821D82C7010E948A9F8823B9F38D3F11F000E010E0C8012696E6E00C940DD2A2E0B0E0E7E3FBE10C94EDD17C01E0917904F0917A0409958C0137E0A32EC4
S284003680B12CA80EB91ED7015C968C915C9789838C91F80187832AE0C22ED12CC00ED11E11964C91119712966C91129713967C91C60150E00E94A3D28981882311F481E003C0823019F484E0898341C0863011F487E0FACF883011F489E0F6CF8C30B9F58DE08983D7018C91F50180838981D80118968C93D7011296ED91FC9113978081C8
S284003700F801818711966C911197615012964D915C9113974F5F5F4F89810E940F1B8A83D6018C93A801455F5F4FD7011196EC911197F0E0319712962D913C9113972F5F3F4FCA01B901AF010E94A3D20EC0F70142815381898161810E940F1BD50112968C931297898111968C9383E490E0F80196838583D70111968C9190E0059694839E
S2840037808383E091AF16F091B016C80109952296EAE00C9409D2A0E0B0E0E1EDFBE10C94ECD17C01962EB42EA52EE0917904F0917A0409956C018C01095F1F4FF70186859785F801918B808BF7018081F6018783F70181819281F80192838183F7018381F8018383F7018481F8018483F7018581F8018583F7018681F8018683F701878125
S284003800F8018783F7018085F8018087F7018185F8018187F7018285F8018287F70183859485F80194878387F7018585F8018587F70186859785F801978786878AE0692D4B2D5A2D0E940F1BF801828B938AC92DD0E09601255E3F4FC9016B2D7A2D492D50E00E94A3D287E490E0F601968385836696D483C383E091AF16F091B016C601F0
S2840038800995CDB7DEB7EBE00C9408D22F923F925F926F927F928F929F92AF92BF92CF92DF92EF92FF920F931F93DF93CF93CDB7DEB72E970FB6F894DEBF0FBECDBF1C0157E0A52EB12CA80EB91EE0917904F0917A0409954C01F50156808581580EF0E1F51550F0D501E4E8F7E0252D30E0220F331F2E0F3F1F11C024EAC22E26E0D22E93
S28400390094E8692E97E0792EEE24FF2472C015968D919C911697819391931296E217F307B1F7EACF20E0F5018581981708F421E0F30140815181F60151834083F70183E0EE0FFF1F8A95E1F7222349F0EE19FF09EE0FFF1FEA55F94F80818E7F08C0EE19FF09EE0FFF1FEA55F94F808181608083F701B3E0EE0FFF1FBA95E1F7EE19FF0932
S284003980EE0FFF1FEA55F94F808185708083F601138216828BEC9BE1938782871586148649315105D9F42223C9F0C701880F991F8C0163E0000F111F6A95E1F7081B190B0C55194FCE0101960E94FD15D801FE0131968EE001900D928150E1F70894E11CF11CEEE0F0E0CE0EDF1E82E090E0680E791E9E2DE51408F495CFF10187818093E3
S284003A009D16F5018381948190939F1680939E16818192819093A1168093A01625812093A31684E897E09093A5168093A41686818093A61630E0220F331FC9018C57984F9093A8168093A71684EA96E09093AA168093A916C90143E0880F991F4A95E1F7821B930B8C55994F9093AC168093AB1682E996E10E94B99C80919D1680938A084F
S284003A8084EA97E090938F0880938E0888E098E0909372088093710883E090E0F4019483838381E490E0968385831782E091AF16F091B016C40109952E960FB6F894DEBF0FBECDBFCF91DF911F910F91FF90EF90DF90CF90BF90AF909F908F907F906F905F903F902F9008950F931F93CF93DF938C01E0917904F0917A040995DC0198015B
S284003B00295F3F4FEC01279683E090E014969C938E931397F801878117968C9317978781823990F48E3808F053C0853530F4813508F070C0882399F088C0803609F489C0803809F082C085C0833979F18339D0F0843909F47EC0853909F077C04CC013968D919C911497899614969C938E931397ED012896F801389689E201900992815039
S284003B80E1F767C013968D919C9114970B9614969C938E931397ED012896F80138968BE0019009928150E1F754C013968D919C9114970A9614969C938E931397ED012896F80138968AE0019009928150E1F741C013968D919C911497079614969C938E931397ED012896F801389687E0019009928150E1F72EC013968D919C9114970296CC
S284003C0014969C938E931397F901818192819A8389831FC013968D919C911497089614969C938E931397F9018181898382818A8383818B8384818C8385818D8386818E8387818F838085888704C014961C921E92139788E690E016969C938E931597E091AF16F091B016CD010995DF91CF911F910F910895E0917904F0917A040995FC01DF
S284003C8082E090E09483838387E690E0968385832091AF163091B016CF01F90109950895CF93DF93EC010E946912FC01DE0117968F8198859783868312968C911297813081F49F01275F3F4FAE01445F5F4F88E0EA010990AE01E90109929E018150C1F706C013968D919C91149792878187EF01E2961D9685E10D9009928150E1F7E85861
S284003D00FF4F8DE391E291838083E857F040CF010E948EADDF91CF910895CF93DF93EC010E946912FC01DE0117968F8198859783868312968C911297813089F480879F01275F3F4FAE01445F5F4F88E0EA010990AE01E90109929E018150C1F707C0108613968D919C91149792878187EF01E2961D9685E10D9009928150E1F7E858FF4F0A
S284003D808FE591E291838083E857F040CF010E948EADDF91CF9108950F931F938C010E946912FC01E858FF4F8BE192E291838083E857F04085E190E09783868310868DEF9FEF92878187D80117968D919C91189793AB82ABCF010E948EAD1F910F9108950F931F93CF93DF938C010E946912FC01E858FF4F84E492E291838083E857F0404A
S284003E0088E390E0978386831086D80117968D919C91189792878187EF01E296199688E00D9009928150E1F7CF010E948EADDF91CF911F910F9108950F931F93CF93DF938C010E946912FC01E858FF4F89E692E291838083E857F04084E190E097838683EF01E296D801179683E10D9009928150E1F7CF010E948EADDF91CF911F910F9180
S284003E8008950F931F938C010E946912FC01E858FF4F82E992E291838083E857F04081E390E097838683D80117968D919C9118979287818719968C9182ABCF010E948EAD1F910F9108950F931F93CF93DF938C010E946912FC01E858FF4F86EC92E291838083E857F04083E190E09783868310868FEF9FEF92878187EF01E296D801179696
S284003F008BE00D9009928150E1F7CF010E948EADDF91CF911F910F9108950F931F938C010E946912FC01E858FF4F8AEF92E291838083E857F04081E190E097838683D80117968D919C91189793AB82ABCF010E948EAD1F910F9108950F931F938C010E946912FC01E858FF4F8EE293E291838083E857F04080E190E097838683D8011796A2
S284003F808D919C91189793AB82ABCF010E948EAD1F910F9108950F931F938C010E946912FC01D80117968D919C91189793AB82ABE858FF4F87E593E291838083E857F04085E090E097838683CF010E948EAD1F910F9108950F931F938C010E946912FC01E858FF4F8BE993E291838083E857F04084E090E097838683D80117968D919C9190
S284004000189793AB82AB19968C9184ABCF010E948EAD1F910F9108950F931F938C010E946912FC01E858FF4F8FED93E291838083E857F04083E090E097838683D80117968D919C91189793AB82ABCF010E948EAD1F910F9108950F931F938C010E946912FC01E858FF4F80E194E291838083E857F04082E090E09783868310868FEF9FEF94
S28400408092878187D80117968D919C91189793AB82ABCF010E948EAD1F910F9108950F931F93CF93DF938C010E946912FC01E858FF4F84E494E291838083E857F04081E090E0978386831086D80117962D913C9118972187328713861486158616861786108A17968D919D910D90BC91A02D82AB93ABA4ABB5ABCF010E948EADDF91CF91C1
S2840041001F910F9108950F931F938C010E946912FC01E858FF4F8EEA94E291838083E857F04086E390E0978386831086D80117968D919C9118979287818719968C91199782AB1A968C9183ABCF010E948EAD1F910F9108950F931F93CF93DF938C010E946912FC01E858FF4F8BEA95E291838083E857F0401782168210868FEF9FEF928724
S2840041808187EF01E296D80117968AE00D9009928150E1F7CF010E948EADDF91CF911F910F9108950F931F93CF93DF938C010E946912FC01D8011796E858FF4F80ED94E291838083E857F04084E390E09783868381E08087E8018F81818711968C911197828712968C911297838713968C911397848714968C911497858715968C91159706
S284004200868716968C911697878717968C911797808B8F8182AB11968C91119783AB12968C91129784AB13968C91139785AB14968C91149786AB15968C91159787AB16968C91169780AF17968C91179781AF18969C911897907882AD8F77892B82AF18969C9190748078892B82AFCF010E948EADDF91CF911F910F9108950F931F938C01C8
S284004280E0917904F0917A040995FC01D8011A968C9187838BED90E09683858383E090E0948383832091AF163091B016CF01F9010995C8010E948B121F910F9108950F931F938C01E0917904F0917A040995FC01D8011A968C91878389ED90E09683858383E090E0948383832091AF163091B016CF01F9010995C8010E948B121F910F9161
S28400430008950F931F93CF93DF938C010E946912EC019801295F3F4FF90184818A3008F04DC0C858DF4F86EE91E299838883C857D04086E090E09F838E83F801878190859BAB8AABF901828193819DAB8CAB84818EAB40E013C0E42FF0E0DF015396AA0FBB1FAC0FBD1FEE0FFF1FE20FF31F8581968152969C938E9351974F5FF9018481AB
S284004380481748F3EEA9F0E0EE0FFF1F3596E20FF31F2191C75BDF4F2883C954D040AE01465B5F4F30E0220F331FCA01BF01A9010E94A3D2CE010E948EAD03C0CE010E948B12DF91CF911F910F910895CF93DF93EC01E0917904F0917A040995DC018A8517968C9317979D01285F3F4FAE01455F5F4F8CE0FA010190AF01F90101929F01A2
S2840044008150C1F78DEC90E016969C938E9315978D8590E00F9614969C938E931397E091AF16F091B016CD010995CE010E948B12DF91CF9108950F931F938C01E0917904F0917A040995FC0181E290E09683858385E090E094838383D8011A968C911A9787831B968D919C911C97918780872091AF163091B016CF01F9010995C8010E94A0
S2840044808B121F910F910895CF93DF93EC01E0917904F0917A040995282F8A85882399F0E22FF92F83E090E09483838389E190E0968385838A8587832091AF163091B016CF01F9010995CE010E948B12DF91CF9108950F931F938C01E0917904F0917A040995FC01D8011A968C911A9787831B968D919C911C979187808789EE90E0968392
S284004500858385E090E0948383832091AF163091B016CF01F9010995C8010E948B121F910F910895CF93DF93EC01E0917904F0917A040995DC018A8517968C9317979D01285F3F4FAE01455F5F4F85E4FA010190AF01F90101929F018150C1F78FED90E016969C938E93159788E490E014969C938E931397E091AF16F091B016CD01099524
S284004580CE010E948B12DF91CF910895CF93DF93EC01E0917904F0917A040995DC0185ED90E016969C938E9315978EE090E014969C938E9313978A8517968C9317979D01285F3F4FAE01485450408BE0FA010190AF01F90101929F018150C1F7E091AF16F091B016CD010995CE010E948B12DF91CF910895CF93DF93EC01E0917904F091FE
S2840046007A040995DC018A8517968C9317979D01285F3F4FAE01455F5F4F83E1FA010190AF01F90101929F018150C1F781ED90E016969C938E93159786E190E014969C938E931397E091AF16F091B016CD010995CE010E948B12DF91CF9108950F931F938C01E0917904F0917A040995FC01D8011A968C911A9787831B968D919C911C97CB
S284004680918780878FEC90E09683858386E090E0948383832091AF163091B016CF01F9010995C8010E948B121F910F910895EF92FF920F931F937C01E0917904F0917A0409958C01FC013796D7011A968C91D80117968C93D7011B968D919C911C97928381831D968C911D9783839801255F3F4F1D964C91F7013E96C901BF0150E00E94A1
S284004700A3D28BEC90E0F80196838583D7011D968C9190E0099694838383E091AF16F091B016C8010995C7010E948B121F910F91FF90EF900895EF92FF920F931F937C01E0917904F0917A0409958C01FC013796D7011A968C91D80117968C93D7011B968D919C911C97928381831D968C911D9783839801255F3F4F1D964C91F7013E96C4
S284004780C901BF0150E00E94A3D289EC90E0F80196838583D7011D968C9190E0089694838383E091AF16F091B016C8010995C7010E948B121F910F91FF90EF9008950F931F93CF93DF938C01E0917904F0917A040995FC01D8011A968C911A9787831B968D919D910D90BC91A02D80879187A287B38787EC90E09683858387E090E0948365
S28400480083832091AF163091B016CF01F9010995C8010E948B12DF91CF911F910F910895CF93DF93EC01E0917904F0917A040995DC0185EC90E016969C938E93159782E190E014969C938E9313978A8517968C9317979D01285F3F4FAE01455F5F4F8FE0FA010190AF01F90101929F018150C1F7E091AF16F091B016CD010995CE010E94E2
S2840048808B12DF91CF9108950F931F93CF93DF938C01E0917904F0917A040995DC0183EC90E016969C938E931597F80185892AE030E0281B3109220F331F83E290E0821B930B14969C938E931397828517968C931797ED0128963B9680E2019009928150E1F713968D919C91149702978536910538F4E091AF16F091B016CD01099502C09B
S28400490012961C92C8010E948B12DF91CF911F910F910895EF92FF920F931F937C01E0917904F0917A0409958C018BE190E0F80196838583F7018081F8018783E091AF16F091B016C8010995C7010E948B12F80112821F910F91FF90EF9008950F931F938C01E0917904F0917A040995FC018BEE90E09683858383E090E094838383D8017B
S2840049801A968C9187832091AF163091B016CF01F9010995C8010E948B121F910F9108950F931F938C01E0917904F0917A040995FC0185EE90E09683858383E090E094838383D8011A968C9187832091AF163091B016CF01F9010995C8010E948B121F910F9108950F931F93E0917904F0917A0409958C010E9411A623E030E0F801348392
S284004A0023832FEE30E0368325838783E091AF16F091B016C80109951F910F9108950F931F93E0917904F0917A0409958C010E9478A623E030E0F801348323832DEE30E0368325838783E091AF16F091B016C80109951F910F910895A4E0B0E0E2E3F5E20C94F0D17C01FC01D080DD2049F1E0917904F0917A0409958C0188E1BE016F5F06
S284004A807F4F0E94250C87E090E0F8019483838386E690E09683858389819A81AB81BC8187839087A187B287095F1F4FF801D48207501040E091AF16F091B016C8010995C7010E948B122496E7E00C940CD2A5E0B0E0EDE6F5E20C94F1D18C010E9469127C01F80187819085A185B2858A839B83AC83BD838EE1BE016F5F7F4F0E94250C6E
S284004B008981BE016E5F7F4F823011F488E101C089E10E940B0C8CE295E2F70192838183C7010E941FA62596E6E00C940DD20F931F938C010E946912FC01D80117968C9180838AE894E292838183CF010E949DA41F910F910895EF92FF920F931F93CF93DF93EC01E0917904F0917A0409957C0181EC90E0F701968385838D892AE030E00C
S284004B80281B3109220F331F83E290E0821B930B948383838A858783D7011896FE013B9680E201900D928150E1F7F70183819481029785369105B0F48A85882361F40B851C852D853E854F85588969897A898B899C890E940F75E091AF16F091B016C701099502C0F7011282CE010E948B12CDB7DEB7E6E00C940DD2A3E0B0E0E2E0F6E232
S284004C000C94F3D1E0917904F0917A0409958C018EE1BE016F5F7F4F0E94250CCE0102960E949FA384E090E0F801948383838DEF90E0968385838A8187838B81095F1F4FF801818307501040E091AF16F091B016C80109952396E4E00C940FD2A3E5B0E0E4E3F6E20C94EDD1E0917904F0917A0409957C0118E0C12ED12CC80ED91E8E01FA
S284004C800F5F1F4FC8010E949FA38A819981890F8A83CE0103960E94D2A38A81F701878340E05DE0BBE1AB2EB12CB80147C0459FD0011124AC0DBD1D842F90E08A9D90018B9D300D9A9D300D1124260F371FF9018281938111969C938E9389010C5F1F4F848112968C931297F801818113968C931397828114968C931497838115968C93DE
S284004D001597848116968C931697858117968C931797868118968C931897878119968C931997F90184851A968C931A9785851B968C931B9786851C968C934F5F2A81421708F4B5CF8FEF90E0F701968385838DE0289FC0011124039694838383E091AF16F091B016C7010995CD5ADF4FEAE00C9409D210926E0410926D041092700410921C
S284004D806F041092720410927104109274041092730410927604109275040895EDE6F4E040E050E080819181892BF1F4FA01EE0FFF1FE359FB4F81E090E0918380838091770490917804019690937804809377048BE690E0489F9001499F300D589F300D11242A5A3D4F08C04F5F5F4F329645305105C1F620E030E0C901089526E532E0F8
S284004E00E0E0F0E08217930781F4EE0FFF1FE359FB4F118210828091770490917804019790937804809377040895319625593F4FE530F10539F7089580919008882319F081E0809390080895CF93DF93EB01882309F065C01092BC081092BB081092BE081092BD0888EC8093A5081092A6081092BA0889E190E09093A8088093A70886E013
S284004E808093A9081092AA081092AB088FEB98E09093AF088093AE0880EA90E09093B1088093B0081092B3081092B2081092B5081092B40882E997E29093B7088093B6088AE998E29093B9088093B8088AE998E00E94EE2C8F5F9F4F31F081E0809390088093910804C01092900810929108109293081092920810929508109294088FE679
S284004F0098E29093B0168093AF16D093AE16C093AD1686E698E29093B2168093B116DF91CF910895A1E0B0E0E8E9F7E20C94EBD18C01BB24B3946E010894C11CD11C24E0822E92E0992E83E0A82EA8C080919008843030F48230D8F4813009F0B3C004C0843009F0AFC056C08AE998E0B60141E050E00E94DD2A181619060CF069C0898145
S284004F808A3211F4A09290080150104087C08AE998E0B60141E050E00E94DD2A181619060CF056C08091BB089091BC08892B49F4E0917904F0917A0409959093BC088093BB0880919008E091BB08F091BC089981833029F4938314829092900814C0F92EEE24838194818E299F298736910510F086E690E094838383892B19F08092900882
S28400500002C0B092900801501040109299081092980844C0E091BB08F091BC088091980890919908BF01680F791F6B5F7F4F23813481281B390BA8012017310708F4A9018AE998E00E94DD2A9C01181619061CF01092900837C0081B190B8091980890919908820F931F9093990880939808A091BB08B091BC0813962D913C9114978217D4
S284005080930760F0B0929008E091AD16F091AE16CD0109951092BC081092BB080115110509F054CF8DE794E00E94462980919008843021F0823011F0833021F48DE794E00E946B292196ECE00C9407D210929008109291088AE998E00E94FC2B0895BC01009701F18091BD089091BE08892BE1F4809191088130C1F47093BE086093BD0810
S2840051008AE998E06AE874E041E050E00E945E2B181619062CF482E08093910880E008951092910881E0089584E998E00E949B9380E00895A091BD08B091BE08109709F443C080919108823019F08330E9F516C013964D915C9114974E5F5F4F8AE998E01396BD010E945E2B181619061CF010929108089583E080939108089581E0809302
S2840051809108E0917B04F0917C04CD010995E091BD08F091BE0812821092BE081092BD0880919408909195089093970880939608892B51F084E998E00E94B39380919608909197080E946F28089580E28CBB0895ED9A08958DB3ED98807208952C9A08952C980895179A0895179808952C98249A179A0F9A6D9875980895EAE6F0E08081A7
S2840052008C608083089584E0089580E0089508950895089508951F9310E00E947C3881E80E946538812F0E946538182F0E947A38183099F71F9108950E94650508958F929F92AF92BF92CF92DF92EF92FF920F930E9453314B015C012091790930E040E050E060E070E080E090E000E20E940906282939294A295B290F91FF90EF90DF90AD
S284005280CF90BF90AF909F908F900895CF93DF93EC010097D1F080915F09909160098C179D0719F460E070E008C08FE599E0BE010E94A430BC01009741F08FE599E0AE010E94863020E030E002C02FEF3FEFC901DF91CF910895CF93DF93EC01009771F0E0915F09F091600906C0EC17FD07D9F00190F081E02D3097C1F706C02FEF3FEF67
S284005300C901DF91CF9108950E942F339B01AC01198218826A837B838C839D838FE599E0BE010E94373020E030E0EACFEF92FF920F931F93CF93DF9318C08FE599E060E070E0AE010E9486308A85882359F4EA82FB820C831D838FE599E0BE01A80197010E943730EB85FC85099580915F0990916009892BD9F00E942F337B018C01C091BF
S2840053805F09D09160098A819B81AC81BD81A8019701281B390B4A0B5B0B8E819F81A885B985281739074A075B0738F6CDB7DEB7E6E00C940DD29091680921E030E002C0220F331F8A95E2F7922B90936809809199098068809399092FB7F8948091F7099091F80982609093F8098093F7092FBF0895CF93DF93E82FF0E0CF01805C904008
S284005400A3E095958795AA95E1F7482F50E0EA01CC0FDD1FCF59D64FA881B981109721F481818F7781836CC090968C91909783FD67C05496ED91FC91559784FF09C06083E881F981848995890196958B848B58C0EF2B09F455C01696CD91DC91179716968D919C911797019617969C938E93169716962D913C91179756968D919C915797EC
S2840054802817390721F417961C921E92169716962D913C91179714968D919C9115972817390729F41796DC93CE93169729C05496ED91FC915597EC0FFD1F608318968D919C911997019619969C938E931897440F551F4F59564FEA01E881F98180A180FF0FC08385883C61F418962D913C91199786899789969587958217930708F45D9A66
S284005500DF91CF910895E82FF0E0E05CF04083E0F595E7958A95E1F7F0E0EE0FFF1FEF59F64F0190F081E02D3097C1F04FB7F89422813381808191814FBF2817390711F481E08287828D938D892B11F4118E108E068CF78DE02D309709F009950895E82FF0E0E05CF04023E0F595E7952A95E1F7F0E0EE0FFF1FEF59F64F0190F081E02D52
S284005580309791F080A1887179F48FB7F894208531858FBF2115310539F0048CF58DE02D309711F0C90109950895803C21F0883C11F080E0089581E00895A0E0B0E0E3EEFAE20C94EDD18C015B016A01009709F46DC0DC011B96FC908F2D0E94D52A882309F464C0A114B10409F460C0C114D10409F45CC0EF2DF0E0E05CF040A3E0F5952C
S284005600E795AA95E1F7F0E0EE0FFF1FEF59F64FC081D1810C171D0709F048C08FB7F894F80166817781248135818FBF40E050E01AC07501E40EF51ED8015496ED91FC915597E20FF31F8081F70180832F5F3F4F56968D919C9157972817390711F420E030E04F5F5F4F2617370719F04C155D0500F38FB7F8943D832C8328853985241B38
S284005680350B39872887288539858FBF8B85883C59F488A180FF08C08E899F89969587958217930708F05D989A0102C02FEF3FEFC901CDB7DEB7EAE00C9409D2A0E0B0E0E4E6FBE20C94EBD1EC016B018A01009709F46FC0FB848F2D0E94D52A882309F468C0C114D10409F464C00115110509F460C0EF2DF0E0E05CF04083E0F595E795FA
S2840057008A95E1F7F0E0EE0FFF1FEF59F64F80809180C815D90509F04CC08A8D9B8D892B81F42A813B81888199812817390709F040C0D98EC88E1B830A8319821882B80130C08FB7F894AA80BB80E880F9808FBFA50160E070E019C09A012F5F3F4F8A8D9B8D2817390711F420E030E02E153F0579F0E88DF98DE40FF51FD601A60FB71F61
S2840057808C9180836F5F7F4FA9016017710720F38FB7F894F401538342838FBFAE14BF0431F41A86EB85F0E08181806281839B0102C02FEF3FEFC901CDB7DEB7ECE00C9407D2FC0183899385882349F4903C19F0983C89F402C06A9A0895559A0895903C19F0983C41F404C06A987298729A089555985D985D9A08951F93CF93DF93FC01DA
S2840058000097B1F11385812F0E94D52A882381F1812F90E0805C904033E0959587953A95E1F7C82FD0E0DE01AA0FBB1FAF59B64FED91FC9111973097D9F0E385F0E01182ED91FC9180A180FF02C055985D988485803429F481E0838BCF010E94E12BCC0FDD1FCF59D64F1982188220E030E002C02FEF3FEFC901DF91CF911F91089580EC04
S2840058800E94832A089580EC0E94AF2A089588EC0E94832A089588EC0E94AF2A0895CF93DF93282FA82FB0E0CD01805C904033E0959587953A95E1F7C82FD0E0FE01EE0FFF1FEF59F64F608171816115710509F476C0283CD1F5FB0180A1282F81FD02C030E009C08CB190E0E4E096958795EA95E1F7382F317020FD02C080E008C089B1EC
S28400590090E054E0969587955A95E1F78170332311F48823D1F08AE090E0A0E0B0E080936F0990937009A0937109B093720981E08093730982EE9CE2909375098093740989E699E00E946B293AC02FB7F894FB0182819381408151812FBF8417950749F1808D918D840F951FFC0190819A012F5F3F4F8C9180648C9316969C931697CC0FE4
S284005980DD1FCF59D64FE881F981828D938D2817390711F420E030E011968C911197806211968C938FB7F894FB01318320838FBF06C011968C911197806411968C93DF91CF91089588EC0E944F2C089588EC0E944F2C089580EC0E944F2C08951F93CF93DF93EC01009709F45CC01B85812F0E94D52A882309F455C088A1282F30E0A90156
S284005A004170507080FF03C0183C09F04AC0812F90E0805C904073E0959587957A95E1F7E82FF0E0EE0FFF1FEF59F64F80819181892BB9F5D183C083183C81F421FF02C06C987498452B51F0559A54985C988C899D89892B11F45D9A01C05D988C85803419F4CE010E94E12B198218821B821A828C899D89892B11F41F8A1E8A888D998D17
S284005A80892B11F41B8E1A8E1D821C821F821E8281E08A87CE010E9460338B85282F30E002C02FEF3FEFC901DF91CF911F910895CF92DF92FF920F931F93DF93CF9300D00F92CDB7DEB781E08983FF2400E010E0F2E0CF2ED12CCC0EDD1E9091680989818923B9F02FB7F8949091680989818927809368092FBF6F2D70E0660F771F685F42
S284005B00774FC60142E050E00E948DD2EA81FB810995F3948981880F89830F5F1F4F06301105D9F60F900F900F90CF91DF911F910F91FF90DF90CF900895382FE82FE650E230B0F4F0E0EE0FFF1FE857F64F80819181892B69F02DB381E090E002C0880F991F3A95E2F7282B2DBB20E030E002C02FEF3FEFC901089580911E1E089582E129
S284005B8080931E1E28E088E190E00FB6F894A895809360000FBE20936000FFCF87E08093760980E98093BC0080919B09806280939B092FB7F8948091F7099091F80982609093F8098093F7092FBF089580917609882319F42FEF3FEF08C01092BD161092BC161092760920E030E0C901089580917609823041F080917609833021F0809144
S284005C007609843021F48091B716880F08C080917609853051F48091B716880F8F5F8093BB0085E88093BC0008950E94CE2D08959091B6168091B516981790F48091B616E091B316F091B416E80FF11D90818F5F8093B6169093BB0085E88093BC00089586E08093760984E98093BC0080919B09806280939B092FB7F8948091F7099091AE
S284005C80F80982609093F8098093F7092FBF08958091B8169091B916A091BA16B091BB162091B61621502093B6162091B616220F220F220F04C0B695A795979587952A95D2F78093BB0085E88093BC008091B616882359F480917609823021F484E080937609089585E080937609089580917609843019F40E94182E08958091760982300B
S284005D0021F080917609833019F40E94482E089580917609853021F485EA8093BC0008950E94CE2D089580917609853099F48091B516813021F48091BC008F7B03C08091BC0080648093BC008091BC0085688093BC0008950E94CE2D0895982F80917609853029F58091B616E091B316F091B416E80FF11D90838F5F8093B6162091B616BD
S284005D808091B51630E090E001972817390724F48091BC00806403C08091BC008F7B8093BC008091BC0085688093BC0008950E94CE2D0895982F80917609853021F58091B616E091B316F091B416E80FF11D90838F5F8093B61686E08093760984E98093BC0080919B09806280939B092FB7F8948091F7099091F80982609093F8098093F0
S284005E00F7092FBF08950E94CE2D0895E091BC16F091BD16309791F080917609863041F48091BC0084FDFCCF81E08093760904C081E08093760980E00995089581E0809376090895FC0180917709882319F02EEF3FEF58C0309709F453C08481958120813181820F931F8150904108F049C081E0809377097093C5166093C416AEEBB6E171
S284005E8086E001900D928150E1F7F999FECF20E030E017C0E091C016F091C116E20FF31F8091BE169091BF1601969093BF168093BE16019792BD81BDF89A80B580832F5F3F4F8091C2169091C3162817390710F31092C3161092C21680919A09806180939A092FB7F8948091F7099091F80982609093F8098093F7092FBF20E030E002C0F7
S284005F002FEF3FEFC901089590E080917709813009F491E0892F08958091C2169091C316892B51F410927709E091C416F091C516309719F1099508956091BE167091BF166F5F7F4F7093BF166093BE1661507040E091C016F091C1164191F093C116E093C0168CE00E940F368091C2169091C31601979093C3168093C2160895CF93DF93D2
S284005F80FC0180917709882319F02EEF3FEF6BC0309709F466C08481958120813181820F931F8150904108F05CC081E080937709AEEBB6E186E001900D928150E1F77093C5166093C416672B19F4C0E0D0E03BC06091BE167091BF166F5F7F4F7093BF166093BE1661507040E091C016F091C1164191F093C116E093C0168CE00E940F36FD
S2840060008091C2169091C31601979093C3168093C21624C06091BE167091BF166F5F7F4F7093BF166093BE1661507040E091C016F091C1164191F093C116E093C01684E00E940F3621968091C2169091C316C817D90700F3F999FECF1092770920E030E002C02FEF3FEFC901DF91CF910895A0E0B0E0EDE3F0E30C94EDD18C01EB01690129
S2840060807A01FC01608171816115710589F1FB01AA24BB24268137814085518582819381A481B581280F391F4A1F5B1F2C193D094E095F092F3F8FEF38078FEF48078FE7580748F48E819F81A885B985281739074A075B0738F4808191815F01009761F0FC01D8CFE617F70731F4F983E883F801D183C08306C0CF01F501D183C083998343
S2840061008883CDB7DEB7EAE00C9409D2CF93DF93EC01DB01FA01888199814817590739F48081918111821082888399830AC08081918111969C938E93118210828C9111969C91DF91CF910895FC010190F081E02D06C0808191818617970719F0FC013097C1F7CF01089580917809813051F482E080937809E091C616F091C716309709F059
S284006180099508958FB7F894109281091092800910927F098FBF0895809170008C7F809370008091B60080628093B6001092B2001092B0001092B1001092B3008091B60090E08F719070892BC9F783E087BB87E08093B1008091700081608093700008958091B60090E08F719070892BC9F7809170008C7F809370008091B100887F8093BF
S284006200B10083B5826083BD8091B60090E08F719070892BC9F78091B6008F7D8093B6000895EF92FF920F931F937B018C016091B200862F90E0809590959C01442737FD4095542F3070407050702E153F054007510798F4D801C701821B930BA40BB50B9C01AD01BB27A52F942F832F9093800980937F092093810911C08091B60090E016
S2840062808F719070892BC9F76E0D6093B30082E087BB809170008260809370001F910F91FF90EF900895EF92FF920F931F936FB7F89470917A092091B20084E48093B4008091B60090E08F719070892BC9F7B89904C030E040E050E00AC08091B200282F30E040E050E021503F4F4F4F5F4F6FBF8FEF789FC0011124AA2797FDA095BA2F66
S284006300820F931FA41FB51F9C01AD0175E0220F331F441F551F7A95D1F77C018D0162E016950795F794E7946A95D1F72E0D3F1D401F511FE0907B09F0907C0900917D0910917E092E0D3F1D401F511F281B390B4A0B5B0BB901CA011F910F91FF90EF90089560E270E080E090E008952FB7F89460917A0910927A092FBF70E080E090E02E
S28400638020E43FE140E050E00E9490D120917B0930917C0940917D0950917E09260F371F481F591F20937B0930937C0940937D0950937E09261737074807590728F4809179098F5F8093790908951F920F920FB60F920BB60F9211242F933F934F935F936F937F938F939F93AF93BF93EF93FF93809170008D7F809370001092810980912E
S284006400AC0980FF03C080E00E94DF368091AC0982FF11C0809197098160809397092FB7F8948091F7099091F80982609093F8098093F7092FBFFF91EF91BF91AF919F918F917F916F915F914F913F912F910F900BBE0F900FBE0F901F9018958091AC0980FF0FC081E00E94DF36809170008D7F809370000E94C2308091AC098B7F80931E
S284006480AC0908951F920F920FB60F920BB60F9211242F933F934F935F936F937F938F939F93AF93BF93EF93FF9380917F0990918009892BA1F5809181098823E9F48091AC0980FF03C080E00E94DF368091AC0982FF34C0809197098160809397092FB7F8948091F7099091F80982609093F8098093F7092FBF22C08091B60090E08F716A
S2840065009070892BC9F7809181098093B30082E087BB8091700082608093700009C080917F099091800901979093800980937F098091AC0980FF02C00E946B3680917A098F5F80937A09809197098260809397092FB7F8948091F7099091F80982609093F8098093F7092FBFFF91EF91BF91AF919F918F917F916F915F914F913F912F9118
S2840065800F900BBE0F900FBE0F901F90189580E197E29093A9008093A800E1EAF0E088E08083808182608083E2E7F0E0808182608083089520918409309185094091860950918709260F371F481F591F2093840930938509409386095093870980919B09806880939B092FB7F8948091F7099091F80982609093F8098093F7092FBF089593
S2840066002FB7F89460918309109283092FBF70E080E090E02AE030E040E050E00E9490D120918409309185094091860950918709260F371F481F591F20938409309385094093860950938709261737074807590728F4809182098F5F8093820908950E9400336091840970918509809186099091870908951F920F920FB60F9211242F93C5
S2840066808F939F93809183098F5F8093830980919B09806880939B092FB7F8948091F7099091F80982609093F8098093F7092FBF9F918F912F910F900FBE0F901F901895DC011B96EC911B97F0E011821B96EC911B97F0E01D968D919C911E97958384831C968C911C971B96EC911B97882349F4F0E082E080831B96EC911B97F0E012823B
S2840067000AC0F0E010821B96EC911B97F0E052968C91529782831B96EC911B97F0E082811C969C911C97892B82831B96EC911B97F0E082811F969C911F97892B82831B96EC911B97F0E0828150969C915097892B82831B96EC911B97F0E0828151969C915197892B82831B96EC911B97F0E08081806880831B96EC911B97F0E0818188613E
S28400678081831B96EC91F0E081818068818308951F920F920FB60F920BB60F9211242F933F934F935F936F937F938F939F93AF93BF93EF93FF930E942E32809165098111EC98E0916609F0916709309709F00995FF91EF91BF91AF919F918F917F916F915F914F913F912F910F900BBE0F900FBE0F901F9018951F920F920FB60F920BB6D2
S2840068000F9211242F933F934F935F936F937F938F939F93AF93BF93EF93FF938091C8006091CE008C7131F488EC0E94F92985E00E94DB29FF91EF91BF91AF919F918F917F916F915F914F913F912F910F900BBE0F900FBE0F901F9018951F920F920FB60F920BB60F9211242F933F934F935F936F937F938F939F93AF93BF93EF93FF93D2
S284006880E9ECF0E080818F7B808384E00E94DB29FF91EF91BF91AF919F918F917F916F915F914F913F912F910F900BBE0F900FBE0F901F9018951F920F920FB60F920BB60F9211242F933F934F935F936F937F938F939F93AF93BF93EF93FF93E9ECF0E080818F7D808383E00E94DB29FF91EF91BF91AF919F918F917F916F915F914F9152
S2840069003F912F910F900BBE0F900FBE0F901F9018951F920F920FB60F920BB60F9211242F933F934F935F936F937F938F939F93AF93BF93EF93FF938091C0006091C6008C7131F480EC0E94F92982E00E94DB29FF91EF91BF91AF919F918F917F916F915F914F913F912F910F900BBE0F900FBE0F901F9018951F920F920FB60F920BB662
S2840069800F9211242F933F934F935F936F937F938F939F93AF93BF93EF93FF93E1ECF0E080818F7B808381E00E94DB29FF91EF91BF91AF919F918F917F916F915F914F913F912F910F900BBE0F900FBE0F901F9018951F920F920FB60F920BB60F9211242F933F934F935F936F937F938F939F93AF93BF93EF93FF93E1ECF0E080818F7DF2
S284006A00808380E00E94DB29FF91EF91BF91AF919F918F917F916F915F914F913F912F910F900BBE0F900FBE0F901F9018952DB141E050E0082E02C0440F551F0A94E2F7942F909592239DB99EB1942B9EB9EAE6F0E090818450880F23E030E0082E02C0220F331F0A94E2F7209529232083908170E06370707002C0660F771F8A95E2F77E
S284006A80962B90838CB3482B4CBB08951F920F920FB60F920BB60F9211242F933F934F935F936F937F938F939F93AF93BF93EF93FF930E942E32E0918A09F0918B09309709F00995FF91EF91BF91AF919F918F917F916F915F914F913F912F910F900BBE0F900FBE0F901F9018951F920F920FB60F920BB60F9211242F933F934F935F9341
S284006B006F937F938F939F93AF93BF93EF93FF930E942E32E0918809F0918909309709F00995FF91EF91BF91AF919F918F917F916F915F914F913F912F910F900BBE0F900FBE0F901F9018951F920F920FB60F920BB60F9211242F933F934F935F936F937F938F939F93AF93BF93EF93FF938091B90090E0887F90708832910559F18932FF
S284006B8091058CF48031910511F1813191052CF4009719F1089781F51AC088319105D1F0809751F51AC088349105B9F0893491053CF48033910589F080349105E9F410C08035910581F088359105B1F411C00E94F72D12C00E94762E0FC00E94CE2D0CC00E94932E09C08091BB000E94AD2E04C08091BB000E94DA2EFF91EF91BF91AF91D1
S284006C009F918F917F916F915F914F913F912F910F900BBE0F900FBE0F901F901895982FF999FECF07B600FCFDCF72BD61BD40BD8FB7F8949FBBF99A8FBF08951F920F920FB60F9211242F938F939F93FB9880919A09806180939A092FB7F8948091F7099091F80982609093F8098093F7092FBF9F918F912F910F900FBE0F901F901895DD
S284006C800E94533120918C0930918D0940918E0950918F09621B730B840B950B10928C0910928D0910928E0910928F090E94DA328091A10082608093A1000E940B298091AC0981FD07C0E0919D09F0919E09309709F0099508950E946439882309F44EC08091AC0982FD03C02FEF3FEF66C024982C988091B60090E08F719070892BC9F734
S284006D008091700081FD0AC08FEF8093B3008091B60090E08F719070892BC9F78091B000806C8093B0008091B60090E08F719070892BC9F78091B10080688093B1008091B60090E08F719070892BC9F78091B0008F738093B0008091B60090E08F719070892BC9F78091B00080688093B0008091B60090E08F719070892BC9F78091AC0914
S284006D8081608093AC098091B60090E08F719070892BC9F780919C09806880939C092FB7F8948091F7099091F80982609093F8098093F7092FBF20E030E0C90108959091AC098170880F9C7F982B9093AC090E946439882311F42C980EC024982C988091B0008F738093B0008091B60090E08F719070892BC9F7249A80919B098460809311
S284006E009B092FB7F8948091F7099091F80982609093F8098093F7092FBF08958091AC0980FF5CC08091A1008D7F8093A10080918C0990918D09A0918E09B0918F090097A105B10551F40E94533160938C0970938D0980938E0990938F09809165098111EC9AF999FECF0E9464398823B1F42C9A249A8091AC0982FF05C087E083BF889590
S284006E8013BE22C00E94F03085E083BF889513BE0E94CC300E94493817C0909172002091BC0030917A00109272001092BC0010927A00249A87E083BF889513BE909372002093BC0030937A0084E48093B4008091B60090E08F719070892BC9F708951F920F920FB60F920BB60F9211242F933F934F935F938F939F93EF93FF93809190094C
S284006F00E0919109F0919209882351F4809193099091940920917900E80FF91F20830FC0809193099091940940917800509179009C01220F331FE20FF31F51834083019690939409809393092091930930919409809195099091960928173907B1F480917A00877F80937A0080919A09886080939A092FB7F8948091F7099091F8098260DC
S284006F809093F8098093F7092FBFFF91EF919F918F915F914F913F912F910F900BBE0F900FBE0F901F901895A0E0B0E0EAEDF7E30C94E9D100E8C2E8DBE810E092E8C92E9BE8D92EE12CF12C82E8A82E8BE8B82E0E946D05BC018BE86338780718F19E0140E050E0CB01A0E0B0E082589B48A040B040281739074A075B074CF4123039F41A
S28400700080916600815080936600000036C0809166008150809366000000EB01C258DB4811E028C08BE86238780739F1CE01A0E0B0E09B0140E050E036014701621A730A840A950A86159705A805B9054CF4113039F4809166008F5F8093660000000DC0809166008F5F809366000000E501C61BD70B12E0015009F0ABCFCDB7DEB7EEE04C
S2840070800C9405D20E946439882311F40E94D4370895CF93DF93C0E0D0E088EC0E946505219683E1C838D807C1F70E944238DF91CF910895289A23982B98229A219A209A80E58CBD81E08DBD08958EBD000000000000000000000000000000000000000000000000000000000000000000008DB58EB50895289A08952898089580919709BB
S28400710080FF0BC09FB7F894809197098E7F809397099FBF0E948D3977C08091970981FF0BC09FB7F894809197098D7F809397099FBF0E94B63168C08091990987FF0BC09FB7F894809199098F77809399099FBF0E94582D59C080919A0983FF0BC09FB7F89480919A09877F80939A099FBF0E94B3304AC080919A0984FF0BC09FB7F894FD
S28400718080919A098F7E80939A099FBF0E948C2F3BC080919B0982FF0BC09FB7F89480919B098B7F80939B099FBF0E9440362CC080919B0985FF0BC09FB7F89480919B098F7D80939B099FBF0E94062F1DC080919B0987FF0BC09FB7F89480919B098F7780939B099FBF0E9496290EC080919C0987FF0AC09FB7F89480919C098F77809394
S2840072009C099FBF0E940E37809197098823A1F480919809882381F480919909882361F480919A09882341F480919B09882321F480919C09882361F02FB7F8948091F7099091F80982609093F8098093F7092FBF0895ADE0B0E0EFE2F9E30C94F5D1FC01009719F42FEF3FEF2AC08481958190939E0980939D0980819181A281B3818F8384
S2840072809887A987BA8781E08B871D861C86CE0101960E94B6392FEF8F3F920771F08D5F9F4F59F00E946B368F5F9F4F19F020E030E005C02DEF3FEF02C02EEF3FEFC9012D96E2E00C9411D28091AD090895F999FECF9FB7F894E0E0F0E089E08093570084919FBF8F70823019F41092AD0903C081E08093AD098091AD09882369F48FB788
S284007300F8945F9350E85093610050E0509361005F918FBF0E94493808959091AC0992FF24C08091A9098823B1F4E091AA09F091AB09309709F009958091AC0982FF15C06091A5097091A6098091A7099091A8090E94113108959B7F9093AC09E091AA09F091AB09309709F009950895CF93DF93EC01009719F42FEF3FEF2EC00E94B1319F
S2840073802E813F81488559850E9490D128EE33E040E050E00E94C3D1B901CA01611571058105910519F42EEF3FEF16C02091AC0922FF03C02DEF3FEF0FC024602093AC09AFE9B9E0FE012DE001900D922150E1F70E94113120E030E0C901DF91CF910895FC010097A9F086EA858B8085882381F08F3F71F08385833031F48489882341F00B
S2840074008F3F19F405C0813019F4158A81E0089580E00895FC01DA010097D9F0638F4115510551F08D919D910D90BC91A02D848F958FA68FB78F04C0148E158E168E178E218D328D2115310521F0CF014B96F901099508952091D0163091D116FC01EC5BFF4F80819181821B930B63E270E00E94AFD183E2689FB0011124620F731FCB012A
S2840074800895FC01009729F48091BB099091BC0908958081918108951F93182FA0E0B0E007C01396ED91FC9114978081181731F0CD010E94413ADC01009799F7CD011F910895FF920F931F93082FA091C8164091CD165091CE1690E060E070E081C0FA01E60FF71F9B01265A3F4F878180FD76C0EC5BFF4F11821082E454F0400230F1F022
S284007500023018F0033009F06EC09091CC168091CA16981708F067C09F5F9093CC161382148215821682E091CD16F091CE16E60FF71F80858F70808712823BC09091CB168091C916981708F04EC0F090CF16E091D016F091D11610E040E050E024C0DF018081B3969A012D5D3F4F8823D1F49F5F9093CB1621E02C93E091CD16F091CE163E
S284007580E60FF71FEC5BFF4F8091D0169091D116840F951F489691838083E454F040228304C01F5FA9011F15D0F28091CF168117D1F0E091CD16F091CE16E60FF71F8085807F8087000F01600783118210822091CD163091CE16260F371F07C09F5FB9019A1708F47CCF20E030E0C9011F910F91FF900895CF93DF932091CD163091CE16E1
S284007600821B930B6AE570E00E94AFD18AE5689FE0011124F901EC0FFD1F8781869590E08230910569F08330910514F0039731F58091CC16882311F181508093CC161EC08091CB16882319F081508093CB162091D0163091D116EC5BFF4F80819181821B930B63E270E00E94AFD183E2689FF0011124E20FF31F808181111082E091CD1695
