:100000000C9466050C949E050C949E050C949E051C
:100010000C949E050C94FE2F0C94A8DC0C94AB3130
:100020000C947C310C949E050C949E050C949E05BA
:100030000C949E050C941B2E0C949E050C94782E0B
:100040000C949E050C949E050C949E050C949E05A4
:100050000C949E050C949E050C949E050C949E0594
:100060000C949E050C94BF300C941F310C94F1300D
:100070000C949E050C94A7330C9454320C949E055A
:100080000C949E050C949E050C949E050C949E0564
:100090000C9431300C9491300C9463300C94DA3120
:1000A0000C949E050C949E050C94702F0C94D0DC3F
:1000B0000C949E050C949E050C949E050C949E0534
:1000C0000C949E050C949E050C949E05F14A6C4A76
:1000D0003E4B3E4B3E4B724A774A084B3E4B7A4A68
:1000E0007D4A874A8F4A3E4B924A954A984A3E4BF0
:1000F0009D4AA04A084BA54AE54AFA4A3E4BE84ABF
:10010000EB4A704AEE4AEE4A084B084B084B084B44
:10011000084B084B084B084B084B084B084B084B47
:10012000084B084B084B084B084BDB4A084B3E4B2F
:100130003E4B3E4B3E4B3E4B3E4B3E4B3E4B3E4B77
:100140003E4B3E4B3E4B3E4B3E4B084BFD4A004B1D
:10015000084BD44A4D4C584B4F4C4F4C4F4C5D4B79
:10016000654B4F4C4F4C6D4B724B8C4B944B4F4CE3
:10017000994BA14BAB4B4F4CB34BB84B4F4CC04B77
:10018000DD4BEF4B4F4CE24BEA4B4D4C4D4C4D4C45
:10019000F94BF94BF94BF94BF94BF94BF94BF94B3F
:1001A000F94BF94BF94BF94BF94BF94BF94BF94B2F
:1001B000F94BD34BF94B4F4C4F4C4F4C4F4C4F4C92
:1001C0004F4C4F4C4F4C4F4C4F4C4F4C4F4C4F4C57
:1001D0004F4CF94BF44B4D4CF94BCE4B274D574DF3
:1001E000574D574D2C4D414D364D3B4D664D314D84
:1001F000464D464D4B4D574D5D4D614D814E844EA4
:10020000874E874E8A4E964E904E934EA64E8D4EFA
:10021000994E9C4E9F4EA24EF054A355C055745417
:100220003C563C56B155C055C6551456ED553C5636
:100230003C561456CD541756997FA17F467FD67FE2
:10024000D67F747F817FD67FD67FD67FAB7FBA7F04
:10025000687FD67FD67F437F8C7F4E805B806F80A8
:10026000818088809580A280AD80B580D380FE801B
:10027000BF80EF81EF81B381BA81BA81C681C68127
:10028000D781D781D781E6C1EAC112C2EEC1F2C1DE
:1002900012C2F6C112C204C208C20FC2BEC740C811
:1002A000EAC72AC8DCC840C8A5C8E5C854C8A5C85C
:1002B000E0C8FEC82ACC2FCCEACC02CD19CD11CE95
:1002C00040CEE2CEE2CEE2CEE2CEE2CEE2CEE2CE50
:1002D000E2CEE2CEBDCDCBCDE2CEE4CBEDCDD5CCE2
:1002E0000DCF42CF7ECF66CF57CF7ECF96CFC6CF32
:1002F000C6CFC6CFC6CFC6CFC6CFC6CFC6CFC6CF56
:1003000066CF7ECFC6CF00CF6FCF51CF8BD789D7E7
:1003100089D7B8D7BFD7D2D7DAD7DDD7E0D7E3D7D9
:10032000E6D7EDD8F4D803D90BD90DD90FD911D907
:1003300014D9646464646464646464646464646458
:100340006363636363636363636363636362626280
:10035000626262626161616161606060605F5F5F93
:100360005E5E5D5D5D5C5C5B5B5A595958575756E4
:100370005554535251504F4E4D4B4A4947454442B4
:10038000403E3C3A383634312F2C2A29282827275A
:100390002626252525242424232323232222222222
:1003A0002121212120202020201F1F1F1F1F1E1E52
:1003B0001E1E1E00000100020003000400050006CE
:1003C000000700080009000A000B000C000D000ED9
:1003D000000F00100012001400160018001A001C74
:1003E000001E00200022002400260028002A002CE5
:1003F000002E003100350039003D00410045004924
:10040000004D005100550059005D00610065006914
:10041000006D0073007B0083008B0093009B00A3A2
:1004200000AB00B300BB00C300CB00D300DB00E394
:1004300000EB00F7000701170127013701470157BB
:10044000016701770187019701A701B701C701D7AC
:1004500001E701FF011F023F025F027F029F02BF0F
:1004600002DF02FF021F033F035F037F039F03BFFF
:1004700003DF030F044F048F04CF040F054F058FD4
:1004800005CF050F064F068F06CF060F074F078FC4
:1004900007CF072F08AF082F09AF092F0AAF0A2F80
:1004A0000BAF0B2F0CAF0C2F0DAF0D2F0EAF0E2F70
:1004B0000FAF0F1813040033130C0060130D00C8A6
:1004C000121500F1131900E9131A0043131B00441D
:1004D000131C0045131D004F131E0034132F003A48
:1004E000133100F3133200EC133400691335007F2D
:1004F00013360088133800F7133900391341007C94
:10050000134200C01243007E134B002D0B4C0056CB
:100510000F82000114B601770DBE0100000000003B
:1005200000000000000000000000000000000000CB
:1005300000000000000000000000000000000000BB
:1005400000000000000000000000000000000000AB
:10055000000000000000000000000000000000009B
:10056000000000000000000000000000000000008B
:10057000000000000000000000000000000000007B
:100580000000000000010201000202050800000155
:1005900000DDDD0000000000000000010100050199
:1005A00001770D8B0D0080000000000000000000AE
:1005B000000000000000000000000000000000003B
:1005C0000000000000000000000000000000000526
:1005D00000FF000002AAAAAAAAAAAAAAAA000000CA
:1005E0000003DDDD0103030000E803000010270025
:1005F00000010001E803000004E80300000000001F
:100600000000000000000000000000000000AAAA96
:10061000AAAAAAAAAAAA0300A00FFFFFFFFFFFFF32
:10062000FFFF60EA0000E093040000010084000086
:100630000002020202010502020102020403020298
:100640000E02010100000000141001102700001824
:10065000130800221301002F13040033130100F0CC
:10066000130100F7130800F31302007F1302008840
:10067000130100EC130100F11301003613010037E0
:100680001301003813010039130100341302003A3A
:10069000130100EE130100ED130100F2120100F44A
:1006A00012010060130800C8120400461304003B46
:1006B0001304003F130400431301004413010045D9
:1006C0001301004F131100E91301004A1301004BFD
:1006D00013040068130100F5120200691301007889
:1006E0001304007C1301006A1302006C13080074E9
:1006F000130400030210007D130100021401000323
:100700001401007E130100C0120800000000002D3B
:10071000060200310601002F0602003306010034F4
:1007200006010035060100360601003706010038D3
:10073000060100390601003A060100320601003BBD
:100740000601003C060100480602003D0601003E8D
:100750000601003F06010044060400400601004176
:1007600006010042060100430601004B0604004A50
:100770000601007D0A00002D0B0000010B00006344
:100780000B0000000000006D0B0000200F00004C6B
:100790000F00001D0D00004D0D00002B0D0000632B
:1007A0000D00008D0D0000B60E00000000000000DE
:1007B000000000560F0000D2100000281200003682
:1007C00012000001140000770D00008B0D00008A5C
:1007D0001000000000000005571210DA1712F01781
:1007E000145719166F1763A317653F2067292068F0
:1007F000631F6B5B13764C147366137D87148643FB
:10080000166E8415753F158E5D1590C7147CA21465
:10081000953B13B4BB0FB6541BB8581ABC830F5C7E
:10082000F60C5EA60DA04F10A7E90DA9B90DC05199
:1008300021E47A21EA2621FC3522FE672240351E7A
:10084000427E1C447E1C549C1B1ACE2020297528F5
:1008500079281C297D2881286C466F410000CB3CFB
:10086000000000000000A4390000000000000000AB
:1008700000001E48DE47AF4700008647000000002A
:100880000000000034472A850000A9916E88038388
:1008900007882081C97C4C6A000057764D72356FFD
:1008A000F66968684669000000000000000000006A
:1008B0003968020203020102010101010101010282
:1008C000020101010202020202020202020202020B
:1008D000020303020203027778818101089B7AF602
:1008E0006A01019B7AF66A01012F783B820101B906
:1008F00077D3720101B977A8720108707709850171
:10090000011777678F010100000000010800000057
:100910000001010000000001030000F36101040078
:1009200000000001050000000001060000000001B9
:10093000010000000001019B7A000000010000009E
:1009400000010000000000010800000000010A0092
:100950000000000100000000000101000000000193
:10096000010000000000000000DE6B00080000DE57
:100970006B000C0000DE6B00000000DE6B00CB5E45
:1009800000000060D85FF85F0000D35E0000F05FF9
:10099000DB5E5F64AA5EA761AF6117629F6108605A
:1009A00000008865F783FB7BF991AE8F0000D09340
:1009B0009C857374000000003A98459611C70004A6
:1009C0000810DA9AC89B46B8DFA282A700018DF60C
:1009D000CB527BD1E84F29C0B0E1E5C774B4AA4B34
:1009E000992B605F583FFDCCFF40EEB23A6E5AF152
:1009F000554DA8C9C10A98153044A2C22C45926C25
:100A0000F3396642F235206F77BB59191DFE3767FF
:100A10002D31F569A764AB135425E909ED5C05CACE
:100A20004C2487BF183E22F051EC6117165EAFD3FD
:100A300049A63643F44791DF3393213B79B7978535
:100A400010B5BA3CB670D006A1FA8182837E7F8051
:100A50009673BE569B9E95D9F702B9A4DE6A326D95
:100A6000D88A84722A149F88F9DC899AFB7C2EC369
:100A70008FB8654826C8124ACEE7D2620CE01FEF55
:100A800011757871A58E763DBDBC86570B282FA3B6
:100A9000DAD4E40FA92753041BFCACE67A07AE6353
:100AA000C5DBE2EA948BC4D59DF8906BB10DD6EB13
:100AB000C60ECFAD084ED7E35D501EB35B2338346E
:100AC0006846038CDD9C7DA0CD1A411C11248091C9
:100AD000A21D823141F084B78F718093A21D80FFE7
:100AE00005C081E001C081E18093A21D14BE809108
:100AF00060008861809360001092600011241FBE26
:100B0000CFEFD1E2DEBFCDBF14E0A0E0B2E0E8EF6E
:100B1000F2EC01E00BBF02C007900D92A43DB107BB
:100B2000D9F71DE1A4EDB4E001C01D92A23AB107CE
:100B3000E1F70E94AC9A0E946F9AFDCF0C940000DE
:100B40007F937FB7F8949D9AA5988AEF0E94FF053E
:100B50008AEF0E94FF059D9886E40E94FF0581E0D0
:100B6000959980E08F9380EF0E94FF058F917FBF62
:100B70007F9108957F937FB7F8949D9AA59886E01A
:100B80000E94FF059D988AE00E94FF058894959930
:100B90000894881F8F9384E60E94FF058F917FBF82
:100BA0007F9108959F937F9398E00E94BA0587955F
:100BB00077959A959923C9F7872F7F919F910895EB
:100BC0007F937FB7F894A5989D9A8F9386E00E94B3
:100BD000FF058F91879508F49D988F9384E60E9476
:100BE000FF058F919D987FBF7F9108959F9398E017
:100BF0000E94E0059A959923D9F79F9108950000E6
:100C00000000000000008A958823C9F708955F93CB
:100C10007F937FB7F894CF93DF93C0E0D0E07F93CA
:100C20005091B2007091B2007517E1F3739521965F
:100C30005091B2005717D9F77F91CE01DF91CF9134
:100C40007FBF7F915F910895EF92FF920F93DF93A3
:100C5000CF93CDB7DEB760970FB6F894DEBF0FBE67
:100C6000CDBFA82F002309F461C07E010894E11CC8
:100C7000F11C88E0F70111928A95E9F729833A83FC
:100C80004B835C836D837E83AF83988780E2801B78
:100C9000E82FFF27E7FDF0954D815E816F81788514
:100CA000181684F01D861E861F86188A88279927A5
:100CB0008E1B9F0B04C076956795579547958A952F
:100CC000D2F728C0202F332727FD3095DB01CA013A
:100CD000022E04C0B695A795979587950A94D2F7EA
:100CE0008D879E87AF87B88B04C0440F551F661F42
:100CF000771FEA95D2F789819A81AB81BC8104C0C4
:100D0000B695A795979587952A95D2F7482B592B95
:100D10006A2B7B2B49875A876B877C8729853A8585
:100D20004B855C856D857E85AF8598898A2F609619
:100D30000FB6F894DEBF0FBECDBFCF91DF910F91FC
:100D4000FF90EF900895EF92FF920F93DF93CF9370
:100D5000CDB7DEB760970FB6F894DEBF0FBECDBF3C
:100D6000A82F002309F461C07E010894E11CF11C46
:100D700088E0F70111928A95E9F729833A834B833A
:100D80005C836D837E83AF83988780E2801BE82F2E
:100D9000FF27E7FDF09549815A816B817C81181608
:100DA00084F019861A861B861C86882799278E1B35
:100DB0009F0B04C0440F551F661F771F8A95D2F7FB
:100DC00028C0202F332727FD3095DB01CA01022ED2
:100DD00004C0880F991FAA1FBB1F0A94D2F78987E6
:100DE0009A87AB87BC8704C07695679557954795DA
:100DF000EA95D2F78D819E81AF81B88504C0880FB6
:100E0000991FAA1FBB1F2A95D2F7482B592B6A2B73
:100E10007B2B4D875E876F87788B29853A854B853D
:100E20005C856D857E85AF8598898A2F60960FB623
:100E3000F894DEBF0FBECDBFCF91DF910F91FF9031
:100E4000EF900895089502C00E94A99A0E94BA2BBB
:100E50008823D1F708950F931F93CF93DF938C01CD
:100E6000EB010E942307C801BE010E94582B8F5F2F
:100E70009F4F11F481E006C0C252D74011F40E9486
:100E8000230780E0DF91CF911F910F9108950F9379
:100E90001F93CF93DF938C01EB010E942307C801BE
:100EA000BE010E94F42B8F5F9F4F11F481E006C0BA
:100EB000C252D74011F40E94230780E0DF91CF9106
:100EC0001F910F910895A8E0B0E0E9E6F7E00C94D7
:100ED0008DE07B01082F10E0B801660F771F660FC9
:100EE000771F6D547B4FCE01019644E050E00E9485
:100EF00029E189819A81F701938382832B813C8147
:100F0000318320838091000290E001970817190730
:100F100039F48091010290910202821B930B14C05C
:100F2000000F111F000F111F09541B4FCE01059612
:100F3000B80144E050E00E9429E18F8198852B811F
:100F40003C81821B930BF701958384832896E6E00E
:100F50000C94A9E0A6E0B0E0E0EBF7E00C948DE0A3
:100F60000091000210E07E010894E11CF11C0CC00D
:100F7000812FB7010E946307C70162E277E00E94F8
:100F80002B07882321F41F5F101790F380E026962B
:100F9000E6E00C94A9E0A4E0B0E0E1EDF7E00C9409
:100FA00091E09093750A8093740A662359F484E261
:100FB000BE016F5F7F4F0E94D70C89819A81AB8100
:100FC000BC8104C082E390E0A0E0B0E080936F0AAF
:100FD0009093700AA093710AB093720A81E0809393
:100FE000730A89E69AE00E94A1252496E2E00C9417
:100FF000ADE08FEF97E060E00E94CB070895ADE091
:10100000B0E0E5E0F8E00C9485E081E08093D40462
:101010007090000252E0852E912C8C0E9D1E46E0B1
:10102000642E38E0E32EF12CEC0EFD1E5E010894D8
:10103000A11CB11C21E0C22ED12C33C0B4010E94EE
:101040006307F701862D11928A95E9F7BB86AA8678
:10105000DD86CC8600E010E01EC08A819B81800F77
:10106000911F99878887C70162E277E00E942B076A
:10107000AA85BB85EC81FD81E00FF11F9C918081E9
:10108000981739F0CE0102966FEF77E00E9447077C
:1010900023C00F5F1F4F8E819F8108171907E8F249
:1010A00015C08091D504871548F21092D5040E948E
:1010B000A809813031F48FEF97E061E00E94CB07FF
:1010C0000BC00E94F9071092D40406C08091D50489
:1010D0008F5F8093D504E5CF2D96EEE00C94A1E0D0
:1010E00002C00E94A99A8091D4048130D1F389E68C
:1010F0009AE00E947C250895A6E0B0E0E2E8F8E0DE
:101100000C948DE00E94010C0091000210E07E0121
:101110000894E11CF11C0CC0812FB7010E946307E9
:10112000C70162E277E00E944707882349F41F5F06
:10113000101790F30E94B408882311F40E94A809A4
:101140002696E6E00C94A9E00E948709882339F4EA
:101150000E94AA07813039F00E94F9070895813072
:1011600011F00E94F9070895EF92FF921F93DF9309
:10117000CF93CDB7DEB727970FB6F894DEBF0FBE7B
:10118000CDBF8FEF8983CE0101969D838C838091A3
:101190000102909102029B838A8381E090E09F8309
:1011A0008E8310E082E0E82EF12CEC0EFD1EC701CC
:1011B00062E277E00E944707882351F42A813B814D
:1011C0001F5F1A3029F02F5F3F4F3B832A83EFCFF9
:1011D00027960FB6F894DEBF0FBECDBFCF91DF913B
:1011E0001F91FF90EF900895A6E0B0E0EAEFF8E0DD
:1011F0000C9487E08C010097E9F1E0900102F090F7
:101200000202FA82E98281E090E09E838D834801A8
:101210009AE0C92ED12CCE0CDF1C5E010894A11CD3
:10122000B11C1FC08B829C820E942307C50160E015
:1012300070E00E94582B8F5F9F4F21F481E0F801EE
:10124000838318C00E942307F801808129813A8195
:101250008F3F19F0328321830CC02F5F3F4F3A83B9
:10126000298389819A818C159D05E0F2F801F2822B
:10127000E18213822696ECE00C94A3E0A7E0B0E0B4
:10128000E4E4F9E00C9489E08C010097E1F1198223
:10129000FC01108284E090E09B838A8381E090E0EF
:1012A0009F838E83E0900102F09002025E01089419
:1012B000A11CB11C22E0C22ED12CCC0EDD1E1CC004
:1012C000BD82AC820E942307C60160E070E00E94EC
:1012D000582B8F5F9F4F21F481E0F801838313C067
:1012E0000E942307F80180819981890F80838A8178
:1012F0009B8101969B838A838A819B818E159F05A2
:10130000F8F2F80113822796EAE00C94A5E0A8E031
:10131000B0E0EDE8F9E00C9491E0CE0105960E9472
:101320003E098885813079F0CE0101960E94F4084B
:101330008C81813041F089819D81890F11F082E09B
:1013400003C080E001C081E02896E2E00C94ADE0AB
:10135000AFE0B0E0EEEAF9E00C9491E08FEF898322
:10136000CE0102960E94F4088D818130E9F1CE0110
:1013700006960E943E0989858130B1F19E818A815D
:10138000890F99F191959E838B819C819B878A8798
:10139000CE0101969D878C8781E090E09F878E87A4
:1013A000CE010A9662E277E00E9447078823E9F4BB
:1013B0008A859B8501969B878A874091010250917F
:1013C00002029A01265F3F4F8217930710F05B8756
:1013D0004A87CE0106969D878C87CE010A9662E2E7
:1013E00077E00E94470701C081E02F96E2E00C946D
:1013F000ADE08091D70482FF12C08091D7048B7F2B
:101400008093D7048091D70480618093D704E091C2
:10141000D804F091D904309711F081E009958091BA
:10142000D70484FF29C0669B16C08091D7048F7EA5
:101430008093D7048091D7048E7F8093D704E09166
:10144000DA04F091DB04309711F081E0099586E031
:101450000E94D32911C08091F20481608093F2042C
:101460002FB7F8948091390A90913A0A916090933D
:101470003A0A8093390A2FBF8091D70483FF12C0A4
:101480008091D704877F8093D7048091D7048062AE
:101490008093D704E091D804F091D904309711F0EB
:1014A00082E009958091D70485FF29C0679B16C00B
:1014B0008091D7048F7D8093D7048091D7048D7F4E
:1014C0008093D704E091DA04F091DB04309711F0B7
:1014D00082E0099587E00E94D32908958091F20463
:1014E00081608093F2042FB7F8948091390A90912B
:1014F0003A0A916090933A0A8093390A2FBF08956F
:101500001F93182F8091DC04882351F46B9A0E945A
:101510003F25882311F0739801C0739A579A5F9AF8
:1015200081E090E002C0880F991F1A95E2F72091A0
:10153000DC04282B2093DC041F910895813049F0AE
:10154000813018F0823031F402C02D9A08952F9A1C
:1015500008952E9A0895813049F0813018F0823034
:1015600031F402C02D9808952F9808952E9808956B
:10157000259A269A279A84E00E94800A80E008959E
:101580006091DE0470E080E090E026EA3EE040E01A
:1015900050E00E942CE0DC01CB01892F9A2FAB2F69
:1015A000BB2721E02093DD04E091DF04F091E0040B
:1015B000099508950E941C2A1092EC046091760A05
:1015C0007091770AE0917B0AF0917C0A80917A0A07
:1015D00009950895A9E0B0E0E0EFFAE00C948DE001
:1015E0000E941C2A8091ED04843049F0853009F472
:1015F0007AC0833009F077C01092ED0477C01A8268
:101600001B821C821D821E821F821886198681E021
:101610008093ED046091EE048091EF04862387FFB0
:1016200065C070E06F777070660F771F6D547C4FE8
:10163000CE01029642E050E00E9429E16091EF0461
:1016400070E06F777070660F771F6D547C4FCE011E
:10165000069642E050E00E9429E12A813B814C81BC
:101660005D81211531054105510509F43FC06E81A9
:101670007F81888599856217730784079507B0F580
:10168000E7E0660F771F881F991FEA95D1F70E9440
:101690005FE030E02E5C3C4FCE010196B90141E0A5
:1016A00050E00E9429E1698170E080E090E02A81A9
:1016B0003B814C815D81EE80FF80088519852E1964
:1016C0003F09400B510B0E942CE0672F782F892F88
:1016D000992787E06733780720F091E066E377E0A9
:1016E00008C091E006C081E08093ED0490E060E0E6
:1016F00070E080E0911181E0E091F004F091F1045C
:1017000009952996E6E00C94A9E08091F20480FF07
:1017100007C08091F2048E7F8093F2040E94F90941
:101720008091F20481FF07C08091F2048D7F809345
:10173000F2040E94DA0A8091F20482FF07C08091CD
:10174000F2048B7F8093F2040E94EA0A8091F204F3
:1017500083FF07C08091F204877F8093F2040E9488
:10176000C00A8091F204882361F02FB7F894809129
:10177000390A90913A0A916090933A0A8093390A13
:101780002FBF0895E7EFF2E188E3DF011D928A950C
:10179000E9F7B19610921813118212821382148203
:1017A00015821682178285E0809322138FE793E1DA
:1017B0006BE175E04AE850E00E9429E188EC92E193
:1017C00065EA75E04FE250E00E9429E18FEB92E17B
:1017D00064ED75E049E050E00E9429E18FE293E179
:1017E0006DED75E040E550E00E9429E182E498E06B
:1017F000EDE7FAE0DF019C011D9221503040E1F756
:101800000895109218131092191310921A1310922F
:101810001B1310921C1310921D1310921E13109282
:101820001F1343E040933313E0E6F3E12AEA2093E9
:1018300060132183228323832483258326832783A4
:1018400080E090E8A0E0B0E08093C8129093C912C5
:10185000A093CA12B093CB121092F11331E03093DF
:10186000E9133093431310924413309345138DEDD5
:101870009DED909335138093341310923A1381E0C9
:1018800090E09093F4138093F3131092EC13109262
:1018900069138FEF9FEF9093801380937F131092C3
:1018A00088131092F7131092F8131092F9131092F4
:1018B000FA131092FB131092FC131092FD13109266
:1018C000FE131092391310927C132093C0122093B0
:1018D000C1122093C2122093C3122093C4122093EA
:1018E000C5122093C6122093C71210927E1388E06F
:1018F0008093F013409337134093381330937D1344
:1019000010922E0B10922D0B8EE0E6E5FFE0DF012A
:101910001D928A95E9F785E08093021430930314B1
:1019200080E00E942C740895A4E0B0E0EAE9FCE0B5
:101930000C9491E0682F70E0660F771F660F771F99
:10194000615B794FCE01019644E050E00E9429E1AD
:1019500069817A818B819C812496E2E00C94ADE0D0
:10196000CF93DF93EB010E94940C009719F4CB0105
:1019700068839983DF91CF910895CF93DF93EB0133
:101980006115710589F0803378F406C0CB01BE0182
:10199000422F0E943FE108C00E94940C592F282F2B
:1019A000392F2115310591F7DF91CF9108951F93BC
:1019B000CF93DF93182FEB016115710571F00E9431
:1019C000940C9B01AC01103328F0CE01B9010E94A8
:1019D00029E103C0CE010E943FE1DF91CF911F9129
:1019E00008950E94C20B0E94A4080895CF93DF932C
:1019F000EC010E94FD12FC01009751F08CE09DE08B
:101A00009587848712868F818387CF010E94D13882
:101A10001A82DF91CF910895CF93DF93EC01E0918B
:101A20008904F0918A040995DC010097B1F083E004
:101A300090E014969C938E9313978DE590E0169604
:101A40009C938E931597888117968C931797E091A6
:101A50002714F0912814CD010995CE010E941F137F
:101A6000DF91CF910895CF93DF93EC01E09189044A
:101A7000F0918A040995DC010097B1F083E090E0D1
:101A800014969C938E9313978FE590E016969C93F3
:101A90008E931597888117968C931797E09127144A
:101AA000F0912814CD010995CE010E941F13DF91FA
:101AB000CF9108950F931F93CF93DF938C01E09103
:101AC0008904F0918A0409959C01DC011796F801BC
:101AD000B197808DE9018F83818D11968C93119739
:101AE000828D12968C931297838D13968C931397F5
:101AF000848D14968C931497858D15968C931597D9
:101B0000868D16968C931697878D17968C931797BC
:101B100080A118968C931897F801808119968C9360
:101B20008CE090E09C838B838FEB90E09E838D8391
:101B3000E0912714F0912814C9010995C8010E9469
:101B40001F13DF91CF911F910F910895CF93DF93D2
:101B5000EC010E94FD12FC01009739F083E39DE047
:101B600094838383CF010E94CA381A82DF91CF9178
:101B70000895CF93DF93EC01E0918904F0918A04FA
:101B80000995DC018AEA90E016969C938E9315974E
:101B900084E090E014969C938E9313978F8118960F
:101BA0008C93189717961C9217978F81863C21F477
:101BB00089858093BF1204C08AEA17968C93179781
:101BC000E0912714F0912814CD010995DF91CF9170
:101BD00008950F931F938C01E0918904F0918A047A
:101BE0000995DC0188EA90E016969C938E931597F0
:101BF00085E090E014969C938E931397F80187816B
:101C000018968C93189717961C9217978781863C85
:101C100079F413968D919C911497019614969C9348
:101C20008E9313978091BF121A968C931A9704C0C3
:101C30008AEA17968C931797E0912714F09128144D
:101C4000CD0109951F910F910895EF92FF920F9387
:101C50001F93CF93DF938C0185EEE82E8FEFF82E44
:101C6000E00EF11EE0918904F0918A040995DC01EF
:101C700081EA90E016969C938E931597F7018281E6
:101C800017968C931797ED01289682818230A1F0E8
:101C9000833021F59E01A8014651504088E0FA01A9
:101CA0000190AF01F90101929F018150C1F7F70145
:101CB00085858887299612C008511040F8018081D7
:101CC0009181085E1F4F19969C938E931897F70188
:101CD00085851A968C931A97ED012B96F7018289C8
:101CE000FE0181939F01F801808189832A1B3B0BB0
:101CF0002450304014963C932E931397E091271470
:101D0000F0912814CD010995F701858996890E94E3
:101D10001F13C8010E941F13CDB7DEB7E6E00C9475
:101D2000A9E0A8E0B0E0E7E9FEE00C948AE07C01DD
:101D3000B62EE0918904F0918A0409956C01809196
:101D4000F3048F5F8093F30482EA90E0D601169645
:101D50009C938E931597F701828117968C93179712
:101D600018968281823049F483819481D601199634
:101D70009C938E9318971A9610C0833071F49D012E
:101D8000A7014B5F5F4F88E0FA010190AF01F901B5
:101D900001929F018150C1F71896F7018585FD01D9
:101DA00081939F01F701868511968C931197878502
:101DB0009089F90192838183FD013496D7011E96A3
:101DC0008C91833071F49F01A7014F5E5F4F88E0D3
:101DD000DA010D90AD01D9010D929D018150C1F73D
:101DE00016C08FEF89838A838B838C838D838E8348
:101DF0008F8388879F01AE014F5F5F4F88E0DA01D4
:101E00000D90AD01D9010D929D018150C1F7D7010F
:101E10005B968C915B9780875C968D919C915D978A
:101E2000928781875E968D919C915F979487838737
:101E300090968D919C919197968785878F01015FF0
:101E40001F4F92966C91929793967C919397909650
:101E50004D915C919197C8010E943FE1F70120A14B
:101E600031A1200F311FF9011192D70195968C9164
:101E7000D90111968C93EC19FD093497D60114966B
:101E8000FC93EE931397E0912714F0912814C60168
:101E90000995F701868D978D83309105E9F084309F
:101EA000910530F48130910569F0029741F50FC03A
:101EB0008D319105D9F0F0E180309F07E1F04C972A
:101EC000F1F40FC0C7016B2D0E94371118C0C70174
:101ED0006B2D0E942C1113C0C7016B2D0E94A711FE
:101EE0000EC0C7016B2D0E94C21109C0C7016B2D26
:101EF0000E94F71104C0C7016B2D0E94EF142896B1
:101F0000E9E00C94A6E00F931F93CF93DF938C012D
:101F10000E94FD12FC01D8011796E8018F81808F85
:101F200011968C911197818F12968C911297828FB6
:101F300013968C911397838F14968C911497848F9A
:101F400015968C911597858F16968C911697868F7E
:101F500017968C911797878F18968C9180A38AE596
:101F60009DE093A382A3CF010E945138DF91CF91CE
:101F70001F910F9108950F931F93CF93DF938C01BF
:101F80000E94FD12DC01F8013796E8018F81599615
:101F90008C93599781815A968C935A9782815B963C
:101FA0008C935B9783815C968C935C9784815D9620
:101FB0008C935D9785815E968C935E9786815F9604
:101FC0008C935F97878190968C939097808591965C
:101FD0008C939197ED01A296F80170968AE1019099
:101FE00009928150E1F781E090E1DE969C938E9317
:101FF000DD97CD010E948538DF91CF911F910F9120
:102000000895A0E0B0E0E7E0F0E10C948BE06C0113
:10201000E0918904F0918A0409957C018C01095FA3
:102020001F4FE601EC97F6018081882351F489A1C6
:10203000813011F0853029F4CE0183966AA10E9487
:102040008268898DF80180838A8D81838B8D82835C
:102050008C8D83838D8D84838E8D85838F8D8683F8
:1020600088A1878389A18087F6018081F801818713
:102070008CE090E0F7019483838385EB90E0968376
:102080008583E0912714F0912814C7010995C601B2
:102090000E941F13CDB7DEB7E8E00C94A7E0EF92E3
:1020A000FF920F931F93CF93DF938C010E94FD1239
:1020B000EC0180E2FE0111928A95E9F70E94FD127F
:1020C0009C0185E29EE09A8F898FF80187818A833F
:1020D000A801485F5F4F833059F4DE011596FA017D
:1020E00088E001900D928150E1F7FA01389606C020
:1020F000F801808591859C838B833A9680818D87BA
:10210000818192819F878E8783819481998B888B2F
:1021100085818A8B468157814B8B5C8B98E0E92EB9
:10212000F12CEE0EFF1E8901025D1F4FC801B701A1
:102130000E943FE11E8B0D8BEB89FC89EE0DFF1D8C
:1021400080818F708F8B8181888FCE010E940639AC
:10215000CDB7DEB7E6E00C94A9E0FC01608381E036
:102160009FE7928381838FEF9FEF94838383158210
:1021700088E086838BE292E09087878389E081877D
:102180008BE392E0938782870895089508950F93D3
:102190001F93CF93DF93182F092FE0918904F091BB
:1021A0008A040995FC0188E690E096838583128273
:1021B000EF012796212F302FC901DC018AE20D9013
:1021C00009928150E1F7CF010E94D816DF91CF919B
:1021D0001F910F910895E0918904F0918A04099567
:1021E000FC0187E690E0968385831282CF010E94EE
:1021F000D816089584EF94E061E00E94AD1080E06D
:1022000095E060EF0E94AD108CE095E06FEE0E94CB
:10221000AD1083E192E00E94D8388BE192E00E94F9
:10222000D83883E292E00E94D8380E94F2298131A6
:1022300031F41092091480E090E00E94581708953C
:102240006FEE0E94910E089560EF0E94910E089526
:1022500061E00E94910E08951092190510921805E0
:102260008FEF9FEF90931B0580931A050895FC0153
:1022700020A131A12430310500F102A0F3A1E02D0D
:1022800041815281808190E0215030408217930734
:10229000A1F480911A0590911B058417950769F0A8
:1022A00080911805909119050196909319058093D6
:1022B000180550931B0540931A050895A0E0B0E05F
:1022C000E4E6F1E10C948BE08C017B01C42ED22E6C
:1022D0000E94FD12EC010E94FD129E8B8D8BF80175
:1022E00086858A83833089F481898D8382898E8370
:1022F00083898F83848988878589898786898A8766
:1023000087898B87808D8C8705C0F80187859089A8
:102310009C838B83F801838D8D8781E09FE79F8766
:102320008E87F98AE88ADA8ACB8A1C8A8D899E8907
:102330008E969E8B8D8B1F8A188E8CE292E19A8FDF
:10234000898FCE01CDB7DEB7E8E00C94A7E0FC01A1
:10235000262F80A191A1892BA1F4CF0164E070E028
:1023600042E00E945E11DC015596ED91FC9156977A
:10237000809118059091190591838083CD010E9469
:10238000063908950F931F93CF93DF93FC01262FF7
:1023900080A191A1892B31F102A113A1D8014C9107
:1023A0004E5FCF0164E570E00E945E11EC01AD89E3
:1023B000BE8911961C921197F80180818C938B89AC
:1023C0009C898E34910558F490E005C0FD01E90F19
:1023D000F11D92839F5FF80180819817B8F3CE01B9
:1023E0000E940639DF91CF911F910F9108950F93AD
:1023F0001F93CF93DF93FC01262F80A191A101971A
:1024000031F502A113A1D8014C914E5FCF0165E5D2
:1024100070E00E945E11EC01AD89BE8911961C929C
:102420001197F80180818C938B899C898E3491055A
:1024300058F490E005C0FD01E90FF11D92839F5F04
:10244000F80180819817B8F3CE010E940639DF9118
:10245000CF911F910F910895CF93DF93FC01EC0171
:102460006B974D899E8980818823C1F0E42FF92FD5
:10247000288939892435310519F02535310571F45C
:102480008181882359F481E08183108282E090E089
:102490009C8B8B8BCE010E94063906C0842F0E9434
:1024A0001F13CE010E941F13DF91CF910895EF9269
:1024B000FF920F931F93CF93DF938C010E94FD1225
:1024C000EC0187E0E82EF12CE00EF11EF801878187
:1024D0008887F70121812987828193819B878A8759
:1024E000223029F4848195819D878C8713C0233005
:1024F00089F4F70186818C8787818D8780858E8717
:1025000081858F878285888B8385898B84858A8B5B
:1025100085858B8BF7018685888F87858F8B808952
:102520008C8B0E94FD128D8B9E8BF7014089970149
:102530002F5E3F4FB90150E00E943FE18AEA92E1ED
:102540009A8F898FCE010E94E34DCDB7DEB7E6E0CA
:102550000C94A9E0EF92FF920F931F937C018C01E2
:102560000B511040E0918904F0918A040995FC0117
:1025700086E090E096838583D80157968C9180877A
:10258000D70111968C91878384E090E094838383B4
:102590002091271430912814CF01F9010995C80121
:1025A0000E941F13F801858996890E941F131F91AD
:1025B0000F91FF90EF90089580911C058823D1F42E
:1025C0000E94B80A80E00E94AB0A81E00E94AB0A38
:1025D00082E00E949E0A81E080931C050E94F12205
:1025E00080E068ED76E10E945C230E94FA100E9470
:1025F0005F1B08950E94EA16089580911D058823A7
:1026000019F440E050E009C08091FC05882319F0DE
:1026100020E030E012C041E050E08FED90E0489FB4
:102620009001499F300D589F300D1124F901E35E50
:10263000FA4F81E08083205E3A4FC901089525E07A
:102640008D319207B9F0B0F08D5195406FED70E08B
:102650000E944BE0623070F4262F30E08FED90E066
:10266000289FF001299FF00D389FF00D1124E35EA3
:10267000FA4F108208950F931F93E0918904F0910F
:102680008A0409958C010E940D64F80167837087A4
:102690008187928786E090E09483838386E990E047
:1026A00096838583E0912714F0912814C801099539
:1026B0001F910F910895FC012781308560E081858D
:1026C000811161E0C9010E940D7D08950E94FD12F3
:1026D000FC01009739F083E793E197878687CF0164
:1026E0000E94216D08950F931F938C01E09189043E
:1026F000F0918A040995FC0183E090E09483838340
:1027000084E790E096838583D8018C91878320911C
:10271000271430912814CF01F9010995C8010E94AE
:102720001F131F910F9108950F931F93CF93DF9362
:102730008C01E0918904F0918A040995DC01FC0187
:1027400037968EE090E014969C938E93139787E7CC
:1027500090E016969C938E931597E80188811796C2
:102760008C93179789819A81928381838B8183834C
:102770008C8184838D8185838E8186838F818783FD
:1027800088858087898581878A8582878B858387ED
:10279000E0912714F0912814CD010995C8010E94F9
:1027A0001F13DF91CF911F910F910895CF93DF9366
:1027B000EC01E0918904F0918A040995DC0100970D
:1027C000B1F083E090E014969C938E9313978EE77C
:1027D00090E016969C938E931597888117968C930C
:1027E0001797E0912714F0912814CD010995CE0197
:1027F0000E941F13DF91CF910895CF93DF93EC01D7
:10280000E0918904F0918A040995DC010097E9F0D0
:10281000FC01379686E090E014969C938E93139774
:1028200081E990E016969C938E9315978881179670
:102830008C93179789818183898182831382E091A8
:102840002714F0912814CD010995CE010E941F1381
:10285000DF91CF9108950F931F938C01E09189042C
:10286000F0918A040995FC0183E090E094838383CE
:102870008AE890E096838583D8018C9187832091A4
:10288000271430912814CF01F9010995C8010E943D
:102890001F131F910F9108950F931F93CF93DF93F1
:1028A0008C010E94FD12EC01009761F1F80137964E
:1028B00084E993E19A8B898BD80117968C918A834E
:1028C00081818B8382818C8383818D8384818E83BC
:1028D00085818F83868188878781898780858A879C
:1028E00081859285A385B4858B879C87AD87BE87BC
:1028F00085858F8790E08685811191E0988BCE0148
:102900000E949E6DDF91CF911F910F9108950F93BB
:102910001F93CF93DF938C010E94FD12EC0100976F
:1029200061F00E945B74F80180858B8386ED93E1F2
:102930009D838C83CE010E944B6DDF91CF911F91BF
:102940000F910895EF92FF920F931F937C01E091F6
:102950008904F0918A0409958C0183E090E0F801E4
:102960009483838381E890E096838583F701878150
:102970000E947263F8018783E0912714F091281474
:10298000C80109951F910F91FF90EF900895CF9383
:10299000DF93EC010E94FD12DC010097E9F0FE01DB
:1029A00037968F8112968C9312978181928114961B
:1029B0009C938E931397838115968C93159784819E
:1029C00016968C9316978DEF93E118969C938E93A1
:1029D0001797CD010E94316DDF91CF9108950F932C
:1029E0001F93CF93DF93FC01262F80A191A1049721
:1029F00019F5C2A1D3A188818823F1F0CF0161E04C
:102A000070E141E00E945E118C010E94FD12FC0108
:102A1000339712830183339681E295E19087878310
:102A20008881828389819A81948383838B81858342
:102A30001682CF010E94316DDF91CF911F910F91CE
:102A400008950F931F93CF93DF938C010C50104088
:102A5000E801A981BA81045F1F4F5596ED91FC9161
:102A60005697E80188818083CD010E940639C8010C
:102A70000E941F13DF91CF911F910F910895EF9244
:102A8000FF920F931F937C010E94FD128C01B701EE
:102A9000695F7F4F84E10E94BD0CF7018781F801D7
:102AA00082838BE294E194838383C8010E945B6DEF
:102AB0001F910F91FF90EF900895EF92FF920F9367
:102AC0001F937C01E0918904F0918A0409958C019F
:102AD00084E090E0F801948383838FE890E096830C
:102AE0008583F701878190850E94E162F8019087D4
:102AF0008783E0912714F0912814C80109951F914C
:102B00000F91FF90EF900895A8E0B0E0EAE8F5E1BA
:102B10000C9487E04C0187E0E82EF12CE80CF91CBE
:102B2000E0918904F0918A0409956C018C01095F98
:102B30001F4F8CE090E0D60114969C938E931397D0
:102B40008FE690E016969C938E931597F401A780DC
:102B5000B084FFEFAF16FFEFBF0609F052C0D701F8
:102B600012968C911297898313968C9113978A836E
:102B700014968C9114978B8315968C9115978C8352
:102B800016968C9116978D8317968C9117978E8336
:102B900018968C9118978F8319968C918887CE01FF
:102BA00001960E94E08FFC01009731F080819181B5
:102BB000F8019183808303C0D801AD92BC92F701E4
:102BC0008281D80112968C931297838113968C93ED
:102BD0001397848114968C931497858115968C9302
:102BE0001597868116968C931697878117968C93E6
:102BF0001797808518968C931897818519968C93D2
:102C000038C0C5010E947579FC01009709F18081E7
:102C1000D80112968C931297818113968C931397F7
:102C2000828114968C931497838115968C931597B3
:102C3000848116968C931697858117968C93179797
:102C4000868118968C931897878119968C9309C062
:102C5000F80112821382148215821682178210865E
:102C60001186D40117968D919C911897F801918344
:102C70008083E0912714F0912814C60109952896C5
:102C8000ECE00C94A3E00F931F93CF93DF938C01A0
:102C90000E94FD12FC019801295F3F4FD801179651
:102CA0008C91818FE90189819A81AB81BC81828F6E
:102CB000938FA48FB58F8FE696E1978F868FCF0184
:102CC000869694A383A386E082A38D8185A3CF01FA
:102CD0000E94BE6DDF91CF911F910F9108950F93C8
:102CE0001F93CF93DF938C01E0918904F0918A04C4
:102CF0000995EC01009769F184E090E09C838B8357
:102D0000F801818190E024E0880F991F2A95E1F76E
:102D100004969C838B8387E890E09E838D838081DB
:102D20008F8381818887AE01475F5F4F218130E0CB
:102D300094E0220F331F9A95E1F763817481CA01F1
:102D4000A9010E943FE1E0912714F0912814CE01DF
:102D50000995C8010E941F13DF91CF911F910F9118
:102D60000895AEE0B0E0E7EBF6E10C9491E0FC01F1
:102D70008EE0DF011D928A95E9F789E190E0918369
:102D8000808382818460828386E086838DE492E002
:102D900090878783CF012E96E2E00C94ADE00E94ED
:102DA000011C08950E94011C08950E94011C0895B1
:102DB000BC018DED96E00E94C5942FB7F8948091E8
:102DC000390A90913A0A946090933A0A8093390AAA
:102DD0002FBF0895CF92DF92EF92FF921F93CF9370
:102DE000DF938FE0C82ED12C53C08DED96E00E946A
:102DF000DD94F701858180930914F092DC06E0925E
:102E0000DB0681E00E94AB0AC7EDD7E08FED96E0CC
:102E1000BE0143E050E00E9429E19091DF068091DD
:102E20000914981749F4E091E006F091E106C70112
:102E300009951092DF0605C02396F8E0CC34DF0731
:102E400029F78091DF068823E9F082E00E94AB0A2F
:102E500010910914E0918904F0918A040995FC010C
:102E6000D682C58283E090E0948383831783209188
:102E7000271430912814CF01F90109951092DC062E
:102E80001092DB06E0918B04F0918C04C701099548
:102E9000E090DD06F090DE06E114F10409F0A5CF24
:102EA000DF91CF911F91FF90EF90DF90CF90089529
:102EB000E0918904F0918A040995FC0183E090E097
:102EC0009483838381E190E09683858317822091A8
:102ED000271430912814CF01F901099508950E9413
:102EE000FD12FC018AE797E1938B828BCF010E9450
:102EF000CAB308950F931F938C01E0918904F09158
:102F00008A040995FC0185E090E09483838387E13E
:102F100090E096838583D8011F968C911F978783B5
:102F200011968D919C9112979187808720912714FB
:102F300030912814CF01F9010995C8010E941F138F
:102F40001F910F910895A1E0B0E0E9EAF7E10C9438
:102F50008BE08C01E0918904F0918A0409957C0151
:102F600087E0C82ED12CCE0CDF1CF8018781898325
:102F7000833010F021E007C08EE1BE016F5F7F4F0C
:102F80000E94BD0C20E084E090E0F70194838383ED
:102F900084E690E0968385838981F601808321838E
:102FA000E0912714F0912814C70109952196E8E0D3
:102FB0000C94A7E00F931F938C0180E00E949E0A5F
:102FC000F8018781882321F40E9470080E947C0800
:102FD000E0912914F0912A1409950E94F529FFCF58
:102FE0008F929F92AF92BF92CF92DF92EF92FF9219
:102FF0001F93DF93CF93CDB7DEB76E970FB6F894DC
:10300000DEBF0FBECDBF6C01FC01138187E090E0F5
:10301000C80ED91EE0918904F0918A0409955C01DB
:1030200027E0822E912C880E991E96E0E92EF12C35
:10303000EC0EFD1EF601418189EF9FEFC80ED91EEF
:103040009601275F3F4FC701B90150E00E943FE161
:10305000F60187818C3A09F485C08D3A90F58E3857
:1030600009F4B7C08F38B0F4823009F499C08330C6
:1030700038F4882309F4B4C0813009F04FC0B4C0DB
:10308000823509F492C08F3609F494C0853009F076
:1030900045C0DAC08B3909F492C08C3948F48739BD
:1030A00009F466C08A3909F48FC08639B9F5A0C021
:1030B000883A09F4A5C08B3A09F464C0813A71F5E5
:1030C000BFC0873F09F4A4C0883F98F4873C09F447
:1030D000B3C0883C28F4833C19F1843CF9F43DC02A
:1030E000893C09F454C0893C08F455C08D3DB1F4C5
:1030F00027C08C3F09F494C08D3F48F4893F09F400
:1031000097C0893F08F488C08B3F41F436C08E3F9A
:1031100009F47AC08F3F08F09EC086C022E0A0C0AC
:10312000183009F09CC08E819F81A885B9858A835B
:103130009B83AC83BD8386E1BE016E5F7F4F09C078
:10314000153009F08CC08E8189838AE0BE016F5FE3
:103150007F4F0E94BD0C20E083C01C3009F07FC06F
:1031600085E104C0153009F07AC081E1B701F1CFE3
:10317000153009F074C082E1F9CF153009F06FC045
:1031800084E165C0183009F06AC087E1EFCF1830DC
:1031900009F065C0E0CF183009F061C088E1E6CFE2
:1031A000153009F05CC083E0E1CF153009F057C05D
:1031B0008AE1DCCF1C3009F052C080E0D7CF153057
:1031C00009F04DC08BE0D2CF1C3009F048C085E03B
:1031D000CDCF153009F043C08E810E94A55FBBCFD3
:1031E0001530E9F58EE0C2CF1630C9F58FE0BECFBD
:1031F0001630A9F58E819F8160E00E940D7DABCFD6
:10320000153069F589E0B2CF153049F581E2AECFCE
:10321000153029F584E0AACF153009F580E1A6CF55
:103220001530E9F485E2A2CF1830C9F484E29ECFCC
:103230001530A9F48AE29ACF153089F48DE296CF41
:10324000143169F489E203C01C3049F48EE2BE01F6
:103250006A5F7F4F7ECF8E81809365027CCF21E0B5
:1032600084E090E0F5019483838383E190E096838A
:103270008583F4012083F6018781F4018183E09145
:103280002714F0912814C50109956E960FB6F8948D
:10329000DEBF0FBECDBFCF91DF911F91FF90EF90AA
:1032A000DF90CF90BF90AF909F908F900895A5E250
:1032B000B0E0EDE5F9E10C9487E04C01E091890480
:1032C000F0918A0409956C0137E0A32EB12CA80E69
:1032D000B91EF40187818A3A09F450C08B3A40F54F
:1032E000803809F499C0813880F4853009F47FC0B2
:1032F000863020F4823009F0ADC07BC0823509F4FD
:103300007AC08F3609F0A6C078C08A3909F479C02E
:103310008B3938F4863909F47DC0873909F09AC0B1
:103320004CC08B3909F46BC0813A09F093C056C088
:10333000883C09F44FC0893C80F4833C11F1843C03
:1033400030F48B3AF1F18C3A09F084C034C0843CFB
:1033500081F1873C09F07EC03FC08A3F09F46DC00F
:103360008B3F30F4893C99F18D3D09F073C018C052
:103370008B3F29F18E3F09F06DC057C010E005E08A
:103380006BC086E1BE016B5F7F4F0E94D70C8D81C1
:103390009E81AF81B88589879A87AB87BC8755C0E6
:1033A0008AE0BE016B5F7F4F0E94D70C8D818D87B5
:1033B00042C085E127C081E139C082E137C084E1A4
:1033C00035C087E1BE01635F7F4F0E94D70C10E0DC
:1033D00009E042C088E1F6CF8DE228C089E2BE0153
:1033E000635F7F4F0E94D70C10E005E135C08EE28D
:1033F00009C083E01BC08AE119C080E003C08BE0F4
:1034000015C085E0BE01635F7F4F0E94D70C10E0BE
:103410000DE022C086E001C08FE0BE01635F7F4FF8
:103420000E94D70C10E007E017C081E2BE01635F85
:103430007F4F0E94D70C10E00EC081E191E0A0E028
:10344000B0E089839A83AB83BC838D879E87AF87E7
:10345000B88BBDCF12E006E0E02EFF2495012D5F72
:103460003F4FF7013597AE01435F5F4FC901BA0186
:10347000AF010E943FE1F601F482E38285E190E032
:1034800096838583F5011083F4018781F50181839B
:1034900005500283E0912714F0912814C601099584
:1034A0001092DC061092DB06A596ECE00C94A3E0EB
:1034B0000F931F93CF93DF938C010E94FD12FC01A9
:1034C000D801179618968C911897828319968C912B
:1034D000199783831A968C911A9784831B968C91E3
:1034E0001B9785831C968C911C9786831D968C91C7
:1034F0001D9787831E968C911E9780871F968C91AF
:103500001F978187E8018F81828711968C9111978F
:10351000838712968C911297848713968C911397B8
:10352000858714968C911497868715968C9115979C
:10353000878716968C911697808B17968C91818B26
:103540008CEA9AE1938B828BCF010E94959BDF914D
:10355000CF911F910F9108950F931F93CF93DF93F6
:103560008C01E0918904F0918A0409959C01DC01A9
:103570001796F80174978FE990E0E9019E838D8397
:1035800083E190E09C838B83E801888150968C9343
:103590005097828118968C931897838119968C93F3
:1035A000199784811A968C931A9785811B968C9310
:1035B0001B9786811C968C931C9787811D968C93F4
:1035C0001D9780851E968C931E9781851F968C93E0
:1035D0001F978285E9018F83838511968C931197BC
:1035E000848512968C931297858513968C931397E6
:1035F000868514968C931497878515968C931597CA
:10360000808916968C931697818917968C93E091F2
:103610002714F0912814C9010995C8010E941F13AD
:10362000DF91CF911F910F9108950F931F93CF9327
:10363000DF938C01E0918904F0918A040995DC0103
:10364000FC01379686EB90E016969C938E93159727
:1036500086E190E014969C938E931397E8018881FD
:10366000838B17961C9217971182128213821482F1
:10367000158216821782108611861286138614868A
:10368000158616861786128A118A108AE0912714E9
:10369000F0912814CD010995C8010E941F13DF91F4
:1036A000CF911F910F9108950E94FD12FC0185E1B9
:1036B0009BE193838283CF010E947C9B08950895B0
:1036C0000F931F938C01E0918904F0918A0409956E
:1036D000FC01D8018C91878385E490E096838583F3
:1036E00083E090E094838383209127143091281401
:1036F000CF01F90109951F910F9108950F931F9321
:103700008C01E0918904F0918A040995FC01D801AB
:103710008C91878384E990E09683858383E090E0B1
:10372000948383832091271430912814CF01F901C9
:1037300009951F910F910895A1E0B0E0E2EAFBE145
:103740000C9487E07C018C01095F1F4FE091890494
:10375000F0918A0409954C01F801C480CC2049F508
:1037600097E0C92ED12CC80CD91C8CE0A82EB12C06
:10377000A80CB91C6181728125813681F70187818E
:10378000F80143818E010F5F1F4F75010E943FA119
:10379000F4018783F60111828981848325E530E075
:1037A000F40136832583B5010E9455A50896F401DE
:1037B0001CC0F1E0CF16D9F4F80161817281258136
:1037C0003681F7018781F80143810781EFE0F0E05E
:1037D000EE0EFF1E0E9417A1F4018783C08685E5C7
:1037E00090E09683858384E090E094838383E091E6
:1037F0002714F0912814C40109952196ECE00C944B
:10380000A3E0A0E0B0E0E7E0FCE10C948AE08C01EA
:10381000B62E6A01E0918904F0918A0409957C0131
:10382000FC013796D8011E968D919C911F97918B24
:10383000808BD6018E916D010894C11CD11C838BA5
:10384000D8018C91D70117968C93D80111968D9140
:103850009C9112979283818313968C911397838303
:1038600014968C911497848315968C911597858363
:1038700016968C911697868317968C911797878347
:1038800018968C911897808719968C911997818733
:103890001A968C911A9782871B968D919C911C97F2
:1038A000948783871D968C911D9785871E968D9191
:1038B0009C911F979787868750968C91828BCB2DF2
:1038C000D0E09701255E3F4FC901B6014B2D50E076
:1038D0000E943FE186E490E0F70196838583669637
:1038E000D483C383E0912714F0912814C70109956C
:1038F00080E0CDB7DEB7E9E00C94A6E0CF93DF938C
:10390000FC01EC012796A381B48157978B898093A2
:10391000C90887818093B5088781823039F489810D
:103920009A819093B7088093B6081AC08330C1F487
:103930008B818093B8088C818093B9088D818093A6
:10394000BA088E818093BB088F818093BC088885DC
:103950008093BD0889858093BE088A858093BF08BF
:103960008F8598899093C4088093C3088A89817051
:103970008093C5088E858093C2088B859C85909323
:10398000C1088093C0088D858093C808A093CA0899
:1039900022EE37E03093CD082093CC0889898093BC
:1039A000CB08AE014B5E5F4FC901BA01AD010E9469
:1039B0003FE18A892EE73BE181FF0FC080E29DE174
:1039C0009093B2088093B1083093B4082093B30861
:1039D0008AEA98E00E94D7A30EC080E69BE190930C
:1039E000B2088093B1083093B4082093B3088AEAF0
:1039F00098E00E94C7A3DF91CF910895A6E0B0E0C0
:103A0000E4E0FDE10C948DE089836A835C834B8361
:103A100000E010E07E010894E11CF11C0F5F1F4FD5
:103A20001E821D82C7010E94B7A68823B9F38D3F6D
:103A300011F000E010E0C8012696E6E00C94A9E041
:103A4000A2E0B0E0E6E2FDE10C9489E07C01E091C7
:103A50008904F0918A0409958C0137E0A32EB12CDA
:103A6000A80EB91ED7015C968C915C9789838C91C6
:103A7000F80187832AE0C22ED12CC00ED11E1196E8
:103A80004C91119712966C91129713967C91C601E6
:103A900050E00E943FE18981882311F481E003C056
:103AA000823019F484E0898341C0863011F487E0C4
:103AB000FACF883011F489E0F6CF8C30B9F58DE07B
:103AC0008983D7018C91F50180838981D80118966B
:103AD0008C93D7011296ED91FC9113978081F80198
:103AE000818711966C911197615012964D915C915E
:103AF00013974F5F5F4F89810E94FE1C8A83D60116
:103B00008C93A801455F5F4FD7011196EC911197F7
:103B1000F0E0319712962D913C9113972F5F3F4F14
:103B2000CA01B901AF010E943FE10EC0F701428115
:103B30005381898161810E94FE1CD50112968C936C
:103B40001297898111968C9383E490E0F801968313
:103B50008583D70111968C9190E005969483838399
:103B6000E0912714F0912814C80109952296EAE003
:103B70000C94A5E0A0E0B0E0E0ECFDE10C9488E05E
:103B80007C01962EB42EA52EE0918904F0918A0432
:103B900009956C018C01095F1F4FF7018685978598
:103BA000F801918B808BF7018081F6018783F70103
:103BB00081819281F80192838183F7018381F801E9
:103BC0008383F7018481F8018483F7018581F801FB
:103BD0008583F7018681F8018683F7018781F801E3
:103BE0008783F7018085F8018087F7018185F801D7
:103BF0008187F7018285F8018287F70183859485A3
:103C0000F80194878387F7018585F8018587F70197
:103C100086859785F801978786878AE0692D4B2DE1
:103C20005A2D0E94FE1CF801828B938AC92DD0E088
:103C30009601255E3F4FC9016B2D7A2D492D50E02D
:103C40000E943FE187E490E0F601968385836696C3
:103C5000D483C383E0912714F0912814C6010995F9
:103C6000CDB7DEB7EBE00C94A4E02F923F925F92C9
:103C70006F927F928F929F92AF92BF92CF92DF927C
:103C8000EF92FF920F931F93DF93CF93CDB7DEB7E1
:103C90002E970FB6F894DEBF0FBECDBF1C0157E0C4
:103CA000A52EB12CA80EB91EE0918904F0918A04CA
:103CB00009954C01F50156808581580EF0E1F51506
:103CC00050F0D501E2ECF7E0252D30E0220F331F54
:103CD0002E0F3F1F11C022EEC22E26E0D22E92ECF4
:103CE000692E97E0792EEE24FF2472C015968D91EF
:103CF0009C911697819391931296E217F307B1F76F
:103D0000EACF20E0F5018581981708F421E0F3015E
:103D100040815181F60151834083F70183E0EE0F2A
:103D2000FF1F8A95E1F7222349F0EE19FF09EE0FF4
:103D3000FF1FEC51F94F80818E7F08C0EE19FF09FB
:103D4000EE0FFF1FEC51F94F808181608083F701F6
:103D5000B3E0EE0FFF1FBA95E1F7EE19FF09EE0F82
:103D6000FF1FEC51F94F808185708083F60113822B
:103D700016828AEB9DE193878287158614864931E6
:103D80005105D9F42223C9F0C701880F991F8C016E
:103D900063E0000F111F6A95E1F7081B190B0E5124
:103DA000194FCE0101960E94B116D801FE0131963D
:103DB0008EE001900D928150E1F70894E11CF11C16
:103DC000EEE0F0E0CE0EDF1E82E090E0680E791E9D
:103DD0009E2DE51408F495CFF10187818093151489
:103DE000F501838194819093171480931614818137
:103DF00092819093191480931814258120931B1499
:103E000082EC97E090931D1480931C14868180931C
:103E10001E1430E0220F331FC9018E53984F909328
:103E2000201480931F1482EE96E0909322148093C6
:103E30002114C90143E0880F991F4A95E1F7821BBD
:103E4000930B8E51994F90932414809323148AE0FE
:103E500094E10E94E6A3809115148093C80882EE35
:103E600097E09093CD088093CC0886E498E09093F7
:103E7000B0088093AF0883E090E0F40194838383DB
:103E800081E490E0968385831782E0912714F09176
:103E90002814C40109952E960FB6F894DEBF0FBE04
:103EA000CDBFCF91DF911F910F91FF90EF90DF90E9
:103EB000CF90BF90AF909F908F907F906F905F90CA
:103EC0003F902F9008950F931F93CF93DF938C0112
:103ED000E0918904F0918A040995DC019801295F39
:103EE0003F4FEC01279683E090E014969C938E93CD
:103EF0001397F801878117968C93179787818239DA
:103F000090F48E3808F053C0853530F4813508F0D0
:103F100070C0882399F088C0803609F489C0803841
:103F200009F082C085C0833979F18339D0F08439B2
:103F300009F47EC0853909F077C04CC013968D9185
:103F40009C911497899614969C938E931397ED01E8
:103F50002896F801389689E2019009928150E1F79C
:103F600067C013968D919C9114970B9614969C9311
:103F70008E931397ED012896F80138968BE0019007
:103F800009928150E1F754C013968D919C9114973A
:103F90000A9614969C938E931397ED012896F80138
:103FA00038968AE0019009928150E1F741C013965A
:103FB0008D919C911497079614969C938E931397CA
:103FC000ED012896F801389687E00190099281501A
:103FD000E1F72EC013968D919C911497029614963A
:103FE0009C938E931397F901818192819A8389839F
:103FF0001FC013968D919C911497089614969C93CC
:104000008E931397F9018181898382818A838381C9
:104010008B8384818C8385818D8386818E83878148
:104020008F838085888704C014961C921E921397F4
:1040300088E690E016969C938E931597E09127144E
:10404000F0912814CD010995DF91CF911F910F9127
:104050000895E0918904F0918A040995FC0182E0B9
:1040600090E09483838387E690E096838583209114
:10407000271430912814CF01F90109950895A5E07E
:10408000B0E0E5E4F0E20C948DE08C010E94FD12BA
:104090007C01F80187819085A185B2858A839B8305
:1040A000AC83BD838EE1BE016F5F7F4F0E94D70C52
:1040B0008981BE016E5F7F4F823011F488E101C0BB
:1040C00089E10E94BD0C8FE690E2F7019283818323
:1040D000C7010E9432AF2596E6E00C94A9E0A4E067
:1040E000B0E0E5E7F0E20C948CE07C01FC01D080CC
:1040F000DD2049F1E0918904F0918A0409958C0151
:1041000088E1BE016F5F7F4F0E94D70C87E090E08F
:10411000F8019483838386E690E096838583898182
:104120009A81AB81BC8187839087A187B287095F21
:104130001F4FF801D48207501040E0912714F091EE
:104140002814C8010995C7010E941F132496E7E0AF
:104150000C94A8E0EF92FF920F931F937C01E091E3
:104160008904F0918A0409958C018BE190E0F801B3
:1041700096838583F7018081F8018783E091271476
:10418000F0912814C8010995C7010E941F13F80176
:1041900012821F910F91FF90EF9008950F931F933C
:1041A0008C010E94FD12FC01D80117968C9180832E
:1041B0008AEA90E292838183CF010E9439AC1F91F9
:1041C0000F9108950F931F938C01E0918904F09152
:1041D0008A040995FC018BEE90E09683858383E049
:1041E00090E094838383D8011A968C9187832091E1
:1041F000271430912814CF01F9010995C8010E94B4
:104200001F131F910F9108950F931F938C01E0913D
:104210008904F0918A040995FC0185EE90E096836B
:10422000858383E090E094838383D8011A968C91F0
:1042300087832091271430912814CF01F901099523
:10424000C8010E941F131F910F9108950F931F9390
:104250008C010E94FD12FC01E657FF4F82EE90E2B6
:1042600091838083EA58F04086E390E097838683C9
:104270001086D80117968D919C9118979287818707
:10428000E05CFF4F19968C91199781931A968C9147
:104290008083E154F040CF010E941CB71F910F9121
:1042A00008950F931F93CF93DF938C010E94FD120B
:1042B000FC01E657FF4F84EE91E291838083EA5838
:1042C000F0401782168210868FEF9FEF92878187CA
:1042D000EF01C05CDF4FD80117968AE00D9009927C
:1042E0008150E1F7CF010E941CB7DF91CF911F9160
:1042F0000F9108950F931F93CF93DF938C010E942A
:10430000FD12DC019801295F3F4FA657BF4F84E0A3
:1043100091E211969C938E93AA58B04084E390E06A
:1043200017969C938E93169781E018968C93189706
:10433000E8018F8119968C931997F90181811A965A
:104340008C931A9782811B968C931B9783811C9662
:104350008C931C9784811D968C931D9785811E9646
:104360008C931E9786811F968C931F9787815096FA
:104370008C935097FD01E05CFF4F8F818083E901B2
:10438000898181838A8182838B8183838C818483E9
:104390008D8185838E8186838F8187839885FD01BA
:1043A000E85BFF4F907880818F77892B8083988599
:1043B00090748078892B8083CD010E941CB7DF9197
:1043C000CF911F910F910895EF92FF920F931F933A
:1043D000CF93DF93EC01E0918904F0918A04099571
:1043E0007C0181EC90E0F701968385838D892AE03A
:1043F00030E0281B3109220F331F83E290E0821B3B
:10440000930B948383838A858783D7011896FE0153
:104410003B9680E201900D928150E1F7F701838194
:104420009481029785369105B0F48A85882361F4DA
:104430000B851C852D853E854F85588969897A892C
:104440008B899C890E942F7AE0912714F09128147F
:10445000C701099502C0F7011282CE010E941F1305
:10446000CDB7DEB7E6E00C94A9E0A3E0B0E0EBE363
:10447000F2E20C948FE0E0918904F0918A040995AE
:104480008C018EE1BE016F5F7F4F0E94D70CCE0181
:1044900002960E943BAB84E090E0F8019483838312
:1044A0008DEF90E0968385838A8187838B81095F76
:1044B0001F4FF801818307501040E0912714F091BD
:1044C0002814C80109952396E4E00C94ABE0A8E316
:1044D000B0E0EDE6F2E20C9489E0E0918904F0911D
:1044E0008A0409957C0128E0C22ED12CC80ED91E61
:1044F0008E010F5F1F4FC8010E943BAB8A819981DB
:10450000890F8A83CE0103960E946EAB8A81F701E0
:10451000878340E05DE09BE1A92EB12CB80147C044
:10452000459FD0011124AC0DBD1D842F90E08A9DC4
:1045300090018B9D300D9A9D300D1124260F371F51
:10454000F9018281938111969C938E9389010C5F6E
:104550001F4F848112968C931297F80181811396D4
:104560008C931397828114968C931497838115965C
:104570008C931597848116968C9316978581179640
:104580008C931797868118968C9318978781199624
:104590008C931997F90184851A968C931A978585BF
:1045A0001B968C931B9786851C968C934F5F2A8154
:1045B000421708F4B5CF8FEF90E0F701968385831B
:1045C0008DE0289FC0011124039694838383E0919A
:1045D0002714F0912814C7010995E896EAE00C9495
:1045E000A5E010927E0410927D0410928004109237
:1045F0007F0410928204109281041092840410921D
:10460000830410928604109285040895EDE7F4E087
:1046100040E050E080819181892BF1F4FA01EE0FA6
:10462000FF1FE358FB4F81E090E0918380838091EE
:10463000870490918804019690938804809387045E
:104640008BE690E0489F9001499F300D589F300DB8
:1046500011242A593D4F08C04F5F5F4F32964530B5
:104660005105C1F620E030E0C901089526E632E0A8
:10467000E0E0F0E08217930781F4EE0FFF1FE358AC
:10468000FB4F1182108280918704909188040197DA
:1046900090938804809387040895319625593F4F5D
:1046A000E530F10539F708958091CE08882319F097
:1046B00081E08093CE080895CF93DF93EB018823A8
:1046C00009F065C01092FA081092F9081092FC08DF
:1046D0001092FB0888EC8093E3081092E408109293
:1046E000F80889E190E09093E6088093E50886E079
:1046F0008093E7081092E8081092E9088DEF98E09F
:104700009093ED088093EC0880EA90E09093EF0896
:104710008093EE081092F1081092F0081092F308BE
:104720001092F2088AEC93E29093F5088093F408D3
:1047300082ED94E29093F7088093F60888ED98E074
:104740000E9424298F5F9F4F31F081E08093CE0833
:104750008093CF0804C01092CE081092CF08109218
:10476000D1081092D0081092D3081092D20887EA8C
:1047700094E29093281480932714D0932614C09326
:1047800025148EE994E290932A1480932914DF91E2
:10479000CF910895A1E0B0E0E0EDF3E20C9487E062
:1047A0008C01BB24B3946E010894C11CD11C24E07D
:1047B000822E92E0992E83E0A82EA8C08091CE0888
:1047C000843030F48230D8F4813009F0B3C004C0B2
:1047D000843009F0AFC056C088ED98E0B60141E0E2
:1047E00050E00E941327181619060CF069C0898141
:1047F0008A3211F4A092CE080150104087C088ED93
:1048000098E0B60141E050E00E94132718161906FF
:104810000CF056C08091F9089091FA08892B49F460
:10482000E0918904F0918A0409959093FA088093A5
:10483000F9088091CE08E091F908F091FA08998181
:10484000833029F4938314829092CE0814C0F92EF9
:10485000EE24838194818E299F298736910510F05B
:1048600086E690E094838383892B19F08092CE08AA
:1048700002C0B092CE08015010401092D70810929A
:10488000D60844C0E091F908F091FA088091D60862
:104890009091D708BF01680F791F6B5F7F4F23810D
:1048A0003481281B390BA8012017310708F4A9010E
:1048B00088ED98E00E9413279C01181619061CF039
:1048C0001092CE0837C0081B190B8091D608909122
:1048D000D708820F931F9093D7088093D608A09192
:1048E000F908B091FA0813962D913C91149782170C
:1048F000930760F0B092CE08E0912514F091261451
:10490000CD0109951092FA081092F90801151105C8
:1049100009F054CF8DE894E00E947C258091CE0868
:10492000843021F0823011F0833021F48DE894E05E
:104930000E94A1252196ECE00C94A3E01092CE08F1
:104940001092CF0888ED98E00E9432280895BC01AB
:10495000009701F18091FB089091FC08892BE1F40C
:104960008091CF088130C1F47093FC086093FB08FC
:1049700088ED98E06AE974E041E050E00E949427F5
:10498000181619062CF482E08093CF0880E0089571
:104990001092CF0881E0089582ED98E00E94C594BE
:1049A00080E00895A091FB08B091FC08109709F4ED
:1049B00043C08091CF08823019F08330E9F516C0EA
:1049C00013964D915C9114974E5F5F4F88ED98E080
:1049D0001396BD010E949427181619061CF0109218
:1049E000CF08089583E08093CF08089581E08093F5
:1049F000CF08E0918B04F0918C04CD010995E091F2
:104A0000FB08F091FC0812821092FC081092FB083F
:104A10008091D2089091D3089093D5088093D408C0
:104A2000892B51F082ED98E00E94DD948091D408AA
:104A30009091D5080E94A724089580E28CBB089528
:104A4000ED9A08958DB3ED98807208952C9A08958B
:104A50002C980895179A0895179808952C98249AD9
:104A6000179A0F9A6D987598399A419A0895EAE6BF
:104A7000F0E080818C608083089584E0089581E077
:104A800008951F9310E00E94B43481E80E949D3481
:104A9000812F0E949D34182F0E94B234183099F74C
:104AA0001F9108950E94FF0508958F929F92AF92E3
:104AB000BF92CF92DF92EF92FF920F930E94892DC7
:104AC0004B015C012091B70930E040E050E060E02C
:104AD00070E080E090E000E20E94A30628293929D6
:104AE0004A295B290F91FF90EF90DF90CF90BF9004
:104AF000AF909F908F900895CF93DF93EC01009734
:104B0000D1F080919D0990919E098C179D0719F411
:104B100060E070E008C08DE999E0BE010E94DA2CE7
:104B2000BC01009741F08DE999E0AE010E94BC2CD8
:104B300020E030E002C02FEF3FEFC901DF91CF91BD
:104B40000895CF93DF93EC01009771F0E0919D09F8
:104B5000F0919E0906C0EC17FD07D9F00190F08195
:104B6000E02D3097C1F706C02FEF3FEFC901DF916D
:104B7000CF9108950E94652F9B01AC011982188284
:104B80006A837B838C839D838DE999E0BE010E94BB
:104B90006D2C20E030E0EACFEF92FF920F931F934D
:104BA000CF93DF9318C08DE999E060E070E0AE012B
:104BB0000E94BC2C8A85882359F4EA82FB820C83EC
:104BC0001D838DE999E0BE01A80197010E946D2C1B
:104BD000EB85FC85099580919D0990919E09892B13
:104BE000D9F00E94652F7B018C01C0919D09D09165
:104BF0009E098A819B81AC81BD81A8019701281BF8
:104C0000390B4A0B5B0B8E819F81A885B9852817CC
:104C100039074A075B0738F6CDB7DEB7E6E00C94F4
:104C2000A9E09091A60921E030E002C0220F331FD5
:104C30008A95E2F7922B9093A6098091D709806814
:104C40008093D7092FB7F8948091390A90913A0A46
:104C5000826090933A0A8093390A2FBF0895CF93C8
:104C6000DF93E82FF0E0CF01805C9040A3E09595C2
:104C70008795AA95E1F7482F50E0EA01CC0FDD1F98
:104C8000C156D64FA881B981109721F481818F77C1
:104C900081836CC090968C91909783FD67C05496E9
:104CA000ED91FC91559784FF09C06083E881F981FB
:104CB000848995890196958B848B58C0EF2B09F4D4
:104CC00055C01696CD91DC91179716968D919C91B3
:104CD0001797019617969C938E93169716962D917B
:104CE0003C91179756968D919C91579728173907A5
:104CF00021F417961C921E92169716962D913C91B0
:104D0000179714968D919C9115972817390729F4B8
:104D10001796DC93CE93169729C05496ED91FC918B
:104D20005597EC0FFD1F608318968D919C911997F4
:104D3000019619969C938E931897440F551F4156D0
:104D4000564FEA01E881F98180A180FF0FC0838579
:104D5000883C61F418962D913C9119978689978922
:104D6000969587958217930708F45D9ADF91CF9106
:104D70000895E82FF0E0E05CF04083E0F595E795DA
:104D80008A95E1F7F0E0EE0FFF1FE156F64F019034
:104D9000F081E02D3097C1F04FB7F8942281338134
:104DA000808191814FBF2817390711F481E08287F4
:104DB000828D938D892B11F4118E108E068CF78DB8
:104DC000E02D309709F009950895E82FF0E0E05CB8
:104DD000F04023E0F595E7952A95E1F7F0E0EE0F36
:104DE000FF1FE156F64F0190F081E02D309791F0D2
:104DF00080A1887179F48FB7F894208531858FBFB1
:104E00002115310539F0048CF58DE02D309711F026
:104E1000C90109950895803C21F0883C11F080E09B
:104E2000089581E00895A0E0B0E0E9E1F7E20C9494
:104E300089E08C015B016A01009709F46DC0DC0117
:104E40001B96FC908F2D0E940B27882309F464C0C9
:104E5000A114B10409F460C0C114D10409F45CC008
:104E6000EF2DF0E0E05CF040A3E0F595E795AA9522
:104E7000E1F7F0E0EE0FFF1FE156F64FC081D18160
:104E80000C171D0709F048C08FB7F894F801668128
:104E90007781248135818FBF40E050E01AC07501D1
:104EA000E40EF51ED8015496ED91FC915597E20F52
:104EB000F31F8081F70180832F5F3F4F56968D91BE
:104EC0009C9157972817390711F420E030E04F5F85
:104ED0005F4F2617370719F04C155D0500F38FB7A4
:104EE000F8943D832C8328853985241B350B39871D
:104EF0002887288539858FBF8B85883C59F488A100
:104F000080FF08C08E899F899695879582179307A1
:104F100008F05D989A0102C02FEF3FEFC901CDB7AD
:104F2000DEB7EAE00C94A5E0A0E0B0E0EAE9F7E241
:104F30000C9487E0EC016B018A01009709F46FC0C3
:104F4000FB848F2D0E940B27882309F468C0C114AD
:104F5000D10409F464C00115110509F460C0EF2DF6
:104F6000F0E0E05CF04083E0F595E7958A95E1F7A5
:104F7000F0E0EE0FFF1FE156F64F80809180C815DC
:104F8000D90509F04CC08A8D9B8D892B81F42A812B
:104F90003B81888199812817390709F040C0D98E53
:104FA000C88E1B830A8319821882B80130C08FB75C
:104FB000F894AA80BB80E880F9808FBFA50160E0EB
:104FC00070E019C09A012F5F3F4F8A8D9B8D281783
:104FD000390711F420E030E02E153F0579F0E88D17
:104FE000F98DE40FF51FD601A60FB71F8C918083B2
:104FF0006F5F7F4FA9016017710720F38FB7F89497
:10500000F401538342838FBFAE14BF0431F41A8678
:10501000EB85F0E08181806281839B0102C02FEFEC
:105020003FEFC901CDB7DEB7ECE00C94A3E0FC0183
:1050300083899385882349F4903C19F0983C89F43E
:1050400002C06A9A0895559A0895903C19F0983CC8
:1050500041F404C06A987298729A089555985D98C0
:105060005D9A08951F93CF93DF93FC010097B1F1F0
:105070001385812F0E940B27882381F1812F90E0D7
:10508000805C904033E0959587953A95E1F7C82F7D
:10509000D0E0DE01AA0FBB1FA156B64FED91FC91E7
:1050A00011973097D9F0E385F0E01182ED91FC91F2
:1050B00080A180FF02C055985D988485803429F4D2
:1050C00081E0838BCF010E941728CC0FDD1FC156D2
:1050D000D64F1982188220E030E002C02FEF3FEF58
:1050E000C901DF91CF911F91089580EC0E94B926EC
:1050F000089580EC0E94E526089588EC0E94B92668
:10510000089588EC0E94E5260895CF93DF93282F19
:10511000A82FB0E0CD01805C904033E09595879555
:105120003A95E1F7C82FD0E0FE01EE0FFF1FE156E0
:10513000F64F608171816115710509F476C0283CD4
:10514000D1F5FB0180A1282F81FD02C030E009C00C
:105150008CB190E0E4E096958795EA95E1F7382FD9
:10516000317020FD02C080E008C089B190E054E0B9
:10517000969587955A95E1F78170332311F488232A
:10518000D1F08AE090E0A0E0B0E08093AD09909388
:10519000AE09A093AF09B093B00981E08093B10943
:1051A00088E199E29093B3098093B20987EA99E084
:1051B0000E94A1253AC02FB7F894FB018281938108
:1051C000408151812FBF8417950749F1808D918DC2
:1051D000840F951FFC0190819A012F5F3F4F8C91A6
:1051E00080648C9316969C931697CC0FDD1FC15646
:1051F000D64FE881F981828D938D2817390711F4F4
:1052000020E030E011968C911197806211968C937A
:105210008FB7F894FB01318320838FBF06C01196AE
:105220008C911197806411968C93DF91CF910895A2
:1052300088EC0E948528089588EC0E9485280895AE
:1052400080EC0E94852808951F93CF93DF93EC0193
:10525000009709F45CC01B85812F0E940B278823CF
:1052600009F455C088A1282F30E0A9014170507081
:1052700080FF03C0183C09F04AC0812F90E0805C99
:10528000904073E0959587957A95E1F7E82FF0E0E7
:10529000EE0FFF1FE156F64F80819181892BB9F502
:1052A000D183C083183C81F421FF02C06C987498AC
:1052B000452B51F0559A54985C988C899D89892B7F
:1052C00011F45D9A01C05D988C85803419F4CE018B
:1052D0000E941728198218821B821A828C899D8944
:1052E000892B11F41F8A1E8A888D998D892B11F4C0
:1052F0001B8E1A8E1D821C821F821E8281E08A876D
:10530000CE010E94962F8B85282F30E002C02FEF10
:105310003FEFC901DF91CF911F910895CF92DF92A6
:10532000FF920F931F93DF93CF9300D00F92CDB7CF
:10533000DEB781E08983FF2400E010E0F2E0CF2EA9
:10534000D12CCC0EDD1E9091A60989818923B9F05C
:105350002FB7F8949091A609898189278093A6098F
:105360002FBF6F2D70E0660F771F645B774FC6010C
:1053700042E050E00E9429E1EA81FB810995F39423
:105380008981880F89830F5F1F4F06301105D9F679
:105390000F900F900F90CF91DF911F910F91FF9081
:1053A000DF90CF900895382FE82FE650E230B0F428
:1053B000F0E0EE0FFF1FEA53F64F80819181892BB9
:1053C00069F02DB381E090E002C0880F991F3A95F3
:1053D000E2F7282B2DBB20E030E002C02FEF3FEF9B
:1053E000C90108958091A21D089582E18093A21DB4
:1053F00028E088E190E00FB6F894A89580936000CB
:105400000FBE20936000FFCF87E08093B40980E94E
:105410008093BC008091D90980628093D9092FB70D
:10542000F8948091390A90913A0A826090933A0AEE
:105430008093390A2FBF08958091B409882319F405
:105440002FEF3FEF08C010923514109234141092D1
:10545000B40920E030E0C90108958091B409823098
:1054600041F08091B409833021F08091B4098430F7
:1054700021F480912F14880F08C08091B4098530E1
:1054800051F480912F14880F8F5F8093BB0085E8C3
:105490008093BC0008950E94042A089590912E14D0
:1054A00080912D14981790F480912E14E0912B1474
:1054B000F0912C14E80FF11D90818F5F80932E14D2
:1054C0009093BB0085E88093BC00089586E08093AC
:1054D000B40984E98093BC008091D90980628093EB
:1054E000D9092FB7F8948091390A90913A0A8260CD
:1054F00090933A0A8093390A2FBF0895809130140F
:1055000090913114A0913214B091331420912E1443
:10551000215020932E1420912E14220F220F220F9F
:1055200004C0B695A795979587952A95D2F780934D
:10553000BB0085E88093BC0080912E14882359F429
:105540008091B409823021F484E08093B4090895F5
:1055500085E08093B40908958091B409843019F4EA
:105560000E944E2A08958091B409823021F08091E2
:10557000B409833019F40E947E2A08958091B409F9
:10558000853021F485EA8093BC0008950E94042AA6
:1055900008958091B409853099F480912D1481305B
:1055A00021F48091BC008F7B03C08091BC0080649B
:1055B0008093BC008091BC0085688093BC000895F6
:1055C0000E94042A0895982F8091B409853029F506
:1055D00080912E14E0912B14F0912C14E80FF11D02
:1055E00090838F5F80932E1420912E1480912D1420
:1055F00030E090E001972817390724F48091BC002F
:10560000806403C08091BC008F7B8093BC0080913C
:10561000BC0085688093BC0008950E94042A089508
:10562000982F8091B409853021F580912E14E09156
:105630002B14F0912C14E80FF11D90838F5F809351
:105640002E1486E08093B40984E98093BC00809195
:10565000D90980628093D9092FB7F8948091390ACB
:1056600090913A0A826090933A0A8093390A2FBF48
:1056700008950E94042A0895E0913414F09135149D
:10568000309791F08091B409863041F48091BC004C
:1056900084FDFCCF81E08093B40904C081E0809355
:1056A000B40980E00995089581E08093B4090895D4
:1056B000FC018091B509882319F02EEF3FEF58C007
:1056C000309709F453C08481958120813181820F04
:1056D000931F8150904108F049C081E08093B50943
:1056E00070933D1460933C14A6E3B4E186E001900E
:1056F0000D928150E1F7F999FECF20E030E017C01C
:10570000E0913814F0913914E20FF31F80913614B0
:105710009091371401969093371480933614019723
:1057200092BD81BDF89A80B580832F5F3F4F8091F5
:105730003A1490913B142817390710F310923B1438
:1057400010923A148091D80980618093D8092FB7BC
:10575000F8948091390A90913A0A826090933A0ABB
:105760008093390A2FBF20E030E002C02FEF3FEFD7
:10577000C901089590E08091B509813009F491E064
:10578000892F089580913A1490913B14892B51F4FC
:105790001092B509E0913C14F0913D14309719F145
:1057A0000995089560913614709137146F5F7F4F9B
:1057B000709337146093361461507040E091381440
:1057C000F09139144191F0933914E09338148CE03E
:1057D0000E94453280913A1490913B140197909326
:1057E0003B1480933A140895CF93DF93FC0180918A
:1057F000B509882319F02EEF3FEF6BC0309709F4FD
:1058000066C08481958120813181820F931F8150F0
:10581000904108F05CC081E08093B509A6E3B4E153
:1058200086E001900D928150E1F770933D146093F2
:105830003C14672B19F4C0E0D0E03BC060913614F3
:10584000709137146F5F7F4F7093371460933614E5
:1058500061507040E0913814F09139144191F09307
:105860003914E09338148CE00E94453280913A1448
:1058700090913B14019790933B1480933A1424C069
:1058800060913614709137146F5F7F4F70933714A7
:105890006093361461507040E0913814F0913914DF
:1058A0004191F0933914E093381484E00E9445321A
:1058B000219680913A1490913B14C817D90700F3B0
:1058C000F999FECF1092B50920E030E002C02FEF29
:1058D0003FEFC901DF91CF910895A0E0B0E0E3E789
:1058E000FCE20C9489E08C01EB0169017A01FC0176
:1058F000608171816115710589F1FB01AA24BB24C6
:10590000268137814085518582819381A481B5812B
:10591000280F391F4A1F5B1F2C193D094E095F09CB
:105920002F3F8FEF38078FEF48078FE7580748F46E
:105930008E819F81A885B985281739074A075B079B
:1059400038F4808191815F01009761F0FC01D8CF2C
:10595000E617F70731F4F983E883F801D183C083B0
:1059600006C0CF01F501D183C08399838883CDB769
:10597000DEB7EAE00C94A5E0CF93DF93EC01DB0106
:10598000FA01888199814817590739F480819181FA
:1059900011821082888399830AC080819181119637
:1059A0009C938E93118210828C9111969C91DF9121
:1059B000CF910895FC010190F081E02D06C0808117
:1059C00091818617970719F0FC013097C1F7CF0135
:1059D00008958091B609813051F482E08093B60930
:1059E000E0913E14F0913F14309709F00995089525
:1059F0008FB7F8941092BF091092BE091092BD099A
:105A00008FBF0895809170008C7F8093700080918B
:105A1000B60080628093B6001092B2001092B0007F
:105A20001092B1001092B3008091B60090E08F7197
:105A30009070892BC9F783E087BB87E08093B10022
:105A40008091700081608093700008958091B6000D
:105A500090E08F719070892BC9F7809170008C7FD6
:105A6000809370008091B100887F8093B10083B5EE
:105A7000826083BD8091B60090E08F719070892B19
:105A8000C9F78091B6008F7D8093B6000895EF929C
:105A9000FF920F931F937B018C016091B200862FC0
:105AA00090E0809590959C01442737FD4095542FB8
:105AB0003070407050702E153F054007510798F424
:105AC000D801C701821B930BA40BB50B9C01AD0140
:105AD000BB27A52F942F832F9093BE098093BD09D8
