:100000000C9451040C9489040C9489040C94890474
:100010000C9489040C94AF180C9444A70C94A91266
:100020000C947A120C9489040C9489040C9489041D
:100030000C9489040C94D0100C9489040C942D1108
:100040000C9489040C9489040C9489040C948904FC
:100050000C9489040C9489040C9489040C948904EC
:100060000C9489040C9470190C94D0190C94A21956
:100070000C9489040C94A3140C9452130C948904CA
:100080000C9489040C9489040C9489040C948904BC
:100090000C94E2180C9442190C9414190C94D81274
:1000A0000C9489040C9489040C9425120C946CA76C
:1000B0000C9489040C9489040C9489040C9489048C
:1000C0000C9489040C9489040C9489045231CD3029
:1000D0009F319F319F31D330D83069319F31DB3030
:1000E000DE30E830F0309F31F330F630F9309F31B8
:1000F000FE3001316931063146315B319F31493182
:100100004C31D1304F314F31693169316931693109
:10011000693169316931693169316931693169310F
:10012000693169316931693169313C3169319F31F6
:100130009F319F319F319F319F319F319F319F313F
:100140009F319F319F319F319F3169315E316131E4
:1001500069313531AE32B931B032B032B032BE3140
:10016000C631B032B032CE31D331ED31F531B032AB
:10017000FA3102320C32B03214321932B03221323A
:100180003E325032B03243324B32AE32AE32AE3209
:100190005A325A325A325A325A325A325A325A32FF
:1001A0005A325A325A325A325A325A325A325A32EF
:1001B0005A3234325A32B032B032B032B032B03257
:1001C000B032B032B032B032B032B032B032B0321F
:1001D000B0325A325532AE325A322F32E752EF52E3
:1001E0007B5224532453C252CF52245324532453BA
:1001F000F95208539B52A75224537852DA5223568D
:100200003056445656565D566A56775682568A562A
:10021000A856D356945677587758195820582058CE
:100220002C582C583D583D583D584E584E584E5815
:100230009379C379C379C3799879AD79A279A7798C
:10024000D2799D79B279B279B779C379C979CD7903
:10025000ED7AF07AF37AF37AF67A027BFC7AFF7A17
:10026000127BF97A057B087B0B7B0E7B1F7C237C42
:100270004B7C277C2B7C4B7C2F7C4B7C3D7C417CBE
:10028000487CA481578274822881F082F082658242
:1002900074827A82C882A182F082F082C8828181CF
:1002A000CB82E490E990A491BC91D391CB92FA9245
:1002B0009C939C939C939C939C939C939C939C93C6
:1002C0009C93779285929C939E90A7928F91C793CF
:1002D000FB9331941D940E94319449947A947A94BA
:1002E0007A947A947A947A947A947A947A941D94FB
:1002F00031947A94BA93249408941A9E189E189E66
:10030000479E4E9E619E699E6C9E6F9E729E759EDC
:100310007C9F839F929F9A9F9C9F9E9FA09FA39F3D
:10032000646464646464646464646464646463638F
:100330006363636363636363636363626262626292
:1003400062626161616161606060605F5F5F5E5EAB
:100350005D5D5D5C5C5B5B5A595958575756555407
:10036000535251504F4E4D4B4A4947454442403EEF
:100370003C3A383634312F2C2A292828272726269C
:10038000252525242424232323232222222221213C
:10039000212120202020201F1F1F1F1F1E1E1E1E68
:1003A0001E00000100020003000400050006000713
:1003B00000080009000A000B000C000D000E000FE1
:1003C00000100012001400160018001A001C001E75
:1003D00000200022002400260028002A002C002EE5
:1003E000003100350039003D004100450049004D15
:1003F000005100550059005D006100650069006D05
:100400000073007B0083008B0093009B00A300AB74
:1004100000B300BB00C300CB00D300DB00E300EB64
:1004200000F700070117012701370147015701674E
:1004300001770187019701A701B701C701D701E73C
:1004400001FF011F023F025F027F029F02BF02DF26
:1004500002FF021F033F035F037F039F03BF03DF0E
:10046000030F044F048F04CF040F054F058F05CFF2
:10047000050F064F068F06CF060F074F078F07CFD2
:10048000072F08AF082F09AF092F0AAF0A2F0BAFAC
:100490000B2F0CAF0C2F0DAF0D2F0EAF0E2F0FAF7C
:1004A0000F540B04006F0B0C009C0B0D00040B157C
:1004B000001E0C1900160C1A007F0B1B00800B1C71
:1004C00000810B1D008B0B1E00700B2F00760B3173
:1004D00000200C3200190C3400A60B3500AC0B3692
:1004E00000B50B3800240C3900750B4100AB0B42F2
:1004F00000A9044300EC0A00010B091601000000EA
:1005000000000000000000000000000000000000EB
:1005100000000000000000000000000000000000DB
:1005200000000000000000000000000000000000CB
:1005300000000000000000000000000000000000BB
:1005400000000000000000000000000000000000AB
:10055000000000000000000000000000000000009B
:100560000000000000000000020100020205080077
:10057000000200341200000000000000000202002F
:1005800080000000000000000000000000000000EB
:10059000000000000000000000000000000000005B
:1005A0000000000000000000000500FF0000020045
:1005B000001E000003341201030300001027000096
:1005C00010270000010001E803000004E803000018
:1005D000000000000000000000000000000000001B
:1005E00000EFBEEFBEEFBEEFBE030100E0930400DC
:1005F000008400000007050704020502040204034A
:10060000080103020A01005F0027000C01141054C6
:100610000B08005E0B01006B0B04006F0B01001D4B
:100620000C0100240C0800200C0200AC0B0200B5E9
:100630000B0100190C01001E0C0100720B0100736C
:100640000B0100740B0100750B0100700B020076AA
:100650000B01001B0C01001A0C01002E0B010030D5
:100660000B01009C0B0800040B0400820B040077B4
:100670000B04007B0B04007F0B0100800B01008149
:100680000B01008B0B1100160C0100860B0100877B
:100690000B0400A40B0100310B0200A60B0100A506
:1006A0000B0100A70B0400AB0B010000000000F1E0
:1006B000050200F5050100F3050200F7050100F849
:1006C000050100F9050100FA050100FB050100FC28
:1006D000050100FD050100FE050100F6050100FF12
:1006E000050100000601000D0602000206010003DC
:1006F00006010004060100090604000106010005C8
:1007000006010006060100070602008B030000A98F
:100710000400000F040000660500000000000089CE
:10072000050000620A0000BA0A00005D080000AC83
:1007300008000079080000E30800000E0900001C12
:100740000A000000000000000000000B090000EC9F
:100750000A0000021857175B17FE175F1763178709
:100760002EF427000000000000000000000000BB85
:100770005C255FA767B45B4559695B86578A4EFD68
:100780003CF5562D488F448A41A73CA73F3F3C008B
:10079000000000000000000000000002020302014F
:1007A0000201010101010101020201010102020233
:1007B0000202020202020202020203030202030216
:1007C0004D4AE7570108714CA73D0101714CA73D07
:1007D0000101054AC35801018F49154501018F499F
:1007E000EA44010846499A5C0101ED48F6640101BA
:1007F00000000000010800000000010100000000EE
:10080000010300004C360104000000000105000057
:1008100000000106000000000101000000000101CD
:10082000714C000000010000000001000000000009
:10083000010800000000010A0000000001000000A3
:1008400000000101000000000101000000000000A4
:100850000000DD3E00080000DD3E000C0000DD3E33
:1008600000000000DD3E008A337E3878345034705A
:100870003400009233A23368349A33483869330025
:100880003608367036F8358034000088394F5AD132
:100890004DF7673D650000C269455E7F4600000078
:1008A000000011248091D612823141F084B78F71FB
:1008B0008093D61280FF05C081E001C081E1809362
:1008C000D61214BE809160008861809360001092FF
:1008D000600011241FBECFEFD1E2DEBFCDBF12E01A
:1008E000A0E0B2E0EEE2F8E501E00BBF02C0079045
:1008F0000D92A034B107D9F712E1A0E4B2E001C033
:100900001D92A63DB107E1F70E94686C0E942B6C16
:10091000FDCF0C9400007F937FB7F8949D9AA59823
:100920008AEF0E94EA048AEF0E94EA049D9886E416
:100930000E94EA0481E0959980E08F9380EF0E9405
:10094000EA048F917FBF7F9108957F937FB7F894DA
:100950009D9AA59886E00E94EA049D988AE00E94EC
:10096000EA04889495990894881F8F9384E60E94DE
:10097000EA048F917FBF7F9108959F937F9398E0C2
:100980000E94A504879577959A959923C9F7872F93
:100990007F919F9108957F937FB7F894A5989D9A32
:1009A0008F9386E00E94EA048F91879508F49D98C2
:1009B0008F9384E60E94EA048F919D987FBF7F9178
:1009C00008959F9398E00E94CB049A959923D9F7B4
:1009D0009F91089500000000000000008A95882380
:1009E000C9F708955F937F937FB7F894CF93DF9310
:1009F000C0E0D0E07F935091B2007091B2007517C3
:100A0000E1F3739521965091B2005717D9F77F9172
:100A1000CE01DF91CF917FBF7F915F9108950F93BA
:100A2000DF93CF93CDB7DEB760970FB6F894DEBFF4
:100A30000FBECDBF002309F459C029833A834B83ED
:100A40005C836D837E838F839887E0E2E01B2D813A
:100A50003E814F8158851E16BCF01D861E861F865E
:100A6000188A8E2F992787FD9095909581959F4F95
:100A700004C056954795379527958A95D2F72987CB
:100A80003A874B875C872AC0CA01B901002E04C08F
:100A900096958795779567950A94D2F76D877E87A7
:100AA0008F87988BDA01C90104C0880F991FAA1F8C
:100AB000BB1FEA95D2F729813A814B815C8104C042
:100AC00056954795379527950A95D2F7822B932B04
:100AD000A42BB52B89879A87AB87BC8729853A8554
:100AE0004B855C856D857E858F85988960960FB670
:100AF000F894DEBF0FBECDBFCF91DF910F91089567
:100B00000F93DF93CF93CDB7DEB760970FB6F8940E
:100B1000DEBF0FBECDBF002309F459C029833A833D
:100B20004B835C836D837E838F839887E0E2E01B39
:100B300029813A814B815C811E16BCF019861A8688
:100B40001B861C868E2F992787FD90959095819501
:100B50009F4F04C0220F331F441F551F8A95D2F7A1
:100B60002D873E874F87588B2AC0CA01B901002EB6
:100B700004C0660F771F881F991F0A94D2F76987F0
:100B80007A878B879C87DA01C90104C0B695A7953F
:100B900097958795EA95D2F72D813E814F815885AB
:100BA00004C0220F331F441F551F0A95D2F7822B12
:100BB000932BA42BB52B8D879E87AF87B88B298568
:100BC0003A854B855C856D857E858F859889609695
:100BD0000FB6F894DEBF0FBECDBFCF91DF910F915E
:100BE00008950895A4E0B0E0E8EFF5E00C9439AB87
:100BF0009093830380938203662359F485E2BE01B8
:100C00006F5F7F4F0E94830A89819A81AB81BC818B
:100C100004C082E390E0A0E0B0E080937D03909375
:100C20007E03A0937F03B093800381E080938103D0
:100C300087E793E00E942A0C2496E2E00C9455ABDF
:100C400083ED96E060E00E94F2050895A8E0B0E030
:100C5000ECE2F6E00C9435AB8B01E82EFF24B701F3
:100C6000660F771F660F771F6F557B4FCE0101967A
:100C700044E050E00E94C4AB89819A81F8019383DB
:100C800082832B813C81318320838091000290E01C
:100C90000197E816F90639F4809101029091020259
:100CA000821B930B14C0B701660F771F660F771F67
:100CB0006B557B4FCE01059644E050E00E94C4ABDB
:100CC0008F8198852B813C81821B930BF801958342
:100CD00084832896E6E00C9451AB02C00E94656CB8
:100CE0000E946F0E8823D1F708950F931F93CF931F
:100CF000DF938C01EB010E946D06C801BE010E94CA
:100D00000D0E2FEF8F3F920739F085E0C13FD807D6
:100D100029F40E946D0602C081E001C080E0DF91ED
:100D2000CF911F910F910895A6E0B0E0EAE9F6E0B7
:100D30000C9435ABFF24E09000028E010F5F1F4F33
:100D40000CC08F2DB8010E942606C80161EF75E026
:100D50000E947506882321F4F394FE1490F380E03A
:100D60002696E6E00C9451AB0F931F93CF93DF933D
:100D70008C01EB010E946D06C801BE010E94A90E04
:100D80002FEF8F3F920739F085E0C13FD80729F454
:100D90000E946D0602C081E001C080E0DF91CF912A
:100DA0001F910F910895ADE0B0E0E9EDF6E00C94ED
:100DB0002DAB81E0809340027090000252E0C52E7E
:100DC000D12CCC0EDD1E46E0642E38E0E32EF12C53
:100DD000EC0EFD1E5E010894A11CB11C21E0822EC8
:100DE000912C33C0B6010E942606F701862D119280
:100DF0008A95E9F7BB86AA869D868C8600E010E07E
:100E00001EC08A819B81800F911F99878887C701A7
:100E100061EF75E00E947506AA85BB85EC81FD81B6
:100E2000E00FF11F9C918081981739F0CE01029656
:100E300063ED76E00E94B40623C00F5F1F4F8E81E2
:100E40009F8108171907E8F215C0809141028715A4
:100E500048F2109241020E94E707813031F483ED9D
:100E600096E061E00E94F2050BC00E9420061092FD
:100E7000400206C0809141028F5F80934102E5CF1E
:100E80002D96EEE00C9449AB0E943A08882339F481
:100E90000E949406813039F00E9420060895813026
:100EA00011F00E9420060895A7E0B0E0EAE5F7E01F
:100EB0000C9431AB8C0119820097E1F1FC01108296
:100EC00084E090E09B838A8381E090E09F838E831F
:100ED000E0900102F09002026E010894C11CD11C46
:100EE00082E0A82EB12CAC0EBD1E1DC0DD82CC82CE
:100EF0000E946D06C50160E070E00E940D0EFFEFDC
:100F00008F3F9F0721F481E0F801838313C00E9483
:100F10006D06F80180819981890F80838A819B8188
:100F200001969B838A838A819B818E159F05F0F2AF
:100F3000F80113822796EAE00C944DABA6E0B0E0EE
:100F4000E4EAF7E00C9431AB8C010097E1F1E0901A
:100F50000102F0900202FA82E98281E090E09E8331
:100F60008D839AE0A92EB12CAE0CBF1C6E010894A3
:100F7000C11CD11C1FC01C830B830E946D06C601BF
:100F800060E070E00E940D0E2FEF8F3F920721F47A
:100F900081E0F801838317C00E946D06F80120816B
:100FA00089819A812F3F19F0928381830BC001962A
:100FB0009A83898389819A818A159B05E0F2F801D9
:100FC000F282E18213822696EAE00C944DABAFE008
:100FD000B0E0EDEEF7E00C9439AB8FEF8983CE01F2
:100FE00002960E949E078D818130E9F1CE0106961E
:100FF0000E94540789858130B1F19E818A81890FD1
:10100000A1F191959E838B819C819B878A87CE01DC
:1010100001969D878C8781E090E09F878E87CE0127
:101020000A9661EF75E00E94B4068823F9F48A8578
:101030009B8501969B878A8720910102309102024D
:10104000A901465F5F4F8417950710F03B872A87F9
:10105000CE0106969D878C87CE010A9661EF75E0DA
:101060000E94B40603C081E001C080E02F96E2E058
:101070000C9455ABA8E0B0E0E0E4F8E00C9439AB98
:10108000CE0105960E9454078885813061F0CE011B
:1010900001960E949E078C81813029F089819D8173
:1010A000890F19F403C081E001C082E02896E2E0D4
:1010B0000C9455AB8091420282FF12C08091420293
:1010C0008B7F809342028091420280618093420232
:1010D000E0914302F0914402309711F081E00995CC
:1010E0008091420284FF29C0669B16C08091420213
:1010F0008F7E80934202809142028E7F80934202D3
:10110000E0914502F0914602309711F081E0099597
:1011100086E00E949A0C11C080915E0281608093EB
:101120005E022FB7F89480914F0390915003916025
:101130009093500380934F032FBF8091420283FF0F
:1011400012C080914202877F8093420280914202C6
:10115000806280934202E0914302F0914402309712
:1011600011F082E009958091420285FF29C0679BBA
:1011700016C0809142028F7D80934202809142028C
:101180008D7F80934202E0914502F09146023097B4
:1011900011F082E0099587E00E949A0C08958091F1
:1011A0005E02816080935E022FB7F89480914F03B6
:1011B0009091500391609093500380934F032FBF01
:1011C00008951F93182F80914802882351F46B9A39
:1011D0000E94C80B882311F0739801C0739A579A24
:1011E0005F9A21E030E002C0220F331F1A95E2F728
:1011F00080914802822B809348021F910895259A7E
:10120000269A279A84E00E94E10880E008958130C0
:1012100049F0813018F0823031F402C02D9A0895DF
:101220002F9A08952E9A0895813069F0813018F030
:10123000823069F404C085B190E2892702C085B18B
:10124000805885B9089585B190E4892785B90895B6
:101250006091490270E080E090E026EA3EE040E0E4
:1012600050E00E94C8AABB27A92F982F872F21E002
:1012700020934C02E0914A02F0914B0209950895A7
:101280000E94D10C109258026091840370918503E2
:10129000E0918903F0918A0380918803099508956C
:1012A000A9E0B0E0E6E5F9E00C9439AB0E94D10C7E
:1012B00080915902843049F0853009F474C083303C
:1012C00009F071C01092590271C01A821B821C82EF
:1012D0001D821E821F821886198681E08093590222
:1012E00060915A0280915B02862387FF5FC070E0A5
:1012F0006F777070660F771F6F557C4FCE01029627
:1013000042E050E00E94C4AB60915B0270E06F77F6
:101310007070660F771F6F557C4FCE01069642E0C6
:1013200050E00E94C4AB2A813B814C815D81211534
:10133000310541055105D1F16E817F8188859985FF
:10134000621773078407950788F5E7E0660F771F34
:10135000881F991FEA95D1F70E9407AB622F70E0B2
:10136000605E7C4FCE01019641E050E00E94C4AB2C
:101370006A817B818C819D812E813F814885598541
:10138000621B730B840B950B298130E040E050E029
:101390000E94C8AA672F782F892F992787E0673383
:1013A000780740F409C081E08093590260E070E062
:1013B00080E003C066E377E081E0E0915C02F091B9
:1013C0005D0209952996E2E00C9455AB80915E028E
:1013D00080FF07C080915E028E7F80935E020E9434
:1013E0005A0880915E0281FF07C080915E028D7F66
:1013F00080935E020E94400980915E0282FF07C0D6
:1014000080915E028B7F80935E020E9450098091E2
:101410005E0283FF07C080915E02877F80935E0239
:101420000E94280980915E02882361F02FB7F8940A
:1014300080914F039091500391609093500380935B
:101440004F032FBF0895E3E3FBE088E3DF011D9224
:101450008A95E9F7B19685E08093540B1182128248
:101460001382148215821682178280935E0B8CEA97
:101470009BE06DEF74E042E850E00E94C4AB84E072
:101480009BE06FE775E04FE250E00E94C4AB82E062
:101490009BE06EEA75E042E050E00E94C4AB8BE650
:1014A0009BE060EB75E041E450E00E94C4AB87E74D
:1014B00097E0EBE8F3E0DF019C011D922150304002
:1014C000E1F70895A4E0B0E0E8E6FAE00C9439AB67
:1014D000682F70E0660F771F660F771F615F794F87
:1014E000CE01019644E050E00E94C4AB69817A814C
:1014F0008B819C812496E2E00C9455AB0E94230AD8
:101500000E9444070895EF92FF921F93CF93DF93B9
:10151000182FEB01209761F00E94620AAC0118328B
:1015200020F0CE010E94C4AB03C0CE010E94DAAB12
:10153000DF91CF911F91FF90EF900895EF92FF926E
:10154000CF93DF93EB01209771F0883260F406C0EF
:10155000CB01BE01A9010E94DAAB05C00E94620A5C
:101560009C010097A9F7DF91CF91FF90EF9008952C
:10157000CF93DF93EB010E94620A009711F4798305
:101580006883DF91CF91089582E00E941409089545
:10159000FC01878529EF3AE08823A1F482E080935B
:1015A0005F024FB7F89480914F039091500394607D
:1015B0009093500380934F034FBF84EB90E0A0E0E3
:1015C000B0E004C088EE93E0A0E0B0E08093820237
:1015D00090938302A0938402B093850210928602B6
:1015E00030938802209387028CE792E00E942A0CB5
:1015F000089580E00E94140981E00E94140910926D
:10160000A90289EA92E09093C0028093BF0281E030
:1016100090E09093BE028093BD029093B9028093B4
:10162000B80282E08093AC021092AE021092AD023A
:1016300081E08093B7021092BB021092BA028093AD
:10164000BC028091C1028B7F8093C1021092C202C2
:101650001092C4021092C3028AEA92E00E949A1E7B
:101660000895A1E1B0E0E7E3FBE00C9431AB809199
:101670005F02882309F064C00E94FF0880E00E9496
:10168000070981E00E94070982E00E94070911E032
:1016900019835FEEA52EAA824DECB42EBB823BEAE5
:1016A000C32ECC8229E8D22EDD8297E6E92EEE8287
:1016B00085E4F82EFF8203E2088719878EE1BE01D8
:1016C0006F5F7F4F0E949E0A85E1BE016E5F7F4F74
:1016D0000E949E0AAA86BB86CC86DD86EE86FF86A1
:1016E000088B198B80E0BE01665F7F4F0E949E0AC7
:1016F00083E092E0909378028093770284EC9AE002
:1017000090937A028093790284E792E00E946C1EA3
:1017100088EC9AE0909373028093720280E692E0E4
:101720000E941C7010935F022FB7F89480914F03B2
:101730009091500394609093500380934F032FBF78
:101740006196EAE00C944DAB0895089508950895CC
:1017500080E28CBB0895ED9A08958DB3ED98807268
:1017600008952C9A08952C980895179A089517981B
:1017700008952C98249A179A0F9A6D987598089541
:10178000EAE6F0E080818C608083089584E008952B
:1017900080E008951F9310E00E94B01581E80E9438
:1017A0009915812F0E949915182F0E94AE15183097
:1017B00099F71F9108950E94EA0408958F929F92CD
:1017C000AF92BF92CF92DF92EF92FF920F930E945F
:1017D0003E104B015C012091CF0230E040E050E030
:1017E00060E070E080E090E000E20E94800528293F
:1017F00039294A295B290F91FF90EF90DF90CF9014
:10180000BF90AF909F908F900895CF93DF93EC019E
:101810000097D1F08091CA029091CB028C179D075E
:1018200019F460E070E008C08AEC92E0BE010E940A
:101830008F0FBC01009741F08AEC92E0AE010E944C
:10184000710F20E030E002C02FEF3FEFC901DF91C0
:10185000CF910895CF93DF93EC01009771F0E09161
:10186000CA02F091CB0206C0EC17FD07D9F0019037
:10187000F081E02D3097C1F706C02FEF3FEFC9018F
:10188000DF91CF9108950E941A129B01AC01198239
:1018900018826A837B838C839D838AEC92E0BE01ED
:1018A0000E94220F20E030E0EACFEF92FF920F93E8
:1018B0001F93CF93DF9318C08AEC92E060E070E052
:1018C000AE010E94710F8A85882359F4EA82FB8257
:1018D0000C831D838AEC92E0BE01A80197010E944F
:1018E000220FEB85FC8509958091CA029091CB026D
:1018F000892BD9F00E941A127B018C01C091CA0277
:10190000D091CB028A819B81AC81BD81A8019701D6
:10191000281B390B4A0B5B0B8E819F81A885B985EB
:10192000281739074A075B0738F6CDB7DEB7E6E078
:101930000C9451AB382FE82FE650E230B0F4F0E0D1
:10194000EE0FFF1FE252FD4F80819181892B69F0DC
:101950002DB381E090E002C0880F991F3A95E2F71D
:10196000282B2DBB20E030E002C02FEF3FEFC90154
:10197000089587E08093CC0280E98093BC00809139
:10198000F10280628093F1022FB7F89480914F03A7
:101990009091500382609093500380934F032FBF28
:1019A00008958091CC02882319F42FEF3FEF08C0EF
:1019B0001092380C1092370C1092CC0220E030E0DC
:1019C000C90108958091CC02823041F08091CC020F
:1019D000833021F08091CC02843021F48091320C4C
:1019E000880F08C08091CC02853051F48091320C70
:1019F000880F8F5F8093BB0085E88093BC000895BB
:101A00000E94B90C08959091310C8091300C981778
:101A100090F48091310CE0912E0CF0912F0CE80F96
:101A2000F11D90818F5F8093310C9093BB0085E80E
:101A30008093BC00089586E08093CC0284E9809373
:101A4000BC008091F10280628093F1022FB7F8947C
:101A500080914F0390915003826090935003809344
:101A60004F032FBF08958091330C9091340CA091B7
:101A7000350CB091360C2091310C21502093310C53
:101A80002091310C220F220F220F04C0B695A7958A
:101A9000979587952A95D2F78093BB0085E8809328
:101AA000BC008091310C882359F48091CC028230A3
:101AB00021F484E08093CC02089585E08093CC02E9
:101AC00008958091CC02843019F40E94030D08958A
:101AD0008091CC02823021F08091CC02833019F4C5
:101AE0000E94330D08958091CC02853021F485EA5F
:101AF0008093BC0008950E94B90C08958091CC0297
:101B0000853099F48091300C813021F48091BC00B3
:101B10008F7B03C08091BC0080648093BC00809167
:101B2000BC0085688093BC0008950E94B90C08959C
:101B3000982F8091CC02853029F58091310CE0916D
:101B40002E0CF0912F0CE80FF11D90838F5F809386
:101B5000310C2091310C8091300C30E090E00197F5
:101B60002817390724F48091BC00806403C0809159
:101B7000BC008F7B8093BC008091BC008568809303
:101B8000BC0008950E94B90C0895982F8091CC0252
:101B9000853021F58091310CE0912E0CF0912F0CC5
:101BA000E80FF11D90838F5F8093310C86E0809366
:101BB000CC0284E98093BC008091F1028062809322
:101BC000F1022FB7F89480914F03909150038260F7
:101BD0009093500380934F032FBF08950E94B90C38
:101BE0000895E091370CF091380C309791F0809186
:101BF000CC02863041F48091BC0084FDFCCF81E0B2
:101C00008093CC0204C081E08093CC0280E00995EF
:101C1000089581E08093CC020895FC018091CD026B
:101C2000882319F02EEF3FEF58C0309709F453C0C6
:101C30008481958120813181820F931F8150904151
:101C400008F049C081E08093CD027093400C60930E
:101C50003F0CA9E3BCE086E001900D928150E1F7D2
:101C6000F999FECF20E030E017C0E0913B0CF091F5
:101C70003C0CE20FF31F8091390C90913A0C0196C5
:101C800090933A0C8093390C019792BD81BDF89ADC
:101C900080B580832F5F3F4F80913D0C90913E0C2B
:101CA0002817390710F310923E0C10923D0C8091CA
:101CB000F00280618093F0022FB7F89480914F0377
:101CC0009091500382609093500380934F032FBFF5
:101CD00020E030E002C02FEF3FEFC901089590E00F
:101CE0008091CD02813009F491E0892F089580918F
:101CF0003D0C90913E0C892B51F41092CD02E09155
:101D00003F0CF091400C309719F1099508956091BE
:101D1000390C70913A0C6F5F7F4F70933A0C60935F
:101D2000390C61507040E0913B0CF0913C0C4191BA
:101D3000F0933C0CE0933B0C8CE00E9443138091A9
:101D40003D0C90913E0C019790933E0C80933D0C7E
:101D50000895CF93DF93FC018091CD02882319F081
:101D60002EEF3FEF6BC0309709F466C084819581F8
:101D700020813181820F931F8150904108F05CC017
:101D800081E08093CD02A9E3BCE086E001900D9252
:101D90008150E1F77093400C60933F0C672B19F46E
:101DA000C0E0D0E03BC06091390C70913A0C6F5F9D
:101DB0007F4F70933A0C6093390C61507040E09102
:101DC0003B0CF0913C0C4191F0933C0CE0933B0CAC
:101DD0008CE00E94431380913D0C90913E0C019742
:101DE00090933E0C80933D0C24C06091390C70910F
:101DF0003A0C6F5F7F4F70933A0C6093390C6150CF
:101E00007040E0913B0CF0913C0C4191F0933C0C04
:101E1000E0933B0C84E00E944313219680913D0C9B
:101E200090913E0CC817D90700F3F999FECF109294
:101E3000CD0220E030E002C02FEF3FEFC901DF917B
:101E4000CF910895A0E0B0E0E8E2FFE00C9431AB60
:101E50008C01EB0169017A01FC01608171816115DE
:101E6000710589F1FB01AA24BB24268137814085B5
:101E7000518582819381A481B581280F391F4A1F22
:101E80005B1F2C193D094E095F092F3F8FEF380763
:101E90008FEF48078FE7580748F48E819F81A88508
:101EA000B985281739074A075B0738F48081918183
:101EB0005F01009761F0FC01D8CFE617F70731F416
:101EC000F983E883F801D183C08306C0CF01F5010F
:101ED000D183C08399838883CDB7DEB7EAE00C94C1
:101EE0004DABCF93DF93EC01DB01FA01888199813F
:101EF0004817590739F480819181118210828883B3
:101F000099830AC08081918111969C938E9311824E
:101F100010828C9111969C91DF91CF910895FC01D4
:101F20000190F081E02D06C080819181861797078E
:101F300019F0FC013097C1F7CF0108958091CE02CE
:101F4000813051F482E08093CE02E091410CF09117
:101F5000420C309709F0099508958FB7F8941092C4
:101F6000D7021092D6021092D5028FBF08958091A9
:101F700070008C7F809370008091B60080628093A7
:101F8000B6001092B2001092B0001092B100109200
:101F9000B3008091B60090E08F719070892BC9F7E3
:101FA00083E087BB87E08093B100809170008160FF
:101FB0008093700008958091B60090E08F719070CA
:101FC000892BC9F7809170008C7F8093700080917D
:101FD000B100887F8093B10083B5826083BD80911A
:101FE000B60090E08F719070892BC9F78091B60090
:101FF0008F7D8093B6000895EF92FF920F931F9309
:102000007B018C016091B200862F90E080959095C5
:102010009C01442737FD4095542F3070407050701C
:102020002E153F054007510798F4D801C701821BC0
:10203000930BA40BB50B9C01AD01BB27A52F942FCF
:10204000832F9093D6028093D5022093D70211C09C
:102050008091B60090E08F719070892BC9F76E0D5A
:102060006093B30082E087BB8091700082608093B0
:1020700070001F910F91FF90EF900895EF92FF92E3
:102080000F931F936FB7F8947091D0022091B20014
:1020900084E48093B4008091B60090E08F719070DA
:1020A000892BC9F7B89904C030E040E050E00AC07D
:1020B0008091B200282F30E040E050E021503F4FA7
:1020C0004F4F5F4F6FBF8FEF789FC0011124AA273A
:1020D00097FDA095BA2F820F931FA41FB51F9C01D7
:1020E000AD0175E0220F331F441F551F7A95D1F7BC
:1020F0007C018D0162E016950795F794E7946A9547
:10210000D1F72E0D3F1D401F511FE090D102F090DE
:10211000D2020091D3021091D4022E0D3F1D401F18
:10212000511F281B390B4A0B5B0BB901CA011F91C8
:102130000F91FF90EF90089560E270E080E090E0F2
:1021400008952FB7F8946091D0021092D0022FBF5B
:1021500070E080E090E020E43FE140E050E00E9449
:10216000C8AA2091D1023091D2024091D30250915D
:10217000D402260F371F481F591F2093D1023093D6
:10218000D2024093D3025093D40226173707480750
:10219000590728F48091CF028F5F8093CF02089572
:1021A0001F920F920FB60F920BB60F9211242F931E
:1021B0003F934F935F936F937F938F939F93AF93CF
:1021C000BF93EF93FF93809170008D7F8093700099
:1021D0001092D7028091170380FF03C080E00E9415
:1021E00013148091170382FF11C08091ED0281606A
:1021F0008093ED022FB7F89480914F039091500394
:1022000082609093500380934F032FBFFF91EF9113
:10221000BF91AF919F918F917F916F915F914F91FE
:102220003F912F910F900BBE0F900FBE0F901F90FC
:1022300018958091170380FF0FC081E00E9413144E
:10224000809170008D7F809370000E94AD0F80910F
:1022500017038B7F8093170308951F920F920FB679
:102260000F920BB60F9211242F933F934F935F93CE
:102270006F937F938F939F93AF93BF93EF93FF934E
:102280008091D5029091D602892BA1F58091D70239
:102290008823E9F48091170380FF03C080E00E9447
:1022A00013148091170382FF34C08091ED02816086
:1022B0008093ED022FB7F89480914F0390915003D3
:1022C00082609093500380934F032FBF22C0809170
:1022D000B60090E08F719070892BC9F78091D7027A
:1022E0008093B30082E087BB80917000826080930E
:1022F000700009C08091D5029091D6020197909309
:10230000D6028093D5028091170380FF02C00E94FD
:102310009F138091D0028F5F8093D0028091ED0255
:1023200082608093ED022FB7F89480914F039091D3
:10233000500382609093500380934F032FBFFF910F
:10234000EF91BF91AF919F918F917F916F915F912D
:102350004F913F912F910F900BBE0F900FBE0F909A
:102360001F90189580E197E29093A9008093A800B0
:10237000E1EAF0E088E08083808182608083E2E7A8
:10238000F0E080818260808308952091DA023091AC
:10239000DB024091DC025091DD02260F371F481FFF
:1023A000591F2093DA023093DB024093DC025093F2
:1023B000DD028091F10280688093F1022FB7F894DA
:1023C00080914F03909150038260909350038093CB
:1023D0004F032FBF08952FB7F8946091D902109240
:1023E000D9022FBF70E080E090E02AE030E040E0CA
:1023F00050E00E94C8AA2091DA023091DB0240919D
:10240000DC025091DD02260F371F481F591F209311
:10241000DA023093DB024093DC025093DD02261790
:1024200037074807590728F48091D8028F5F8093B7
:10243000D80208950E94EB116091DA027091DB02DC
:102440008091DC029091DD0208951F920F920FB6E9
:102450000F9211242F938F939F938091D9028F5FB6
:102460008093D9028091F10280688093F1022FB7A6
:10247000F89480914F0390915003826090935003A1
:1024800080934F032FBF9F918F912F910F900FBE7D
:102490000F901F9018952DB141E050E0082E02C01A
:1024A000440F551F0A94E2F7942F909592239DB9FB
:1024B0009EB1942B9EB9EAE6F0E090818450880F9B
:1024C00023E030E0082E02C0220F331F0A94E2F707
:1024D000209529232083908170E06370707002C082
:1024E000660F771F8A95E2F7962B90838CB3482B63
:1024F0004CBB08951F920F920FB60F920BB60F921E
:1025000011242F933F934F935F936F937F938F93F8
:102510009F93AF93BF93EF93FF930E941911E091A4
:10252000E002F091E102309709F00995FF91EF91F7
:10253000BF91AF919F918F917F916F915F914F91DB
:102540003F912F910F900BBE0F900FBE0F901F90D9
:1025500018951F920F920FB60F920BB60F9211247F
:102560002F933F934F935F936F937F938F939F939B
:10257000AF93BF93EF93FF930E941911E091DE0296
:10258000F091DF02309709F00995FF91EF91BF912B
:10259000AF919F918F917F916F915F914F913F91FB
:1025A0002F910F900BBE0F900FBE0F901F9018959C
:1025B0001F920F920FB60F920BB60F9211242F930A
:1025C0003F934F935F936F937F938F939F93AF93BB
:1025D000BF93EF93FF938091B90090E0887F907054
:1025E0008832910559F1893291058CF48031910539
:1025F00011F1813191052CF4009719F1089781F5BB
:102600001AC088319105D1F0809751F51AC08834ED
:102610009105B9F0893491053CF48033910589F036
:1026200080349105E9F410C08035910581F088353A
:102630009105B1F411C00E94E20C12C00E94610D1C
:102640000FC00E94B90C0CC00E947E0D09C0809181
:10265000BB000E94980D04C08091BB000E94C50D74
:10266000FF91EF91BF91AF919F918F917F916F916A
:102670005F914F913F912F910F900BBE0F900FBE26
:102680000F901F901895982FF999FECF07B600FC70
:10269000FDCF72BD61BD40BD8FB7F8949FBBF99A65
:1026A0008FBF08951F920F920FB60F9211242F9390
:1026B0008F939F93FB988091F00280618093F0024A
:1026C0002FB7F89480914F039091500382609093BC
:1026D000500380934F032FBF9F918F912F910F90A5
:1026E0000FBE0F901F9018950E943E102091E2029D
:1026F0003091E3024091E4025091E502621B730BBA
:10270000840B950B1092E2021092E3021092E40205
:102710001092E5020E94C5118091A1008260809311
:10272000A1000E94CA0B8091170381FD07C0E091B0
:102730000803F0910903309709F0099508950E9464
:102740008618882309F44EC08091170382FD03C0C8
:102750002FEF3FEF66C024982C988091B60090E050
:102760008F719070892BC9F78091700081FD0AC02C
:102770008FEF8093B3008091B60090E08F719070DE
:10278000892BC9F78091B000806C8093B000809154
:10279000B60090E08F719070892BC9F78091B100DD
:1027A00080688093B1008091B60090E08F71907046
:1027B000892BC9F78091B0008F738093B00080910E
:1027C000B60090E08F719070892BC9F78091B000AE
:1027D00080688093B0008091B60090E08F71907017
:1027E000892BC9F78091170381608093170380912B
:1027F000B60090E08F719070892BC9F78091F2023A
:1028000080688093F2022FB7F89480914F039091E3
:10281000500382609093500380934F032FBF20E0BA
:1028200030E0C9010895909117038170880F9C7F53
:10283000982B909317030E948618882311F42C98E4
:102840000EC024982C988091B0008F738093B000B4
:102850008091B60090E08F719070892BC9F7249A0F
:102860008091F10284608093F1022FB7F8948091F7
:102870004F039091500382609093500380934F03D5
:102880002FBF08958091170380FF5CC08091A10045
:102890008D7F8093A1008091E2029091E302A0914C
:1028A000E402B091E5020097A105B10551F40E9440
:1028B0003E106093E2027093E3028093E4029093EF
:1028C000E5028091F7028111EC9AF999FECF0E94FE
:1028D00086188823B1F42C9A249A8091170382FFDA
:1028E00005C087E083BF889513BE22C00E94DB0F1E
:1028F00085E083BF889513BE0E94B70F0E947D15A7
:1029000017C0909172002091BC0030917A00109213
:1029100072001092BC0010927A00249A87E083BF64
:10292000889513BE909372002093BC0030937A0078
:1029300084E48093B4008091B60090E08F71907031
:10294000892BC9F708951F920F920FB60F920BB6FD
:102950000F9211242F933F934F935F938F939F93E5
:10296000EF93FF938091E602E091E702F091E80295
:10297000882351F48091E9029091EA022091790034
:10298000E80FF91F20830FC08091E9029091EA02BD
:1029900040917800509179009C01220F331FE20F83
:1029A000F31F5183408301969093EA028093E902DA
:1029B0002091E9023091EA028091EB029091EC02C1
:1029C00028173907B1F480917A00877F80937A00C5
:1029D0008091F00288608093F0022FB7F894809184
:1029E0004F039091500382609093500380934F0364
:1029F0002FBFFF91EF919F918F915F914F913F91E9
:102A00002F910F900BBE0F900FBE0F901F90189537
:102A1000A0E0B0E0EEE0F5E10C942DAB00E8C2E8F8
:102A2000DBE810E092E8C92E9BE8D92EE12CF12CCE
:102A300082E8A82E8BE8B82E0E94F204BC018BE835
:102A40006338780718F19E0140E050E0CB01A0E028
:102A5000B0E082589B48A040B040281739074A0789
:102A60005B074CF4123039F48091660081508093FA
:102A70006600000036C08091660081508093660039
:102A80000000EB01C258DB4811E028C08BE8623837
:102A9000780739F1CE01A0E0B0E09B0140E050E0C2
:102AA00036014701621A730A840A950A861597054A
:102AB000A805B9054CF4113039F4809166008F5F98
:102AC0008093660000000DC0809166008F5F809348
:102AD00066000000E501C61BD70B12E0015009F0AB
:102AE000ABCFCDB7DEB7EEE00C9449AB0E948618B1
:102AF000882311F40E9408150895CF93DF93C0E056
:102B0000D0E088EC0E94EA04219683E1C838D80717
:102B1000C1F70E947615DF91CF910895289A2398E6
:102B20002B98229A219A209A80E58CBD81E08DBD58
:102B300008958EBD000000000000000000000000AD
:102B40000000000000000000000000000000000085
:102B50000000000000008DB58EB50895289A0895F4
:102B6000289808958091ED0280FF0BC09FB7F894DC
:102B70008091ED028E7F8093ED029FBF0E94FE192F
:102B800077C08091ED0281FF0BC09FB7F8948091D0
:102B9000ED028D7F8093ED029FBF0E94A11068C05F
:102BA0008091EF0287FF0BC09FB7F8948091EF02EE
:102BB0008F778093EF029FBF0E94061859C08091C3
:102BC000F00283FF0BC09FB7F8948091F002877FDB
:102BD0008093F0029FBF0E949E0F4AC08091F00236
:102BE00084FF0BC09FB7F8948091F0028F7E809392
:102BF000F0029FBF0E94770E3BC08091F10282FFDE
:102C00000BC09FB7F8948091F1028B7F8093F10203
:102C10009FBF0E9474132CC08091F10285FF0BC0EE
:102C20009FB7F8948091F1028F7D8093F1029FBF4E
:102C30000E94F10D1DC08091F10287FF0BC09FB76C
:102C4000F8948091F1028F778093F1029FBF0E94E8
:102C5000550C0EC08091F20287FF0AC09FB7F8940E
:102C60008091F2028F778093F2029FBF0E944214FC
:102C70008091ED028823A1F48091EE02882381F4F3
:102C80008091EF02882361F48091F002882341F45F
:102C90008091F102882321F48091F202882361F06F
:102CA0002FB7F89480914F039091500382609093D6
:102CB000500380934F032FBF08959091FA0221E0B3
:102CC00030E002C0220F331F8A95E2F7922B9093D7
:102CD000FA028091EF0280688093EF022FB7F89498
:102CE00080914F03909150038260909350038093A2
:102CF0004F032FBF0895CF93DF93E82FF0E0CF016C
:102D0000805C9040A3E095958795AA95E1F7482FC0
:102D100050E0EA01CC0FDD1FCD50DD4FA881B98115
:102D2000109721F481818F7781836CC090968C916C
:102D3000909783FD67C05496ED91FC91559784FF61
:102D400009C06083E881F981848995890196958B12
:102D5000848B58C0EF2B09F455C01696CD91DC91A9
:102D6000179716968D919C911797019617969C939D
:102D70008E93169716962D913C91179756968D9196
:102D80009C9157972817390721F417961C921E9289
:102D9000169716962D913C91179714968D919C91AC
:102DA00015972817390729F41796DC93CE931697B1
:102DB00029C05496ED91FC915597EC0FFD1F60834F
:102DC00018968D919C911997019619969C938E93C4
:102DD0001897440F551F4D505D4FEA01E881F98166
:102DE00080A180FF0FC08385883C61F418962D91E7
:102DF0003C911997868997899695879582179307AD
:102E000008F45D9ADF91CF910895E82FF0E0E05C3F
:102E1000F04083E0F595E7958A95E1F7F0E0EE0F55
:102E2000FF1FED50FD4F0190F081E02D3097C1F074
:102E30004FB7F89422813381808191814FBF281749
:102E4000390711F481E08287828D938D892B11F4EB
:102E5000118E108E068CF78DE02D309709F00995B4
:102E60000895E82FF0E0E05CF04023E0F595E79569
:102E70002A95E1F7F0E0EE0FFF1FED50FD4F0190B6
:102E8000F081E02D309791F080A1887179F48FB7AF
:102E9000F894208531858FBF2115310539F0048CD8
:102EA000F58DE02D309711F0C9010995089580EC5A
:102EB0000E940517089580EC0E943117089588EC50
:102EC0000E940517089588EC0E9431170895CF934A
:102ED000DF93282FA82FB0E0CD01805C904033E035
:102EE000959587953A95E1F7C82FD0E0FE01EE0F52
:102EF000FF1FED50FD4F608171816115710509F46F
:102F000076C0283CD1F5FB0180A1282F81FD02C0AD
:102F100030E009C08CB190E0E4E096958795EA95A1
:102F2000E1F7382F317020FD02C080E008C089B180
:102F300090E054E0969587955A95E1F78170332398
:102F400011F48823D1F08AE090E0A0E0B0E0809313
:102F5000010390930203A0930303B093040381E061
:102F6000809305038AEF97E190930703809306030C
:102F70008BEF92E00E942A0C3AC02FB7F894FB0125
:102F800082819381408151812FBF8417950749F138
:102F9000808D918D840F951FFC0190819A012F5F88
:102FA0003F4F8C9180648C9316969C931697CC0F10
:102FB000DD1FCD50DD4FE881F981828D938D28177B
:102FC000390711F420E030E011968C91119780625E
:102FD00011968C938FB7F894FB01318320838FBFB8
:102FE00006C011968C911197806411968C93DF9195
:102FF000CF91089588EC0E946717089588EC0E948D
:103000006717089580EC0E9467170895CF92DF92AA
:10301000FF920F931F93DF93CF9300D00F92CDB702
:10302000DEB781E08983FF2400E010E0F2E0CF2EDC
:10303000D12CCC0EDD1E9091FA0289818923B9F042
:103040002FB7F8949091FA02898189278093FA0228
:103050002FBF6F2D70E0660F771F6D5A784FC60136
:1030600042E050E00E94C4ABEA81FB810995F394F1
:103070008981880F89830F5F1F4F06301105D9F6AC
:103080000F900F900F90CF91DF911F910F91FF90B4
:10309000DF90CF900895ADE0B0E0E1E5F8E10C9469
:1030A00039ABFC01009719F42FEF3FEF2AC0848160
:1030B0009581909309038093080380819181A28177
:1030C000B3818F839887A987BA8781E08B871D8614
:1030D0001C86CE0101960E94271A2FEF8F3F920780
:1030E00071F08D5F9F4F59F00E949F138F5F9F4F2C
:1030F00019F020E030E005C02DEF3FEF02C02EEFC9
:103100003FEFC9012D96E2E00C9455AB8091180376
:103110000895F999FECF9FB7F894E0E0F0E089E0D8
:103120008093570084919FBF8F70823019F4109262
:10313000180303C081E0809318038091180388234B
:1031400069F48FB7F8945F9350E85093610050E0B2
:10315000509361005F918FBF0E947D1508951F926B
:103160000F920FB60F920BB60F9211242F933F932D
:103170004F935F936F937F938F939F93AF93BF937F
:10318000EF93FF930E9419118091F7028111EC983F
:10319000E091F802F091F902309709F00995FF915A
:1031A000EF91BF91AF919F918F917F916F915F91BF
:1031B0004F913F912F910F900BBE0F900FBE0F902C
:1031C0001F9018951F920F920FB60F920BB60F9289
:1031D00011242F933F934F935F936F937F938F931C
:1031E0009F93AF93BF93EF93FF938091C80060913B
:1031F000CE008C7131F488EC0E947B1685E00E9431
:103200005D16FF91EF91BF91AF919F918F917F914B
:103210006F915F914F913F912F910F900BBE0F9047
:103220000FBE0F901F9018951F920F920FB60F921E
:103230000BB60F9211242F933F934F935F936F938D
:103240007F938F939F93AF93BF93EF93FF93E9EC9B
:10325000F0E080818F7B808384E00E945D16FF9187
:10326000EF91BF91AF919F918F917F916F915F91FE
:103270004F913F912F910F900BBE0F900FBE0F906B
:103280001F9018951F920F920FB60F920BB60F92C8
:1032900011242F933F934F935F936F937F938F935B
:1032A0009F93AF93BF93EF93FF93E9ECF0E080819E
:1032B0008F7D808383E00E945D16FF91EF91BF9127
:1032C000AF919F918F917F916F915F914F913F91BE
:1032D0002F910F900BBE0F900FBE0F901F9018955F
:1032E0001F920F920FB60F920BB60F9211242F93CD
:1032F0003F934F935F936F937F938F939F93AF937E
:10330000BF93EF93FF938091C0006091C6008C71D2
:1033100031F480EC0E947B1682E00E945D16FF91E2
:10332000EF91BF91AF919F918F917F916F915F913D
:103330004F913F912F910F900BBE0F900FBE0F90AA
:103340001F9018951F920F920FB60F920BB60F9207
:1033500011242F933F934F935F936F937F938F939A
:103360009F93AF93BF93EF93FF93E1ECF0E08081E5
:103370008F7B808381E00E945D16FF91EF91BF916A
:10338000AF919F918F917F916F915F914F913F91FD
:103390002F910F900BBE0F900FBE0F901F9018959E
:1033A0001F920F920FB60F920BB60F9211242F930C
:1033B0003F934F935F936F937F938F939F93AF93BD
:1033C000BF93EF93FF93E1ECF0E080818F7D8083EA
:1033D00080E00E945D16FF91EF91BF91AF919F91A8
:1033E0008F917F916F915F914F913F912F910F90AE
:1033F0000BBE0F900FBE0F901F9018959091170362
:1034000092FF24C0809114038823B1F4E091150346
:10341000F0911603309709F009958091170382FF08
:1034200015C0609110037091110380911203909167
:1034300013030E94FC0F08959B7F90931703E09164
:103440001503F0911603309709F009950895CF936D
:10345000DF93EC01009719F42FEF3FEF2EC00E948D
:103460009C102E813F81488559850E94C8AA28EE6C
:1034700033E040E050E00E9407ABB901CA0161159A
:1034800071058105910519F42EEF3FEF16C02091CB
:10349000170322FF03C02DEF3FEF0FC024602093DE
:1034A0001703AAE0B3E0FE012DE001900D92215038
:1034B000E1F70E94FC0F20E030E0C901DF91CF91DD
:1034C0000895FC010097A9F086EA858B8085882302
:1034D00081F08F3F71F08385833031F484898823B4
:1034E00041F08F3F19F405C0813019F4158A81E04D
:1034F000089580E00895809135038F5F80933503B0
:103500008150089580911D03815080931D03809107
:103510004D0C833021F481E080934D0C089510927E
:103520004D0C0895FC01A081B1819093F70C80931C
:10353000F60C1092E30C1092E40C809144038093FB
:10354000E80C53962D913C915497E091530CF091D7
:10355000540CC901BF010E94F3AA462F6093E60CE8
:10356000C901BF010E94F3AA892B19F04F5F409354
:10357000E60C8FEF90E00090030B02C0880F991FBC
:103580000A94E2F780958E7F8093E50C0E947B1A67
:103590008093E70C0895FC01878983FD03C080E0D8
:1035A00090E0089520E0838994898036910508F49D
:1035B00021E081E02827822F089520914B0C309143
:1035C0004C0CFC01EC5BFF4F80819181821B930BC3
:1035D00063E270E00E94F3AA83E2689FB0011124C5
:1035E000620F731FCB010895FC01009729F48091AD
:1035F00026039091270308958081918108951F9358
:10360000182FA0E0B0E007C01396ED91FC9114973D
:103610008081181731F0CD010E94F41ADC01009767
:1036200099F7CD011F910895FF920F931F93082FD3
:10363000A091430C4091480C5091490C90E060E0FF
:1036400070E081C0FA01E60FF71F9B01265A3F4F39
:10365000878180FD76C0EC5BFF4F11821082E454BD
:10366000F0400230F1F0023018F0033009F06EC083
:103670009091470C8091450C981708F067C09F5FA8
:103680009093470C1382148215821682E091480CA5
:10369000F091490CE60FF71F80858F7080871282AA
:1036A0003BC09091460C8091440C981708F04EC096
:1036B000F0904A0CE0914B0CF0914C0C10E040E083
:1036C00050E024C0DF018081B3969A012D5D3F4F09
:1036D0008823D1F49F5F9093460C21E02C93E091D6
:1036E000480CF091490CE60FF71FEC5BFF4F8091FF
:1036F0004B0C90914C0C840F951F489691838083BE
:10370000E454F040228304C01F5FA9011F15D0F2CA
:1037100080914A0C8117D1F0E091480CF091490C4E
:10372000E60FF71F8085807F8087000F0160078389
:10373000118210822091480C3091490C260F371FBE
:1037400007C09F5FB9019A1708F47CCF20E030E0F2
:10375000C9011F910F91FF900895CF93DF9320919E
:10376000480C3091490C821B930B6AE570E00E9473
:10377000F3AA8AE5689FE0011124F901EC0FFD1F0F
:103780008781869590E08230910569F083309105BC
:1037900014F0039731F58091470C882311F1815083
:1037A0008093470C1EC08091460C882319F08150ED
:1037B0008093460C20914B0C30914C0CEC5BFF4FEE
:1037C00080819181821B930B63E270E00E94F3AAD7
:1037D00083E2689FF0011124E20FF31F80818111C1
:1037E0001082E091480CF091490CEC0FFD1F87818D
:1037F0008E7F8783DF91CF91089520914A0CE091CD
:103800004B0CF0914C0C90E005C08081B39688235E
:10381000C9F49F5F9217C8F32091430CE091480CC4
:10382000F091490C90E006C08781E65AFF4F80FD79
:1038300009C09F5F9217C0F380914D0C882319F047
:1038400081E0089581E0089521E030E002C0220F78
:10385000331F8A95E2F780914D03822B80934D03AD
:103860002FB7F89480914F0390915003806290930A
:10387000500380934F032FBF0895CF93DF93EC0144
:10388000FA01009721F16B8F4115510549F08081B4
:103890009181A281B3818C8F9D8FAE8FBF8F04C029
:1038A0001C8E1D8E1E8E1F8EE98DFA8D309719F09D
:1038B000CE014B960995CE010E94CB1A882339F090
:1038C0001092F70C1092F60C81E00E94241CDF91FC
:1038D000CF910895A2E0B0E0E0E7FCE10C9439ABB1
:1038E00040914E0320914D03522F642F30E06F5FC3
:1038F000683008F060E0C901062E02C096958795F1
:103900000A94E2F780FF1CC060934E0381E090E0D0
:10391000062E02C0880F991F0A94E2F75827509389
:103920004D0370E0660F771F615A784FCE01019604
:1039300042E050E00E94C4ABE981FA81099504C0DD
:103940004617A9F640934E0380914D03882361F0FA
:103950002FB7F89480914F03909150038062909319
:10396000500380934F032FBF2296E2E00C9455AB97
:10397000FF920F931F938C01F62E82E293E00E9438
:10398000CF6AD8011796FC9217971596ED91FC9186
:103990001697C801079609958091220390912303F9
:1039A000892B19F080E00E94241C1F910F91FF9039
:1039B000089520911D032F5F20931D030E948D45C4
:1039C0000895CF92DF92EF92FF921F93CF93DF93F0
:1039D0006C01EB01C45BDF4F86E39EE19983888332
:1039E0002C9782E08993F60183819481998388835F
:1039F0002796808D8993199281E089938883CB548F
:103A0000D040E090530CF090540CC6010E94CB1AA9
:103A10008823E1F12091E30C622F8091E60C90E085
:103A2000019730E02817390711F01E2D0AC02E9D8E
:103A3000C0012F9D900D3E9D900D1124F60113891C
:103A4000181B4091F80C5091F90C405E5F4F862F87
:103A500090E09C012E9DC0012F9D900D3E9D900DEC
:103A60001124F60125893689280F391FCA01B901A9
:103A7000412F50E00E94DAABCD5BDF4F165F199308
:103A80008091F80C9091F90C469609C0CD5BDF4F00
:103A9000F6018389885F8993858996890897998338
:103AA0008883C454D040CC5BDF4FE880F980C45495
:103AB000D040F7018081982F9C7E9083F60123816E
:103AC0003481807E275F3F4F08F08860F701808354
:103AD000F7012081922F9F7D9083F601878982FDD7
:103AE00004C02F79F701208316C09064F7019083FA
:103AF0001885107F11601887C6010E94CB1A1F70AD
:103B0000882319F08091E80C02C0809144038295CB
:103B1000807F182B1887C6010E94CB1AF70190816D
:103B20008823A1F0906890839091E30C808599237D
:103B300039F48C7F816080878091E60C818709C091
:103B40008C7F8260F7018087918703C09F77F701A0
:103B50009083F6018585F7018183F601808991893B
:103B6000F70193838283F60186859785F701958314
:103B70008483F6018289F7018683C6010E94CB1AED
:103B8000882319F08091E70C02C00E947B1AF7018C
:103B90008783CE0109960E94D91C80E0DF91CF91E6
:103BA0001F91FF90EF90DF90CF900895E091F60C79
:103BB000F091F70C80819181BF010E94E11C089572
:103BC00087ED9CE09093AA0C8093A90C22E02093AF
:103BD000A50C20915C0C30915D0C3093A70C2093C8
:103BE000A60C2BE02093A80C1092AD0C1092AE0CFA
:103BF00021E02093AF0C2093B00C22E83AE13093FF
:103C0000B20C2093B10C22E82093D70C2091630CC6
:103C10002093D80C20915F0C3091600C3093DA0C1B
:103C20002093D90C2091610C3091620C3093DC0C04
:103C30002093DB0C20915E0C2093DD0C2091640C12
:103C40002093DE0C22E02093DF0C20915A0C20936D
:103C5000E00C20915B0C2093E10C2091E20C20936E
:103C6000C00C895690400E94D91C0895BC018091D7
:103C70001D03815080931D038BE193E00E94B76A7E
:103C800081E00E94241C08950F931F93BC010091B2
:103C900022031091230382E293E00E94B76A012B72
:103CA00019F480E00E94241C1F910F910895FC01DB
:103CB00085EC8283CF010E94441E0895FC018AE8AE
:103CC0008283CF010E94441E0895FC0189E1828312
:103CD000CF010E94441E0895CF93DF93EC0100971B
:103CE000E9F086EA8F83EB81FC813097B9F090810F
:103CF000892F8150803F90F4892F0E94FF1A892BD1
:103D000069F420E08D819E81892B09F421E02A83CA
:103D100086E293E0BE010E94B76A1F82DF91CF91D5
:103D20000895BC018EE193E00E94B76A81E00E9491
:103D3000241C0895BC0180E293E00E94B76A81E0F0
:103D40000E94241C0895A3E0B0E0E9EAFEE10C948F
:103D500033AB6C01675F7F4F7B836A838BE0BE016F
:103D60006F5F7F4F0E94830A8981882309F441C0D5
:103D7000EA80FB8081E0D701D7968C93D797F60134
:103D800083819481D9969C938E93D8978389885FF9
:103D9000DA968C93DA970589168908501040DC96DC
:103DA0001C930E93DB978FEFD80111968C9311978C
:103DB0008089918913969C938E9312978685978517
:103DC00015969C938E931497828916968C930E94D5
:103DD0007B1AF8018783D701DB96ED91FC91DC9784
:103DE00088E08083EA81FB81ED5BFF4F86E39EE103
:103DF0003FC0EA80FB8082E0F70187AB8DEF9FEF49
:103E000091AF80AFD60153968C915397875F82AF65
:103E100055960D911C9156970950104014AF03AF61
:103E200013968D919C911497F801928381835096FB
:103E30008D919C915197948383831E968D919C9133
:103E40001F979683858352968C9187830E947B1A55
:103E5000D80118968C93D701DB96ED91FC91DC97F5
:103E60008CE08083EA81FB81ED5BFF4F8BE59FE176
:103E700091838083EA81FB81D60158968C9187AF2C
:103E8000EA81FB81E05CFF4F8091020B8083EA8135
:103E9000FB81EF5BFF4F81E08083EA81FB81EE5B7A
:103EA000FF4F80838A819B810E94D91C80E02396EA
:103EB000E8E00C944FAB0F931F93CF93DF93EC018B
:103EC0008C0105541040D801DB96ED91FC91DC97F4
:103ED000818192816FEF0E94AA33882349F0229753
:103EE00086E39EE199838883C8010E94973F03C0BF
:103EF000CE010E94361EDF91CF911F910F91089540
:103F0000FC018589843A11F08A3AA1F4808548172A
:103F100089F4818592856817790761F4CF01B90129
:103F200048E050E00E94CDAB9C0180E0232B19F4C7
:103F300081E0089580E00895A0E0B0E0E2EAFFE1CA
:103F40000C9432ABFC016B01B42E79012091290352
:103F500030912A039091280386E1989F80011124D3
:103F6000020F131F309711F4E9010EC0EF010BC0CF
:103F7000CE01B6014B2D97010E94801F882319F0B6
:103F80008D89843A31F06696C017D10788F3C0E076
:103F9000D0E0CE01CDB7DEB7E9E00C944EAB8F9206
:103FA0009F92AF92BF92CF92DF92FF920F931F9397
:103FB000CF93DF938C016B010E946F304C01F601AF
:103FC000E85AFF4FC081D18128EAF22E5F012AC052
:103FD000D501CD93DC938B858330C9F4CE010C964B
:103FE0000E94AC65FC0199EAF92E3097D9F08C89D2
:103FF000D8011D968C931D978081918114969C9376
:104000008E931397C801B6010E94E11C09C08C85EC
:104010009D85F80194838383C801B6010E94A31E85
:10402000F82E0EC0D80150966D917C915197CE011B
:1040300052964C9194010E949C1FEC01009741F60E
:104040008F2DDF91CF911F910F91FF90DF90CF9037
:10405000BF90AF909F908F9008950F931F93CF9331
:10406000DF93EC01088119814423A9F46E3C21F00F
:10407000603F11F042E001C043E0CD5ADF4F88813C
:104080009981AA81BB81C355D040F801848F958F57
:10409000A68FB78F638F423019F04330C1F40BC045
:1040A000E881F9818281882331F4C801BE010E9430
:1040B000CF1F883A61F488819981F801638D045E8D
:1040C0001F4FA8010E943D1CCE010E94AD1BDF9135
:1040D000CF911F910F9108951F93CF93DF93EB0121
:1040E000C85ADF4F19821882C855D040BE010E94BD
:1040F000CF1F182F882319F0CE010E94AD1B812FEE
:10410000DF91CF911F910895A0E0B0E0EAE8F0E2DE
:104110000C9430AB8C01962EC0912903D0912A03C8
:104120009091280386E1989F70011124EC0EFD1EEA
:1041300058015CE0C52ED12CC00ED11E29C0F8015B
:1041400061857285CE01408595010E94801F88237C
:10415000F1F0F80193858B859817C9F4913041F4FB
:10416000248535858C859D852817390781F417C0EE
:10417000F80194898C89981751F4BE01645F7F4FD0
:10418000C60148E050E00E94CDAB009741F0669632
:10419000CE15DF05A0F2F801958AC0E0D0E0CE018F
:1041A000CDB7DEB7EBE00C944CABCF93DF93EC01D3
:1041B0000E94611A882349F0CE0164EA0E9484209B
:1041C000FC01009711F088EA858BDF91CF9108956B
:1041D000CF93DF93EC010E94611A882391F1CE0105
:1041E00060E00E948420892B29F5409128032091CA
:1041F000290330912A0390E00CC0F90185892A5ED9
:104200003F4F883A29F484EA858B309739F419C0F6
:104210009F5F941790F38EEA8D8B13C09F01DE0190
:1042200086E10D90E90109929E018150D1F784EA5F
:10423000858B07C0CE0166EA0E94842024EAFC0137
:10424000258BDF91CF9108950F931F930E94B4ABFC
:104250008C0164E0000F111F6A95E1F700700E9465
:10426000B4AB282F30E0202B312BC9011F910F91C7
:104270000895A0E0B0E0EFE3F1E20C9434AB7C01F0
:1042800080E090E027C08A81882319F5EB81FC81CA
:1042900021813281D7015C968D919C915D97281781
:1042A0003907B9F4D0805B968C915B978D1549F4F2
:1042B0001F960D911C9150970E94613308171907A2
:1042C00041F0F701838194816D2D0E94AA338823E8
:1042D00039F4CE010E94F41AEC010097A1F608C04F
:1042E000D7011D96DC92ED81FE81C7010995F1CFC2
:1042F000CDB7DEB7E7E00C9450ABADE2B0E0E3E859
:10430000F1E20C942DAB7C01162FDC011A96AD90D6
:10431000BC901B9715966D917C9116978BE293E05C
:10432000F50147810E94756B882309F434C1D501DA
:1043300011969C91892F81508E3F18F06624772426
:1043400004C0892F0E94FF1A3C01F5018181815030
:104350008E3F20F46114710409F41DC1D701129637
:104360008C91129713962D913C911497813009F0FE
:1043700082E08B833D832C83F50181818E87D70179
:1043800015968D919C9116970E944B4B9C0100971E
:1043900059F083E08F87DE015296F90188E00190A1
:1043A0000D928150E1F702C082E08F87F70185818D
:1043B0009681998B888B878190859B8F8A8FD50179
:1043C00016968C9116978C8F14968D919C911597BB
:1043D0009E8F8D8F12968D919C91139798A38F8F9E
:1043E000218530E02A5030403AA329A3265F3F4F71
:1043F0001DA28C9187FD07C0285030403AA329A305
:10440000285F3F4F0AC0F5018085837031F4295041
:1044100030403AA329A3275F3F4F89A19AA1281BC7
:10442000390BD7011A968D919C911B97820F931F80
:104430009CA38BA31EA352968C9152978FA31C967C
:104440008C911C9788A71E968D919D910D90BC9183
:10445000A02D89A79AA7ABA7BCA7F70185858DA733
:10446000D5018C9187FF51C018968C918370823052
:1044700009F04BC0E091500CF091510C808189A360
:104480001AA28081882E992401E010E032C0609148
:104490004E0C70914F0CDB01A80DB91DE091500C32
:1044A000F091510CE00FF11F40818091530C9091DD
:1044B000540C089F9001099F300D189F300D112456
:1044C000260F371FCD01B90150E00E94DAABE09111
:1044D000500CF091510CE00FF11F208189A19AA19D
:1044E000820F911D9AA389A38081880E911C0F5F72
:1044F0001F4FC090590CDD240C151D0544F280910E
:104500004E0C90914F0C9CA38BA36114710449F045
:10451000D3011596ED91FC911697CE010196099560
:104520003AC0F7018281813029F4CE0101960E94C0
:10453000392131C0D50111968C918F3F41F500E0B2
:1045400010E06E010894C11CD11C1AC0D80113964A
:10455000ED91FC9114978081882391F012968C91B3
:104560001297882369F4218132818D8D9E8D2817C1
:10457000390731F41596ED91FC911697C60109950E
:10458000C8010E94F41A8C01009701F704C0CE0103
:1045900001960E94D171F701158A0388F489E02DF4
:1045A000C70145960995AD96EEE00C9449ABA0E0A5
:1045B000B0E0EDEDF2E20C9431AB6C01A62EFC0103
:1045C000C285D3859981892F81508E3F98F4892F98
:1045D0000E94FF1ADC01009769F01396ED91FC919F
:1045E0001497218132818C819D812817390709F028
:1045F000EAC007C0898181508E3F08F4E4C0A0E082
:10460000B0E0988197FF04C08885837009F0DBC013
:1046100096FD02C091E0D8C09C70983009F4D3C0D8
:10462000F60165817681FFEF673F7F0708F0CBC019
:10463000109729F012968C91882309F0C4C0F601D6
:1046400002851385F801808186FFB9C083708130AF
:1046500019F0E7E0FE2E02C0FF24F3943091430CE2
:10466000A091480CB091490CAF5BBF4F20E04F2D9B
:1046700050E0E801C40FD51F1DC0A154B0401796EB
:104680008C911797AF5BBF4F853089F48D919C91CA
:1046900011976817790759F41396ED91FC911497C7
:1046A000E40FF51F98818081981709F488C02F5F67
:1046B000A65ABF4F231708F382E00E94141BDC01A7
:1046C000009709F47CC0AC5BBF4FCD91DC91119792
:1046D000FE017897A182D382C282149762E06D9323
:1046E000F6018581968111969C938E9317961D9263
:1046F0001D9281E08D938D9386E39EE111969C93AC
:104700008E93AC54B04088818C7F82608883F8019E
:1047100090819C70837F892B8883908190718F7E9C
:10472000892B982F9F799883908190788F71892B0E
:10473000888380814F2D50E09D012D5B3F4F84FF8A
:104740000BC0F60182859385840F951FFC01808143
:104750008983F90160832DC088E0F9018083F80125
:1047600086818983828193819B838A8384819581D9
:104770009D838C8381818E83F60182859385840F4E
:10478000951FFC0180818F83F801808187FF11C014
:104790008085837031F41886F90180818F5F808372
:1047A00008C0F90180818D5F8083F8018085837066
:1047B0008887CD0109960E94D91C91E001C090E044
:1047C00081E089279FC190E0888187FF92C1888519
:1047D000837009F48EC1F601C285D3854185F984C1
:1047E0002091520C222309F48CC176EFB72EB40E1F
:1047F00080914D0C882321F0813009F082C14AC09C
:104800001885113009F07DC12F1508F47AC1409147
:10481000530C5091540C8B2D90E04817590708F415
:1048200070C1822F90E04F5F5F4F849F9001859F02
:10483000300D949F300D112480914E0C90914F0CAF
:1048400060E070E0A9010E94F5ABA092E20C109329
:104850004D0CF092590CF6018581968190935D0C78
:1048600080935C0C898180935E0C8A819B819093FC
:10487000600C80935F0C8C819D819093620C80937F
:10488000610C8E818093630C8F818093640C1092F5
:104890005A0CFF249885892F8370823019F0FF20ED
:1048A00009F02FC19C7F09F02CC18091590C8F1504
:1048B00008F427C120915C0C30915D0CF6018581D4
:1048C00096812817390709F01CC190915E0C8981E7
:1048D000981709F016C120915F0C3091600C8A8105
:1048E0009B812817390709F00CC12091610C309188
:1048F000620C8C819D812817390709F002C19091C3
:10490000630C8E81981709F0FCC09091640C8F8124
:10491000981709F0F6C0CF2DD0E020915A0C609185
:10492000030B822F90E0860F911DC817D9070CF05A
:10493000E8C08F2D0E94E7AAE92EF21670F48F2DA1
:10494000891B80935A0C81E090E002C0880F991F68
:104950006A95E2F7819580935B0C0F2D10E08091B2
:10496000530C9091540C9C01029FC001039F900D29
:10497000129F900D112420914E0C30914F0C280F56
:10498000391FF60142855385465F5F4FC901BA0161
:104990004B2D50E00E94DAABE091500CF091510C9D
:1049A000E00FF11FB08280915A0C8F1591F4209185
:1049B000590C8091030B2F19821708F4282F81E0DE
:1049C00090E002C0880F991F2A95E2F781958093A5
:1049D0005B0C81E090E00E2C02C0880F991F0A94B6
:1049E000E2F730915B0C382B30935B0C8091590CC3
:1049F00090E00197C817D90791F40E94E01D8091BB
:104A00005B0C8F3F09F044C010924D0C1092550C76
:104A10001092560C1092570C1092580C6CC02091AA
:104A20005A0C8091030B90E0820F911D0197C817DB
:104A3000D90711F03F3F61F50E94E01D83E08093AC
:104A40004D0C80915B0C8F3F19F59091030B809179
:104A50005A0C890F80935A0C0F2D00958091590C98
:104A6000080F901708F4092F81E090E0002E02C093
:104A7000880F991F0A94E2F7819580935B0C10923E
:104A8000550C1092560C1092570C1092580C39C0BD
:104A90006091030B70E061507040882777FD80952E
:104AA000982F2AE030E040E050E00E94C8AA9B0125
:104AB000AC016091490370914A0380914B0390913E
:104AC0004C03620F731F841F951F2091440330E035
:104AD00040E050E00E94C8AA6093550C7093560CB9
:104AE0008093570C9093580C86E393E00E94216CBE
:104AF00008C0992331F0C6016A2D0E947D2180E013
:104B000001C081E0CDB7DEB7EAE00C944DAB88E39D
:104B10006AE47CE00E94830A8CE46BE47CE00E94FF
:104B2000B80A20E043E250E012C0822F90E0BC01BE
:104B3000649FC001659F900D749F900D1124E091BA
:104B40004B0CF0914C0CE80FF91F10822F5F8091F5
:104B50004A0C281750F387E363E47CE00E94830A41
:104B60008BE468E47CE00E94B80A20E04AE550E06B
:104B700014C0822F90E0BC01649FC001659F900D1E
:104B8000749F900D1124E091480CF091490CE80FAE
:104B9000F91F87818E7F87832F5F9091430C2917A0
:104BA00040F380914A0C8093440C923008F091506D
:104BB0009093450C1092460C1092470C8EE363E5DF
:104BC0007CE00E94830A8DE362E57CE00E94830A18
:104BD0008091520C882351F08DE46EE47CE00E94B9
:104BE000B80A8EE468EF7CE00E94B80A8091520C0B
:104BF0002091530C3091540C90E0A901849F9001B6
:104C0000859F300D949F300D112480914E0C909112
:104C10004F0C820F931F9093510C8093500C109265
:104C20004D0C0895FF920F931F93CF93DF9301E0F4
:104C300010E0FAE5FF2ECFEFD0E049C01F9D9001B4
:104C40001124E091480CF091490CE20FF31F978179
:104C500090FF3CC080858F708230C1F5892F8E7F98
:104C6000823011F0863091F583819481A581B681DF
:104C70008A309105A105B10548F00A97A109B1094B
:104C800083839483A583B68300E020C08085807FE2
:104C9000846080871382148215821682E091480C0A
:104CA000F091490CE20FF31F87818E7F863059F413
:104CB000CE010090030B02C0880F991F0A94E2F7FF
:104CC00080958093E50C81E00E94241C1F5F8091F9
:104CD000430C181708F4B2CF8091550C9091560CE4
:104CE000A091570CB091580C0097A105B105D9F0CF
:104CF0008B309105A105B10560F00A97A109B109B2
:104D00008093550C9093560CA093570CB093580C6D
:104D100010C01092550C1092560C1092570C109215
:104D2000580C0E94E01D002321F086E393E00E94CE
:104D3000F66BCDB7DEB7E5E00C9452AB80E191E0C5
:104D400090931A0380931903109223031092220365
:104D500010924D0310924E031092270310922603D7
:104D60000E9487250E9467460895A8E0B0E0EBEB1B
:104D7000F6E20C9435ABF0905E0B8EE2BE016F5FF5
:104D80007F4F0E94830A8E010B5F1F4F87E1B8019E
:104D90000E94830A2D813E814F8158858F2D90E09E
:104DA000A0E0B0E082179307A407B50760F0220FD8
:104DB000331F441F551F2D833E834F83588787E140
:104DC000B8010E949E0A2F2D30E0295F3F4F4427F3
:104DD00037FD4095542F209345033093460340936D
:104DE000470350934803E980FF2400E010E0C80126
:104DF000B701660F771F881F991F6E0D711D811DEA
:104E0000911D0E94C8AA2D813E814F815885260F91
:104E1000371F481F591F2093490330934A0340937B
:104E20004B0350934C0386E393E060E02AE030E0CC
:104E300040E050E002E116E20E94FF6B89E3BE0110
:104E40006E5F7F4F0E94830A86E4BE016D5F7F4FD5
:104E50000E94B80A70914403E0904903F0904A031D
:104E600000914B0310914C0360E020E030E040E003
:104E700050E013C0D801C701062E04C0880F991F47
:104E8000AA1FBB1F0A94D2F781509E4FAF4FBF4F4E
:104E9000280F391F4A1F5B1F6F5F671758F3CA013E
:104EA000B90124EF31E040E050E00E9407AB022F4F
:104EB0006B817C810E5F8BE293E04A8124EF31E0CD
:104EC000EE24E3940E94FF6A2896E6E00C9451AB2E
:104ED0000F931F93882359F00E9424218093350358
:104EE00010921D0381E264E473E00E94830A109231
:104EF00021031092200310921F0310921E031092A0
:104F00001C0310921B0310922503109224038AE0C5
:104F100090E0A0E0B0E08093EF0C9093F00CA093B1
:104F2000F10CB093F20C86ED9DE19093F50C80931B
:104F3000F40C81E08093F30C84E263E07BE00E9458
:104F4000830A10925B0C1092640C1092590C109210
:104F5000600C10925F0C10925A0C10925E0C109222
:104F6000620C1092610C10925D0C10925C0C10920D
:104F7000630C10924D0C1092550C1092560C10921E
:104F8000570C1092580C8AE5E5E6FCE0DF011D9213
:104F90008A95E9F783E2EFEBFCE0DF011D928A9549
:104FA000E9F70091520C8091530C9091540C0196AA
:104FB00010E0089F9001099F300D189F300D1124BB
:104FC00080914E0C90914F0C60E070E0A9010E941E
:104FD000F5AB87ED9CE09093AA0C8093A90C0E94FE
:104FE000B5261F910F910895AAE4B0E0EAEFF7E229
:104FF0000C9429AB2091190330911A0338AF2FABD1
:1050000041E02031340709F4B4C32053334009F0A0
:10501000D3C1AFC32091480C3091490CC801821B09
:10502000930B6AE570E00E94F3AA8AE5689F40014D
:105030001124820E931EAFA9B8ADE6E0A031BE07E1
:1050400019F0A050B540F1F4D40117968C918E7FE1
:10505000843071F4C4010E94DD1AFC016181D80121
:1050600012968C91882321F4828193810E947D2164
:10507000A8014B5F5F4FF4018081918163EA0E9438
:105080003D1C97C1D40117968C91282E2694332469
:10509000B1E02B163104D9F0E2E02E16310424F4ED
:1050A0002114310461F088C1F2E02F16310409F4B3
:1050B00077C123E02216310409F07EC1ADC0C401DE
:1050C000D80112966C9140E00E942D2075C1F40128
:1050D00080858F70813009F06FC1D8011996BC911D
:1050E000BAAB87E1BE016F5F7F4F0E94830A409099
:1050F0004503509046036090470370904803A98091
:10510000BA80CB80DC80E0914403EBABD4011896ED
:105110008C9182958F70F0E0E81BF109FCABEBAB52
:10512000D80112966C91662309F03FC00E94242199
:105130007C0100E010E02FEF31E040E050E0E2229F
:10514000F32204231523A1010BA802C0440F551F0D
:105150000A94E2F75AAF49AF1A015AA9652F70E0D5
:1051600080E090E0A30192010E94C8AAA60EB71E9B
:10517000C81ED91EC101AA2797FDA095BA2F89AFD5
:105180009AAFABAFBCAFBC01CD01A60195010E94A7
:10519000C8AAE60EF71E081F191FD4011396ED9238
:1051A000FD920D931C9316972EC06E3C11F0603F3C
:1051B00061F4A8014B5F5F4FF401808191810E94EF
:1051C0003D1CC8010E94AD1BD4C20E9424219170D5
:1051D00028EE33E00BA802C0220F331F0A94E2F737
:1051E000AC01420F531F5EAF4DAFCA01A0E0B0E06B
:1051F00021968CAF9DAFAEAFBFAF2197F4018383F3
:105200009483A583B683D40118968C911897807FD8
:10521000826018968C93BFC0F40180858F708130B6
:1052200009F0CAC0F091E30C2296FFAF22972091BB
:10523000E60C24962FAF2497422F50E04150504067
:1052400025965FAF4EAF25978F2F90E023969FAFA7
:105250008EAF23978417950779F13091030BA091B6
:10526000E50CADAB4A2F20E025C0FDA9EF2FF0E003
:10527000FEABEDABCF01022E02C0959587950A9447
:10528000E2F780FF16C081E090E0022E02C0880F96
:10529000991F0A94E2F7809584238093E50C80910E
:1052A000E40C280F2093E30C89EE9CE00E942A0C6A
:1052B00083C02F5F2317C8F2D8011996EC9087E1BD
:1052C000BE016F5F7F4F0E94830AB0914403269610
:1052D000BFAF2697F401808582958F702B2F30E029
:1052E000281B310927963FAF2EAF279741E050E0AA
:1052F00026960FAC269702C0440F551F0A94E2F77A
:1053000029965FAF4EAF2997FF2400E010E020916F
:105310004503309146034091470350914803C8012B
:10532000B7010E94C8AA29813A814B815C81260F6E
:10533000371F481F591F29968EAD9FAD2997AA2761
:1053400097FDA095BA2F2B968CAF9DAFAEAFBFAF98
:105350002B97BC01CD010E94C8AA7B018C01C09093
:10536000F60CD090F70C0E942421A0E0B0E09170E0
:10537000A070B0708E0D9F1DA01FB11FF60183831A
:105380009483A583B683E091F60CF091F70C8085A9
:10539000807F8260808786E393E00E94216C0CC04E
:1053A000C4010E94DD1AFC018281938161810E9407
:1053B0007D21C8010E94AD1B8BE193E00E94CF6A62
:1053C0008C01009709F026CED4C18EE193E00E94B3
:1053D000CF6A0F53144051F0D7011A96ED91FC910A
:1053E0001B9780818370813009F0B7C1F701528526
:1053F0006385E52FF62F3081732F707436FF14C04C
:105400004091460C4090430C2091470C842F90E033
:10541000820F911D5524841595050CF09EC1809135
:10542000440C481708F099C1932F9C70943009F4EC
:1054300094C1772359F0832F8370823009F48DC192
:10544000983009F48AC19C3009F487C135FD85C1C3
:10545000D7011296DC90B1E0DB16A1F022E0D21663
:1054600009F07BC1808173E0672E68227724611484
:10547000710431F032E06316710409F06EC182C02C
:105480009C3041F0C7016FEA0E94D722882309F4BB
:1054900072C163C1052F162FD70115966D917C91AE
:1054A00016978BE293E0F80140850E94756B882384
:1054B00009F453C1D70119968C91893008F44DC174
:1054C000B1E0BF83F8018181928199878887D701F4
:1054D00015968D919C9116970E944B4B009759F011
:1054E000B3E0BB8BDE015696FC0188E001900D9283
:1054F0008150E1F706C0DB8AF701858196819D8B9B
:105500008C8BD70117968D919C9118979F8F8E8FBA
:10551000F801878188A3858196819AA389A38381D5
:1055200094819CA38BA31996AC901997BB2427EF69
:105530003FEFA20EB31EBEA2ADA21A968D919C9112
:105540001B97099698A78FA319A68FEA8AA7529648
:105550008C9152978BA71C968C911C978CA71E96AA
:105560008D919D910D90BC91A02D8DA79EA7AFA769
:10557000B8ABD7011D968C9189ABCE0105960E94E0
:105580003921EBC0A52FB62F0091480C1091490C82
:105590008091430C8C9DA0011124400F511FD9C054
:1055A000F801D780D0FED3C080858F70823009F09B
:1055B000CEC0EC5BFF4F60817181F80180819181E9
:1055C000F70125813681FC018381948128173907F1
:1055D00009F0BDC0FB0117969C911797878198171A
:1055E00009F0B5C014962D913C9115978481958151
:1055F0002817390709F0ABC012962D913C911397EB
:10560000828193812817390709F0A1C011969C91D6
:1056100011978681981709F09AC016969C91169753
:105620008181981709F093C08D2D8E7F823049F4C7
:10563000D80118968C911897807F836018968C9368
:1056400034C0863009F083C019969C9119978091D7
:10565000E40C981709F081C081E090E00090030B02
:1056600002C0880F991F0A94E2F781951A962C912F
:105670001A97282B1A962C931A97F8018085807F09
:10568000836080871A968C918F3F79F52090E30C88
:105690008090E60C992408948108910833242814FA
:1056A000390449F4C8010E94921AC80160E040E040
:1056B0000E942D2052C08091030B2091E40C280FF2
:1056C0002093E40C309144033093E80C2093E30CD6
:1056D0002FEF30E002C0220F331F8A95E2F7C90195
:1056E00080958E7F8093E50C28C0382F30953093BD
:1056F000E50C6091030B20E0432F50E01CC0CA0171
:10570000022E02C0959587950A94E2F780FF12C099
:1057100081E090E0022E02C0880F991F0A94E2F700
:10572000809583238093E50C8091E40C280F2093CF
:10573000E30C03C02F5F261710F3E091F60CF091F5
:10574000F70C80819181BF010E94E11C06C0065ABE
:105750001F4F0417150708F423CFD70155961C9245
:1057600055975396ED91FC915497C701459609952D
:1057700002C06AE5C62EE0901E03F0901F03009160
:10578000190310911A03E114F10409F01ECE01FF70
:105790000CC002C180E293E0B8010E94DF6AC80138
:1057A00063EA40E050E00E943D1C0091200310910C
:1057B00021030115110571F7F9C08091F60C909144
:1057C000F70C892BA1F0C7010E94CB1A882351F452
:1057D0000EC0F701808191819C017901211531056D
:1057E00009F4E4C0C7010E94CB1A882391F7D701BE
:1057F00057961C91812F837F09F062C0C7010E94D8
:10580000CB1A882349F08091F80C9091F90C892BE0
:1058100009F456C012FF54C0F70183899489803679
:10582000910528F013FD03C050EAD52E91C0D70191
:1058300052968C91882329F00E94FF1A892B09F433
:1058400078C1F7018789282F247082FF0DC08281DB
:10585000823039F483819481885F9F4F08F069C159
:1058600003C0813009F465C1D70112969C9112974B
:10587000892F8250823030F41D968C91815F8E305A
:1058800008F457C1992309F045C1222309F442C104
:10589000F701C088D188B2880E946F308C01E0E0A7
:1058A000F0E004C08385813009F443C1CF01B60123
:1058B0004B2D98010E949C1FFC01009799F72AC16B
:1058C0004AEAD42E45C03CE6A32E30E2B32EC701EF
:1058D0000E94CB1A882311F083E008C0D7015796A5
:1058E0008C9182FF02C081E001C080E00E94141B05
:1058F0008C0122C180E00E94141B8C0123EAA22E9D
:105900002EE1B22E19C1C70105960E94AC65FC01BB
:10591000009709F417C180819181F70194838383F3
:105920009282C7010E94CB1A882311F083E008C03D
:10593000D70157968C9182FF02C081E001C080E0C0
:105940000E94141B8C0191EEA92E9CE1B92EF4C08B
:1059500000E010E0AA24BB2480E293E0B7010E949B
:10596000DF6ADD2091F4F801F182E082C7010E9434
:10597000CB1A882319F0C8010E94921AC701B801F6
:10598000F5010995D82E882349F0C7016D2D40E017
:1059900050E00E943D1C02C082E0982EE09020035F
:1059A000F0902103E114F10409F007CF809119036D
:1059B00090911A03F5E080309F0751F126E0803185
:1059C000920769F525C0109F70011124E091480CE1
:1059D000F091490CEE0DFF1D87818330B9F480856D
:1059E0008F70843011F0823089F48081918163EA74
:1059F00040E050E00E943D1C8091480C9091490C81
:105A00008E0D9F1D825B9F4F0E94AD1B1F5F02C0CA
:105A100010E00AE58091430C1817A8F261C08F537B
:105A2000944009F05DC010E00AE555C0109FC00128
:105A30001124E091480CF091490CE80FF91F2781DF
:105A400020FF48C09085892F8F70843009F042C0B4
:105A5000822F8E7F823011F08630E1F5907FA9F1A0
:105A60009085892F8F708130A9F1907F916090513E
:105A7000908780911D038F5F80931D0387818E7FA8
:105A8000823049F4CF0109960E948D4586E393E068
:105A90000E94216C1FC08630E9F48091E50C8E7F56
:105AA0008093E50C8091E40C8093E30C8091E80CEA
:105AB00081508093E80CE091F60CF091F70C808116
:105AC0009181BF010E94E11C05C0CF0167EA40E05F
:105AD0000E942D201F5F8091430C181708F4A6CF59
