S02B0000416C6C5F5A69674269745F41746D656761313238315F52663231325F384D687A5F4763632F4578656A
S2840000000C9473040C94AB040C94AB040C94AB040C94AB040C945D210C943FB50C9429230C94FA220C94AB040C94AB040C94AB040C94AB040C947A1F0C94AB040C94D71F0C94AB040C94AB040C94AB040C94AB040C94AB040C94AB040C94AB040C94AB040C94AB040C941E220C947E220C9450220C94AB040C9433250C94DB230C94AB0447
S2840000800C94AB040C94AB040C94AB040C94AB040C9490210C94F0210C94C2210C9461230C94AB040C94AB040C94CF200C9467B50C94AB040C94AB040C94AB040C94AB040C94AB040C94AB040C94AB040B3F863E583F583F583F8C3E913E223F583F943E973EA13EA93E583FAC3EAF3EB23E583FB73EBA3E223FBF3EFF3E143F583F023F8B
S284000100053F8A3E083F083F223F223F223F223F223F223F223F223F223F223F223F223F223F223F223F223F223FF53E223F583F583F583F583F583F583F583F583F583F583F583F583F583F583F223F173F1A3F223FEE3E6740723F694069406940773F7F3F69406940873F8C3FA63FAE3F6940B33FBB3FC53F6940CD3FD23F6940DA3F5F
S284000180F73F09406940FC3F044067406740674013401340134013401340134013401340134013401340134013401340134013401340ED3F13406940694069406940694069406940694069406940694069406940694013400E4067401340E83FE860F0607C6025612561C360D060256125612561FA6009619C60A86025617960DB6024640D
S2840002003164456457645E646B64786483648B64A964D4649564786678661A66216621662D662D663E663E663E664F664F664F66408970897089708945895A894F8954897F894A895F895F896489708976897A899A8A9D8AA08AA08AA38AAF8AA98AAC8ABF8AA68AB28AB58AB88ABB8ACC8BD08BF88BD48BD88BF88BDC8BF88BEA8BEE8B9C
S284000280F58B519104922192D5909D929D9212922192279275924E929D929D9275922E91789206A20BA2C6A2DEA2F5A2EDA31CA4BEA4BEA4BEA4BEA4BEA4BEA4BEA4BEA4BEA499A3A7A3BEA4C0A1C9A3B1A2E9A41DA553A53FA530A553A56BA59CA59CA59CA59CA59CA59CA59CA59CA59CA53FA553A59CA5DCA446A52AA57AAD78AD78ADAF
S284000300A7ADAEADC1ADC9ADCCADCFADD2ADD5ADDCAEE3AEF2AEFAAEFCAEFEAE00AF03AF646464646464646464646464646463636363636363636363636363626262626262626161616161606060605F5F5F5E5E5D5D5D5C5C5B5B5A5959585757565554535251504F4E4D4B4A4947454442403E3C3A383634312F2C2A2928282727262655
S28400038025252524242423232323222222222121212120202020201F1F1F1F1F1E1E1E1E1E00000100020003000400050006000700080009000A000B000C000D000E000F00100012001400160018001A001C001E00200022002400260028002A002C002E003100350039003D004100450049004D005100550059005D006100650069006D5C
S2840004000073007B0083008B0093009B00A300AB00B300BB00C300CB00D300DB00E300EB00F7000701170127013701470157016701770187019701A701B701C701D701E701FF011F023F025F027F029F02BF02DF02FF021F033F035F037F039F03BF03DF030F044F048F04CF040F054F058F05CF050F064F068F06CF060F074F078F07CF31
S284000480072F08AF082F09AF092F0AAF0A2F0BAF0B2F0CAF0C2F0DAF0D2F0EAF0E2F0FAF0F610E04007C0E0C00AA0E0D00110E15002C0F1900240F1A008D0E1B008E0E1C008F0E1D00990E1E007E0E2F00840E31002E0F3200270F3400B40E3500BA0E3600C30E3800320F3900830E4100B90E420076074300F90D1B01220C3101000000CC
S28400050000000000000000000000000000000000000000000000000000000000000000000000000000000000000000000000000000000000000000000000000000000000000000000000000000000000000000000000000000000000000000000000000000000000000000010201000202050805000100341200000000000000000206020B
S28400058000000000000000000000000000000000000000000000000000000000000000000000000000000000000500FF00000200C83200000300341201030300001027000010270000010001E803000004E80300000000000000000000000000000000000000AAAAAAAAAAAAAAAA030300E093040000840000000805080802050204020AD5
S28400060003080103020801005F0027000C011410610E08006B0E0100780E04007C0E01002B0F0100320F08002E0F0200BA0E0200C30E0100270F01002C0F0100800E0100810E0100820E0100830E01007E0E0200840E0100290F0100280F01003B0E01003D0E0100AA0E0800110E0400900E0400850E0400890E04008D0E01008E0E010072
S2840006808F0E0100990E1100240F0100940E0100950E0400B20E01003E0E0200B40E01007D0E0100B30E0100B50E0400B90E010000000000F2050200F6050100F4050200F8050100F9050100FA050100FB050100FC050100FD050100FE050100FF050100F705010000060100010601000E0602000306010004060100050601000A0604001F
S284000700020601000606010007060100080602004206000076070000C60600004E0800000000000076080000790D0000D10D00004A0B0000C30B0000900B0000FA0B0000250C0000330D00000000000000000000220C0000F90D000025197A187E1821198218861803040506075B3CC835000000000000000000000000BC6A266DA875B5FF
S2840007806946676A6987658B5CFE4AF6642E5690528B4FA84AA84D404A000000000000000000000000020203020102010101010101010202010101020202020202020202020202020303020203024E58E8650108725AA84B0101725AA84B01010658C46601019057165301019057EB52010847579B6A0101EE56F7720101000000000108BE
S284000800000000000101000000000103000025440104000000000105000000000106000000000101000000000101725A0000000100000000010000000000010800000000010A0000000001000000000001010000000001010000000000000000DE4C00080000DE4C000C0000DE4C00000000DE4C0044417F4632420A422A4200004C415CEC
S284000880412242544149462341D943E1434944D1433A42000089475068D25BF8753E730000C377466C8054000000000A090807060504032546ACABAACAEAE9E8E6E5E40D0C0B0A09082A292848ADACABEBEAE9E80D0C0B0A09080706050425242322428584838281A1E1112480911A16823141F084B78F7180931A1680FF05C081E001C0E2
S28400090081E180931A1614BE809160008861809360001092600011241FBECFEFD1E2DEBFCDBF12E0A0E0B2E0E8EAF3E701E00BBF02C007900D92A838B107D9F716E1A8E8B2E001C01D92AA31B107E1F70E94697A0E942C7AFDCF0C9400007F937FB7F8949D9AA5988AEF0E940C058AEF0E940C059D9886E40E940C0581E0959980E08F9395
S28400098080EF0E940C058F917FBF7F9108957F937FB7F8949D9AA59886E00E940C059D988AE00E940C05889495990894881F8F9384E60E940C058F917FBF7F9108959F937F9398E00E94C704879577959A959923C9F7872F7F919F9108957F937FB7F894A5989D9A8F9386E00E940C058F91879508F49D988F9384E60E940C058F919D9828
S284000A007FBF7F9108959F9398E00E94ED049A959923D9F79F91089500000000000000008A958823C9F708955F937F937FB7F894CF93DF93C0E0D0E07F935091B2007091B2007517E1F3739521965091B2005717D9F77F91CE01DF91CF917FBF7F915F910895EF92FF920F93DF93CF93CDB7DEB760970FB6F894DEBF0FBECDBFA82F002305
S284000A8009F461C07E010894E11CF11C88E0F70111928A95E9F729833A834B835C836D837E83AF83988780E2801BE82FFF27E7FDF0954D815E816F817885181684F01D861E861F86188A882799278E1B9F0B04C076956795579547958A95D2F728C0202F332727FD3095DB01CA01022E04C0B695A795979587950A94D2F78D879E87AF87F0
S284000B00B88B04C0440F551F661F771FEA95D2F789819A81AB81BC8104C0B695A795979587952A95D2F7482B592B6A2B7B2B49875A876B877C8729853A854B855C856D857E85AF8598898A2F60960FB6F894DEBF0FBECDBFCF91DF910F91FF90EF900895EF92FF920F93DF93CF93CDB7DEB760970FB6F894DEBF0FBECDBFA82F002309F46F
S284000B8061C07E010894E11CF11C88E0F70111928A95E9F729833A834B835C836D837E83AF83988780E2801BE82FFF27E7FDF09549815A816B817C81181684F019861A861B861C86882799278E1B9F0B04C0440F551F661F771F8A95D2F728C0202F332727FD3095DB01CA01022E04C0880F991FAA1FBB1F0A94D2F789879A87AB87BC8797
S284000C0004C07695679557954795EA95D2F78D819E81AF81B88504C0880F991FAA1FBB1F2A95D2F7482B592B6A2B7B2B4D875E876F87788B29853A854B855C856D857E85AF8598898A2F60960FB6F894DEBF0FBECDBFCF91DF910F91FF90EF900895089502C00E94667A0E94C21C8823D1F708950F931F93CF93DF938C01EB010E94300675
S284000C80C801BE010E94601C8F5F9F4F11F481E006C0CF52D64011F40E94300680E0DF91CF911F910F9108950F931F93CF93DF938C01EB010E943006C801BE010E94FC1C8F5F9F4F11F481E006C0CF52D64011F40E94300680E0DF91CF911F910F910895A8E0B0E0E6E7F6E00C94E5B87B01082F10E0B801660F771F660F771F6F557B4F24
S284000D00CE01019644E050E00E9481B989819A81F701938382832B813C813183208380910D0290E001970817190739F480910E0290910F02821B930B14C0000F111F000F111F0B551B4FCE010596B80144E050E00E9481B98F8198852B813C81821B930BF701958384832896E6E00C9401B9A6E0B0E0EDEBF6E00C94E5B800910D0210E0F8
S284000D807E010894E11CF11C0CC0812FB7010E947006C7016FE276E00E943806882321F41F5F101790F380E02696E6E00C9401B9A4E0B0E0EEEDF6E00C94E9B890933A0680933906662359F486E2BE016F5F7F4F0E94A20F89819A81AB81BC8104C082E390E0A0E0B0E08093340690933506A0933606B093370681E0809338068EE296E0FA
S284000E000E946A162496E2E00C9405B98CE097E060E00E94D8060895ADE0B0E0E2E1F7E00C94DDB881E08093880270900D0252E0852E912C8C0E9D1E46E0642E38E0E32EF12CEC0EFD1E5E010894A11CB11C21E0C22ED12C33C0B4010E947006F701862D11928A95E9F7BB86AA86DD86CC8600E010E01EC08A819B81800F911F9987888745
S284000E80C7016FE276E00E943806AA85BB85EC81FD81E00FF11F9C918081981739F0CE0102966CE077E00E94540623C00F5F1F4F8E819F8108171907E8F215C080918902871548F2109289020E94A908813031F48CE097E061E00E94D8060BC00E9406071092880206C0809189028F5F80938902E5CF2D96EEE00C94F9B8A6E0B0E0E3E8E6
S284000F00F7E00C94E5B80E94E20E00910D0210E07E010894E11CF11C0CC0812FB7010E947006C7016FE276E00E945406882349F41F5F101790F30E94B507882311F40E94A9082696E6E00C9401B90E948808882339F40E94B706813039F00E9406070895813011F00E9406070895EF92FF921F93DF93CF93CDB7DEB727970FB6F894DEBF23
S284000F800FBECDBF8FEF8983CE0101969D838C8380910E0290910F029B838A8381E090E09F838E8310E082E0E82EF12CEC0EFD1EC7016FE276E00E945406882351F42A813B811F5F1A3029F02F5F3F4F3B832A83EFCF27960FB6F894DEBF0FBECDBFCF91DF911F91FF90EF900895A6E0B0E0EBEFF7E00C94DFB88C010097E9F1E0900E02C5
S284001000F0900F02FA82E98281E090E09E838D8348019AE0C92ED12CCE0CDF1C5E010894A11CB11C1FC08B829C820E943006C50160E070E00E94601C8F5F9F4F21F481E0F801838318C00E943006F801808129813A818F3F19F0328321830CC02F5F3F4F3A83298389819A818C159D05E0F2F801F282E18213822696ECE00C94FBB8A7E0A8
S284001080B0E0E5E4F8E00C94E1B88C010097E1F11982FC01108284E090E09B838A8381E090E09F838E83E0900E02F0900F025E010894A11CB11C22E0C22ED12CCC0EDD1E1CC0BD82AC820E943006C60160E070E00E94601C8F5F9F4F21F481E0F801838313C00E943006F80180819981890F80838A819B8101969B838A838A819B818E1510
S2840011009F05F8F2F80113822796EAE00C94FDB8A8E0B0E0EEE8F8E00C94E9B8CE0105960E943F088885813079F0CE0101960E94F5078C81813041F089819D81890F11F082E003C080E001C081E02896E2E00C9405B9AFE0B0E0EFEAF8E00C94E9B88FEF8983CE0102960E94F5078D818130E9F1CE0106960E943F0889858130B1F19E81AB
S2840011808A81890F99F191959E838B819C819B878A87CE0101969D878C8781E090E09F878E87CE010A966FE276E00E9454068823E9F48A859B8501969B878A8740910E0250910F029A01265F3F4F8217930710F05B874A87CE0106969D878C87CE010A966FE276E00E94540601C081E02F96E2E00C9405B90E94000B08951F930E94520BC1
S284001200182F882319F483E00E946D0A812F1F9108951F930E945E0B182F882319F483E00E94870A812F1F9108950E94400D08951F930E943E0C182F882319F481E00E946D0A812F1F9108951F930E94360C182F882319F481E00E94870A812F1F9108950E94F70B08951F930E948B0B182F882319F482E00E946D0A812F1F9108951F9388
S2840012800E94860B182F882319F482E00E94870A812F1F91089590918B02917080918B0281FD9260892F089580918B0282FF12C080918B028B7F80938B0280918B02806180938B02E0918C02F0918D02309711F081E0099580918B0284FF29C0669B16C080918B028F7E80938B0280918B028E7F80938B02E0918E02F0918F02309711F093
S28400130081E0099586E00E94D81911C08091A60281608093A6022FB7F8948091050690910606916090930606809305062FBF80918B0283FF12C080918B02877F80938B0280918B02806280938B02E0918C02F0918D02309711F082E0099580918B0285FF29C0679B16C080918B028F7D80938B0280918B028D7F80938B02E0918E02F0913D
S2840013808F02309711F082E0099587E00E94D81908958091A60281608093A6022FB7F8948091050690910606916090930606809305062FBF089587E00E94F71980918B02826080938B0280918B02886080938B028091A60281608093A6022FB7F8948091050690910606916090930606809305062FBF089586E00E94F71980918B02816050
S28400140080938B0280918B02846080938B028091A60281608093A6022FB7F8948091050690910606916090930606809305062FBF089580918A02813011F081E0089586E00E94171A87E00E94171A10928D0210928C0210928F0210928E0210928A0280E008959C0180918A02882311F081E0089581E080938A0230938D0220938C027093A1
S2840014808F0260938E0286E060E04AEF59E00E94411A87E060E04BED59E00E94411A669B04C080918B028E7F03C080918B02816080938B02679B04C080918B028D7F03C080918B02826080938B0286E00E94D81987E00E94D81980E0089521E030E002C0220F331F8A95E2F7209580919002282320939002222351F46B9A0E9404168823E8
S28400150011F0739A01C07398579A5F9808951F93182F80919002882351F46B9A0E940416882311F0739801C0739A579A5F9A81E090E002C0880F991F1A95E2F720919002282B209390021F910895813049F0813018F0823031F402C02D9A08952F9A08952E9A0895813049F0813018F0823031F402C02D9808952F9808952E980895813038
S28400158069F0813018F0823069F404C085B190E2892702C085B1805885B9089585B190E4892785B9089584E00E946D0A25982D9826982E9827982F9880E00895259A269A279A84E00E94870A80E008956091920270E080E090E026EA3EE040E050E00E9478B8DC01CB01892F9A2FAB2FBB2721E020939102E0919302F09194020995089575
S2840016009C0180919102813011F081E0089582E080939102309394022093930280E00E940F1E80E0089580919F028F5F80939F0260919202462F50E080919E02282F30E0C9010296841795072CF0225030404217530724F460939E0210929F0280919F028431B1F410929F0210929E028091A60288608093A6022FB7F89480910506909135
S2840016800606916090930606809305062FBF089581E08093910280919302909194020E94000B089580919102882311F481E00895109291020E94001E80E0089580919102882311F081E0089582E992E0909399028093980283E19BE090939D0280939C021092950284E08093960281E090E090939B0280939A021092970281E0809391026C
S28400170085E992E00E94271E80E008958091A002811181E008958091A002811181E0089580933F068823D1F410923B0610923C0610923D0610923E068091A60282608093A6022FB7F8948091050690910606916090930606809305062FBF08958091A0028130A1F580913B0690913C06A0913D06B0913E06382F20E0892F9A2FAB2FBB279A
S284001780A7FDBA959070822B932B880F892F881F990BAA2797FDA095BA2F80933B0690933C06A0933D06B0933E068091A60282608093A6022FB7F8948091050690910606916090930606809305062FBF08950E94981A1092A00260913B0670913C06E0914006F091410680913F0609950895ADE0B0E0EDEFFBE00C94E7B88C018091A00269
S284001800882379F50115110561F188E38983CE0101960E944A1C8F5F9F4F19F181E08093A00210934106009340068BE396E09E838D8380E99BE09D878C8789E48A8382E090E09C838B831F82CE0102960E94E41A8F5F9F4F11F080E005C01092A0020E94981A81E02D96E4E00C9403B990E08091A102823008F091E0892F089590E08091E4
S284001880A102823008F091E0892F0895882319F485E08093A1028091A60284608093A6022FB7F8948091050690910606916090930606809305062FBF0895A9E0B0E0E3E6FCE00C94E5B80E94981A8091A102843049F0853009F47AC0833009F077C01092A10277C01A821B821C821D821E821F821886198681E08093A1026091A202809135
S284001900A302862387FF65C070E06F777070660F771F6F557C4FCE01029642E050E00E9481B96091A30270E06F777070660F771F6F557C4FCE01069642E050E00E9481B92A813B814C815D81211531054105510509F43FC06E817F81888599856217730784079507B0F5E7E0660F771F881F991FEA95D1F70E94B7B830E0205E3C4FCE01E5
S2840019800196B90141E050E00E9481B9698170E080E090E02A813B814C815D81EE80FF80088519852E193F09400B510B0E9478B8672F782F892F992787E06733780720F091E066E377E008C091E006C081E08093A10290E060E070E080E0911181E0E091A402F091A50209952996E6E00C9401B9ACE0B0E0EEEFFCE00C94E9B8FE013196C1
S284001A008CE0DF011D928A95E9F789E3898381E090E09B838A8382EA92E09D838C838FEE9DE09C878B8783E48093A202CF010E94A91A20E08F5F9F4F09F021E0822F2C96E2E00C9405B90E94F80C8823A9F485E08093A1028091A60284608093A6022FB7F8948091050690910606916090930606809305062FBF089584E08093A10208955F
S284001A80ADE0B0E0E6E4FDE00C94E7B88C01009709F446C088E389838091A102882339F5CE0101960E944A1C8F5F9F4FC9F1FE0132968CE0DF011D928A95E9F789E38A8381E090E09C838B8382EA92E09E838D8383ED9DE09D878C8783E08093A202CF010E94A91A8F5F9F4F79F082E011C08130B9F4CE0101960E944A1C8F5F9F4F81F064
S284001B000E94F80C882319F40E94981A09C084E08093A1021093A5020093A40280E001C081E02D96E4E00C9403B9ACE0B0E0EBE9FDE00C94E9B893E89093A3028823D9F0FE0131968CE0DF011D928A95E9F78AE29EE09C878B8783EA92E09D838C8381E090E09B838A8389E38983CF010E94A91A8F5F9F4FA1F485E08093A1028091A60243
S284001B8084608093A6022FB7F8948091050690910606916090930606809305062FBF2C96E2E00C9405B98823A9F483E08093A1028091A60284608093A6022FB7F8948091050690910606916090930606809305062FBF089580E092E00E946A160895ACE0B0E0E5EFFDE00C94E9B88823D9F0FE0131968CE0DF011D928A95E9F785E99DE07D
S284001C009C878B8782EA92E09D838C8381E090E09B838A8389E38983CF010E94E41A8F5F9F4FA1F485E08093A1028091A60284608093A6022FB7F8948091050690910606916090930606809305062FBF2C96E2E00C9405B9ACE0B0E0E0E3FEE00C94E9B88823D9F0FE0131968CE0DF011D928A95E9F786E49CE09C878B8783EA92E09D8340
S284001C808C8381E090E09B838A8389E38983CF010E94E41A8F5F9F4FA1F485E08093A1028091A60284608093A6022FB7F8948091050690910606916090930606809305062FBF2C96E2E00C9405B98091A60280FF07C08091A6028E7F8093A6020E9454098091A60281FF07C08091A6028D7F8093A6020E94E70B8091A60282FF07C080919A
S284001D00A6028B7F8093A6020E945D0C8091A60283FF07C08091A602877F8093A6020E94E60A8091A602882361F02FB7F8948091050690910606916090930606809305062FBF0895E0E4FEE088E3DF011D928A95E9F7B19682E08093610E118212821382148215821682178285E080936B0E8AEB9EE06DEF74E042E850E00E9481B981E193
S284001D809EE06FE775E04FE250E00E9481B98FE09EE06EEA75E042E050E00E9481B988E79EE060EB75E042E450E00E9481B98DEC97E0E2E4F6E0DF019C011D9221503040E1F7089582E08093610E1092620E1092630E1092640E1092650E1092660E1092670E1092680E4CE75EE023E020937C0EFA01BE968AEA8093AA0E8183828383831E
S284001E00848385838683878382E090E0A0E0B0E08093110E9093120EA093130EB093140E85E080932C0F81E08093240F80938D0E10928E0E80938F0E84E392E190937F0E80937E0E1092840E81E090E090932F0F80932E0F1092270F1092B40E8FEF9FEF9093BB0E8093BA0E1092C30E1092320F1092330F1092340F1092350F1092360F5B
S284001E801092370F1092380F1092390F1092830EDA01DD961C9288E080932B0F2093810E2093820E10927D0EE6E7F7E0DF011D928A95E9F71092F90D1092220C0895A4E0B0E0E5E6FFE00C94E9B8682F70E0660F771F660F771F605F794FCE01019644E050E00E9481B969817A818B819C812496E2E00C9405B9CF93DF93EB010E945F0F74
S284001F00009719F4CB0168839983DF91CF910895CF93DF93EB016115710589F0893278F406C0CB01BE01422F0E9497B908C00E945F0F592F282F392F2115310591F7DF91CF9108951F93CF93DF93182FEB016115710571F00E945F0F9B01AC01193228F0CE01B9010E9481B903C0CE010E9497B9DF91CF911F9108950E94A20E0E94A50790
S284001F8008951092A8020E94451008959091A802923071F0933030F49923E9F1913009F05AC01BC0943021F1953009F054C02EC0882321F0853009F04EC009C00E945E100E94D11482E390E10E948714089581E08093A8020E94CA141BC08823E1F50E94C01580E392E069E20E94D91484E00BC0882319F0883079F505C08CE39FE00E94A9
S2840020006A16089582E08093A80202C01092A8020E94451008958823F1F48CE39FE00E94451680E197E2A0E0B0E08093420F9093430FA093440FB093450F81E08093460F8CE290E19093480F8093470F82E08093A8020E944510089588E060E070E00E94C60F089585E060E070E00E94C60F08952FB7F894809105069091060694609093FD
S2840020800606809305062FBF08952FB7F8948091050690910606946090930606809305062FBF08958091A702823029F483E08093A7020E943810089508950895A4E0B0E0E4E6F0E10C94E9B880914702909148029A838983CE0101960E94827A8B81809349028C8180934A022496E2E00C9405B98091A702823029F487E060E070E00E9482
S284002100B91208950E94DA150895882361F48091AA02882381F488EC92E00E946A1681E08093AA020895813031F41092AA0288EC92E00E94451608958091AB02882311F40E94C10F8091AB02813011F40E9486138091AB02823011F40E94AC120895AAE0B0E0E5EBF0E10C94E5B8F82E8B01EE24E394E9828091A702823081F0833038F423
S284002180882309F45AC0813009F0C9C1E7C0833009F44DC1843009F0C2C19AC1FF2029F082E0F81609F0BBC11CC08091AB02882321F460E070E00E94C60F8091AB02813029F480E060E070E00E9493138091AB02823009F0A4C180E060E070E00E94B9129EC1FB018081803909F46EC1813920F48E3808F494C10AC0813909F090C1E09221
S284002200A7020E94C8151092A90287C1FB018681978190933B0280933A0283819481909345028093440281819281909348028093470285818093460272C1FF2009F06FC10E94B31580913102882311F40E94711587E2BE016E5F7F4F0E94A20F8A81882381F080E090E060E070E00E94310A0E944B0980FF04C00E947D070E94711A0E940E
S284002280190A21E02093690F81E090E090936B0F80936A0F90936D0F80936C0F80916E0F807F816080936E0F89E69FE09093C4028093C3022093310285E893E19093C6028093C50280E0BE016D5F7F4F0E94A20F8B81809332028C81809333028D81809334028E81809335028F81809336028885809337028985809338028A85809339025A
S28400230080EC92E00E94402C809131028093AB028EE16BEA72E00E94880F80913102823039F419828AE1BE016F5F7F4F0E94880F84EF91E0A0E0B0E08093CE029093CF02A093D002B093D1021092D20282E890E19093D4028093D30281E0ACC0F1E0FF16C9F0FF1628F082E0F81609F0D8C038C080E00E9485100E94DA151092A90281EAD2
S28400238092E19093BF028093BE028CEA92E00E941680C5C081E00E948510F8018785882309F0BBC082E08093A7021092A9020E94D015F8018381948190934502809344028181928190933B0280933A0285859685909348028093470280818093460224C0FB0180818F3809F09AC0FB018381948190934502809344028681978190933B0226
S28400240080933A0281819281909348028093470285818093460281E00E948510F092A7021092A9020E94D0150E949C1078C0F2E0FF1609F442C083E0F816B9F1FF2009F06EC00E94CC158CE992E190934E0380934D0384E390E09093DC028093DB02E092DD028EED92E01092DE021092DF021092E0021092E1021092E2021092E302109260
S284002480E4021092E502FC01B99610920703118212821382148215821682178220E420930F0309970E9462833AC0FB0182858823A1F584E08093A70230C0FB016081603919F0613961F527C084E08093A70227C0F2E0FF1621F5FB0180818F3819F08139F1F419C0F092A702FB018681978190933B0280933A0283819481909345028093EE
S284002500440281819281909348028093470285818093460202C0E092A7020E9438102A96E6E00C9401B9FC018081803521F082E0BF010E94AF100895BC0183E00E94AF100895BC0181E00E94AF10089580E060E070E00E94AF1008958091A802853021F486E08093A80208951092A8020E9445100895FB019091A8029230E9F1933038F4A7
S284002580992309F468C0913009F0AEC043C0953039F0963009F4A2C0933009F0A5C047C0853031F18630E9F0843009F09DC08081882329F40E94C4151092A90217C08091A9028F5F8093A902853038F01092A8021092A9020E945210089581E08093A8027AC08081882311F483E01EC083E0F6CF0E94CA14F2CF882309F076C00E94D11424
S2840026000E945E1085E08093A8028FE793E10E9487140895882309F067C00E94BC1589E49FE00E946E2C85E08093A8020895882321F0873009F058C00AC00E94B01585E08093A8028FE993E00E94F87B08950E94B61582E0C3CF882309F046C08AE793E19093A1038093A00380916A0F90916B0F9093580F8093570F22E020934B0F109280
S2840026804D0F10924C0F81E08093560F81E090E090935A0F8093590F8091690F80935B0F89E290E090935D0F80935C0F80E392E090935F0F80935E0F8091600F8C608093600F1092610F85E793E19093630F8093620F2093A8020E9445100895882321F01092A8020E9445100895BC0184E00E94B9120895BC0186E00E94B912089585E0B4
S28400270060E070E00E94B912089508958091A802853021F486E08093A80208951092A8020E94451008951F93182FFB018091A802823009F44AC0833038F4882309F469C0813009F0BFC050C0853039F0863009F4B3C0843009F0B6C051C0153031F0183081F1143009F0AEC006C081E08093A8020E94CA14A5C08081882389F40E94C41536
S2840027801092A90280E090E00E94304590934802809347020E945E101093A80291C081E08093A8028091A9028F5F8093A902853008F486C01092A8021092A9020E94521081C082E08093A8027BC0112309F07AC00E945E100E94D11485E08093A8028FE694E10E9487146EC0112309F06BC00E94BC1589E49FE00E946E2C07C0112309F018
S28400280061C08CE39FE00E946A1685E08093A80259C0112309F056C08CE39FE00E94451680E197E2A0E0B0E08093420F9093430FA093440FB093450F21E02093460F89E694E19093480F8093470F80916A0F90916B0F9093580F8093570F32E030934B0F10924D0F10924C0F2093560F81E090E090935A0F8093590F8091690F80935B0FC1
S28400288089E290E090935D0F80935C0F80E392E090935F0F80935E0F8091600F8C608093600F1092610F84E694E19093630F8093620F3093A80204C0112321F01092A8020E9445101F910895BC0184E00E949313089588E060E070E00E949313089585E060E070E00E9493130895AA2797FDA095BA2F80934D0290934E02A0934F02B0932B
S2840029005002E091A203F091A303099508959093A3038093A20380E994E10E9430090895882371F0CB01AA2797FDA095BA2F8093510290935202A0935302B093540208C0109251021092520210925302109254028DEA94E10E9415090895882371F0CB01AA2797FDA095BA2F8093550290935602A0935702B093580208C0109255021092A1
S2840029805602109257021092580285E794E10E94FA0808950E9433090E9418090E94FD0808950E943F090E9424090E94090908950895CF93DF93782F80915E05853008F05DC06A3208F05AC08F5F80935E0520915D0588E5289FA00111244C555C4F822F8F5F80935D05853018F0245020935D05272F392FC901EC01FA0180E1819382E000
S284002A00DA0111968C93DF01119690E008C08881803111F48D93905F8991980F8D939E01271B2617A0F3FD0180E1819383E011968C939B5D9183DA01A95ABF4F3296E41BEC9380915E058823C9F080915C0590E028E530E0829FF001839FF00D929FF00D1124EC55FC4FE95AFF4F4081E755F0408FE595E0BF0150E00E94DC17DF91CF91C4
S284002A80089580915E05882371F0815080935E0590915C05892F8F5F80935C05853018F0945090935C0580915E058823C9F080915C0590E028E530E0829FF001839FF00D929FF00D1124EC55FC4FE95AFF4F4081E755F0408FE595E0BF0150E00E94DC17089588EC80936A0510926B0510927F0589E190E090936D0580936C0586E0809352
S284002B006E0510926F051092700510927405109273051092760510927505109278051092770510927A051092790588ED94E190937C0580937B0581E495E190937E0580937D058FE595E00E9429198BEB91E0E4EAF3E0DF019C011D9221503040E1F708950E94D30A08950E94DE0A08950E94DE0A80E00E94A50A089582E00E94A50A08954B
S284002B8082E00E94BF0A089582E00E94B20A089582E00E94B20A089582E00E94B20A089580E00E94A50A81E00E94B20A82E00E94B20A089580E00E94BF0A81E00E94B20A82E00E94B20A089580E28CBB0895ED9A08958DB3ED98807208952C9A08952C980895179A0895179808952C98249A179A0F9A6D9875980895EAE6F0E080818C6067
S284002C008083089584E0089580E0089508950895089508951F9310E00E94C12681E80E94AA26812F0E94AA26182F0E94BF26183099F71F9108950E940C0508958F929F92AF92BF92CF92DF92EF92FF920F930E94E81E4B015C0120919A0530E040E050E060E070E080E090E000E20E94B005282939294A295B290F91FF90EF90DF90CF90A8
S284002C80BF90AF909F908F900895CF93DF93EC010097D1F080918005909181058C179D0719F460E070E008C080E895E0BE010E94E21DBC01009741F080E895E0AE010E94C41D20E030E002C02FEF3FEFC901DF91CF910895CF93DF93EC01009771F0E0918005F091810506C0EC17FD07D9F00190F081E02D3097C1F706C02FEF3FEFC90178
S284002D00DF91CF9108950E94C4209B01AC01198218826A837B838C839D8380E895E0BE010E94751D20E030E0EACFEF92FF920F931F93CF93DF9318C080E895E060E070E0AE010E94C41D8A85882359F4EA82FB820C831D8380E895E0BE01A80197010E94751DEB85FC8509958091800590918105892BD9F00E94C4207B018C01C09180059B
S284002D80D09181058A819B81AC81BD81A8019701281B390B4A0B5B0B8E819F81A885B985281739074A075B0738F6CDB7DEB7E6E00C9401B99091890521E030E002C0220F331F8A95E2F7922B909389058091BA0580688093BA052FB7F8948091050690910606826090930606809305062FBF0895CF93DF93E82FF0E0CF01805C9040A3E07B
S284002E0095958795AA95E1F7482F50E0EA01CC0FDD1FCE57DA4FA881B981109721F481818F7781836CC090968C91909783FD67C05496ED91FC91559784FF09C06083E881F981848995890196958B848B58C0EF2B09F455C01696CD91DC91179716968D919C911797019617969C938E93169716962D913C91179756968D919C915797281755
S284002E80390721F417961C921E92169716962D913C91179714968D919C9115972817390729F41796DC93CE93169729C05496ED91FC915597EC0FFD1F608318968D919C911997019619969C938E931897440F551F4E575A4FEA01E881F98180A180FF0FC08385883C61F418962D913C91199786899789969587958217930708F45D9ADF915A
S284002F00CF910895E82FF0E0E05CF04083E0F595E7958A95E1F7F0E0EE0FFF1FEE57FA4F0190F081E02D3097C1F04FB7F89422813381808191814FBF2817390711F481E08287828D938D892B11F4118E108E068CF78DE02D309709F009950895E82FF0E0E05CF04023E0F595E7952A95E1F7F0E0EE0FFF1FEE57FA4F0190F081E02D30971F
S284002F8091F080A1887179F48FB7F894208531858FBF2115310539F0048CF58DE02D309711F0C90109950895803C21F0883C11F080E0089581E00895A0E0B0E0E2EEF7E10C94DFB8EC016B018A01009709F46FC0FB848F2D0E94D417882309F468C0C114D10409F464C00115110509F460C0EF2DF0E0E05CF04083E0F595E7958A95E1F741
S284003000F0E0EE0FFF1FEE57FA4F80809180C815D90509F04CC08A8D9B8D892B81F42A813B81888199812817390709F040C0D98EC88E1B830A8319821882B80130C08FB7F894AA80BB80E880F9808FBFA50160E070E019C09A012F5F3F4F8A8D9B8D2817390711F420E030E02E153F0579F0E88DF98DE40FF51FD601A60FB71F8C9180835E
S2840030806F5F7F4FA9016017710720F38FB7F894F401538342838FBFAE14BF0431F41A86EB85F0E08181806281839B0102C02FEF3FEFC901CDB7DEB7ECE00C94FBB8FC0183899385882349F4903C19F0983C89F402C06A9A0895559A0895903C19F0983C41F404C06A987298729A089555985D985D9A089580EC0E948217089580EC0E9478
S284003100AE17089588EC0E948217089588EC0E94AE170895CF93DF93282FA82FB0E0CD01805C904033E0959587953A95E1F7C82FD0E0FE01EE0FFF1FEE57FA4F608171816115710509F476C0283CD1F5FB0180A1282F81FD02C030E009C08CB190E0E4E096958795EA95E1F7382F317020FD02C080E008C089B190E054E0969587955A95EE
S284003180E1F78170332311F48823D1F08AE090E0A0E0B0E08093900590939105A0939205B093930581E0809394058DE199E190939605809395058AE895E00E946A163AC02FB7F894FB0182819381408151812FBF8417950749F1808D918D840F951FFC0190819A012F5F3F4F8C9180648C9316969C931697CC0FDD1FCE57DA4FE881F98189
S284003200828D938D2817390711F420E030E011968C911197806211968C938FB7F894FB01318320838FBF06C011968C911197806411968C93DF91CF91089588EC0E948A18089588EC0E948A18089580EC0E948A1808951F93CF93DF93EC01009709F45CC01B85812F0E94D417882309F455C088A1282F30E0A9014170507080FF03C0183CC1
S28400328009F04AC0812F90E0805C904073E0959587957A95E1F7E82FF0E0EE0FFF1FEE57FA4F80819181892BB9F5D183C083183C81F421FF02C06C987498452B51F0559A54985C988C899D89892B11F45D9A01C05D988C85803419F4CE010E945F18198218821B821A828C899D89892B11F41F8A1E8A888D998D892B11F41B8E1A8E1D82B1
S2840033001C821F821E8281E08A87CE010E94F5208B85282F30E002C02FEF3FEFC901DF91CF911F910895CF92DF92FF920F931F93DF93CF9300D00F92CDB7DEB781E08983FF2400E010E0F2E0CF2ED12CCC0EDD1E9091890589818923B9F02FB7F8949091890589818927809389052FBF6F2D70E0660F771F685A784FC60142E050E00E943C
S28400338081B9EA81FB810995F3948981880F89830F5F1F4F06301105D9F60F900F900F90CF91DF911F910F91FF90DF90CF900895382FE82FE650E230B0F4F0E0EE0FFF1FE755FA4F80819181892B69F02DB381E090E002C0880F991F3A95E2F7282B2DBB20E030E002C02FEF3FEFC9010895382FE82FE650E230B8F4F0E0EE0FFF1FE7552A
S284003400FA4F80819181892B71F02DB381E090E002C0880F991F3A95E2F7809582238DBB20E030E002C02FEF3FEFC9010895CF93DF93382F86508230F0F4C82FD0E0CC0FDD1FC755DA4F88819981892BA1F02DB381E090E0032E02C0880F991F0A94E2F7809582238DBB832F0E94DB221982188220E030E002C02FEF3FEFC901DF91CF9169
S28400348008950F931F93CF93DF93282F8A01E82FE650E230F0F4CE2FD0E0FE01EE0FFF1FE755FA4F80819181892B99F4613089F00115110571F061116150822F0E94AC22CC0FDD1FC755DA4F1983088320E030E002C02FEF3FEFC901DF91CF911F910F91089582E180931A1628E088E190E00FB6F894A895809360000FBE20936000FFCF44
S28400350087E08093970580E98093BC008091BC0580628093BC052FB7F8948091050690910606826090930606809305062FBF089580919705882319F42FEF3FEF08C010927F0F10927E0F1092970520E030E0C9010895FC0180919705813091F5309781F180818093790F838194819093760F8093750F85818093780F81818093770F82851E
S284003580938590937F0F80937E0F86819781A085B18580937A0F90937B0FA0937C0FB0937D0F8091780F882311F484E001C082E08093970585EA8093BC0020E030E002C02FEF3FEFC9010895FC0180919705813091F5309781F180818093790F85818093780F81818093770F838194819093760F8093750F8285938590937F0F80937E0F13
S28400360086819781A085B18580937A0F90937B0FA0937C0FB0937D0F8091780F882311F485E001C083E08093970585EA8093BC0020E030E002C02FEF3FEFC901089580919705823041F080919705833021F080919705843021F48091790F880F08C080919705853051F48091790F880F8F5F8093BB0085E88093BC0008950E94801A0895FE
S2840036809091780F8091770F981790F48091780FE091750FF091760FE80FF11D90818F5F8093780F9093BB0085E88093BC00089586E08093970584E98093BC008091BC0580628093BC052FB7F8948091050690910606826090930606809305062FBF089580917A0F90917B0FA0917C0FB0917D0F2091780F21502093780F2091780F220F03
S284003700220F220F04C0B695A795979587952A95D2F78093BB0085E88093BC008091780F882359F480919705823021F484E080939705089585E080939705089580919705843019F40E94401B089580919705823021F080919705833019F40E94701B089580919705853021F485EA8093BC0008950E94801A089580919705853099F480917E
S284003780770F813021F48091BC008F7B03C08091BC0080648093BC008091BC0085688093BC0008950E94801A0895982F80919705853029F58091780FE091750FF091760FE80FF11D90838F5F8093780F2091780F8091770F30E090E001972817390724F48091BC00806403C08091BC008F7B8093BC008091BC0085688093BC0008950E9485
S284003800801A0895982F80919705853021F58091780FE091750FF091760FE80FF11D90838F5F8093780F86E08093970584E98093BC008091BC0580628093BC052FB7F8948091050690910606826090930606809305062FBF08950E94801A0895E0917E0FF0917F0F309791F080919705863041F48091BC0084FDFCCF81E08093970504C099
S28400388081E08093970580E00995089581E08093970508959C01009779F080919705882359F4C9010E94582381E0809397051092780F20E030E002C02FEF3FEFC9010895FC0180919805882319F02EEF3FEF58C0309709F453C08481958120813181820F931F8150904108F049C081E0809398057093870F6093860FA0E8BFE086E0019047
S2840039000D928150E1F7F999FECF20E030E017C0E091820FF091830FE20FF31F8091800F9091810F01969093810F8093800F019792BD81BDF89A80B580832F5F3F4F8091840F9091850F2817390710F31092850F1092840F8091BB0580618093BB052FB7F8948091050690910606826090930606809305062FBF20E030E002C02FEF3FEF93
S284003980C901089590E080919805813009F491E0892F08958091840F9091850F892B51F410929805E091860FF091870F309719F1099508956091800F7091810F6F5F7F4F7093810F6093800F61507040E091820FF091830F4191F093830FE093820F8CE00E94CC238091840F9091850F01979093850F8093840F0895CF93DF93FC01809122
S284003A009805882319F02EEF3FEF6BC0309709F466C08481958120813181820F931F8150904108F05CC081E080939805A0E8BFE086E001900D928150E1F77093870F6093860F672B19F4C0E0D0E03BC06091800F7091810F6F5F7F4F7093810F6093800F61507040E091820FF091830F4191F093830FE093820F8CE00E94CC238091840FE3
S284003A809091850F01979093850F8093840F24C06091800F7091810F6F5F7F4F7093810F6093800F61507040E091820FF091830F4191F093830FE093820F84E00E94CC2321968091840F9091850FC817D90700F3F999FECF1092980520E030E002C02FEF3FEFC901DF91CF910895A0E0B0E0EBE7FDE10C94E1B88C01EB0169017A01FC0112
S284003B00608171816115710589F1FB01AA24BB24268137814085518582819381A481B581280F391F4A1F5B1F2C193D094E095F092F3F8FEF38078FEF48078FE7580748F48E819F81A885B985281739074A075B0738F4808191815F01009761F0FC01D8CFE617F70731F4F983E883F801D183C08306C0CF01F501D183C08399838883CDB7D1
S284003B80DEB7EAE00C94FDB8CF93DF93EC01DB01FA01888199814817590739F48081918111821082888399830AC08081918111969C938E93118210828C9111969C91DF91CF910895FC010190F081E02D06C0808191818617970719F0FC013097C1F7CF01089580919905813051F482E080939905E091880FF091890F309709F009950895C9
S284003C0080919905882319F42FEF3FEF06C0109299050E942C2520E030E0C9010895982F80919905823079F4892F8450843058F0903148F481E080939905892F0E94982520E030E002C02FEF3FEFC9010895CF93DF93EC0180919905882319F5209709F18B819C81892BE9F028812230D0F48A8190E08F739070892BA1F4213019F48981D7
S284003C80833078F082E080939905CE010E94E5258F8198859093890F8093880F20E030E002C02FEF3FEFC901DF91CF9108958FB7F8941092A2051092A1051092A0058FBF0895809170008C7F809370008091B60080628093B6001092B2001092B0001092B1001092B3008091B60090E08F719070892BC9F783E087BB87E08093B10080913F
S284003D00700081608093700008958091B60090E08F719070892BC9F7809170008C7F809370008091B100887F8093B10083B5826083BD8091B60090E08F719070892BC9F78091B6008F7D8093B6000895EF92FF920F931F937B018C016091B200862F90E0809590959C01442737FD4095542F3070407050702E153F054007510798F4D801A8
S284003D80C701821B930BA40BB50B9C01AD01BB27A52F942F832F9093A1058093A0052093A20511C08091B60090E08F719070892BC9F76E0D6093B30082E087BB809170008260809370001F910F91FF90EF900895EF92FF920F931F936FB7F89470919B052091B20084E48093B4008091B60090E08F719070892BC9F7B89904C030E040E09E
S284003E0050E00AC08091B200282F30E040E050E021503F4F4F4F5F4F6FBF8FEF789FC0011124AA2797FDA095BA2F820F931FA41FB51F9C01AD0175E0220F331F441F551F7A95D1F77C018D0162E016950795F794E7946A95D1F72E0D3F1D401F511FE0909C05F0909D0500919E0510919F052E0D3F1D401F511F281B390B4A0B5B0BB901C2
S284003E80CA011F910F91FF90EF90089560E270E080E090E008952FB7F89460919B0510929B052FBF70E080E090E020E43FE140E050E00E9478B820919C0530919D0540919E0550919F05260F371F481F591F20939C0530939D0540939E0550939F05261737074807590728F480919A058F5F80939A0508951F920F920FB60F920BB60F9244
S284003F0011242F933F934F935F936F937F938F939F93AF93BF93EF93FF93809170008D7F809370001092A2058091CD0580FF03C080E00E949C248091CD0582FF11C08091B80581608093B8052FB7F8948091050690910606826090930606809305062FBFFF91EF91BF91AF919F918F917F916F915F914F913F912F910F900BBE0F900FBE8F
S284003F800F901F9018958091CD0580FF0FC081E00E949C24809170008D7F809370000E94571E8091CD058B7F8093CD0508951F920F920FB60F920BB60F9211242F933F934F935F936F937F938F939F93AF93BF93EF93FF938091A0059091A105892BA1F58091A2058823E9F48091CD0580FF03C080E00E949C248091CD0582FF34C0809119
S284004000B80581608093B8052FB7F8948091050690910606826090930606809305062FBF22C08091B60090E08F719070892BC9F78091A2058093B30082E087BB8091700082608093700009C08091A0059091A10501979093A1058093A0058091CD0580FF02C00E94282480919B058F5F80939B058091B80582608093B8052FB7F89480919A
S284004080050690910606826090930606809305062FBFFF91EF91BF91AF919F918F917F916F915F914F913F912F910F900BBE0F900FBE0F901F90189580E197E29093A9008093A800E1EAF0E088E08083808182608083E2E7F0E080818260808308952091A5053091A6054091A7055091A805260F371F481F591F2093A5053093A6054093F4
S284004100A7055093A8058091BC0580688093BC052FB7F8948091050690910606826090930606809305062FBF08952FB7F8946091A4051092A4052FBF70E080E090E02AE030E040E050E00E9478B82091A5053091A6054091A7055091A805260F371F481F591F2093A5053093A6054093A7055093A805261737074807590728F48091A30545
S2840041808F5F8093A30508950E9495206091A5057091A6058091A7059091A80508951F920F920FB60F9211242F938F939F938091A4058F5F8093A4058091BC0580688093BC052FB7F8948091050690910606826090930606809305062FBF9F918F912F910F900FBE0F901F901895DC011B96EC911B97F0E011821B96EC911B97F0E01D96E7
S2840042008D919C911E97958384831C968C911C971B96EC911B97882349F4F0E082E080831B96EC911B97F0E012820AC0F0E010821B96EC911B97F0E052968C91529782831B96EC911B97F0E082811C969C911C97892B82831B96EC911B97F0E082811F969C911F97892B82831B96EC911B97F0E0828150969C915097892B82831B96EC91F2
S2840042801B97F0E0828151969C915197892B82831B96EC911B97F0E08081806880831B96EC911B97F0E08181886181831B96EC91F0E081818068818308951F920F920FB60F920BB60F9211242F933F934F935F936F937F938F939F93AF93BF93EF93FF930E94C31F809186058111EC98E0918705F0918805309709F00995FF91EF91BF91F5
S284004300AF919F918F917F916F915F914F913F912F910F900BBE0F900FBE0F901F9018951F920F920FB60F920BB60F9211242F933F934F935F936F937F938F939F93AF93BF93EF93FF938091C8006091CE008C7131F488EC0E94F81685E00E94DA16FF91EF91BF91AF919F918F917F916F915F914F913F912F910F900BBE0F900FBE0F90FA
S2840043801F9018951F920F920FB60F920BB60F9211242F933F934F935F936F937F938F939F93AF93BF93EF93FF93E9ECF0E080818F7B808384E00E94DA16FF91EF91BF91AF919F918F917F916F915F914F913F912F910F900BBE0F900FBE0F901F9018951F920F920FB60F920BB60F9211242F933F934F935F936F937F938F939F93AF935C
S284004400BF93EF93FF93E9ECF0E080818F7D808383E00E94DA16FF91EF91BF91AF919F918F917F916F915F914F913F912F910F900BBE0F900FBE0F901F9018951F920F920FB60F920BB60F9211242F933F934F935F936F937F938F939F93AF93BF93EF93FF938091C0006091C6008C7131F480EC0E94F81682E00E94DA16FF91EF91BF9117
S284004480AF919F918F917F916F915F914F913F912F910F900BBE0F900FBE0F901F9018951F920F920FB60F920BB60F9211242F933F934F935F936F937F938F939F93AF93BF93EF93FF93E1ECF0E080818F7B808381E00E94DA16FF91EF91BF91AF919F918F917F916F915F914F913F912F910F900BBE0F900FBE0F901F9018951F920F9202
S2840045000FB60F920BB60F9211242F933F934F935F936F937F938F939F93AF93BF93EF93FF93E1ECF0E080818F7D808380E00E94DA16FF91EF91BF91AF919F918F917F916F915F914F913F912F910F900BBE0F900FBE0F901F9018952DB141E050E0082E02C0440F551F0A94E2F7942F909592239DB99EB1942B9EB9EAE6F0E090818450B1
S284004580880F23E030E0082E02C0220F331F0A94E2F7209529232083908170E06370707002C0660F771F8A95E2F7962B90838CB3482B4CBB08959DB121E030E0082E02C0220F331F0A94E2F7209592239DB99EB129232EB9EAE6F0E090818450880F23E030E002C0220F331F8A95E2F720952923208308951F920F920FB60F920BB60F9219
S28400460011242F933F934F935F936F937F938F939F93AF93BF93EF93FF930E94C31FE091AB05F091AC05309709F00995FF91EF91BF91AF919F918F917F916F915F914F913F912F910F900BBE0F900FBE0F901F9018951F920F920FB60F920BB60F9211242F933F934F935F936F937F938F939F93AF93BF93EF93FF930E94C31FE091A905BA
S284004680F091AA05309709F00995FF91EF91BF91AF919F918F917F916F915F914F913F912F910F900BBE0F900FBE0F901F901895FC011092BC001092B90080818093B80008951F920F920FB60F920BB60F9211242F933F934F935F936F937F938F939F93AF93BF93EF93FF938091B90090E0887F90708832910559F1893291058CF48031B5
S284004700910511F1813191052CF4009719F1089781F51AC088319105D1F0809751F51AC088349105B9F0893491053CF48033910589F080349105E9F410C08035910581F088359105B1F411C00E941F1B12C00E949E1B0FC00E94801A0CC00E94BB1B09C08091BB000E94D51B04C08091BB000E94021CFF91EF91BF91AF919F918F917F91D2
S2840047806F915F914F913F912F910F900BBE0F900FBE0F901F901895982FF999FECF07B600FCFDCF72BD61BD40BD8FB7F8949FBBF99A8FBF08951F920F920FB60F9211242F938F939F93FB988091BB0580618093BB052FB7F8948091050690910606826090930606809305062FBF9F918F912F910F900FBE0F901F9018950E94E81E209123
S284004800AD053091AE054091AF055091B005621B730B840B950B1092AD051092AE051092AF051092B0050E946F208091A10082608093A1000E940A168091CD0581FD07C0E091BE05F091BF05309709F0099508950E94A927882309F44EC08091CD0582FD03C02FEF3FEF66C024982C988091B60090E08F719070892BC9F78091700081FDB2
S2840048800AC08FEF8093B3008091B60090E08F719070892BC9F78091B000806C8093B0008091B60090E08F719070892BC9F78091B10080688093B1008091B60090E08F719070892BC9F78091B0008F738093B0008091B60090E08F719070892BC9F78091B00080688093B0008091B60090E08F719070892BC9F78091CD0581608093CD05D5
S2840049008091B60090E08F719070892BC9F78091BD0580688093BD052FB7F8948091050690910606826090930606809305062FBF20E030E0C90108959091CD058170880F9C7F982B9093CD050E94A927882311F42C980EC024982C988091B0008F738093B0008091B60090E08F719070892BC9F7249A8091BC0584608093BC052FB7F8943B
S2840049808091050690910606826090930606809305062FBF08958091CD0580FF5CC08091A1008D7F8093A1008091AD059091AE05A091AF05B091B0050097A105B10551F40E94E81E6093AD057093AE058093AF059093B005809186058111EC9AF999FECF0E94A9278823B1F42C9A249A8091CD0582FF05C087E083BF889513BE22C00E94D6
S284004A00851E85E083BF889513BE0E94611E0E948E2617C0909172002091BC0030917A00109272001092BC0010927A00249A87E083BF889513BE909372002093BC0030937A0084E48093B4008091B60090E08F719070892BC9F7089510927C0010927A0010927E0008951F920F920FB60F920BB60F9211242F933F934F935F938F939F93D3
S284004A80EF93FF938091B105E091B205F091B305882351F48091B4059091B50520917900E80FF91F20830FC08091B4059091B50540917800509179009C01220F331FE20FF31F5183408301969093B5058093B4052091B4053091B5058091B6059091B70528173907B1F480917A00877F80937A008091BB0588608093BB052FB7F894809114
S284004B00050690910606826090930606809305062FBFFF91EF919F918F915F914F913F912F910F900BBE0F900FBE0F901F901895282F1092B5051092B405843048F481E090E0022E02C0880F991F0A94E2F717C0883011F08A3011F481E011C0893011F08B3011F483E00BC08C3011F08E3011F484E005C08D3011F08F3019F48CE08093EA
S284004B807E0080917C0090917C00907E90937C0090917C00922B90937C008F71821729F0243018F08DE70E940C058091B6059091B705029720F080917A00886603C080917A00886480937A000895A1E0B0E0EBEEF5E20C94E9B8FC01858196819093B7058093B60580818093B105838194819093B3058093B205828180937C008091B10554
S284004C00882329F480917C00806280937C00618170E06C59784FCE01019641E050E00E9481B98981806880937A002196E2E00C9405B9A0E0B0E0EFE1F6E20C94DDB800E8C2E8DBE810E092E8C92E9BE8D92EE12CF12C82E8A82E8BE8B82E0E941405BC018BE86338780718F19E0140E050E0CB01A0E0B0E082589B48A040B04028173907ED
S284004C804A075B074CF4123039F480916600815080936600000036C0809166008150809366000000EB01C258DB4811E028C08BE86238780739F1CE01A0E0B0E09B0140E050E036014701621A730A840A950A86159705A805B9054CF4113039F4809166008F5F8093660000000DC0809166008F5F809366000000E501C61BD70B12E00150E8
S284004D0009F0ABCFCDB7DEB7EEE00C94F9B80E94A927882311F40E9419260895CF93DF93C0E0D0E088EC0E940C05219683E1C838D807C1F70E948726DF91CF910895289A23982B98229A219A209A80E58CBD81E08DBD08958EBD000000000000000000000000000000000000000000000000000000000000000000008DB58EB50895289A94
S284004D800895289808958091B80580FF0BC09FB7F8948091B8058E7F8093B8059FBF0E94D22777C08091B80581FF0BC09FB7F8948091B8058D7F8093B8059FBF0E944B1F68C08091BA0587FF0BC09FB7F8948091BA058F778093BA059FBF0E94931959C08091BB0583FF0BC09FB7F8948091BB05877F8093BB059FBF0E94F11D4AC0809165
S284004E00BB0584FF0BC09FB7F8948091BB058F7E8093BB059FBF0E94CA1C3BC08091BC0582FF0BC09FB7F8948091BC058B7F8093BC059FBF0E94FD232CC08091BC0585FF0BC09FB7F8948091BC058F7D8093BC059FBF0E942E1C1DC08091BC0587FF0BC09FB7F8948091BC058F778093BC059FBF0E9495160EC08091BD0587FF0AC09FB770
S284004E80F8948091BD058F778093BD059FBF0E94CB248091B8058823A1F48091B905882381F48091BA05882361F48091BB05882341F48091BC05882321F48091BD05882361F02FB7F8948091050690910606826090930606809305062FBF0895ADE0B0E0E4E7F7E20C94E9B8FC01009719F42FEF3FEF2AC0848195819093BF058093BE057F
S284004F0080819181A281B3818F839887A987BA8781E08B871D861C86CE0101960E94FB272FEF8F3F920771F08D5F9F4F59F00E9428248F5F9F4F19F020E030E005C02DEF3FEF02C02EEF3FEFC9012D96E2E00C9405B98091CE050895F999FECF9FB7F894E0E0F0E089E08093570084919FBF8F70823019F41092CE0503C081E08093CE05B4
S284004F808091CE05882369F48FB7F8945F9350E85093610050E0509361005F918FBF0E948E2608959091CD0592FF24C08091CA058823B1F4E091CB05F091CC05309709F009958091CD0582FF15C06091C6057091C7058091C8059091C9050E94A61E08959B7F9093CD05E091CB05F091CC05309709F009950895CF93DF93EC01009719F4BE
S2840050002FEF3FEF2EC00E94461F2E813F81488559850E9478B828EE33E040E050E00E94B7B8B901CA01611571058105910519F42EEF3FEF16C02091CD0522FF03C02DEF3FEF0FC024602093CD05A0ECB5E0FE012DE001900D922150E1F70E94A61E20E030E0C901DF91CF910895FC010097A9F086EA858B8085882381F08F3F71F08385D8
S284005080833031F48489882341F08F3F19F405C0813019F4158A81E0089580E008958091EB058F5F8093EB05815008958091D30581508093D3058091940F833021F481E08093940F08951092940F0895FC01A081B18190933E1080933D1010922A1010922B108091FA0580932F1053962D913C915497E0919A0FF0919B0FC901BF010E94CF
S284005100A3B8462F60932D10C901BF010E94A3B8892B19F04F5F40932D108FEF90E00090100E02C0880F991F0A94E2F780958E7F80932C100E944F2880932E100895FC01878983FD03C080E090E0089520E0838994898036910508F421E081E02827822F08952091920F3091930FFC01EC5BFF4F80819181821B930B63E270E00E94A3B838
S28400518083E2689FB0011124620F731FCB010895FC01009729F48091DC059091DD0508958081918108951F93182FA0E0B0E007C01396ED91FC9114978081181731F0CD010E94C828DC01009799F7CD011F910895FF920F931F93082FA0918A0F40918F0F5091900F90E060E070E081C0FA01E60FF71F9B01265A3F4F878180FD76C0EC5B32
S284005200FF4F11821082E454F0400230F1F0023018F0033009F06EC090918E0F80918C0F981708F067C09F5F90938E0F1382148215821682E0918F0FF091900FE60FF71F80858F70808712823BC090918D0F80918B0F981708F04EC0F090910FE091920FF091930F10E040E050E024C0DF018081B3969A012D5D3F4F8823D1F49F5F90937F
S2840052808D0F21E02C93E0918F0FF091900FE60FF71FEC5BFF4F8091920F9091930F840F951F489691838083E454F040228304C01F5FA9011F15D0F28091910F8117D1F0E0918F0FF091900FE60FF71F8085807F8087000F016007831182108220918F0F3091900F260F371F07C09F5FB9019A1708F47CCF20E030E0C9011F910F91FF9006
S2840053000895CF93DF9320918F0F3091900F821B930B6AE570E00E94A3B88AE5689FE0011124F901EC0FFD1F8781869590E08230910569F08330910514F0039731F580918E0F882311F1815080938E0F1EC080918D0F882319F0815080938D0F2091920F3091930FEC5BFF4F80819181821B930B63E270E00E94A3B883E2689FF0011124FC
S284005380E20FF31F808181111082E0918F0FF091900FEC0FFD1F87818E7F8783DF91CF9108952091910FE091920FF091930F90E005C08081B3968823C9F49F5F9217C8F320918A0FE0918F0FF091900F90E006C08781E65AFF4F80FD09C09F5F9217C0F38091940F882319F081E0089581E0089521E030E002C0220F331F8A95E2F7809137
S2840054000306822B809303062FB7F8948091050690910606806290930606809305062FBF0895CF93DF93EC01FA01009721F16B8F4115510549F080819181A281B3818C8F9D8FAE8FBF8F04C01C8E1D8E1E8E1F8EE98DFA8D309719F0CE014B960995CE010E949F28882339F010923E1010923D1081E00E94F829DF91CF910895A2E0B0E045
S284005480E4E4FAE20C94E9B84091040620910306522F642F30E06F5F683008F060E0C901062E02C0969587950A94E2F780FF1CC06093040681E090E0062E02C0880F991F0A94E2F758275093030670E0660F771F6759784FCE01019642E050E00E9481B9E981FA81099504C04617A9F64093040680910306882361F02FB7F8948091050663
S28400550090910606806290930606809305062FBF2296E2E00C9405B9FF920F931F938C01F62E88ED95E00E94D078D8011796FC9217971596ED91FC911697C801079609958091D8059091D905892B19F080E00E94F8291F910F91FF9008952091D3052F5F2093D3050E948E530895CF92DF92EF92FF921F93CF93DF936C01EB01C45BDF4F56
S2840055808AE09CE2998388832C9782E08993F60183819481998388832796808D8993199281E089938883CB54D040E0909A0FF0909B0FC6010E949F288823E1F120912A10622F80912D1090E0019730E02817390711F01E2D0AC02E9DC0012F9D900D3E9D900D1124F6011389181B40913F1050914010405E5F4F862F90E09C012E9DC0011D
S2840056002F9D900D3E9D900D1124F60125893689280F391FCA01B901412F50E00E9497B9CD5BDF4F165F199380913F1090914010469609C0CD5BDF4FF6018389885F899385899689089799838883C454D040CC5BDF4FE880F980C454D040F7018081982F9C7E9083F60123813481807E275F3F4F08F08860F7018083F7012081922F9F7DA3
S2840056809083F601878982FD04C02F79F701208316C09064F70190831885107F11601887C6010E949F281F70882319F080912F1002C08091FA058295807F182B1887C6010E949F28F70190818823A1F09068908390912A108085992339F48C7F8160808780912D10818709C08C7F8260F7018087918703C09F77F7019083F6018585F701AB
S2840057008183F60180899189F70193838283F60186859785F70195838483F6018289F7018683C6010E949F28882319F080912E1002C00E944F28F7018783CE0109960E94AD2A80E0DF91CF911F91FF90EF90DF90CF900895E0913D10F0913E1080819181BF010E94B52A08958EE190E19093F10F8093F00F22E02093EC0F2091A30F309104
S284005780A40F3093EE0F2093ED0F2BE02093EF0F1092F40F1092F50F21E02093F60F2093F70F26E538E23093F90F2093F80F22E820931E102091AA0F20931F102091A60F3091A70F30932110209320102091A80F3091A90F30932310209322102091A50F209324102091AB0F2093251022E0209326102091A10F209327102091A20F2093CE
S28400580028102091291020930710895690400E94AD2A0895BC018091D30581508093D30581ED95E00E94B87881E00E94F82908950F931F93BC010091D8051091D90588ED95E00E94B878012B19F480E00E94F8291F910F910895FC0185EC8283CF010E94182C0895FC018AE88283CF010E94182C0895FC0189E18283CF010E94182C08954B
S284005880CF93DF93EC010097E9F086EA8F83EB81FC813097B9F09081892F8150803F90F4892F0E94D328892B69F420E08D819E81892B09F421E02A838CED95E0BE010E94B8781F82DF91CF910895BC0184ED95E00E94B87881E00E94F8290895BC0186ED95E00E94B87881E00E94F8290895A3E0B0E0EDE7FCE20C94E3B86C01675F7F4FCC
S2840059007B836A838BE0BE016F5F7F4F0E94A20F8981882309F441C0EA80FB8081E0D701D7968C93D797F60183819481D9969C938E93D8978389885FDA968C93DA970589168908501040DC961C930E93DB978FEFD80111968C9311978089918913969C938E9312978685978515969C938E931497828916968C930E944F28F8018783D701F8
S284005980DB96ED91FC91DC9788E08083EA81FB81ED5BFF4F8AE09CE23FC0EA80FB8082E0F70187AB8DEF9FEF91AF80AFD60153968C915397875F82AF55960D911C9156970950104014AF03AF13968D919C911497F8019283818350968D919C915197948383831E968D919C911F979683858352968C9187830E944F28D80118968C93D70178
S284005A00DB96ED91FC91DC978CE08083EA81FB81ED5BFF4F8FE29DE291838083EA81FB81D60158968C9187AFEA81FB81E05CFF4F80910F0E8083EA81FB81EF5BFF4F81E08083EA81FB81EE5BFF4F80838A819B810E94AD2A80E02396E8E00C94FFB80F931F93CF93DF93EC018C0105541040D801DB96ED91FC91DC97818192816FEF0E943A
S284005A806441882349F022978AE09CE299838883C8010E94984D03C0CE010E940A2CDF91CF911F910F910895FC018589843A11F08A3AA1F48085481789F4818592856817790761F4CF01B90148E050E00E948AB99C0180E0232B19F481E0089580E00895A0E0B0E0E6E7FDE20C94E2B8FC016B01B42E79012091DF053091E0059091DE0550
S284005B0086E1989F80011124020F131F309711F4E9010EC0EF010BC0CE01B6014B2D97010E94542D882319F08D89843A31F06696C017D10788F3C0E0D0E0CE01CDB7DEB7E9E00C94FEB88F929F92AF92BF92CF92DF92FF920F931F93CF93DF938C016B010E94283E4C01F601E85AFF4FC081D18128EAF22E5F012AC0D501CD93DC938B8563
S284005B808330C9F4CE010C960E94AD73FC0199EAF92E3097D9F08C89D8011D968C931D978081918114969C938E931397C801B6010E94B52A09C08C859D85F80194838383C801B6010E94772CF82E0EC0D80150966D917C915197CE0152964C9194010E94702DEC01009741F68F2DDF91CF911F910F91FF90DF90CF90BF90AF909F908F90E5
S284005C0008950F931F93CF93DF93EC01088119814423A9F46E3C21F0603F11F042E001C043E0CD5ADF4F88819981AA81BB81C355D040F801848F958FA68FB78F638F423019F04330C1F40BC0E881F9818281882331F4C801BE010E94A32D883A61F488819981F801638D045E1F4FA8010E94112ACE010E948129DF91CF911F910F910895D2
S284005C801F93CF93DF93EB01C85ADF4F19821882C855D040BE010E94A32D182F882319F0CE010E948129812FDF91CF911F910895A0E0B0E0EEE5FEE20C94E0B88C01962EC091DF05D091E0059091DE0586E1989F70011124EC0EFD1E58015CE0C52ED12CC00ED11E29C0F80161857285CE01408595010E94542D8823F1F0F80193858B8548
S284005D009817C9F4913041F4248535858C859D852817390781F417C0F80194898C89981751F4BE01645F7F4FC60148E050E00E948AB9009741F06696CE15DF05A0F2F801958AC0E0D0E0CE01CDB7DEB7EBE00C94FCB8CF93DF93EC010E943528882349F0CE0164EA0E94582EFC01009711F088EA858BDF91CF910895CF93DF93EC010E948C
S284005D803528882391F1CE0160E00E94582E892B29F54091DE052091DF053091E00590E00CC0F90185892A5E3F4F883A29F484EA858B309739F419C09F5F941790F38EEA8D8B13C09F01DE0186E10D90E90109929E018150D1F784EA858B07C0CE0166EA0E94582E24EAFC01258BDF91CF9108950F931F930E9471B98C0164E0000F111FE5
S284005E006A95E1F700700E9471B9282F30E0202B312BC9011F910F910895A0E0B0E0E3E1FFE20C94E4B87C0180E090E027C08A81882319F5EB81FC8121813281D7015C968D919C915D9728173907B9F4D0805B968C915B978D1549F41F960D911C9150970E941B410817190741F0F701838194816D2D0E946441882339F4CE010E94C8283A
S284005E80EC010097A1F608C0D7011D96DC92ED81FE81C7010995F1CFCDB7DEB7E7E00C9400B9ADE2B0E0E7E5FFE20C94DDB87C01162FDC011A96AD90BC901B9715966D917C91169781EE95E0F50147810E947679882309F434C1D50111969C91892F81508E3F18F06624772404C0892F0E94D3283C01F501818181508E3F20F461147104A0
S284005F0009F41DC1D70112968C91129713962D913C911497813009F082E08B833D832C83F50181818E87D70115968D919C9116970E944C599C01009759F083E08F87DE015296F90188E001900D928150E1F702C082E08F87F70185819681998B888B878190859B8F8A8FD50116968C9116978C8F14968D919C9115979E8F8D8F12968D91CF
S284005F809C91139798A38F8F218530E02A5030403AA329A3265F3F4F1DA28C9187FD07C0285030403AA329A3285F3F4F0AC0F5018085837031F4295030403AA329A3275F3F4F89A19AA1281B390BD7011A968D919C911B97820F931F9CA38BA31EA352968C9152978FA31C968C911C9788A71E968D919D910D90BC91A02D89A79AA7ABA793
S284006000BCA7F70185858DA7D5018C9187FF51C018968C918370823009F04BC0E091970FF091980F808189A31AA28081882E992401E010E032C06091950F7091960FDB01A80DB91DE091970FF091980FE00FF11F408180919A0F90919B0F089F9001099F300D189F300D1124260F371FCD01B90150E00E9497B9E091970FF091980FE00F56
S284006080F11F208189A19AA1820F911D9AA389A38081880E911C0F5F1F4FC090A00FDD240C151D0544F28091950F9091960F9CA38BA36114710449F0D3011596ED91FC911697CE01019609953AC0F7018281813029F4CE0101960E940D2F31C0D50111968C918F3F41F500E010E06E010894C11CD11C1AC0D8011396ED91FC9114978081B0
S284006100882391F012968C911297882369F4218132818D8D9E8D2817390731F41596ED91FC911697C6010995C8010E94C8288C01009701F704C0CE0101960E94CB81F701158A0388F489E02DC70145960995AD96EEE00C94F9B8A0E0B0E0E1EBF0E30C94E1B86C01A62EFC01C285D3859981892F81508E3F98F4892F0E94D328DC0100970A
S28400618069F01396ED91FC911497218132818C819D812817390709F0EAC007C0898181508E3F08F4E4C0A0E0B0E0988197FF04C08885837009F0DBC096FD02C091E0D8C09C70983009F4D3C0F60165817681FFEF673F7F0708F0CBC0109729F012968C91882309F0C4C0F60102851385F801808186FFB9C08370813019F0E7E0FE2E02C0CA
S284006200FF24F39430918A0FA0918F0FB091900FAF5BBF4F20E04F2D50E0E801C40FD51F1DC0A154B04017968C911797AF5BBF4F853089F48D919C9111976817790759F41396ED91FC911497E40FF51F98818081981709F488C02F5FA65ABF4F231708F382E00E94E828DC01009709F47CC0AC5BBF4FCD91DC911197FE017897A182D3821B
S284006280C282149762E06D93F6018581968111969C938E9317961D921D9281E08D938D938AE09CE211969C938E93AC54B04088818C7F82608883F80190819C70837F892B8883908190718F7E892B982F9F799883908190788F71892B888380814F2D50E09D012D5B3F4F84FF0BC0F60182859385840F951FFC0180818983F90160832DC085
S28400630088E0F9018083F80186818983828193819B838A83848195819D838C8381818E83F60182859385840F951FFC0180818F83F801808187FF11C08085837031F41886F90180818F5F808308C0F90180818D5F8083F801808583708887CD0109960E94AD2A91E001C090E081E089279FC190E0888187FF92C18885837009F48EC1F60163
S284006380C285D3854185F9842091990F222309F48CC176EFB72EB40E8091940F882321F0813009F082C14AC01885113009F07DC12F1508F47AC140919A0F50919B0F8B2D90E04817590708F470C1822F90E04F5F5F4F849F9001859F300D949F300D11248091950F9091960F60E070E0A9010E94B2B9A09229101093940FF092A00FF601E0
S284006400858196819093A40F8093A30F89818093A50F8A819B819093A70F8093A60F8C819D819093A90F8093A80F8E818093AA0F8F818093AB0F1092A10FFF249885892F8370823019F0FF2009F02FC19C7F09F02CC18091A00F8F1508F427C12091A30F3091A40FF601858196812817390709F01CC19091A50F8981981709F016C12091A6
S284006480A60F3091A70F8A819B812817390709F00CC12091A80F3091A90F8C819D812817390709F002C19091AA0F8E81981709F0FCC09091AB0F8F81981709F0F6C0CF2DD0E02091A10F6091100E822F90E0860F911DC817D9070CF0E8C08F2D0E9497B8E92EF21670F48F2D891B8093A10F81E090E002C0880F991F6A95E2F78195809309
S284006500A20F0F2D10E080919A0F90919B0F9C01029FC001039F900D129F900D11242091950F3091960F280F391FF60142855385465F5F4FC901BA014B2D50E00E9497B9E091970FF091980FE00FF11FB0828091A10F8F1591F42091A00F8091100E2F19821708F4282F81E090E002C0880F991F2A95E2F781958093A20F81E090E00E2C25
S28400658002C0880F991F0A94E2F73091A20F382B3093A20F8091A00F90E00197C817D90791F40E94B42B8091A20F8F3F09F044C01092940F10929C0F10929D0F10929E0F10929F0F6CC02091A10F8091100E90E0820F911D0197C817D90711F03F3F61F50E94B42B83E08093940F8091A20F8F3F19F59091100E8091A10F890F8093A10F02
S2840066000F2D00958091A00F080F901708F4092F81E090E0002E02C0880F991F0A94E2F781958093A20F10929C0F10929D0F10929E0F10929F0F39C06091100E70E061507040882777FD8095982F2AE030E040E050E00E9478B89B01AC016091FF05709100068091010690910206620F731F841F951F2091FA0530E040E050E00E9478B841
S28400668060939C0F70939D0F80939E0F90939F0F8CEE95E00E94227A08C0992331F0C6016A2D0E94512F80E001C081E0CDB7DEB7EAE00C94FDB889E361E97FE00E94A20F8DE462E97FE00E947B0F20E043E250E012C0822F90E0BC01649FC001659F900D749F900D1124E091920FF091930FE80FF91F10822F5F8091910F281750F388E3AB
S2840067006AE87FE00E94A20F8CE46FE87FE00E947B0F20E04AE550E014C0822F90E0BC01649FC001659F900D749F900D1124E0918F0FF091900FE80FF91F87818E7F87832F5F90918A0F291740F38091910F80938B0F923008F0915090938C0F10928D0F10928E0F8FE36AE97FE00E94A20F8EE369E97FE00E94A20F8091990F882351F086
S2840067808EE465E97FE00E947B0F8FE46FE370E10E947B0F8091990F20919A0F30919B0F90E0A901849F9001859F300D949F300D11248091950F9091960F820F931F9093980F8093970F1092940F0895FF920F931F93CF93DF9301E010E0FAE5FF2ECFEFD0E049C01F9D90011124E0918F0FF091900FE20FF31F978190FF3CC080858F702A
S2840068008230C1F5892F8E7F823011F0863091F583819481A581B6818A309105A105B10548F00A97A109B10983839483A583B68300E020C08085807F846080871382148215821682E0918F0FF091900FE20FF31F87818E7F863059F4CE010090100E02C0880F991F0A94E2F7809580932C1081E00E94F8291F5F80918A0F181708F4B2CF66
S28400688080919C0F90919D0FA0919E0FB0919F0F0097A105B105D9F08B309105A105B10560F00A97A109B10980939C0F90939D0FA0939E0FB0939F0F10C010929C0F10929D0F10929E0F10929F0F0E94B42B002321F08CEE95E00E94F779CDB7DEB7E5E00C9402B980E191E09093D0058093CF051092D9051092D805109203061092040621
S2840069001092DD051092DC050E945B330E9468540895A8E0B0E0EFE8F4E30C94E5B8F0906B0E8FE2BE016F5F7F4F0E94A20F8E010B5F1F4F87E1B8010E94A20F2D813E814F8158858F2D90E0A0E0B0E082179307A407B50760F0220F331F441F551F2D833E834F83588787E1B8010E94880F2F2D30E0295F3F4F442737FD4095542F2093A8
S284006980FB053093FC054093FD055093FE05E980FF2400E010E0C801B701660F771F881F991F6E0D711D811D911D0E9478B82D813E814F815885260F371F481F591F2093FF053093000640930106509302068CEE95E060E02AE030E040E050E006EE13E30E94007A8AE3BE016E5F7F4F0E94A20F87E4BE016D5F7F4F0E947B0F7091FA0533
S284006A00E090FF05F0900006009101061091020620E030E040E050E060E013C0D801C701062E04C0880F991FAA1FBB1F0A94D2F781509E4FAF4FBF4F280F391F4A1F5B1F6F5F671758F3CA01B90124EF31E040E050E00E94B7B8022F6B817C810E5F81EE95E04A8124EF31E0EE24E3940E9400792896E6E00C9401B90F931F93882359F070
S284006A800E94F82E8093EB051092D30581E26AEF75E00E94A20F1092D7051092D6051092D5051092D4051092D2051092D1051092DB051092DA058AE090E0A0E0B0E08093361090933710A0933810B09339108AEA9BE290933C1080933B1081E080933A1085E260E17EE00E94A20F1092A20F1092AB0F1092A00F1092A70F1092A60F109228
S284006B00A10F1092A50F1092A90F1092A80F1092A40F1092A30F1092AA0F1092940F10929C0F10929D0F10929E0F10929F0F8AE5ECEAFFE0DF011D928A95E9F783E2E6E0F0E1DF011D928A95E9F70091990F80919A0F90919B0F019610E0089F9001099F300D189F300D11248091950F9091960F60E070E0A9010E94B2B98EE190E1909348
S284006B80F10F8093F00F0E9489341F910F910895AAE4B0E0EEECF5E30C94D9B82091CF053091D00538AF2FAB41E02031340709F4B4C32053334009F0D3C1AFC320918F0F3091900FC801821B930B6AE570E00E94A3B88AE5689F40011124820E931EAFA9B8ADE6E0A031BE0719F0A050B540F1F4D40117968C918E7F843071F4C4010E94BB
S284006C00B128FC016181D80112968C91882321F4828193810E94512FA8014B5F5F4FF4018081918163EA0E94112A97C1D40117968C91282E26943324B1E02B163104D9F0E2E02E16310424F42114310461F088C1F2E02F16310409F477C123E02216310409F07EC1ADC0C401D80112966C9140E00E94012E75C1F40180858F70813009F065
S284006C806FC1D8011996BC91BAAB87E1BE016F5F7F4F0E94A20F4090FB055090FC056090FD057090FE05A980BA80CB80DC80E091FA05EBABD40118968C9182958F70F0E0E81BF109FCABEBABD80112966C91662309F03FC00E94F82E7C0100E010E02FEF31E040E050E0E222F32204231523A1010BA802C0440F551F0A94E2F75AAF49AF38
S284006D001A015AA9652F70E080E090E0A30192010E9478B8A60EB71EC81ED91EC101AA2797FDA095BA2F89AF9AAFABAFBCAFBC01CD01A60195010E9478B8E60EF71E081F191FD4011396ED92FD920D931C9316972EC06E3C11F0603F61F4A8014B5F5F4FF401808191810E94112AC8010E948129D4C20E94F82E917028EE33E00BA802C033
S284006D80220F331F0A94E2F7AC01420F531F5EAF4DAFCA01A0E0B0E021968CAF9DAFAEAFBFAF2197F40183839483A583B683D40118968C911897807F826018968C93BFC0F40180858F70813009F0CAC0F0912A102296FFAF229720912D1024962FAF2497422F50E04150504025965FAF4EAF25978F2F90E023969FAF8EAF239784179507A1
S284006E0079F13091100EA0912C10ADAB4A2F20E025C0FDA9EF2FF0E0FEABEDABCF01022E02C0959587950A94E2F780FF16C081E090E0022E02C0880F991F0A94E2F78095842380932C1080912B10280F20932A1080E390E10E946A1683C02F5F2317C8F2D8011996EC9087E1BE016F5F7F4F0E94A20FB091FA052696BFAF2697F4018085FE
S284006E8082958F702B2F30E0281B310927963FAF2EAF279741E050E026960FAC269702C0440F551F0A94E2F729965FAF4EAF2997FF2400E010E02091FB053091FC054091FD055091FE05C801B7010E9478B829813A814B815C81260F371F481F591F29968EAD9FAD2997AA2797FDA095BA2F2B968CAF9DAFAEAFBFAF2B97BC01CD010E94C8
S284006F0078B87B018C01C0903D10D0903E100E94F82EA0E0B0E09170A070B0708E0D9F1DA01FB11FF60183839483A583B683E0913D10F0913E108085807F826080878CEE95E00E94227A0CC0C4010E94B128FC018281938161810E94512FC8010E94812981ED95E00E94D0788C01009709F026CED4C184ED95E00E94D0780F53144051F00A
S284006F80D7011A96ED91FC911B9780818370813009F0B7C1F70152856385E52FF62F3081732F707436FF14C040918D0F40908A0F20918E0F842F90E0820F911D5524841595050CF09EC180918B0F481708F099C1932F9C70943009F494C1772359F0832F8370823009F48DC1983009F48AC19C3009F487C135FD85C1D7011296DC90B1E099
S284007000DB16A1F022E0D21609F07BC1808173E0672E682277246114710431F032E06316710409F06EC182C09C3041F0C7016FEA0E94AB30882309F472C163C1052F162FD70115966D917C91169781EE95E0F80140850E947679882309F453C1D70119968C91893008F44DC1B1E0BF83F8018181928199878887D70115968D919C911697B8
S2840070800E944C59009759F0B3E0BB8BDE015696FC0188E001900D928150E1F706C0DB8AF701858196819D8B8C8BD70117968D919C9118979F8F8E8FF801878188A3858196819AA389A3838194819CA38BA31996AC901997BB2427EF3FEFA20EB31EBEA2ADA21A968D919C911B97099698A78FA319A68FEA8AA752968C9152978BA71C961B
S2840071008C911C978CA71E968D919D910D90BC91A02D8DA79EA7AFA7B8ABD7011D968C9189ABCE0105960E940D2FEBC0A52FB62F00918F0F1091900F80918A0F8C9DA0011124400F511FD9C0F801D780D0FED3C080858F70823009F0CEC0EC5BFF4F60817181F80180819181F70125813681FC01838194812817390709F0BDC0FB011796BB
S2840071809C9117978781981709F0B5C014962D913C911597848195812817390709F0ABC012962D913C911397828193812817390709F0A1C011969C9111978681981709F09AC016969C9116978181981709F093C08D2D8E7F823049F4D80118968C911897807F836018968C9334C0863009F083C019969C91199780912B10981709F081C077
S28400720081E090E00090100E02C0880F991F0A94E2F781951A962C911A97282B1A962C931A97F8018085807F836080871A968C918F3F79F520902A1080902D10992408948108910833242814390449F4C8010E946628C80160E040E00E94012E52C08091100E20912B10280F20932B103091FA0530932F1020932A102FEF30E002C0220F97
S284007280331F8A95E2F7C90180958E7F80932C1028C0382F309530932C106091100E20E0432F50E01CC0CA01022E02C0959587950A94E2F780FF12C081E090E0022E02C0880F991F0A94E2F78095832380932C1080912B10280F20932A1003C02F5F261710F3E0913D10F0913E1080819181BF010E94B52A06C0065A1F4F0417150708F45D
S28400730023CFD70155961C9255975396ED91FC915497C7014596099502C06AE5C62EE090D405F090D5050091CF051091D005E114F10409F01ECE01FF0CC002C186ED95E0B8010E94E078C80163EA40E050E00E94112A0091D6051091D7050115110571F7F9C080913D1090913E10892BA1F0C7010E949F28882351F40EC0F7018081918198
S2840073809C0179012115310509F4E4C0C7010E949F28882391F7D70157961C91812F837F09F062C0C7010E949F28882349F080913F1090914010892B09F456C012FF54C0F701838994898036910528F013FD03C050EAD52E91C0D70152968C91882329F00E94D328892B09F478C1F7018789282F247082FF0DC08281823039F483819481A5
S284007400885F9F4F08F069C103C0813009F465C1D70112969C911297892F8250823030F41D968C91815F8E3008F457C1992309F045C1222309F442C1F701C088D188B2880E94283E8C01E0E0F0E004C08385813009F443C1CF01B6014B2D98010E94702DFC01009799F72AC14AEAD42E45C030E4A32E3EE2B32EC7010E949F28882311F0E7
S28400748083E008C0D70157968C9182FF02C081E001C080E00E94E8288C0122C180E00E94E8288C0127E7A22E2CE2B22E19C1C70105960E94AD73FC01009709F417C180819181F701948383839282C7010E949F28882311F083E008C0D70157968C9182FF02C081E001C080E00E94E8288C0195EBA92E9AE2B92EF4C000E010E0AA24BB24AB
S28400750086ED95E0B7010E94E078DD2091F4F801F182E082C7010E949F28882319F0C8010E946628C701B801F5010995D82E882349F0C7016D2D40E050E00E94112A02C082E0982EE090D605F090D705E114F10409F007CF8091CF059091D005F5E080309F0751F126E08031920769F525C0109F70011124E0918F0FF091900FEE0DFF1DF0
S28400758087818330B9F480858F70843011F0823089F48081918163EA40E050E00E94112A80918F0F9091900F8E0D9F1D825B9F4F0E9481291F5F02C010E00AE580918A0F1817A8F261C08F53944009F05DC010E00AE555C0109FC0011124E0918F0FF091900FE80FF91F278120FF48C09085892F8F70843009F042C0822F8E7F823011F0BB
S2840076008630E1F5907FA9F19085892F8F708130A9F1907F9160905190878091D3058F5F8093D30587818E7F823049F4CF0109960E948E538CEE95E00E94227A1FC08630E9F480912C108E7F80932C1080912B1080932A1080912F10815080932F10E0913D10F0913E1080819181BF010E94B52A05C0CF0167EA40E00E94012E1F5F80916E
