:100000000C9453040C948B040C948B040C948B046C
:100010000C948B040C9433210C9471B50C94FF2236
:100020000C94D0220C948B040C948B040C948B04B1
:100030000C948B040C94501F0C948B040C94AD1FE7
:100040000C948B040C948B040C948B040C948B04F4
:100050000C948B040C948B040C948B040C948B04E4
:100060000C948B040C94F4210C9454220C942622AE
:100070000C948B040C9409250C94B1230C948B04E0
:100080000C948B040C948B040C948B040C948B04B4
:100090000C9466210C94C6210C9498210C9437235F
:1000A0000C948B040C948B040C94A5200C9499B59F
:1000B0000C948B040C948B040C948B040C948B0484
:1000C0000C948B040C948B040C948B04FC3E773EB4
:1000D000493F493F493F7D3E823E133F493F853E70
:1000E000883E923E9A3E493F9D3EA03EA33E493FF8
:1000F000A83EAB3E133FB03EF03E053F493FF33EC6
:10010000F63E7B3EF93EF93E133F133F133F133F4C
:10011000133F133F133F133F133F133F133F133F4F
:10012000133F133F133F133F133FE63E133F493F37
:10013000493F493F493F493F493F493F493F493F7F
:10014000493F493F493F493F493F133F083F0B3F24
:10015000133FDF3E5840633F5A405A405A40683F81
:10016000703F5A405A40783F7D3F973F9F3F5A40EB
:10017000A43FAC3FB63F5A40BE3FC33F5A40CB3F7F
:10018000E83FFA3F5A40ED3FF53F5840584058404D
:10019000044004400440044004400440044004403F
:1001A000044004400440044004400440044004402F
:1001B0000440DE3F04405A405A405A405A405A4098
:1001C0005A405A405A405A405A405A405A405A405F
:1001D0005A400440FF3F58400440D93FD860E06097
:1001E0006C6015611561B360C060156115611561C2
:1001F000EA60F9608C60986015616960CB60146496
:100200002164356447644E645B64686473647B6432
:100210009964C4648564686668660A6611661166D6
:100220001D661D662E662E662E663F663F663F661D
:100230008089B089B089B08985899A898F899489A4
:10024000BF898A899F899F89A489B089B689BA891B
:10025000DA8ADD8AE08AE08AE38AEF8AE98AEC8A30
:10026000FF8AE68AF28AF58AF88AFB8A0C8C108C5F
:10027000388C148C188C388C1C8C388C2A8C2E8CD6
:10028000358C9191449261921591DD92DD9252925A
:1002900061926792B5928E92DD92DD92B5926E91E7
:1002A000B892D1A0D6A091A1A9A1C0A1B8A2E7A25D
:1002B00089A389A389A389A389A389A389A389A3DE
:1002C00089A364A272A289A38BA094A27CA1B4A3E7
:1002D000E8A31EA40AA4FBA31EA436A467A467A4D3
:1002E00067A467A467A467A467A467A467A40AA413
:1002F0001EA467A4A7A311A4F5A347AC45AC45ACC5
:1003000074AC7BAC8EAC96AC99AC9CAC9FACA2AC04
:10031000A9ADB0ADBFADC7ADC9ADCBADCDADD0AD65
:10032000646464646464646464646464646463638F
:100330006363636363636363636363626262626292
:1003400062626161616161606060605F5F5F5E5EAB
:100350005D5D5D5C5C5B5B5A595958575756555407
:10036000535251504F4E4D4B4A4947454442403EEF
:100370003C3A383634312F2C2A292828272726269C
:10038000252525242424232323232222222221213C
:10039000212120202020201F1F1F1F1F1E1E1E1E68
:1003A0001E00000100020003000400050006000713
:1003B00000080009000A000B000C000D000E000FE1
:1003C00000100012001400160018001A001C001E75
:1003D00000200022002400260028002A002C002EE5
:1003E000003100350039003D004100450049004D15
:1003F000005100550059005D006100650069006D05
:100400000073007B0083008B0093009B00A300AB74
:1004100000B300BB00C300CB00D300DB00E300EB64
:1004200000F700070117012701370147015701674E
:1004300001770187019701A701B701C701D701E73C
:1004400001FF011F023F025F027F029F02BF02DF26
:1004500002FF021F033F035F037F039F03BF03DF0E
:10046000030F044F048F04CF040F054F058F05CFF2
:10047000050F064F068F06CF060F074F078F07CFD2
:10048000072F08AF082F09AF092F0AAF0A2F0BAFAC
:100490000B2F0CAF0C2F0DAF0D2F0EAF0E2F0FAF7C
:1004A0000F620E04007D0E0C00AA0E0D00120E1538
:1004B000002C0F1900240F1A008D0E1B008E0E1C2D
:1004C000008F0E1D00990E1E007E0E2F00840E312F
:1004D000002E0F3200270F3400B40E3500BA0E364E
:1004E00000C30E3800320F3900830E4100B90E42AE
:1004F0000077074300FA0D1B01230C3101000000B7
:1005000000000000000000000000000000000000EB
:1005100000000000000000000000000000000000DB
:1005200000000000000000000000000000000000CB
:1005300000000000000000000000000000000000BB
:1005400000000000000000000000000000000000AB
:10055000000000000000000000000000000000009B
:100560000000000000000001020100020205080076
:10057000000100341200000000000000000206002C
:1005800080000000000000000000000000000000EB
:10059000000000000000000000000000000000005B
:1005A0000000000000000000000500FF0000020045
:1005B000C8320000033412010303000010270000BA
:1005C00010270000010001E803000004E803000018
:1005D000000000000000000000000000000000001B
:1005E00000AAAAAAAAAAAAAAAA030300E09304003E
:1005F00000840000000805080802050204020A033E
:10060000080103020801005F0027000C01141062BA
:100610000E08006C0E0100790E04007D0E01002B07
:100620000F0100320F08002E0F0200BA0E0200C3A5
:100630000E0100270F01002C0F0100800E01008128
:100640000E0100820E0100830E01007E0E02008466
:100650000E0100290F0100280F01003C0E01003E91
:100660000E0100AA0E0800120E0400900E04008570
:100670000E0400890E04008D0E01008E0E01008F05
:100680000E0100990E1100240F0100940E01009537
:100690000E0400B20E01003F0E0200B40E0100B3C2
:1006A0000E0100B50E0400B90E010000000000F1BB
:1006B000050200F5050100F3050200F7050100F849
:1006C000050100F9050100FA050100FB050100FC28
:1006D000050100FD050100FE050100F6050100FF12
:1006E000050100000601000D0602000206010003DC
:1006F00006010004060100090604000106010005C8
:100700000601000606010007060200430600007706
:10071000070000C70600004F080000000000007737
:100720000800007A0D0000D20D00004B0B0000C441
:100730000B0000910B0000FB0B0000260C000034A6
:100740000D00000000000000000000230C0000FA73
:100750000D0000FB1850185418F71858185C1803AF
:1007600004050607313C9E35000000000000000033
:1007700000000000AC6A166D9875A56936675A6965
:1007800077657B5CEE4AE6641E5680527B4F984A42
:10079000984D304A000000000000000000000000FA
:1007A0000202030201020101010101010102020131
:1007B000010102020202020202020202020202031A
:1007C00003020203023E58D8650108625A984B01A1
:1007D00001625A984B0101F657B466010180570631
:1007E0005301018057DB52010837578B6A0101DE44
:1007F00056E772010100000000010800000000013E
:100800000100000000010300001544010400000085
:1008100000010500000000010600000000010100C9
:100820000000000101625A00000001000000000108
:100830000000000000010800000000010A000000A4
:1008400000010000000000010100000000010100A3
:1008500000000000000000CE4C00080000CE4C005C
:100860000C0000CE4C00000000CE4C0034416F461E
:100870002242FA411A4200003C414C41124244419A
:1008800039461341C943D1433944C1432A42000088
:1008900079474068C25BE8752E730000B377366C09
:1008A000705400000000112480911D16823141F027
:1008B00084B78F7180931D1680FF05C081E001C051
:1008C00081E180931D1614BE809160008861809341
:1008D00060001092600011241FBECFEFD1E2DEBF96
:1008E000CDBF12E0A0E0B2E0E2EAF4E701E00BBF26
:1008F00002C007900D92AA38B107D9F716E1AAE80D
:10090000B2E001C01D92AD31B107E1F70E94597A02
:100910000E941C7AFDCF0C9400007F937FB7F8945F
:100920009D9AA5988AEF0E94EC048AEF0E94EC043D
:100930009D9886E40E94EC0481E0959980E08F9375
:1009400080EF0E94EC048F917FBF7F9108957F9389
:100950007FB7F8949D9AA59886E00E94EC049D9834
:100960008AE00E94EC04889495990894881F8F93DC
:1009700084E60E94EC048F917FBF7F9108959F933E
:100980007F9398E00E94A704879577959A9599237D
:10099000C9F7872F7F919F9108957F937FB7F89430
:1009A000A5989D9A8F9386E00E94EC048F9187957D
:1009B00008F49D988F9384E60E94EC048F919D9893
:1009C0007FBF7F9108959F9398E00E94CD049A95F0
:1009D0009923D9F79F9108950000000000000000BE
:1009E0008A958823C9F708955F937F937FB7F8941A
:1009F000CF93DF93C0E0D0E07F935091B20070912D
:100A0000B2007517E1F3739521965091B200571714
:100A1000D9F77F91CE01DF91CF917FBF7F915F9119
:100A20000895EF92FF920F93DF93CF93CDB7DEB788
:100A300060970FB6F894DEBF0FBECDBFA82F00237E
:100A400009F461C07E010894E11CF11C88E0F70103
:100A500011928A95E9F729833A834B835C836D83EE
:100A60007E83AF83988780E2801BE82FFF27E7FD16
:100A7000F0954D815E816F817885181684F01D8612
:100A80001E861F86188A882799278E1B9F0B04C0F5
:100A900076956795579547958A95D2F728C0202F68
:100AA000332727FD3095DB01CA01022E04C0B6951D
:100AB000A795979587950A94D2F78D879E87AF87DC
:100AC000B88B04C0440F551F661F771FEA95D2F7F5
:100AD00089819A81AB81BC8104C0B695A795979511
:100AE00087952A95D2F7482B592B6A2B7B2B498760
:100AF0005A876B877C8729853A854B855C856D8510
:100B00007E85AF8598898A2F60960FB6F894DEBFF0
:100B10000FBECDBFCF91DF910F91FF90EF90089561
:100B2000EF92FF920F93DF93CF93CDB7DEB760972D
:100B30000FB6F894DEBF0FBECDBFA82F002309F477
:100B400061C07E010894E11CF11C88E0F70111925C
:100B50008A95E9F729833A834B835C836D837E838F
:100B6000AF83988780E2801BE82FFF27E7FDF09591
:100B700049815A816B817C81181684F019861A8606
:100B80001B861C86882799278E1B9F0B04C0440F49
:100B9000551F661F771F8A95D2F728C0202F33274D
:100BA00027FD3095DB01CA01022E04C0880F991F72
:100BB000AA1FBB1F0A94D2F789879A87AB87BC8785
:100BC00004C07695679557954795EA95D2F78D813C
:100BD0009E81AF81B88504C0880F991FAA1FBB1FD3
:100BE0002A95D2F7482B592B6A2B7B2B4D875E8792
:100BF0006F87788B29853A854B855C856D857E85E9
:100C0000AF8598898A2F60960FB6F894DEBF0FBE25
:100C1000CDBFCF91DF910F91FF90EF900895089590
:100C200002C00E94567A0E94981C8823D1F708952A
:100C30000F931F93CF93DF938C01EB010E9410065B
:100C4000C801BE010E94361C8F5F9F4F11F481E0E6
:100C500006C0CF50D64011F40E94100680E0DF910C
:100C6000CF911F910F9108950F931F93CF93DF930F
:100C70008C01EB010E941006C801BE010E94D21C2B
:100C80008F5F9F4F11F481E006C0CF50D64011F422
:100C90000E94100680E0DF91CF911F910F9108957F
:100CA000A8E0B0E0E6E5F6E00C9462B97B01082F1D
:100CB00010E0B801660F771F660F771F6F557B4FE7
:100CC000CE01019644E050E00E94FEB989819A81EC
:100CD000F701938382832B813C8131832083809130
:100CE0000D0290E001970817190739F480910E0260
:100CF00090910F02821B930B14C0000F111F000F65
:100D0000111F0B551B4FCE010596B80144E050E072
:100D10000E94FEB98F8198852B813C81821B930BA9
:100D2000F701958384832896E6E00C947EB9A6E0CB
:100D3000B0E0EDE9F6E00C9462B900910D0210E02C
:100D40007E010894E11CF11C0CC0812FB7010E94A8
:100D50005006C7016FE076E00E941806882321F450
:100D60001F5F101790F380E02696E6E00C947EB9A2
:100D7000A4E0B0E0EEEBF6E00C9466B990933B068D
:100D800080933A06662359F485E2BE016F5F7F4F78
:100D90000E947C0F89819A81AB81BC8104C082E36F
:100DA00090E0A0E0B0E08093350690933606A093E3
:100DB0003706B093380681E0809339068FE296E0DB
:100DC0000E9440162496E2E00C9482B98CEE96E0E4
:100DD00060E00E94B8060895ADE0B0E0E2EFF6E012
:100DE0000C945AB981E080938A0270900D0252E00F
:100DF000852E912C8C0E9D1E46E0642E38E0E32E4D
:100E0000F12CEC0EFD1E5E010894A11CB11C21E02A
:100E1000C22ED12C33C0B4010E945006F701862D9A
:100E200011928A95E9F7BB86AA86DD86CC8600E01A
:100E300010E01EC08A819B81800F911F998788874F
:100E4000C7016FE076E00E941806AA85BB85EC8199
:100E5000FD81E00FF11F9C918081981739F0CE0140
:100E600002966CEE76E00E94340623C00F5F1F4F9F
:100E70008E819F8108171907E8F215C080918B02B7
:100E8000871548F210928B020E948908813031F454
:100E90008CEE96E061E00E94B8060BC00E94E60668
:100EA00010928A0206C080918B028F5F80938B0222
:100EB000E5CF2D96EEE00C9476B9A6E0B0E0E3E63F
:100EC000F7E00C9462B90E94C20E00910D0210E08E
:100ED0007E010894E11CF11C0CC0812FB7010E9417
:100EE0005006C7016FE076E00E943406882349F47B
:100EF0001F5F101790F30E949507882311F40E943A
:100F000089082696E6E00C947EB90E94680888233A
:100F100039F40E949706813039F00E94E606089560
:100F2000813011F00E94E6060895EF92FF921F9320
:100F3000DF93CF93CDB7DEB727970FB6F894DEBF18
:100F40000FBECDBF8FEF8983CE0101969D838C8329
:100F500080910E0290910F029B838A8381E090E042
:100F60009F838E8310E082E0E82EF12CEC0EFD1EB4
:100F7000C7016FE076E00E943406882351F42A818D
:100F80003B811F5F1A3029F02F5F3F4F3B832A833D
:100F9000EFCF27960FB6F894DEBF0FBECDBFCF912F
:100FA000DF911F91FF90EF900895A6E0B0E0EBED88
:100FB000F7E00C945CB98C010097E9F1E0900E0227
:100FC000F0900F02FA82E98281E090E09E838D83A7
:100FD00048019AE0C92ED12CCE0CDF1C5E0108948A
:100FE000A11CB11C1FC08B829C820E941006C501EF
:100FF00060E070E00E94361C8F5F9F4F21F481E01B
:10100000F801838318C00E941006F80180812981AD
:101010003A818F3F19F0328321830CC02F5F3F4FFD
:101020003A83298389819A818C159D05E0F2F80124
:10103000F282E18213822696ECE00C9478B9A7E064
:10104000B0E0E5E2F8E00C945EB98C010097E1F1C4
:101050001982FC01108284E090E09B838A8381E006
:1010600090E09F838E83E0900E02F0900F025E016D
:101070000894A11CB11C22E0C22ED12CCC0EDD1E86
:101080001CC0BD82AC820E941006C60160E070E008
:101090000E94361C8F5F9F4F21F481E0F80183830B
:1010A00013C00E941006F80180819981890F808306
:1010B0008A819B8101969B838A838A819B818E157D
:1010C0009F05F8F2F80113822796EAE00C947AB9AA
:1010D000A8E0B0E0EEE6F8E00C9466B9CE01059623
:1010E0000E941F088885813079F0CE0101960E9408
:1010F000D5078C81813041F089819D81890F11F064
:1011000082E003C080E001C081E02896E2E00C9418
:1011100082B9AFE0B0E0EFE8F8E00C9466B98FEF89
:101120008983CE0102960E94D5078D818130E9F135
:10113000CE0106960E941F0889858130B1F19E81FB
:101140008A81890F99F191959E838B819C819B87E0
:101150008A87CE0101969D878C8781E090E09F87EA
:101160008E87CE010A966FE076E00E9434068823CF
:10117000E9F48A859B8501969B878A8740910E02B8
:1011800050910F029A01265F3F4F8217930710F08C
:101190005B874A87CE0106969D878C87CE010A968B
:1011A0006FE076E00E94340601C081E02F96E2E015
:1011B0000C9482B90E94E00A08951F930E94320B9A
:1011C000182F882319F483E00E944D0A812F1F9164
:1011D00008951F930E943E0B182F882319F483E073
:1011E0000E94670A812F1F9108950E94200D089583
:1011F0001F930E941E0C182F882319F481E00E946F
:101200004D0A812F1F9108951F930E94160C182FCD
:10121000882319F481E00E94670A812F1F910895A5
:101220000E94D70B08951F930E946B0B182F8823E1
:1012300019F482E00E944D0A812F1F9108951F9397
:101240000E94660B182F882319F482E00E94670A17
:10125000812F1F91089590918D02917080918D0240
:1012600081FD9260892F089580918D0282FF12C0C6
:1012700080918D028B7F80938D0280918D028061A1
:1012800080938D02E0918E02F0918F02309711F0E1
:1012900081E0099580918D0284FF29C0669B16C06C
:1012A00080918D028F7E80938D0280918D028E7F42
:1012B00080938D02E0919002F0919102309711F0AD
:1012C00081E0099586E00E94AE1911C08091A802C4
:1012D00081608093A8022FB7F894809107069091BF
:1012E0000806916090930806809307062FBF8091AF
:1012F0008D0283FF12C080918D02877F80938D02C3
:1013000080918D02806280938D02E0918E02F09137
:101310008F02309711F082E0099580918D0285FF50
:1013200029C0679B16C080918D028F7D80938D02AE
:1013300080918D028D7F80938D02E0919002F091DB
:101340009102309711F082E0099587E00E94AE1972
:1013500008958091A80281608093A8022FB7F89425
:1013600080910706909108069160909308068093FB
:1013700007062FBF089587E00E94CD1980918D0246
:10138000826080938D0280918D02886080938D02AF
:101390008091A80281608093A8022FB7F894809171
:1013A00007069091080691609093080680930706BF
:1013B0002FBF089586E00E94CD1980918D02816033
:1013C00080938D0280918D02846080938D02809144
:1013D000A80281608093A8022FB7F8948091070635
:1013E00090910806916090930806809307062FBF9E
:1013F000089580918C02813011F081E0089586E09B
:101400000E94ED1987E00E94ED1910928F02109250
:101410008E02109291021092900210928C0280E043
:1014200008959C0180918C02882311F081E0089539
:1014300081E080938C0230938F0220938E02709310
:1014400091026093900286E060E04AED59E00E94CC
:10145000171A87E060E04BEB59E00E94171A669B71
:1014600004C080918D028E7F03C080918D028160C7
:1014700080938D02679B04C080918D028D7F03C095
:1014800080918D02826080938D0286E00E94AE1969
:1014900087E00E94AE1980E0089521E030E002C0AC
:1014A000220F331F8A95E2F720958091920228231C
:1014B00020939202222351F46B9A0E94DE15882316
:1014C00011F0739A01C07398579A5F9808951F930B
:1014D000182F80919202882351F46B9A0E94DE1596
:1014E000882311F0739801C0739A579A5F9A81E02C
:1014F00090E002C0880F991F1A95E2F7209192029E
:10150000282B209392021F910895813049F0813059
:1015100018F0823031F402C02D9A08952F9A089560
:101520002E9A0895813049F0813018F0823031F4DC
:1015300002C02D9808952F9808952E98089581300F
:1015400069F0813018F0823069F404C085B190E20E
:10155000892702C085B1805885B9089585B190E486
:10156000892785B9089584E00E944D0A25982D9811
:1015700026982E9827982F9880E00895259A269AE5
:10158000279A84E00E94670A80E00895609194029F
:1015900070E080E090E026EA3EE040E050E00E940B
:1015A000F5B8DC01CB01892F9A2FAB2FBB2721E0A7
:1015B00020939302E0919502F09196020995089587
:1015C0009C0180919302813011F081E0089582E0C6
:1015D00080939302309396022093950280E00E94BC
:1015E000E51D80E008958091A1028F5F8093A102A4
:1015F00060919402462F50E08091A002282F30E0A5
:10160000C9010296841795072CF0225030404217EA
:10161000530724F46093A0021092A1028091A102CA
:101620008431B1F41092A1021092A0028091A8021C
:1016300088608093A8022FB7F89480910706909154
:101640000806916090930806809307062FBF0895BF
:1016500081E08093930280919502909196020E947E
:10166000E00A089580919302882311F481E008959F
:10167000109293020E94D61D80E0089580919302FB
:10168000882311F081E0089584E992E090939B0211
:1016900080939A0283EF9AE090939F0280939E0238
:1016A0001092970284E08093980281E090E09093FA
:1016B0009D0280939C021092990281E08093930294
:1016C00087E992E00E94FD1D80E008958091A202CA
:1016D000811181E008958091A202811181E0089535
:1016E000809340068823D1F410923C0610923D0668
:1016F00010923E0610923F068091A802826080936D
:10170000A8022FB7F894809107069091080691607F
:1017100090930806809307062FBF08958091A20238
:101720008130A1F580913C0690913D06A0913E0646
:10173000B0913F06382F20E0892F9A2FAB2FBB277F
:10174000A7FDBA959070822B932B880F892F881F45
:10175000990BAA2797FDA095BA2F80933C069093EA
:101760003D06A0933E06B0933F068091A80282609A
:101770008093A8022FB7F8948091070690910806ED
:10178000916090930806809307062FBF08950E94EA
:101790006E1A1092A20260913C0670913D06E09193
:1017A0004106F09142068091400609950895ADE00A
:1017B000B0E0EDEDFBE00C9464B98C018091A202E5
:1017C000882379F50115110561F188E38983CE013C
:1017D00001960E94201C8F5F9F4F19F181E080933A
:1017E000A20210934206009341068CE396E09E838A
:1017F0008D8380E79BE09D878C8789E48A8382E0E4
:1018000090E09C838B831F82CE0102960E94BA1ABD
:101810008F5F9F4F11F080E005C01092A2020E94DE
:101820006E1A81E02D96E4E00C9480B990E08091EE
:10183000A302823008F091E0892F089590E0809112
:10184000A302823008F091E0892F0895882319F4CB
:1018500085E08093A3028091A80284608093A8020F
:101860002FB7F894809107069091080691609093A5
:101870000806809307062FBF0895A9E0B0E0E3E4CF
:10188000FCE00C9462B90E946E1A8091A30284302D
:1018900049F0853009F47AC0833009F077C010929E
:1018A000A30277C01A821B821C821D821E821F82A5
:1018B0001886198681E08093A3026091A40280912A
:1018C000A502862387FF65C070E06F777070660F92
:1018D000771F6F557C4FCE01029642E050E00E9488
:1018E000FEB96091A50270E06F777070660F771F88
:1018F0006F557C4FCE01069642E050E00E94FEB943
:101900002A813B814C815D812115310541055105BD
:1019100009F43FC06E817F818885998562177307BE
:1019200084079507B0F5E7E0660F771F881F991FBA
:10193000EA95D1F70E9434B930E0205E3C4FCE01E9
:101940000196B90141E050E00E94FEB9698170E062
:1019500080E090E02A813B814C815D81EE80FF80B8
:10196000088519852E193F09400B510B0E94F5B8C7
:10197000672F782F892F992787E06733780720F022
:1019800091E066E377E008C091E006C081E08093D3
:10199000A30290E060E070E080E0911181E0E091CE
:1019A000A602F091A70209952996E6E00C947EB96B
:1019B000ACE0B0E0EEEDFCE00C9466B9FE013196CF
:1019C0008CE0DF011D928A95E9F789E3898381E044
:1019D00090E09B838A8384EA92E09D838C838FECE2
:1019E0009DE09C878B8783E48093A402CF010E94B3
:1019F0007F1A20E08F5F9F4F09F021E0822F2C9605
:101A0000E2E00C9482B90E94D80C8823A9F485E006
:101A10008093A3028091A80284608093A8022FB7CC
:101A2000F8948091070690910806916090930806BB
:101A3000809307062FBF089584E08093A302089542
:101A4000ADE0B0E0E6E2FDE00C9464B98C010097F3
:101A500009F446C088E389838091A302882339F57D
:101A6000CE0101960E94201C8F5F9F4FC9F1FE019D
:101A700032968CE0DF011D928A95E9F789E38A832B
:101A800081E090E09C838B8384EA92E09E838D8347
:101A900083EB9DE09D878C8783E08093A402CF0138
:101AA0000E947F1A8F5F9F4F79F082E011C08130D2
:101AB000B9F4CE0101960E94201C8F5F9F4F81F0E8
:101AC0000E94D80C882319F40E946E1A09C084E081
:101AD0008093A3021093A7020093A60280E001C0A6
:101AE00081E02D96E4E00C9480B9ACE0B0E0EBE747
:101AF000FDE00C9466B993E89093A5028823D9F091
:101B0000FE0131968CE0DF011D928A95E9F78AE0AB
:101B10009EE09C878B8785EA92E09D838C8381E0A1
:101B200090E09B838A8389E38983CF010E947F1A97
:101B30008F5F9F4FA1F485E08093A3028091A8025C
:101B400084608093A8022FB7F89480910706909143
:101B50000806916090930806809307062FBF2C9685
:101B6000E2E00C9482B98823A9F483E08093A30275
:101B70008091A80284608093A8022FB7F894809186
:101B800007069091080691609093080680930706D7
:101B90002FBF089580E092E00E9440160895ACE0C7
:101BA000B0E0E5EDFDE00C9466B98823D9F0FE01C4
:101BB00031968CE0DF011D928A95E9F785E79DE07B
:101BC0009C878B8784EA92E09D838C8381E090E000
:101BD0009B838A8389E38983CF010E94BA1A8F5F2E
:101BE0009F4FA1F485E08093A3028091A8028460B6
:101BF0008093A8022FB7F894809107069091080669
:101C0000916090930806809307062FBF2C96E2E020
:101C10000C9482B9ACE0B0E0E0E1FEE00C9466B96F
:101C20008823D9F0FE0131968CE0DF011D928A9560
:101C3000E9F786E29CE09C878B8785EA92E09D83AA
:101C40008C8381E090E09B838A8389E38983CF0141
:101C50000E94BA1A8F5F9F4FA1F485E08093A30280
:101C60008091A80284608093A8022FB7F894809195
:101C700007069091080691609093080680930706E6
:101C80002FBF2C96E2E00C9482B98091A80280FFCD
:101C900007C08091A8028E7F8093A8020E94340919
:101CA0008091A80281FF07C08091A8028D7F809358
:101CB000A8020E94C70B8091A80282FF07C08091F2
:101CC000A8028B7F8093A8020E943D0C8091A802FD
:101CD00083FF07C08091A802877F8093A8020E949B
:101CE000C60A8091A802882361F02FB7F8948091EA
:101CF0000706909108069160909308068093070666
:101D00002FBF0895E1E4FEE088E3DF011D928A958C
:101D1000E9F7B19682E08093620E118212821382FB
:101D2000148215821682178285E080936C0E8AEBEE
:101D30009EE06DEF74E042E850E00E94FEB982E15F
:101D40009EE06FE775E04FE250E00E94FEB980E14F
:101D50009EE06EEA75E042E050E00E94FEB989E73D
:101D60009EE060EB75E041E450E00E94FEB98DEC2E
:101D700097E0E3E4F6E0DF019C011D922150304042
:101D8000E1F7089582E08093620E1092630E109244
:101D9000640E1092650E1092660E1092670E1092ED
:101DA000680E1092690E23E020937D0EEAEAFEE0B1
:101DB0008AEA8093AA0E81838283838384838583C6
:101DC0008683878380E090E8A0E0B0E08093120EE5
:101DD0009093130EA093140EB093150E10922C0F27
:101DE00081E08093240F80938D0E10928E0E80934D
:101DF0008F0E84E392E190937F0E80937E0E10927B
:101E0000840E81E090E090932F0F80932E0F10921C
:101E1000270F1092B40E8FEF9FEF9093BB0E80931D
:101E2000BA0E1092C30E1092320F1092330F10920E
:101E3000340F1092350F1092360F1092370F109208
:101E4000380F1092390F1092830E1092B90E88E05D
:101E500080932B0F2093810E2093820EE7E7F7E00B
:101E6000DF011D928A95E9F71092FA0D1092230C6A
:101E70000895A4E0B0E0EFE3FFE00C9466B9682FAA
:101E800070E0660F771F660F771F615F794FCE0195
:101E9000019644E050E00E94FEB969817A818B810D
:101EA0009C812496E2E00C9482B9CF93DF93EB01FE
:101EB0000E94390F009719F4CB0168839983DF9151
:101EC000CF910895CF93DF93EB016115710589F0F0
:101ED000883278F406C0CB01BE01422F0E9414BAAA
:101EE00008C00E94390F592F282F392F211531058D
:101EF00091F7DF91CF9108951F93CF93DF93182F20
:101F0000EB016115710571F00E94390F9B01AC0165
:101F1000183228F0CE01B9010E94FEB903C0CE01EB
:101F20000E9414BADF91CF911F9108950E94820EF2
:101F30000E94850708951092AA020E941F1008951A
:101F40009091AA02923071F0933030F49923E9F124
:101F5000913009F05AC01BC0943021F1953009F03E
:101F600054C02EC0882321F0853009F04EC009C02E
:101F70000E9438100E94AB148CE090E10E94611422
:101F8000089581E08093AA020E94A4141BC08823B4
:101F9000E1F50E949A1580E392E069E20E94B31491
:101FA00084E00BC0882319F0883079F505C08CE3F4
:101FB0009FE00E944016089582E08093AA0202C02A
:101FC0001092AA020E941F1008958823F1F48CE356
:101FD0009FE00E941B1680E197E2A0E0B0E08093B2
:101FE000420F9093430FA093440FB093450F81E0AD
:101FF0008093460F86E090E19093480F8093470FBF
:1020000082E08093AA020E941F10089588E060E099
:1020100070E00E94A00F089585E060E070E00E94EB
:10202000A00F08952FB7F8948091070690910806A5
:10203000946090930806809307062FBF08952FB7EA
:10204000F894809107069091080694609093080692
:10205000809307062FBF08958091A902823029F44A
:1020600083E08093A9020E941210089508950895B4
:10207000A4E0B0E0EEE3F0E10C9466B98091470291
:10208000909148029A838983CE0101960E94727AC8
:102090008B81809349028C8180934A022496E2E0EE
:1020A0000C9482B98091A902823029F487E060E023
:1020B00070E00E94931208950E94B4150895882339
:1020C00061F48091AC02882381F48AEC92E00E9452
:1020D000401681E08093AC020895813031F4109273
:1020E000AC028AEC92E00E941B1608958091AD022A
:1020F000882311F40E949B0F8091AD02813011F46E
:102100000E9460138091AD02823011F40E94861209
:102110000895AAE0B0E0EFE8F0E10C9462B9F82E7F
:102120008B01EE24E394E9828091A902823081F050
:10213000833038F4882309F45AC0813009F0C9C1CA
:10214000E7C0833009F44DC1843009F0C2C19AC19F
:10215000FF2029F082E0F81609F0BBC11CC0809175
:10216000AD02882321F460E070E00E94A00F80910E
:10217000AD02813029F480E060E070E00E946D13D0
:102180008091AD02823009F0A4C180E060E070E08F
:102190000E9493129EC1FB018081803909F46EC1B7
:1021A000813920F48E3808F494C10AC0813909F0CD
:1021B00090C1E092A9020E94A2151092AB0287C1C1
:1021C000FB018681978190933B0280933A02838141
:1021D00094819093450280934402818192819093EF
:1021E00048028093470285818093460272C1FF2096
:1021F00009F06FC10E948D1580913102882311F47E
:102200000E944B1586E2BE016E5F7F4F0E947C0FDD
:102210008A81882381F080E090E060E070E00E9495
:10222000110A0E942B0980FF04C00E945D070E94D2
:10223000471A0E94F90921E02093690F81E090E09C
:1022400090936B0F80936A0F90936D0F80936C0F38
:1022500080916E0F807F816080936E0F89E69FE092
:102260009093C6028093C502209331028FE593E1DB
:102270009093C8028093C70280E0BE016D5F7F4FDC
:102280000E947C0F8B81809332028C818093330279
:102290008D81809334028E81809335028F8180936B
:1022A00036028885809337028985809338028A8533
:1022B0008093390282EC92E00E94162C80913102C8
:1022C0008093AD028EE16DEA72E00E94620F809110
:1022D0003102823039F419828AE1BE016F5F7F4F8B
:1022E0000E94620F84EF91E0A0E0B0E08093D00202
:1022F0009093D102A093D202B093D3021092D40251
:102300008CE590E19093D6028093D50281E0ACC039
:10231000F1E0FF16C9F0FF1628F082E0F81609F088
:10232000D8C038C080E00E945F100E94B41510929F
:10233000AB028BE792E19093C1028093C0028EEAD8
:1023400092E00E940680C5C081E00E945F10F80103
:102350008785882309F0BBC082E08093A902109290
:10236000AB020E94AA15F8018381948190934502E3
:10237000809344028181928190933B0280933A0240
:10238000858596859093480280934702808180934B
:10239000460224C0FB0180818F3809F09AC0FB01FE
:1023A0008381948190934502809344028681978132
:1023B00090933B0280933A028181928190934802EC
:1023C0008093470285818093460281E00E945F10DE
:1023D000F092A9021092AB020E94AA150E947610F8
:1023E00078C0F2E0FF1609F442C083E0F816B9F1B4
:1023F000FF2009F06EC00E94A61586E792E1909337
:10240000500380934F0384E390E09093DE02809327
:10241000DD02E092DF0280EE92E01092E002109284
:10242000E1021092E2021092E3021092E402109292
:10243000E5021092E6021092E702FC01B9961092B2
:102440000903118212821382148215821682178266
:1024500020E42093110309970E9452833AC0FB01A4
:1024600082858823A1F584E08093A90230C0FB0116
:102470006081603919F0613961F527C084E080938B
:10248000A90227C0F2E0FF1621F5FB0180818F38F9
:1024900019F08139F1F419C0F092A902FB0186818B
:1024A000978190933B0280933A0283819481909329
:1024B00045028093440281819281909348028093E7
:1024C000470285818093460202C0E092A9020E94E1
:1024D00012102A96E6E00C947EB9FC0180818035CA
:1024E00021F082E0BF010E9489100895BC0183E0C1
:1024F0000E9489100895BC0181E00E94891008950E
:1025000080E060E070E00E94891008958091AA0246
:10251000853021F486E08093AA0208951092AA02E1
:102520000E941F100895FB019091AA029230E9F1D8
:10253000933038F4992309F468C0913009F0AEC0A3
:1025400043C0953039F0963009F4A2C0933009F0B9
:10255000A5C047C0853031F18630E9F0843009F0FC
:102560009DC08081882329F40E949E151092AB02A1
:1025700017C08091AB028F5F8093AB02853038F03B
:102580001092AA021092AB020E942C10089581E0D2
:102590008093AA027AC08081882311F483E01EC050
:1025A00083E0F6CF0E94A414F2CF882309F076C00E
:1025B0000E94AB140E94381085E08093AA0289E53E
:1025C00093E10E9461140895882309F067C00E9476
:1025D000961589E49FE00E94442C85E08093AA022E
:1025E0000895882321F0873009F058C00AC00E945E
:1025F0008A1585E08093AA0281EA93E00E94E87B35
:1026000008950E94901582E0C3CF882309F046C048
:1026100084E593E19093A3038093A20380916A0FD2
:1026200090916B0F9093580F8093570F22E0209357
:102630004B0F10924D0F10924C0F81E08093560F6C
:1026400081E090E090935A0F8093590F8091690F29
:1026500080935B0F89E290E090935D0F80935C0F15
:1026600080E392E090935F0F80935E0F8091600F04
:102670008C608093600F1092610F8FE493E19093D0
:10268000630F8093620F2093AA020E941F10089587
:10269000882321F01092AA020E941F100895BC0105
:1026A00084E00E9493120895BC0186E00E94931278
:1026B000089585E060E070E00E9493120895089507
:1026C0008091AA02853021F486E08093AA020895C1
:1026D0001092AA020E941F1008951F93182FFB0149
:1026E0008091AA02823009F44AC0833038F48823EA
:1026F00009F469C0813009F0BFC050C0853039F09D
:10270000863009F4B3C0843009F0B6C051C015302A
:1027100031F0183081F1143009F0AEC006C081E00C
:102720008093AA020E94A414A5C08081882389F402
:102730000E949E151092AB0280E090E00E9420451E
:1027400090934802809347020E9438101093AA0287
:1027500091C081E08093AA028091AB028F5F809349
:10276000AB02853008F486C01092AA021092AB0228
:102770000E942C1081C082E08093AA027BC01123AA
:1027800009F07AC00E9438100E94AB1485E0809353
:10279000AA0289E494E10E9461146EC0112309F039
:1027A0006BC00E94961589E49FE00E94442C07C0EC
:1027B000112309F061C08CE39FE00E94401685E080
:1027C0008093AA0259C0112309F056C08CE39FE000
:1027D0000E941B1680E197E2A0E0B0E08093420FD8
:1027E0009093430FA093440FB093450F21E02093A3
:1027F000460F83E494E19093480F8093470F8091B4
:102800006A0F90916B0F9093580F8093570F32E09F
:1028100030934B0F10924D0F10924C0F2093560F88
:1028200081E090E090935A0F8093590F8091690F47
:1028300080935B0F89E290E090935D0F80935C0F33
:1028400080E392E090935F0F80935E0F8091600F22
:102850008C608093600F1092610F8EE394E19093EF
:10286000630F8093620F3093AA0204C0112321F0FA
:102870001092AA020E941F101F910895BC0184E0CB
:102880000E946D13089588E060E070E00E946D136F
:10289000089585E060E070E00E946D130895AA2716
:1028A00097FDA095BA2F80934D0290934E02A0936E
:1028B0004F02B0935002E091A403F091A503099553
:1028C00008959093A5038093A4038AE694E10E945F
:1028D00010090895882371F0CB01AA2797FDA095D0
:1028E000BA2F8093510290935202A0935302B09357
:1028F000540208C0109251021092520210925302D8
:102900001092540287E894E10E94F5080895882304
:1029100071F0CB01AA2797FDA095BA2F809355029D
:1029200090935602A0935702B093580208C0109299
:1029300055021092560210925702109258028FE4DC
:1029400094E10E94DA0808950E9413090E94F80891
:102950000E94DD0808950E941F090E9404090E9438
:10296000E90808950895CF93DF93782F809160054B
:10297000853008F05DC06A3208F05AC08F5F8093DE
:10298000600520915F0588E5289FA00111244A5524
:102990005C4F822F8F5F80935F05853018F0245045
:1029A00020935F05272F392FC901EC01FA0180E13F
:1029B000819382E0DA0111968C93DF01119690E009
:1029C00008C08881803111F48D93905F8991980FB0
:1029D0008D939E01271B2617A0F3FD0180E18193B3
:1029E00083E011968C939B5D9183DA01A95ABF4FC6
:1029F0003296E41BEC93809160058823C9F08091A6
:102A00005E0590E028E530E0829FF001839FF00DA5
:102A1000929FF00D1124EA55FC4FE95AFF4F408177
:102A2000E755F04081E695E0BF0150E00E94B21703
:102A3000DF91CF91089580916005882371F08150D6
:102A40008093600590915E05892F8F5F80935E056E
:102A5000853018F0945090935E058091600588232E
:102A6000C9F080915E0590E028E530E0829FF0019A
:102A7000839FF00D929FF00D1124EA55FC4FE95A07
:102A8000FF4F4081E755F04081E695E0BF0150E0FF
:102A90000E94B217089588EC80936C0510926D0522
:102AA0001092810589E190E090936F0580936E0507
:102AB00086E0809370051092710510927205109255
:102AC0007605109275051092780510927705109290
:102AD0007A051092790510927C0510927B0582EBA5
:102AE00094E190937E0580937D058BE195E1909331
:102AF000800580937F0581E695E00E94FF188BEBAF
:102B000091E0E6EAF3E0DF019C011D9221503040A4
:102B1000E1F708950E94B30A08950E94BE0A08953D
:102B20000E94BE0A80E00E94850A089582E00E9409
:102B3000850A089582E00E949F0A089582E00E941B
:102B4000920A089582E00E94920A089582E00E940B
:102B5000920A089580E00E94850A81E00E94920A0C
:102B600082E00E94920A089580E00E949F0A81E01C
:102B70000E94920A82E00E94920A089580E28CBB31
:102B80000895ED9A08958DB3ED98807208952C9A6A
:102B900008952C980895179A0895179808952C98D9
:102BA000249A179A0F9A6D9875980895EAE6F0E0BE
:102BB00080818C608083089584E0089580E008958A
:102BC0001F9310E00E94972681E80E948026812FA3
:102BD0000E948026182F0E949526183099F71F9181
:102BE00008950E94EC0408958F929F92AF92BF9235
:102BF000CF92DF92EF92FF920F930E94BE1E4B0185
:102C00005C0120919C0530E040E050E060E070E025
:102C100080E090E000E20E949005282939294A29A5
:102C20005B290F91FF90EF90DF90CF90BF90AF9016
:102C30009F908F900895CF93DF93EC010097D1F090
:102C400080918205909183058C179D0719F460E0AF
:102C500070E008C082E895E0BE010E94B81DBC018A
:102C6000009741F082E895E0AE010E949A1D20E0B5
:102C700030E002C02FEF3FEFC901DF91CF910895FF
:102C8000CF93DF93EC01009771F0E0918205F09112
:102C9000830506C0EC17FD07D9F00190F081E02D07
:102CA0003097C1F706C02FEF3FEFC901DF91CF91F9
:102CB00008950E949A209B01AC01198218826A83B0
:102CC0007B838C839D8382E895E0BE010E944B1D2F
:102CD00020E030E0EACFEF92FF920F931F93CF9363
:102CE000DF9318C082E895E060E070E0AE010E94DA
:102CF0009A1D8A85882359F4EA82FB820C831D83FE
:102D000082E895E0BE01A80197010E944B1DEB856A
:102D1000FC8509958091820590918305892BD9F0D6
:102D20000E949A207B018C01C0918205D09183057D
:102D30008A819B81AC81BD81A8019701281B390B39
:102D40004A0B5B0B8E819F81A885B98528173907AF
:102D50004A075B0738F6CDB7DEB7E6E00C947EB9DC
:102D600090918B0521E030E002C0220F331F8A953D
:102D7000E2F7922B90938B058091BC05806880933D
:102D8000BC052FB7F89480910706909108068260E1
:102D900090930806809307062FBF0895CF93DF9383
:102DA000E82FF0E0CF01805C9040A3E095958795F7
:102DB000AA95E1F7482F50E0EA01CC0FDD1FCC5770
:102DC000DA4FA881B981109721F481818F778183AF
:102DD0006CC090968C91909783FD67C05496ED914E
:102DE000FC91559784FF09C06083E881F98184894B
:102DF00095890196958B848B58C0EF2B09F455C0AB
:102E00001696CD91DC91179716968D919C911797F8
:102E1000019617969C938E93169716962D913C913A
:102E2000179756968D919C9157972817390721F43B
:102E300017961C921E92169716962D913C911797F5
:102E400014968D919C9115972817390729F4179698
:102E5000DC93CE93169729C05496ED91FC9155972B
:102E6000EC0FFD1F608318968D919C911997019628
:102E700019969C938E931897440F551F4C575A4F91
:102E8000EA01E881F98180A180FF0FC08385883C39
:102E900061F418962D913C9119978689978996959A
:102EA00087958217930708F45D9ADF91CF91089573
:102EB000E82FF0E0E05CF04083E0F595E7958A9537
:102EC000E1F7F0E0EE0FFF1FEC57FA4F0190F081B1
:102ED000E02D3097C1F04FB7F89422813381808183
:102EE00091814FBF2817390711F481E08287828DC5
:102EF000938D892B11F4118E108E068CF78DE02D99
:102F0000309709F009950895E82FF0E0E05CF04073
:102F100023E0F595E7952A95E1F7F0E0EE0FFF1F26
:102F2000EC57FA4F0190F081E02D309791F080A19D
:102F3000887179F48FB7F894208531858FBF21157A
:102F4000310539F0048CF58DE02D309711F0C90171
:102F500009950895803C21F0883C11F080E00895A7
:102F600081E00895A0E0B0E0E8EBF7E10C945CB9F3
:102F7000EC016B018A01009709F46FC0FB848F2D6F
:102F80000E94AA17882309F468C0C114D10409F467
:102F900064C00115110509F460C0EF2DF0E0E05C9C
:102FA000F04083E0F595E7958A95E1F7F0E0EE0FC4
:102FB000FF1FEC57FA4F80809180C815D90509F0A2
:102FC0004CC08A8D9B8D892B81F42A813B8188811D
:102FD00099812817390709F040C0D98EC88E1B8304
:102FE0000A8319821882B80130C08FB7F894AA807A
:102FF000BB80E880F9808FBFA50160E070E019C058
:103000009A012F5F3F4F8A8D9B8D2817390711F446
:1030100020E030E02E153F0579F0E88DF98DE40FC2
:10302000F51FD601A60FB71F8C9180836F5F7F4F6E
:10303000A9016017710720F38FB7F894F401538347
:1030400042838FBFAE14BF0431F41A86EB85F0E0E3
:103050008181806281839B0102C02FEF3FEFC90114
:10306000CDB7DEB7ECE00C9478B9FC018389938589
:10307000882349F4903C19F0983C89F402C06A9A7C
:103080000895559A0895903C19F0983C41F404C075
:103090006A987298729A089555985D985D9A089505
:1030A00080EC0E945817089580EC0E9484170895C0
:1030B00088EC0E945817089588EC0E9484170895A0
:1030C000CF93DF93282FA82FB0E0CD01805C9040F4
:1030D00033E0959587953A95E1F7C82FD0E0FE014A
:1030E000EE0FFF1FEC57FA4F60817181611571057A
:1030F00009F476C0283CD1F5FB0180A1282F81FD81
:1031000002C030E009C08CB190E0E4E0969587956C
:10311000EA95E1F7382F317020FD02C080E008C049
:1031200089B190E054E0969587955A95E1F78170C2
:10313000332311F48823D1F08AE090E0A0E0B0E0DE
:103140008093920590939305A0939405B093950571
:1031500081E08093960583EF98E1909398058093A2
:1031600097058CE895E00E9440163AC02FB7F89476
:10317000FB0182819381408151812FBF8417950784
:1031800049F1808D918D840F951FFC0190819A01EA
:103190002F5F3F4F8C9180648C9316969C9316976B
:1031A000CC0FDD1FCC57DA4FE881F981828D938DEA
:1031B0002817390711F420E030E011968C9111970F
:1031C000806211968C938FB7F894FB013183208332
:1031D0008FBF06C011968C911197806411968C93C5
:1031E000DF91CF91089588EC0E946018089588ECD3
:1031F0000E946018089580EC0E94601808951F9343
:10320000CF93DF93EC01009709F45CC01B85812FFD
:103210000E94AA17882309F455C088A1282F30E0FE
:10322000A9014170507080FF03C0183C09F04AC0EA
:10323000812F90E0805C904073E0959587957A951A
:10324000E1F7E82FF0E0EE0FFF1FEC57FA4F808117
:103250009181892BB9F5D183C083183C81F421FF7A
:1032600002C06C987498452B51F0559A54985C980C
:103270008C899D89892B11F45D9A01C05D988C859C
:10328000803419F4CE010E943518198218821B82ED
:103290001A828C899D89892B11F41F8A1E8A888D38
:1032A000998D892B11F41B8E1A8E1D821C821F8210
:1032B0001E8281E08A87CE010E94CB208B85282F39
:1032C00030E002C02FEF3FEFC901DF91CF911F9196
:1032D0000895CF92DF92FF920F931F93DF93CF93C6
:1032E00000D00F92CDB7DEB781E08983FF2400E0E4
:1032F00010E0F2E0CF2ED12CCC0EDD1E90918B058C
:1033000089818923B9F02FB7F89490918B05898131
:10331000892780938B052FBF6F2D70E0660F771F75
:103320006D5A784FC60142E050E00E94FEB9EA8132
:10333000FB810995F3948981880F89830F5F1F4F63
:1033400006301105D9F60F900F900F90CF91DF91B5
:103350001F910F91FF90DF90CF900895382FE82FA5
:10336000E650E230B0F4F0E0EE0FFF1FE555FA4F03
:1033700080819181892B69F02DB381E090E002C0BA
:10338000880F991F3A95E2F7282B2DBB20E030E0FB
:1033900002C02FEF3FEFC9010895382FE82FE65004
:1033A000E230B8F4F0E0EE0FFF1FE555FA4F8081F0
:1033B0009181892B71F02DB381E090E002C0880FDC
:1033C000991F3A95E2F7809582238DBB20E030E08B
:1033D00002C02FEF3FEFC9010895CF93DF93382F3D
:1033E00086508230F0F4C82FD0E0CC0FDD1FC555D9
:1033F000DA4F88819981892BA1F02DB381E090E08B
:10340000032E02C0880F991F0A94E2F78095822349
:103410008DBB832F0E94B1221982188220E030E0F8
:1034200002C02FEF3FEFC901DF91CF9108950F93B5
:103430001F93CF93DF93282F8A01E82FE650E230C5
:10344000F0F4CE2FD0E0FE01EE0FFF1FE555FA4F4E
:1034500080819181892B99F4613089F001151105E2
:1034600071F061116150822F0E948222CC0FDD1F0A
:10347000C555DA4F1983088320E030E002C02FEFF2
:103480003FEFC901DF91CF911F910F91089582E124
:1034900080931D1628E088E190E00FB6F894A89577
:1034A000809360000FBE20936000FFCF87E0809381
:1034B000990580E98093BC008091BE05806280936D
:1034C000BE052FB7F8948091070690910806826098
:1034D00090930806809307062FBF08958091990561
:1034E000882319F42FEF3FEF08C010927F0F10923E
:1034F0007E0F1092990520E030E0C9010895FC018B
:1035000080919905813091F5309781F18081809388
:10351000790F838194819093760F8093750F8581C5
:103520008093780F81818093770F82859385909324
:103530007F0F80937E0F86819781A085B1858093D0
:103540007A0F90937B0FA0937C0FB0937D0F8091A7
:10355000780F882311F484E001C082E080939905FC
:1035600085EA8093BC0020E030E002C02FEF3FEFFF
:10357000C9010895FC0180919905813091F530973A
:1035800081F180818093790F85818093780F81818B
:103590008093770F838194819093760F8093750F3A
:1035A0008285938590937F0F80937E0F868197818C
:1035B000A085B18580937A0F90937B0FA0937C0FA9
:1035C000B0937D0F8091780F882311F485E001C0BE
:1035D00083E08093990585EA8093BC0020E030E089
:1035E00002C02FEF3FEFC901089580919905823005
:1035F00041F080919905833021F0809199058430C4
:1036000021F48091790F880F08C080919905853049
:1036100051F48091790F880F8F5F8093BB0085E80C
:103620008093BC0008950E94561A08959091780FD7
:103630008091770F981790F48091780FE091750F33
:10364000F091760FE80FF11D90818F5F8093780FD6
:103650009093BB0085E88093BC00089586E080933A
:10366000990584E98093BC008091BE0580628093B7
:10367000BE052FB7F89480910706909108068260E6
:1036800090930806809307062FBF089580917A0FC4
:1036900090917B0FA0917C0FB0917D0F2091780FBE
:1036A00021502093780F2091780F220F220F220FA4
:1036B00004C0B695A795979587952A95D2F78093DC
:1036C000BB0085E88093BC008091780F882359F473
:1036D00080919905823021F484E0809399050895C2
:1036E00085E080939905089580919905843019F4B7
:1036F0000E94161B089580919905823021F08091D7
:103700009905833019F40E94461B0895809199050C
:10371000853021F485EA8093BC0008950E94561AF2
:10372000089580919905853099F48091770F8130C3
:1037300021F48091BC008F7B03C08091BC00806429
:103740008093BC008091BC0085688093BC00089584
:103750000E94561A0895982F80919905853029F571
:103760008091780FE091750FF091760FE80FF11DC1
:1037700090838F5F8093780F2091780F8091770FDF
:1037800030E090E001972817390724F48091BC00BD
:10379000806403C08091BC008F7B8093BC008091CB
:1037A000BC0085688093BC0008950E94561A089555
:1037B000982F80919905853021F58091780FE091BF
:1037C000750FF091760FE80FF11D90838F5F809356
:1037D000780F86E08093990584E98093BC008091FE
:1037E000BE0580628093BE052FB7F89480910706CE
:1037F00090910806826090930806809307062FBF79
:1038000008950E94561A0895E0917E0FF0917F0F5F
:10381000309791F080919905863041F48091BC00F9
:1038200084FDFCCF81E08093990504C081E0809302
:10383000990580E00995089581E0809399050895A0
:103840009C01009779F080919905882359F4C9016A
:103850000E942E2381E0809399051092780F20E03A
:1038600030E002C02FEF3FEFC9010895FC018091C5
:103870009A05882319F02EEF3FEF58C0309709F4CE
:1038800053C08481958120813181820F931F8150A3
:10389000904108F049C081E080939A057093870FAA
:1038A0006093860FA0E8BFE086E001900D92815002
:1038B000E1F7F999FECF20E030E017C0E091820FE8
:1038C000F091830FE20FF31F8091800F9091810F91
:1038D00001969093810F8093800F019792BD81BDD7
:1038E000F89A80B580832F5F3F4F8091840F90912D
:1038F000850F2817390710F31092850F1092840F47
:103900008091BD0580618093BD052FB7F8948091AB
:103910000706909108068260909308068093070638
:103920002FBF20E030E002C02FEF3FEFC901089524
:1039300090E080919A05813009F491E0892F0895F3
:103940008091840F9091850F892B51F410929A05E4
:10395000E091860FF091870F309719F1099508953E
:103960006091800F7091810F6F5F7F4F7093810F17
:103970006093800F61507040E091820FF091830F4F
:103980004191F093830FE093820F8CE00E94A22379
:103990008091840F9091850F01979093850F80936C
:1039A000840F0895CF93DF93FC0180919A058823BB
:1039B00019F02EEF3FEF6BC0309709F466C0848199
:1039C000958120813181820F931F8150904108F0B1
:1039D0005CC081E080939A05A0E8BFE086E001909A
:1039E0000D928150E1F77093870F6093860F672BDC
:1039F00019F4C0E0D0E03BC06091800F7091810F5E
:103A00006F5F7F4F7093810F6093800F61507040A4
:103A1000E091820FF091830F4191F093830FE09337
:103A2000820F8CE00E94A2238091840F9091850FD9
:103A300001979093850F8093840F24C06091800F2D
:103A40007091810F6F5F7F4F7093810F6093800F34
:103A500061507040E091820FF091830F4191F0939B
:103A6000830FE093820F84E00E94A223219680912D
:103A7000840F9091850FC817D90700F3F999FECFED
:103A800010929A0520E030E002C02FEF3FEFC9010D
:103A9000DF91CF910895A0E0B0E0E1E5FDE10C9465
:103AA0005EB98C01EB0169017A01FC0160817181D1
:103AB0006115710589F1FB01AA24BB242681378198
:103AC0004085518582819381A481B581280F391F5A
:103AD0004A1F5B1F2C193D094E095F092F3F8FEFCD
:103AE00038078FEF48078FE7580748F48E819F818A
:103AF000A885B985281739074A075B0738F48081FC
:103B000091815F01009761F0FC01D8CFE617F707BC
:103B100031F4F983E883F801D183C08306C0CF0173
:103B2000F501D183C08399838883CDB7DEB7EAE0FE
:103B30000C947AB9CF93DF93EC01DB01FA01888111
:103B400099814817590739F4808191811182108237
:103B5000888399830AC08081918111969C938E936A
:103B6000118210828C9111969C91DF91CF910895D2
:103B7000FC010190F081E02D06C0808191818617C3
:103B8000970719F0FC013097C1F7CF010895809194
:103B90009B05813051F482E080939B05E091880F72
:103BA000F091890F309709F00995089580919B0550
:103BB000882319F42FEF3FEF06C010929B050E9457
:103BC000022520E030E0C9010895982F80919B05DF
:103BD000823079F4892F8450843058F0903148F441
:103BE00081E080939B05892F0E946E2520E030E0C4
:103BF00002C02FEF3FEFC9010895CF93DF93EC018F
:103C000080919B05882319F5209709F18B819C8170
:103C1000892BE9F028812230D0F48A8190E08F73DB
:103C20009070892BA1F4213019F48981833078F0C8
:103C300082E080939B05CE010E94BB258F819885F1
:103C40009093890F8093880F20E030E002C02FEF1F
:103C50003FEFC901DF91CF9108958FB7F89410928B
:103C6000A4051092A3051092A2058FBF089580911C
:103C700070008C7F809370008091B600806280938A
:103C8000B6001092B2001092B0001092B1001092E3
:103C9000B3008091B60090E08F719070892BC9F7C6
:103CA00083E087BB87E08093B100809170008160E2
:103CB0008093700008958091B60090E08F719070AD
:103CC000892BC9F7809170008C7F80937000809160
:103CD000B100887F8093B10083B5826083BD8091FD
:103CE000B60090E08F719070892BC9F78091B60073
:103CF0008F7D8093B6000895EF92FF920F931F93EC
:103D00007B018C016091B200862F90E080959095A8
:103D10009C01442737FD4095542F307040705070FF
:103D20002E153F054007510798F4D801C701821BA3
:103D3000930BA40BB50B9C01AD01BB27A52F942FB2
:103D4000832F9093A3058093A2052093A40511C00F
:103D50008091B60090E08F719070892BC9F76E0D3D
:103D60006093B30082E087BB809170008260809393
:103D700070001F910F91FF90EF900895EF92FF92C6
:103D80000F931F936FB7F89470919D052091B20027
:103D900084E48093B4008091B60090E08F719070BD
:103DA000892BC9F7B89904C030E040E050E00AC060
:103DB0008091B200282F30E040E050E021503F4F8A
:103DC0004F4F5F4F6FBF8FEF789FC0011124AA271D
:103DD00097FDA095BA2F820F931FA41FB51F9C01BA
:103DE000AD0175E0220F331F441F551F7A95D1F79F
:103DF0007C018D0162E016950795F794E7946A952A
:103E0000D1F72E0D3F1D401F511FE0909E05F090F1
:103E10009F050091A0051091A1052E0D3F1D401F8B
:103E2000511F281B390B4A0B5B0BB901CA011F91AB
:103E30000F91FF90EF90089560E270E080E090E0D5
:103E400008952FB7F89460919D0510929D052FBF9E
:103E500070E080E090E020E43FE140E050E00E942C
:103E6000F5B820919E0530919F054091A005509195
:103E7000A105260F371F481F591F20939E05309319
:103E80009F054093A0055093A105261737074807C3
:103E9000590728F480919C058F5F80939C050895B5
:103EA0001F920F920FB60F920BB60F9211242F9301
:103EB0003F934F935F936F937F938F939F93AF93B2
:103EC000BF93EF93FF93809170008D7F809370007C
:103ED0001092A4058091CF0580FF03C080E00E946E
:103EE00072248091CF0582FF11C08091BA05816054
:103EF0008093BA052FB7F894809107069091080631
:103F0000826090930806809307062FBFFF91EF9180
:103F1000BF91AF919F918F917F916F915F914F91E1
:103F20003F912F910F900BBE0F900FBE0F901F90DF
:103F300018958091CF0580FF0FC081E00E94722408
:103F4000809170008D7F809370000E942D1E809163
:103F5000CF058B7F8093CF0508951F920F920FB6E8
:103F60000F920BB60F9211242F933F934F935F93B1
:103F70006F937F938F939F93AF93BF93EF93FF9331
:103F80008091A2059091A305892BA1F58091A405AC
:103F90008823E9F48091CF0580FF03C080E00E9470
:103FA00072248091CF0582FF34C08091BA05816070
:103FB0008093BA052FB7F894809107069091080670
:103FC000826090930806809307062FBF22C08091DD
:103FD000B60090E08F719070892BC9F78091A4058D
:103FE0008093B30082E087BB8091700082608093F1
:103FF000700009C08091A2059091A305019790934C
:10400000A3058093A2058091CF0580FF02C00E9486
:10401000FE2380919D058F5F80939D058091BA0559
:1040200082608093BA052FB7F8948091070690912B
:104030000806826090930806809307062FBFFF91C1
:10404000EF91BF91AF919F918F917F916F915F9110
:104050004F913F912F910F900BBE0F900FBE0F907D
:104060001F90189580E197E29093A9008093A80093
:10407000E1EAF0E088E08083808182608083E2E78B
:10408000F0E080818260808308952091A7053091BF
:10409000A8054091A9055091AA05260F371F481F72
:1040A000591F2093A7053093A8054093A905509365
:1040B000AA058091BE0580688093BE052FB7F8944D
:1040C000809107069091080682609093080680937D
:1040D00007062FBF08952FB7F8946091A605109298
:1040E000A6052FBF70E080E090E02AE030E040E0DD
:1040F00050E00E94F5B82091A7053091A8054091A5
:10410000A9055091AA05260F371F481F591F209354
:10411000A7053093A8054093A9055093AA05261733
:1041200037074807590728F48091A5058F5F8093CA
:10413000A50508950E946B206091A7057091A805C0
:104140008091A9059091AA0508951F920F920FB62C
:104150000F9211242F938F939F938091A6058F5FC9
:104160008093A6058091BE0580688093BE052FB719
:10417000F894809107069091080682609093080653
:10418000809307062FBF9F918F912F910F900FBEA5
:104190000F901F901895DC011B96EC911B97F0E097
:1041A00011821B96EC911B97F0E01D968D919C91CE
:1041B0001E97958384831C968C911C971B96EC917B
:1041C0001B97882349F4F0E082E080831B96EC91F2
:1041D0001B97F0E012820AC0F0E010821B96EC916F
:1041E0001B97F0E052968C91529782831B96EC912C
:1041F0001B97F0E082811C969C911C97892B8283EF
:104200001B96EC911B97F0E082811F969C911F9763
:10421000892B82831B96EC911B97F0E0828150964C
:104220009C915097892B82831B96EC911B97F0E011
:10423000828151969C915197892B82831B96EC9198
:104240001B97F0E08081806880831B96EC911B9720
:10425000F0E08181886181831B96EC91F0E081819F
:104260008068818308951F920F920FB60F920BB64C
:104270000F9211242F933F934F935F936F937F93EC
:104280008F939F93AF93BF93EF93FF930E94991FD8
:10429000809188058111EC98E0918905F0918A055B
:1042A000309709F00995FF91EF91BF91AF919F91E0
:1042B0008F917F916F915F914F913F912F910F90CF
:1042C0000BBE0F900FBE0F901F9018951F920F926C
:1042D0000FB60F920BB60F9211242F933F934F936B
:1042E0005F936F937F938F939F93AF93BF93EF935E
:1042F000FF938091C8006091CE008C7131F488ECFE
:104300000E94CE1685E00E94B016FF91EF91BF91FA
:10431000AF919F918F917F916F915F914F913F915D
:104320002F910F900BBE0F900FBE0F901F901895FE
:104330001F920F920FB60F920BB60F9211242F936C
:104340003F934F935F936F937F938F939F93AF931D
:10435000BF93EF93FF93E9ECF0E080818F7B808344
:1043600084E00E94B016FF91EF91BF91AF919F91B1
:104370008F917F916F915F914F913F912F910F900E
:104380000BBE0F900FBE0F901F9018951F920F92AB
:104390000FB60F920BB60F9211242F933F934F93AA
:1043A0005F936F937F938F939F93AF93BF93EF939D
:1043B000FF93E9ECF0E080818F7D808383E00E94B1
:1043C000B016FF91EF91BF91AF919F918F917F9127
:1043D0006F915F914F913F912F910F900BBE0F9076
:1043E0000FBE0F901F9018951F920F920FB60F924D
:1043F0000BB60F9211242F933F934F935F936F93BC
:104400007F938F939F93AF93BF93EF93FF9380918D
:10441000C0006091C6008C7131F480EC0E94CE1611
:1044200082E00E94B016FF91EF91BF91AF919F91F2
:104430008F917F916F915F914F913F912F910F904D
:104440000BBE0F900FBE0F901F9018951F920F92EA
:104450000FB60F920BB60F9211242F933F934F93E9
:104460005F936F937F938F939F93AF93BF93EF93DC
:10447000FF93E1ECF0E080818F7B808381E00E94FC
:10448000B016FF91EF91BF91AF919F918F917F9166
:104490006F915F914F913F912F910F900BBE0F90B5
:1044A0000FBE0F901F9018951F920F920FB60F928C
:1044B0000BB60F9211242F933F934F935F936F93FB
:1044C0007F938F939F93AF93BF93EF93FF93E1EC11
:1044D000F0E080818F7D808380E00E94B016FF91A4
:1044E000EF91BF91AF919F918F917F916F915F916C
:1044F0004F913F912F910F900BBE0F900FBE0F90D9
:104500001F9018952DB141E050E0082E02C0440FD5
:10451000551F0A94E2F7942F909592239DB99EB16E
:10452000942B9EB9EAE6F0E090818450880F23E056
:1045300030E0082E02C0220F331F0A94E2F72095C4
:1045400029232083908170E06370707002C0660F31
:10455000771F8A95E2F7962B90838CB3482B4CBB40
:1045600008959DB121E030E0082E02C0220F331FD4
:104570000A94E2F7209592239DB99EB129232EB982
:10458000EAE6F0E090818450880F23E030E002C03A
:10459000220F331F8A95E2F720952923208308955F
:1045A0001F920F920FB60F920BB60F9211242F93FA
:1045B0003F934F935F936F937F938F939F93AF93AB
:1045C000BF93EF93FF930E94991FE091AD05F09187
:1045D000AE05309709F00995FF91EF91BF91AF912A
:1045E0009F918F917F916F915F914F913F912F910B
:1045F0000F900BBE0F900FBE0F901F9018951F923B
:104600000F920FB60F920BB60F9211242F933F9378
:104610004F935F936F937F938F939F93AF93BF93CA
:10462000EF93FF930E94991FE091AB05F091AC05C9
:10463000309709F00995FF91EF91BF91AF919F914C
:104640008F917F916F915F914F913F912F910F903B
:104650000BBE0F900FBE0F901F901895FC0110928B
:10466000BC001092B90080818093B80008951F9219
:104670000F920FB60F920BB60F9211242F933F9308
:104680004F935F936F937F938F939F93AF93BF935A
:10469000EF93FF938091B90090E0887F907088320B
:1046A000910559F1893291058CF48031910511F110
:1046B000813191052CF4009719F1089781F51AC002
:1046C00088319105D1F0809751F51AC08834910551
:1046D000B9F0893491053CF48033910589F0803438
:1046E0009105E9F410C08035910581F08835910578
:1046F000B1F411C00E94F51A12C00E94741B0FC0C1
:104700000E94561A0CC00E94911B09C08091BB00E8
:104710000E94AB1B04C08091BB000E94D81BFF917C
:10472000EF91BF91AF919F918F917F916F915F9129
:104730004F913F912F910F900BBE0F900FBE0F9096
:104740001F901895982FF999FECF07B600FCFDCF62
:1047500072BD61BD40BD8FB7F8949FBBF99A8FBF02
:1047600008951F920F920FB60F9211242F938F93DB
:104770009F93FB988091BD0580618093BD052FB705
:10478000F89480910706909108068260909308063D
:10479000809307062FBF9F918F912F910F900FBE8F
:1047A0000F901F9018950E94BE1E2091AF0530916A
:1047B000B0054091B1055091B205621B730B840B9B
:1047C000950B1092AF051092B0051092B1051092A2
:1047D000B2050E9445208091A10082608093A100D3
:1047E0000E94E0158091CF0581FD07C0E091C005D2
:1047F000F091C105309709F0099508950E947F272F
:10480000882309F44EC08091CF0582FD03C02FEFAD
:104810003FEF66C024982C988091B60090E08F718D
:104820009070892BC9F78091700081FD0AC08FEFCD
:104830008093B3008091B60090E08F719070892BC7
:10484000C9F78091B000806C8093B0008091B60071
:1048500090E08F719070892BC9F78091B1008068CA
:104860008093B1008091B60090E08F719070892B99
:10487000C9F78091B0008F738093B0008091B6002B
:1048800090E08F719070892BC9F78091B00080689B
:104890008093B0008091B60090E08F719070892B6A
:1048A000C9F78091CF0581608093CF058091B600D4
:1048B00090E08F719070892BC9F78091BF05806857
:1048C0008093BF052FB7F894809107069091080652
:1048D000826090930806809307062FBF20E030E0A7
:1048E000C90108959091CF058170880F9C7F982B06
:1048F0009093CF050E947F27882311F42C980EC037
:1049000024982C988091B0008F738093B000809190
:10491000B60090E08F719070892BC9F7249A80912E
:10492000BE0584608093BE052FB7F894809107067A
:1049300090910806826090930806809307062FBF27
:1049400008958091CF0580FF5CC08091A1008D7F8C
:104950008093A1008091AF059091B005A091B10521
:10496000B091B2050097A105B10551F40E94BE1E99
:104970006093AF057093B0058093B1059093B20535
:10498000809188058111EC9AF999FECF0E947F27CA
:104990008823B1F42C9A249A8091CF0582FF05C018
:1049A00087E083BF889513BE22C00E945B1E85E00E
:1049B00083BF889513BE0E94371E0E94642617C0CD
:1049C000909172002091BC0030917A001092720098
:1049D0001092BC0010927A00249A87E083BF8895D9
:1049E00013BE909372002093BC0030937A0084E44D
:1049F0008093B4008091B60090E08F719070892B05
:104A0000C9F7089510927C0010927A0010927E00EF
:104A100008951F920F920FB60F920BB60F921124AA
:104A20002F933F934F935F938F939F93EF93FF93B6
:104A30008091B305E091B405F091B505882351F458
:104A40008091B6059091B70520917900E80FF91F84
:104A500020830FC08091B6059091B70540917800F2
:104A6000509179009C01220F331FE20FF31F5183F5
:104A7000408301969093B7058093B6052091B605C3
:104A80003091B7058091B8059091B905281739077D
:104A9000B1F480917A00877F80937A008091BD0580
:104AA00088608093BD052FB7F89480910706909198
:104AB0000806826090930806809307062FBFFF9137
:104AC000EF919F918F915F914F913F912F910F9017
:104AD0000BBE0F900FBE0F901F901895282F1092AD
:104AE000B7051092B605843048F481E090E0022EBC
:104AF00002C0880F991F0A94E2F717C0883011F09E
:104B00008A3011F481E011C0893011F08B3011F43A
:104B100083E00BC08C3011F08E3011F484E005C0BE
:104B20008D3011F08F3019F48CE080937E008091ED
:104B30007C0090917C00907E90937C0090917C0012
:104B4000922B90937C008F71821729F0243018F0FB
:104B50008DE70E94EC048091B8059091B905029709
:104B600020F080917A00886603C080917A00886482
:104B700080937A000895A1E0B0E0E1ECF5E20C94B6
:104B800066B9FC01858196819093B9058093B8053B
:104B900080818093B305838194819093B505809340
:104BA000B405828180937C008091B305882329F429
:104BB00080917C00806280937C00618170E0615A0A
:104BC000784FCE01019641E050E00E94FEB9898104
:104BD000806880937A002196E2E00C9482B9A0E08C
:104BE000B0E0E5EFF5E20C945AB900E8C2E8DBE882
:104BF00010E092E8C92E9BE8D92EE12CF12C82E836
:104C0000A82E8BE8B82E0E94F404BC018BE8633810
:104C1000780718F19E0140E050E0CB01A0E0B0E041
:104C200082589B48A040B040281739074A075B07C5
:104C30004CF4123039F48091660081508093660004
:104C4000000036C0809166008150809366000000AD
:104C5000EB01C258DB4811E028C08BE862387807C6
:104C600039F1CE01A0E0B0E09B0140E050E0360118
:104C70004701621A730A840A950A86159705A805E2
:104C8000B9054CF4113039F4809166008F5F809340
:104C9000660000000DC0809166008F5F8093660003
:104CA0000000E501C61BD70B12E0015009F0ABCFA5
:104CB000CDB7DEB7EEE00C9476B90E947F2788234B
:104CC00011F40E94EF250895CF93DF93C0E0D0E068
:104CD00088EC0E94EC04219683E1C838D807C1F71C
:104CE0000E945D26DF91CF910895289A23982B98F2
:104CF000229A219A209A80E58CBD81E08DBD08958D
:104D00008EBD000000000000000000000000000058
:104D10000000000000000000000000000000000093
:104D2000000000008DB58EB50895289A0895289842
:104D300008958091BA0580FF0BC09FB7F8948091C9
:104D4000BA058E7F8093BA059FBF0E94A82777C0BF
:104D50008091BA0581FF0BC09FB7F8948091BA0586
:104D60008D7F8093BA059FBF0E94211F68C08091EC
:104D7000BC0587FF0BC09FB7F8948091BC058F7767
:104D80008093BC059FBF0E94691959C08091BD05E1
:104D900083FF0BC09FB7F8948091BD05877F8093F8
:104DA000BD059FBF0E94C71D4AC08091BD0584FFFD
:104DB0000BC09FB7F8948091BD058F7E8093BD0591
:104DC0009FBF0E94A01C3BC08091BE0582FF0BC00C
:104DD0009FB7F8948091BE058B7F8093BE059FBFDF
:104DE0000E94D3232CC08091BE0585FF0BC09FB7C6
:104DF000F8948091BE058F7D8093BE059FBF0E9471
:104E0000041C1DC08091BE0587FF0BC09FB7F8949E
:104E10008091BE058F778093BE059FBF0E946B1661
:104E20000EC08091BF0587FF0AC09FB7F89480919C
:104E3000BF058F778093BF059FBF0E94A1248091FB
:104E4000BA058823A1F48091BB05882381F4809161
:104E5000BC05882361F48091BD05882341F48091CD
:104E6000BE05882321F48091BF05882361F02FB708
:104E7000F894809107069091080682609093080646
:104E8000809307062FBF0895ADE0B0E0EAE4F7E2B3
:104E90000C9466B9FC01009719F42FEF3FEF2AC07C
:104EA000848195819093C1058093C0058081918113
:104EB000A281B3818F839887A987BA8781E08B8786
:104EC0001D861C86CE0101960E94D1272FEF8F3FB1
:104ED000920771F08D5F9F4F59F00E94FE238F5F04
:104EE0009F4F19F020E030E005C02DEF3FEF02C0EA
:104EF0002EEF3FEFC9012D96E2E00C9482B980912C
:104F0000D0050895F999FECF9FB7F894E0E0F0E05E
:104F100089E08093570084919FBF8F70823019F48D
:104F20001092D00503C081E08093D0058091D00518
:104F3000882369F48FB7F8945F9350E85093610029
:104F400050E0509361005F918FBF0E9464260895E6
:104F50009091CF0592FF24C08091CC058823B1F4B5
:104F6000E091CD05F091CE05309709F0099580913B
:104F7000CF0582FF15C06091C8057091C905809169
:104F8000CA059091CB050E947C1E08959B7F90934B
:104F9000CF05E091CD05F091CE05309709F0099548
:104FA0000895CF93DF93EC01009719F42FEF3FEFB3
:104FB0002EC00E941C1F2E813F81488559850E946A
:104FC000F5B828EE33E040E050E00E9434B9B90172
:104FD000CA01611571058105910519F42EEF3FEFA6
:104FE00016C02091CF0522FF03C02DEF3FEF0FC069
:104FF00024602093CF05A2ECB5E0FE012DE00190E6
:105000000D922150E1F70E947C1E20E030E0C901A2
:10501000DF91CF910895FC010097A9F086EA858B76
:105020008085882381F08F3F71F08385833031F450
:105030008489882341F08F3F19F405C0813019F429
:10504000158A81E0089580E008958091ED058F5FD5
:105050008093ED05815008958091D505815080930E
:10506000D5058091940F833021F481E08093940FD3
:1050700008951092940F0895FC01A081B18190933E
:105080003E1080933D1010922A1010922B108091A8
:10509000FC0580932F1053962D913C915497E091ED
:1050A0009A0FF0919B0FC901BF010E9420B9462FB2
:1050B00060932D10C901BF010E9420B9892B19F0FE
:1050C0004F5F40932D108FEF90E00090110E02C0C3
:1050D000880F991F0A94E2F780958E7F80932C1099
:1050E0000E94252880932E100895FC01878983FD56
:1050F00003C080E090E0089520E0838994898036A1
:10510000910508F421E081E02827822F089520915D
:10511000920F3091930FFC01EC5BFF4F80819181E6
:10512000821B930B63E270E00E9420B983E2689FC8
:10513000B0011124620F731FCB010895FC01009789
:1051400029F48091DE059091DF0508958081918199
:1051500008951F93182FA0E0B0E007C01396ED91BB
:10516000FC9114978081181731F0CD010E949E2880
:10517000DC01009799F7CD011F910895FF920F93DD
:105180001F93082FA0918A0F40918F0F5091900F7D
:1051900090E060E070E081C0FA01E60FF71F9B012C
:1051A000265A3F4F878180FD76C0EC5BFF4F11820E
:1051B0001082E454F0400230F1F0023018F0033075
:1051C00009F06EC090918E0F80918C0F981708F0A7
:1051D00067C09F5F90938E0F138214821582168290
:1051E000E0918F0FF091900FE60FF71F80858F7081
:1051F000808712823BC090918D0F80918B0F981702
:1052000008F04EC0F090910FE091920FF091930F43
:1052100010E040E050E024C0DF018081B3969A01A5
:105220002D5D3F4F8823D1F49F5F90938D0F21E038
:105230002C93E0918F0FF091900FE60FF71FEC5B2E
:10524000FF4F8091920F9091930F840F951F489676
:1052500091838083E454F040228304C01F5FA9013E
:105260001F15D0F28091910F8117D1F0E0918F0F2F
:10527000F091900FE60FF71F8085807F8087000FE9
:10528000016007831182108220918F0F3091900F5F
:10529000260F371F07C09F5FB9019A1708F47CCF0C
:1052A00020E030E0C9011F910F91FF900895CF9346
:1052B000DF9320918F0F3091900F821B930B6AE543
:1052C00070E00E9420B98AE5689FE0011124F9018D
:1052D000EC0FFD1F8781869590E08230910569F083
:1052E0008330910514F0039731F580918E0F882358
:1052F00011F1815080938E0F1EC080918D0F8823F5
:1053000019F0815080938D0F2091920F3091930F5F
:10531000EC5BFF4F80819181821B930B63E270E015
:105320000E9420B983E2689FF0011124E20FF31F6D
:10533000808181111082E0918F0FF091900FEC0F1E
:10534000FD1F87818E7F8783DF91CF910895209104
:10535000910FE091920FF091930F90E005C0808142
:10536000B3968823C9F49F5F9217C8F320918A0FE0
:10537000E0918F0FF091900F90E006C08781E65A80
:10538000FF4F80FD09C09F5F9217C0F38091940F7B
:10539000882319F081E0089581E0089521E030E04C
:1053A00002C0220F331F8A95E2F780910506822BF7
:1053B000809305062FB7F894809107069091080610
:1053C000806290930806809307062FBF0895CF93BD
:1053D000DF93EC01FA01009721F16B8F4115510524
:1053E00049F080819181A281B3818C8F9D8FAE8F96
:1053F000BF8F04C01C8E1D8E1E8E1F8EE98DFA8DF0
:10540000309719F0CE014B960995CE010E94752870
:10541000882339F010923E1010923D1081E00E94D6
:10542000CE29DF91CF910895A2E0B0E0EAE1FAE25F
:105430000C9466B94091060620910506522F642F00
:1054400030E06F5F683008F060E0C901062E02C0EE
:10545000969587950A94E2F780FF1CC06093060634
:1054600081E090E0062E02C0880F991F0A94E2F7AF
:1054700058275093050670E0660F771F6C59784FD8
:10548000CE01019642E050E00E94FEB9E981FA8126
:10549000099504C04617A9F64093060680910506B3
:1054A000882361F02FB7F894809107069091080641
:1054B000806290930806809307062FBF2296E2E051
:1054C0000C9482B9FF920F931F938C01F62E8AEDF4
:1054D00095E00E94C078D8011796FC921797159610
:1054E000ED91FC911697C801079609958091DA0510
:1054F0009091DB05892B19F080E00E94CE291F9145
:105500000F91FF9008952091D5052F5F2093D50529
:105510000E947E530895CF92DF92EF92FF921F93E5
:10552000CF93DF936C01EB01C45BDF4F80EE9BE216
:10553000998388832C9782E08993F60183819481F3
:10554000998388832796808D8993199281E0899326
:105550008883CB54D040E0909A0FF0909B0FC60107
:105560000E9475288823E1F120912A10622F8091F2
:105570002D1090E0019730E02817390711F01E2D0B
:105580000AC02E9DC0012F9D900D3E9D900D1124AF
:10559000F6011389181B40913F1050914010405E56
:1055A0005F4F862F90E09C012E9DC0012F9D900D96
:1055B0003E9D900D1124F60125893689280F391F4B
:1055C000CA01B901412F50E00E9414BACD5BDF4FF0
:1055D000165F199380913F1090914010469609C034
:1055E000CD5BDF4FF6018389885F89938589968932
:1055F000089799838883C454D040CC5BDF4FE88000
:10560000F980C454D040F7018081982F9C7E90830C
:10561000F60123813481807E275F3F4F08F0886048
:10562000F7018083F7012081922F9F7D9083F601FF
:10563000878982FD04C02F79F701208316C090640A
:10564000F70190831885107F11601887C6010E94AA
:1056500075281F70882319F080912F1002C0809147
:10566000FC058295807F182B1887C6010E9475283B
:10567000F70190818823A1F09068908390912A107F
:105680008085992339F48C7F8160808780912D10EB
:10569000818709C08C7F8260F7018087918703C072
:1056A0009F77F7019083F6018585F7018183F601E5
:1056B00080899189F70193838283F6018685978596
:1056C000F70195838483F6018289F7018683C601F9
:1056D0000E947528882319F080912E1002C00E9424
:1056E0002528F7018783CE0109960E94832A80E04E
:1056F000DF91CF911F91FF90EF90DF90CF900895B1
:10570000E0913D10F0913E1080819181BF010E9497
:105710008B2A08958EE190E19093F10F8093F00F22
:1057200022E02093EC0F2091A30F3091A40F30932F
:10573000EE0F2093ED0F2BE02093EF0F1092F40F5C
:105740001092F50F21E02093F60F2093F70F2CE233
:1057500038E23093F90F2093F80F22E820931E10BF
:105760002091AA0F20931F102091A60F3091A70F10
:1057700030932110209320102091A80F3091A90F71
:1057800030932310209322102091A50F20932410F2
:105790002091AB0F2093251022E02093261020911A
:1057A000A10F209327102091A20F20932810209161
:1057B000291020930710895690400E94832A08954B
:1057C000BC018091D50581508093D50583ED95E08E
:1057D0000E94A87881E00E94CE2908950F931F931C
:1057E000BC010091DA051091DB058AED95E00E947D
:1057F000A878012B19F480E00E94CE291F910F9107
:105800000895FC0185EC8283CF010E94EE2B089560
:10581000FC018AE88283CF010E94EE2B0895FC01EF
:1058200089E18283CF010E94EE2B0895CF93DF930D
:10583000EC010097E9F086EA8F83EB81FC813097D9
:10584000B9F09081892F8150803F90F4892F0E9478
:10585000A928892B69F420E08D819E81892B09F488
:1058600021E02A838EED95E0BE010E94A8781F8278
:10587000DF91CF910895BC0186ED95E00E94A87854
:1058800081E00E94CE290895BC0188ED95E00E9438
:10589000A87881E00E94CE290895A3E0B0E0E3E576
:1058A000FCE20C9460B96C01675F7F4F7B836A8375
:1058B0008BE0BE016F5F7F4F0E947C0F8981882340
:1058C00009F441C0EA80FB8081E0D701D7968C9330
:1058D000D797F60183819481D9969C938E93D8971C
:1058E0008389885FDA968C93DA9705891689085040
:1058F0001040DC961C930E93DB978FEFD801119626
:105900008C9311978089918913969C938E9312970B
:105910008685978515969C938E9314978289169603
:105920008C930E942528F8018783D701DB96ED919F
:10593000FC91DC9788E08083EA81FB81ED5BFF4F7F
:1059400080EE9BE23FC0EA80FB8082E0F70187ABFC
:105950008DEF9FEF91AF80AFD60153968C91539707
:10596000875F82AF55960D911C9156970950104054
:1059700014AF03AF13968D919C911497F801928305
:10598000818350968D919C915197948383831E9629
:105990008D919C911F979683858352968C918783D6
:1059A0000E942528D80118968C93D701DB96ED919B
:1059B000FC91DC978CE08083EA81FB81ED5BFF4FFB
:1059C00085E09DE291838083EA81FB81D601589630
:1059D0008C9187AFEA81FB81E05CFF4F8091100ED4
:1059E0008083EA81FB81EF5BFF4F81E08083EA8166
:1059F000FB81EE5BFF4F80838A819B810E94832A1B
:105A000080E02396E8E00C947CB90F931F93CF932A
:105A1000DF93EC018C0105541040D801DB96ED9129
:105A2000FC91DC97818192816FEF0E945441882321
:105A300049F0229780EE9BE299838883C8010E94F7
:105A4000884D03C0CE010E94E02BDF91CF911F91C2
:105A50000F910895FC018589843A11F08A3AA1F4E6
:105A60008085481789F4818592856817790761F4E4
:105A7000CF01B90148E050E00E9407BA9C0180E0E4
:105A8000232B19F481E0089580E00895A0E0B0E0B0
:105A9000ECE4FDE20C945FB9FC016B01B42E7901DA
:105AA0002091E1053091E2059091E00586E1989F13
:105AB00080011124020F131F309711F4E9010EC069
:105AC000EF010BC0CE01B6014B2D97010E942A2D8C
:105AD000882319F08D89843A31F06696C017D10772
