:100000000C9451040C9489040C9489040C94890474
:100010000C9489040C94EC190C9481A80C94E613AC
:100020000C94B7130C9489040C9489040C948904DF
:100030000C9489040C940D120C9489040C946A128B
:100040000C9489040C9489040C9489040C948904FC
:100050000C9489040C9489040C9489040C948904EC
:100060000C9489040C94AD1A0C940D1B0C94DF1A9B
:100070000C9489040C94E0150C948F140C9489044E
:100080000C9489040C9489040C9489040C948904BC
:100090000C941F1A0C947F1A0C94511A0C9415147A
:1000A0000C9489040C9489040C9462130C94A9A8F0
:1000B0000C9489040C9489040C9489040C9489048C
:1000C0000C9489040C9489040C9489048F320A32AC
:1000D000DC32DC32DC3210321532A632DC3218323D
:1000E0001B3225322D32DC32303233323632DC32C2
:1000F0003B323E32A632433283329832DC32863291
:1001000089320E328C328C32A632A632A632A63218
:10011000A632A632A632A632A632A632A632A6321F
:10012000A632A632A632A632A6327932A632DC3206
:10013000DC32DC32DC32DC32DC32DC32DC32DC324F
:10014000DC32DC32DC32DC32DC32A6329B329E32F4
:10015000A6327232EB33F632ED33ED33ED33FB3250
:100160000333ED33ED330B3310332A333233ED33B6
:1001700037333F334933ED3351335633ED335E3349
:100180007B338D33ED3380338833EB33EB33EB3319
:10019000973397339733973397339733973397330F
:1001A00097339733973397339733973397339733FF
:1001B000973371339733ED33ED33ED33ED33ED3367
:1001C000ED33ED33ED33ED33ED33ED33ED33ED332F
:1001D000ED3397339233EB3397336C3324542C54F1
:1001E000B85361546154FF530C54615461546154C9
:1001F00036544554D853E4536154B553175460579B
:100200006D57815793579A57A757B457BF57C7573A
:10021000E5571058D157B459B45956595D595D59DD
:10022000695969597A597A597A598B598B598B5925
:10023000D07A007B007B007BD57AEA7ADF7AE47A99
:100240000F7BDA7AEF7AEF7AF47A007B067B0A7B0F
:100250002A7C2D7C307C307C337C3F7C397C3C7C20
:100260004F7C367C427C457C487C4B7C5C7D607D51
:10027000887D647D687D887D6C7D887D7A7D7E7DCE
:10028000857DE1829483B18365822D842D84A28350
:10029000B183B7830584DE832D842D840584BE82DB
:1002A000088421922692E192F9921093089437944F
:1002B000D994D994D994D994D994D994D994D994D6
:1002C000D994B493C293D994DB91E493CC920495DE
:1002D00038956E955A954B956E958695B795B795C9
:1002E000B795B795B795B795B795B795B7955A950B
:1002F0006E95B795F79461954595579F559F559F76
:10030000849F8B9F9E9FA69FA99FAC9FAF9FB29FEC
:10031000B9A0C0A0CFA0D7A0D9A0DBA0DDA0E0A04D
:10032000646464646464646464646464646463638F
:100330006363636363636363636363626262626292
:1003400062626161616161606060605F5F5F5E5EAB
:100350005D5D5D5C5C5B5B5A595958575756555407
:10036000535251504F4E4D4B4A4947454442403EEF
:100370003C3A383634312F2C2A292828272726269C
:10038000252525242424232323232222222221213C
:10039000212120202020201F1F1F1F1F1E1E1E1E68
:1003A0001E00000100020003000400050006000713
:1003B00000080009000A000B000C000D000E000FE1
:1003C00000100012001400160018001A001C001E75
:1003D00000200022002400260028002A002C002EE5
:1003E000003100350039003D004100450049004D15
:1003F000005100550059005D006100650069006D05
:100400000073007B0083008B0093009B00A300AB74
:1004100000B300BB00C300CB00D300DB00E300EB64
:1004200000F700070117012701370147015701674E
:1004300001770187019701A701B701C701D701E73C
:1004400001FF011F023F025F027F029F02BF02DF26
:1004500002FF021F033F035F037F039F03BF03DF0E
:10046000030F044F048F04CF040F054F058F05CFF2
:10047000050F064F068F06CF060F074F078F07CFD2
:10048000072F08AF082F09AF092F0AAF0A2F0BAFAC
:100490000B2F0CAF0C2F0DAF0D2F0EAF0E2F0FAF7C
:1004A0000FA20B0400BD0B0C00EA0B0D00520B1544
:1004B000006C0C1900640C1A00CD0B1B00CE0B1C39
:1004C00000CF0B1D00D90B1E00BE0B2F00C40B313B
:1004D000006E0C3200670C3400F40B3500FA0B365A
:1004E00000030C3800720C3900C30B4100F90B42B9
:1004F00000F70443003A0B000159091601000000FF
:1005000000000000000000000000000000000000EB
:1005100000000000000000000000000000000000DB
:1005200000000000000000000000000000000000CB
:1005300000000000000000000000000000000000BB
:1005400000000000000000000000000000000000AB
:10055000000000000000000000000000000000009B
:100560000000000000000000020100020205080077
:1005700000020034120000000000000000020E0023
:1005800080000000000000000000000000000000EB
:10059000000000000000000000000000000000005B
:1005A0000000000000000000000500FF0000020045
:1005B000001E000003341201030300001027000096
:1005C00010270000010001E803000004E803000018
:1005D000000000000000000000000000000000001B
:1005E00000DDDDCCCCBBBBAAAA030100E093040074
:1005F000008400000007050710020502040204033E
:10060000080103020A01005F0027000C011410A278
:100610000B0800AC0B0100B90B0400BD0B01006B13
:100620000C0100720C08006E0C0200FA0B020003B1
:100630000C0100670C01006C0C0100C00B0100C133
:100640000B0100C20B0100C30B0100BE0B0200C472
:100650000B0100690C0100680C01007C0B01007E9D
:100660000B0100EA0B0800520B0400D00B0400C57C
:100670000B0400C90B0400CD0B0100CE0B0100CF11
:100680000B0100D90B1100640C0100D40B0100D543
:100690000B0400F20B01007F0B0200F40B0100F3CE
:1006A0000B0100F50B0400F90B010000000000F144
:1006B000050200F5050100F3050200F7050100F849
:1006C000050100F9050100FA050100FB050100FC28
:1006D000050100FD050100FE050100F6050100FF12
:1006E000050100000601000D0602000206010003DC
:1006F00006010004060100090604000106010005C8
:100700000601000606010007060200D9030000F7F3
:100710000400005D040000B405000000000000D7E4
:10072000050000B00A0000080B0000AB080000FA4A
:10073000080000C7080000310900005C0900006AD9
:100740000A00000000000000000000590900003A03
:100750000B00003F19941898183B199C18A018C456
:100760002F3129000000000000000000000000F808
:100770005D6260E468F15C825AA65CC358C74F3A78
:100780003E32586A49CC45C742E43DE4407C3D00D6
:10079000000000000000000000000002020302014F
:1007A0000201010101010101020201010102020233
:1007B0000202020202020202020203030202030216
:1007C0008A4B24590108AE4DE43E0101AE4DE43E92
:1007D0000101424B005A0101CC4A52460101CC4A68
:1007E00027460108834AD75D01012A4A3366010181
:1007F00000000000010800000000010100000000EE
:100800000103000089370104000000000105000019
:1008100000000106000000000101000000000101CD
:10082000AE4D0000000100000000010000000000CB
:10083000010800000000010A0000000001000000A3
:1008400000000101000000000101000000000000A4
:1008500000001A40000800001A40000C00001A4076
:10086000000000001A4000C734BB39B5358D35ADE6
:10087000350000CF34DF34A535D7348539A6343D73
:10088000374537AD373537BD350000C53A8C5B0E7F
:100890004F34697A660000FF6A825FBC470000003F
:1008A0000000112480912D13823141F084B78F71A3
:1008B00080932D1380FF05C081E001C081E180930A
:1008C0002D1314BE809160008861809360001092A7
:1008D000600011241FBECFEFD1E2DEBFCDBF12E01A
:1008E000A0E0B2E0E8EAFAE501E00BBF02C0079041
:1008F0000D92A836B107D9F713E1A8E6B2E001C01E
:100900001D92AD32B107E1F70E94A56D0E94686D9E
:10091000FDCF0C9400007F937FB7F8949D9AA59823
:100920008AEF0E94EA048AEF0E94EA049D9886E416
:100930000E94EA0481E0959980E08F9380EF0E9405
:10094000EA048F917FBF7F9108957F937FB7F894DA
:100950009D9AA59886E00E94EA049D988AE00E94EC
:10096000EA04889495990894881F8F9384E60E94DE
:10097000EA048F917FBF7F9108959F937F9398E0C2
:100980000E94A504879577959A959923C9F7872F93
:100990007F919F9108957F937FB7F894A5989D9A32
:1009A0008F9386E00E94EA048F91879508F49D98C2
:1009B0008F9384E60E94EA048F919D987FBF7F9178
:1009C00008959F9398E00E94CB049A959923D9F7B4
:1009D0009F91089500000000000000008A95882380
:1009E000C9F708955F937F937FB7F894CF93DF9310
:1009F000C0E0D0E07F935091B2007091B2007517C3
:100A0000E1F3739521965091B2005717D9F77F9172
:100A1000CE01DF91CF917FBF7F915F9108950F93BA
:100A2000DF93CF93CDB7DEB760970FB6F894DEBFF4
:100A30000FBECDBF002309F459C029833A834B83ED
:100A40005C836D837E838F839887E0E2E01B2D813A
:100A50003E814F8158851E16BCF01D861E861F865E
:100A6000188A8E2F992787FD9095909581959F4F95
:100A700004C056954795379527958A95D2F72987CB
:100A80003A874B875C872AC0CA01B901002E04C08F
:100A900096958795779567950A94D2F76D877E87A7
:100AA0008F87988BDA01C90104C0880F991FAA1F8C
:100AB000BB1FEA95D2F729813A814B815C8104C042
:100AC00056954795379527950A95D2F7822B932B04
:100AD000A42BB52B89879A87AB87BC8729853A8554
:100AE0004B855C856D857E858F85988960960FB670
:100AF000F894DEBF0FBECDBFCF91DF910F91089567
:100B00000F93DF93CF93CDB7DEB760970FB6F8940E
:100B1000DEBF0FBECDBF002309F459C029833A833D
:100B20004B835C836D837E838F839887E0E2E01B39
:100B300029813A814B815C811E16BCF019861A8688
:100B40001B861C868E2F992787FD90959095819501
:100B50009F4F04C0220F331F441F551F8A95D2F7A1
:100B60002D873E874F87588B2AC0CA01B901002EB6
:100B700004C0660F771F881F991F0A94D2F76987F0
:100B80007A878B879C87DA01C90104C0B695A7953F
:100B900097958795EA95D2F72D813E814F815885AB
:100BA00004C0220F331F441F551F0A95D2F7822B12
:100BB000932BA42BB52B8D879E87AF87B88B298568
:100BC0003A854B855C856D857E858F859889609695
:100BD0000FB6F894DEBF0FBECDBFCF91DF910F915E
:100BE00008950895A4E0B0E0E8EFF5E00C9476AC49
:100BF0009093D1038093D003662359F485E2BE011C
:100C00006F5F7F4F0E94630A89819A81AB81BC81AB
:100C100004C082E390E0A0E0B0E08093CB03909327
:100C2000CC03A093CD03B093CE0381E08093CF0398
:100C300085EC93E00E948E0C2496E2E00C9492AC3A
:100C400083ED96E060E00E94F2050895A8E0B0E030
:100C5000ECE2F6E00C9472AC8B01E82EFF24B701B5
:100C6000660F771F660F771F6F557B4FCE0101967A
:100C700044E050E00E9401AD89819A81F80193839C
:100C800082832B813C81318320838091000290E01C
:100C90000197E816F90639F4809101029091020259
:100CA000821B930B14C0B701660F771F660F771F67
:100CB0006B557B4FCE01059644E050E00E9401AD9C
:100CC0008F8198852B813C81821B930BF801958342
:100CD00084832896E6E00C948EAC02C00E94A26D3C
:100CE0000E94D30E8823D1F708950F931F93CF93BB
:100CF000DF938C01EB010E946D06C801BE010E94CA
:100D0000710E2FEF8F3F920739F085E0C13FD80772
:100D100029F40E946D0602C081E001C080E0DF91ED
:100D2000CF911F910F910895A6E0B0E0EAE9F6E0B7
:100D30000C9472ACFF24E09000028E010F5F1F4FF5
:100D40000CC08F2DB8010E942606C80161EF75E026
:100D50000E947506882321F4F394FE1490F380E03A
:100D60002696E6E00C948EAC0F931F93CF93DF93FF
:100D70008C01EB010E946D06C801BE010E940D0F9F
:100D80002FEF8F3F920739F085E0C13FD80729F454
:100D90000E946D0602C081E001C080E0DF91CF912A
:100DA0001F910F910895ADE0B0E0E9EDF6E00C94ED
:100DB0006AAC81E0809368027090000252E0C52E18
:100DC000D12CCC0EDD1E46E0642E38E0E32EF12C53
:100DD000EC0EFD1E5E010894A11CB11C21E0822EC8
:100DE000912C33C0B6010E942606F701862D119280
:100DF0008A95E9F7BB86AA869D868C8600E010E07E
:100E00001EC08A819B81800F911F99878887C701A7
:100E100061EF75E00E947506AA85BB85EC81FD81B6
:100E2000E00FF11F9C918081981739F0CE01029656
:100E300063ED76E00E94B40623C00F5F1F4F8E81E2
:100E40009F8108171907E8F215C08091690287157C
:100E500048F2109269020E94E707813031F483ED75
:100E600096E061E00E94F2050BC00E9420061092FD
:100E7000680206C0809169028F5F80936902E5CFA6
:100E80002D96EEE00C9486AC0E943A08882339F443
:100E90000E949406813039F00E9420060895813026
:100EA00011F00E9420060895A7E0B0E0EAE5F7E01F
:100EB0000C946EAC8C0119820097E1F1FC01108258
:100EC00084E090E09B838A8381E090E09F838E831F
:100ED000E0900102F09002026E010894C11CD11C46
:100EE00082E0A82EB12CAC0EBD1E1DC0DD82CC82CE
:100EF0000E946D06C50160E070E00E94710EFFEF78
:100F00008F3F9F0721F481E0F801838313C00E9483
:100F10006D06F80180819981890F80838A819B8188
:100F200001969B838A838A819B818E159F05F0F2AF
:100F3000F80113822796EAE00C948AACA6E0B0E0B0
:100F4000E4EAF7E00C946EAC8C010097E1F1E090DC
:100F50000102F0900202FA82E98281E090E09E8331
:100F60008D839AE0A92EB12CAE0CBF1C6E010894A3
:100F7000C11CD11C1FC01C830B830E946D06C601BF
:100F800060E070E00E94710E2FEF8F3F920721F416
:100F900081E0F801838317C00E946D06F80120816B
:100FA00089819A812F3F19F0928381830BC001962A
:100FB0009A83898389819A818A159B05E0F2F801D9
:100FC000F282E18213822696EAE00C948AACAFE0CA
:100FD000B0E0EDEEF7E00C9476AC8FEF8983CE01B4
:100FE00002960E949E078D818130E9F1CE0106961E
:100FF0000E94540789858130B1F19E818A81890FD1
:10100000A1F191959E838B819C819B878A87CE01DC
:1010100001969D878C8781E090E09F878E87CE0127
:101020000A9661EF75E00E94B4068823F9F48A8578
:101030009B8501969B878A8720910102309102024D
:10104000A901465F5F4F8417950710F03B872A87F9
:10105000CE0106969D878C87CE010A9661EF75E0DA
:101060000E94B40603C081E001C080E02F96E2E058
:101070000C9492ACA8E0B0E0E0E4F8E00C9476AC1C
:10108000CE0105960E9454078885813061F0CE011B
:1010900001960E949E078C81813029F089819D8173
:1010A000890F19F403C081E001C082E02896E2E0D4
:1010B0000C9492AC80916A0282FF12C080916A0205
:1010C0008B7F80936A0280916A02806180936A02BA
:1010D000E0916B02F0916C02309711F081E009957C
:1010E00080916A0284FF29C0669B16C080916A02C3
:1010F0008F7E80936A0280916A028E7F80936A025B
:10110000E0916D02F0916E02309711F081E0099547
:1011100086E00E94FE0C11C080918602816080935F
:1011200086022FB7F89480919D0390919E03916061
:1011300090939E0380939D032FBF80916A0283FF4B
:1011400012C080916A02877F80936A0280916A024E
:10115000806280936A02E0916B02F0916C0230979A
:1011600011F082E0099580916A0285FF29C0679B92
:1011700016C080916A028F7D80936A0280916A0214
:101180008D7F80936A02E0916D02F0916E0230973C
:1011900011F082E0099587E00E94FE0C089580918D
:1011A00086028160809386022FB7F89480919D0318
:1011B00090919E03916090939E0380939D032FBF17
:1011C00008951F93182F80917002882351F46B9A11
:1011D0000E94E10B882311F0739801C0739A579A0B
:1011E0005F9A21E030E002C0220F331F1A95E2F728
:1011F00080917002822B809370021F910895259A2E
:10120000269A279A84E00E94E10880E00895609180
:10121000710270E080E090E026EA3EE040E050E0BD
:101220000E9405ACBB27A92F982F872F21E0209380
:101230007402E0917202F0917302099508950E9480
:10124000350D109280026091D2037091D303E0912A
:10125000D703F091D8038091D60309950895A9E0AA
:10126000B0E0E5E3F9E00C9476AC0E94350D809196
:101270008102843049F0853009F474C0833009F06C
:1012800071C01092810271C01A821B821C821D8261
:101290001E821F821886198681E0809381026091E8
:1012A000820280918302862387FF5FC070E06F77A0
:1012B0007070660F771F6F557C4FCE01029642E02B
:1012C00050E00E9401AD6091830270E06F77707012
:1012D000660F771F6F557C4FCE01069642E050E0B7
:1012E0000E9401AD2A813B814C815D812115310530
:1012F00041055105D1F16E817F81888599856217FD
:1013000073078407950788F5E7E0660F771F881F46
:10131000991FEA95D1F70E9444AC622F70E0605E9D
:101320007C4FCE01019641E050E00E9401AD6A8100
:101330007B818C819D812E813F8148855985621BEF
:10134000730B840B950B298130E040E050E00E9444
:1013500005AC672F782F892F992787E067337807A7
:1013600040F409C081E08093810260E070E080E099
:1013700003C066E377E081E0E0918402F0918502AA
:1013800009952996E2E00C9492AC8091860280FF48
:1013900007C0809186028E7F809386020E945A0841
:1013A0008091860281FF07C0809186028D7F8093A5
:1013B00086020E941F098091860282FF07C08091E9
:1013C00086028B7F809386020E942F09809186027D
:1013D00083FF07C080918602877F809386020E94E8
:1013E000070980918602882361F02FB7F8948091D5
:1013F0009D0390919E03916090939E0380939D0323
:101400002FBF0895E1E8FBE088E3DF011D928A9594
:10141000E9F7B19681E08093A20B118212821382C8
:10142000148215821682178285E08093AC0B8AEFB6
:101430009BE06DEF74E042E850E00E9401AD82E570
:101440009BE06FE775E04FE250E00E9401AD80E560
:101450009BE06EEA75E042E050E00E9401AD89EB4E
:101460009BE060EB75E041E450E00E9401AD87E74E
:1014700097E0E9EDF3E0DF019C011D92215030403F
:10148000E1F70895A4E0B0E0E8E4FAE00C9476AC6B
:10149000682F70E0660F771F660F771F615F794FC7
:1014A000CE01019644E050E00E9401AD69817A814D
:1014B0008B819C812496E2E00C9492AC0E94020AFB
:1014C0000E9444070895EF92FF921F93CF93DF93FA
:1014D000182FEB01209761F00E94420AAC011832EC
:1014E00020F0CE010E9401AD03C0CE010E9417ADD5
:1014F000DF91CF911F91FF90EF900895EF92FF92AF
:10150000CF93DF93EB01209771F0883260F406C02F
:10151000CB01BE01A9010E9417AD05C00E94420A7D
:101520009C010097A9F7DF91CF91FF90EF9008956C
:10153000CF93DF93EB010E94420A009711F4798365
:101540006883DF91CF91089508952E982F9A08957A
:101550000895FC018785882391F482E08093B4028A
:101560002FB7F89480919D0390919E03946090937F
:101570009E0380939D032FBF2F982E9A08952D9A36
:101580002E9A2F9A08952E982F98DC019296ED911D
:10159000FC9193978081813069F486819781BC01A9
:1015A000660F771F660F771F680F791F8CE79CE027
:1015B0000E94F70B0895CF93DF93EC016091F7023F
:1015C0008CE79CE070E00E94F70B87EF92E090932D
:1015D0000E0380930D0381E090E090930C038093C1
:1015E0000B03909307038093060382E08093FA0233
:1015F000D093FC02C093FB0281E08093050310921C
:1016000009031092080380930A0380910F038B7FD4
:1016100080930F031092100388EA9AE090931203CC
:101620008093110388EF92E00E94D71FDF91CF9142
:101630000895DC018C918239A9F42091B502309192
:10164000B602F901EE0FFF1FE954FD4F11968D917F
:101650009C911297918380832F5F3F4F3093B60206
:101660002093B5020895089508950895CF93DF93C8
:1016700080E90E94350C80E98093820C1092830CE3
:1016800081E08093840C80E964EF71E043E00E9484
:101690000D0CCCE7DCE0CE010E94180CCE0160E01E
:1016A00070E00E94F70BDF91CF9108958EE16FE912
:1016B00072E00E947E0A85E16FE272E00E947E0A7B
:1016C00080E067E272E00E947E0A089583E092E083
:1016D00090938B0280938A0283EC9AE090938D0220
:1016E00080938C0287E892E00E94A91F8FE092E02D
:1016F000909393028093920285EA9AE090939502E8
:10170000809394028FE892E00E94A91F8BE192E0FF
:1017100090939B0280939A0284EA9AE090939D02B0
:1017200080939C0287E992E00E94A91F08950E947D
:10173000FF082F9A2E980E94560B0E94660B89EA8A
:101740009AE09093B3028093B20280EA92E00E9402
:1017500059710E94360B08958091B402882319F0C4
:10176000843071F406C00E94970B81E08093B4022C
:10177000089580E090E00E94DB0A86E08093B40246
:10178000089580E28CBB0895ED9A08958DB3ED988D
:10179000807208952C9A08952C980895179A0895A8
:1017A000179808952C98249A179A0F9A6D987598FF
:1017B0000895EAE6F0E080818C608083089584E0FB
:1017C000089580E008951F9310E00E94ED1681E8CF
:1017D0000E94D616812F0E94D616182F0E94EB1653
:1017E000183099F71F9108950E94EA040895FC01AA
:1017F0008781833018F02EEF3FEF0DC0868180384F
:1018000029F0803919F02FEF3FEF05C0CF010E947A
:10181000E41020E030E0C9010895483018F02DEFC1
:101820003FEF04C00E94B21020E030E0C9010895EB
:10183000CF93DF93EC018F81833018F02EEF3FEFD1
:1018400010C08E81803829F0803919F02FEF3FEFDA
:1018500008C0CE010E941810CE010E94551020E051
:1018600030E0C901DF91CF910895803829F08039A7
:1018700019F02FEF3FEF04C00E943E1020E030E04F
:10188000C90108958F929F92AF92BF92CF92DF923B
:10189000EF92FF920F930E947B114B015C0120910C
:1018A0001D0330E040E050E060E070E080E090E058
:1018B00000E20E948005282939294A295B290F91D5
:1018C000FF90EF90DF90CF90BF90AF909F908F9060
:1018D0000895CF93DF93EC010097D1F08091180326
:1018E000909119038C179D0719F460E070E008C00F
:1018F00088E193E0BE010E94F30FBC01009741F024
:1019000088E193E0AE010E94D50F20E030E002C0F4
:101910002FEF3FEFC901DF91CF910895CF93DF9370
:10192000EC01009771F0E0911803F091190306C0E3
:10193000EC17FD07D9F00190F081E02D3097C1F749
:1019400006C02FEF3FEFC901DF91CF9108950E94AC
:1019500057139B01AC01198218826A837B838C83A5
:101960009D8388E193E0BE010E94860F20E030E075
:10197000EACFEF92FF920F931F93CF93DF9318C09C
:1019800088E193E060E070E0AE010E94D50F8A85A7
:10199000882359F4EA82FB820C831D8388E193E05B
:1019A000BE01A80197010E94860FEB85FC85099571
:1019B0008091180390911903892BD9F00E94571335
:1019C0007B018C01C0911803D09119038A819B81FE
:1019D000AC81BD81A8019701281B390B4A0B5B0B19
:1019E0008E819F81A885B985281739074A075B072B
:1019F00038F6CDB7DEB7E6E00C948EAC382FE82F82
:101A0000E650E230B0F4F0E0EE0FFF1FE45DFC4F73
:101A100080819181892B69F02DB381E090E002C033
:101A2000880F991F3A95E2F7282B2DBB20E030E074
:101A300002C02FEF3FEFC901089587E080931A039A
:101A400080E98093BC0080913F03806280933F03D4
:101A50002FB7F89480919D0390919E03826090939C
:101A60009E0380939D032FBF089580911A038823BE
:101A700019F42FEF3FEF08C010928F0C10928E0CCC
:101A800010921A0320E030E0C901089580911A03F2
:101A9000823041F080911A03833021F080911A0343
:101AA000843021F48091890C880F08C080911A033A
:101AB000853051F48091890C880F8F5F8093BB0033
:101AC00085E88093BC0008950E941D0D08959091B3
:101AD000880C8091870C981790F48091880CE09185
:101AE000850CF091860CE80FF11D90818F5F80933B
:101AF000880C9093BB0085E88093BC00089586E035
:101B000080931A0384E98093BC0080913F03806234
:101B100080933F032FB7F89480919D0390919E038B
:101B2000826090939E0380939D032FBF08958091C0
:101B30008A0C90918B0CA0918C0CB0918D0C209103
:101B4000880C21502093880C2091880C220F220FA2
:101B5000220F04C0B695A795979587952A95D2F739
:101B60008093BB0085E88093BC008091880C88231B
:101B700059F480911A03823021F484E080931A038F
:101B8000089585E080931A03089580911A038430A4
:101B900019F40E94670D089580911A03823021F094
:101BA00080911A03833019F40E94970D0895809153
:101BB0001A03853021F485EA8093BC0008950E94C1
:101BC0001D0D089580911A03853099F48091870C3A
:101BD000813021F48091BC008F7B03C08091BC00D8
:101BE00080648093BC008091BC0085688093BC00B9
:101BF00008950E941D0D0895982F80911A03853035
:101C000029F58091880CE091850CF091860CE80F05
:101C1000F11D90838F5F8093880C2091880C8091B8
:101C2000870C30E090E001972817390724F4809161
:101C3000BC00806403C08091BC008F7B8093BC009B
:101C40008091BC0085688093BC0008950E941D0DA2
:101C50000895982F80911A03853021F58091880C82
:101C6000E091850CF091860CE80FF11D90838F5F59
:101C70008093880C86E080931A0384E98093BC00EB
:101C800080913F03806280933F032FB7F894809147
:101C90009D0390919E03826090939E0380939D0389
:101CA0002FBF08950E941D0D0895E0918E0CF091B4
:101CB0008F0C309791F080911A03863041F4809117
:101CC000BC0084FDFCCF81E080931A0304C081E056
:101CD00080931A0380E00995089581E080931A03A8
:101CE0000895FC0180911B03882319F02EEF3FEF2C
:101CF00058C0309709F453C0848195812081318187
:101D0000820F931F8150904108F049C081E0809379
:101D10001B037093970C6093960CA0E9BCE086E0DF
:101D200001900D928150E1F7F999FECF20E030E06B
:101D300017C0E091920CF091930CE20FF31F809189
:101D4000900C9091910C01969093910C8093900C33
:101D5000019792BD81BDF89A80B580832F5F3F4F78
:101D60008091940C9091950C2817390710F31092DC
:101D7000950C1092940C80913E03806180933E03F9
:101D80002FB7F89480919D0390919E038260909369
:101D90009E0380939D032FBF20E030E002C02FEF11
:101DA0003FEFC901089590E080911B03813009F451
:101DB00091E0892F08958091940C9091950C892B36
:101DC00051F410921B03E091960CF091970C309710
:101DD00019F1099508956091900C7091910C6F5FC5
:101DE0007F4F7093910C6093900C61507040E09124
:101DF000920CF091930C4191F093930CE093920C20
:101E00008CE00E9480148091940C9091950C019725
:101E10009093950C8093940C0895CF93DF93FC01DD
:101E200080911B03882319F02EEF3FEF6BC0309792
:101E300009F466C08481958120813181820F931FCE
:101E40008150904108F05CC081E080931B03A0E9C1
:101E5000BCE086E001900D928150E1F77093970C01
:101E60006093960C672B19F4C0E0D0E03BC0609102
:101E7000900C7091910C6F5F7F4F7093910C6093F9
:101E8000900C61507040E091920CF091930C419154
:101E9000F093930CE093920C8CE00E94801480915C
:101EA000940C9091950C01979093950C8093940CC1
:101EB00024C06091900C7091910C6F5F7F4F709374
:101EC000910C6093900C61507040E091920CF091F5
:101ED000930C4191F093930CE093920C84E00E9458
:101EE000801421968091940C9091950CC817D90775
:101EF00000F3F999FECF10921B0320E030E002C0FE
:101F00002FEF3FEFC901DF91CF910895A0E0B0E03E
:101F1000ECE8FFE00C946EAC8C01EB0169017A01F6
:101F2000FC01608171816115710589F1FB01AA24B1
:101F3000BB24268137814085518582819381A4818C
:101F4000B581280F391F4A1F5B1F2C193D094E0907
:101F50005F092F3F8FEF38078FEF48078FE758074C
:101F600048F48E819F81A885B985281739074A07CB
:101F70005B0738F4808191815F01009761F0FC017B
:101F8000D8CFE617F70731F4F983E883F801D18356
:101F9000C08306C0CF01F501D183C08399838883B4
:101FA000CDB7DEB7EAE00C948AACCF93DF93EC01B7
:101FB000DB01FA01888199814817590739F480813A
:101FC000918111821082888399830AC080819181D6
:101FD00011969C938E93118210828C9111969C91F4
:101FE000DF91CF910895FC010190F081E02D06C0B2
:101FF000808191818617970719F0FC013097C1F70E
:10200000CF01089580911C03813051F482E08093C8
:102010001C03E091980CF091990C309709F0099508
:1020200008952FB7F894FC01718360832FBF089542
:10203000FC018681803819F0803969F406C084E299
:1020400090E09183808385E005C08DE290E09183EC
:10205000808383E08283278130E083E090E0821BED
:10206000930B880F991F8383868190E00896220F37
:10207000331F820F931F9583848308950F931F93BB
:10208000082F10E0C801049660E070E00E94111073
:10209000C801069660E070E00E941110F8011082FD
:1020A00080E181831F910F910895DC011696EC91D8
:1020B0001697F0E0228117963C91179787E090E001
:1020C000831B910961E070E0AB0102C0440F551F12
:1020D0008A95E2F7242B2283ED91FC9111972081C0
:1020E00017963C91179712968C91129790E0830F58
:1020F000911DAB0102C0440F551F8A95E2F7242BB6
:1021000020831696EC911697F0E0408113968C91FF
:10211000139790E001969B01082E02C0220F331FF7
:102120000A94E2F70197422B9B0102C0220F331F52
:102130008A95E2F7422B408318968C91189781304C
:1021400081F41696EC911697F0E0908113960C901E
:1021500002C0660F771F0A94E2F7862F80958923C5
:1021600080830895DF92EF92FF920F931F937B017C
:10217000D42E082F10E0F8018181887F8183C80167
:1021800006960E941110C8010496B7010E94111012
:10219000C801089660E070E00E941110C8010A961C
:1021A00060E070E00E941110C8010C9660E070E0E1
:1021B0000E941110F80181818D2981831F910F9157
:1021C000FF90EF90DF900895FC01848195810E943B
:1021D000111008958FB7F8941092250310922403DC
:1021E000109223038FBF0895809170008C7F80939D
:1021F00070008091B60080628093B6001092B200A9
:102200001092B0001092B1001092B3008091B6000D
:1022100090E08F719070892BC9F783E087BB87E0CE
:102220008093B10080917000816080937000089568
:102230008091B60090E08F719070892BC9F78091E2
:1022400070008C7F809370008091B100887F8093B4
:10225000B10083B5826083BD8091B60090E08F713C
:102260009070892BC9F78091B6008F7D8093B6005E
:102270000895EF92FF920F931F937B018C01609161
:10228000B200862F90E0809590959C01442737FD01
:102290004095542F3070407050702E153F05400708
:1022A000510798F4D801C701821B930BA40BB50BFF
:1022B0009C01AD01BB27A52F942F832F909324035E
:1022C000809323032093250311C08091B60090E0F2
:1022D0008F719070892BC9F76E0D6093B30082E007
:1022E00087BB809170008260809370001F910F9176
:1022F000FF90EF900895EF92FF920F931F936FB7A7
:10230000F89470911E032091B20084E48093B4008D
:102310008091B60090E08F719070892BC9F7B899C1
:1023200004C030E040E050E00AC08091B200282FA5
:1023300030E040E050E021503F4F4F4F5F4F6FBFC4
:102340008FEF789FC0011124AA2797FDA095BA2F7F
:10235000820F931FA41FB51F9C01AD0175E0220FD2
:10236000331F441F551F7A95D1F77C018D0162E020
:1023700016950795F794E7946A95D1F72E0D3F1DB2
:10238000401F511FE0901F03F09020030091210394
:10239000109122032E0D3F1D401F511F281B390B8A
:1023A0004A0B5B0BB901CA011F910F91FF90EF908F
:1023B000089560E270E080E090E008952FB7F8940F
:1023C00060911E0310921E032FBF70E080E090E02A
:1023D00020E43FE140E050E00E9405AC20911F0363
:1023E000309120034091210350912203260F371F83
:1023F000481F591F20931F0330932003409321034C
:1024000050932203261737074807590728F480916D
:102410001D038F5F80931D0308951F920F920FB6C7
:102420000F920BB60F9211242F933F934F935F930C
:102430006F937F938F939F93AF93BF93EF93FF938C
:10244000809170008D7F80937000109225038091A1
:10245000650380FF03C080E00E94501580916503F2
:1024600082FF11C080913B03816080933B032FB7B3
:10247000F89480919D0390919E03826090939E03B7
:1024800080939D032FBFFF91EF91BF91AF919F91DB
:102490008F917F916F915F914F913F912F910F900D
:1024A0000BBE0F900FBE0F901F9018958091650383
:1024B00080FF0FC081E00E945015809170008D7FD9
:1024C000809370000E94EA10809165038B7F809357
:1024D000650308951F920F920FB60F920BB60F92DD
:1024E00011242F933F934F935F936F937F938F9319
:1024F0009F93AF93BF93EF93FF93809123039091AA
:102500002403892BA1F5809125038823E9F4809188
:10251000650380FF03C080E00E9450158091650331
:1025200082FF34C080913B03816080933B032FB7CF
:10253000F89480919D0390919E03826090939E03F6
:1025400080939D032FBF22C08091B60090E08F71D1
:102550009070892BC9F7809125038093B30082E0A6
:1025600087BB8091700082608093700009C0809169
:1025700023039091240301979093240380932303D2
:102580008091650380FF02C00E94DC1480911E03CD
:102590008F5F80931E0380913B03826080933B0397
:1025A0002FB7F89480919D0390919E038260909341
:1025B0009E0380939D032FBFFF91EF91BF91AF9139
:1025C0009F918F917F916F915F914F913F912F914B
:1025D0000F900BBE0F900FBE0F901F90189580E1CB
:1025E00097E29093A9008093A800E1EAF0E088E0E8
:1025F0008083808182608083E2E7F0E08081826076
:1026000080830895209128033091290340912A0363
:1026100050912B03260F371F481F591F2093280363
:102620003093290340932A0350932B0380913F0357
:10263000806880933F032FB7F89480919D03909119
:102640009E03826090939E0380939D032FBF089505
:102650002FB7F89460912703109227032FBF70E0E3
:1026600080E090E02AE030E040E050E00E9405ACDD
:10267000209128033091290340912A0350912B0384
:10268000260F371F481F591F209328033093290313
:1026900040932A0350932B032617370748075907FF
:1026A00028F4809126038F5F8093260308950E946B
:1026B0002813609128037091290380912A03909137
:1026C0002B0308951F920F920FB60F9211242F9390
:1026D0008F939F93809127038F5F8093270380912F
:1026E0003F03806880933F032FB7F89480919D0348
:1026F00090919E03826090939E0380939D032FBFD1
:102700009F918F912F910F900FBE0F901F90189552
:102710002DB141E050E0082E02C0440F551F0A942D
:10272000E2F7942F909592239DB99EB1942B9EB978
:10273000EAE6F0E090818450880F23E030E0082E34
:1027400002C0220F331F0A94E2F720952923208329
:10275000908170E06370707002C0660F771F8A9579
:10276000E2F7962B90838CB3482B4CBB08951F92B5
:102770000F920FB60F920BB60F9211242F933F9327
:102780004F935F936F937F938F939F93AF93BF9379
:10279000EF93FF930E945612E0912E03F0912F03C6
:1027A000309709F00995FF91EF91BF91AF919F91FB
:1027B0008F917F916F915F914F913F912F910F90EA
:1027C0000BBE0F900FBE0F901F9018951F920F9287
:1027D0000FB60F920BB60F9211242F933F934F9386
:1027E0005F936F937F938F939F93AF93BF93EF9379
:1027F000FF930E945612E0912C03F0912D03309725
:1028000009F00995FF91EF91BF91AF919F918F9141
:102810007F916F915F914F913F912F910F900BBEE0
:102820000F900FBE0F901F9018951F920F920FB62A
:102830000F920BB60F9211242F933F934F935F93F8
:102840006F937F938F939F93AF93BF93EF93FF9378
:102850008091B90090E0887F90708832910559F19D
:10286000893291058CF48031910511F18131910506
:102870002CF4009719F1089781F51AC08831910559
:10288000D1F0809751F51AC088349105B9F0893498
:1028900091053CF48033910589F080349105E9F489
:1028A00010C08035910581F088359105B1F411C0D3
:1028B0000E94460D12C00E94C50D0FC00E941D0D42
:1028C0000CC00E94E20D09C08091BB000E94FC0D6B
:1028D00004C08091BB000E94290EFF91EF91BF912F
:1028E000AF919F918F917F916F915F914F913F91A8
:1028F0002F910F900BBE0F900FBE0F901F90189549
:10290000982FF999FECF07B600FCFDCF72BD61BDCF
:1029100040BD8FB7F8949FBBF99A8FBF08951F925F
:102920000F920FB60F9211242F938F939F93FB98C2
:1029300080913E03806180933E032FB7F89480918D
:102940009D0390919E03826090939E0380939D03CC
:102950002FBF9F918F912F910F900FBE0F901F90BF
:1029600018950E947B1120913003309131034091E2
:10297000320350913303621B730B840B950B10923F
:1029800030031092310310923203109233030E94ED
:1029900002138091A10082608093A1000E94E30B4A
:1029A0008091650381FD07C0E0915603F0915703C4
:1029B000309709F0099508950E94C319882309F4F6
:1029C0004EC08091650382FD03C02FEF3FEF66C0CC
:1029D00024982C988091B60090E08F719070892B8C
:1029E000C9F78091700081FD0AC08FEF8093B3001A
:1029F0008091B60090E08F719070892BC9F780911B
:102A0000B000806C8093B0008091B60090E08F7130
:102A10009070892BC9F78091B10080688093B100D4
:102A20008091B60090E08F719070892BC9F78091EA
:102A3000B0008F738093B0008091B60090E08F71EA
:102A40009070892BC9F78091B00080688093B000A6
:102A50008091B60090E08F719070892BC9F78091BA
:102A600065038160809365038091B60090E08F716B
:102A70009070892BC9F78091400380688093400350
:102A80002FB7F89480919D0390919E03826090935C
:102A90009E0380939D032FBF20E030E0C90108957D
:102AA000909165038170880F9C7F982B90936503AC
:102AB0000E94C319882311F42C980EC024982C98D6
:102AC0008091B0008F738093B0008091B60090E049
:102AD0008F719070892BC9F7249A80913F0384608D
:102AE00080933F032FB7F89480919D0390919E03AC
:102AF000826090939E0380939D032FBF08958091E1
:102B0000650380FF5CC08091A1008D7F8093A10050
:102B10008091300390913103A0913203B09133033F
:102B20000097A105B10551F40E947B116093300319
:102B30007093310380933203909333038091450364
:102B40008111EC9AF999FECF0E94C3198823B1F440
:102B50002C9A249A8091650382FF05C087E083BF89
:102B6000889513BE22C00E94181185E083BF889506
:102B700013BE0E94F4100E94BA1617C09091720002
:102B80002091BC0030917A00109272001092BC002B
:102B900010927A00249A87E083BF889513BE9093A1
:102BA00072002093BC0030937A0084E48093B400D8
:102BB0008091B60090E08F719070892BC9F70895CD
:102BC0001F920F920FB60F920BB60F9211242F93F4
:102BD0003F934F935F938F939F93EF93FF938091D6
:102BE0003403E0913503F0913603882351F480914A
:102BF00037039091380320917900E80FF91F208363
:102C00000FC0809137039091380340917800509124
:102C100079009C01220F331FE20FF31F5183408381
:102C200001969093380380933703209137033091B6
:102C300038038091390390913A0328173907B1F48A
:102C400080917A00877F80937A0080913E0388602C
:102C500080933E032FB7F89480919D0390919E033B
:102C6000826090939E0380939D032FBFFF91EF910D
:102C70009F918F915F914F913F912F910F900BBE3C
:102C80000F900FBE0F901F901895A0E0B0E0EBE4FE
:102C9000F6E10C946AAC00E8C2E8DBE810E092E8E8
:102CA000C92E9BE8D92EE12CF12C82E8A82E8BE8C6
:102CB000B82E0E94F204BC018BE86338780718F143
:102CC0009E0140E050E0CB01A0E0B0E082589B487C
:102CD000A040B040281739074A075B074CF4123070
:102CE00039F480916600815080936600000036C000
:102CF000809166008150809366000000EB01C2580D
:102D0000DB4811E028C08BE86238780739F1CE0142
:102D1000A0E0B0E09B0140E050E036014701621ABC
:102D2000730A840A950A86159705A805B9054CF417
:102D3000113039F4809166008F5F80936600000047
:102D40000DC0809166008F5F809366000000E501F2
:102D5000C61BD70B12E0015009F0ABCFCDB7DEB7E1
:102D6000EEE00C9486AC0E94C319882311F40E94F3
:102D700045160895CF93DF93C0E0D0E088EC0E9421
:102D8000EA04219683E1C838D807C1F70E94B31638
:102D9000DF91CF910895289A23982B98229A219A0F
:102DA000209A80E58CBD81E08DBD08958EBD000028
:102DB0000000000000000000000000000000000013
:102DC0000000000000000000000000000000000003
:102DD0008DB58EB50895289A089528980895809104
:102DE0003B0380FF0BC09FB7F89480913B038E7F1D
:102DF00080933B039FBF0E943B1B77C080913B03A6
:102E000081FF0BC09FB7F89480913B038D7F809327
:102E10003B039FBF0E94DE1168C080913D0387FF86
:102E20000BC09FB7F89480913D038F7780933D034B
:102E30009FBF0E94431959C080913E0383FF0BC07E
:102E40009FB7F89480913E03877F80933E039FBF96
:102E50000E9402104AC080913E0384FF0BC09FB7BE
:102E6000F89480913E038F7E80933E039FBF0E9423
:102E7000DB0E3BC080913F0382FF0BC09FB7F894ED
:102E800080913F038B7F80933F039FBF0E94B114CB
:102E90002CC080913F0385FF0BC09FB7F8948091B1
:102EA0003F038F7D80933F039FBF0E94550E1DC03F
:102EB00080913F0387FF0BC09FB7F89480913F0339
:102EC0008F7780933F039FBF0E94B90C0EC0809103
:102ED000400387FF0AC09FB7F894809140038F7723
:102EE000809340039FBF0E947F1580913B038823FE
:102EF000A1F480913C03882381F480913D038823D1
:102F000061F480913E03882341F480913F0388233C
:102F100021F480914003882361F02FB7F8948091C9
:102F20009D0390919E03826090939E0380939D03E6
:102F30002FBF08959091480321E030E002C0220F96
:102F4000331F8A95E2F7922B9093480380913D03BB
:102F5000806880933D032FB7F89480919D039091F2
:102F60009E03826090939E0380939D032FBF0895DC
:102F7000CF93DF93E82FF0E0CF01805C9040A3E097
:102F800095958795AA95E1F7482F50E0EA01CC0F77
:102F9000DD1FCF5BDC4FA881B981109721F48181BF
:102FA0008F7781836CC090968C91909783FD67C0DA
:102FB0005496ED91FC91559784FF09C06083E88198
:102FC000F981848995890196958B848B58C0EF2B64
:102FD00009F455C01696CD91DC91179716968D91F0
:102FE0009C911797019617969C938E931697169619
:102FF0002D913C91179756968D919C915797281734
:10300000390721F417961C921E92169716962D9149
:103010003C91179714968D919C9115972817390715
:1030200029F41796DC93CE93169729C05496ED9108
:10303000FC915597EC0FFD1F608318968D919C9124
:103040001997019619969C938E931897440F551FC4
:103050004F5B5C4FEA01E881F98180A180FF0FC0DE
:103060008385883C61F418962D913C911997868947
:103070009789969587958217930708F45D9ADF9153
:10308000CF910895E82FF0E0E05CF04083E0F59503
:10309000E7958A95E1F7F0E0EE0FFF1FEF5BFC4F3D
:1030A0000190F081E02D3097C1F04FB7F894228164
:1030B0003381808191814FBF2817390711F481E056
:1030C0008287828D938D892B11F4118E108E068C40
:1030D000F78DE02D309709F009950895E82FF0E07D
:1030E000E05CF04023E0F595E7952A95E1F7F0E004
:1030F000EE0FFF1FEF5BFC4F0190F081E02D30974A
:1031000091F080A1887179F48FB7F894208531858A
:103110008FBF2115310539F0048CF58DE02D3097E6
:1031200011F0C9010995089580EC0E944218089594
:1031300080EC0E946E18089588EC0E944218089551
:1031400088EC0E946E180895CF93DF93282FA82F44
:10315000B0E0CD01805C904033E0959587953A953D
:10316000E1F7C82FD0E0FE01EE0FFF1FEF5BFC4F31
:10317000608171816115710509F476C0283CD1F533
:10318000FB0180A1282F81FD02C030E009C08CB175
:1031900090E0E4E096958795EA95E1F7382F317055
:1031A00020FD02C080E008C089B190E054E096950F
:1031B00087955A95E1F78170332311F48823D1F074
:1031C0008AE090E0A0E0B0E080934F03909350033A
:1031D000A0935103B093520381E08093530387E39C
:1031E00099E1909355038093540389E493E00E94FE
:1031F0008E0C3AC02FB7F894FB01828193814081F5
:1032000051812FBF8417950749F1808D918D840FCF
:10321000951FFC0190819A012F5F3F4F8C91806434
:103220008C9316969C931697CC0FDD1FCF5BDC4FCB
:10323000E881F981828D938D2817390711F420E0F8
:1032400030E011968C911197806211968C938FB714
:10325000F894FB01318320838FBF06C011968C91B7
:103260001197806411968C93DF91CF91089588EC2B
:103270000E94A418089588EC0E94A418089580EC78
:103280000E94A4180895CF92DF92FF920F931F938C
:10329000DF93CF9300D00F92CDB7DEB781E0898363
:1032A000FF2400E010E0F2E0CF2ED12CCC0EDD1E8A
:1032B0009091480389818923B9F02FB7F8949091B0
:1032C000480389818927809348032FBF6F2D70E0C1
:1032D000660F771F6D5A784FC60142E050E00E949A
:1032E00001ADEA81FB810995F3948981880F898377
:1032F0000F5F1F4F06301105D9F60F900F900F90FA
:10330000CF91DF911F910F91FF90DF90CF900895A3
:10331000ADE0B0E0EEE8F9E10C9476ACFC0100978A
:1033200019F42FEF3FEF2AC08481958190935703C2
:103330008093560380819181A281B3818F83988786
:10334000A987BA8781E08B871D861C86CE010196EE
:103350000E94641B2FEF8F3F920771F08D5F9F4F8C
:1033600059F00E94DC148F5F9F4F19F020E030E08D
:1033700005C02DEF3FEF02C02EEF3FEFC9012D96A4
:10338000E2E00C9492AC809166030895F999FECF27
:103390009FB7F894E0E0F0E089E0809357008491D3
:1033A0009FBF8F70823019F41092660303C081E0D2
:1033B0008093660380916603882369F48FB7F8943D
:1033C0005F9350E85093610050E0509361005F912B
:1033D0008FBF0E94BA1608951F920F920FB60F92D8
:1033E0000BB60F9211242F933F934F935F936F93DC
:1033F0007F938F939F93AF93BF93EF93FF930E941D
:103400005612809145038111EC98E0914603F091AA
:103410004703309709F00995FF91EF91BF91AF9164
:103420009F918F917F916F915F914F913F912F91DC
:103430000F900BBE0F900FBE0F901F9018951F920C
:103440000F920FB60F920BB60F9211242F933F934A
:103450004F935F936F937F938F939F93AF93BF939C
:10346000EF93FF938091C8006091CE008C7131F48E
:1034700088EC0E94B81785E00E949A17FF91EF919F
:10348000BF91AF919F918F917F916F915F914F917C
:103490003F912F910F900BBE0F900FBE0F901F907A
:1034A00018951F920F920FB60F920BB60F92112420
:1034B0002F933F934F935F936F937F938F939F933C
:1034C000AF93BF93EF93FF93E9ECF0E080818F7BA4
:1034D000808384E00E949A17FF91EF91BF91AF9192
:1034E0009F918F917F916F915F914F913F912F911C
:1034F0000F900BBE0F900FBE0F901F9018951F924C
:103500000F920FB60F920BB60F9211242F933F9389
:103510004F935F936F937F938F939F93AF93BF93DB
:10352000EF93FF93E9ECF0E080818F7D808383E06F
:103530000E949A17FF91EF91BF91AF919F918F9148
:103540007F916F915F914F913F912F910F900BBEA3
:103550000F900FBE0F901F9018951F920F920FB6ED
:103560000F920BB60F9211242F933F934F935F93BB
:103570006F937F938F939F93AF93BF93EF93FF933B
:103580008091C0006091C6008C7131F480EC0E9483
:10359000B81782E00E949A17FF91EF91BF91AF9107
:1035A0009F918F917F916F915F914F913F912F915B
:1035B0000F900BBE0F900FBE0F901F9018951F928B
:1035C0000F920FB60F920BB60F9211242F933F93C9
:1035D0004F935F936F937F938F939F93AF93BF931B
:1035E000EF93FF93E1ECF0E080818F7B808381E0BB
:1035F0000E949A17FF91EF91BF91AF919F918F9188
:103600007F916F915F914F913F912F910F900BBEE2
:103610000F900FBE0F901F9018951F920F920FB62C
:103620000F920BB60F9211242F933F934F935F93FA
:103630006F937F938F939F93AF93BF93EF93FF937A
:10364000E1ECF0E080818F7D808380E00E949A171A
:10365000FF91EF91BF91AF919F918F917F916F916A
:103660005F914F913F912F910F900BBE0F900FBE26
:103670000F901F9018959091650392FF24C0809140
:1036800062038823B1F4E0916303F09164033097FF
:1036900009F009958091650382FF15C060915E0372
:1036A00070915F0380916003909161030E943911D2
:1036B00008959B7F90936503E0916303F091640309
:1036C000309709F009950895CF93DF93EC010097A7
:1036D00019F42FEF3FEF2EC00E94D9112E813F81A8
:1036E000488559850E9405AC28EE33E040E050E063
:1036F0000E9444ACB901CA016115710581059105AB
:1037000019F42EEF3FEF16C02091650322FF03C08E
:103710002DEF3FEF0FC0246020936503A8E5B3E0D1
:10372000FE012DE001900D922150E1F70E94391128
:1037300020E030E0C901DF91CF910895FC010097AE
:10374000A9F086EA858B8085882381F08F3F71F010
:103750008385833031F48489882341F08F3F19F4C5
:1037600005C0813019F4158A81E0089580E008953C
:10377000809183038F5F80938303815008958091AC
:103780006B03815080936B038091A40C833021F4F0
:1037900081E08093A40C08951092A40C0895FC017C
:1037A000A081B18190934E0D80934D0D10923A0DF2
:1037B00010923B0D8091920380933F0D53962D9173
:1037C0003C915497E091AA0CF091AB0CC901BF0158
:1037D0000E9430AC462F60933D0DC901BF010E948D
:1037E00030AC892B19F04F5F40933D0D8FEF90E087
:1037F0000090510B02C0880F991F0A94E2F7809540
:103800008E7F80933C0D0E94B81B80933E0D0895DF
:10381000FC01878983FD03C080E090E0089520E0EB
:10382000838994898036910508F421E081E0282776
:10383000822F08952091A20C3091A30CFC01EC5B27
:10384000FF4F80819181821B930B63E270E00E94A5
:1038500030AC83E2689FB0011124620F731FCB016B
:103860000895FC01009729F48091740390917503E9
:1038700008958081918108951F93182FA0E0B0E0F2
:1038800007C01396ED91FC9114978081181731F0C1
:10389000CD010E94311CDC01009799F7CD011F91E9
:1038A0000895FF920F931F93082FA0919A0C4091B7
:1038B0009F0C5091A00C90E060E070E081C0FA0194
:1038C000E60FF71F9B01265A3F4F878180FD76C088
:1038D000EC5BFF4F11821082E454F0400230F1F0B3
:1038E000023018F0033009F06EC090919E0C809168
:1038F0009C0C981708F067C09F5F90939E0C1382F2
:10390000148215821682E0919F0CF091A00CE60FB4
:10391000F71F80858F70808712823BC090919D0C2D
:1039200080919B0C981708F04EC0F090A10CE0918C
:10393000A20CF091A30C10E040E050E024C0DF01A5
:103940008081B3969A012D5D3F4F8823D1F49F5F0C
:1039500090939D0C21E02C93E0919F0CF091A00C92
:10396000E60FF71FEC5BFF4F8091A20C9091A30C28
:10397000840F951F489691838083E454F0402283FE
:1039800004C01F5FA9011F15D0F28091A10C8117FF
:10399000D1F0E0919F0CF091A00CE60FF71F80850D
:1039A000807F8087000F0160078311821082209141
:1039B0009F0C3091A00C260F371F07C09F5FB901E5
:1039C0009A1708F47CCF20E030E0C9011F910F91D5
:1039D000FF900895CF93DF9320919F0C3091A00C1E
:1039E000821B930B6AE570E00E9430AC8AE5689F09
:1039F000E0011124F901EC0FFD1F8781869590E00D
:103A00008230910569F08330910514F0039731F508
:103A100080919E0C882311F1815080939E0C1EC0D2
:103A200080919D0C882319F0815080939D0C2091EA
:103A3000A20C3091A30CEC5BFF4F80819181821B23
:103A4000930B63E270E00E9430AC83E2689FF00168
:103A50001124E20FF31F808181111082E0919F0CED
:103A6000F091A00CEC0FFD1F87818E7F8783DF9183
:103A7000CF9108952091A10CE091A20CF091A30C9C
:103A800090E005C08081B3968823C9F49F5F9217A8
:103A9000C8F320919A0CE0919F0CF091A00C90E05B
:103AA00006C08781E65AFF4F80FD09C09F5F9217CD
:103AB000C0F38091A40C882319F081E0089581E07F
:103AC000089521E030E002C0220F331F8A95E2F70B
:103AD00080919B03822B80939B032FB7F894809156
:103AE0009D0390919E03806290939E0380939D031B
:103AF0002FBF0895CF93DF93EC01FA01009721F1D6
:103B00006B8F4115510549F080819181A281B3816C
:103B10008C8F9D8FAE8FBF8F04C01C8E1D8E1E8E0E
:103B20001F8EE98DFA8D309719F0CE014B960995CD
:103B3000CE010E94081C882339F010924E0D10927D
:103B40004D0D81E00E94611DDF91CF910895A2E0AB
:103B5000B0E0EDEAFDE10C9476AC40919C0320913D
:103B60009B03522F642F30E06F5F683008F060E0F5
:103B7000C901062E02C0969587950A94E2F780FF48
:103B80001CC060939C0381E090E0062E02C0880F69
:103B9000991F0A94E2F7582750939B0370E0660F31
:103BA000771F615A784FCE01019642E050E00E94A3
:103BB00001ADE981FA81099504C04617A9F6409341
:103BC0009C0380919B03882361F02FB7F894809128
:103BD0009D0390919E03806290939E0380939D032A
:103BE0002FBF2296E2E00C9492ACFF920F931F93AA
:103BF0008C01F62E80E793E00E940C6CD80117969A
:103C0000FC9217971596ED91FC911697C8010796AF
:103C100009958091700390917103892B19F080E0D0
:103C20000E94611D1F910F91FF90089520916B03D9
:103C30002F5F20936B030E94CA460895CF92DF92B4
:103C4000EF92FF921F93CF93DF936C01EB01C45B64
:103C5000DF4F83E79FE1998388832C9782E08993E4
:103C6000F60183819481998388832796808D899337
:103C7000199281E089938883CB54D040E090AA0CBC
:103C8000F090AB0CC6010E94081C8823E1F1209142
:103C90003A0D622F80913D0D90E0019730E028179A
:103CA000390711F01E2D0AC02E9DC0012F9D900DC9
:103CB0003E9D900D1124F6011389181B40914F0D64
:103CC0005091500D405E5F4F862F90E09C012E9DDD
:103CD000C0012F9D900D3E9D900D1124F601258968
:103CE0003689280F391FCA01B901412F50E00E94BF
:103CF00017ADCD5BDF4F165F199380914F0D9091FB
:103D0000500D469609C0CD5BDF4FF6018389885F71
:103D1000899385899689089799838883C454D0406C
:103D2000CC5BDF4FE880F980C454D040F70180813C
:103D3000982F9C7E9083F60123813481807E275FBB
:103D40003F4F08F08860F7018083F7012081922FB0
:103D50009F7D9083F601878982FD04C02F79F7014A
:103D6000208316C09064F70190831885107F11603E
:103D70001887C6010E94081C1F70882319F08091C3
:103D80003F0D02C0809192038295807F182B188787
:103D9000C6010E94081CF70190818823A1F0906859
:103DA000908390913A0D8085992339F48C7F8160BE
:103DB000808780913D0D818709C08C7F8260F701EB
:103DC0008087918703C09F77F7019083F6018585EF
:103DD000F7018183F60180899189F70193838283BA
:103DE000F60186859785F70195838483F60182899C
:103DF000F7018683C6010E94081C882319F0809170
:103E00003E0D02C00E94B81BF7018783CE010996C0
:103E10000E94161E80E0DF91CF911F91FF90EF90DE
:103E2000DF90CF900895E0914D0DF0914E0D80817F
:103E30009181BF010E941E1E08958EE29DE0909325
:103E4000010D8093000D22E02093FC0C2091B30C17
:103E50003091B40C3093FE0C2093FD0C2BE020939A
:103E6000FF0C1092040D1092050D21E02093060D19
:103E70002093070D2FEB3BE13093090D2093080DA4
:103E800022E820932E0D2091BA0C20932F0D209123
:103E9000B60C3091B70C3093310D2093300D20913A
:103EA000B80C3091B90C3093330D2093320D209122
:103EB000B50C2093340D2091BB0C2093350D22E0DE
:103EC0002093360D2091B10C2093370D2091B20C28
:103ED0002093380D2091390D2093170D895690406D
:103EE0000E94161E0895BC0180916B03815080933F
:103EF0006B0389E693E00E94F46B81E00E94611DF0
:103F000008950F931F93BC010091700310917103EA
:103F100080E793E00E94F46B012B19F480E00E948B
:103F2000611D1F910F910895FC0185EC8283CF01E3
:103F30000E94811F0895FC018AE88283CF010E94BC
:103F4000811F0895FC0189E18283CF010E94811FB6
:103F50000895CF93DF93EC010097E9F086EA8F8311
:103F6000EB81FC813097B9F09081892F8150803F9F
:103F700090F4892F0E943C1C892B69F420E08D81EC
:103F80009E81892B09F421E02A8384E793E0BE0116
:103F90000E94F46B1F82DF91CF910895BC018CE6E3
:103FA00093E00E94F46B81E00E94611D0895BC01C2
:103FB0008EE693E00E94F46B81E00E94611D0895FB
:103FC000A3E0B0E0E6EEFFE10C9470AC6C01675F3B
:103FD0007F4F7B836A838BE0BE016F5F7F4F0E94C0
:103FE000630A8981882309F441C0EA80FB8081E06B
:103FF000D701D7968C93D797F60183819481D99670
:104000009C938E93D8978389885FDA968C93DA97FE
:104010000589168908501040DC961C930E93DB9797
:104020008FEFD80111968C931197808991891396FF
:104030009C938E9312978685978515969C938E9365
:104040001497828916968C930E94B81BF801878377
:10405000D701DB96ED91FC91DC9788E08083EA81C3
:10406000FB81ED5BFF4F83E79FE13FC0EA80FB8070
:1040700082E0F70187AB8DEF9FEF91AF80AFD60164
:1040800053968C915397875F82AF55960D911C91F3
:1040900056970950104014AF03AF13968D919C9121
:1040A0001497F8019283818350968D919C9151973A
:1040B000948383831E968D919C911F97968385830D
:1040C00052968C9187830E94B81BD80118968C93C6
:1040D000D701DB96ED91FC91DC978CE08083EA813F
:1040E000FB81ED5BFF4F88E990E291838083EA8159
:1040F000FB81D60158968C9187AFEA81FB81E05C09
:10410000FF4F8091500B8083EA81FB81EF5BFF4F73
:1041100081E08083EA81FB81EE5BFF4F80838A81AF
:104120009B810E94161E80E02396E8E00C948CACE4
:104130000F931F93CF93DF93EC018C010554104034
:10414000D801DB96ED91FC91DC97818192816FEF34
:104150000E94E734882349F0229783E79FE19983FF
:104160008883C8010E94D44003C0CE010E94731FFF
:10417000DF91CF911F910F910895FC018589843AB9
:1041800011F08A3AA1F48085481789F481859285D7
:104190006817790761F4CF01B90148E050E00E9447
:1041A0000AAD9C0180E0232B19F481E0089580E0A2
:1041B0000895A0E0B0E0EFEDF0E20C946FACFC01EC
:1041C0006B01B42E7901209177033091780390919F
:1041D000760386E1989F80011124020F131F309708
:1041E00011F4E9010EC0EF010BC0CE01B6014B2D59
:1041F00097010E94BD20882319F08D89843A31F0FF
:104200006696C017D10788F3C0E0D0E0CE01CDB7E5
:10421000DEB7E9E00C948BAC8F929F92AF92BF9285
:10422000CF92DF92FF920F931F93CF93DF938C0176
:104230006B010E94AC314C01F601E85AFF4FC0817E
:10424000D18128EAF22E5F012AC0D501CD93DC93FB
:104250008B858330C9F4CE010C960E94E966FC017F
:1042600099EAF92E3097D9F08C89D8011D968C9354
:104270001D978081918114969C938E931397C8010A
:10428000B6010E941E1E09C08C859D85F80194838D
:104290008383C801B6010E94E01FF82E0EC0D8012A
:1042A00050966D917C915197CE0152964C9194010C
:1042B0000E94D920EC01009741F68F2DDF91CF911C
:1042C0001F910F91FF90DF90CF90BF90AF909F9084
:1042D0008F9008950F931F93CF93DF93EC01088184
:1042E00019814423A9F46E3C21F0603F11F042E0B3
:1042F00001C043E0CD5ADF4F88819981AA81BB81FB
:10430000C355D040F801848F958FA68FB78F638FE8
:10431000423019F04330C1F40BC0E881F981828149
:10432000882331F4C801BE010E940C21883A61F44F
:1043300088819981F801638D045E1F4FA8010E9456
:104340007A1DCE010E94EA1CDF91CF911F910F913F
:1043500008951F93CF93DF93EB01C85ADF4F198263
:104360001882C855D040BE010E940C21182F882306
:1043700019F0CE010E94EA1C812FDF91CF911F918D
:104380000895A0E0B0E0E7ECF1E20C946DAC8C0194
:10439000962EC0917703D09178039091760386E1B1
:1043A000989F70011124EC0EFD1E58015CE0C52E93
:1043B000D12CC00ED11E29C0F80161857285CE01B5
:1043C000408595010E94BD208823F1F0F801938576
:1043D0008B859817C9F4913041F4248535858C85F7
:1043E0009D852817390781F417C0F80194898C89B5
:1043F000981751F4BE01645F7F4FC60148E050E05A
:104400000E940AAD009741F06696CE15DF05A0F236
:10441000F801958AC0E0D0E0CE01CDB7DEB7EBE081
:104420000C9489ACCF93DF93EC010E949E1B8823F0
:1044300049F0CE0164EA0E94C121FC01009711F00D
:1044400088EA858BDF91CF910895CF93DF93EC01BC
:104450000E949E1B882391F1CE0160E00E94C12141
:10446000892B29F5409176032091770330917803C9
:1044700090E00CC0F90185892A5E3F4F883A29F403
:1044800084EA858B309739F419C09F5F941790F3B5
:104490008EEA8D8B13C09F01DE0186E10D90E9014C
:1044A00009929E018150D1F784EA858B07C0CE0125
:1044B00066EA0E94C12124EAFC01258BDF91CF919D
:1044C00008950F931F930E94F1AC8C0164E0000FDC
:1044D000111F6A95E1F700700E94F1AC282F30E0BF
:1044E000202B312BC9011F910F910895A0E0B0E05E
:1044F000ECE7F2E20C9471AC7C0180E090E027C024
:104500008A81882319F5EB81FC8121813281D701D1
:104510005C968D919C915D9728173907B9F4D080EE
:104520005B968C915B978D1549F41F960D911C91AC
:1045300050970E949E340817190741F0F7018381B4
:1045400094816D2D0E94E734882339F4CE010E94B6
:10455000311CEC010097A1F608C0D7011D96DC9232
:10456000ED81FE81C7010995F1CFCDB7DEB7E7E058
:104570000C948DACADE2B0E0E0ECF2E20C946AACED
:104580007C01162FDC011A96AD90BC901B971596F6
:104590006D917C91169789E793E0F50147810E9420
:1045A000B26C882309F434C1D50111969C91892FEE
:1045B00081508E3F18F06624772404C0892F0E9412
:1045C0003C1C3C01F501818181508E3F20F4611437
:1045D000710409F41DC1D70112968C91129713969C
:1045E0002D913C911497813009F082E08B833D83BB
:1045F0002C83F50181818E87D70115968D919C9131
:1046000016970E94884C9C01009759F083E08F8791
:10461000DE015296F90188E001900D928150E1F798
:1046200002C082E08F87F70185819681998B888B04
:10463000878190859B8F8A8FD50116968C911697CE
:104640008C8F14968D919C9115979E8F8D8F1296BD
:104650008D919C91139798A38F8F218530E02A50DC
:1046600030403AA329A3265F3F4F1DA28C9187FDBE
:1046700007C0285030403AA329A3285F3F4F0AC003
:10468000F5018085837031F4295030403AA329A385
:10469000275F3F4F89A19AA1281B390BD7011A9692
:1046A0008D919C911B97820F931F9CA38BA31EA39C
:1046B00052968C9152978FA31C968C911C9788A729
:1046C0001E968D919D910D90BC91A02D89A79AA7C2
:1046D000ABA7BCA7F70185858DA7D5018C9187FF76
:1046E00051C018968C918370823009F04BC0E091D4
:1046F000A70CF091A80C808189A31AA28081882E32
:10470000992401E010E032C06091A50C7091A60CD4
:10471000DB01A80DB91DE091A70CF091A80CE00FEA
:10472000F11F40818091AA0C9091AB0C089F9001E1
:10473000099F300D189F300D1124260F371FCD0112
:10474000B90150E00E9417ADE091A70CF091A80CC0
:10475000E00FF11F208189A19AA1820F911D9AA3D8
:1047600089A38081880E911C0F5F1F4FC090B00CF1
:10477000DD240C151D0544F28091A50C9091A60C2A
:104780009CA38BA36114710449F0D3011596ED919C
:10479000FC911697CE01019609953AC0F7018281E6
:1047A000813029F4CE0101960E94762231C0D501D4
:1047B00011968C918F3F41F500E010E06E01089456
:1047C000C11CD11C1AC0D8011396ED91FC9114970D
:1047D0008081882391F012968C911297882369F436
:1047E000218132818D8D9E8D2817390731F41596E0
:1047F000ED91FC911697C6010995C8010E94311CE4
:104800008C01009701F704C0CE0101960E940E733F
:10481000F701158A0388F489E02DC70145960995AB
:10482000AD96EEE00C9486ACA0E0B0E0EAE1F4E2F4
:104830000C946EAC6C01A62EFC01C285D3859981C7
:10484000892F81508E3F98F4892F0E943C1CDC01F7
:10485000009769F01396ED91FC91149721813281B4
:104860008C819D812817390709F0EAC007C089812A
:1048700081508E3F08F4E4C0A0E0B0E0988197FF3B
:1048800004C08885837009F0DBC096FD02C091E00A
:10489000D8C09C70983009F4D3C0F6016581768148
:1048A000FFEF673F7F0708F0CBC0109729F0129603
:1048B0008C91882309F0C4C0F60102851385F801A4
:1048C000808186FFB9C08370813019F0E7E0FE2E49
:1048D00002C0FF24F39430919A0CA0919F0CB091E8
:1048E000A00CAF5BBF4F20E04F2D50E0E801C40F9C
:1048F000D51F1DC0A154B04017968C911797AF5B80
:10490000BF4F853089F48D919C9111976817790775
:1049100059F41396ED91FC911497E40FF51F9881CB
:104920008081981709F488C02F5FA65ABF4F2317BC
:1049300008F382E00E94511CDC01009709F47CC05E
:10494000AC5BBF4FCD91DC911197FE017897A182AE
:10495000D382C282149762E06D93F60185819681BD
:1049600011969C938E9317961D921D9281E08D93C4
:104970008D9383E79FE111969C938E93AC54B04046
:1049800088818C7F82608883F80190819C70837F0E
:10499000892B8883908190718F7E892B982F9F79A6
:1049A0009883908190788F71892B888380814F2D97
:1049B00050E09D012D5B3F4F84FF0BC0F6018285C7
:1049C0009385840F951FFC0180818983F9016083A1
:1049D0002DC088E0F9018083F80186818983828176
:1049E00093819B838A83848195819D838C8381813C
:1049F0008E83F60182859385840F951FFC0180814B
:104A00008F83F801808187FF11C08085837031F426
:104A10001886F90180818F5F808308C0F901808149
:104A20008D5F8083F801808583708887CD0109962A
:104A30000E94161E91E001C090E081E089279FC18D
:104A400090E0888187FF92C18885837009F48EC1C8
:104A5000F601C285D3854185F9842091A90C2223D2
:104A600009F48CC176EFB72EB40E8091A40C882384
:104A700021F0813009F082C14AC01885113009F057
:104A80007DC12F1508F47AC14091AA0C5091AB0C4E
:104A90008B2D90E04817590708F470C1822F90E0E1
:104AA0004F5F5F4F849F9001859F300D949F300D25
:104AB00011248091A50C9091A60C60E070E0A901F2
:104AC0000E9432ADA092390D1093A40CF092B00C5C
:104AD000F601858196819093B40C8093B30C898103
:104AE0008093B50C8A819B819093B70C8093B60C10
:104AF0008C819D819093B90C8093B80C8E818093AA
:104B0000BA0C8F818093BB0C1092B10CFF24988556
:104B1000892F8370823019F0FF2009F02FC19C7F0C
:104B200009F02CC18091B00C8F1508F427C1209199
:104B3000B30C3091B40CF6018581968128173907A2
:104B400009F01CC19091B50C8981981709F016C124
:104B50002091B60C3091B70C8A819B8128173907B8
:104B600009F00CC12091B80C3091B90C8C819D8159
:104B70002817390709F002C19091BA0C8E81981755
:104B800009F0FCC09091BB0C8F81981709F0F6C01A
:104B9000CF2DD0E02091B10C6091510B822F90E08D
:104BA000860F911DC817D9070CF0E8C08F2D0E9401
:104BB00024ACE92EF21670F48F2D891B8093B10C72
:104BC00081E090E002C0880F991F6A95E2F7819515
:104BD0008093B20C0F2D10E08091AA0C9091AB0C39
:104BE0009C01029FC001039F900D129F900D112404
:104BF0002091A50C3091A60C280F391FF601428593
:104C00005385465F5F4FC901BA014B2D50E00E94AA
:104C100017ADE091A70CF091A80CE00FF11FB08246
:104C20008091B10C8F1591F42091B00C8091510BB3
:104C30002F19821708F4282F81E090E002C0880F16
:104C4000991F2A95E2F781958093B20C81E090E05C
:104C50000E2C02C0880F991F0A94E2F73091B20C13
:104C6000382B3093B20C8091B00C90E00197C817AC
:104C7000D90791F40E941D1F8091B20C8F3F09F05B
:104C800044C01092A40C1092AC0C1092AD0C109277
:104C9000AE0C1092AF0C6CC02091B10C8091510BF6
:104CA00090E0820F911D0197C817D90711F03F3F7F
:104CB00061F50E941D1F83E08093A40C8091B20CCB
:104CC0008F3F19F59091510B8091B10C890F809312
:104CD000B10C0F2D00958091B00C080F901708F4BF
:104CE000092F81E090E0002E02C0880F991F0A94DE
:104CF000E2F781958093B20C1092AC0C1092AD0C3F
:104D00001092AE0C1092AF0C39C06091510B70E054
:104D100061507040882777FD8095982F2AE030E019
:104D200040E050E00E9405AC9B01AC01609197030C
:104D3000709198038091990390919A03620F731F69
:104D4000841F951F2091920330E040E050E00E94C4
:104D500005AC6093AC0C7093AD0C8093AE0C90934B
:104D6000AF0C84E893E00E945E6D08C0992331F097
:104D7000C6016A2D0E94BA2280E001C081E0CDB751
:104D8000DEB7EAE00C948AAC88E361EA7CE00E943A
:104D9000630A8CE462EA7CE00E94980A20E043E225
:104DA00050E012C0822F90E0BC01649FC001659F5B
:104DB000900D749F900D1124E091A20CF091A30C22
:104DC000E80FF91F10822F5F8091A10C281750F374
:104DD00087E36AE97CE00E94630A8BE46FE97CE088
:104DE0000E94980A20E04AE550E014C0822F90E02B
:104DF000BC01649FC001659F900D749F900D1124AC
:104E0000E0919F0CF091A00CE80FF91F87818E7F35
:104E100087832F5F90919A0C291740F38091A10C02
:104E200080939B0C923008F0915090939C0C1092C0
:104E30009D0C10929E0C8EE36AEA7CE00E94630A4D
:104E40008DE369EA7CE00E94630A8091A90C8823C3
:104E500051F08DE465EA7CE00E94980A8EE46FE4EC
:104E60007DE00E94980A8091A90C2091AA0C3091B3
:104E7000AB0C90E0A901849F9001859F300D949F19
:104E8000300D11248091A50C9091A60C820F931FD8
:104E90009093A80C8093A70C1092A40C0895FF92F5
:104EA0000F931F93CF93DF9301E010E0FAE5FF2EFD
:104EB000CFEFD0E049C01F9D90011124E0919F0CDD
:104EC000F091A00CE20FF31F978190FF3CC080850A
:104ED0008F708230C1F5892F8E7F823011F086303D
:104EE00091F583819481A581B6818A309105A105D0
:104EF000B10548F00A97A109B10983839483A5837A
:104F0000B68300E020C08085807F84608087138224
:104F1000148215821682E0919F0CF091A00CE20F92
:104F2000F31F87818E7F863059F4CE010090510B9C
:104F300002C0880F991F0A94E2F7809580933C0D78
:104F400081E00E94611D1F5F80919A0C181708F480
:104F5000B2CF8091AC0C9091AD0CA091AE0CB09101
:104F6000AF0C0097A105B105D9F08B309105A105D3
:104F7000B10560F00A97A109B1098093AC0C909338
:104F8000AD0CA093AE0CB093AF0C10C01092AC0C53
:104F90001092AD0C1092AE0C1092AF0C0E941D1F1F
:104FA000002321F084E893E00E94336DCDB7DEB793
:104FB000E5E00C948FAC80E191E0909368038093DE
:104FC0006703109271031092700310929B0310926A
:104FD0009C0310927503109274030E94C4260E94D1
:104FE000A4470895A8E0B0E0E8EFF7E20C9472ACB3
:104FF000F090AC0B8EE2BE016F5F7F4F0E94630AA0
:105000008E010B5F1F4F87E1B8010E94630A2D815B
:105010003E814F8158858F2D90E0A0E0B0E082174F
:105020009307A407B50760F0220F331F441F551FD5
:105030002D833E834F83588787E1B8010E947E0A03
:105040002F2D30E0295F3F4F442737FD4095542FE7
:1050500020939303309394034093950350939603C6
:10506000E980FF2400E010E0C801B701660F771F58
:10507000881F991F6E0D711D811D911D0E9405AC29
:105080002D813E814F815885260F371F481F591F9C
:1050900020939703309398034093990350939A0376
:1050A00084E893E060E02AE030E040E050E00FE484
:1050B00017E20E943C6D89E3BE016E5F7F4F0E9444
:1050C000630A86E4BE016D5F7F4F0E94980A70916B
:1050D0009203E0909703F090980300919903109148
:1050E0009A0360E020E030E040E050E013C0D801D7
:1050F000C701062E04C0880F991FAA1FBB1F0A9460
:10510000D2F781509E4FAF4FBF4F280F391F4A1F14
:105110005B1F6F5F671758F3CA01B90124EF31E0D5
:1051200040E050E00E9444AC022F6B817C810E5F16
:1051300089E793E04A8124EF31E0EE24E3940E9472
:105140003C6C2896E6E00C948EAC0F931F9388235A
:1051500059F00E9461228093830310926B0381E2D5
:1051600062E973E00E94630A10926F0310926E036B
:1051700010926D0310926C0310926A0310926903EF
:1051800010927303109272038AE090E0A0E0B0E006
:105190008093460D9093470DA093480DB093490D11
:1051A00083E19FE190934C0D80934B0D81E08093C0
:1051B0004A0D84E261E57BE00E94630A1092B20C22
:1051C0001092BB0C1092B00C1092B70C1092B60C4F
:1051D0001092B10C1092B50C1092B90C1092B80C40
:1051E0001092B40C1092B30C1092BA0C1092A40C42
:1051F0001092AC0C1092AD0C1092AE0C1092AF0C41
:105200008AE5ECEBFCE0DF011D928A95E9F783E289
:10521000E6E1FDE0DF011D928A95E9F70091A90C16
:105220008091AA0C9091AB0C019610E0089F900120
:10523000099F300D189F300D11248091A50C90917D
:10524000A60C60E070E0A9010E9432AD8EE29DE004
:105250009093010D8093000D0E94F2271F910F91F2
:105260000895AAE4B0E0E7E3F9E20C9466AC20917B
:1052700067033091680338AF2FAB41E0203134072A
:1052800009F4B4C32053334009F0D3C1AFC3209114
:105290009F0C3091A00CC801821B930B6AE570E053
:1052A0000E9430AC8AE5689F40011124820E931E53
:1052B000AFA9B8ADE6E0A031BE0719F0A050B540E7
:1052C000F1F4D40117968C918E7F843071F4C4016F
:1052D0000E941A1CFC016181D80112968C918823CE
:1052E00021F4828193810E94BA22A8014B5F5F4F13
:1052F000F4018081918163EA0E947A1D97C1D401F3
:1053000017968C91282E26943324B1E02B16310465
:10531000D9F0E2E02E16310424F42114310461F0B6
:1053200088C1F2E02F16310409F477C123E0221678
:10533000310409F07EC1ADC0C401D80112966C9150
:1053400040E00E946A2175C1F40180858F70813030
:1053500009F06FC1D8011996BC91BAAB87E1BE01C3
:105360006F5F7F4F0E94630A4090930350909403B5
:105370006090950370909603A980BA80CB80DC8002
:10538000E0919203EBABD40118968C9182958F70CB
:10539000F0E0E81BF109FCABEBABD80112966C9185
:1053A000662309F03FC00E9461227C0100E010E00A
:1053B0002FEF31E040E050E0E222F32204231523F6
:1053C000A1010BA802C0440F551F0A94E2F75AAF7F
:1053D00049AF1A015AA9652F70E080E090E0A3015F
:1053E00092010E9405ACA60EB71EC81ED91EC101AF
:1053F000AA2797FDA095BA2F89AF9AAFABAFBCAFE4
:10540000BC01CD01A60195010E9405ACE60EF71E78
:10541000081F191FD4011396ED92FD920D931C9352
:1054200016972EC06E3C11F0603F61F4A8014B5FEF
:105430005F4FF401808191810E947A1DC8010E9412
:10544000EA1CD4C20E946122917028EE33E00BA8BE
:1054500002C0220F331F0A94E2F7AC01420F531F20
:105460005EAF4DAFCA01A0E0B0E021968CAF9DAF1A
:10547000AEAFBFAF2197F40183839483A583B68336
:10548000D40118968C911897807F826018968C931F
:10549000BFC0F40180858F70813009F0CAC0F091DF
:1054A0003A0D2296FFAF229720913D0D24962FAF03
:1054B0002497422F50E04150504025965FAF4EAFA9
:1054C00025978F2F90E023969FAF8EAF2397841759
:1054D000950779F13091510BA0913C0DADAB4A2F5E
:1054E00020E025C0FDA9EF2FF0E0FEABEDABCF0132
:1054F000022E02C0959587950A94E2F780FF16C0A8
:1055000081E090E0022E02C0880F991F0A94E2F712
:105510008095842380933C0D80913B0D280F209330
:105520003A0D80E49DE00E948E0C83C02F5F23170C
:10553000C8F2D8011996EC9087E1BE016F5F7F4FEA
:105540000E94630AB09192032696BFAF2697F4019A
:10555000808582958F702B2F30E0281B310927968C
:105560003FAF2EAF279741E050E026960FAC26972D
:1055700002C0440F551F0A94E2F729965FAF4EAF61
:105580002997FF2400E010E02091930330919403C9
:105590004091950350919603C801B7010E9405AC54
:1055A00029813A814B815C81260F371F481F591F83
:1055B00029968EAD9FAD2997AA2797FDA095BA2F62
:1055C0002B968CAF9DAFAEAFBFAF2B97BC01CD017B
:1055D0000E9405AC7B018C01C0904D0DD0904E0D0A
:1055E0000E946122A0E0B0E09170A070B0708E0DBA
:1055F0009F1DA01FB11FF60183839483A583B683EB
:10560000E0914D0DF0914E0D8085807F8260808706
:1056100084E893E00E945E6D0CC0C4010E941A1CD5
:10562000FC018281938161810E94BA22C8010E949B
:10563000EA1C89E693E00E940C6C8C01009709F04B
:1056400026CED4C18CE693E00E940C6C0F5314401C
:1056500051F0D7011A96ED91FC911B9780818370D0
:10566000813009F0B7C1F70152856385E52FF62F28
:105670003081732F707436FF14C040919D0C4090A0
:105680009A0C20919E0C842F90E0820F911D55243E
:10569000841595050CF09EC180919B0C481708F06D
:1056A00099C1932F9C70943009F494C1772359F0D9
:1056B000832F8370823009F48DC1983009F48AC138
:1056C0009C3009F487C135FD85C1D7011296DC9065
:1056D000B1E0DB16A1F022E0D21609F07BC1808197
:1056E00073E0672E682277246114710431F032E090
:1056F0006316710409F06EC182C09C3041F0C7018D
:105700006FEA0E941424882309F472C163C1052F33
:10571000162FD70115966D917C91169789E793E026
:10572000F80140850E94B26C882309F453C1D70167
:1057300019968C91893008F44DC1B1E0BF83F8010E
:105740008181928199878887D70115968D919C9147
:1057500016970E94884C009759F0B3E0BB8BDE018E
:105760005696FC0188E001900D928150E1F706C049
:10577000DB8AF701858196819D8B8C8BD7011796EB
:105780008D919C9118979F8F8E8FF801878188A3A8
:10579000858196819AA389A3838194819CA38BA3FD
:1057A0001996AC901997BB2427EF3FEFA20EB31EBA
:1057B000BEA2ADA21A968D919C911B97099698A7AF
:1057C0008FA319A68FEA8AA752968C9152978BA71E
:1057D0001C968C911C978CA71E968D919D910D9077
:1057E000BC91A02D8DA79EA7AFA7B8ABD7011D96E2
:1057F0008C9189ABCE0105960E947622EBC0A52F35
:10580000B62F00919F0C1091A00C80919A0C8C9D4A
:10581000A0011124400F511FD9C0F801D780D0FE3C
:10582000D3C080858F70823009F0CEC0EC5BFF4F13
:1058300060817181F80180819181F7012581368134
:10584000FC01838194812817390709F0BDC0FB0151
:1058500017969C9117978781981709F0B5C01496F1
:105860002D913C911597848195812817390709F06E
:10587000ABC012962D913C9113978281938128178A
:10588000390709F0A1C011969C911197868198174C
:1058900009F09AC016969C9116978181981709F085
:1058A00093C08D2D8E7F823049F4D80118968C914B
:1058B0001897807F836018968C9334C0863009F0E7
:1058C00083C019969C91199780913B0D981709F008
:1058D00081C081E090E00090510B02C0880F991FB9
:1058E0000A94E2F781951A962C911A97282B1A960A
:1058F0002C931A97F8018085807F836080871A96A1
:105900008C918F3F79F520903A0D80903D0D992430
:1059100008948108910833242814390449F4C801F3
:105920000E94CF1BC80160E040E00E946A2152C083
:105930008091510B20913B0D280F20933B0D30910E
:10594000920330933F0D20933A0D2FEF30E002C0C9
:10595000220F331F8A95E2F7C90180958E7F8093CD
:105960003C0D28C0382F309530933C0D6091510B81
:1059700020E0432F50E01CC0CA01022E02C09595C2
:1059800087950A94E2F780FF12C081E090E0022E32
:1059900002C0880F991F0A94E2F7809583238093B1
:1059A0003C0D80913B0D280F20933A0D03C02F5FD3
:1059B000261710F3E0914D0DF0914E0D80819181ED
:1059C000BF010E941E1E06C0065A1F4F041715076E
:1059D00008F423CFD70155961C9255975396ED9115
:1059E000FC915497C7014596099502C06AE5C62EF9
:1059F000E0906C03F0906D030091670310916803D1
:105A0000E114F10409F01ECE01FF0CC002C18EE6C4
:105A100093E0B8010E941C6CC80163EA40E050E0CA
:105A20000E947A1D00916E0310916F0301151105FC
:105A300071F7F9C080914D0D90914E0D892BA1F019
:105A4000C7010E94081C882351F40EC0F701808111
:105A500091819C0179012115310509F4E4C0C70148
:105A60000E94081C882391F7D70157961C91812F1B
:105A7000837F09F062C0C7010E94081C882349F097
:105A800080914F0D9091500D892B09F456C012FF53
:105A900054C0F701838994898036910528F013FD5D
:105AA00003C050EAD52E91C0D70152968C9188231D
:105AB00029F00E943C1C892B09F478C1F7018789E1
:105AC000282F247082FF0DC08281823039F48381B7
:105AD0009481885F9F4F08F069C103C0813009F449
