:100000000C94F6080C94E3C40C942E090C942E095D
:100010000C942E090C94601D0C9480C70C9451C74D
:100020000C9422C70C942E090C942E090C942E09C2
:100030000C942E090C949D120C942E090C94FA1217
:100040000C942E090C942E090C942E090C942E0954
:100050000C942E090C942E090C942E090C942E0944
:100060000C942E090C94211E0C94811E0C94531E8A
:100070000C942E090C94211F0C9427140C942E0917
:100080000C942E090C942E090C942E090C942E0914
:100090000C94931D0C94F31D0C94C51D0C94AF1E71
:1000A0000C942E090C942E090C94F2130C940BC58D
:1000B0000C942E090C942E090C942E090C942E09E4
:1000C0000C942E090C942E090C942E09B034E034B3
:1000D000E034E034B534CA34BF34C434EF34BA3415
:1000E000CF34CF34D434E034E634EA340A360D3633
:1000F0001036103613361F3619361C362F36163684
:100100002236253628362B363C3740376837443779
:10011000483768374C3768375A375E376537C13CE0
:10012000743D913D453C0D3E0D3E823D913D973DD8
:10013000E53DBE3D0D3E0D3EE53D9E3CE83D506536
:100140005865E4648D658D652B6538658D658D65B5
:100150008D6562657165046510658D65E164436553
:100160005B6868687C688E689568A268AF68BA68E2
:10017000C268E0680B69CC68936A936A516A586AEE
:10018000586A646A646A756A756A756AF383278453
:100190005D8449843A845D84748474847484748432
:1001A00074847484748474847484748449845D84D1
:1001B0007484E68350843484DC84E184A585BD8521
:1001C000D485C886FD86FD86FD86FD86FD86FD8676
:1001D000FD86FD86FD86FD8678868686FD8696846C
:1001E0009E8687854697C196939793979397C796D0
:1001F000CC965D979397CF96D296DC96E49693979C
:10020000E796EA96ED969397F296F5965D97FA96AD
:100210003A974F9793973D974097C5964397439743
:100220005D975D975D975D975D975D975D975D972E
:100230005D975D975D975D975D975D975D975D971E
:100240005D9730975D97939793979397939793972D
:10025000939793979397939793979397939793974E
:1002600093975D97529755975D972997A298AD9769
:10027000A498A498A498B297BA97A498A498C2975F
:10028000C797E197E997A498EE97F6970098A498F6
:1002900008980D98A498159832984498A49837987F
:1002A0003F98A298A298A2984E984E984E984E9831
:1002B0004E984E984E984E984E984E984E984E980E
:1002C0004E984E984E984E984E9828984E98A498CE
:1002D000A498A498A498A498A498A498A498A4983E
:1002E000A498A498A498A498A4984E984998A298E1
:1002F0004E982398D399D199D199009A079A1A9A2E
:10030000229A259A289A2B9A2E9A359B3C9B4B9B96
:10031000539B559B579B599B5C9B41A84BA819AD80
:1003200067A87FA83BABB9AA3BA819AD19AD19AD19
:10033000BAAC8AA893A8B1ACE5A81DA905A90FA9D4
:1003400049AB49ABE4A919AD19ADF4ABF4ABF4ABCF
:1003500019ADF4ABF4ABEDABEDAB98AB19AD19AD9A
:1003600019AD14A9D6ACDBACE3ABE7AB81AA8FAA7D
:10037000ABAA9DAA35AA50AA2BAA1AAA80AC19AD7D
:1003800068AA70AA79AA19AD41A819AD67A88AA868
:100390007FA84FA993A893A8E5A80FA905A92BAA00
:1003A00019AD19ADE4A91DA9F1A919AD19AD19AD82
:1003B00019AD05AA05AA05AA05AA05AA05AA05AAAE
:1003C00005AA05AA13AA13AA13AA13AA13AA13AA61
:1003D00013AA13AA13AA54A954A954A99FA99FA95F
:1003E0009FA9BBA9BBA9BBA911C115C127C138C110
:1003F0003CC13EC33EC33EC3E9C13FC2EEC23EC3A1
:1004000040C143C13EC35FC1BCC169C16DC13EC3F0
:100410003EC3A3C0B7C17CC13EC33EC33EC33EC3BF
:100420003EC33EC33EC33EC33EC3DBC1DEC1E1C1EA
:10043000D4C13EC32AC33EC33EC394C09AC097C032
:100440009DC0E5C0FAC03EC33EC33EC385C088C060
:100450008BC091C023C111C127C138C140C13CC16B
:10046000A0C055C15AC15FC16DC169C178C17CC10D
:10047000B7C1A3C0BCC1D1C0D4C0D4C0D4C0D4C043
:10048000BFC0BFC0BFC0BFC0BFC0BFC0BFC0BFC074
:10049000BFC0C8C0C8C0C8C0C8C0C8C0C8C0C8C025
:1004A000C8C0C8C0A8C0A8C0A8C0ADC0ADC0ADC0BD
:1004B000B6C0B6C0B6C064C348C44EC466C373C336
:1004C0004EC44EC44EC44EC44EC44EC41AC45CC3C3
:1004D0007FC34EC48BC348C49AC3A1C348C448C495
:1004E000A8C34EC44EC4FAC306C411C44EC448C403
:1004F000FAC34EC44EC4F7C34EC44EC44EC40EC459
:100500004EC448C44EC44EC45CC35CC35CC3F4C395
:10051000DAC3D4C35CC3C0C3CDC34EC45FC35FC31F
:100520005FC34EC464C34EC466C35CC373C35CC3C1
:100530007FC37FC38BC3A1C39AC35CC34EC44EC4E5
:10054000A8C348C4BDC34EC44EC44EC44EC4AFC3FA
:10055000AFC3AFC3AFC3AFC3AFC3AFC3AFC3AFC30B
:100560005CC35CC35CC35CC35CC35CC35CC35CC393
:100570005CC3AFC3AFC3AFC3B3C3B3C3B3C3B8C329
:10058000B8C3B8C300000000000000000000000075
:10059000000000000000000000000000000000005B
:1005A000000000000000000000000000000000004B
:1005B000000000000000000000000000000000003B
:1005C000000000000000000000000000000000002B
:1005D000000000000000000000000000000000001B
:1005E0000000000000000000000000000000010208
:1005F0000100020206080000FFFF341200000000A4
:10060000000000000A0F02000000000000000000CF
:1006100000000000000000000000000000000000DA
:1006200000000000000000000000000000000000CA
:100630000500FF000002C832000000003412010370
:100640000300001027000010270000010001E8034C
:10065000000004E8030000000000000000000000AB
:10066000000000000000000000000000000000008A
:100670000300E09304000084000000190A19190A1D
:1006800006020402280432040305000000001410CE
:10069000711208007B120100881204008C12010004
:1006A0003A130100411308003D130200C912020071
:1006B000D2120100361301003B1301009012010019
:1006C0009112010092120100931201008E12020099
:1006D0009412010038130100371301004B1201007E
:1006E0004D120100BA12080021120400A0120400E9
:1006F00095120400991204009D1201009E1201003F
:100700009F120100A912110033130100A41201006D
:10071000A5120400C21201004E120200C312010011
:100720008D120100C4120400C81201000000000074
:10073000770602007B060100790602007D060100B3
:100740007E0601007F06010080060100810601008F
:100750008206010083060100840601007C06010078
:1007600085060100860601008E060200870601004C
:1007700088060100890601008A060400840400003E
:100780002E07000008050000D1090000000000004D
:100790004E0A0000AF11000007120000220D0000F9
:1007A0007E0E00003A0E0000EC0E0000E60F000086
:1007B000461100000000000000000000711204005B
:1007C0008C120C00BA120D00211215003B131900F7
:1007D00033131A009D121B009E121C009F121D0055
:1007E000A9121E008E122F00941231003D13320008
:1007F00036133400C3123500C9123600D212380045
:100800004113390093124100C81242002E074300E1
:10081000381A8D199119341A951999190304050676
:10082000077D2F2F2A0000000000000000000000BC
:1008300000C16E2B718679BA6D616B6F6DBE69F305
:10084000602B502D69965A32572D54D54F534F6D0A
:100850004F00000000000000000000000002020342
:100860000201020101010101010102020101010273
:100870000202020202020202020202020303020256
:100880000302B65C1F6A0108DA5ED5500101DA5E28
:10089000D55001016E5CDF6A0101F85BB8570101B8
:1008A000F85B8D570108AF5BA06E0101565BD576F2
:1008B000010100000000010800000000010100002B
:1008C0000000010300006049010400000000010570
:1008D000000000000106000000000101000000000F
:1008E0000101DA5E000000010000000001000000CC
:1008F0000000010800000000010A000000000100E3
:1009000000000000010100000000010100000000E3
:1009100000000000AC5100080000AC51000C0000C9
:10092000AC5100000000AC51009C46924B6D474515
:100930004765470000A446B4465D47AC465C4B7B28
:100940004614491C4984490C49754700009C4C5584
:100950006C3A60D6791C770000A17B4B70E8580098
:100960000000000A090807060504032546ACABAAE7
:10097000CAEAE9E8E6E5E40D0C0B0A09082A292889
:1009800048ADACABEBEAE9E80D0C0B0A0908070629
:10099000050425242322428584838281A1E13A43F0
:1009A00048494C445F4C4F5354202530386C5825EF
:1009B00030386C58003A4348494C445F4A4F494EDE
:1009C0004544202530386C582530386C58003A4C56
:1009D0004F5354003A4A4F494E4544002025303485
:1009E000582C25752C25753A002575207C202575F9
:1009F000207C202530386C582530386C58207C20DD
:100A000025303458207C2575207C20257520005306
:100A100025750025733A20002B57525353493A2528
:100A200064002B574C51493A2575002530386C58D5
:100A30002530386C5800010100000D000000000056
:100A400000000000000000000000020102000A0097
:100A50000000000000000000000000000000030192
:100A6000040008000000000000000000000000007A
:100A7000000004010600010000000000000000006A
:100A80000000000000000501080000000000000058
:100A90000000000000000000000006010A00010044
:100AA000000000000000000000000000000007013E
:100AB0000C00010000000000000000000000000029
:100AC000000008010E00030000000000000000000C
:100AD00000000000000009011000000000000000FC
:100AE000000000000000000000000A0112000000E9
:100AF00000000000000000000000000000000B02E9
:100B00001400881300000000000000000000000036
:100B100000000C01170000000000000000000000B1
:100B20000000000000000D0419000000000000009B
:100B3000000000000000000000000E012000000086
:100B400000000000000000000000000000000F0195
:100B50002200020000000000000000000000000071
:100B6000000010012400020000000000000000004E
:100B7000000000000000110126000200000000003B
:100B80000000000000000000000012012800020028
:100B90000000000000000000000000000000130141
:100BA0002A00020000000000000000000000000019
:100BB000000014012C0002000000000000000000F2
:100BC00000000000000015012E00020000000000DF
:100BD00000000000000000000000160130000200CC
:100BE00000000000000000000000000000001701ED
:100BF00032000200000000000000000000000000C1
:100C00000000180435000000000000000000000093
:100C100000000000000019043A0064000000000019
:100C2000000000000000000000001A043F00000067
:100C3000000000000000000000000000000025305F
:100C4000386C582530386C58002530386C580025E1
:100C50003034580025580025750025640045564558
:100C60004E540044415441004552524F52004F4BA4
:100C7000002C003A002C0025000525000625000761
:100C80003400003400013400022B00062B00072E34
:100C900000032B5750414E4944002B574E574B50A1
:100CA000414E4944002B574348414E002B5743487F
:100CB0004D41534B002B57434850414745002B575C
:100CC0004C45415645002B574A4F494E002B574E35
:100CD000574B002B57504152454E54002B57434819
:100CE000494C4452454E002B574E4253495A4500F9
:100CF0002B574E42002B574155544F4E4554002B15
:100D000057505752002B57534C454550002B5752C4
:100D10004F4C45002B57535243002B5753594E43CA
:100D2000505244002B575458505752002B574C5197
:100D300049002B5752535349002B5754494D454FA7
:100D40005554002B575245545259002B575741497F
:100D5000540044004455004453004452002B575063
:100D6000494E470044420026480025480049002BD0
:100D7000474D49002B474D4D002B474D52002B4707
:100D8000534E002B5743414C494252415445002B8E
:100D9000574143414C494252415445005A0026466E
:100DA0000045005100560058002B495052002B4975
:100DB0004643002644002B5750415353574F52444B
:100DC0000052005330005333005334005335005366
:100DD0003230005332310053323200533233005339
:100DE0003234005332350053333000533331005323
:100DF000333200533333005333340053333700530B
:100E000035300053353100533532005335330053FC
:100E100035350053313030005331303100533130EB
:100E200032005331303300533130340053313230DB
:100E300000533132310053313232005331323300FA
:100E4000533132340053313235005331323600538E
:100E5000313237005331323800533133300053319F
:100E60003331005331333200533133330053313394
:100E70003400533133350053313336005331333777
:100E800000533133380053313430005331343100A2
:100E9000533134320053313433005331343400533E
:100EA0003134350053313436005331343700533147
:100EB00034380000920C02050000E0019A0C030394
:100EC0000000E001A50C040600002000AC0C0504A5
:100ED0000000E001B50C06060000E001BE0C0700B2
:100EE00000001000C60C080000001000CD0C090026
:100EF00000001000D30C0A0000002000DC0C0B00E6
:100F000000002000E70C0C0000002000F00C0D2E6B
:100F100000001001F50C0E060000E001FF0C0F09A7
:100F20000000E002050D1000000010000D0D11067C
:100F30000000E001140D12030000E0011A0D13017E
:100F40000000E001240D14020000E0012C0D150347
:100F500000001001320D160300001001390D1901B7
:100F600000002001430D1806000020014B0D170161
:100F70000000E001570D1C5900001002540D1B0128
:100F800000001000640D1F4B000010035D0D1E03D8
:100F900000001001520D1A4B000010019C0D290099
:100FA000000010009E0D2A0000001000A10D2B066D
:100FB00000001000A30D2C0600001000A50D2D064A
:100FC00000001000A70D2E0600001000A90D2F0133
:100FD0000000E001AE0D30360000E003B30D310635
:100FE00000001001670D2000000010006A0D2100B4
:100FF000000010006D0D2206000010006F0D230789
:1010000000002000740D240700002000790D250742
:10101000000020007E0D260500006001830D2700E2
:10102000000010008F0D28010000E001B60D320411
:1010300000001001C10D33E301001007C30D340699
:1010400000002001C60D350100006001C90D360108
:1010500000006001CC0D370100006001CF0D3805A4
:1010600000002001D30D390500006001D70D3A06BC
:1010700000002001DB0D3B0400006001DF0D3C0699
:1010800000006001E30D3D0600006001E70D3E0633
:1010900000006001EB0D3F0100006001EF0D400119
:1010A00000006001F30D410600006001F70D4202EF
:1010B00000006001FB0D430100006001FF0D4406CC
:1010C00000006001030E450100002001070E4606E6
:1010D000000020010B0E4701000060010F0E4803C5
:1010E00000006001130E490600006001180E4A015D
:1010F000000020011D0E4B0100002001220E4C01BA
:1011000000002001270E4D01000020012C0E4E068C
:1011100000006001310E4F0600006001360E5006DF
:10112000000060013B0E510600006001400E5206B7
:1011300000006001450E5306000060014A0E54068F
:10114000000060014F0E550600006001540E560667
:1011500000006001590E5706000060015E0E58063F
:1011600000006001630E590600006001680E5A0617
:10117000000060016D0E5B0600006001720E5C06EF
:1011800000006001770E5D06000060017C0E5E06C7
:1011900000006001810E5F0600006001860E60069F
:1011A000000060018B0E610600006001900E620677
:1011B00000006001950E6301000060019A0E640159
:1011C000000060019F0E650100006001A40E660131
:1011D00000006001A90E670100006001AE0E680109
:1011E00000006001B30E0000000000001124809197
:1011F0001A1E823141F084B78F7180931A1E80FFCE
:1012000005C081E001C081E180931A1E14BE809167
:1012100060008861809360001092600011241FBEFE
:10122000CFEFD1E2DEBFCDBF12E0A0E0B2E0ECEE46
:10123000FBE901E00BBF02C007900D92A838B1078F
:10124000D9F71EE1A8E8B2E001C01D92AA31B107AA
:10125000E1F70E94FA200E94BD20FDCF0C9400000F
:101260007F937FB7F8949D9AA5988AEF0E948F0983
:101270008AEF0E948F099D9886E40E948F0981E081
:10128000959980E08F9380EF0E948F098F917FBFA7
:101290007F9108957F937FB7F8949D9AA59886E0F3
:1012A0000E948F099D988AE00E948F0988949599E1
:1012B0000894881F8F9384E60E948F098F917FBFC7
:1012C0007F9108959F937F9398E00E944A098795A4
:1012D00077959A959923C9F7872F7F919F910895C4
:1012E0007F937FB7F894A5989D9A8F9386E00E948C
:1012F0008F098F91879508F49D988F9384E60E94BB
:101300008F098F919D987FBF7F9108959F9398E05B
:101310000E9470099A959923D9F79F91089500002A
:101320000000000000008A958823C9F708955F93A4
:101330007F937FB7F894CF93DF93C0E0D0E07F93A3
:101340005091B2007091B2007517E1F37395219638
:101350005091B2005717D9F77F91CE01DF91CF910D
:101360007FBF7F915F910895EF92FF920F93DF937C
:10137000CF93CDB7DEB760970FB6F894DEBF0FBE40
:10138000CDBFA82F002309F461C07E010894E11CA1
:10139000F11C88E0F70111928A95E9F729833A83D5
:1013A0004B835C836D837E83AF83988780E2801B51
:1013B000E82FFF27E7FDF0954D815E816F817885ED
:1013C000181684F01D861E861F86188A882799277E
:1013D0008E1B9F0B04C076956795579547958A9508
:1013E000D2F728C0202F332727FD3095DB01CA0113
:1013F000022E04C0B695A795979587950A94D2F7C3
:101400008D879E87AF87B88B04C0440F551F661F1A
:10141000771FEA95D2F789819A81AB81BC8104C09C
:10142000B695A795979587952A95D2F7482B592B6E
:101430006A2B7B2B49875A876B877C8729853A855E
:101440004B855C856D857E85AF8598898A2F6096F2
:101450000FB6F894DEBF0FBECDBFCF91DF910F91D5
:10146000FF90EF900895EF92FF920F93DF93CF9349
:10147000CDB7DEB760970FB6F894DEBF0FBECDBF15
:10148000A82F002309F461C07E010894E11CF11C1F
:1014900088E0F70111928A95E9F729833A834B8313
:1014A0005C836D837E83AF83988780E2801BE82F07
:1014B000FF27E7FDF09549815A816B817C811816E1
:1014C00084F019861A861B861C86882799278E1B0E
:1014D0009F0B04C0440F551F661F771F8A95D2F7D4
:1014E00028C0202F332727FD3095DB01CA01022EAB
:1014F00004C0880F991FAA1FBB1F0A94D2F78987BF
:101500009A87AB87BC8704C07695679557954795B2
:10151000EA95D2F78D819E81AF81B88504C0880F8E
:10152000991FAA1FBB1F2A95D2F7482B592B6A2B4C
:101530007B2B4D875E876F87788B29853A854B8516
:101540005C856D857E85AF8598898A2F60960FB6FC
:10155000F894DEBF0FBECDBFCF91DF910F91FF900A
:10156000EF90089508950E94F9A008952BE133E0CB
:1015700030939D0220939C0220E530E030939F023F
:1015800020939E0229EA32E03093A1022093A00228
:1015900022E730E03093A3022093A2021092A5022A
:1015A0001092A4021092A7021092A60260E082306C
:1015B00009F461E088E892E00E94FCA0089580E0D0
:1015C00090E00895089584E0089584E0089584E00B
:1015D000089510927112109272121092731210925A
:1015E0007412109275121092761210927712109255
:1015F000781210928C12EAEBF2E11092BA12118278
:1016000012821382148215821682178282E090E081
:10161000A0E0B0E08093211290932212A0932312B5
:10162000B093241210923B1381E080933313809384
:101630009D1210929E1280939F1284E392E19093E8
:101640008F1280938E12109294128FEF9FEF9093CF
:101650003E1380933D13109236131092C312909351
:10166000CA128093C9121092D21210924113109292
:101670004213109243131092441310924513109288
:10168000461310924713109248131092931210921F
:10169000C81288E080933A1383E08093911280937C
:1016A000921210928D1289E1EEE2F7E0DF011D92B5
:1016B0008A95E9F70895A4E0B0E0E1E6FBE00C9438
:1016C000B4C9682F70E0660F771F660F771F6057E9
:1016D000794FCE01019644E050E00E9454CA6981DE
:1016E0007A818B819C812496E2E00C94D0C9CF93BF
:1016F000DF93EB010E945B0B009719F4CB01688329
:101700009983DF91CF910895CF93DF93EB0161151A
:10171000710589F0883278F406C0CB01BE01422FF2
:101720000E94A2CA08C00E945B0B592F282F392F94
:101730002115310591F7DF91CF9108951F93CF9334
:10174000DF93182FEB016115710571F00E945B0B9F
:101750009B01AC01183228F0CE01B9010E9454CA95
:1017600003C0CE010E94A2CADF91CF911F910895BC
:101770000E94BD0B0E94CF0D0895E0E5F2E188E3E1
:10178000DF011D928A95E9F7B196109271121182CC
:1017900012821382148215821682178285E080934A
:1017A0007B1289EC92E164E875E042E850E00E9427
:1017B00054CA81E292E166E076E04FE250E00E9496
:1017C00054CA80E292E165E376E041E050E00E9495
:1017D00054CA88E892E166E376E041E450E00E9472
:1017E00054CA8CE99DE0E4E8F4E0DF019C011D921D
:1017F00021503040E1F70895EF92FF921F93DF935D
:10180000CF93CDB7DEB727970FB6F894DEBF0FBEE4
:10181000CDBF8FEF8983CE0101969D838C8380910C
:101820000102909102029B838A8381E090E09F8372
:101830008E8310E082E0E82EF12CEC0EFD1EC70135
:101840006FED7DE00E94040E882351F42A813B81D4
:101850001F5F1A3029F02F5F3F4F3B832A83EFCF62
:1018600027960FB6F894DEBF0FBECDBFCF91DF91A4
:101870001F91FF90EF900895A6E0B0E0E2E4FCE055
:101880000C94AAC98C010097E9F1E0900102F09054
:101890000202FA82E98281E090E09E838D83480112
:1018A0009AE0C92ED12CCE0CDF1C5E010894A11C3D
:1018B000B11C1FC08B829C820E94E00DC50160E0BC
:1018C00070E00E94E90F8F5F9F4F21F481E0F801E3
:1018D000838318C00E94E00DF801808129813A813C
:1018E0008F3F19F0328321830CC02F5F3F4F3A8323
:1018F000298389819A818C159D05E0F2F801F28295
:10190000E18213822696ECE00C94C6C9A7E0B0E011
:10191000ECE8FCE00C94ACC98C010097E1F1198271
:10192000FC01108284E090E09B838A8381E090E058
:101930009F838E83E0900102F09002025E01089482
:10194000A11CB11C22E0C22ED12CCC0EDD1E1CC06D
:10195000BD82AC820E94E00DC60160E070E00E9492
:10196000E90F8F5F9F4F21F481E0F801838313C05B
:101970000E94E00DF80180819981890F80838A811E
:101980009B8101969B838A838A819B818E159F050B
:10199000F8F2F80113822796EAE00C94C8C9A8E08F
:1019A000B0E0E5EDFCE00C94B4C9CE0105960E94D0
:1019B000860C8885813079F0CE0101960E943C0C1E
:1019C0008C81813041F089819D81890F11F082E005
:1019D00003C080E001C081E02896E2E00C94D0C909
:1019E000AFE0B0E0E6EFFCE00C94B4C98FEF898380
:1019F000CE0102960E943C0C8D818130E9F1CE012E
:101A000006960E94860C89858130B1F19E818A817B
:101A1000890F99F191959E838B819C819B878A8701
:101A2000CE0101969D878C8781E090E09F878E870D
:101A3000CE010A966FED7DE00E94040E8823E9F442
:101A40008A859B8501969B878A87409101025091E8
:101A500002029A01265F3F4F8217930710F05B87BF
:101A60004A87CE0106969D878C87CE010A966FED38
:101A70007DE00E94040E01C081E02F96E2E00C940C
:101A8000D0C9A6E0B0E0E7E4FDE00C94B2C989015A
:101A90002091010230910202265F3F4F280F391F2B
:101AA0003A8329835E834D837C836B8302C00E94CB
:101AB000F72080916B038130D1F30115110511F4EA
:101AC0000FED1DE0CE010196B8010E94040E26968E
:101AD000E4E00C94CEC9A6E0B0E0E1E7FDE00C94B0
:101AE000B2C989012091010230910202265F3F4F65
:101AF000280F391F3A8329835E834D837C836B8350
:101B000002C00E94F72080916B038130D1F3011550
:101B1000110511F40FED1DE0CE010196B8010E94F0
:101B2000E80D2696E4E00C94CEC980916B038823DF
:101B300049F48BE493E10E94540F0E94BC0E02C052
:101B40000E94F72080916B038130D1F30895A6E0C5
:101B5000B0E0EDEAFDE00C94B0C90E94E90A009102
:101B6000000210E07E010894E11CF11C0CC0812FE2
:101B7000B7010E94200EC7016FED7DE00E94040EA8
:101B8000882349F41F5F101790F30E94FC0B8823F1
:101B900011F40E94F00C2696E6E00C94CCC90E9449
:101BA000CF0C882339F40E94670E813039F00E94EF
:101BB000B60E0895813011F00E94B60E0895089572
:101BC00002C00E94F7200E944B108823D1F708958D
:101BD0000F931F93CF93DF938C01EB010E94E00DD5
:101BE000C801BE010E94E90F8F5F9F4F11F481E091
:101BF00006C0CF5DDD4011F40E94E00D80E0DF9172
:101C0000CF911F910F9108950F931F93CF93DF935F
:101C10008C01EB010E94E00DC801BE010E948510FD
:101C20008F5F9F4F11F481E006C0CF5DDD4011F45E
:101C30000E94E00D80E0DF91CF911F910F910895F8
:101C4000A8E0B0E0E6E2FEE00C94B0C97B01082F0A
:101C500010E0B801660F771F660F771F6454784F46
:101C6000CE01019644E050E00E9454CA89819A81D5
:101C7000F701938382832B813C8131832083809180
:101C8000000290E001970817190739F480910102CA
:101C900090910202821B930B14C0000F111F000FC2
:101CA000111F0054184FCE010596B80144E050E0D2
:101CB0000E9454CA8F8198852B813C81821B930B93
:101CC000F701958384832896E6E00C94CCC9A6E0BE
:101CD000B0E0EDE6FEE00C94B0C90091000210E027
:101CE0007E010894E11CF11C0CC0812FB7010E94F9
:101CF000200EC7016FED7DE00E94E80D882321F4DE
:101D00001F5F101790F380E02696E6E00C94CCC994
:101D1000A4E0B0E0EEE8FEE00C94B4C99093571351
:101D200080935613662359F485E2BE016F5F7F4F9F
:101D30000E949E0B89819A81AB81BC8104C082E3A1
:101D400090E0A0E0B0E08093511390935213A093E1
:101D50005313B093541381E0809355138BE493E1B4
:101D60000E94790F2496E2E00C94D0C98CEB9EE09F
:101D700060E00E94880E0895ADE0B0E0E2ECFEE085
:101D80000C94A8C981E080936B037090000252E02C
:101D9000852E912C8C0E9D1E46E0642E38E0E32E9D
:101DA000F12CEC0EFD1E5E010894A11CB11C21E07B
:101DB000C22ED12C33C0B4010E94200EF701862D13
:101DC00011928A95E9F7BB86AA86DD86CC8600E06B
:101DD00010E01EC08A819B81800F911F99878887A0
:101DE000C7016FED7DE00E94E80DAA85BB85EC81FF
:101DF000FD81E00FF11F9C918081981739F0CE0191
:101E000002966CEB7EE00E94040E23C00F5F1F4F12
:101E10008E819F8108171907E8F215C080916C0325
:101E2000871548F210926C030E94F00C813031F457
:101E30008CEB9EE061E00E94880E0BC00E94B60E03
:101E400010926B0306C080916C038F5F80936C03CC
:101E5000E5CF2D96EEE00C94C4C98F929F92AF927D
:101E6000BF92CF92DF92EF92FF920F930E940B12DC
:101E70004B015C012091700330E040E050E060E0F5
:101E800070E080E090E000E20E94330A28293929BE
:101E90004A295B290F91FF90EF90DF90CF90BF9080
:101EA000AF909F908F900895CF93DF93EC010097B0
:101EB000D1F080916D0390916E038C179D0719F4FA
:101EC00060E070E008C08DE693E0BE010E946B11F7
:101ED000BC01009741F08DE693E0AE010E944D11E8
:101EE00020E030E002C02FEF3FEFC901DF91CF913A
:101EF0000895CF93DF93EC01009771F0E0916D03AB
:101F0000F0916E0306C0EC17FD07D9F00190F08147
:101F1000E02D3097C1F706C02FEF3FEFC901DF91E9
:101F2000CF9108950E94E7139B01AC01198218829A
:101F30006A837B838C839D838DE693E0BE010E9440
:101F4000FE1020E030E0EACFEF92FF920F931F9354
:101F5000CF93DF9318C08DE693E060E070E0AE01B0
:101F60000E944D118A85882359F4EA82FB820C83F2
:101F70001D838DE693E0BE01A80197010E94FE102B
:101F8000EB85FC85099580916D0390916E03892BFB
:101F9000D9F00E94E7137B018C01C0916D03D091B1
:101FA0006E038A819B81AC81BD81A8019701281BAA
:101FB000390B4A0B5B0B8E819F81A885B985281749
:101FC00039074A075B0738F6CDB7DEB7E6E00C9471
:101FD000CCC9FC0180916F03882319F02EEF3FEFED
:101FE00058C0309709F453C0848195812081318194
:101FF000820F931F8150904108F049C081E0809387
:102000006F0370935F1360935E13A8E5B3E186E0FE
:1020100001900D928150E1F7F999FECF20E030E078
:1020200017C0E0915A13F0915B13E20FF31F8091F8
:102030005813909159130196909359138093581304
:10204000019792BD81BDF89A80B580832F5F3F4F85
:1020500080915C1390915D132817390710F310924B
:102060005D1310925C1380918603806180938603D8
:102070002FB7F8948091BA039091BB03826090933C
:10208000BB038093BA032FBF20E030E002C02FEFE4
:102090003FEFC901089590E080916F03813009F40A
:1020A00091E0892F089580915C1390915D13892BA5
:1020B00051F410926F03E0915E13F0915F1330972B
:1020C00019F10995089560915813709159136F5F34
:1020D0007F4F709359136093581361507040E09193
:1020E0005A13F0915B134191F0935B13E0935A13F1
:1020F0008CE00E94181480915C1390915D130197FD
:1021000090935D1380935C130895CF93DF93FC014C
:1021100080916F03882319F02EEF3FEF6BC030974B
:1021200009F466C08481958120813181820F931FDB
:102130008150904108F05CC081E080936F03A8E576
:10214000B3E186E001900D928150E1F770935F1347
:1021500060935E13672B19F4C0E0D0E03BC0609140
:102160005813709159136F5F7F4F70935913609399
:10217000581361507040E0915A13F0915B134191F4
:10218000F0935B13E0935A138CE00E941814809133
:102190005C1390915D13019790935D1380935C1392
:1021A00024C060915813709159136F5F7F4F7093E3
:1021B00059136093581361507040E0915A13F09195
:1021C0005B134191F0935B13E0935A1384E00E94F8
:1021D0001814219680915C1390915D13C817D9074C
:1021E00000F3F999FECF10926F0320E030E002C0B7
:1021F0002FEF3FEFC901DF91CF910895A0E0B0E04C
:10220000E4E0F1E10C94ACC98C01EB0169017A01C5
:10221000FC01608171816115710589F1FB01AA24BE
:10222000BB24268137814085518582819381A48199
:10223000B581280F391F4A1F5B1F2C193D094E0914
:102240005F092F3F8FEF38078FEF48078FE7580759
:1022500048F48E819F81A885B985281739074A07D8
:102260005B0738F4808191815F01009761F0FC0188
:10227000D8CFE617F70731F4F983E883F801D18363
:10228000C08306C0CF01F501D183C08399838883C1
:10229000CDB7DEB7EAE00C94C8C9CF93DF93EC0169
:1022A000DB01FA01888199814817590739F4808147
:1022B000918111821082888399830AC080819181E3
:1022C00011969C938E93118210828C9111969C9101
:1022D000DF91CF910895FC010190F081E02D06C0BF
:1022E000808191818617970719F0FC013097C1F71B
:1022F000CF0108958FB7F894109278031092770366
:10230000109276038FBF0895809170008C7F809328
:1023100070008091B60080628093B6001092B20087
:102320001092B0001092B1001092B3008091B600EC
:1023300090E08F719070892BC9F783E087BB87E0AD
:102340008093B10080917000816080937000089547
:102350008091B60090E08F719070892BC9F78091C1
:1023600070008C7F809370008091B100887F809393
:10237000B10083B5826083BD8091B60090E08F711B
:102380009070892BC9F78091B6008F7D8093B6003D
:102390000895EF92FF920F931F937B018C01609140
:1023A000B200862F90E0809590959C01442737FDE0
:1023B0004095542F3070407050702E153F054007E7
:1023C000510798F4D801C701821B930BA40BB50BDE
:1023D0009C01AD01BB27A52F942F832F90937703EA
:1023E000809376032093780311C08091B60090E02B
:1023F0008F719070892BC9F76E0D6093B30082E0E6
:1024000087BB809170008260809370001F910F9154
:10241000FF90EF900895EF92FF920F931F936FB785
:10242000F894709171032091B20084E48093B40019
:102430008091B60090E08F719070892BC9F7B899A0
:1024400004C030E040E050E00AC08091B200282F84
:1024500030E040E050E021503F4F4F4F5F4F6FBFA3
:102460008FEF789FC0011124AA2797FDA095BA2F5E
:10247000820F931FA41FB51F9C01AD0175E0220FB1
:10248000331F441F551F7A95D1F77C018D0162E0FF
:1024900016950795F794E7946A95D1F72E0D3F1D91
:1024A000401F511FE0907203F0907303009174037A
:1024B000109175032E0D3F1D401F511F281B390B16
:1024C0004A0B5B0BB901CA011F910F91FF90EF906E
:1024D000089560E270E080E090E008952FB7F894EE
:1024E00060917103109271032FBF70E080E090E063
:1024F00020E43FE140E050E00E944FC92091720388
:10250000309173034091740350917503260F371F68
:10251000481F591F20937203309373034093740331
:1025200050937503261737074807590728F48091F9
:1025300070038F5F8093700308951F920F920FB600
:102540000F920BB60F9211242F933F934F935F93EB
:102550006F937F938F939F93AF93BF93EF93FF936B
:10256000809170008D7F809370001092780380912D
:10257000AF0380FF03C080E00E94EA148091AF03A4
:1025800082FF11C0809183038160809383032FB702
:10259000F8948091BA039091BB0382609093BB033F
:1025A0008093BA032FBFFF91EF91BF91AF919F919D
:1025B0008F917F916F915F914F913F912F910F90EC
:1025C0000BBE0F900FBE0F901F9018958091AF0318
:1025D00080FF0FC081E00E94EA14809170008D7F1F
:1025E000809370000E947A118091AF038B7F80935B
:1025F000AF0308951F920F920FB60F920BB60F9272
:1026000011242F933F934F935F936F937F938F93F7
:102610009F93AF93BF93EF93FF9380917603909135
:102620007703892BA1F5809178038823E9F48091C1
:10263000AF0380FF03C080E00E94EA148091AF03E3
:1026400082FF34C0809183038160809383032FB71E
:10265000F8948091BA039091BB0382609093BB037E
:102660008093BA032FBF22C08091B60090E08F7193
:102670009070892BC9F7809178038093B30082E032
:1026800087BB8091700082608093700009C0809148
:102690007603909177030197909377038093760365
:1026A0008091AF0380FF02C00E9476148091710375
:1026B0008F5F809371038091830382608093830393
:1026C0002FB7F8948091BA039091BB0382609093E6
:1026D000BB038093BA032FBFFF91EF91BF91AF91DE
:1026E0009F918F917F916F915F914F913F912F912A
:1026F0000F900BBE0F900FBE0F901F90189580E1AA
:1027000097E29093A9008093A800E1EAF0E088E0C6
:102710008083808182608083E2E7F0E08081826054
:102720008083089520917B0330917C0340917D0349
:1027300050917E03260F371F481F591F20937B039C
:1027400030937C0340937D0350937E0380918703F5
:102750008068809387032FB7F8948091BA03909193
:10276000BB0382609093BB038093BA032FBF08958D
:102770002FB7F89460917A0310927A032FBF70E01C
:1027800080E090E02AE030E040E050E00E944FC955
:1027900020917B0330917C0340917D0350917E0317
:1027A000260F371F481F591F20937B0330937C034C
:1027B00040937D0350937E03261737074807590738
:1027C00028F4809179038F5F8093790308950E94A4
:1027D000B81360917B0370917C0380917D0390918D
:1027E0007E0308951F920F920FB60F9211242F931C
:1027F0008F939F9380917A038F5F80937A03809168
:1028000087038068809387032FB7F8948091BA0379
:102810009091BB0382609093BB038093BA032FBF58
:102820009F918F912F910F900FBE0F901F90189531
:10283000982FF999FECF07B600FCFDCF72BD61BDA0
:1028400040BD8FB7F8949FBBF99A8FBF08951F9230
:102850000F920FB60F9211242F938F939F93FB9893
:10286000809186038061809386032FB7F8948091CE
:10287000BA039091BB0382609093BB038093BA0329
:102880002FBF9F918F912F910F900FBE0F901F9090
:1028900018950E940B1220917F0330918003409184
:1028A000810350918203621B730B840B950B109272
:1028B0007F031092800310928103109282030E9482
:1028C00092138091A10082608093A1000E9428163B
:1028D0000E94B9208091AF0381FD07C0E091A00361
:1028E000F091A103309709F0099508950E94CF1C3B
:1028F000882309F44EC08091AF0382FD03C02FEFFF
:102900003FEF66C024982C988091B60090E08F71BC
:102910009070892BC9F78091700081FD0AC08FEFFC
:102920008093B3008091B60090E08F719070892BF6
:10293000C9F78091B000806C8093B0008091B600A0
:1029400090E08F719070892BC9F78091B1008068F9
:102950008093B1008091B60090E08F719070892BC8
:10296000C9F78091B0008F738093B0008091B6005A
:1029700090E08F719070892BC9F78091B0008068CA
:102980008093B0008091B60090E08F719070892B99
:10299000C9F78091AF0381608093AF038091B60047
:1029A00090E08F719070892BC9F7809188038068BF
:1029B000809388032FB7F8948091BA039091BB035A
:1029C00082609093BB038093BA032FBF20E030E076
:1029D000C90108959091AF038170880F9C7F982B57
:1029E0009093AF030E94CF1C882311F42C980EC043
:1029F00024982C988091B0008F738093B0008091C0
:102A0000B60090E08F719070892BC9F7249A80915D
:102A100087038460809387032FB7F8948091BA036B
:102A20009091BB0382609093BB038093BA032FBF46
:102A300008958091AF0380FF5EC08091A1008D7FDB
:102A40008093A10080917F0390918003A0918103E6
:102A5000B09182030097A105B10551F40E940B12B9
:102A600060937F037093800380938103909382032C
:102A70000E94B52080918D038111EC9AF999FECFC7
:102A80000E94CF1C8823B1F42C9A249A8091AF0322
:102A900082FF05C087E083BF889513BE22C00E94D5
:102AA000A81185E083BF889513BE0E9484110E94FF
:102AB000F11517C0909172002091BC0030917A00FE
:102AC000109272001092BC0010927A00249A87E053
:102AD00083BF889513BE909372002093BC003093FF
:102AE0007A0084E48093B4008091B60090E08F7106
:102AF0009070892BC9F70895A0E0B0E0E2E8F5E115
:102B00000C94A8C900E8C2E8DBE810E092E8C92EFE
:102B10009BE8D92EE12CF12C82E8A82E8BE8B82E68
:102B20000E949709BC018BE86338780718F19E0171
:102B300040E050E0CB01A0E0B0E082589B48A040CC
:102B4000B040281739074A075B074CF4123039F4B4
:102B500080916600815080936600000036C08091AD
:102B600066008150809366000000EB01C258DB488C
:102B700011E028C08BE86238780739F1CE01A0E077
:102B8000B0E09B0140E050E036014701621A730A51
:102B9000840A950A86159705A805B9054CF41130E5
:102BA00039F4809166008F5F8093660000000DC04D
:102BB000809166008F5F809366000000E501C61B70
:102BC000D70B12E0015009F0ABCFCDB7DEB7EEE086
:102BD0000C94C4C90E94CF1C882311F40E947C1558
:102BE0000895CF93DF93C0E0D0E088EC0E948F0976
:102BF000219683E1C838D807C1F70E94EA15DF9112
:102C0000CF91089581E08CBB0895E89A08958DB323
:102C1000E898817008952C9A08952C9808952D9A1B
:102C200008952D9808952C98249A2D9A259A5098B5
:102C300058980895E9E6F0E08081836080830895E4
:102C400084E008950895089508950E94B920089594
:102C50001F9310E00E94292081E80E941220812FFA
:102C60000E941220182F0E942720183099F71F91D8
:102C700008950E948F0908958091830380FF0BC0FF
:102C80009FB7F894809183038E7F809383039FBFC7
:102C90000E942B2077C08091830381FF0BC09FB7D8
:102CA000F894809183038D7F809383039FBF0E945C
:102CB0006E1268C08091850387FF0BC09FB7F894A0
:102CC000809185038F77809385039FBF0E94A61A0A
:102CD00059C08091860383FF0BC09FB7F894809101
:102CE0008603877F809386039FBF0E942E1C4AC065
:102CF0008091860384FF0BC09FB7F8948091860370
:102D00008F7E809386039FBF0E9453103BC08091AB
:102D1000870382FF0BC09FB7F894809187038B7F56
:102D2000809387039FBF0E9449142CC08091870322
:102D300085FF0BC09FB7F894809187038F7D8093A8
:102D400087039FBF0E94121C1DC08091870387FFCD
:102D50000BC09FB7F894809187038F778093870388
:102D60009FBF0E94A40F0EC08091880387FF0AC0F6
:102D70009FB7F894809188038F77809388039FBFD3
:102D80000E941915809183038823A1F48091840304
:102D9000882381F480918503882361F480918603E0
:102DA000882341F480918703882321F4809188034C
:102DB000882361F02FB7F8948091BA039091BB03F8
:102DC00082609093BB038093BA032FBF08959091C4
:102DD000900321E030E002C0220F331F8A95E2F712
:102DE000922B909390038091850380688093850354
:102DF0002FB7F8948091BA039091BB0382609093AF
:102E0000BB038093BA032FBF0895CF93DF93E82FBE
:102E1000F0E0CF01805C9040A3E095958795AA955E
:102E2000E1F7482F50E0EA01CC0FDD1FC757DC4F18
:102E3000A881B981109721F481818F7781836CC03B
:102E400090968C91909783FD67C05496ED91FC917C
:102E5000559784FF09C06083E881F9818489958949
:102E60000196958B848B58C0EF2B09F455C01696AC
:102E7000CD91DC91179716968D919C91179701969D
:102E800017969C938E93169716962D913C911797B3
:102E900056968D919C9157972817390721F41796CC
:102EA0001C921E92169716962D913C911797149688
:102EB0008D919C9115972817390729F41796DC9363
:102EC000CE93169729C05496ED91FC915597EC0F2F
:102ED000FD1F608318968D919C9119970196199604
:102EE0009C938E931897440F551F47575C4FEA01E8
:102EF000E881F98180A180FF0FC08385883C61F45F
:102F000018962D913C911997868997899695879562
:102F10008217930708F45D9ADF91CF910895E82F07
:102F2000F0E0E05CF04083E0F595E7958A95E1F705
:102F3000F0E0EE0FFF1FE757FC4F0190F081E02D0E
:102F40003097C1F04FB7F89422813381808191810D
:102F50004FBF2817390711F481E08287828D938D46
:102F6000892B11F4118E108E068CF78DE02D309781
:102F700009F009950895E82FF0E0E05CF04023E0C7
:102F8000F595E7952A95E1F7F0E0EE0FFF1FE7577B
:102F9000FC4F0190F081E02D309791F080A1887175
:102FA00079F48FB7F894208531858FBF21153105CD
:102FB00039F0048CF58DE02D309711F0C901099599
:102FC000089590938F0380938E0381E080938D0307
:102FD000089510928D030895803C21F0883C11F0F3
:102FE00080E0089581E008951F93CF93DF93EC0173
:102FF000009751F11B85812F0E94EC17882321F146
:10300000E12FF0E0E05CF04043E0F595E7954A956C
:10301000E1F7F0E0EE0FFF1FE757FC4F8081918151
:10302000C817D90789F44FB7F8942A813B81888162
:1030300099814FBF2817390719F020E030E006C00A
:103040008A85282F30E002C02FEF3FEFC901DF91C2
:10305000CF911F910895A0E0B0E0E1E3F8E10C9476
:10306000ACC98C015B016A01009709F46DC0DC01F9
:103070001B96FC908F2D0E94EC17882309F464C0E6
:10308000A114B10409F460C0C114D10409F45CC0F6
:10309000EF2DF0E0E05CF040A3E0F595E795AA9510
:1030A000E1F7F0E0EE0FFF1FE757FC4FC081D18141
:1030B0000C171D0709F048C08FB7F894F801668116
:1030C0007781248135818FBF40E050E01AC07501BF
:1030D000E40EF51ED8015496ED91FC915597E20F40
:1030E000F31F8081F70180832F5F3F4F56968D91AC
:1030F0009C9157972817390711F420E030E04F5F73
:103100005F4F2617370719F04C155D0500F38FB791
:10311000F8943D832C8328853985241B350B39870A
:103120002887288539858FBF8B85883C59F488A1ED
:1031300080FF08C08E899F8996958795821793078F
:1031400008F05D989A0102C02FEF3FEFC901CDB79B
:10315000DEB7EAE00C94C8C9A0E0B0E0E2EBF8E129
:103160000C94AAC9EC016B018A01009709F46FC0A5
:10317000FB848F2D0E94EC17882309F468C0C114CA
:10318000D10409F464C00115110509F460C0EF2DE4
:10319000F0E0E05CF04083E0F595E7958A95E1F793
:1031A000F0E0EE0FFF1FE757FC4F80809180C815BD
:1031B000D90509F04CC08A8D9B8D892B81F42A8119
:1031C0003B81888199812817390709F040C0D98E41
:1031D000C88E1B830A8319821882B80130C08FB74A
:1031E000F894AA80BB80E880F9808FBFA50160E0D9
:1031F00070E019C09A012F5F3F4F8A8D9B8D281771
:10320000390711F420E030E02E153F0579F0E88D04
:10321000F98DE40FF51FD601A60FB71F8C9180839F
:103220006F5F7F4FA9016017710720F38FB7F89484
:10323000F401538342838FBFAE14BF0431F41A8666
:10324000EB85F0E08181806281839B0102C02FEFDA
:103250003FEFC901CDB7DEB7ECE00C94C6C9FC0165
:1032600083899385882349F4903C19F0983C89F42C
:1032700002C06A9A0895559A0895903C19F0983CB6
:1032800041F404C06A987298729A089555985D98AE
:103290005D9A08951F93CF93DF93FC010097B1F1DE
:1032A0001385812F0E94EC17882381F1812F90E0F4
:1032B000805C904033E0959587953A95E1F7C82F6B
:1032C000D0E0DE01AA0FBB1FA757BC4FED91FC91C8
:1032D00011973097D9F0E385F0E01182ED91FC91E0
:1032E00080A180FF02C055985D988485803429F4C0
:1032F00081E0838BCF010E942F19CC0FDD1FC757B0
:10330000DC4F1982188220E030E002C02FEF3FEF3F
:10331000C901DF91CF911F91089580EC0E948F1712
:10332000089580EC0E94BB17089588EC0E948F17C7
:10333000089588EC0E94BB170895CF93DF93282F40
:10334000A82FB0E0CD01805C904033E09595879543
:103350003A95E1F7C82FD0E0FE01EE0FFF1FE757C7
:10336000FC4F608171816115710509F476C0283CBC
:10337000D1F5FB0180A1282F81FD02C030E009C0FA
:103380008CB190E0E4E096958795EA95E1F7382FC7
:10339000317020FD02C080E008C089B190E054E0A7
:1033A000969587955A95E1F78170332311F4882318
:1033B000D1F08AE090E0A0E0B0E080939703909392
:1033C0009803A0939903B0939A0381E080939B03A1
:1033D00080E39AE190939D0380939C0381E993E0BD
:1033E0000E94790F3AC02FB7F894FB018281938134
:1033F000408151812FBF8417950749F1808D918DB0
:10340000840F951FFC0190819A012F5F3F4F8C9193
:1034100080648C9316969C931697CC0FDD1FC7572C
:10342000DC4FE881F981828D938D2817390711F4DB
:1034300020E030E011968C911197806211968C9368
:103440008FB7F894FB01318320838FBF06C011969C
:103450008C911197806411968C93DF91CF91089590
:1034600088EC0E949D19089588EC0E949D1908958A
:1034700080EC0E949D1908951F93CF93DF93EC0178
:10348000009709F45CC01B85812F0E94EC178823EC
:1034900009F455C088A1282F30E0A901417050706F
:1034A00080FF03C0183C09F04AC0812F90E0805C87
:1034B000904073E0959587957A95E1F7E82FF0E0D5
:1034C000EE0FFF1FE757FC4F80819181892BB9F5E3
:1034D000D183C083183C81F421FF02C06C9874989A
:1034E000452B51F0559A54985C988C899D89892B6D
:1034F00011F45D9A01C05D988C85803419F4CE0179
:103500000E942F19198218821B821A828C899D8928
:10351000892B11F41F8A1E8A888D998D892B11F4AD
:103520001B8E1A8E1D821C821F821E8281E08A875A
:10353000CE010E94F81C8B85282F30E002C02FEFAF
:103540003FEFC901DF91CF911F910895CF92DF9294
:10355000FF920F931F93DF93CF9300D00F92CDB7BD
:10356000DEB781E08983FF2400E010E0F2E0CF2E97
:10357000D12CCC0EDD1E9091900389818923B9F066
:103580002FB7F894909190038981892780939003B5
:103590002FBF6F2D70E0660F771F605F774FC601FA
:1035A00042E050E00E9454CAEA81FB810995F394FD
:1035B0008981880F89830F5F1F4F06301105D9F667
:1035C0000F900F900F90CF91DF911F910F91FF906F
:1035D000DF90CF90089587E080939E0380E98093E9
:1035E000BC00809187038062809387032FB7F89493
:1035F0008091BA039091BB0382609093BB03809348
:10360000BA032FBF089580919E03823041F08091CC
:103610009E03833021F080919E03843021F48091B9
:103620006413880F08C080919E03853051F4809107
:103630006413880F8F5F8093BB0085E88093BC0084
:1036400008950E94EB1A089590916313809162137C
:10365000981790F480916313E0916013F0916113D7
:10366000E80FF11D90818F5F809363139093BB00EF
:1036700085E88093BC00089586E080939E0384E9EA
:103680008093BC00809187038062809387032FB76B
:10369000F8948091BA039091BB0382609093BB032E
:1036A0008093BA032FBF089580916513909166139C
:1036B000A0916713B0916813209163132150209358
:1036C000631320916313220F220F220F04C0B695BB
:1036D000A795979587952A95D2F78093BB0085E8A3
:1036E0008093BC0080916313882359F480919E03DA
:1036F000823021F484E080939E03089585E08093D6
:103700009E03089580919E03843019F40E94241B27
:10371000089580919E03823021F080919E03833032
:1037200019F40E94541B089580919E03853021F462
:1037300085EA8093BC0008950E94EB1A0895809159
:103740009E03853099F480916213813021F4809139
:10375000BC008F7B03C08091BC0080648093BC0060
:103760008091BC0085688093BC0008950E94EB1A8C
:103770000895982F80919E03853029F580916313D9
:10378000E0916013F0916113E80FF11D90838F5F5A
:1037900080936313209163138091621330E090E073
:1037A00001972817390724F48091BC00806403C076
:1037B0008091BC008F7B8093BC008091BC008568A9
:1037C0008093BC0008950E94EB1A0895982F809171
:1037D0009E03853021F580916313E0916013F09191
:1037E0006113E80FF11D90838F5F8093631386E070
:1037F00080939E0384E98093BC008091870380625C
:10380000809387032FB7F8948091BA039091BB03FC
:1038100082609093BB038093BA032FBF08950E94E8
:10382000EB1A0895E0916913F0916A13309791F0C3
:1038300080919E03863041F48091BC0084FDFCCFD2
:1038400081E080939E0304C081E080939E0380E02A
:103850000995089581E080939E03089580919F03C8
:10386000813051F482E080939F03E0916B13F091DB
:103870006C13309709F00995089580919F03882370
:1038800019F42FEF3FEF06C010929F030E941A1FFA
:1038900020E030E0C9010895982F80919F03823085
:1038A00079F4892F8450843058F0903148F481E0C5
:1038B00080939F03892F0E94861F20E030E002C082
:1038C0002FEF3FEFC9010895CF93DF93EC01809173
:1038D0009F03882319F5209709F18B819C81892BFF
:1038E000E9F028812230D0F48A8190E08F739070C3
:1038F000892BA1F4213019F48981833078F082E09A
:1039000080939F03CE010E94D31F8F81988590934F
:103910006C1380936B1320E030E002C02FEF3FEF79
:10392000C901DF91CF910895ADE0B0E0EAE9FCE193
:103930000C94B4C9FC01009719F42FEF3FEF2AC093
:10394000848195819093A1038093A00380819181CC
:10395000A281B3818F839887A987BA8781E08B87FB
:103960001D861C86CE0101960E9454202FEF8F3FAA
:10397000920771F08D5F9F4F59F00E9476148F5F10
:103980009F4F19F020E030E005C02DEF3FEF02C05F
:103990002EEF3FEFC9012D96E2E00C94D0C9809143
:1039A000B0030895F999FECF9FB7F894E0E0F0E0F6
:1039B00089E08093570084919FBF8F70823019F403
:1039C0001092B00303C081E08093B0038091B003F4
:1039D000882369F48FB7F8945F9350E8509361009F
:1039E00050E0509361005F918FBF0E94F1150895E0
:1039F000DC011B96EC911B97F0E011821B96EC9179
:103A00001B97F0E01D968D919C911E979583848362
:103A10001C968C911C971B96EC911B97882349F45C
:103A2000F0E082E080831B96EC911B97F0E012821D
:103A30000AC0F0E010821B96EC911B97F0E05296C2
:103A40008C91529782831B96EC911B97F0E08281B8
:103A50001C969C911C97892B82831B96EC911B973B
:103A6000F0E082811F969C911F97892B82831B9681
:103A7000EC911B97F0E0828150969C915097892B96
:103A800082831B96EC911B97F0E0828151969C916A
:103A90005197892B82831B96EC911B97F0E08081D4
:103AA000806880831B96EC911B97F0E08181886190
:103AB00081831B96EC91F0E0818180688183089579
:103AC0001F920F920FB60F920BB60F9211242F93E5
:103AD0003F934F935F936F937F938F939F93AF9396
:103AE000BF93EF93FF930E94E61280918D038111A3
:103AF000EC98E0918E03F0918F03309709F00995CF
:103B0000FF91EF91BF91AF919F918F917F916F91B5
:103B10005F914F913F912F910F900BBE0F900FBE71
:103B20000F901F9018951F920F920FB60F920BB621
:103B30000F9211242F933F934F935F936F937F9333
:103B40008F939F93AF93BF93EF93FF938091C800A0
:103B50006091CE008C7131F488EC0E94051785E0ED
:103B60000E94E716FF91EF91BF91AF919F918F91C6
:103B70007F916F915F914F913F912F910F900BBE6D
:103B80000F900FBE0F901F9018951F920F920FB6B7
:103B90000F920BB60F9211242F933F934F935F9385
:103BA0006F937F938F939F93AF93BF93EF93FF9305
:103BB000E9ECF0E080818F7B808384E00E94E7164F
:103BC000FF91EF91BF91AF919F918F917F916F91F5
:103BD0005F914F913F912F910F900BBE0F900FBEB1
:103BE0000F901F9018951F920F920FB60F920BB661
:103BF0000F9211242F933F934F935F936F937F9373
:103C00008F939F93AF93BF93EF93FF93E9ECF0E013
:103C100080818F7D808383E00E94E716FF91EF9182
:103C2000BF91AF919F918F917F916F915F914F91D4
:103C30003F912F910F900BBE0F900FBE0F901F90D2
:103C400018951F920F920FB60F920BB60F92112478
:103C50002F933F934F935F936F937F938F939F9394
:103C6000AF93BF93EF93FF938091C0006091C60024
:103C70008C7131F480EC0E94051782E00E94E716F7
:103C8000FF91EF91BF91AF919F918F917F916F9134
:103C90005F914F913F912F910F900BBE0F900FBEF0
:103CA0000F901F9018951F920F920FB60F920BB6A0
:103CB0000F9211242F933F934F935F936F937F93B2
:103CC0008F939F93AF93BF93EF93FF93E1ECF0E05B
:103CD00080818F7B808381E00E94E716FF91EF91C6
:103CE000BF91AF919F918F917F916F915F914F9114
:103CF0003F912F910F900BBE0F900FBE0F901F9012
:103D000018951F920F920FB60F920BB60F921124B7
:103D10002F933F934F935F936F937F938F939F93D3
:103D2000AF93BF93EF93FF93E1ECF0E080818F7D41
:103D3000808380E00E94E716FF91EF91BF91AF91E1
:103D40009F918F917F916F915F914F913F912F91B3
:103D50000F900BBE0F900FBE0F901F9018951F92E3
:103D60000F920FB60F920BB60F9211242F933F9321
:103D70004F935F936F937F938F939F93AF93BF9373
:103D8000EF93FF938091B90090E0887F9070883224
:103D9000910559F1893291058CF48031910511F129
:103DA000813191052CF4009719F1089781F51AC01B
:103DB00088319105D1F0809751F51AC0883491056A
:103DC000B9F0893491053CF48033910589F0803451
:103DD0009105E9F410C08035910581F08835910591
:103DE000B1F411C00E94031B12C00E94821B0FC0BD
:103DF0000E94EB1A0CC00E949F1B09C08091BB005F
:103E00000E94B91B04C08091BB000E94E61BFF9179
:103E1000EF91BF91AF919F918F917F916F915F9142
:103E20004F913F912F910F900BBE0F900FBE0F90AF
:103E30001F90189510927C0010927A0010927E00CC
:103E400008951F920F920FB60F920BB60F92112486
:103E50002F933F934F935F938F939F93EF93FF9392
:103E60008091B103E091B203F091B303882351F440
:103E70008091B4039091B50320917900E80FF91F68
:103E800020830FC08091B4039091B50340917800D6
:103E9000509179009C01220F331FE20FF31F5183D1
:103EA000408301969093B5038093B4032091B403AB
:103EB0003091B5038091B6039091B7032817390765
:103EC000B1F480917A00877F80937A008091860395
:103ED0008860809386032FB7F8948091BA039091FD
:103EE000BB0382609093BB038093BA032FBFFF9103
:103EF000EF919F918F915F914F913F912F910F90F3
:103F00000BBE0F900FBE0F901F901895282F109288
:103F1000B5031092B403843048F481E090E0022E9F
:103F200002C0880F991F0A94E2F717C0883011F079
:103F30008A3011F481E011C0893011F08B3011F416
:103F400083E00BC08C3011F08E3011F484E005C09A
:103F50008D3011F08F3019F48CE080937E008091C9
:103F60007C0090917C00907E90937C0090917C00EE
:103F7000922B90937C008F71821729F0243018F0D7
:103F80008DE70E948F098091B6039091B703029745
:103F900020F080917A00886603C080917A0088645E
:103FA00080937A000895A1E0B0E0E9EDFFE10C9480
:103FB000B4C9FC01858196819093B7038093B603C1
:103FC00080818093B103838194819093B303809324
:103FD000B203828180937C008091B103882329F40D
:103FE00080917C00806280937C00618170E0645EDF
:103FF000774FCE01019641E050E00E9454CA89817A
:10400000806880937A002196E2E00C94D0C9289AC7
:1040100023982B98229A219A209A80E58CBD81E0E2
:104020008DBD08958EBD000000000000000000005E
:104030000000000000000000000000000000000080
:1040400000000000000000008DB58EB50895289A8C
:104050000895289808959091AF0392FF24C080910D
:10406000AC038823B1F4E091AD03F091AE03309737
:1040700009F009958091AF0382FF15C06091A803F4
:104080007091A9038091AA039091AB030E94C9117A
:1040900008959B7F9093AF03E091AD03F091AE0341
:1040A000309709F009950895CF93DF93EC010097BD
:1040B00019F42FEF3FEF2EC00E9469122E813F812D
:1040C000488559850E944FC928EE33E040E050E012
:1040D0000E9482C9B901CA01611571058105910566
:1040E00019F42EEF3FEF16C02091AF0322FF03C05B
:1040F0002DEF3FEF0FC024602093AF03A2EAB3E09F
:10410000FE012DE001900D922150E1F70E94C911AE
:1041100020E030E0C901DF91CF9108950F931F9304
:10412000182F0E940716082F8091B803813019F4C8
:104130008093B90302C0882311F011E00EC084E01F
:104140000E94907D103819F4682F606802C0682FB3
:104150006F7784E00E94A27D10E0002311F00E949E
:104160000516812F1F910F91089580E00E948E20E7
:10417000089580E80E948E200895E0E0F0E021E0BC
:1041800030E0B9010E2E02C0660F771F0A94E2F7E5
:104190008091BA039091BB0386239723892BC9F0A2
:1041A0004FB7F8942091BA033091BB03CB018095AF
:1041B0009095822393239093BB038093BA034FBFC0
:1041C000EE0FFF1FED5FFD4F0190F081E02D09958F
:1041D00004C03196EB30F105A1F68091BA039091BD
:1041E000BB0320E0892B09F021E0822F08950E9473
:1041F000BD2008950E9451C40E94C97C2FB7F89435
:104200008091BA039091BB0380619093BB0380932C
:10421000BA032FBF089521E030E002C0220F331F00
:104220008A95E2F78091190290911A02822B932BC2
:1042300090931A02809319022FB7F8948091BA03D1
:104240009091BB0380619093BB038093BA032FBF0F
:10425000089521E030E002C0220F331F8A95E2F773
:10426000209530958091190290911A028223932310
:1042700090931A02809319020895209119023091A7
:104280001A0221153105A9F1E0E0F0E061E070E0EB
:10429000AB010E2E02C0440F551F0A94E2F7CA016B
:1042A00082239323892B09F12427352730931A027F
:1042B00020931902EE0FFF1FE55EFD4F0190F08184
:1042C000E02D09958091190290911A02892B89F0AD
:1042D0002FB7F8948091BA039091BB0380619093BB
:1042E000BB038093BA032FBF08953196E630F105E2
:1042F00079F6089580930118882319F481E00E94CB
:104300000B2108958093E017882361F4809167174B
:1043100090916817892B19F082E00E940B2181E0AF
:104320000E940B2108959093DF178093DE1781E0A0
:104330000E940B210895CF93DF938091E017823084
:1043400041F483E00E94822181EE97E10E94A62839
:10435000B7C0882309F0B4C0809101188130F9F406
:104360000E94822180E2E1EEF7E1DF011D928A9551
:10437000E9F780912018909121189F778F3191054E
:1043800018F40E94788405C0C097099710F40E9421
:10439000CD898091E017823009F092C08EC0809163
:1043A000DE179091DF17892B09F48AC081E00E9403
:1043B000822180E2E1EEF7E1DF011D928A95E9F7C3
:1043C00083E692E29093FB178093FA17E091DE1751
:1043D000F091DF17C681D781DF7782E00E948221CA
:1043E000E091DE17F091DF17EC57FF4F1082CF31CD
:1043F000D10518F40E94CF8305C0E097299710F4E7
:104400000E946F8CE091DE17F091DF178681978113
:104410009093F2178093F1178331910551F088330F
:10442000910539F0B0E888339B0719F08052904825
:1044300031F4E091DE17F091DF1783E001C082E0F4
:1044400084838091F4179091F517009771F4E091AF
:10445000DE17F091DF1787E084831092DF17109248
:10446000DE1780E00E94822128C001969093F51704
:104470008093F417E091DE17F091DF178681978122
:1044800097FF06C0F196F093F717E093F61715C063
:104490008091DD1781AB8F5F8093DD17E091DE1790
:1044A000F091DF1781A985838091DE179091DF1746
:1044B000C1969093F7178093F61781E00E940B2125
:1044C000DF91CF910895DC01E091DE17F091DF17C5
:1044D00022A933A944A955A9EC57FF4F8C91808399
:1044E000E091DE17F091DF178481833049F0863048
:1044F00001F1823029F58C91882301F584E01FC0F9
:104500008C918823D9F486819781C897B9F48185E5
:104510009285885F9F4F90F086A98E3F79F4CA01FB
:10452000B9010E94E088E091DE17F091DF1788E082
:1045300006C08C91882311F485E001C087E0848354
:104540001092DF171092DE1780E00E9482210895FA
:104550000F931F93CF93DF93EC018E8D9F8D97FF69
:1045600071C08853904809F46DC0A0916717B0914D
:10457000681764C0EAA1FBA1908115968C911597EC
:10458000981709F056C014968C911497823039F41C
:1045900016968D919C911797069769F477C0843091
:1045A00009F047C016968D919C911797069709F4CC
:1045B0006BC087E001C083E014968C9314978E85BE
:1045C000823059F4A658BF4F1D928F859889119655
:1045D0009C938E93AB57B0401BC08330C9F4A65850
:1045E000BF4F81E08C93AA57B040FD01E558FF4FC3
:1045F000898980838A8981838B8982838C8983835B
:104600008D8984838E8985838F898683888D87832E
:10461000FD01ED57FF4F87E4DF011D928A95E9F711
:104620006AA17BA148A159A1CF010E94A2CA82E040
:1046300028C08C9111969C919C01D901109709F08A
:1046400099CF26C080910118882311F50FE218E157
:104650006AA17BA148A159A1C8010E94A2CAD801A0
:104660009D97FE018DE201900D928150E1F78FE25E
:1046700098E1909325188093241881E00E947A2174
:1046800081E00E940B2104C085E096CF86E094CFA4
:10469000DF91CF911F910F91089581E00E94292110
:1046A0001092DF171092DE171092E0178DE2E2E011
:1046B000F8E1DF011D928A95E9F7EFE2F8E18FE575
:1046C000DF011D928A95E9F7F0932518E0932418ED
:1046D000109201180895FC0187E07695679557952B
:1046E00047958A95D1F75383428308950F931F937B
:1046F000CF93DF93C0916717D091681707E01DE053
:1047000021C02C818A819B81009791F42430B1F4DF
:104710008E819F81FE01EC57FF4F069711F41083A5
:1047200002C082E080830C8382E00E940B2106C0DD
:104730002250233018F401979B838A8388819981C2
:104740009C01E9012097E9F6DF91CF911F910F912C
:104750000895EF92FF920F931F93CF93DF93C09131
:104760006717D091681722E0E22E94E0F92E17E047
:1047700001E07DC08C81873028F4853050F5882396
:1047800039F071C08730B9F1883009F06CC01CC0B5
:1047900080918E1890918F1892FF0CC08091DE1737
:1047A0009091DF17892B09F05EC00C83CE010E9427
:1047B000932159C01C83CC57DF4F1883C458D04075
:1047C00082E00E940B214FC0D0937216C0937116E5
:1047D0004AC0853011F4FC8201C0EC82C858DF4F1A
:1047E000E881F981C857D0403097E9F1CE01865869
:1047F0009F4F099538C087E697E1BE010E948581E9
:104800008E819F810197C9F4CC57DF4F8881C458AE
:10481000D040882391F4DE01A357BF4FFE01EB5730
:10482000FF4F00811181228133814481558166814E
:1048300077818D919C910E946E5EC858DF4FE88110
:10484000F981C857D040309721F0CE0186589F4F4C
:1048500009958091671790916817892B59F082E02C
:104860000E940B2107C0888199819C01E901209752
:1048700009F080CFCDB7DEB7E6E00C94CCC9EF925B
:10488000FF920F931F93CF93DF93EC0140914E1251
:1048900050914F124115510569F40E9402477B0166
:1048A0008C010E94A64CAB01BC014E0D5F1D601F28
:1048B000711F02C060E070E0CE010E946B231C8279
:1048C00087E697E1BE010E945D8182E00E940B2194
:1048D000CDB7DEB7E6E00C94CCC90F931F9382E00E
:1048E0000E94292110926817109267170E944D2389
:1048F0000E94DC8809E617E1C8010E94540F10925B
:10490000731786E793E2909375178093741780E886
:1049100090E0A0E0B0E080936F1790937017A093A1
:104920007117B0937217C8010E94790F1F910F91F0
:104930000895FC01DA010097D9F0638F4115510504
:1049400051F08D919D910D90BC91A02D848F958FEC
:10495000A68FB78F04C0148E158E168E178E218DDC
:10496000328D2115310521F0CF014B96F9010995C2
:1049700008952091751330917613FC01EC5BFF4F85
:1049800080819181821B930B63E270E00E946EC96B
:1049900083E2689FB0011124620F731FCB01089559
:1049A000FC01009729F48091C9039091CA030895EE
:1049B0008081918108950F931F93182F062FA0E0F7
:1049C000B0E010C01F3F21F412960C9312970AC05A
:1049D0001396ED91FC9114978081181719F4129693
:1049E0000C9306C0CD010E94D024DC01009751F742
:1049F0001F910F91089560E00E94DB24089561E00B
:104A00000E94DB2408951F93182FA0E0B0E007C098
:104A10001396ED91FC9114978081181731F0CD0118
:104A20000E94D024DC01009799F7CD011F910895D1
:104A3000FF920F931F93082FA0916D134091721353
:104A40005091731390E060E070E081C0FA01E60FCE
:104A5000F71F9B01285A3F4F878180FD76C0EC5B92
:104A6000FF4F11821082E454F0400230F1F0023026
:104A700018F0033009F06EC09091711380916F139C
:104A8000981708F067C09F5F909371131382148288
:104A900015821682E0917213F0917313E60FF71FDF
:104AA00080858F70808712823BC0909170138091B7
:104AB0006E13981708F04EC0F0907413E0917513C0
:104AC000F091761310E040E050E024C0DF018081D7
:104AD000B3969A012D5D3F4F8823D1F49F5F909349
:104AE000701321E02C93E0917213F0917313E60F91
:104AF000F71FEC5BFF4F8091751390917613840F35
:104B0000951F489691838083E454F040228304C02B
:104B10001F5FA9011F15D0F2809174138117D1F086
:104B2000E0917213F0917313E60FF71F8085807F79
:104B30008087000F01600783118210822091721319
:104B400030917313260F371F07C09F5FB9019A1763
:104B500008F47CCF20E030E0C9011F910F91FF9055
:104B60000895CF93DF932091721330917313821BBA
:104B7000930B68E570E00E946EC988E5689FE001CC
:104B80001124F901EC0FFD1F8781869590E082309A
:104B9000910569F08330910514F0039731F5809108
:104BA0007113882311F18150809371131EC080917D
:104BB0007013882319F0815080937013209175131E
:104BC00030917613EC5BFF4F80819181821B930BB8
:104BD00063E270E00E946EC983E2689FF0011124D5
:104BE000E20FF31F808181111082E0917213F09126
:104BF0007313EC0FFD1F87818E7F8783DF91CF9129
:104C00000895CF93DF93EC01E881F981442371F497
:104C1000CD5ADF4F88819981AA81BB81C355D0408D
:104C2000848F958FA68FB78F638F03C04250423019
:104C300050F488819981638D7C96AF010E949924FC
:104C4000CE010E94B125DF91CF9108952091741378
:104C5000E0917513F091761390E005C08081B396D2
:104C60008823A9F49F5F9217C8F320916D13E091F8
:104C70007213F091731390E006C08781E85AFF4FDA
:104C800080FD05C09F5F9217C0F380E0089581E02A
:104C9000089521E030E002C0220F331F8A95E2F729
:104CA0008091ED03822B8093ED032FB7F8948091D0
:104CB000BA039091BB0380629093BB038093BA03C5
:104CC0002FBF0895A2E0B0E0E8E6F6E20C94B4C984
:104CD0004091EE032091ED03522F642F30E06F5F7F
:104CE000683008F060E0C901062E02C096958795ED
:104CF0000A94E2F780FF1CC06093EE0381E090E02D
:104D0000062E02C0880F991F0A94E2F75827509385
:104D1000ED0370E0660F771F6F5D774FCE01019650
:104D200042E050E00E9454CAE981FA81099504C02A
:104D30004617A9F64093EE038091ED03882361F0B6
:104D40002FB7F8948091BA039091BB03806290933F
:104D5000BB038093BA032FBF2296E2E00C94D0C924
:104D6000FF920F931F938C01F62E85EC93E00E9427
:104D70007581D8011796FC9217971596ED91FC91C5
:104D80001697C801079609958091C5039091C603AF
:104D9000892B19F080E00E9449261F910F91FF9006
:104DA00008950F931F930E943CCA8C0194E0000F5A
:104DB000111F9A95E1F700700E943CCA282F30E03D
:104DC000202B312BC9011F910F910895ADE2B0E066
:104DD000ECEEF6E20C94ACC97C01A62EDC011A962E
:104DE0000D911C911B9715966D917C9116978BECEC
:104DF00093E0F80147810E941B82882309F4C6C012
:104E0000D80111969C91892F81508E3F18F0CC24A7
:104E1000DD2404C0892F0E9403256C01F8018181E3
:104E200081508E3F20F4C114D10409F4AFC022E0B8
:104E3000B22EBB82D70113968D919C9114979D83BE
:104E40008C83F80181818E8715968D919C911697A0
:104E50000E94B45D9C01009759F083E08F87DE01CA
:104E60005296F90188E001900D928150E1F701C05E
:104E7000BF86D70115968D919C911697998B888B3B
:104E800017968D919C9118979B8F8A8FF801868138
:104E90008C8F848195819E8F8D8F8281938198A341
:104EA0008F8F19962C9130E02A5030403AA329A3D5
:104EB000265F3F4F1DA2808187FD07C028503040EC
:104EC0003AA329A3285F3F4F0BC0D80118968C91B5
:104ED000837031F4295030403AA329A3275F3F4F14
:104EE00089A19AA1281B390BF70182859385820F2E
:104EF000931F9CA38BA3AEA282898FA3848588A7CE
:104F000086859785A089B18989A79AA7ABA7BCA7F1
:104F100085858DA7C114D10449F0D6011596ED9170
:104F2000FC911697CE010196099530C0F801818158
:104F30008F3F41F500E010E06E010894C11CD11CC8
:104F40001AC0D8011396ED91FC91149780818823A3
:104F500091F012968C911297882369F42181328105
:104F60008D8D9E8D2817390731F41596ED91FC91A2
:104F70001697C6010995C8010E94D0248C0100979C
:104F800001F704C0CE0101960E94A822F701158AFC
:104F90000388F489E02DC70145960995AD96EAE0AE
:104FA0000C94C8C9CF93DF93EC01DB01A45BBF4F26
:104FB00082E498E211969C938E931C9782E08D93E5
:104FC0002B813C8111963C932E931796888D8D935F
:104FD0001D9281E08D938C9318978B89885F8D93B8
:104FE000ED89FE8938971196FC93EE93A454B04056
:104FF0009081892F8C7E8083907E275F3F4F08F0C1
:10500000986090832081922F9F7D90838F8982FD6D
:1050100003C02F79208313C09064908318968C91DD
:105020001897807F816018968C9318979091E4036D
:105030009295907F8F70892B18968C93189780810A
:105040008F7780838D8581838889998993838283F3
:105050008E859F85958384838A8986838091D503F5
:105060008F5F8093D503815087838091C2038F5FC8
:105070008093C203CD0109960E94305880E0DF91F1
:10508000CF910895BC018091C20381508093C203E7
:105090008EEB93E00E945D8181E00E944926089595
:1050A0000F931F93BC010091C5031091C60385ECBB
:1050B00093E00E945D81012B19F480E00E94492653
:1050C0001F910F910895FC0185EC8283CF010E940E
:1050D00050280895FC018AE88283CF010E9450285D
:1050E0000895FC0189E18283CF010E945028089530
:1050F000CF93DF93EC010097E9F086EA8F83EB8191
:10510000FC813097B9F09081892F8150803F90F4D5
:10511000892F0E940325892B69F420E08D819E81CF
:10512000892B09F421E02A8389EC93E0BE010E94D7
:105130005D811F82DF91CF910895BC0180EC93E0E7
:105140000E945D8181E00E9449260895BC0183ECA4
:1051500093E00E945D8181E00E944926089588E3E2
:1051600064E773E10E949E0B88E465E773E10E94A7
:10517000770B20E043E250E012C0822F90E0BC01A8
:10518000649FC001659F900D749F900D1124E09164
:105190007513F0917613E80FF91F10822F5F80913D
:1051A0007413281750F387E36DE673E10E949E0B9A
:1051B00087E462E773E10E94770B20916D13E09121
:1051C0007213F091731390E006C087818E7F8783FE
:1051D0009F5FE85AFF4F9217C0F38091741380933A
:1051E0006E13223008F0215020936F131092701329
:1051F000109271130895FF920F931F9301E010E036
:1052000038E5F32E34C01F9DC0011124E0917213C4
:10521000F0917313E80FF91F978190FF27C08085E5
:105220008F70823019F5892F8E7F823011F0863091
:10523000E9F483819481A581B6818A309105A10525
:10524000B10548F00A97A109B10983839483A58326
:10525000B68300E00BC08085807F846080871382E6
:1052600014821582168281E00E9449261F5F809178
:105270006D13181740F2002321F086ED93E00E9491
:105280009C821F910F91FF90089580E191E090938F
:10529000BD038093BC031092C6031092C503109205
:1052A000ED031092EE031092CA031092C9030E94FC
:1052B000AF280E94D0580895A8E0B0E0E2E6F9E2F5
:1052C0000C94B0C9F0907B128EE2BE016F5F7F4FED
:1052D0000E949E0B8E010B5F1F4F87E1B8010E9459
:1052E0009E0B2D813E814F8158858F2D90E0A0E04F
:1052F000B0E082179307A407B50760F0220F331FB1
:10530000441F551F2D833E834F83588787E1B80183
:105310000E94840B2F2D30E0295F3F4F442737FD3B
:105320004095542F2093E5033093E6034093E70321
:105330005093E803E980FF2400E010E0C801B701C2
:10534000660F771F881F991F6E0D711D811D911D9E
:105350000E944FC92D813E814F815885260F371FEE
:10536000481F591F2093E9033093EA034093EB034E
:105370005093EC0386ED93E060E02AE030E040E0FB
:1053800050E00BEF18E20E94A58289E3BE016E5F38
:105390007F4F0E949E0B82E4BE016D5F7F4F0E9493
:1053A000770B7091E403E090E903F090EA03009139
:1053B000EB031091EC0360E020E030E040E050E0CF
:1053C00013C0D801C701062E04C0880F991FAA1F59
:1053D000BB1F0A94D2F781509E4FAF4FBF4F280F8B
:1053E000391F4A1F5B1F6F5F671758F3CA01B90166
:1053F00024EF31E040E050E00E9482C9022F6B812F
:105400007C810E5F8BEC93E04A8124EF31E0EE2447
:10541000E3940E94A5812896E6E00C94CCC98823E9
:1054200059F00E94D1268093D5031092C20381E2E5
:1054300064EE73E00E949E0B1092C4031092C303AB
:105440001092C1031092C0031092BF031092BE03CA
:105450001092C8031092C7030E945C290895A3E12B
:10546000B0E0E5E3FAE20C94A4C92091BC033091CA
:10547000BD033987288741E02031340709F41CC374
:105480002053334009F007C117C3209172133091A4
:105490007313C801821B930B68E570E00E946EC90C
:1054A00088E5689F60011124C20ED31EA885B985C6
:1054B000E6E0A031BE0719F0A050B540F1F4D601E6
:1054C00017968C918E7F843071F4C6010E94B924A6
:1054D000FC016181D80112968C91882321F482818C
:1054E00093810E94E626A8014B5F5F4FF601808101
:1054F000918163EA0E949924CBC0D60117968C91C2
:10550000682E66947724B1E06B16710489F0E2E0AE
:105510006E16710409F4B3C06114710409F0BBC0C4
:10552000C601D80112966C9140E00E940126B3C0DA
:10553000F60180858F70813009F0ADC0D8011996D1
:10554000BC91BD8387E1BE016F5F7F4F0E949E0BC0
:105550002090E5033090E6034090E7035090E80385
:1055600089809A80AB80BC80E091E403EE83D60111
:1055700018968C9182958F70F0E0E81BF109FF83FB
:10558000EE83D80112966C91662309F03FC00E9409
:10559000D1267C0100E010E02FEF31E040E050E048
:1055A000E222F32204231523A3010E8002C0440F3C
:1055B000551F0A94E2F75B874A873A015D81652FA0
:1055C00070E080E090E0A20191010E944FC9860E38
:1055D000971EA81EB91EC301AA2797FDA095BA2F32
:1055E0008A879B87AC87BD87BC01CD01A50194014B
:1055F0000E944FC9E60EF71E081F191FD601139609
:10560000ED92FD920D931C9316972CC06E3C11F0F9
:10561000603F61F4A8014B5F5F4FF601808191818B
:105620000E949924C8010E94B12546C20E94D12639
:10563000917028EE33E00E8002C0220F331F0A94CF
:10564000E2F7AC01420F531F5F874E87CA01A0E00B
:10565000B0E08E879F87A88BB98BF60183839483F4
:10566000A583B683D60118968C911897807F8260A7
:1056700018968C9386ED93E00E94C7820CC0C601F9
:105680000E94B924FC018281938161810E94E626F7
:10569000C8010E94B1258EEB93E00E9475818C01B8
:1056A000009709F0F2CE08C280EC93E00E94758169
:1056B0000F53144051F0D6011A96ED91FC911B97AF
:1056C00080818370813009F0EBC1F60162857385BA
:1056D000FB013081532F507436FF14C0409170137A
:1056E00060906D1320917113842F90E0820F911DB3
:1056F0007724861597050CF0D3C180916E13481757
:1057000008F0CEC1932F9C70943009F4C9C1552381
:1057100059F0832F8370823009F4C2C1983009F4A4
:10572000BFC19C3009F4BCC135FDBAC1D601129687
:105730008C91823009F0B4C18081E3E08E2E882202
:1057400099248114910431F0B2E08B16910409F090
:10575000A7C13FC19C3009F4A3C18B01FB0191811A
:10576000892F81508E3FA0F4892F0E940325DC01F0
:10577000009771F01396ED91FC911497218132817D
:10578000F801848195812817390709F013C109C0F0
:10579000D80111968C9181508E3F08F40BC1A0E086
:1057A000B0E0F801908197FF04C08085837009F014
:1057B00001C196FD02C091E0FEC09C70983009F4D2
:1057C000F9C0F601A580B680F7EFAF16FFEFBF0670
:1057D00008F0F0C0109729F012968C91882309F0F8
:1057E000E9C0D6011A960D911C911B97F801808192
:1057F00086FF56C18370813019F077E0E72E02C032
:10580000EE24E39430916D13A0917213B091731351
:10581000AF5BBF4F20E04E2D50E0B801640F751F05
:1058200022C0A154B04017968C911797AF5BBF4F21
:105830008530B1F48D919C911197A816B90681F429
:1058400013968D919C911497840F951F9B8B8A8B37
:10585000FB019081EA89FB898081981709F420C1B6
:105860002F5FA85ABF4F2317E0F282E00E9418254D
:10587000DC01009709F414C1AC5BBF4F2D913C9142
:105880001197F90178978FEA8183D382C2821497A6
:1058900062E0B62EBD92F6018581968111969C93A9
:1058A0008E9317961D921D923D923D9211965C9299
:1058B0004E92AC54B040F90180818C7F826080832D
:1058C000F80190819C70837F892BF9018083F80116
:1058D000908190718F7E892B982F9F79F901908309
:1058E000F801908190788F71892BF9018083F801FC
:1058F00080816E2D70E0AD014D5B5F4F84FF0CC069
:10590000F60182859385860F971FFC018081F9013E
:105910008183FA01B08244C088E0FA018083F801F3
:105920008681F9018183F80182819381F901938352
:105930008283F80184819581F90195838483F8013C
:105940008181F9018683F60182859385860F971FF1
:10595000FC018081F9018783F801808187FF20C0E5
:105960008085837039F4F9011086FA0180818F5F98
:10597000808316C0FA0180818D5F8083F801808565
:105980008370F90180872286F801808583708130D9
:1059900019F4F901118604C0F8018185F9018187A4
:1059A0008091C2038F5F8093C203CD0109960E944C
:1059B00030588CC090E0D60112968C91813009F459
:1059C0006FC0992309F46CC0C6016FEA0E94E626F5
:1059D0007DC0AB01A0917213B091731380916D13D0
:1059E0008F9DB00111246A0F7B1F56C017961C9122
:1059F000179710FF4FC018968C9118978F708230B0
:105A000009F048C0FD01EC5BFF4F0081E1808D9102
:105A10009C911197F60125813681FC018381948147
:105A200028173907B9F5A02EBE2CFA019781F50188
:105A30008781981779F5FA0124813581F5018481F0
:105A400095812817390731F5FA0122813381F50153
:105A50008281938128173907E9F4FA019181F501D0
:105A600086819817B9F4FA019681F501818198171A
:105A700089F41E7F123071F418968C911897807FEC
:105A8000836018968C931897CD0160E040E00E94E7
:105A9000012606C0A85ABF4FA617B70708F4A6CF1D
:105AA000D60155961C9255975396ED91FC915497BB
:105AB000C601459609950AC03324339452E4452E15
:105AC00058E2552E22242A9448E5F42EC090C003B3
:105AD000D090C1030091BC031091BD03C114D10447
