S011000053657269616C4E65742E737265638C
S2840000000C9487090C94BF090C94BF090C94BF090C94BF090C94641E0C9496DE0C9413E20C94E4E10C94BF090C94BF090C94BF090C94BF090C944F130C94BF090C94AC130C94BF090C94BF090C94BF090C94BF090C94BF090C94BF090C94BF090C94BF090C94BF090C94251F0C94851F0C94571F0C94BF090C9425200C94D9140C94BF09EA
S2840000800C94BF090C94BF090C94BF090C94BF090C94971E0C94F71E0C94C91E0C94B31F0C94BF090C94BF090C94A4140C94BEDE0C94BF090C94BF090C94BF090C94BF090C94BF090C94BF090C94BF0940434843D4427D437D431B4328437D437D437D4352436143F44200437D43D14233435D466A467E4690469746A446B146BC46C446BD
S284000100E2460D47CE469548954853485A485A48664866487748774877486C81E780B981B981B981ED80F2808381B981F580F88002810A81B9810D8110811381B98118811B818381208160817581B98163816681EB80698169818381838183818381838183818381838183818381838183818381838183818381838156818381B981B981EF
S284000180B981B981B981B981B981B981B981B981B981B981B981B981838178817B8183814F81C882D381CA82CA82CA82D881E081CA82CA82E881ED8107820F82CA8214821C822682CA822E823382CA823B8258826A82CA825D826582C882C882C88274827482748274827482748274827482748274827482748274827482748274827482C2
S2840002004E827482CA82CA82CA82CA82CA82CA82CA82CA82CA82CA82CA82CA82CA82CA8274826F82C88274824982218424843B8427842A842D8430843384368447887788778877884C88618856885B8886885188668866886B8877887D888188A189A489A789A789AA89B689B089B389C689AD89B989BC89BF89C289D38AD78AFF8ADB8A68
S284000280DF8AFF8AE38AFF8AF18AF58AFC8A58900B912891DC8FA491A491199128912E917C915591A491A4917C9135907F9179A0FBA0A5A0E5A097A1FBA060A1A0A10FA160A19BA1B9A175A4AAA4E6A4CEA4BFA4E6A4FDA4FDA4FDA4FDA4FDA4FDA4FDA4FDA4FDA4FDA4CEA4E6A4FDA468A4D7A4B9A465A56AA52EA646A65DA651A786A728
S28400030086A786A786A786A786A786A786A786A786A701A70FA786A71FA527A710A6AEB1ACB1ACB1DBB1E2B1F5B1FDB100B203B206B209B210B317B326B32EB330B332B334B337B32EC138C141C654C16CC128C4A6C328C141C641C641C6A7C577C180C19EC5D2C10AC2F2C1FCC136C436C4D1C241C641C6E1C4E1C4E1C441C6E1C4E1C45A
S284000380DAC4DAC485C441C641C641C601C2C3C5C8C5D0C4D4C46EC37CC398C38AC322C33DC318C307C36DC503C608C60DC633C641C655C35DC366C341C62EC141C654C177C16CC13CC280C180C1D2C1FCC1F2C118C341C641C6D1C20AC2DEC241C641C641C641C6F2C2F2C2F2C2F2C2F2C2F2C2F2C2F2C2F2C200C300C300C300C300C39A
S28400040000C300C300C300C341C241C241C28CC28CC28CC2A8C2A8C2A8C255DA59DA6BDA7CDA80DAB6DCB6DCB6DC2ADB80DB2FDCB6DC84DA87DAB6DCA3DA00DBADDAB1DAB6DCB6DCE7D9FBDAC0DAB6DCB6DCB6DCB6DCB6DCB6DCB6DCB6DCB6DC1CDB1FDB22DB18DBB6DC6BDCB6DCB6DCD8D9DED9DBD9E1D929DA3EDAB6DCB6DCB6DC7FDC20
S28400048083DC8ADCB2DCC9D9CCD9CFD9D5D967DA55DA6BDA7CDA84DA80DAE4D999DA9EDAA3DAB1DAADDABCDAC0DAFBDAE7D900DB15DA18DA18DA18DA18DA03DA03DA03DA03DA03DA03DA03DA03DA03DA0CDA0CDA0CDA0CDA0CDA0CDA0CDA0CDA0CDAECD9ECD9ECD9F1D9F1D9F1D9FAD9FAD9FAD9D9DCE5DDEBDDDBDCE8DCEBDDEBDDEBDDA3
S284000500EBDDEBDDEBDD8EDDE2DDF4DCEBDD00DDE5DD0FDD16DDE5DDE5DD1DDDEBDDEBDD6FDD7BDD83DDEBDDE5DD6FDDEBDDEBDD6CDDEBDDEBDDEBDDACDDEBDDE5DDEBDDEBDDE2DDE2DDE2DD69DD4FDD49DDE2DD35DD42DD24DDACDDC0DDE2DDEBDDD4DCD4DCD4DCEBDDD9DCEBDDDBDCE2DDE8DCE2DDF4DCF4DC00DD16DD0FDDE2DDEBDD7E
S284000580EBDD1DDDE5DD32DDEBDDEBDDEBDDEBDD24DD24DD24DD24DD24DD24DD24DD24DD24DDE2DDE2DDE2DDE2DDE2DDE2DDE2DDE2DDE2DD24DD24DD24DD28DD28DD28DD2DDD2DDD2DDD0000000000000000000000000000000000000000000000000000000000000000000000000000000000000000000000000000000000000000000053
S28400060000000000000000000000000000000000000000000000000000000000000000000000000000000000000000000000000001020100020205080000FFFF341200000000000000000505000501017D0C910C0200000000000000000000000000000000000000000000000000000000000000000000000000000000000500FF000002DD
S284000680AAAAAAAAAAAAAAAAC83200000000341201030300001027000010270000010001E803000004E8030000000000000000000000000000000000000000000000000000000300E0930400000000840000000A0A0A0A050502040219031E04030500000000141001204E0000C80F0800D20F0100DF0F0400E30F0100931001009A100807
S2840007000096100200221002002B1001008F10010094100100E70F0100E80F0100E90F0100EA0F0100E50F0200EB0F01009110010090100100A20F0100A40F010011100800780F0400F70F0400EC0F0400F00F0400F40F0100F50F0100F60F0100001011008C100100FB0F0100FC0F040019100100A50F02001A100100E40F01001B1004C6
S284000780001F1001006103100020100100A5100100A610010021100100700F080000000000CB060200CF060100CD060200D1060100D2060100D3060100D4060100D5060100D6060100D7060100D8060100D0060100D9060100DA060100E2060200DB060100DC060100DD060100DE060400E5060400E406010097040000F70500001B0500FB
S28400080000050700000000000037070000B60E00000E0F0000970A0000790B0000460B0000E70B0000930C0000170E00000000000000000000A41000007D0C0000910C0000270F000000000000C80F0400E30F0C0011100D00780F1500941019008C101A00F40F1B00F50F1C00F60F1D0000101E00E50F2F00EB0F3100961032008F10346F
S284000880001A103500221036002B1038009A103900EA0F41001F104200700F430021104B00F7054C00A4105A017D0C62013C1B911A951A381B991A9D1A0304050607DE4B4A4E3659B34FA9494C4FC047EE3E422D2F47913887346831EC2C5E2B3C2C000000000000000000002F2B020203020102010101010101010202010101020202028A
S284000900020202020202020202030302020302B13A21480108D53CEC2D0101D53CEC2D0101693AE1480101F3390D350101F339E2340108AA39BD4B01015139465401010000000001080000000001010000000001030000E8240104000000000105000000000106000000000101000000000101D53C000000010000000001000000000001BB
S2840009800800000000010A0000000001000000000001010000000001010000000000000000D42E00080000D42E000C0000D42E00000000D42E00BB217427F522CD22ED220000C321D321E522CB213E279A219C24A4240C259424FD2200007E28AB4A353E86598D5400005D5B684DAD3600000000C25FCD5D000408101CA2E3A2027D5278A6
S284000A00000041750000000000001A7200000000000000000000B47E747E457E00001C7E0000000000000000CA7D0A090807060504032546ACABAACAEAE9E8E6E5E40D0C0B0A09082A292848ADACABEBEAE9E80D0C0B0A09080706050425242322428584838281A1E13A4348494C445F4C4F5354202530386C582530386C58003A434849A2
S284000A804C445F4A4F494E4544202530386C582530386C58003A4C4F5354003A4A4F494E45440020253034582C25752C25753A002575207C202575207C202530386C582530386C58207C2025303458207C2575207C20257520005325750025733A20002B57525353493A2564002B574C51493A2575002530386C582530386C580001010075
S284000B00000D000000000000000000000000000000020102000A00000000000000000000000000000003010400080000000000000000000000000000000401060001000000000000000000000000000000050108000000000000000000000000000000000006010A000100000000000000000000000000000007010C000100000000000003
S284000B8000000000000000000008010E000300000000000000000000000000000009011000000000000000000000000000000000000A011200000000000000000000000000000000000B021400881300000000000000000000000000000C011700000000000000000000000000000000000D04190000000000000000000000000000000095
S284000C00000E011E00000000000000000000000000000000000F01200000000000000000000000000000000000100122000200000000000000000000000000000011012400020000000000000000000000000000001201260002000000000000000000000000000000130128000200000000000000000000000000000014012A00020000EB
S284000C800000000000000000000000000015012C000200000000000000000000000000000016012E00020000000000000000000000000000001701300002000000000000000000000000000000180132000200000000000000000000000000000019043500000000000000000000000000000000001A043A006400000000000000000000BF
S284000D0000000000001B043F00000000000000000000000000000000002530386C582530386C58002530386C580025303458002558002575002564004556454E540044415441004552524F52004F4B002C003A002C002500052500062500073400003400013400022B00062B00072E00032B5750414E4944002B574E574B50414E494400CA
S284000D802B574348414E002B5743484D41534B002B57434850414745002B574C45415645002B574A4F494E002B574E574B002B57504152454E54002B574348494C4452454E002B574E4253495A45002B574E42002B574155544F4E4554002B57505752002B57534C454550002B57524F4C45002B57535243002B5753594E43505244002B60
S284000E00575458505752002B574C5149002B5752535349002B5754494D454F5554002B575245545259002B57574149540044004455004453004452002B5750494E470044420026480025480049002B474D49002B474D4D002B474D52002B47534E002B5743414C494252415445002B574143414C494252415445005A002646004500510083
S284000E80560058002B495052002B494643002644002B5750415353574F52440052002B57534543535441545553002B57544341444452002B574E45544B4559002B575345434F4E0053300053330053340053350053323000533231005332320053323300533234005332350053333000533331005333320053333300533334005333370000
S284000F005335300053353100533532005335330053353500533130300053313031005331303200533130330053313034005331323000533132310053313232005331323300533132340053313235005331323600533132370053313238005331333000533133310053313332005331333300533133340053313335005331333600533133F4
S284000F8037005331333800533134300053313431005331343200533134330053313434005331343500533134360053313437005331343800006D0D02050000E001750D03030000E001800D040600002000870D05040000E001900D06060000E001990D070000001000A10D080000001000A80D090000001000AE0D0A0000002000B70D0BEB
S2840010000000002000C20D0C0000002000CB0D0D2E00001001D00D0E060000E001DA0D0F090000E002E00D100000001000E80D11060000E001EF0D12030000E001F50D13010000E001FF0D14020000E001070E1503000010010D0E160300001001140E1901000020011E0E180600002001260E17010000E001320E1C59000010022F0E1BFC
S28400108001000010003F0E1F4B00001003380E1E03000010012D0E1A4B00001001770E290000001000790E2A00000010007C0E2B06000010007E0E2C0600001000800E2D0600001000820E2E0600001000840E2F010000E001890E30360000E0038E0E310600001001420E200000001000450E210000001000480E2206000010004A0E23B6
S28400110007000020004F0E240700002000540E250700002000590E2605000060015E0E2700000010006A0E28010000E001910E3204000010019C0E33E3010010079E0E34060000E001AA0E35050000E001B30E362D0000E002BC0E37060000E001C40E380600002001C70E390100006001CA0E3A0100006001CD0E3B0100006001D00E3CE8
S2840011800500002001D40E3D0500006001D80E3E0600002001DC0E3F0400006001E00E400600006001E40E410600006001E80E420600006001EC0E430100006001F00E440100006001F40E450600006001F80E460200006001FC0E470100006001000F480600006001040F490100002001080F4A06000020010C0F4B0100006001100F4C4E
S2840012000300006001140F4D0600006001190F4E01000020011E0F4F0100002001230F500100002001280F5101000020012D0F520600006001320F530600006001370F5406000060013C0F550600006001410F560600006001460F5706000060014B0F580600006001500F590600006001550F5A06000060015A0F5B06000060015F0F5C40
S2840012800600006001640F5D0600006001690F5E06000060016E0F5F0600006001730F600600006001780F6106000060017D0F620600006001820F630600006001870F6406000060018C0F650600006001910F660600006001960F6701000060019B0F680100006001A00F690100006001A50F6A0100006001AA0F6B0100006001AF0F6CC2
S2840013000100006001B40F0000000000000011248091FE1C823141F084B78F718093FE1C80FF05C081E001C081E18093FE1C14BE809160008861809360001092600011241FBECFEFD1E2DEBFCDBF12E0A0E0B2E0E2E1F1ED01E00BBF02C007900D92A039B107D9F71CE1A0E9B2E001C01D92AE3FB107E1F70E94FF610E94C261FDCF0C9474
S28400138000007F937FB7F8949D9AA5988AEF0E94200A8AEF0E94200A9D9886E40E94200A81E0959980E08F9380EF0E94200A8F917FBF7F9108957F937FB7F8949D9AA59886E00E94200A9D988AE00E94200A889495990894881F8F9384E60E94200A8F917FBF7F9108959F937F9398E00E94DB09879577959A959923C9F7872F7F919F9174
S28400140008957F937FB7F894A5989D9A8F9386E00E94200A8F91879508F49D988F9384E60E94200A8F919D987FBF7F9108959F9398E00E94010A9A959923D9F79F91089500000000000000008A958823C9F708955F937F937FB7F894CF93DF93C0E0D0E07F935091B2007091B2007517E1F3739521965091B2005717D9F77F91CE01DF91A2
S284001480CF917FBF7F915F910895EF92FF920F93DF93CF93CDB7DEB760970FB6F894DEBF0FBECDBFA82F002309F461C07E010894E11CF11C88E0F70111928A95E9F729833A834B835C836D837E83AF83988780E2801BE82FFF27E7FDF0954D815E816F817885181684F01D861E861F86188A882799278E1B9F0B04C0769567955795479574
S2840015008A95D2F728C0202F332727FD3095DB01CA01022E04C0B695A795979587950A94D2F78D879E87AF87B88B04C0440F551F661F771FEA95D2F789819A81AB81BC8104C0B695A795979587952A95D2F7482B592B6A2B7B2B49875A876B877C8729853A854B855C856D857E85AF8598898A2F60960FB6F894DEBF0FBECDBFCF91DF91E4
S2840015800F91FF90EF900895EF92FF920F93DF93CF93CDB7DEB760970FB6F894DEBF0FBECDBFA82F002309F461C07E010894E11CF11C88E0F70111928A95E9F729833A834B835C836D837E83AF83988780E2801BE82FFF27E7FDF09549815A816B817C81181684F019861A861B861C86882799278E1B9F0B04C0440F551F661F771F8A9549
S284001600D2F728C0202F332727FD3095DB01CA01022E04C0880F991FAA1FBB1F0A94D2F789879A87AB87BC8704C07695679557954795EA95D2F78D819E81AF81B88504C0880F991FAA1FBB1F2A95D2F7482B592B6A2B7B2B4D875E876F87788B29853A854B855C856D857E85AF8598898A2F60960FB6F894DEBF0FBECDBFCF91DF910F9123
S284001680FF90EF90089508950E94B7B9089521E133E03093A5022093A40220E530E03093A7022093A60221EB32E03093A9022093A80220E630E03093AB022093AA021092AD021092AC021092AF021092AE0260E0823009F461E080E992E00E94BAB9089580E090E00895089584E0089584E0089584E008951092C80F1092C90F1092CA0FEE
S2840017001092CB0F1092CC0F1092CD0F1092CE0F1092CF0F23EE3FE01092E30FF901BE9610921110118212821382148215821682178282E090E0A0E0B0E08093780F9093790FA0937A0FB0937B0F1092941041E040938C104093F40F1092F50F4093F60F84E392E19093E60F8093E50F1092EB0F8FEF9FEF909397108093961010928F10C0
S28400178010921A10909323108093221010922B1010929A1010929B1010929C1010929D1010929E1010929F101092A0101092A1101092EA0F10921F108AEA8093700F8093710F8093720F8093730F8093740F8093750F8093760F8093770FD901DE961C92DE9788E08093931083E08093E80F8093E90F1092E40FDD961C928AE0E7EFF5E0C6
S284001800DF011D928A95E9F785E08093A5104093A61080E00E9466360895A4E0B0E0E3E1FCE00C9447E4682F70E0660F771F660F771F6751794FCE01019644E050E00E94E7E469817A818B819C812496E2E00C9463E4CF93DF93EB010E940D0C009719F4CB0168839983DF91CF910895CF93DF93EB016115710589F08E3278F406C0CB010E
S284001880BE01422F0E9435E508C00E940D0C592F282F392F2115310591F7DF91CF9108951F93CF93DF93182FEB016115710571F00E940D0C9B01AC011E3228F0CE01B9010E94E7E403C0CE010E9435E5DF91CF911F9108950E946F0C0E94810E0895E7EAFFE088E3DF011D928A95E9F7B1961092C80F11821282138214821582168217828B
S28400190085E08093D20F82E290E166EC75E04AE850E00E94E7E488E79FE060E576E04FE250E00E94E7E48FE69FE06FE776E049E050E00E94E7E48FED9FE068E876E043E450E00E94E7E488ED9AE0E7E9F4E0DF019C011D9221503040E1F70895EF92FF921F93DF93CF93CDB7DEB727970FB6F894DEBF0FBECDBF8FEF8983CE0101969D83C1
S2840019808C8380910102909102029B838A8381E090E09F838E8310E082E0E82EF12CEC0EFD1EC70161E97EE00E94B60E882351F42A813B811F5F1A3029F02F5F3F4F3B832A83EFCF27960FB6F894DEBF0FBECDBFCF91DF911F91FF90EF900895A6E0B0E0E4EFFCE00C943DE48C010097E9F1E0900102F0900202FA82E98281E090E09E83FB
S284001A008D8348019AE0C92ED12CCE0CDF1C5E010894A11CB11C1FC08B829C820E94920EC50160E070E00E949B108F5F9F4F21F481E0F801838318C00E94920EF801808129813A818F3F19F0328321830CC02F5F3F4F3A83298389819A818C159D05E0F2F801F282E18213822696ECE00C9459E4A7E0B0E0EEE3FDE00C943FE48C01009756
S284001A80E1F11982FC01108284E090E09B838A8381E090E09F838E83E0900102F09002025E010894A11CB11C22E0C22ED12CCC0EDD1E1CC0BD82AC820E94920EC60160E070E00E949B108F5F9F4F21F481E0F801838313C00E94920EF80180819981890F80838A819B8101969B838A838A819B818E159F05F8F2F80113822796EAE00C9468
S284001B005BE4A8E0B0E0E7E8FDE00C9447E4CE0105960E94380D8885813079F0CE0101960E94EE0C8C81813041F089819D81890F11F082E003C080E001C081E02896E2E00C9463E4AFE0B0E0E8EAFDE00C9447E48FEF8983CE0102960E94EE0C8D818130E9F1CE0106960E94380D89858130B1F19E818A81890F99F191959E838B819C812C
S284001B809B878A87CE0101969D878C8781E090E09F878E87CE010A9661E97EE00E94B60E8823E9F48A859B8501969B878A8740910102509102029A01265F3F4F8217930710F05B874A87CE0106969D878C87CE010A9661E97EE00E94B60E01C081E02F96E2E00C9463E4A6E0B0E0E9EFFDE00C9445E489012091010230910202265F3F4F60
S284001C00280F391F3A8329835E834D837C836B8302C00E94FC61809171038130D1F30115110511F401E91EE0CE010196B8010E94B60E2696E4E00C9461E4A6E0B0E0E3E2FEE00C9445E489012091010230910202265F3F4F280F391F3A8329835E834D837C836B8302C00E94FC61809171038130D1F30115110511F401E91EE0CE010196A3
S284001C80B8010E949A0E2696E4E00C9461E480917103882349F48CEA90E10E9406100E946E0F02C00E94FC61809171038130D1F30895A6E0B0E0EFE5FEE00C9443E40E947A0B0091000210E07E010894E11CF11C0CC0812FB7010E94D20EC70161E97EE00E94B60E882349F41F5F101790F30E94AE0C882311F40E94A20D2696E6E00C947B
S284001D005FE40E94810D882339F40E94190F813039F00E94680F0895813011F00E94680F0895089502C00E94FC610E94FD108823D1F708950F931F93CF93DF938C01EB010E94920EC801BE010E949B108F5F9F4F11F481E006C0C159DE4011F40E94920E80E0DF91CF911F910F9108950F931F93CF93DF938C01EB010E94920EC801BE016D
S284001D800E9437118F5F9F4F11F481E006C0C159DE4011F40E94920E80E0DF91CF911F910F910895A8E0B0E0E8EDFEE00C9443E47B01082F10E0B801660F771F660F771F675B774FCE01019644E050E00E94E7E489819A81F701938382832B813C81318320838091000290E001970817190739F48091010290910202821B930B14C0000FC7
S284001E00111F000F111F035B174FCE010596B80144E050E00E94E7E48F8198852B813C81821B930BF701958384832896E6E00C945FE4A6E0B0E0EFE1FFE00C9443E40091000210E07E010894E11CF11C0CC0812FB7010E94D20EC70161E97EE00E949A0E882321F41F5F101790F380E02696E6E00C945FE4A4E0B0E0E0E4FFE00C9447E424
S284001E809093B8108093B710662359F485E2BE016F5F7F4F0E94500C89819A81AB81BC8104C082E390E0A0E0B0E08093B2109093B310A093B410B093B51081E08093B6108CEA90E10E942B102496E2E00C9463E48EE69FE060E00E943A0F0895ADE0B0E0E4E7FFE00C943BE481E0809371037090000252E0852E912C8C0E9D1E46E0642E56
S284001F0038E0E32EF12CEC0EFD1E5E010894A11CB11C21E0C22ED12C33C0B4010E94D20EF701862D11928A95E9F7BB86AA86DD86CC8600E010E01EC08A819B81800F911F99878887C70161E97EE00E949A0EAA85BB85EC81FD81E00FF11F9C918081981739F0CE0102966EE67FE00E94B60E23C00F5F1F4F8E819F8108171907E8F215C039
S284001F8080917203871548F2109272030E94A20D813031F48EE69FE061E00E943A0F0BC00E94680F1092710306C0809172038F5F80937203E5CF2D96EEE00C9457E48F929F92AF92BF92CF92DF92EF92FF920F930E94BD124B015C012091760330E040E050E060E070E080E090E000E20E94C40A282939294A295B290F91FF90EF90DF90C0
S284002000CF90BF90AF909F908F900895CF93DF93EC010097D1F080917303909174038C179D0719F460E070E008C083E793E0BE010E941D12BC01009741F083E793E0AE010E94FF1120E030E002C02FEF3FEFC901DF91CF910895CF93DF93EC01009771F0E0917303F091740306C0EC17FD07D9F00190F081E02D3097C1F706C02FEF3FEF4C
S284002080C901DF91CF9108950E9499149B01AC01198218826A837B838C839D8383E793E0BE010E94B01120E030E0EACFEF92FF920F931F93CF93DF9318C083E793E060E070E0AE010E94FF118A85882359F4EA82FB820C831D8383E793E0BE01A80197010E94B011EB85FC8509958091730390917403892BD9F00E9499147B018C01C091E2
S2840021007303D09174038A819B81AC81BD81A8019701281B390B4A0B5B0B8E819F81A885B985281739074A075B0738F6CDB7DEB7E6E00C945FE4FC0180917503882319F02EEF3FEF58C0309709F453C08481958120813181820F931F8150904108F049C081E0809375037093C0106093BF10A9EBB0E186E001900D928150E1F7F999FECF2F
S28400218020E030E017C0E091BB10F091BC10E20FF31F8091B9109091BA1001969093BA108093B910019792BD81BDF89A80B580832F5F3F4F8091BD109091BE102817390710F31092BE101092BD1080918C03806180938C032FB7F8948091BE039091BF0382609093BF038093BE032FBF20E030E002C02FEF3FEFC901089590E080917503B8
S284002200813009F491E0892F08958091BD109091BE10892B51F410927503E091BF10F091C010309719F1099508956091B9107091BA106F5F7F4F7093BA106093B91061507040E091BB10F091BC104191F093BC10E093BB108CE00E94CA148091BD109091BE1001979093BE108093BD100895CF93DF93FC0180917503882319F02EEF3FEF5D
S2840022806BC0309709F466C08481958120813181820F931F8150904108F05CC081E080937503A9EBB0E186E001900D928150E1F77093C0106093BF10672B19F4C0E0D0E03BC06091B9107091BA106F5F7F4F7093BA106093B91061507040E091BB10F091BC104191F093BC10E093BB108CE00E94CA148091BD109091BE1001979093BE1059
S2840023008093BD1024C06091B9107091BA106F5F7F4F7093BA106093B91061507040E091BB10F091BC104191F093BC10E093BB1084E00E94CA1421968091BD109091BE10C817D90700F3F999FECF1092750320E030E002C02FEF3FEFC901DF91CF910895A0E0B0E0E6EBF1E10C943FE48C01EB0169017A01FC01608171816115710589F1AF
S284002380FB01AA24BB24268137814085518582819381A481B581280F391F4A1F5B1F2C193D094E095F092F3F8FEF38078FEF48078FE7580748F48E819F81A885B985281739074A075B0738F4808191815F01009761F0FC01D8CFE617F70731F4F983E883F801D183C08306C0CF01F501D183C08399838883CDB7DEB7EAE00C945BE4CF9302
S284002400DF93EC01DB01FA01888199814817590739F48081918111821082888399830AC08081918111969C938E93118210828C9111969C91DF91CF910895FC010190F081E02D06C0808191818617970719F0FC013097C1F7CF0108958FB7F89410927E0310927D0310927C038FBF0895809170008C7F809370008091B60080628093B600A6
S2840024801092B2001092B0001092B1001092B3008091B60090E08F719070892BC9F783E087BB87E08093B1008091700081608093700008958091B60090E08F719070892BC9F7809170008C7F809370008091B100887F8093B10083B5826083BD8091B60090E08F719070892BC9F78091B6008F7D8093B6000895EF92FF920F931F937B0125
S2840025008C016091B200862F90E0809590959C01442737FD4095542F3070407050702E153F054007510798F4D801C701821B930BA40BB50B9C01AD01BB27A52F942F832F90937D0380937C0320937E0311C08091B60090E08F719070892BC9F76E0D6093B30082E087BB809170008260809370001F910F91FF90EF900895EF92FF920F9371
S2840025801F936FB7F894709177032091B20084E48093B4008091B60090E08F719070892BC9F7B89904C030E040E050E00AC08091B200282F30E040E050E021503F4F4F4F5F4F6FBF8FEF789FC0011124AA2797FDA095BA2F820F931FA41FB51F9C01AD0175E0220F331F441F551F7A95D1F77C018D0162E016950795F794E7946A95D1F76E
S2840026002E0D3F1D401F511FE0907803F090790300917A0310917B032E0D3F1D401F511F281B390B4A0B5B0BB901CA011F910F91FF90EF90089560E270E080E090E008952FB7F89460917703109277032FBF70E080E090E020E43FE140E050E00E94E2E3209178033091790340917A0350917B03260F371F481F591F2093780330937903E5
S28400268040937A0350937B03261737074807590728F4809176038F5F8093760308951F920F920FB60F920BB60F9211242F933F934F935F936F937F938F939F93AF93BF93EF93FF93809170008D7F8093700010927E038091B50380FF03C080E00E949A158091B50382FF11C0809189038160809389032FB7F8948091BE039091BF03826046
S2840027009093BF038093BE032FBFFF91EF91BF91AF919F918F917F916F915F914F913F912F910F900BBE0F900FBE0F901F9018958091B50380FF0FC081E00E949A15809170008D7F809370000E942C128091B5038B7F8093B50308951F920F920FB60F920BB60F9211242F933F934F935F936F937F938F939F93AF93BF93EF93FF938091B2
S2840027807C0390917D03892BA1F580917E038823E9F48091B50380FF03C080E00E949A158091B50382FF34C0809189038160809389032FB7F8948091BE039091BF0382609093BF038093BE032FBF22C08091B60090E08F719070892BC9F780917E038093B30082E087BB8091700082608093700009C080917C0390917D03019790937D03E5
S28400280080937C038091B50380FF02C00E942615809177038F5F80937703809189038260809389032FB7F8948091BE039091BF0382609093BF038093BE032FBFFF91EF91BF91AF919F918F917F916F915F914F913F912F910F900BBE0F900FBE0F901F90189580E197E29093A9008093A800E1EAF0E088E08083808182608083E2E7F0E0F1
S284002880808182608083089520918103309182034091830350918403260F371F481F591F2093810330938203409383035093840380918D03806880938D032FB7F8948091BE039091BF0382609093BF038093BE032FBF08952FB7F89460918003109280032FBF70E080E090E02AE030E040E050E00E94E2E320918103309182034091830335
S28400290050918403260F371F481F591F20938103309382034093830350938403261737074807590728F480917F038F5F80937F0308950E946A146091810370918203809183039091840308951F920F920FB60F9211242F938F939F93809180038F5F8093800380918D03806880938D032FB7F8948091BE039091BF0382609093BF03809306
S284002980BE032FBF9F918F912F910F900FBE0F901F901895982FF999FECF07B600FCFDCF72BD61BD40BD8FB7F8949FBBF99A8FBF08951F920F920FB60F9211242F938F939F93FB9880918C03806180938C032FB7F8948091BE039091BF0382609093BF038093BE032FBF9F918F912F910F900FBE0F901F9018950E94BD12209185033091C2
S284002A0086034091870350918803621B730B840B950B109285031092860310928703109288030E9444148091A10082608093A1000E94D4168091B50381FD07C0E091A603F091A703309709F0099508950E94D31D882309F44EC08091B50382FD03C02FEF3FEF66C024982C988091B60090E08F719070892BC9F78091700081FD0AC08FEFD6
S284002A808093B3008091B60090E08F719070892BC9F78091B000806C8093B0008091B60090E08F719070892BC9F78091B10080688093B1008091B60090E08F719070892BC9F78091B0008F738093B0008091B60090E08F719070892BC9F78091B00080688093B0008091B60090E08F719070892BC9F78091B50381608093B5038091B600A8
S284002B0090E08F719070892BC9F780918E03806880938E032FB7F8948091BE039091BF0382609093BF038093BE032FBF20E030E0C90108959091B5038170880F9C7F982B9093B5030E94D31D882311F42C980EC024982C988091B0008F738093B0008091B60090E08F719070892BC9F7249A80918D03846080938D032FB7F8948091BE034E
S284002B809091BF0382609093BF038093BE032FBF08958091B50380FF5CC08091A1008D7F8093A1008091850390918603A0918703B09188030097A105B10551F40E94BD1260938503709386038093870390938803809193038111EC9AF999FECF0E94D31D8823B1F42C9A249A8091B50382FF05C087E083BF889513BE22C00E945A1285E0AD
S284002C0083BF889513BE0E9436120E949F1617C0909172002091BC0030917A00109272001092BC0010927A00249A87E083BF889513BE909372002093BC0030937A0084E48093B4008091B60090E08F719070892BC9F70895A0E0B0E0E0E3F6E10C943BE400E8C2E8DBE810E092E8C92E9BE8D92EE12CF12C82E8A82E8BE8B82E0E94280AF1
S284002C80BC018BE86338780718F19E0140E050E0CB01A0E0B0E082589B48A040B040281739074A075B074CF4123039F480916600815080936600000036C0809166008150809366000000EB01C258DB4811E028C08BE86238780739F1CE01A0E0B0E09B0140E050E036014701621A730A840A950A86159705A805B9054CF4113039F4809142
S284002D0066008F5F8093660000000DC0809166008F5F809366000000E501C61BD70B12E0015009F0ABCFCDB7DEB7EEE00C9457E40E94D31D882311F40E942A160895CF93DF93C0E0D0E088EC0E94200A219683E1C838D807C1F70E949816DF91CF91089580E28CBB0895ED9A08958DB3ED98807208952C9A08952C980895179A08951798A2
S284002D8008952C98249A179A0F9A6D9875980895EAE6F0E080818C608083089584E0089508950895089508951F9310E00E942D2181E80E941621812F0E941621182F0E942B21183099F71F9108950E94200A08958091890380FF0BC09FB7F894809189038E7F809389039FBF0E942F2177C08091890381FF0BC09FB7F894809189038D7FD8
S284002E00809389039FBF0E94201368C080918B0387FF0BC09FB7F89480918B038F7780938B039FBF0E94AA1B59C080918C0383FF0BC09FB7F89480918C03877F80938C039FBF0E94321D4AC080918C0384FF0BC09FB7F89480918C038F7E80938C039FBF0E9405113BC080918D0382FF0BC09FB7F89480918D038B7F80938D039FBF0E94A0
S284002E80FB142CC080918D0385FF0BC09FB7F89480918D038F7D80938D039FBF0E94161D1DC080918D0387FF0BC09FB7F89480918D038F7780938D039FBF0E9456100EC080918E0387FF0AC09FB7F89480918E038F7780938E039FBF0E94C915809189038823A1F480918A03882381F480918B03882361F480918C03882341F480918D03F5
S284002F00882321F480918E03882361F02FB7F8948091BE039091BF0382609093BF038093BE032FBF08959091960321E030E002C0220F331F8A95E2F7922B9093960380918B03806880938B032FB7F8948091BE039091BF0382609093BF038093BE032FBF0895CF93DF93E82FF0E0CF01805C9040A3E095958795AA95E1F7482F50E0EA0102
S284002F80CC0FDD1FC157DC4FA881B981109721F481818F7781836CC090968C91909783FD67C05496ED91FC91559784FF09C06083E881F981848995890196958B848B58C0EF2B09F455C01696CD91DC91179716968D919C911797019617969C938E93169716962D913C91179756968D919C9157972817390721F417961C921E921697169615
S2840030002D913C91179714968D919C9115972817390729F41796DC93CE93169729C05496ED91FC915597EC0FFD1F608318968D919C911997019619969C938E931897440F551F41575C4FEA01E881F98180A180FF0FC08385883C61F418962D913C91199786899789969587958217930708F45D9ADF91CF910895E82FF0E0E05CF04083E0E9
S284003080F595E7958A95E1F7F0E0EE0FFF1FE157FC4F0190F081E02D3097C1F04FB7F89422813381808191814FBF2817390711F481E08287828D938D892B11F4118E108E068CF78DE02D309709F009950895E82FF0E0E05CF04023E0F595E7952A95E1F7F0E0EE0FFF1FE157FC4F0190F081E02D309791F080A1887179F48FB7F8942085E8
S28400310031858FBF2115310539F0048CF58DE02D309711F0C90109950895909395038093940381E0809393030895109293030895803C21F0883C11F080E0089581E008951F93CF93DF93EC01009751F11B85812F0E949818882321F1E12FF0E0E05CF04043E0F595E7954A95E1F7F0E0EE0FFF1FE157FC4F80819181C817D90789F44FB7BD
S284003180F8942A813B81888199814FBF2817390719F020E030E006C08A85282F30E002C02FEF3FEFC901DF91CF911F9108951F93CF93DF93EC010097F9F01B85812F0E9498188823C9F0E12FF0E0E05CF04093E0F595E7959A95E1F7F0E0EE0FFF1FE157FC4F80819181C817D90731F4183C21F45D9820E030E002C02FEF3FEFC901DF91FD
S284003200CF911F9108951F93CF93DF93EC010097F9F01B85812F0E9498188823C9F0E12FF0E0E05CF04033E0F595E7953A95E1F7F0E0EE0FFF1FE157FC4F80819181C817D90731F4183C21F45D9A20E030E002C02FEF3FEFC901DF91CF911F910895A0E0B0E0E5E3F9E10C943FE48C015B016A01009709F46DC0DC011B96FC908F2D0E94CB
S2840032809818882309F464C0A114B10409F460C0C114D10409F45CC0EF2DF0E0E05CF040A3E0F595E795AA95E1F7F0E0EE0FFF1FE157FC4FC081D1810C171D0709F048C08FB7F894F80166817781248135818FBF40E050E01AC07501E40EF51ED8015496ED91FC915597E20FF31F8081F70180832F5F3F4F56968D919C9157972817390751
S28400330011F420E030E04F5F5F4F2617370719F04C155D0500F38FB7F8943D832C8328853985241B350B39872887288539858FBF8B85883C59F488A180FF08C08E899F89969587958217930708F05D989A0102C02FEF3FEFC901CDB7DEB7EAE00C945BE4A0E0B0E0E6EBF9E10C943DE4EC016B018A01009709F46FC0FB848F2D0E9498182E
S284003380882309F468C0C114D10409F464C00115110509F460C0EF2DF0E0E05CF04083E0F595E7958A95E1F7F0E0EE0FFF1FE157FC4F80809180C815D90509F04CC08A8D9B8D892B81F42A813B81888199812817390709F040C0D98EC88E1B830A8319821882B80130C08FB7F894AA80BB80E880F9808FBFA50160E070E019C09A012F5F1F
S2840034003F4F8A8D9B8D2817390711F420E030E02E153F0579F0E88DF98DE40FF51FD601A60FB71F8C9180836F5F7F4FA9016017710720F38FB7F894F401538342838FBFAE14BF0431F41A86EB85F0E08181806281839B0102C02FEF3FEFC901CDB7DEB7ECE00C9459E4FC0183899385882349F4903C19F0983C89F402C06A9A0895559A51
S2840034800895903C19F0983C41F404C06A987298729A089555985D985D9A08951F93CF93DF93FC010097B1F11385812F0E949818882381F1812F90E0805C904033E0959587953A95E1F7C82FD0E0DE01AA0FBB1FA157BC4FED91FC9111973097D9F0E385F0E01182ED91FC9180A180FF02C055985D988485803429F481E0838BCF010E94EA
S284003500331ACC0FDD1FC157DC4F1982188220E030E002C02FEF3FEFC901DF91CF911F91089580EC0E943B18089580EC0E946718089588EC0E943B18089588EC0E9467180895CF93DF93282FA82FB0E0CD01805C904033E0959587953A95E1F7C82FD0E0FE01EE0FFF1FE157FC4F608171816115710509F476C0283CD1F5FB0180A1282F65
S28400358081FD02C030E009C08CB190E0E4E096958795EA95E1F7382F317020FD02C080E008C089B190E054E0969587955A95E1F78170332311F48823D1F08AE090E0A0E0B0E080939D0390939E03A0939F03B093A00381E08093A10384E39BE19093A3038093A20387E993E00E942B103AC02FB7F894FB0182819381408151812FBF8417F8
S284003600950749F1808D918D840F951FFC0190819A012F5F3F4F8C9180648C9316969C931697CC0FDD1FC157DC4FE881F981828D938D2817390711F420E030E011968C911197806211968C938FB7F894FB01318320838FBF06C011968C911197806411968C93DF91CF91089588EC0E94A11A089588EC0E94A11A089580EC0E94A11A0895BE
S2840036801F93CF93DF93EC01009709F45CC01B85812F0E949818882309F455C088A1282F30E0A9014170507080FF03C0183C09F04AC0812F90E0805C904073E0959587957A95E1F7E82FF0E0EE0FFF1FE157FC4F80819181892BB9F5D183C083183C81F421FF02C06C987498452B51F0559A54985C988C899D89892B11F45D9A01C05D9846
S2840037008C85803419F4CE010E94331A198218821B821A828C899D89892B11F41F8A1E8A888D998D892B11F41B8E1A8E1D821C821F821E8281E08A87CE010E94FC1D8B85282F30E002C02FEF3FEFC901DF91CF911F910895CF92DF92FF920F931F93DF93CF9300D00F92CDB7DEB781E08983FF2400E010E0F2E0CF2ED12CCC0EDD1E90919F
S284003780960389818923B9F02FB7F8949091960389818927809396032FBF6F2D70E0660F771F6355774FC60142E050E00E94E7E4EA81FB810995F3948981880F89830F5F1F4F06301105D9F60F900F900F90CF91DF911F910F91FF90DF90CF90089587E08093A40380E98093BC0080918D03806280938D032FB7F8948091BE039091BF0304
S28400380082609093BF038093BE032FBF08958091A403823041F08091A403833021F08091A403843021F48091C510880F08C08091A403853051F48091C510880F8F5F8093BB0085E88093BC0008950E94EF1B08959091C4108091C310981790F48091C410E091C110F091C210E80FF11D90818F5F8093C4109093BB0085E88093BC0008950B
S28400388086E08093A40384E98093BC0080918D03806280938D032FB7F8948091BE039091BF0382609093BF038093BE032FBF08958091C6109091C710A091C810B091C9102091C41021502093C4102091C410220F220F220F04C0B695A795979587952A95D2F78093BB0085E88093BC008091C410882359F48091A403823021F484E0809365
S284003900A403089585E08093A40308958091A403843019F40E94281C08958091A403823021F08091A403833019F40E94581C08958091A403853021F485EA8093BC0008950E94EF1B08958091A403853099F48091C310813021F48091BC008F7B03C08091BC0080648093BC008091BC0085688093BC0008950E94EF1B0895982F8091A4034E
S284003980853029F58091C410E091C110F091C210E80FF11D90838F5F8093C4102091C4108091C31030E090E001972817390724F48091BC00806403C08091BC008F7B8093BC008091BC0085688093BC0008950E94EF1B0895982F8091A403853021F58091C410E091C110F091C210E80FF11D90838F5F8093C41086E08093A40384E9809396
S284003A00BC0080918D03806280938D032FB7F8948091BE039091BF0382609093BF038093BE032FBF08950E94EF1B0895E091CA10F091CB10309791F08091A403863041F48091BC0084FDFCCF81E08093A40304C081E08093A40380E00995089581E08093A40308958091A503813051F482E08093A503E091CC10F091CD10309709F00995FC
S284003A8008958091A503882319F42FEF3FEF06C01092A5030E941E2020E030E0C9010895982F8091A503823079F4892F8450843058F0903148F481E08093A503892F0E948A2020E030E002C02FEF3FEFC9010895CF93DF93EC018091A503882319F5209709F18B819C81892BE9F028812230D0F48A8190E08F739070892BA1F4213019F4BA
S284003B008981833078F082E08093A503CE010E94D7208F8198859093CD108093CC1020E030E002C02FEF3FEFC901DF91CF910895ADE0B0E0EEE9FDE10C9447E4FC01009719F42FEF3FEF2AC0848195819093A7038093A60380819181A281B3818F839887A987BA8781E08B871D861C86CE0101960E9458212FEF8F3F920771F08D5F9F4F08
S284003B8059F00E9426158F5F9F4F19F020E030E005C02DEF3FEF02C02EEF3FEFC9012D96E2E00C9463E48091B6030895F999FECF9FB7F894E0E0F0E089E08093570084919FBF8F70823019F41092B60303C081E08093B6038091B603882369F48FB7F8945F9350E85093610050E0509361005F918FBF0E949F160895DC011B96EC911B9757
S284003C00F0E011821B96EC911B97F0E01D968D919C911E97958384831C968C911C971B96EC911B97882349F4F0E082E080831B96EC911B97F0E012820AC0F0E010821B96EC911B97F0E052968C91529782831B96EC911B97F0E082811C969C911C97892B82831B96EC911B97F0E082811F969C911F97892B82831B96EC911B97F0E0828113
S284003C8050969C915097892B82831B96EC911B97F0E0828151969C915197892B82831B96EC911B97F0E08081806880831B96EC911B97F0E08181886181831B96EC91F0E081818068818308951F920F920FB60F920BB60F9211242F933F934F935F936F937F938F939F93AF93BF93EF93FF930E949813809193038111EC98E0919403F09186
S284003D009503309709F00995FF91EF91BF91AF919F918F917F916F915F914F913F912F910F900BBE0F900FBE0F901F9018951F920F920FB60F920BB60F9211242F933F934F935F936F937F938F939F93AF93BF93EF93FF938091C8006091CE008C7131F488EC0E94B11785E00E949317FF91EF91BF91AF919F918F917F916F915F914F9139
S284003D803F912F910F900BBE0F900FBE0F901F9018951F920F920FB60F920BB60F9211242F933F934F935F936F937F938F939F93AF93BF93EF93FF93E9ECF0E080818F7B808384E00E949317FF91EF91BF91AF919F918F917F916F915F914F913F912F910F900BBE0F900FBE0F901F9018951F920F920FB60F920BB60F9211242F933F9323
S284003E004F935F936F937F938F939F93AF93BF93EF93FF93E9ECF0E080818F7D808383E00E949317FF91EF91BF91AF919F918F917F916F915F914F913F912F910F900BBE0F900FBE0F901F9018951F920F920FB60F920BB60F9211242F933F934F935F936F937F938F939F93AF93BF93EF93FF938091C0006091C6008C7131F480EC0E9447
S284003E80B11782E00E949317FF91EF91BF91AF919F918F917F916F915F914F913F912F910F900BBE0F900FBE0F901F9018951F920F920FB60F920BB60F9211242F933F934F935F936F937F938F939F93AF93BF93EF93FF93E1ECF0E080818F7B808381E00E949317FF91EF91BF91AF919F918F917F916F915F914F913F912F910F900BBE31
S284003F000F900FBE0F901F9018951F920F920FB60F920BB60F9211242F933F934F935F936F937F938F939F93AF93BF93EF93FF93E1ECF0E080818F7D808380E00E949317FF91EF91BF91AF919F918F917F916F915F914F913F912F910F900BBE0F900FBE0F901F9018951F920F920FB60F920BB60F9211242F933F934F935F936F937F93BB
S284003F808F939F93AF93BF93EF93FF938091B90090E0887F90708832910559F1893291058CF48031910511F1813191052CF4009719F1089781F51AC088319105D1F0809751F51AC088349105B9F0893491053CF48033910589F080349105E9F410C08035910581F088359105B1F411C00E94071C12C00E94861C0FC00E94EF1B0CC00E940C
S284004000A31C09C08091BB000E94BD1C04C08091BB000E94EA1CFF91EF91BF91AF919F918F917F916F915F914F913F912F910F900BBE0F900FBE0F901F90189510927C0010927A0010927E0008951F920F920FB60F920BB60F9211242F933F934F935F938F939F93EF93FF938091B703E091B803F091B903882351F48091BA039091BB031E
S28400408020917900E80FF91F20830FC08091BA039091BB0340917800509179009C01220F331FE20FF31F5183408301969093BB038093BA032091BA033091BB038091BC039091BD0328173907B1F480917A00877F80937A0080918C03886080938C032FB7F8948091BE039091BF0382609093BF038093BE032FBFFF91EF919F918F915F91B4
S2840041004F913F912F910F900BBE0F900FBE0F901F901895282F1092BB031092BA03843048F481E090E0022E02C0880F991F0A94E2F717C0883011F08A3011F481E011C0893011F08B3011F483E00BC08C3011F08E3011F484E005C08D3011F08F3019F48CE080937E0080917C0090917C00907E90937C0090917C00922B90937C008F7143
S284004180821729F0243018F08DE70E94200A8091BC039091BD03029720F080917A00886603C080917A00886480937A000895A1E0B0E0EDEDF0E20C9447E4FC01858196819093BD038093BC0380818093B703838194819093B9038093B803828180937C008091B703882329F480917C00806280937C00618170E06754774FCE01019641E0ED
S28400420050E00E94E7E48981806880937A002196E2E00C9463E4289A23982B98229A219A209A80E58CBD81E08DBD08958EBD000000000000000000000000000000000000000000000000000000000000000000008DB58EB50895289A0895289808959091B50392FF24C08091B2038823B1F4E091B303F091B403309709F009958091B50343
S28400428082FF15C06091AE037091AF038091B0039091B1030E947B1208959B7F9093B503E091B303F091B403309709F009950895CF93DF93EC01009719F42FEF3FEF2EC00E941B132E813F81488559850E94E2E328EE33E040E050E00E9415E4B901CA01611571058105910519F42EEF3FEF16C02091B50322FF03C02DEF3FEF0FC02460B1
S2840043002093B503A8EAB3E0FE012DE001900D922150E1F70E947B1220E030E0C901DF91CF9108958091961090919710089580918F10089590E080913B118A3A09F491E0892F0895AC01E0912111F09122112091231130912411808180FF05C0818192814817590731F03B96E217F307A0F3E0E0F0E0CF01089590E08091EE10813409F452
S28400438091E0892F089590E08091E910863D09F491E0892F089590E080911511833109F491E0892F089590E080917411873B09F491E0892F0895CF93DF93EC01DB019C01285F3F4F19963C932E931897898183FF0AC011963C932E93285F3F4F19963C932E93189703C011961C921E92898184FF0EC018968D919C91199713969C938E93B7
S2840044001297089619969C938E93189704C013961C921E921297898180FF0EC018968D919C91199715969C938E931497019619969C938E93189704C015961C921E921497898182FF14C01896ED91FC9119971796FC93EE931697808190E00196880F991FE80FF91F1996FC93EE93189704C017961C921E92169718968C9118978C1B1A9618
S2840044808C93DF91CF91089590919210981708F4892F80932B100895809122109091231008958091981090919910089520919A1030919B1040919C1050919D1060919E1070919F108091A0109091A1100895FC01808180939A10818180939B10828180939C10838180939D10848180939E10858180939F1086818093A01087818093A11050
S284004500089580918C10089580919510089580939510089560912D1070912E1080912F109091301008958091281090912910089590932910809328100895809124109091251008958091261090912710089590912D11242F941708F4292F921B292F691708F4262F921B882361F0992331F020E030E08091A210481710F021E030E0822FF3
S2840045800895992331F020E030E08091A310681710F021E030E0822F0895E091C711F091C8119091C6118CE2989F900111242E0F3F1F06C08081882311F080E00895BC96E217F307B8F381E0089590E080917A118A3D09F491E0892F089590E080910411863E09F491E0892F089590E08091E911823009F091E0892F089590E080917111E9
S2840046008E3809F491E0892F0895382FE0912711F091281120E046E08081882311F4332311F040832F5F7B968091291190912A11E817F90788F3222311F490E005C08091A210811181E0982F9170990F990F80917F108B7F892B80937F10222311F490E005C08091A310811181E0982F97959927979580917F108F77892B80937F10089536
S284004680AC01E0912711F09128112091291130912A118081863029F0848195814817590731F07B96E217F307A0F3E0E0F0E0CF010895282F80912D11962F861708F4982F891B982F281708F4922F382F391B11F490E006C090E08091A210681708F491E0990F990F80917F108B7F892B80937F10332311F490E006C090E08091A3102817C4
S28400470008F491E097959927979580917F108F77892B80937F10089510927D1090919010809191108295807F9F70982B90937E1090917F1080912B108F70880F880F880F9478982B90937F1080919A108093801080919B108093811080919C108093821080919D108093831080919E108093841080919F10809385108091A01080938610DE
S2840047808091A110809387108FEF809388108093891080938A108091311080938B104091291150912A112091271130912811C901FC0160E090E08081863051F0813011F0853031F48181823011F49F5F01C06F5F7B96E417F50778F3892F0E9459230895809331100E948C230895FC018081813011F0853061F48181823021F480917F1030
S284004800806803C080917F10846080937F1086E080830895282FE3E0F2E090E08081281720F49F5F31969630C9F7892F8F5F0895CF93DF932091271130912811821B930B23E13AEDF9018E9F90018F9F300D9E9F300D1124C901880F991F880F991F820F931FC0912B11D0912C11C80FD91F4B838A81882341F08695962F96959695682F08
S2840048806695680F690F6A83862F0E940A248770880F880F880F9C81977C982B9C83DF91CF91089587E291E108952091271130912811821B930B23E13AEDA901849F9001859F300D949F300D1124C901880F991F880F991F820F931FE0912B11F0912C11E80FF91F828108952091271130912811821B930B23E13AEDA901849F9001859F67
S284004900300D949F300D1124C901880F991F880F991F820F931FE0912B11F0912C11E80FF91F83810895089590E08091C911883409F491E0892F089590E08091D410893109F491E0892F089520E08091EA119091EB11892B09F421E0822F0895AC01E091FA11F091FB112091FC113091FD118081882341F08285681729F4848195814817CB
S284004980590731F07196E217F30788F3E0E0F0E0CF010895CF93DF93EC018D859E85892B99F0EF85F889309739F083819481C817D90711F414821382ED85FE8527813085CF010996F90109951882DF91CF910895CF93DF93EC016623E1F0EB81FC81A585B6853097B1F01097A1F0878590898C179D0779F4108219966C93199784E11A9658
S284004A008C931A971796ED91FC911897CD0109960995DF91CF91089590E08091FE11882309F491E0892F0895AC01E0910012F09101129091021287E0989F900111242E0F3F1F848180FF09C082958170681729F4808191814817590731F03796E217F30780F3E0E0F0E0CF0108950E941425FC01009719F084818E7F848308956F927F9238
S284004A808F929F92AF92BF92CF92EF92FF920F931F93CF93DF935C014B013A01122FE70180918C10823041F480912210909123109983888383E083C0222321F0002309F44AC005C088EFA8168FEFB80638F08FEF9FEF998388839C2D88E077C0C5010E944023FC010097B9F1B982A882828D80FD02C082E064C08081853009F45FC081819E
S284004B00823009F45BC08091271190912811E81BF90B83E19AEDE89F9001E99F300DF89F300D1124C901880F991F880F991F820F931FE0912B11F0912C11E80FF91F848186958695869587702091931090E030E0821793079CF1C501612F0E941425FC01009731F48EEF9FEF9983888380E02CC082819381998388838281938188169906EB
S284004B8001F168167906E9F0248122FF10C0809196109091971088169906A9F423FD13C086819C2D8C1508F4982F87E00EC086819C2D8C1508F4982F86E007C084E091E004C081E001C08AE090E0DF91CF911F910F91FF90EF90CF90BF90AF909F908F907F906F900895EF92FF920F931F93CF93DF93EC01162F7A01022F0E941425DC01C3
S284004C00009799F016968C911697801708F44FC081E090E00090031202C0880F991F0A94E2F715968C9315973CC0E0910012F09101129091021287E0989F900111242E0F3F1F848180FD02C0DF010DC0109731F0958115968C911597981708F4DF013796E217F30770F314962C911497216014962C93149781E090E00090031202C0880FD5
S284004C80991F0A94E2F715968C9315971196DC93CE9311701295107F217E212B14962C9314971396FC92EE92129716960C93CDB7DEB7E6E00C945FE4FC0180918C10823011F420E005C020E08681823008F021E0822F08958091A610089520E09091A4108091A710981708F421E0822F08958091A41090E024E130E0AC01429FC001439FD4
S284004D00900D529F900D1124E091A810F091A910E80FF91F818108958091A41024E1829FC00111242091A8103091A910280F391F2C5F3F4FC90108952091A41030E0C901880F991FE091AA10F091AB10E80FF91F6081718184E190E0AC01249FC001259F900D349F900D1124E091A810F091A910E80FF91F8281938108950F931F930E94EB
S284004D809C269B01AC012F5F3F4F4F4F5F4F0091A41010E0000F111FE091AA10F091AB10E00FF11FC901208391830091A41010E084E190E0BC01069FC001079F900D169F900D1124E091A810F091A910E80FF91FCA0142839383B9011F910F91089590E09C01220F331FE091AA10F091AB10E20FF31F1182108224E130E0AC01429FC001A7
S284004E00439F900D529F900D1124E091A810F091A910E80FF91F1382128208951F9310E004C0812F0E94EF261F5F8091A7101817C0F31F910895382F2091A710E091A810F091A91090E008C08081882319F08181381729F09F5F74969217B0F39FEF892F08950E941B27982F8091A710981710F080E008959093A41081E0089590E080913C
S284004E8076118A3909F491E0892F089520E080919A1090919B10892B90919C10892B90919D10892B90919E10892B90919F10892B9091A010892B9091A110892B09F021E0822F0895FC0182818C3011F480E1089583819481885F9F4F10F482E0089581E0089510920712089590E080911612813309F491E0892F0895089521E030E040E014
S284004F0050E004C0220F331F441F551F8A95D2F78091CF109091D010A091D110B091D210282B392B4A2B5B2B2093CF103093D0104093D1105093D2102FB7F8948091BE039091BF0388609093BF038093BE032FBF0895CF93DF93FC0120911311309114118081D90190968C9383819481A581B681E90189A39AA3ABA3BCA387818DA389EE4C
S284004F8080931511809116118093CE108DE00E947D27DF91CF910895FC01A0917211B09173118081D0968C9388E58093741189E00E947D270895FC01A091E710B091E810E081EE2311F0EA3F19F490961C9202C09096EC9382E78093E91088E00E947D270895FC01A091CA11B091CB11808115968C938EE58093C91187E00E947D27089540
S284005000FC01A0917711B0917811808150968C9387E48093761186E00E947D270895FC01818181606170660F8D7F862B81838091FE11882331F483E98093FE1185E00E947D2708958AEA80933B1182E00E947D2708950F931F938C01DC011196ED91FC911297668380E00E947D2782ECF80180831F910F910895FC0184ED90E160810E9431
S28400508029280895FC018181846081838091FE11882331F483E98093FE1185E00E947D27089560957095809590952091CF103091D0104091D1105091D21026233723482359232093CF103093D0104093D1105093D2100895FC0182E0818B828B8091981090919910948B838B8EEF9FEF968B858B11A287EA9BE493A382A3089520E0809151
S284005100FD109091FE10892B09F421E0822F0895823021F0833021F48EEC08958CEC089583EC0895A8E0B0E0E8E9F8E20C9443E4E090921060E074E080E090E00E948C802091D20F620F711D811D911DFF2400E010E0A80197010E94E2E37B018C0188E1BE016F5F7F4F0E94500C87E1BE016B5F7F4F0E94500C2D813E814F815885220F32
S284005180331F441F551F89819A81AB81BC81280F391F4A1F5B1F2E0D3F1D401F511FB901CA012896E6E00C945FE4A1E0B0E0EBEDF8E20C9445E4198284E38E010F5F1F4FB8010E94500C89818093921083E362EA70E10E94500C82E3B8010E94500C9091A2108981981720F4891B8093A31004C08093A2101092A31082E0898385E3BE0126
S2840052006F5F7F4F0E94500C898180938D102196E4E00C9461E4ADE0B0E0E1E1F9E20C943DE46C01A0902B11B0902C118090271190902811FC018081853039F481E4BE016E5F7F4F0E94500C4BC0F6018181823089F5828D80FF09C080E090EEA1E0B0E08A839B83AC83BD833BC088E1BE016A5F7F4F0E94500C87E1BE01665F7F4F0E943E
S284005280500C8DE0BE016F5F7F4F0E94500CE9802A853B854C855D858E819F81A885B985280F391F4A1F5B1FFF2400E010E0C801B70110C08CE0BE016F5F7F4F0E94500CE980FF2400E010E0C801B70128E93AE340E050E00E94E2E36A837B838C839D83C818D90883E19AEDC89E9001C99E300DD89E300D1124C901880F991F880F991F74
S284005300820F931FA80EB91E8A819B81AC81BD812BE0B695A795979587952A95D1F70196A11DB11DF501918380832D96ECE00C9459E42091271130912811AC01421B530B23E13AEDFA01E29FA001E39F500DF29F500D11249A01220F331F220F331F240F351FE0912B11F0912C11E20FF31F67702481287F262B24830E940B290895A1E08F
S284005380B0E0E5ECF9E20C9446E4DC015E96ED91FC915F97118181E0898381818D7F818388E2BE016F5F7F4F0E94500C8981882361F00E946D26882341F08091A510882321F0812F8695817001C080E02196E3E00C9462E4A1E0B0E0E0EFF9E20C9446E486E2BE016F5F7F4F0E94500C1981112311F480E002C00E9446278170880F1170D3
S284005400812B2196E3E00C9462E4A2E0B0E0EBE0FAE20C9447E47091D3108091D3108F5F8093D310863110F01092D3102091CF103091D0104091D1105091D2106091D310DA01C901062E04C0B695A795979587950A94D2F781709070892B39F181E090E0A0E0B0E0062E04C0880F991FAA1FBB1F0A94D2F782279327A427B5278093CF1055
S2840054809093D010A093D110B093D21070E0660F771F6254774FCE01019642E050E00E94E7E4E981FA81099503C0761709F0B5CF8091CF109091D010A091D110B091D2100097A105B10561F02FB7F8948091BE039091BF0388609093BF038093BE032FBF2296E2E00C9463E4A1E0B0E0EAE7FAE20C9442E4E82EE091FF10F0910011409121
S2840055000111D42E50E088ED90E0489F9001499F300D589F300D11242E0F3F1F00E010E0FF240AC08081882311F48F0103C0E81609F4F394E852FF4FE217F30798F30115110599F12E2D30E0CE01019665E06D1598F0BA01660F771F640F711D660F771F620F731F6751774F41E050E00E94E7E48981F816A8F417C02751374FB90141E0C8
S28400558050E00E94E7E42F2D30E08981D89EC00111249595879595958795281739071CF000E010E002C0F801E082C8012196E7E00C945EE4653770F40E94742AFC01009749F00C96EF57FF4F918380839F012150304002C020E030E0C90108950E94742ADC01009719F4E0E0F0E00DC0FC01E256FF4F5A96B183A083A559BF4F11961C929D
S2840056001E92FD013597CF010895A2E0B0E0EBE0FBE20C9443E48091CE108038D9F006EB19E07E010894E11CF11CC701B80142E050E00E94E7E4E981FA81309729F00995882311F481E007C00E5F1F4F89E00C3D180759F780E02296E6E00C945FE4CF93DF9386E00E94742AEC01009721F182E091E10E946A5CFC01CD53DF4F8281888361
S284005680C35CD040CE018396CC53DF4F99838883C454D040D683C58323813481CF010596F90109958091021190910311892B19F085E10E947D27DF91CF9108958CEE90E10E946A5CFC01E45BFF4F21913191CF01F90109958091EC109091ED10892B21F08EE00E947D27089581E48093EE100895EF92FF920F931F93F82EE92E062F8091D0
S284005700A710823078F1862F0E941B27182F8091A710181760F1982F91506091A8107091A910A091A4104FEF5FEFB4E19B9FF0011124E60FF71F8081882311F4192F17C09A1751F08181282F30E02417350720F4801710F4192F01C09A01992341F09150A901E4CF813011F410E001C01FEF8091A710181710F080E021C0812F0E94EF267A
S28400578084E1189FC0011124E091A810F091A910E80FF91F21E020830183E091A810F091A910E80FF91F34962F2D3E2DC901DC0180E10D9001928150E1F781E01F910F91FF90EF9008954F925F927F928F929F92AF92BF92CF92DF92EF92FF920F931F936C015B012A01822E9E2CFB014689FC014383FB016789708DFC018181928150E092
S2840058000E9435E5F6011381F501E380F480718CB38CB6016C5F7F4FF601818192810E94DB21F6018685181B1787F18AE08A728AB38A017080818E7F802BF201918192708570880C880C880C892B8829F1E09F22990C990C8B7F8929F60180831F910F91FF90EF90DF90CF90BF90AF909F908F907F905F904F900895EF92FF920F931F9327
S284005880CF93DF93C0916F11D091701113E4E12EF12CEC0EFD1E85E0F70160810E94DA2A8C01009709F45CC0FC018081887F8083C05CDF4F8991868B88819981908F878B8091961090919710928F818FF7014081F801458F818192810996978F868F2A968881CB54D04086A381EA9EE290A787A3F7018081875FF8018383FE01EC5BFF4FEE
S28400590060817181F801868D978D50E00E9435E58FE691E10E946A5CC05BDF4F1882C055D040FE01EF5AFF4FCA5BDF4F88819981918380832696E991F991CE010995C80144960E94737180916F1190917011892B29F08FE00E947D278FE803C08EE801C080E980937111CDB7DEB7E6E00C945FE4FC01A181B28111968C91119780FD02C080
S28400598082E001C081E0868B12968D919C911397908F878B14968D919C911597928F818F80899189948F838F8785858F84859585978F868F828980A3838981A311968C918695817086A381EA9EE290A787A3CF0144960E947371089580911511873E99F5E0911311F09114118091CE1080FF26C01582818D928DA38DB48D86839783A0878F
S284005A00B187858D828780919410838780E1848789EA97E296878587CF018696908F878BCF0102960E941F898091CE10809316111092CE1088EE80931511089583EC80A389EE8093151180911511893ED1F483E191E10E946A5CFC01268D378D8096F90109958091131190911411892B39F087EE809315118DE00E947D27089583E1809398
S284005A8015110895CF93DF938091E910803781F5C091E710D091E8108091CE1085FF23C08DA1882319F081E00E94052319A281E08D838A8D9B8DAC8DBD8D8E839F83A887B987898D8A87809194108B871C86188E1F8A8BED97E29E878D87CE0102960E941F8981E721C082EC88A382E78093E9108091E9108237D1F487EE90E10E946A5C58
S284005B00FC01268D378D8096F90109958091E7109091E810892B39F080E78093E91088E00E947D2703C086ED8093E910DF91CF9108951F93182F81E00E94EE2ADC01009711F480E013C0E12FF0E0E25AFE4E80818150808312961C9312978AEE90E1BD010E94525C83E00E947D2781E01F910895E82FF0E0E25AFE4E90819F5F90830E94B2
S284005B80992D0895CF93DF93DC01FB018481958115969C938E9314979D012A5F3F4FAB01485F5F4F88E0EA010990AE01E90109929E018150C1F7828D80FF02C081E001C085E01E968C931E9785E18C9387E00E94B82DDF91CF9108951F93162F85E092E10E946A5CFC011587238534850D96F901099520910512309106122115310549F0E0
S284005C0080E280930412C9010E9462270E94B82D03C088E7809304121F910895FC011082EEE5F1E190E08081882331F0892F0E94992D8823E1F404C09F5F3196913199F78091FE118A3119F485E00E947D2780917111803919F48FE00E947D278091021190910311892B19F085E10E947D270895805890400E940E2E0895805890400E9417
S284005C800E2E0895A6E0B0E0E8E4FEE20C9447E4DC011196ED91FC9112979681915096838C9180FD03C040E050E007C020E0992309F421E081E02827422F842F81702C912E7F282B2C934423A9F113968C911397898311968D919C9112979C838B832695269526952A8350968D919C9151979E838D838A8112968C93129789815D968C937D
S284005D005D978B819C815F969C938E935E978D819E81DD969C938E93DC9716961C921E9215978AEE90E1BD010E94525C83E00E947D2703C0CD010E94382E2696E2E00C9463E4FC01B997808180FF04C0CF010E94422E0895CF010E94382E0895FC01E05BFF4F6083E055F040DF01AF5ABF4FEA5BFF4F808191818D939C933D9610821182D9
S284005D8012821382E355F0408CEE90E1BF010E94525C8091EE10813431F483E08093EE108EE00E947D270895DC011396ED91FC911497E95AFF4F18968C918083E755F040CF010E94AE2E0895CF93DF93EC0185E092E1BE010E94525C80910412883741F480E280930412CE010E9462270E94B82DDF91CF910895FC01809107128823C9F4A7
S284005E0020930A12F0930C12E0930B1270930E1260930D1250931212409311125093101240930F1281E08093071288E092E10E94E42E0895FC018DE086838DEF9FEF908787838FEF9FEF94878387818192819287818782E298E2908B878786E48083CF0104960E94E42E0895BC0188E192E10E94525C80911612813331F483EA8093161262
S284005E8081E00E947D270895BC0187E791E10E94525C809176118A3931F485E48093761186E00E947D270895FC018281882331F411868CEF9FEF9483838303C080ED818712868EEF9FEF948783878AEE91E1BF010E94525C84E00E947D270895BC0185ED90E10E94525C8091D410893131F480E00E947D2781EC8093D4100895BC018AEC34
S284005F0091E10E94525C8091C911883431F487E00E947D278DE58093C91108950F931F93BC01009102111091031182E091E10E94525C012B19F485E10E947D271F910F910895BC018FE691E10E94525C809171118E3831F48FE8809371118FE00E947D270895BC0185E091E10E94525C80910411863E31F481E1809304118CE00E947D2786
S284005F800895BC018BE791E10E94525C80917A118A3D31F48AE00E947D2781E280937A110895BC0182E791E10E94525C80917411873B31F484E58093741189E00E947D270895BC0183E191E10E94525C80911511833131F487EE809315118DE00E947D270895BC0187EE90E10E94525C8091E910863D31F480E78093E91088E00E947D278F
S2840060000895A0E0B0E0E7E0F0E30C9441E48C01C0912711D091281186E0C82ED12CC00ED11EEE24FF2488818630F9F08130B1F4F8018381882351F0BE01685F7F4FC60148E050E00E9428E5009751F080918D10882351F08981823041F406C0853029F4CE010E94F52301C07E016B968091291190912A11C817D907B0F2E114F10429F03B
S284006080C801B7010E94C22D06C082E1F801808386E00E94B82DCDB7DEB7E8E00C945DE4A8E0B0E0E6E5F0E30C943EE429833A834B835C836D837E838F839887902E0091C7111091C8119091C6118CE2989F60011124C00ED11EFE0131969E01275F3F4F8081882339F0EE24FF245E010894A11CB11C1DC03196E217F30791F71CC0F80178
S2840061008081882311F4780110C0992021F0B8016E5F7F4F03C0B801665F7F4FC50148E050E00E9428E5009731F0045D1F4F0C151D0528F302C0EE24FF24C7012896EBE00C945AE4EF92FF920F931F93CF93DF937C01C0912111D09122110091231110912411888180FF0AC0BE016D5F7F4FC70148E050E00E9428E5009731F02B96C017E8
S284006180D10778F3C0E0D0E0CE01CDB7DEB7E6E00C945FE4CF92DF92EF920F931F93DF93CF93CDB7DEB728970FB6F894DEBF0FBECDBF6C0109831A832B833C834D835E836F8378871E2DCE0101960E94A230FC010097C9F4E0912511F09126112091231130912411CF010B9690932611809325118217930740F08091211190912211909356
S284006200261180932511808181608083D282C1829F012D5F3F4FAE014F5F5F4F88E0DA010D90AD01D9010D929D018150C1F71170110F80818D7F812B808328960FB6F894DEBF0FBECDBFCF91DF911F910F91EF90DF90CF9008950E94A230FC01009719F080818E7F80830895A8E0B0E0EAE3F1E30C9441E429833A834B835C836D837E837A
S2840062808F8398870091271110912811E0902911F0902A116E010894C11CD11CF8018081863051F0B801685F7F4FC60148E050E00E9428E5009739F0055E1F4F0E151F0568F300E010E0C8012896E8E00C945DE4CF93DF9380910411813109F05CC0C0910511D09106118091CE1080FF4FC0FE0132969E01265F3F4F8081882329F4319625
S284006300E217F307C9F766C080918C10813011F0882311F52A813B814C815D816E817F81888599850E943431FC01009711F498EC14C08081813031F484E091E1BF010E94C22D29C0853041F4CF010E94F52387E1809304111E861FC092EC87E1809304119E8719C08A85882351F081EF8093CE101092071184E091E10E9401300CC082E1A3
S2840063808093041186E00E94B82D05C087E18093041182EC8E8780910411873101F585E091E10E946A5CFC01248535850E96F90109958091051190910611892B39F081E1809304118CE00E947D2709C086EE8093041105C080918C10823021F6D0CFDF91CF9108950F931F93CF93DF93EC018881823029F48B819C810E9440230AC02B8147
S2840064003C814D815E816F81788589859A850E9434318C01009739F06B854D850E941824C8010E940B29DF91CF911F910F910895FC01208131814281538164817581868197810E943431FC01009751F08081853039F481E08083CF010E940B2981E0089580E008950F930E943431FC01009711F480E008C0928D892F82958170002311F031
S2840064809061928F0F910895A3E1B0E0EAE4F2E30C9439E45C01FC01958D268D8091E910813709F030C2848D8F3008F42CC2E92EF22EF7018081882309F025C283818C8384818D8385818E8386818F83878188878085898781858A8782858B87FE013496AE01445F5F4F20E030E08191280F311DE417F507D1F72115310509F404C280E011
S284006500285F374009F481E0882309F0FCC16090E7107090E810F30191A182A1981708F08DC0C3A0D4A0092F10E064E0000F111F6A95E1F70C0D1D1D53E0452E512C4E0C5F1C99248824839420C0C201B60148E050E00E9428E50097A1F4F501878587FF02C0F6018586F701828182FF02C0F6018686F701828187FF02C0F60187869924FB
S284006580939440E150E0C40ED51EC016D106E8F2992009F053C0F5018485F8018087F50186858F70F8018387F501868582958F70F801848790E0F501878587FD91E0F8019587F7018381F8018083F7018481F8018183F7018581F8018283F7018681F8018383F7018781F8018483F7018085F8018583F7018185F8018683F7018285F80192
S2840066008783F7018281869586958170F801868790E0F701828187FD91E0F8019787F70181818F70F8018187F701818182958F70F8018287F30181A18F5F81A3F7014181242F22952F708091911030E090E02817390709F058C1242F2F708091901030E090E02817390709F04EC1F501058D168D85E1BE016C5F7F4F0E94500C8C818C8761
S2840066808D818D878E818E878F818F878885888B8985898B8A858A8B8B858B8BFE013C96AE014C5E5F4F20E030E08191280F311DE417F507D1F72115310579F0285F374061F0B8016D5F7F4FCE01049648E050E00E9428E5009709F016C180E1BE016F5F7F4F0E94500C8981882379F08FE0BE016E5F7F4F0E94500C2A813B81F501828112
S28400670093812817390709F0FEC080918C10823029F4F801828187FFF6C0E9C0813009F0E6C0F801828182FFEEC0E1C0B7016D5F7F4FC801409648E050E00E9428E50097B1F000912711109128112091291130912A11F8018081863031F0055E1F4F02171307B8F3D0C00115110509F4CCC080912711909128119801281B390B83E19AED24
S284006780A901489F9001499F300D589F300D1124C901880F991F880F991F820F931FC0902B11D0902C11C80ED91EF8018081863011F483E08083F5018785829586958695837080958170F8018183828180738A608283F5018485F8018383F50184819581F80195838483F50182819381F8019783868310861186128613861486158616867F
S2840068001786F7018381F801808BF7018481F801818BF7018581F801828BF7018681F801838BF7018781F801848BF7018085F801858BF7018185F801868BF7018285F801878BF70182818695869586958F70F801808FF7018685F801818F828D8160828F20E0F501878587FD21E0220FF801928D997F922B928FF701828182FF07C08091D0
S2840068808C10813019F49460F801928FF701828187FF08C080918C10823021F4F801828D8460828FC8010E940B29F5018189F6018283F5018289F6018383F50181890E940A24282F2770922F990F990F990FF6018481877C892B848380918E10882309F427E0F6018481887F822B84830CC0F501E58CF68C848195810E9440238C01009799
S28400690009F014CF1ECF6396E0E10C9455E4AEE0B0E0EDE8F4E30C943CE40091C7111091C8119091C6118CE2989F70011124E00EF11EFCE27F2E5E010894A11CB11CE3E0CE2ED12CCC0EDD1E72E0872E9924939432C0F8018081823079F4828993899A838983D6013A9688E001900D928150E1F71C861D861E8613C08330D9F4F8018285FE
S28400698093859A838983D601329688E001900D928150E1F78C86F80187858D879E86F80181818B87872D11928A95E9F7C5010E941464045D1F4F0E151F0558F22E96EDE00C9458E41F93CF93DF93162FFC01C381D4812A813B814C815D816E817F81888599850E9434319C01009771F08E85882341F4112331F483E088838BE00E947D277E
S284006A0008C0C9010E94F5238CE2FE0111928A95E9F7DF91CF911F910895CF93DF93FC01C381D481662389F42A813B814C815D816E817F81888599850E943431FC01009721F08A859B85958384838CE2FE0111928A95E9F7DF91CF9108950F931F93CF93DF938C01EC0167972A853B854C855D856E857F85888999890E9434319C01009760
S284006A8081F08C89882351F4F8018489882331F482E088838BE00E947D2708C0C9010E94F5238CE2FE0111928A95E9F7DF91CF911F910F910895FC01118210829081892F8C7F8083809191108F70880F880F907C982B9083818182608183138212828091961090919710958384838091921090E0880F991F8F3F910519F010F08FEF90E0D9
S284006B00868380912C108F5F80932C1087830895CF92DF92FF920F931F93CF93DF93EC0188E18C838091921090E0880F991F8A878091CE1080FF6AC0C05CDF4F8881C054D040813019F1C85BDF4F8881C854D0408F3F19F4CE0160E079C0CF5BDF4F28813981C154D04080919610909197102817390719F018E0F12E0BC0C95ADF4F18823C
S284006B80C755D040CE010E94A12F98C0B9E0FB2E8F2D90E0CC24DD24C81AD90ACC5BDF4F08811981C454D0400C0D1D1DC8010E945B35D80111968C9111978B7F11968C938091A610882339F0C55BDF4F8881CB54D040882321F4F80181818D7F8183CF5BDF4F88819981D80113969C938E93129727968881C854D040882311F016968C93D9
S284006C00FE01E05CFF4F8081813019F4CE0162EC1DC0D80111968C9111978E7F11968C9380818130C1F0CF5BDF4F88819981C154D040BFEF883F9B0770F0EFEF8F3F9E0741F00596039728F0CE0161EC0E94AE2E35C089E18C838C81883161F4C65BDF4F8881CA54D040882329F0D8018C918F7380648C93DE83CD8318861F82809196105D
S284006C80909197109FAF8EAFCD5BDF4F8881C354D040F80EFF8ECC5BDF4F88819981C454D0408C0D9D1D99A388A322968AEE90E1BE010E94525C83E00E947D27DF91CF911F910F91FF90DF90CF9008958370833039F44091A8105091A91020E034E120C08FEF8093A4100E940E272091A71084E1289F900111248091A8109091A91060E012
S284006D0070E0A9010E9450E50895239FF0011124E40FF51F828193810196938382832F5F8091A710281788F30895E4EDF0E183E1DF011D928A95E9F789E18093D4101092D6101092D51080E88093CE10359785E0DF011D928A95E9F70895AEE0B0E0E3EBF6E30C9437E44B015A018C01DC01EC90BFE1EB22FA0182819381892B09F496C1AE
S284006D8083E0E89EC001112423852250281708F48DC1A0919610B09197104FEF5FEF60E010C0262F30E0F901EE0FFF1FE20FF31FE00FF11F81819281A817B90709F4A9016F5F6E1570F3FFEF4F3F5F0719F437E0C32E0CC0CA010196FC01EE0FFF1FE80FF91FE00FF11FC08027E0C22280918E10882369F1FF2429C02F2D30E0F901EE0FAD
S284006E00FF1FE20FF31FE00FF11F61817281809196109091971086179707B1F0D40114964D915C911597C9010196FC01EE0FFF1FE80FF91FE00FF11F2081229527702C0DCB0160E00E94F325F394FE14A8F2F4010480F581E02DFA87E987D5011E96BC91BE87F501F785FD87D5011296ED91FC9113978081898381818A8382818B838381BC
S284006E808C8384818D8385818E8386818F8387818887409027115090281120902B1130902C11E0912911F0912A11FC87EB87720100E010E08824992466247724D701DC90B6E0DB1631F48114910409F06BC0470169C0F7018481958129853A852817390759F0B701685F7F4FCE01019648E050E00E9428E50097B9F4D70111968C918230A8
S284006F0009F4D4C0B1E0DB1661F480918D10882341F083E0F701808380917F10846080937F10C701C0C0F1E0DF16E1F125E0D216C9F143E15AED649EC001659E900D749E900D1124FC01EE0FFF1FEE0FFF1FE80FF91FE20DF31D2481277001151105F9F0C80184199509BC01649FC001659F900D749F900D1124FC01EE0FFF1FEE0FFF1F8D
S284006F80E80FF91FE20DF31D848137E0A32EA822822F90E0BB24A816B9061CF003C0C21608F487018BE190E0E80EF91E680E791EAB85BC85EA16FB0608F480CF8114910409F084010115110509F470C098012419350983E19AEDFC012E9FC0012F9F900D3E9F900D11247C01EE0CFF1CEE0CFF1CE80EF91EE20CF31C83E0D8018C93E9854D
S284007000FA85EF2B19F411961C9204C081E0D80111968C93F801828180738A60828380919510838329853A8535832483809198109091991097838683D8011896FE01319688E001900D928150E1F7C80140966AE970E148E050E00E943EE580912B10D80158968C9358978091311059968C9359975A968C915A9787605A968C932E85F70142
S28400708022833D8533838E850E940A248770880F880F880FD70114969C911497977C982B14969C93C8016C2D0E94992981E02E96E2E10C9453E4A3E0B0E0E1E6F8E30C9445E4FC01818589838F01045910408289882389F4662379F00D5D1F4F1B830A83035210408A819B8149816285738550E00E943EE504C0828593859B838A838A81CC
S2840071009B810C531F4FF80191838083898182938F019F0123543040C9012396E4E00C9461E480917A11813209F04BC08BE791E10E946A5C90937E1180937D110E94D5288091CE1084FF34C0E0917D11F0917E118285882311F0823059F580E38093CE10E0917D11F0917E1187858093B91183859485A585B6858093BA119093BB11A09324
S284007180BC11B093BD111092C4111092C3111092C2118FEA97E59093BF118093BE1181E08093C51180EA91E10E94F12F82E372C0E0917D11F0917E1182EC838B82E280937A1180917A11823209F06AC0E0917D11F0917E118091961090919710958B848BCF0146963296BF0148E050E00E943EE5E0917D11F0917E1180919510868FE091A8
S2840072007D11F0917E118389882361F560917F1170918011605F7F4F8AE990E148E050E00E943EE58FE068E970E10E94360C8EE065E970E10E94360C0E948C238DEF8093CE10E0917F11F09180114481558120912B1087E0289F9001112480E090E060E00E94F325E0917D11F0917E1121893289CF014396F90109951092801110927F11A7
S28400728080917B1190917C11892B39F08AE00E947D2781E280937A1108958AED80937A110895EF92FF920F931F93CF93DF938C01E0900511F0900611FC01C68DD78DCE010E945B3588818C7F816088838981806189830E948980BC01CE01409648E050E00E943EE580910811909109119B838A83898188608983CE0108966AE071E148E0E8
S28400730050E00E943EE581E08E8384E0888F80E4898FF7018285882311F080EC898FF7018385882319F0898D8062898F8091081190910911F801968B858B8AE1858F8091121181A386E180930411CDB7DEB7E6E00C945FE4EF92FF920F931F93CF93DF938C01F0900511E0900611FC01C68DD78DCE010E945B3588818C7F8160888389815D
S284007380806189830E948980BC01CE01089648E050E00E943EE58DEF9FEF9B838A838981877F898381E08E8384E0888B198A80918C10823069F0EF2DFE2D8285882311F080E8898B8385882319F089898062898B82E1F801858F83E180930411CDB7DEB7E6E00C945FE4A0E0B0E0E9EFF9E30C9441E46C01FC01E68CF78CC091C711D091AA
S284007400C8119091C6118CE2989F900111242C0F3D1F04C08881813031F0AC96C217D307C8F3C0E0D0E08701085E1F4FC7010E945B35F70180818C7F816080838181886181839F859170990F8D7F892B81838C859D8593838283BE016E5F7F4FC701089648E050E00E943EE58091961090919710F701958384830E948980BC01C701409610
S28400748048E050E00E943EE521E0F701268387E0808F8A859B85F801928381838E8583838C859D85F601968B858B898183FF02C021A303C085E0F60181A3F601D483C3838CE1858F84E08883CDB7DEB7E8E00C945DE4EF92FF920F931F937C01FC01068D178DC8010E945B35F80180818C7F816080838181877F80618183E0917F11F09198
S284007500801184819581F801938382838091961090919710958384830E948980BC01C801089648E050E00E943EE521E0F801268386E0808B80912A10005F1F4FF8018183E0917F11F091801184819581F701968B858B21A382E1858F1F910F91FF90EF900895A6E0B0E0E7EBFAE30C9437E49C838B83DC015E960D911C915F97A1E1AA2EED
S284007580B12CA00EB11EC8010E945B35F80180818C7F816080838181806181830E948980BC01C801089648E050E00E943EE58CEF9FEFD80113969C938E93129781E016968C93169788E050968C93509751968C91519780668F7751968C93F2E12F2E312C200E311EF801EE58FF4FFA83E9837101662477244AC0C6018819990943E15AED50
S284007600849F9001859F300D949F300D1124C901880F991F880F991F820F931FE0912B11F0912C11E80FF91FD60114968D919C911597D70111969C938E939481969596959695977012968C911297887F892B982F977F12969C931297948197709295907F8770892B12968C93F6018481958123E030E0E20EF31E49815A81E416F50608F040
