:100000000C94C2080C94FA080C94FA080C94FA08A0
:100010000C94FA080C947C1D0C944FC50C94CCC81D
:100020000C949DC80C94FA080C94FA080C94FA08E5
:100030000C94FA080C9467120C94FA080C94C412ED
:100040000C94FA080C94FA080C94FA080C94FA0828
:100050000C94FA080C94FA080C94FA080C94FA0818
:100060000C94FA080C943D1E0C949D1E0C946F1E6B
:100070000C94FA080C943D1F0C94F1130C94FA089C
:100080000C94FA080C94FA080C94FA080C94FA08E8
:100090000C94AF1D0C940F1E0C94E11D0C94CB1E00
:1000A0000C94FA080C94FA080C94BC130C9477C5C1
:1000B0000C94FA080C94FA080C94FA080C94FA08B8
:1000C0000C94FA080C94FA080C94FA08ED341D35D7
:1000D0001D351D35F2340735FC3401352C35F73428
:1000E0000C350C3511351D352335273547364A3645
:1000F0004D364D3650365C36563659366C3653369C
:100100005F3662366536683679377D37A537813791
:100110008537A5378937A53797379B37A237FE3CF8
:10012000B13DCE3D823C4A3E4A3EBF3DCE3DD43DF0
:10013000223EFB3D4A3E4A3E223EDB3C253E8D654B
:1001400095652165CA65CA6568657565CA65CA65CC
:10015000CA659F65AE6541654D65CA651E6580656A
:100160009868A568B968CB68D268DF68EC68F768FA
:10017000FF681D6948690969D06AD06A8E6A956A04
:10018000956AA16AA16AB26AB26AB26ABB82EF8258
:1001900025831183028325833C833C833C833C83FA
:1001A0003C833C833C833C833C833C831183258399
:1001B0003C83AE821883FC82A483A9836D848584EA
:1001C0009C849085C585C585C585C585C585C5853E
:1001D000C585C585C585C58540854E85C5855E8334
:1001E00066854F842996A495769676967696AA95F6
:1001F000AF9540967696B295B595BF95C79576968C
:10020000CA95CD95D0957696D595D8954096DD959D
:100210001D963296769620962396A8952696269633
:10022000409640964096409640964096409640961E
:10023000409640964096409640964096409640960E
:10024000409613964096769676967696769676961D
:10025000769676967696769676967696769676963E
:10026000769640963596389640960C968597909659
:1002700087978797879795969D9687978797A5964F
:10028000AA96C496CC968797D196D996E3968797E7
:10029000EB96F0968797F8961597279787971A9772
:1002A0002297859785978597319731973197319721
:1002B00031973197319731973197319731973197FE
:1002C000319731973197319731970B9731978797BE
:1002D000879787978797879787978797879787972E
:1002E0008797879787978797879731972C978597D1
:1002F00031970697B798B598B598E498EB98FE981B
:10030000069909990C990F991299199A209A2F9A7E
:10031000379A399A3B9A3D9A409AAFA8B9A87CADD2
:10032000D5A89EAB1CABA9A87CAD7CAD7CAD1DADAA
:10033000EDA8F6A814AD48A980A968A972A9ACAB2C
:10034000ACAB47AA7CAD7CAD57AC57AC57AC7CADE1
:1003500057AC57AC50AC50AC03AC7CAD7CAD7CAD75
:1003600077A939AD3EAD46AC4AACE4AAF2AA0EABD1
:1003700000AB98AAB3AA8EAA7DAAE3AC7CADCBAAA7
:10038000D3AADCAA7CADAFA87CADD5A8EDA8B2A954
:10039000F6A8F6A848A972A968A98EAA7CAD7CAD7A
:1003A00047AA80A954AA7CAD7CAD7CAD7CAD68AA7F
:1003B00068AA68AA68AA68AA68AA68AA68AA68AAAD
:1003C00076AA76AA76AA76AA76AA76AA76AA76AA2D
:1003D00076AAB7A9B7A9B7A902AA02AA02AA1EAA11
:1003E0001EAA1EAA77C17BC18DC19EC1A0C3A0C396
:1003F000A0C34BC2A1C250C3A0C3A2C1A5C1A0C388
:10040000C1C11EC2CBC1CFC1A0C3A0C309C119C203
:10041000DEC1A0C3A0C3A0C3A0C3A0C3A0C3A0C388
:10042000A0C3A0C33DC240C243C236C2A0C38CC356
:10043000A0C3A0C3FAC000C1FDC003C14BC160C1CD
:10044000A0C3A0C3A0C3EBC0EEC0F1C0F7C089C178
:1004500077C18DC19EC1A2C106C1B7C1BCC1C1C116
:10046000CFC1CBC1DAC1DEC119C209C11EC237C1B9
:100470003AC13AC13AC13AC125C125C125C125C1F8
:1004800025C125C125C125C125C12EC12EC12EC121
:100490002EC12EC12EC12EC12EC12EC10EC10EC124
:1004A0000EC113C113C113C11CC11CC11CC1C6C3E1
:1004B0009EC4A4C4C8C3A4C4A4C4A4C4A4C4A4C4DF
:1004C000A4C470C4BEC3D5C3A4C4E1C39EC4F0C356
:1004D000F7C39EC49EC4FEC3A4C4A4C450C45CC4D9
:1004E00067C4A4C49EC450C4A4C4A4C44DC4A4C4BA
:1004F000A4C4A4C464C4A4C49EC4A4C4A4C4BEC3E9
:10050000BEC3BEC34AC430C42AC4BEC316C423C4B7
:10051000A4C4C1C3C1C3C1C3A4C4C6C3A4C4C8C303
:10052000BEC3BEC3D5C3D5C3E1C3F7C3F0C3BEC307
:10053000A4C4A4C4FEC39EC413C4A4C4A4C4A4C4B9
:10054000A4C405C405C405C405C405C405C405C4C4
:1005500005C405C4BEC3BEC3BEC3BEC3BEC3BEC303
:10056000BEC3BEC3BEC305C405C405C409C409C413
:1005700009C40EC40EC40EC4000000000000000038
:10058000000000000000000000000000000000006B
:10059000000000000000000000000000000000005B
:1005A000000000000000000000000000000000004B
:1005B000000000000000000000000000000000003B
:1005C000000000000000000000000000000000002B
:1005D000000000000000000000000000000000001B
:1005E000000001020100020206080000FFFF3412B1
:1005F00000000000000000000A0F000800000000DA
:1006000000000000000000000000000000000000EA
:1006100000000000000000000000000000000000DA
:10062000000000000500FF000002C8320000003496
:100630001201030300001027000010270000010032
:1006400001E803000004E8030000000000000000CF
:10065000000000000000000000000000000000009A
:100660000000000300E09304000084000000190A69
:1006700019190A06020402280432040305000000C6
:100680000014107A120800841201009112040095DF
:10069000120100421301004913080045130200D162
:1006A000120200DA1201003E130100431301009808
:1006B000120100991201009A1201009B120100968A
:1006C0001202009C120100401301003F130100546C
:1006D00012010056120100C21208002A120400A8DA
:1006E0001204009D120400A1120400A5120100A62C
:1006F000120100A7120100B11211003B130100AC5E
:10070000120100AD120400CA12010057120200CB00
:10071000120100CC120400D0120100000000006A97
:100720000602006E0601006C0602007006010071F0
:1007300006010072060100730601007406010075CF
:1007400006010076060100770601006F06010078B9
:1007500006010079060100810602007A0601007B8D
:100760000601007C0601007D0604008D04000037B0
:1007700007000011050000DA090000000000005722
:100780000A0000B8110000101200002B0D000087B5
:100790000E0000430E0000F50E0000EF0F00004FAA
:1007A00011000000000000000000007A1204009513
:1007B000120C00C2120D002A121500431319003B3F
:1007C000131A00A5121B00A6121C00A7121D00B1CF
:1007D000121E0096122F009C123100451332003E6B
:1007E000133400CB123500D1123600DA123800492A
:1007F0001339009B124100D01242003707430054C6
:100800001AA919AD19501AB119B51903040506072B
:100810006A2F1C2A000000000000000000000000F9
:10082000FE6E6871C379F76D9E6BAC6DFB693061CC
:1008300068506A69D35A6F576A541250904FAA4F42
:10084000000000000000000000000000020203029F
:100850000102010101010101010202010101020283
:100860000202020202020202020202030302020365
:1008700002F35C5C6A0108175F12510101175F12F5
:10088000510101AB5C1C6B0101355CF55701013571
:100890005CCA570108EC5BDD6E0101935B127701C6
:1008A000010000000001080000000001010000003C
:1008B00000010300009D4901040000000001050043
:1008C000000000010600000000010100000000011E
:1008D00001175F000000010000000001000000009F
:1008E00000010800000000010A00000000010000F3
:1008F00000000001010000000001010000000000F4
:10090000000000E95100080000E951000C0000E976
:100910005100000000E95100D946CF4BAA47824759
:10092000A2470000E146F1469A47E946994BB8468E
:1009300051495949C1494949B2470000D94C926CC3
:100940007760137A59770000DE7B887025590000A4
:1009500000003A4348494C445F4C4F5354202530E3
:10096000386C582530386C58003A4348494C445F3D
:100970004A4F494E4544202530386C582530386C54
:1009800058003A4C4F5354003A4A4F494E454400A0
:1009900020253034582C25752C25753A00257520D6
:1009A0007C202575207C202530386C582530386C0B
:1009B00058207C2025303458207C2575207C20252B
:1009C0007520005325750025733A20002B5752538C
:1009D00053493A2564002B574C51493A2575002557
:1009E00030386C582530386C5800010100000D007B
:1009F00000000000000000000000000000000201F4
:100A000002000A00000000000000000000000000DA
:100A100000000301040008000000000000000000C6
:100A200000000000000004010600010000000000BA
:100A300000000000000000000000050108000000A8
:100A4000000000000000000000000000000006019F
:100A50000A0001000000000000000000000000008B
:100A6000000007010C000100000000000000000071
:100A700000000000000008010E000300000000005C
:100A8000000000000000000000000901100000004C
:100A900000000000000000000000000000000A014B
:100AA0001200000000000000000000000000000034
:100AB00000000B021400881300000000000000007A
:100AC0000000000000000C01170000000000000002
:100AD000000000000000000000000D0419000000EC
:100AE00000000000000000000000000000000E01F7
:100AF00020000000000000000000000000000000D6
:100B000000000F01220002000000000000000000B1
:100B1000000000000000100124000200000000009E
:100B2000000000000000000000001101260002008B
:100B300000000000000000000000000000001201A2
:100B4000280002000000000000000000000000007B
:100B5000000013012A000200000000000000000055
:100B600000000000000014012C0002000000000042
:100B70000000000000000000000015012E0002002F
:100B8000000000000000000000000000000016014E
:100B90003000020000000000000000000000000023
:100BA00000001701320002000000000000000000F9
:100BB00000000000000018043500000000000000E4
:100BC0000000000000000000000019043A0064006A
:100BD00000000000000000000000000000001A04F7
:100BE0003F000000000000000000000000000000C6
:100BF00000002530386C582530386C5800253038C6
:100C00006C5800253034580025580025750025649F
:100C1000004556454E540044415441004552524F00
:100C200052004F4B002C003A002C002500052500F7
:100C3000062500073400003400013400022B0006B2
:100C40002B00072E00032B5750414E4944002B57D1
:100C50004E574B50414E4944002B574348414E009C
:100C60002B5743484D41534B002B574C454156455C
:100C7000002B574A4F494E002B574E574B002B57CE
:100C8000504152454E54002B574348494C4452451D
:100C90004E002B574E4253495A45002B574E4200A7
:100CA0002B574155544F4E4554002B575057520027
:100CB0002B57534C454550002B57524F4C45002B5A
:100CC00057535243002B5753594E43505244002B15
:100CD000575458505752002B574C5149002B5752DC
:100CE000535349002B5754494D454F5554002B57EA
:100CF0005245545259002B5757414954004400441F
:100D000055004453004452002B5750494E4700446D
:100D1000420026480025480049002B474D49002B3A
:100D2000474D4D002B474D52002B47534E002B573C
:100D300043414C494252415445002B574143414C99
:100D4000494252415445005A002646004500510090
:100D5000560058002B495052002B49464300264468
:100D6000002B5750415353574F52440052005330B9
:100D700000533300533400533500533230005332A4
:100D80003100533232005332330053323400533384
:100D90003000533331005333320053333300533375
:100DA0003400533337005335300053353100533559
:100DB0003200533533005335350053313030005352
:100DC0003130310053313032005331303300533140
:100DD000303400533132300053313231005331322C
:100DE0003200533132330053313234005331323513
:100DF000005331323600533132370053313238002C
:100E000053313330005331333100533133320053D7
:100E100031333300533133340053313335005331E0
:100E200033360053313337005331333800533134C4
:100E300030005331343100533134320053313433C4
:100E400000533134340053313435005331343600DB
:100E50005331343700533134380000460C0205005A
:100E600000E0014E0C03030000E001590C040600F1
:100E7000002000600C05040000E001690C06000081
:100E8000001000710C070000001000780C08000032
:100E90000010007E0C090000002000870C0A0000F2
:100EA000002000920C0B00000020009B0C0C2E0078
:100EB000001001A00C0D060000E001AA0C0E0900B4
:100EC00000E002B00C0F0000001000B80C1006008B
:100ED00000E001BF0C11030000E001C50C1201008D
:100EE00000E001CF0C13020000E001D70C14030056
:100EF000001001DD0C150300001001E40C180100C6
:100F0000002001EE0C170600002001F60C1601006F
:100F100000E001020D1B5900001002FF0C1A010035
:100F20000010000F0D1E4B00001003080D1D0300E4
:100F3000001001FD0C194B00001001470D280000A6
:100F4000001000490D2900000010004C0D2A060079
:100F50000010004E0D2B0600001000500D2C060056
:100F6000001000520D2D0600001000540D2E01003F
:100F700000E001590D2F360000E0035E0D30060041
:100F8000001001120D1F0000001000150D200000C0
:100F9000001000180D2106000010001A0D22070095
:100FA0000020001F0D230700002000240D2407004F
:100FB000002000290D2505000060012E0D260000EF
:100FC0000010003A0D27010000E001610D3104001E
:100FD0000010016C0D32E3010010076E0D330600A6
:100FE000002001710D340100006001740D35010015
:100FF000006001770D3601000060017A0D370500B1
:101000000020017E0D380500006001820D390600C8
:10101000002001860D3A04000060018A0D3B0600A5
:101020000060018E0D3C0600006001920D3D010044
:10103000006001960D3E01000060019A0D3F060020
:101040000060019E0D400200006001A20D41010000
:10105000006001A60D420600006001AA0D430100D8
:10106000002001AE0D440600002001B20D45010034
:10107000006001B60D460300006001BA0D4706008E
:10108000006001BF0D480100002001C40D490100AE
:10109000002001C90D4A0100002001CE0D4B0100C6
:1010A000002001D30D4C0600006001D80D4D060054
:1010B000006001DD0D4E0600006001E20D4F0600EC
:1010C000006001E70D500600006001EC0D510600C4
:1010D000006001F10D520600006001F60D5306009C
:1010E000006001FB0D540600006001000E55060073
:1010F000006001050E5606000060010A0E5706004A
:101100000060010F0E580600006001140E59060021
:10111000006001190E5A06000060011E0E5B0600F9
:10112000006001230E5C0600006001280E5D0600D1
:101130000060012D0E5E0600006001320E5F0600A9
:10114000006001370E6006000060013C0E61010086
:10115000006001410E620100006001460E63010063
:101160000060014B0E640100006001500E6501003B
:10117000006001550E6601000060015A0E0000007B
:101180000000000011248091251E823141F084B7B7
:101190008F718093251E80FF05C081E001C081E131
:1011A0008093251E14BE809160008861809360004A
:1011B0001092600011241FBECFEFD1E2DEBFCDBF81
:1011C00012E0A0E0B2E0EAE1FFE901E00BBF02C0FB
:1011D00007900D92AA38B107D9F71EE1AAE8B2E04C
:1011E00001C01D92A532B107E1F70E94E7200E94DD
:1011F000AA20FDCF0C9400007F937FB7F8949D9AAE
:10120000A5988AEF0E945B098AEF0E945B099D986E
:1012100086E40E945B0981E0959980E08F9380EFDE
:101220000E945B098F917FBF7F9108957F937FB765
:10123000F8949D9AA59886E00E945B099D988AE0A3
:101240000E945B09889495990894881F8F9384E67F
:101250000E945B098F917FBF7F9108959F937F9339
:1012600098E00E941609879577959A959923C9F772
:10127000872F7F919F9108957F937FB7F894A598CA
:101280009D9A8F9386E00E945B098F91879508F461
:101290009D988F9384E60E945B098F919D987FBFF4
:1012A0007F9108959F9398E00E943C099A95992315
:1012B000D9F79F91089500000000000000008A9572
:1012C0008823C9F708955F937F937FB7F894CF93EE
:1012D000DF93C0E0D0E07F935091B2007091B200F4
:1012E0007517E1F3739521965091B2005717D9F70E
:1012F0007F91CE01DF91CF917FBF7F915F91089564
:10130000EF92FF920F93DF93CF93CDB7DEB7609745
:101310000FB6F894DEBF0FBECDBFA82F002309F48F
:1013200061C07E010894E11CF11C88E0F701119274
:101330008A95E9F729833A834B835C836D837E83A7
:10134000AF83988780E2801BE82FFF27E7FDF095A9
:101350004D815E816F817885181684F01D861E860A
:101360001F86188A882799278E1B9F0B04C07695A5
:101370006795579547958A95D2F728C0202F332730
:1013800027FD3095DB01CA01022E04C0B695A79552
:10139000979587950A94D2F78D879E87AF87B88BEC
:1013A00004C0440F551F661F771FEA95D2F7898145
:1013B0009A81AB81BC8104C0B695A7959795879516
:1013C0002A95D2F7482B592B6A2B7B2B49875A87B2
:1013D0006B877C8729853A854B855C856D857E8505
:1013E000AF8598898A2F60960FB6F894DEBF0FBE3E
:1013F000CDBFCF91DF910F91FF90EF900895EF92C5
:10140000FF920F93DF93CF93CDB7DEB760970FB600
:10141000F894DEBF0FBECDBFA82F002309F461C032
:101420007E010894E11CF11C88E0F70111928A9575
:10143000E9F729833A834B835C836D837E83AF8393
:10144000988780E2801BE82FFF27E7FDF095498110
:101450005A816B817C81181684F019861A861B8646
:101460001C86882799278E1B9F0B04C0440F551F8D
:10147000661F771F8A95D2F728C0202F332727FDB4
:101480003095DB01CA01022E04C0880F991FAA1FE4
:10149000BB1F0A94D2F789879A87AB87BC8704C0A1
:1014A0007695679557954795EA95D2F78D819E81F8
:1014B000AF81B88504C0880F991FAA1FBB1F2A954A
:1014C000D2F7482B592B6A2B7B2B4D875E876F8772
:1014D000788B29853A854B855C856D857E85AF85C2
:1014E00098898A2F60960FB6F894DEBF0FBECDBFE5
:1014F000CF91DF910F91FF90EF90089508950E9492
:1015000042A108952DE133E030939F0220939E0283
:1015100020E530E03093A1022093A0022BEA32E0D4
:101520003093A3022093A20222E730E03093A50279
:101530002093A4021092A7021092A6021092A90270
:101540001092A80260E0823009F461E08AE892E03B
:101550000E9445A1089580E090E00895089584E0F8
:10156000089584E0089584E0089510927A1210920C
:101570007B1210927C1210927D1210927E121092A9
:101580007F12109280121092811210929512E2EC4A
:10159000F2E11092C2121182128213821482158219
:1015A0001682178280E098E0A0E0B0E080932A12D3
:1015B00090932B12A0932C12B0932D1210924313E0
:1015C00081E080933B138093A5121092A612809322
:1015D000A71284E392E1909397128093961210924F
:1015E0009C128FEF9FEF90934613809345131092B8
:1015F0003E131092CB129093D2128093D11210927C
:10160000DA121092491310924A1310924B1310924F
:101610004C1310924D1310924E1310924F131092C0
:10162000501310929B121092D01288E080934213B4
:1016300083E08093991280939A1289E1E7E3F7E0BF
:10164000DF011D928A95E9F70895A4E0B0E0EBE28E
:10165000FBE00C944BCB682F70E0660F771F660F92
:10166000771F6D57794FCE01019644E050E00E94FC
:10167000EBCB69817A818B819C812496E2E00C948A
:1016800067CBCF93DF93EB010E94250B009719F4F2
:10169000CB0168839983DF91CF910895CF93DF9336
:1016A000EB016115710589F0873278F406C0CB0132
:1016B000BE01422F0E9439CC08C00E94250B592F31
:1016C000282F392F2115310591F7DF91CF910895FA
:1016D0001F93CF93DF93182FEB016115710571F004
:1016E0000E94250B9B01AC01173228F0CE01B901F5
:1016F0000E94EBCB03C0CE010E9439CCDF91CF9189
:101700001F9108950E94870B0E94990D0895E9E5A5
:10171000F2E188E3DF011D928A95E9F7B196109214
:101720007A12118212821382148215821682178213
:1017300085E08093841281ED92E168E775E042E8EC
:1017400050E00E94EBCB8AE292E16AEF75E04FE253
:1017500050E00E94EBCB89E292E169E276E041E061
:1017600050E00E94EBCB81E992E16AE276E040E44E
:1017700050E00E94EBCB8CE99DE0EDE8F4E0DF0166
:101780009C011D9221503040E1F70895EF92FF92A5
:101790001F93DF93CF93CDB7DEB727970FB6F8949B
:1017A000DEBF0FBECDBF8FEF8983CE0101969D8333
:1017B0008C8380910102909102029B838A8381E055
:1017C00090E09F838E8310E082E0E82EF12CEC0EF7
:1017D000FD1EC70169EA7DE00E94CE0D882351F409
:1017E0002A813B811F5F1A3029F02F5F3F4F3B83D7
:1017F0002A83EFCF27960FB6F894DEBF0FBECDBF7A
:10180000CF91DF911F91FF90EF900895A6E0B0E097
:10181000ECE0FCE00C9441CB8C010097E9F1E09006
:101820000102F0900202FA82E98281E090E09E8358
:101830008D8348019AE0C92ED12CCE0CDF1C5E01AD
:101840000894A11CB11C1FC08B829C820E94AA0D0F
:10185000C50160E070E00E94B30F8F5F9F4F21F4DD
:1018600081E0F801838318C00E94AA0DF8018081ED
:1018700029813A818F3F19F0328321830CC02F5F79
:101880003F4F3A83298389819A818C159D05E0F227
:10189000F801F282E18213822696ECE00C945DCB93
:1018A000A7E0B0E0E6E5FCE00C9443CB8C010097A8
:1018B000E1F11982FC01108284E090E09B838A832D
:1018C00081E090E09F838E83E0900102F09002021D
:1018D0005E010894A11CB11C22E0C22ED12CCC0EBA
:1018E000DD1E1CC0BD82AC820E94AA0DC60160E054
:1018F00070E00E94B30F8F5F9F4F21F481E0F801E9
:10190000838313C00E94AA0DF80180819981890FF9
:1019100080838A819B8101969B838A838A819B81B4
:101920008E159F05F8F2F80113822796EAE00C94D1
:101930005FCBA8E0B0E0EFE9FCE00C944BCBCE012C
:1019400005960E94500C8885813079F0CE01019671
:101950000E94060C8C81813041F089819D81890F24
:1019600011F082E003C080E001C081E02896E2E04F
:101970000C9467CBAFE0B0E0E0ECFCE00C944BCB18
:101980008FEF8983CE0102960E94060C8D818130F3
:10199000E9F1CE0106960E94500C89858130B1F1A3
:1019A0009E818A81890F99F191959E838B819C817B
:1019B0009B878A87CE0101969D878C8781E090E086
:1019C0009F878E87CE010A9669EA7DE00E94CE0D40
:1019D0008823E9F48A859B8501969B878A874091B5
:1019E0000102509102029A01265F3F4F821793072E
:1019F00010F05B874A87CE0106969D878C87CE01C3
:101A00000A9669EA7DE00E94CE0D01C081E02F9622
:101A1000E2E00C9467CBA6E0B0E0E1E1FDE00C94DD
:101A200049CB89012091010230910202265F3F4F8C
:101A3000280F391F3A8329835E834D837C836B8310
:101A400002C00E94E42080916D038130D1F3011522
:101A5000110511F409EA1DE0CE010196B8010E94BA
:101A6000CE0D2696E4E00C9465CBA6E0B0E0EBE367
:101A7000FDE00C9449CB89012091010230910202D2
:101A8000265F3F4F280F391F3A8329835E834D839A
:101A90007C836B8302C00E94E42080916D038130BF
:101AA000D1F30115110511F409EA1DE0CE010196EB
:101AB000B8010E94B20D2696E4E00C9465CB8091AB
:101AC0006D03882349F483E593E10E941E0F0E9471
:101AD000860E02C00E94E42080916D038130D1F314
:101AE0000895A6E0B0E0E7E7FDE00C9447CB0E9444
:101AF000B50A0091000210E07E010894E11CF11C7F
:101B00000CC0812FB7010E94EA0DC70169EA7DE090
:101B10000E94CE0D882349F41F5F101790F30E9496
:101B2000C60B882311F40E94BA0C2696E6E00C94AA
:101B300063CB0E94990C882339F40E94310E8130C6
:101B400039F00E94800E0895813011F00E94800EBD
:101B50000895089502C00E94E4200E941510882371
:101B6000D1F708950F931F93CF93DF938C01EB016F
:101B70000E94AA0DC801BE010E94B30F8F5F9F4F44
:101B800011F481E006C0C95ADD4011F40E94AA0D8B
:101B900080E0DF91CF911F910F9108950F931F93D4
:101BA000CF93DF938C01EB010E94AA0DC801BE0107
:101BB0000E944F108F5F9F4F11F481E006C0C95AF9
:101BC000DD4011F40E94AA0D80E0DF91CF911F91BA
:101BD0000F910895A8E0B0E0E0EFFDE00C9447CB52
:101BE0007B01082F10E0B801660F771F660F771F83
:101BF0006555784FCE01019644E050E00E94EBCB52
:101C000089819A81F701938382832B813C8131837F
:101C100020838091000290E001970817190739F49A
:101C20008091010290910202821B930B14C0000F5D
:101C3000111F000F111F0155184FCE010596B80155
:101C400044E050E00E94EBCB8F8198852B813C8152
:101C5000821B930BF701958384832896E6E00C940E
:101C600063CBA6E0B0E0E7E3FEE00C9447CB009145
:101C7000000210E07E010894E11CF11C0CC0812FD1
:101C8000B7010E94EA0DC70169EA7DE00E94B20D2A
:101C9000882321F41F5F101790F380E02696E6E07A
:101CA0000C9463CBA4E0B0E0E8E5FEE00C944BCBF1
:101CB00090935F1380935E13662359F484E2BE0110
:101CC0006F5F7F4F0E94680B89819A81AB81BC81D5
:101CD00004C082E390E0A0E0B0E0809359139093B9
:101CE0005A13A0935B13B0935C1381E080935D1350
:101CF00083E593E10E94430F2496E2E00C9467CBC6
:101D000086E89EE060E00E94520E0895ADE0B0E0EB
:101D1000ECE8FEE00C943FCB81E080936D03709083
:101D2000000252E0852E912C8C0E9D1E46E0642E02
:101D300038E0E32EF12CEC0EFD1E5E010894A11C90
:101D4000B11C21E0C22ED12C33C0B4010E94EA0D97
:101D5000F701862D11928A95E9F7BB86AA86DD8662
:101D6000CC8600E010E01EC08A819B81800F911F0D
:101D700099878887C70169EA7DE00E94B20DAA852C
:101D8000BB85EC81FD81E00FF11F9C91808198174C
:101D900039F0CE01029666E87EE00E94CE0D23C0A7
:101DA0000F5F1F4F8E819F8108171907E8F215C03A
:101DB00080916E03871548F210926E030E94BA0C50
:101DC000813031F486E89EE061E00E94520E0BC043
:101DD0000E94800E10926D0306C080916E038F5F8B
:101DE00080936E03E5CF2D96EEE00C945BCB8F9243
:101DF0009F92AF92BF92CF92DF92EF92FF920F939A
:101E00000E94D5114B015C012091720330E040E04B
:101E100050E060E070E080E090E000E20E94FF09A6
:101E2000282939294A295B290F91FF90EF90DF90EB
:101E3000CF90BF90AF909F908F900895CF93DF93F6
:101E4000EC010097D1F080916F03909170038C1793
:101E50009D0719F460E070E008C08FE693E0BE01D2
:101E60000E943511BC01009741F08FE693E0AE016E
:101E70000E94171120E030E002C02FEF3FEFC901B0
:101E8000DF91CF910895CF93DF93EC01009771F02C
:101E9000E0916F03F091700306C0EC17FD07D9F0D5
:101EA0000190F081E02D3097C1F706C02FEF3FEF92
:101EB000C901DF91CF9108950E94B1139B01AC013C
:101EC000198218826A837B838C839D838FE693E0DB
:101ED000BE010E94C81020E030E0EACFEF92FF92EE
:101EE0000F931F93CF93DF9318C08FE693E060E0CA
:101EF00070E0AE010E9417118A85882359F4EA82A6
:101F0000FB820C831D838FE693E0BE01A80197013D
:101F10000E94C810EB85FC85099580916F03909114
:101F20007003892BD9F00E94B1137B018C01C09101
:101F30006F03D09170038A819B81AC81BD81A80120
:101F40009701281B390B4A0B5B0B8E819F81A8855B
:101F5000B985281739074A075B0738F6CDB7DEB7CA
:101F6000E6E00C9463CBFC0180917103882319F0A7
:101F70002EEF3FEF58C0309709F453C0848195810C
:101F800020813181820F931F8150904108F049C018
:101F900081E0809371037093671360936613A0E6EA
:101FA000B3E186E001900D928150E1F7F999FECFFF
:101FB00020E030E017C0E0916213F0916313E20F6C
:101FC000F31F8091601390916113019690936113B8
:101FD00080936013019792BD81BDF89A80B580838C
:101FE0002F5F3F4F80916413909165132817390735
:101FF00010F310926513109264138091880380612E
:10200000809388032FB7F8948091BA039091BB0313
:1020100082609093BB038093BA032FBF20E030E02F
:1020200002C02FEF3FEFC901089590E08091710346
:10203000813009F491E0892F089580916413909183
:102040006513892B51F410927103E0916613F0919E
:102050006713309719F10995089560916013709195
:1020600061136F5F7F4F70936113609360136150D2
:102070007040E0916213F09163134191F093631308
:10208000E09362138CE00E94E213809164139091BC
:102090006513019790936513809364130895CF930C
:1020A000DF93FC0180917103882319F02EEF3FEF3D
:1020B0006BC0309709F466C084819581208131819D
:1020C000820F931F8150904108F05CC081E08093A3
:1020D0007103A0E6B3E186E001900D928150E1F733
:1020E0007093671360936613672B19F4C0E0D0E018
:1020F0003BC060916013709161136F5F7F4F70936D
:1021000061136093601361507040E0916213F0912D
:1021100063134191F0936313E09362138CE00E9488
:10212000E213809164139091651301979093651366
:102130008093641324C060916013709161136F5F8A
:102140007F4F709361136093601361507040E09112
:102150006213F09163134191F0936313E093621360
:1021600084E00E94E213219680916413909165139C
:10217000C817D90700F3F999FECF1092710320E038
:1021800030E002C02FEF3FEFC901DF91CF910895FA
:10219000A0E0B0E0EEECF0E10C9443CB8C01EB015D
:1021A00069017A01FC01608171816115710589F114
:1021B000FB01AA24BB242681378140855185828179
:1021C0009381A481B581280F391F4A1F5B1F2C19E9
:1021D0003D094E095F092F3F8FEF38078FEF480702
:1021E0008FE7580748F48E819F81A885B985281705
:1021F00039074A075B0738F4808191815F010097B6
:1022000061F0FC01D8CFE617F70731F4F983E883D2
:10221000F801D183C08306C0CF01F501D183C0830B
:1022200099838883CDB7DEB7EAE00C945FCBCF9378
:10223000DF93EC01DB01FA01888199814817590786
:1022400039F48081918111821082888399830AC038
:102250008081918111969C938E93118210828C9132
:1022600011969C91DF91CF910895FC010190F0812E
:10227000E02D06C0808191818617970719F0FC0137
:102280003097C1F7CF0108958FB7F89410927A0371
:1022900010927903109278038FBF08958091700097
:1022A0008C7F809370008091B60080628093B6002E
:1022B0001092B2001092B0001092B1001092B300D0
:1022C0008091B60090E08F719070892BC9F783E000
:1022D00087BB87E08093B10080917000816080931C
:1022E000700008958091B60090E08F719070892BF6
:1022F000C9F7809170008C7F809370008091B1004D
:10230000887F8093B10083B5826083BD8091B600E1
:1023100090E08F719070892BC9F78091B6008F7D06
:102320008093B6000895EF92FF920F931F937B0165
:102330008C016091B200862F90E0809590959C0171
:10234000442737FD4095542F3070407050702E1543
:102350003F054007510798F4D801C701821B930B32
:10236000A40BB50B9C01AD01BB27A52F942F832F88
:10237000909379038093780320937A0311C080911E
:10238000B60090E08F719070892BC9F76E0D609345
:10239000B30082E087BB8091700082608093700000
:1023A0001F910F91FF90EF900895EF92FF920F937E
:1023B0001F936FB7F894709173032091B20084E477
:1023C0008093B4008091B60090E08F719070892B5B
:1023D000C9F7B89904C030E040E050E00AC08091ED
:1023E000B200282F30E040E050E021503F4F4F4FE7
:1023F0005F4F6FBF8FEF789FC0011124AA2797FD11
:10240000A095BA2F820F931FA41FB51F9C01AD0189
:1024100075E0220F331F441F551F7A95D1F77C01B9
:102420008D0162E016950795F794E7946A95D1F7C8
:102430002E0D3F1D401F511FE0907403F090750357
:1024400000917603109177032E0D3F1D401F511F01
:10245000281B390B4A0B5B0BB901CA011F910F9165
:10246000FF90EF90089560E270E080E090E00895C2
:102470002FB7F89460917303109273032FBF70E02D
:1024800080E090E020E43FE140E050E00E94E6CAB6
:102490002091740330917503409176035091770336
:1024A000260F371F481F591F20937403309375035D
:1024B0004093760350937703261737074807590749
:1024C00028F4809172038F5F8093720308951F92A6
:1024D0000F920FB60F920BB60F9211242F933F93CA
:1024E0004F935F936F937F938F939F93AF93BF931C
:1024F000EF93FF93809170008D7F80937000109216
:102500007A038091B10380FF03C080E00E94B2147F
:102510008091B10382FF11C0809185038160809317
:1025200085032FB7F8948091BA039091BB03826022
:102530009093BB038093BA032FBFFF91EF91BF919C
:10254000AF919F918F917F916F915F914F913F914B
:102550002F910F900BBE0F900FBE0F901F901895EC
:102560008091B10380FF0FC081E00E94B21480917E
:1025700070008D7F809370000E9444118091B103A0
:102580008B7F8093B10308951F920F920FB60F9225
:102590000BB60F9211242F933F934F935F936F933A
:1025A0007F938F939F93AF93BF93EF93FF9380910C
:1025B000780390917903892BA1F580917A03882380
:1025C000E9F48091B10380FF03C080E00E94B2145F
:1025D0008091B10382FF34C0809185038160809334
:1025E00085032FB7F8948091BA039091BB03826062
:1025F0009093BB038093BA032FBF22C08091B60093
:1026000090E08F719070892BC9F780917A03809345
:10261000B30082E087BB809170008260809370007D
:1026200009C0809178039091790301979093790381
:10263000809378038091B10380FF02C00E943E1412
:10264000809173038F5F8093730380918503826011
:10265000809385032FB7F8948091BA039091BB03C0
:1026600082609093BB038093BA032FBFFF91EF91D9
:10267000BF91AF919F918F917F916F915F914F919A
:102680003F912F910F900BBE0F900FBE0F901F9098
:10269000189580E197E29093A9008093A800E1EA61
:1026A000F0E088E08083808182608083E2E7F0E070
:1026B000808182608083089520917D0330917E0324
:1026C00040917F0350918003260F371F481F591FE9
:1026D00020937D0330937E0340937F0350938003C8
:1026E000809189038068809389032FB7F894809143
:1026F000BA039091BB0382609093BB038093BA03AB
:102700002FBF08952FB7F89460917C0310927C033B
:102710002FBF70E080E090E02AE030E040E050E041
:102720000E94E6CA20917D0330917E0340917F0391
:1027300050918003260F371F481F591F20937D0398
:1027400030937E0340937F0350938003261737070F
:102750004807590728F480917B038F5F80937B03A0
:1027600008950E94821360917D0370917E03809191
:102770007F039091800308951F920F920FB60F92DE
:1027800011242F938F939F9380917C038F5F80936D
:102790007C03809189038068809389032FB7F89424
:1027A0008091BA039091BB0382609093BB038093A6
:1027B000BA032FBF9F918F912F910F900FBE0F9053
:1027C0001F901895982FF999FECF07B600FCFDCF02
:1027D00072BD61BD40BD8FB7F8949FBBF99A8FBFA2
:1027E00008951F920F920FB60F9211242F938F937B
:1027F0009F93FB98809188038061809388032FB713
:10280000F8948091BA039091BB0382609093BB03CC
:102810008093BA032FBF9F918F912F910F900FBE7E
:102820000F901F9018950E94D5112091810330912F
:1028300082034091830350918403621B730B840BCA
:10284000950B1092810310928203109283031092D1
:1028500084030E945C138091A10082608093A10098
:102860000E94EC158091B10381FD07C0E091A203A5
:10287000F091A303309709F0099508950E94EB1C8D
:10288000882309F44EC08091B10382FD03C02FEF6D
:102890003FEF66C024982C988091B60090E08F712D
:1028A0009070892BC9F78091700081FD0AC08FEF6D
:1028B0008093B3008091B60090E08F719070892B67
:1028C000C9F78091B000806C8093B0008091B60011
:1028D00090E08F719070892BC9F78091B10080686A
:1028E0008093B1008091B60090E08F719070892B39
:1028F000C9F78091B0008F738093B0008091B600CB
:1029000090E08F719070892BC9F78091B00080683A
:102910008093B0008091B60090E08F719070892B09
:10292000C9F78091B10381608093B1038091B600B3
:1029300090E08F719070892BC9F780918A0380682D
:1029400080938A032FB7F8948091BA039091BB03C8
:1029500082609093BB038093BA032FBF20E030E0E6
:10296000C90108959091B1038170880F9C7F982BC5
:102970009093B1030E94EB1C882311F42C980EC095
:1029800024982C988091B0008F738093B000809130
:10299000B60090E08F719070892BC9F7249A419A04
:1029A000809189038460809389032FB7F894809184
:1029B000BA039091BB0382609093BB038093BA03E8
:1029C0002FBF08958091B10380FF5DC08091A10069
:1029D0008D7F8093A1008091810390918203A091CB
:1029E0008303B09184030097A105B10551F40E94BF
:1029F000D511609381037093820380938303909336
:102A00008403419880918F038111EC9AF999FECF4C
:102A10000E94EB1C8823B1F42C9A249A8091B10374
:102A200082FF05C087E083BF889513BE22C00E9445
:102A3000721185E083BF889513BE0E944E110E94DB
:102A4000B91517C0909172002091BC0030917A00A6
:102A5000109272001092BC0010927A00249A87E0C3
:102A600083BF889513BE909372002093BC0030936F
:102A70007A0084E48093B4008091B60090E08F7176
:102A80009070892BC9F70895A0E0B0E0EAE4F5E181
:102A90000C943FCB00E8C2E8DBE810E092E8C92ED6
:102AA0009BE8D92EE12CF12C82E8A82E8BE8B82ED9
:102AB0000E946309BC018BE86338780718F19E0116
:102AC00040E050E0CB01A0E0B0E082589B48A0403D
:102AD000B040281739074A075B074CF4123039F425
:102AE00080916600815080936600000036C080911E
:102AF00066008150809366000000EB01C258DB48FD
:102B000011E028C08BE86238780739F1CE01A0E0E7
:102B1000B0E09B0140E050E036014701621A730AC1
:102B2000840A950A86159705A805B9054CF4113055
:102B300039F4809166008F5F8093660000000DC0BD
:102B4000809166008F5F809366000000E501C61BE0
:102B5000D70B12E0015009F0ABCFCDB7DEB7EEE0F6
:102B60000C945BCB0E94EB1C882311F40E9444154B
:102B70000895CF93DF93C0E0D0E088EC0E945B091A
:102B8000219683E1C838D807C1F70E94B215DF91BA
:102B9000CF91089580E28CBB0895ED9A08958DB38E
:102BA000ED98807208952C9A08952C980895179A9C
:102BB0000895179808952C98249A179A0F9A6D984B
:102BC0007598399A419A0895EAE6F0E080818C6020
:102BD0008083089584E008951F9310E00E944520AB
:102BE00081E80E942E20812F0E942E20182F0E9403
:102BF0004320183099F71F9108950E945B090895AA
:102C00008091850380FF0BC09FB7F8948091850366
:102C10008E7F809385039FBF0E94472077C080915D
:102C2000850381FF0BC09FB7F894809185038D7F4A
:102C3000809385039FBF0E94381268C080918703EC
:102C400087FF0BC09FB7F894809187038F7780939D
:102C500087039FBF0E94C21A59C08091880383FFD7
:102C60000BC09FB7F89480918803877F8093880377
:102C70009FBF0E944A1C4AC08091880384FF0BC0FA
:102C80009FB7F894809188038F7E809388039FBFBD
:102C90000E941D103BC08091890382FF0BC09FB72B
:102CA000F894809189038B7F809389039FBF0E9452
:102CB00013142CC08091890385FF0BC09FB7F89433
:102CC000809189038F7D809389039FBF0E942E1C72
:102CD0001DC08091890387FF0BC09FB7F894809136
:102CE00089038F77809389039FBF0E946E0F0EC068
:102CF00080918A0387FF0AC09FB7F89480918A0366
:102D00008F7780938A039FBF0E94E214809185038E
:102D10008823A1F480918603882381F4809187031E
:102D2000882361F480918803882341F4809189038A
:102D3000882321F480918A03882361F02FB7F894C7
:102D40008091BA039091BB0382609093BB03809300
:102D5000BA032FBF08959091920321E030E002C0A2
:102D6000220F331F8A95E2F7922B90939203809162
:102D700087038068809387032FB7F8948091BA0304
:102D80009091BB0382609093BB038093BA032FBFE3
:102D90000895CF93DF93E82FF0E0CF01805C90405F
:102DA000A3E095958795AA95E1F7482F50E0EA01B1
:102DB000CC0FDD1FC557DC4FA881B981109721F4D6
:102DC00081818F7781836CC090968C91909783FDE1
:102DD00067C05496ED91FC91559784FF09C06083BC
:102DE000E881F981848995890196958B848B58C0F7
:102DF000EF2B09F455C01696CD91DC9117971696D6
:102E00008D919C911797019617969C938E93169788
:102E100016962D913C91179756968D919C915797A8
:102E20002817390721F417961C921E9216971696AA
:102E30002D913C91179714968D919C911597281779
:102E4000390729F41796DC93CE93169729C0549628
:102E5000ED91FC915597EC0FFD1F608318968D91B5
:102E60009C911997019619969C938E931897440FED
:102E7000551F45575C4FEA01E881F98180A180FF29
:102E80000FC08385883C61F418962D913C91199769
:102E900086899789969587958217930708F45D9A96
:102EA000DF91CF910895E82FF0E0E05CF04083E0FF
:102EB000F595E7958A95E1F7F0E0EE0FFF1FE557EE
:102EC000FC4F0190F081E02D3097C1F04FB7F8949E
:102ED00022813381808191814FBF2817390711F4F6
:102EE00081E08287828D938D892B11F4118E108E53
:102EF000068CF78DE02D309709F009950895E82F9D
:102F0000F0E0E05CF04023E0F595E7952A95E1F7E5
:102F1000F0E0EE0FFF1FE557FC4F0190F081E02D30
:102F2000309791F080A1887179F48FB7F89420855B
:102F300031858FBF2115310539F0048CF58DE02DD9
:102F4000309711F0C90109950895909391038093EA
:102F5000900381E080938F03089510928F0308956A
:102F6000803C21F0883C11F080E0089581E00895D4
:102F70001F93CF93DF93EC01009751F11B85812FB5
:102F80000E94B017882321F1E12FF0E0E05CF040CF
:102F900043E0F595E7954A95E1F7F0E0EE0FFF1F66
:102FA000E557FC4F80819181C817D90789F44FB745
:102FB000F8942A813B81888199814FBF281739076E
:102FC00019F020E030E006C08A85282F30E002C0EA
:102FD0002FEF3FEFC901DF91CF911F9108951F930C
:102FE000CF93DF93EC010097F9F01B85812F0E94AE
:102FF000B0178823C9F0E12FF0E0E05CF04093E0E7
:10300000F595E7959A95E1F7F0E0EE0FFF1FE5578C
:10301000FC4F80819181C817D90731F4183C21F405
:103020005D9820E030E002C02FEF3FEFC901DF9153
:10303000CF911F9108951F93CF93DF93EC010097D9
:10304000F9F01B85812F0E94B0178823C9F0E12F6A
:10305000F0E0E05CF04033E0F595E7953A95E1F774
:10306000F0E0EE0FFF1FE557FC4F80819181C817FC
:10307000D90731F4183C21F45D9A20E030E002C019
:103080002FEF3FEFC901DF91CF911F910895A0E08D
:10309000B0E0EDE4F8E10C9443CB8C015B016A01F4
:1030A000009709F46DC0DC011B96FC908F2D0E94E7
:1030B000B017882309F464C0A114B10409F460C0F6
:1030C000C114D10409F45CC0EF2DF0E0E05CF040E5
:1030D000A3E0F595E795AA95E1F7F0E0EE0FFF1F65
:1030E000E557FC4FC081D1810C171D0709F048C07E
:1030F0008FB7F894F80166817781248135818FBF7D
:1031000040E050E01AC07501E40EF51ED801549657
:10311000ED91FC915597E20FF31F8081F7018083B9
:103120002F5F3F4F56968D919C91579728173907DF
:1031300011F420E030E04F5F5F4F2617370719F09A
:103140004C155D0500F38FB7F8943D832C832885DB
:103150003985241B350B39872887288539858FBF0A
:103160008B85883C59F488A180FF08C08E899F898F
:10317000969587958217930708F05D989A0102C08B
:103180002FEF3FEFC901CDB7DEB7EAE00C945FCB7C
:10319000A0E0B0E0EEECF8E10C9441CBEC016B0167
:1031A0008A01009709F46FC0FB848F2D0E94B0172D
:1031B000882309F468C0C114D10409F464C001155E
:1031C000110509F460C0EF2DF0E0E05CF04083E011
:1031D000F595E7958A95E1F7F0E0EE0FFF1FE557CB
:1031E000FC4F80809180C815D90509F04CC08A8DAC
:1031F0009B8D892B81F42A813B81888199812817B5
:10320000390709F040C0D98EC88E1B830A83198202
:103210001882B80130C08FB7F894AA80BB80E880CC
:10322000F9808FBFA50160E070E019C09A012F5F9F
:103230003F4F8A8D9B8D2817390711F420E030E02D
:103240002E153F0579F0E88DF98DE40FF51FD601B5
:10325000A60FB71F8C9180836F5F7F4FA901601706
:10326000710720F38FB7F894F401538342838FBF23
:10327000AE14BF0431F41A86EB85F0E081818062E0
:1032800081839B0102C02FEF3FEFC901CDB7DEB7AD
:10329000ECE00C945DCBFC0183899385882349F491
:1032A000903C19F0983C89F402C06A9A0895559AA6
:1032B0000895903C19F0983C41F404C06A987298C3
:1032C000729A089555985D985D9A08951F93CF93CB
:1032D000DF93FC010097B1F11385812F0E94B01795
:1032E000882381F1812F90E0805C904033E09595B8
:1032F00087953A95E1F7C82FD0E0DE01AA0FBB1FF2
:10330000A557BC4FED91FC9111973097D9F0E3850B
:10331000F0E01182ED91FC9180A180FF02C05598F0
:103320005D988485803429F481E0838BCF010E94ED
:103330004B19CC0FDD1FC557DC4F1982188220E0D6
:1033400030E002C02FEF3FEFC901DF91CF911F9115
:10335000089580EC0E945317089580EC0E947F1717
:10336000089588EC0E945317089588EC0E947F17F7
:103370000895CF93DF93282FA82FB0E0CD01805C74
:10338000904033E0959587953A95E1F7C82FD0E0C6
:10339000FE01EE0FFF1FE557FC4F60817181611543
:1033A000710509F476C0283CD1F5FB0180A1282FD6
:1033B00081FD02C030E009C08CB190E0E4E0969558
:1033C0008795EA95E1F7382F317020FD02C080E043
:1033D00008C089B190E054E0969587955A95E1F739
:1033E0008170332311F48823D1F08AE090E0A0E0CB
:1033F000B0E08093990390939A03A0939B03B093BA
:103400009C0381E080939D038CE49AE190939F0359
:1034100080939E0383E993E00E94430F3AC02FB745
:10342000F894FB0182819381408151812FBF8417E1
:10343000950749F1808D918D840F951FFC01908136
:103440009A012F5F3F4F8C9180648C9316969C93CA
:103450001697CC0FDD1FC557DC4FE881F981828DAF
:10346000938D2817390711F420E030E011968C91E4
:103470001197806211968C938FB7F894FB0131837A
:1034800020838FBF06C011968C911197806411968E
:103490008C93DF91CF91089588EC0E94B91908951B
:1034A00088EC0E94B919089580EC0E94B91908951A
:1034B0001F93CF93DF93EC01009709F45CC01B8549
:1034C000812F0E94B017882309F455C088A1282FA6
:1034D00030E0A9014170507080FF03C0183C09F032
:1034E0004AC0812F90E0805C904073E0959587956D
:1034F0007A95E1F7E82FF0E0EE0FFF1FE557FC4F5C
:1035000080819181892BB9F5D183C083183C81F4E6
:1035100021FF02C06C987498452B51F0559A54982D
:103520005C988C899D89892B11F45D9A01C05D9806
:103530008C85803419F4CE010E944B1919821882AF
:103540001B821A828C899D89892B11F41F8A1E8AFD
:10355000888D998D892B11F41B8E1A8E1D821C82E9
:103560001F821E8281E08A87CE010E94141D8B85F6
:10357000282F30E002C02FEF3FEFC901DF91CF913C
:103580001F910895CF92DF92FF920F931F93DF93C5
:10359000CF9300D00F92CDB7DEB781E08983FF24AF
:1035A00000E010E0F2E0CF2ED12CCC0EDD1E909189
:1035B000920389818923B9F02FB7F89490919203EF
:1035C00089818927809392032FBF6F2D70E0660F4A
:1035D000771F6150784FC60142E050E00E94EBCB6C
:1035E000EA81FB810995F3948981880F89830F5FB4
:1035F0001F4F06301105D9F60F900F900F90CF9105
:10360000DF911F910F91FF90DF90CF90089587E099
:103610008093A00380E98093BC008091890380623D
:10362000809389032FB7F8948091BA039091BB03DC
:1036300082609093BB038093BA032FBF089580915B
:10364000A003823041F08091A003833021F080916B
:10365000A003843021F480916C13880F08C08091FE
:10366000A003853051F480916C13880F8F5F809395
:10367000BB0085E88093BC0008950E94071B089555
:1036800090916B1380916A13981790F480916B134B
:10369000E0916813F0916913E80FF11D90818F5F3D
:1036A00080936B139093BB0085E88093BC000895D2
:1036B00086E08093A00384E98093BC008091890315
:1036C0008062809389032FB7F8948091BA03909118
:1036D000BB0382609093BB038093BA032FBF08950E
:1036E00080916D1390916E13A0916F13B091701330
:1036F00020916B13215020936B1320916B13220F99
:10370000220F220F04C0B695A795979587952A9505
:10371000D2F78093BB0085E88093BC0080916B1347
:10372000882359F48091A003823021F484E08093AF
:10373000A003089585E08093A00308958091A003DD
:10374000843019F40E94401B08958091A0038230B8
:1037500021F08091A003833019F40E94701B08951A
:103760008091A003853021F485EA8093BC00089500
:103770000E94071B08958091A003853099F48091E1
:103780006A13813021F48091BC008F7B03C080914B
:10379000BC0080648093BC008091BC0085688093ED
:1037A000BC0008950E94071B0895982F8091A003E4
:1037B000853029F580916B13E0916813F0916913BE
:1037C000E80FF11D90838F5F80936B1320916B1333
:1037D00080916A1330E090E001972817390724F4AC
:1037E0008091BC00806403C08091BC008F7B80937B
:1037F000BC008091BC0085688093BC0008950E9445
:10380000071B0895982F8091A003853021F58091A2
:103810006B13E0916813F0916913E80FF11D908329
:103820008F5F80936B1386E08093A00384E980937D
:10383000BC00809189038062809389032FB7F8943C
:103840008091BA039091BB0382609093BB038093F5
:10385000BA032FBF08950E94071B0895E0917113CA
:10386000F0917213309791F08091A003863041F46B
:103870008091BC0084FDFCCF81E08093A00304C054
:1038800081E08093A00380E00995089581E0809312
:10389000A00308958091A103813051F482E08093C8
:1038A000A103E0917313F0917413309709F0099517
:1038B00008958091A103882319F42FEF3FEF06C0EC
:1038C0001092A1030E94361F20E030E0C901089544
:1038D000982F8091A103823079F4892F845084300D
:1038E00058F0903148F481E08093A103892F0E9421
:1038F000A21F20E030E002C02FEF3FEFC901089582
:10390000CF93DF93EC018091A103882319F52097D1
:1039100009F18B819C81892BE9F028812230D0F438
:103920008A8190E08F739070892BA1F4213019F473
:103930008981833078F082E08093A103CE010E94D8
:10394000EF1F8F819885909374138093731320E0F9
:1039500030E002C02FEF3FEFC901DF91CF91089512
:10396000ADE0B0E0E6EBFCE10C944BCBFC01009742
:1039700019F42FEF3FEF2AC0848195819093A30320
:103980008093A20380819181A281B3818F839887E4
:10399000A987BA8781E08B871D861C86CE01019698
:1039A0000E9470202FEF8F3F920771F08D5F9F4F25
:1039B00059F00E943E148F5F9F4F19F020E030E0D5
:1039C00005C02DEF3FEF02C02EEF3FEFC9012D964E
:1039D000E2E00C9467CB8091B2030895F999FECF91
:1039E0009FB7F894E0E0F0E089E08093570084917D
:1039F0009FBF8F70823019F41092B20303C081E030
:103A00008093B2038091B203882369F48FB7F8944E
:103A10005F9350E85093610050E0509361005F91D4
:103A20008FBF0E94B9150895DC011B96EC911B977E
:103A3000F0E011821B96EC911B97F0E01D968D91A2
:103A40009C911E97958384831C968C911C971B9642
:103A5000EC911B97882349F4F0E082E080831B9669
:103A6000EC911B97F0E012820AC0F0E010821B96E6
:103A7000EC911B97F0E052968C91529782831B96A3
:103A8000EC911B97F0E082811C969C911C97892BEE
:103A900082831B96EC911B97F0E082811F969C918C
:103AA0001F97892B82831B96EC911B97F0E08281F4
:103AB00050969C915097892B82831B96EC911B9773
:103AC000F0E0828151969C915197892B82831B96BD
:103AD000EC911B97F0E08081806880831B96EC91CD
:103AE0001B97F0E08181886181831B96EC91F0E067
:103AF00081818068818308951F920F920FB60F9283
:103B00000BB60F9211242F933F934F935F936F93B4
:103B10007F938F939F93AF93BF93EF93FF930E94F5
:103B2000B01280918F038111EC98E0919003F09195
:103B30009103309709F00995FF91EF91BF91AF91F3
:103B40009F918F917F916F915F914F913F912F91B5
:103B50000F900BBE0F900FBE0F901F9018951F92E5
:103B60000F920FB60F920BB60F9211242F933F9323
:103B70004F935F936F937F938F939F93AF93BF9375
:103B8000EF93FF938091C8006091CE008C7131F467
:103B900088EC0E94C91685E00E94AB16FF91EF9158
:103BA000BF91AF919F918F917F916F915F914F9155
:103BB0003F912F910F900BBE0F900FBE0F901F9053
:103BC00018951F920F920FB60F920BB60F921124F9
:103BD0002F933F934F935F936F937F938F939F9315
:103BE000AF93BF93EF93FF93E9ECF0E080818F7B7D
:103BF000808384E00E94AB16FF91EF91BF91AF915B
:103C00009F918F917F916F915F914F913F912F91F4
:103C10000F900BBE0F900FBE0F901F9018951F9224
:103C20000F920FB60F920BB60F9211242F933F9362
:103C30004F935F936F937F938F939F93AF93BF93B4
:103C4000EF93FF93E9ECF0E080818F7D808383E048
:103C50000E94AB16FF91EF91BF91AF919F918F9111
:103C60007F916F915F914F913F912F910F900BBE7C
:103C70000F900FBE0F901F9018951F920F920FB6C6
:103C80000F920BB60F9211242F933F934F935F9394
:103C90006F937F938F939F93AF93BF93EF93FF9314
:103CA0008091C0006091C6008C7131F480EC0E945C
:103CB000C91682E00E94AB16FF91EF91BF91AF91C0
:103CC0009F918F917F916F915F914F913F912F9134
:103CD0000F900BBE0F900FBE0F901F9018951F9264
:103CE0000F920FB60F920BB60F9211242F933F93A2
:103CF0004F935F936F937F938F939F93AF93BF93F4
:103D0000EF93FF93E1ECF0E080818F7B808381E093
:103D10000E94AB16FF91EF91BF91AF919F918F9150
:103D20007F916F915F914F913F912F910F900BBEBB
:103D30000F900FBE0F901F9018951F920F920FB605
:103D40000F920BB60F9211242F933F934F935F93D3
:103D50006F937F938F939F93AF93BF93EF93FF9353
:103D6000E1ECF0E080818F7D808380E00E94AB16E3
:103D7000FF91EF91BF91AF919F918F917F916F9143
:103D80005F914F913F912F910F900BBE0F900FBEFF
:103D90000F901F9018951F920F920FB60F920BB6AF
:103DA0000F9211242F933F934F935F936F937F93C1
:103DB0008F939F93AF93BF93EF93FF938091B9003D
:103DC00090E0887F90708832910559F18932910591
:103DD0008CF48031910511F1813191052CF400971B
:103DE00019F1089781F51AC088319105D1F08097B3
:103DF00051F51AC088349105B9F0893491053CF425
:103E00008033910589F080349105E9F410C0803544
:103E1000910581F088359105B1F411C00E941F1BF6
:103E200012C00E949E1B0FC00E94071B0CC00E9464
:103E3000BB1B09C08091BB000E94D51B04C08091B0
:103E4000BB000E94021CFF91EF91BF91AF919F9127
:103E50008F917F916F915F914F913F912F910F9033
:103E60000BBE0F900FBE0F901F90189510927C0004
:103E700010927A0010927E0008951F920F920FB652
:103E80000F920BB60F9211242F933F934F935F9392
:103E90008F939F93EF93FF938091B303E091B403CB
:103EA000F091B503882351F48091B6039091B70344
:103EB00020917900E80FF91F20830FC08091B6038D
:103EC0009091B70340917800509179009C01220FA6
:103ED000331FE20FF31F5183408301969093B70382
:103EE0008093B6032091B6033091B7038091B80355
:103EF0009091B90328173907B1F480917A00877F30
:103F000080937A00809188038860809388032FB71C
:103F1000F8948091BA039091BB0382609093BB03A5
:103F20008093BA032FBFFF91EF919F918F915F9183
:103F30004F913F912F910F900BBE0F900FBE0F909E
:103F40001F901895282F1092B7031092B603843053
:103F500048F481E090E0022E02C0880F991F0A9475
:103F6000E2F717C0883011F08A3011F481E011C0F7
:103F7000893011F08B3011F483E00BC08C3011F0DC
:103F80008E3011F484E005C08D3011F08F3019F4BB
:103F90008CE080937E0080917C0090917C00907EEC
:103FA00090937C0090917C00922B90937C008F7179
:103FB000821729F0243018F08DE70E945B09809168
:103FC000B8039091B903029720F080917A00886637
:103FD00003C080917A00886480937A000895A1E0FC
:103FE000B0E0E5EFFFE10C944BCBFC0185819681BD
:103FF0009093B9038093B80380818093B303838146
:1040000094819093B5038093B403828180937C0064
:104010008091B303882329F480917C00806280938F
:104020007C00618170E0655F774FCE01019641E0D1
:1040300050E00E94EBCB8981806880937A002196C2
:10404000E2E00C9467CB289A23982B98229A219A25
:10405000209A80E58CBD81E08DBD08958EBD000065
:104060000000000000000000000000000000000050
:104070000000000000000000000000000000000040
:104080008DB58EB50895289A089528980895909131
:10409000B10392FF24C08091AE038823B1F4E09174
:1040A000AF03F091B003309709F009958091B10307
:1040B00082FF15C06091AA037091AB038091AC039D
:1040C0009091AD030E94931108959B7F9093B1034B
:1040D000E091AF03F091B003309709F0099508958E
:1040E000CF93DF93EC01009719F42FEF3FEF2EC031
:1040F0000E9433122E813F81488559850E94E6CA6D
:1041000028EE33E040E050E00E9419CBB901CA012B
:10411000611571058105910519F42EEF3FEF16C069
:104120002091B10322FF03C02DEF3FEF0FC02460A9
:104130002093B103A4EAB3E0FE012DE001900D92BB
:104140002150E1F70E94931120E030E0C901DF9196
:10415000CF910895E0E0F0E021E030E0B9010E2ECB
:1041600002C0660F771F0A94E2F78091BA0390911C
:10417000BB0386239723892BC9F04FB7F89420916E
:10418000BA033091BB03CB01809590958223932392
:104190009093BB038093BA034FBFEE0FFF1FED5FF9
:1041A000FD4F0190F081E02D099504C03196EB3070
:1041B000F105A1F68091BA039091BB0320E0892B11
:1041C00009F021E0822F08950E94AA2008950E94FC
:1041D000A7C40E94067D2FB7F8948091BA039091EE
:1041E000BB0380619093BB038093BA032FBF0895F4
:1041F00021E030E002C0220F331F8A95E2F7809160
:10420000190290911A02822B932B90931A02809399
:1042100019022FB7F8948091BA039091BB03806183
:104220009093BB038093BA032FBF089521E030E041
:1042300002C0220F331F8A95E2F7209530958091B6
:10424000190290911A028223932390931A02809369
:10425000190208952091190230911A022115310591
:10426000A9F1E0E0F0E061E070E0AB010E2E02C0E9
:10427000440F551F0A94E2F7CA0182239323892B26
:1042800009F12427352730931A0220931902EE0FE3
:10429000FF1FE55EFD4F0190F081E02D09958091B3
:1042A000190290911A02892B89F02FB7F894809106
:1042B000BA039091BB0380619093BB038093BA03D0
:1042C0002FBF08953196E630F10579F60895809371
:1042D0000C18882319F481E00E94F8200895809337
:1042E000EB17882361F48091721790917317892BD3
:1042F00019F082E00E94F82081E00E94F8200895E1
:104300009093EA178093E91781E00E94F8200895BE
:10431000CF93DF938091EB17823041F483E00E94CA
:104320006F218CEE97E10E949328B7C0882309F093
:10433000B4C080910C188130F9F40E946F2180E2A2
:10434000ECEEF7E1DF011D928A95E9F780912B18D9
:1043500090912C189F778F31910518F40E9440831B
:1043600005C0C097099710F40E9495888091EB17BB
:10437000823009F092C08EC08091E9179091EA17BF
:10438000892B09F48AC081E00E946F2180E2ECEE63
:10439000F7E1DF011D928A95E9F780E592E29093BB
:1043A000061880930518E091E917F091EA17C68185
:1043B000D781DF7782E00E946F21E091E917F091C9
:1043C000EA17EC57FF4F1082CF31D10518F40E9445
:1043D000978205C0E097299710F40E94378BE091EF
:1043E000E917F091EA17868197819093FD178093E2
:1043F000FC178331910551F08833910539F0B0E80D
:1044000088339B0719F08052904831F4E091E91706
:10441000F091EA1783E001C082E084838091FF1766
:1044200090910018009771F4E091E917F091EA1764
:1044300087E084831092EA171092E91780E00E94C7
:104440006F2128C00196909300188093FF17E09188
:10445000E917F091EA178681978197FF06C0F196D8
:10446000F0930218E093011815C08091E81781AB12
:104470008F5F8093E817E091E917F091EA1781A91F
:1044800085838091E9179091EA17C196909302185D
:104490008093011881E00E94F820DF91CF91089568
:1044A000DC01E091E917F091EA1722A933A944A9A8
:1044B00055A9EC57FF4F8C918083E091E917F0915B
:1044C000EA178481833049F0863001F1823029F582
:1044D0008C91882301F584E01FC08C918823D9F446
:1044E00086819781C897B9F481859285885F9F4FAF
:1044F00090F086A98E3F79F4CA01B9010E94A8877D
:10450000E091E917F091EA1788E006C08C918823C2
:1045100011F485E001C087E084831092EA171092BD
:10452000E91780E00E946F2108950F931F93CF93A6
:10453000DF93EC018E8D9F8D97FF71C0885390485B
:1045400009F46DC0A0917217B091731764C0EAA10D
:10455000FBA1908115968C911597981709F056C07C
:1045600014968C911497823039F416968D919C9103
:104570001797069769F477C0843009F047C01696FC
:104580008D919C911797069709F46BC087E001C045
:1045900083E014968C9314978E85823059F4A65834
:1045A000BF4F1D928F85988911969C938E93AB5720
:1045B000B0401BC08330C9F4A658BF4F81E08C9334
:1045C000AA57B040FD01E558FF4F898980838A8949
:1045D00081838B8982838C8983838D8984838E896F
:1045E00085838F898683888D8783FD01ED57FF4FF3
:1045F00087E4DF011D928A95E9F76AA17BA148A1B2
:1046000059A1CF010E9439CC82E028C08C9111962B
:104610009C919C01D901109709F099CF26C08091F7
:104620000C18882311F50AE318E16AA17BA148A1BF
:1046300059A1C8010E9439CCD8019D97FE018DE295
:1046400001900D928150E1F78AE398E19093301840
:1046500080932F1881E00E94672181E00E94F8205A
:1046600004C085E096CF86E094CFDF91CF911F9173
:104670000F91089581E00E9416211092EA1710927E
:10468000E9171092EB178DE2EDE0F8E1DF011D92E2
:104690008A95E9F7EAE3F8E18FE5DF011D928A9553
:1046A000E9F7F0933018E0932F1810920C18089542
:1046B000FC0187E076956795579547958A95D1F7E0
:1046C0005383428308950F931F93CF93DF93C09139
:1046D0007217D091731707E01DE021C02C818A81E9
:1046E0009B81009791F42430B1F48E819F81FE016B
:1046F000EC57FF4F069711F4108302C082E08083CD
:104700000C8382E00E94F82006C02250233018F467
:1047100001979B838A83888199819C01E901209775
:10472000E9F6DF91CF911F910F910895EF92FF92DB
:104730000F931F93CF93DF93C0917217D09173178C
:1047400022E0E22E94E0F92E17E001E07DC08C819A
:10475000873028F4853050F5882339F071C08730D0
:10476000B9F1883009F06CC01CC080919918909103
:104770009A1892FF0CC08091E9179091EA17892B43
:1047800009F05EC00C83CE010E94802159C01C83B9
:10479000CC57DF4F1883C458D04082E00E94F820E5
:1047A0004FC0D0937D16C0937C164AC0853011F45B
:1047B000FC8201C0EC82C858DF4FE881F981C857FC
:1047C000D0403097E9F1CE0186589F4F099538C007
:1047D00082E797E1BE010E944D808E819F81019703
:1047E000C9F4CC57DF4F8881C458D040882391F456
:1047F000DE01A357BF4FFE01EB57FF4F0081118130
:104800002281338144815581668177818D919C918C
:104810000E94AB5EC858DF4FE881F981C857D0408D
:10482000309721F0CE0186589F4F099580917217DD
:1048300090917317892B59F082E00E94F82007C0ED
:10484000888199819C01E901209709F080CFCDB73B
:10485000DEB7E6E00C9463CBEF92FF920F931F93C9
:10486000CF93DF93EC0140915712509158124115AC
:10487000510569F40E943F477B018C010E94E34C83
:10488000AB01BC014E0D5F1D601F711F02C060E0D7
:1048900070E0CE010E9458231C8282E797E1BE019E
:1048A0000E94258082E00E94F820CDB7DEB7E6E0C6
:1048B0000C9463CB0F931F9382E00E9416211092F9
:1048C0007317109272170E943A230E94A48704E77C
:1048D00017E1C8010E941E0F10927E1783E693E233
:1048E0009093801780937F1780E890E0A0E0B0E07D
:1048F00080937A1790937B17A0937C17B0937D17C2
:10490000C8010E94430F1F910F910895FC01DA0125
:104910000097D9F0638F4115510551F08D919D910C
:104920000D90BC91A02D848F958FA68FB78F04C05A
:10493000148E158E168E178E218D328D2115310510
:1049400021F0CF014B96F9010995089520917D132F
:1049500030917E13FC01EC5BFF4F80819181821BC3
:10496000930B63E270E00E9405CB83E2689FB00185
:104970001124620F731FCB010895FC01009729F4E5
:104980008091C9039091CA0308958081918108950F
:104990000F931F93182F062FA0E0B0E010C01F3F09
:1049A00021F412960C9312970AC01396ED91FC9184
:1049B00014978081181719F412960C9306C0CD0134
:1049C0000E94BD24DC01009751F71F910F910895BB
:1049D00060E00E94C824089561E00E94C824089500
:1049E0001F93182FA0E0B0E007C01396ED91FC9143
:1049F00014978081181731F0CD010E94BD24DC018D
:104A0000009799F7CD011F910895FF920F931F937F
:104A1000082FA091751340917A1350917B1390E069
:104A200060E070E081C0FA01E60FF71F9B01285A91
:104A30003F4F878180FD76C0EC5BFF4F1182108273
:104A4000E454F0400230F1F0023018F0033009F085
:104A50006EC09091791380917713981708F067C012
:104A60009F5F909379131382148215821682E091CE
:104A70007A13F0917B13E60FF71F80858F70808784
:104A800012823BC09091781380917613981708F0AA
:104A90004EC0F0907C13E0917D13F0917E1310E0F6
:104AA00040E050E024C0DF018081B3969A012D5D83
:104AB0003F4F8823D1F49F5F9093781321E02C938C
:104AC000E0917A13F0917B13E60FF71FEC5BFF4F39
:104AD00080917D1390917E13840F951F489691834A
:104AE0008083E454F040228304C01F5FA9011F1596
:104AF000D0F280917C138117D1F0E0917A13F0917C
:104B00007B13E60FF71F8085807F8087000F016091
:104B100007831182108220917A1330917B13260F24
:104B2000371F07C09F5FB9019A1708F47CCF20E0B8
:104B300030E0C9011F910F91FF900895CF93DF934B
:104B400020917A1330917B13821B930B68E570E000
:104B50000E9405CB88E5689FE0011124F901EC0F64
:104B6000FD1F8781869590E08230910569F0833042
:104B7000910514F0039731F580917913882311F191
:104B80008150809379131EC080917813882319F087
:104B900081508093781320917D1330917E13EC5BCC
:104BA000FF4F80819181821B930B63E270E00E9432
:104BB00005CB83E2689FF0011124E20FF31F80818F
:104BC00081111082E0917A13F0917B13EC0FFD1F9D
:104BD00087818E7F8783DF91CF910895CF93DF9375
:104BE000EC01E881F981442371F4CD5ADF4F8881CB
:104BF0009981AA81BB81C355D040848F958FA68FA0
:104C0000B78F638F03C04250423050F4888199813E
:104C1000638D7C96AF010E948624CE010E949E2562
:104C2000DF91CF91089520917C13E0917D13F09155
:104C30007E1390E005C08081B3968823A9F49F5F1E
:104C40009217C8F320917513E0917A13F0917B13BA
:104C500090E006C08781E85AFF4F80FD05C09F5F46
:104C60009217C0F380E0089581E0089521E030E0DC
:104C700002C0220F331F8A95E2F78091ED03822B49
:104C80008093ED032FB7F8948091BA039091BB0302
:104C900080629093BB038093BA032FBF0895A2E074
:104CA000B0E0E5E5F6E20C944BCB4091EE032091A9
:104CB000ED03522F642F30E06F5F683008F060E042
:104CC000C901062E02C0969587950A94E2F780FFE7
:104CD0001CC06093EE0381E090E0062E02C0880FB6
:104CE000991F0A94E2F758275093ED0370E0660F7E
:104CF000771F605F774FCE01019642E050E00E943F
:104D0000EBCBE981FA81099504C04617A9F64093D7
:104D1000EE038091ED03882361F02FB7F894809122
:104D2000BA039091BB0380629093BB038093BA0354
:104D30002FBF2296E2E00C9467CBFF920F931F9354
:104D40008C01F62E85EC93E00E943D80D8011796E9
:104D5000FC9217971596ED91FC911697C80107964E
:104D600009958091C5039091C603892B19F080E0C5
:104D70000E9436261F910F91FF9008950F931F9365
:104D80000E94D3CB8C0194E0000F111F9A95E1F79C
:104D900000700E94D3CB282F30E0202B312BC9018B
:104DA0001F910F910895ADE2B0E0E9EDF6E20C94A9
:104DB00043CB7C01A62EDC011A960D911C911B970A
:104DC00015966D917C9116978BEC93E0F8014781D5
:104DD0000E94E380882309F4C6C0D80111969C91F3
:104DE000892F81508E3F18F0CC24DD2404C0892FF8
:104DF0000E94F0246C01F801818181508E3F20F4E3
:104E0000C114D10409F4AFC022E0B22EBB82D70195
:104E100013968D919C9114979D838C83F8018181C9
:104E20008E8715968D919C9116970E94F15D9C013D
:104E3000009759F083E08F87DE015296F90188E0F0
:104E400001900D928150E1F701C0BF86D701159600
:104E50008D919C911697998B888B17968D919C912B
:104E600018979B8F8A8FF80186818C8F848195811A
:104E70009E8F8D8F8281938198A38F8F19962C910D
:104E800030E02A5030403AA329A3265F3F4F1DA2AD
:104E9000808187FD07C0285030403AA329A3285FAE
:104EA0003F4F0BC0D80118968C91837031F4295074
:104EB00030403AA329A3275F3F4F89A19AA1281B1D
:104EC000390BF70182859385820F931F9CA38BA3D7
:104ED000AEA282898FA3848588A786859785A089BD
:104EE000B18989A79AA7ABA7BCA785858DA7C1144F
:104EF000D10449F0D6011596ED91FC911697CE019B
:104F00000196099530C0F80181818F3F41F500E09D
:104F100010E06E010894C11CD11C1AC0D801139670
:104F2000ED91FC9114978081882391F012968C91D9
:104F30001297882369F4218132818D8D9E8D2817E7
:104F4000390731F41596ED91FC911697C601099534
:104F5000C8010E94BD248C01009701F704C0CE0156
:104F600001960E949522F701158A0388F489E02DA5
:104F7000C70145960995AD96EAE00C945FCBCF93B7
:104F8000DF93EC01DB01A45BBF4F8FE298E2119647
:104F90009C938E931C9782E08D932B813C8111967C
:104FA0003C932E931796888D8D931D9281E08D935F
:104FB0008C9318978B89885F8D93ED89FE8938973C
:104FC0001196FC93EE93A454B0409081892F8C7E6F
:104FD0008083907E275F3F4F08F098609083208108
:104FE000922F9F7D90838F8982FD03C02F7920832C
:104FF00013C09064908318968C911897807F81607D
:1050000018968C9318979091E4039295907F8F70E7
:10501000892B18968C93189780818F7780838D8544
:10502000818388899989938382838E859F859583DF
:1050300084838A8986838091D5038F5F8093D5038B
:10504000815087838091C2038F5F8093C203CD011B
:1050500009960E946D5880E0DF91CF910895BC01C0
:105060008091C20381508093C2038EEB93E00E9433
:10507000258081E00E94362608950F931F93BC017E
:105080000091C5031091C60385EC93E00E94258032
:10509000012B19F480E00E9436261F910F9108958C
:1050A000FC0185EC8283CF010E943D280895FC011C
:1050B0008AE88283CF010E943D280895FC0189E19E
:1050C0008283CF010E943D280895CF93DF93EC01A6
:1050D0000097E9F086EA8F83EB81FC813097B9F085
:1050E0009081892F8150803F90F4892F0E94F02475
:1050F000892B69F420E08D819E81892B09F421E0C0
:105100002A8389EC93E0BE010E9425801F82DF91F3
:10511000CF910895BC0180EC93E00E94258081E04E
:105120000E9436260895BC0183EC93E00E942580FE
:1051300081E00E943626089587E36CE773E10E94C0
:10514000680B87E46DE773E10E94410B20E043E2C6
:1051500050E012C0822F90E0BC01649FC001659FA7
:10516000900D749F900D1124E0917D13F0917E13AA
:10517000E80FF91F10822F5F80917C13281750F3DE
:1051800086E365E773E10E94680B86E46AE773E1F2
:105190000E94410B20917513E0917A13F0917B13DB
:1051A00090E006C087818E7F87839F5FE85AFF4F1C
:1051B0009217C0F380917C1380937613223008F00D
:1051C0002150209377131092781310927913089539
:1051D000FF920F931F9301E010E038E5F32E34C0E7
:1051E0001F9DC0011124E0917A13F0917B13E80F09
:1051F000F91F978190FF27C080858F70823019F545
:10520000892F8E7F823011F08630E9F4838194817A
:10521000A581B6818A309105A105B10548F00A97AC
:10522000A109B10983839483A583B68300E00BC0F1
:105230008085807F84608087138214821582168225
:1052400081E00E9436261F5F80917513181740F287
:10525000002321F086ED93E00E9464811F910F915D
:10526000FF90089580E191E09093BD038093BC038B
:105270001092C6031092C5031092ED031092EE0334
:105280001092CA031092C9030E949C280E940D59D3
:105290000895A8E0B0E0EFE4F9E20C9447CBF09079
:1052A00084128DE2BE016F5F7F4F0E94680B8E01FA
:1052B0000B5F1F4F87E1B8010E94680B2D813E8173
:1052C0004F8158858F2D90E0A0E0B0E082179307C2
:1052D000A407B50760F0220F331F441F551F2D830D
:1052E0003E834F83588787E1B8010E944E0B2F2DD4
:1052F00030E0295F3F4F442737FD4095542F2093DE
:10530000E5033093E6034093E7035093E803E98015
:10531000FF2400E010E0C801B701660F771F881F67
:10532000991F6E0D711D811D911D0E94E6CA2D8170
:105330003E814F815885260F371F481F591F2093E4
:10534000E9033093EA034093EB035093EC0386EDBB
:1053500093E060E02AE030E040E050E008EE18E240
:105360000E946D8188E3BE016E5F7F4F0E94680BD3
:1053700081E4BE016D5F7F4F0E94410B7091E40399
:10538000E090E903F090EA030091EB031091EC0345
:1053900060E020E030E040E050E013C0D801C701F9
:1053A000062E04C0880F991FAA1FBB1F0A94D2F7AC
:1053B00081509E4FAF4FBF4F280F391F4A1F5B1FB1
:1053C0006F5F671758F3CA01B90124EF31E040E07D
:1053D00050E00E9419CB022F6B817C810E5F8BEC19
:1053E00093E04A8124EF31E0EE24E3940E946D8043
:1053F0002896E6E00C9463CB882359F00E94BE26E1
:105400008093D5031092C20381E264EE73E00E94A0
:10541000680B1092C4031092C3031092C103109240
:10542000C0031092BF031092BE031092C8031092E3
:10543000C7030E9449290895A3E1B0E0E2E2FAE23D
:105440000C943BCB2091BC033091BD033987288756
:1054500041E02031340709F41CC32053334009F0E4
:1054600007C117C320917A1330917B13C801821BA7
:10547000930B68E570E00E9405CB88E5689F6001AA
:105480001124C20ED31EA885B985E6E0A031BE075F
:1054900019F0A050B540F1F4D60117968C918E7F8B
:1054A000843071F4C6010E94A624FC016181D801F8
:1054B00012968C91882321F4828193810E94D326B5
:1054C000A8014B5F5F4FF6018081918163EA0E94E2
:1054D0008624CBC0D60117968C91682E66947724CB
:1054E000B1E06B16710489F0E2E06E16710409F404
:1054F000B3C06114710409F0BBC0C601D801129693
:105500006C9140E00E94EE25B3C0F60180858F705B
:10551000813009F0ADC0D8011996BC91BD8387E1F7
:10552000BE016F5F7F4F0E94680B2090E5033090B3
:10553000E6034090E7035090E80389809A80AB80AF
:10554000BC80E091E403EE83D60118968C9182959D
:105550008F70F0E0E81BF109FF83EE83D80112960B
:105560006C91662309F03FC00E94BE267C0100E0DA
:1055700010E02FEF31E040E050E0E222F32204237C
:105580001523A3010E8002C0440F551F0A94E2F7B1
:105590005B874A873A015D81652F70E080E090E08B
:1055A000A20191010E94E6CA860E971EA81EB91E8E
:1055B000C301AA2797FDA095BA2F8A879B87AC873E
:1055C000BD87BC01CD01A50194010E94E6CAE60E8B
:1055D000F71E081F191FD6011396ED92FD920D9329
:1055E0001C9316972CC06E3C11F0603F61F4A8012B
:1055F0004B5F5F4FF601808191810E948624C80134
:105600000E949E2546C20E94BE26917028EE33E07D
:105610000E8002C0220F331F0A94E2F7AC01420F42
:10562000531F5F874E87CA01A0E0B0E08E879F8737
:10563000A88BB98BF60183839483A583B683D601A7
:1056400018968C911897807F826018968C9386EDBF
:1056500093E00E948F810CC0C6010E94A624FC0129
:105660008281938161810E94D326C8010E949E2578
:105670008EEB93E00E943D808C01009709F0F2CE02
:1056800008C280EC93E00E943D800F53144051F01B
:10569000D6011A96ED91FC911B9780818370813021
:1056A00009F0EBC1F60162857385FB013081532F50
:1056B000507436FF14C04091781360907513209198
:1056C0007913842F90E0820F911D7724861597051A
:1056D0000CF0D3C180917613481708F0CEC1932FF8
:1056E0009C70943009F4C9C1552359F0832F8370FD
:1056F000823009F4C2C1983009F4BFC19C3009F46A
:10570000BCC135FDBAC1D60112968C91823009F028
:10571000B4C18081E3E08E2E882299248114910403
:1057200031F0B2E08B16910409F0A7C13FC19C3063
:1057300009F4A3C18B01FB019181892F81508E3F18
:10574000A0F4892F0E94F024DC01009771F01396D9
:10575000ED91FC91149721813281F801848195812A
:105760002817390709F013C109C0D80111968C9187
:1057700081508E3F08F40BC1A0E0B0E0F8019081A9
:1057800097FF04C08085837009F001C196FD02C0B7
:1057900091E0FEC09C70983009F4F9C0F601A58034
:1057A000B680F7EFAF16FFEFBF0608F0F0C0109716
:1057B00029F012968C91882309F0E9C0D6011A9637
:1057C0000D911C911B97F801808186FF56C1837053
:1057D000813019F077E0E72E02C0EE24E394309197
:1057E0007513A0917A13B0917B13AF5BBF4F20E08C
:1057F0004E2D50E0B801640F751F22C0A154B04077
:1058000017968C911797AF5BBF4F8530B1F48D9190
:105810009C911197A816B90681F413968D919C91CD
:105820001497840F951F9B8B8A8BFB019081EA89CB
:10583000FB898081981709F420C12F5FA85ABF4FB8
:105840002317E0F282E00E940525DC01009709F4AD
:1058500014C1AC5BBF4F2D913C911197F901789722
:105860008FEA8183D382C282149762E0B62EBD9202
:10587000F6018581968111969C938E9317961D92C1
:105880001D923D923D9211965C924E92AC54B04066
:10589000F90180818C7F82608083F80190819C7007
:1058A000837F892BF9018083F801908190718F7E2D
:1058B000892B982F9F79F9019083F8019081907836
:1058C0008F71892BF9018083F80180816E2D70E042
:1058D000AD014D5B5F4F84FF0CC0F601828593855F
:1058E000860F971FFC018081F9018183FA01B08244
:1058F00044C088E0FA018083F8018681F901818340
:10590000F80182819381F90193838283F801848174
:105910009581F90195838483F8018181F90186835A
:10592000F60182859385860F971FFC018081F9011E
:105930008783F801808187FF20C08085837039F4D8
:10594000F9011086FA0180818F5F808316C0FA0109
:1059500080818D5F8083F80180858370F901808765
:105960002286F80180858370813019F4F90111864F
:1059700004C0F8018185F90181878091C2038F5F9E
:105980008093C203CD0109960E946D588CC090E0AF
:10599000D60112968C91813009F46FC0992309F4D5
:1059A0006CC0C6016FEA0E94D3267DC0AB01A091F6
:1059B0007A13B0917B13809175138F9DB0011124E0
:1059C0006A0F7B1F56C017961C91179710FF4FC088
:1059D00018968C9118978F70823009F048C0FD019D
:1059E000EC5BFF4F0081E1808D919C911197F60156
:1059F00025813681FC018381948128173907B9F507
:105A0000A02EBE2CFA019781F5018781981779F5B0
:105A1000FA0124813581F5018481958128173907A0
:105A200031F5FA0122813381F501828193812817B2
:105A30003907E9F4FA019181F50186819817B9F4E3
:105A4000FA019681F5018181981789F41E7F123041
:105A500071F418968C911897807F836018968C93B8
:105A60001897CD0160E040E00E94EE2506C0A85ADC
:105A7000BF4FA617B70708F4A6CFD60155961C92BC
:105A800055975396ED91FC915497C601459609950B
:105A90000AC0332433945FE2452E58E2552E222467
:105AA0002A9448E5F42EC090C003D090C103009121
:105AB000BC031091BD03C114D10409F0E2CD01FF74
:105AC0000CC094C083EC93E0B8010E944D80C801E3
:105AD00063EA40E050E00E9486240091C3031091E5
