:100000000C94CA090C94020A0C94020A0C94020A79
:100010000C94020A0C94A01E0C9489DF0C9406E345
:100020000C94D7E20C94020A0C94020A0C94020A73
:100030000C94020A0C948F130C94020A0C94EC1387
:100040000C94020A0C94020A0C94020A0C94020A00
:100050000C94020A0C94020A0C94020A0C94020AF0
:100060000C94020A0C94611F0C94C11F0C94931FF2
:100070000C94020A0C9461200C9419150C94020A39
:100080000C94020A0C94020A0C94020A0C94020AC0
:100090000C94D31E0C94331F0C94051F0C94EF1F6B
:1000A0000C94020A0C94020A0C94E4140C94B1DF30
:1000B0000C94020A0C94020A0C94020A0C94020A90
:1000C0000C94020A0C94020A0C94020A7C438443A6
:1000D0001043B943B94357436443B943B943B943A0
:1000E0008E439D4330433C43B9430D436F43994690
:1000F000A646BA46CC46D346E046ED46F84600470B
:100100001E4749470A47D148D1488F4896489648E4
:10011000A248A248B348B348B348C8814381158276
:100120001582158249814E81DF811582518154816A
:100130005E816681158269816C816F81158274810F
:100140007781DF817C81BC81D1811582BF81C281B1
:100150004781C581C581DF81DF81DF81DF81DF816B
:10016000DF81DF81DF81DF81DF81DF81DF81DF818F
:10017000DF81DF81DF81DF81B281DF81158215823E
:1001800015821582158215821582158215821582B7
:100190001582158215821582DF81D481D781DF8196
:1001A000AB8124832F8226832683268334823C825C
:1001B000268326834482498263826B8226837082EF
:1001C0007882828226838A828F8226839782B48273
:1001D000C6822683B982C182248324832483D08269
:1001E000D082D082D082D082D082D082D082D0827F
:1001F000D082D082D082D082D082D082D082D0826F
:10020000AA82D0822683268326832683268326837A
:100210002683268326832683268326832683268396
:10022000D082CB822483D082A582E6881689168963
:100230001689EB880089F588FA882589F088058970
:1002400005890A8916891C892089408A438A468A39
:10025000468A498A558A4F8A528A658A4C8A588AC0
:100260005B8A5E8A618A728B768B9E8B7A8B7E8BA1
:100270009E8B828B9E8B908B948B9B8BF790AA91FD
:10028000C7917B9043924392B891C791CD911B92B5
:10029000F491439243921B92D4901E9250A0D2A00C
:1002A0007CA0BCA06EA1D2A037A177A1E6A037A107
:1002B00072A190A171A4A6A4E2A4CAA4BBA4E2A4C2
:1002C000F9A4F9A4F9A4F9A4F9A4F9A4F9A4F9A446
:1002D000F9A4F9A4CAA4E2A4F9A464A4D3A4B5A47B
:1002E00061A566A52AA642A659A64DA782A782A700
:1002F00082A782A782A782A782A782A782A782A7B6
:10030000FDA60BA782A71BA523A70CA677B175B1E5
:1003100075B1A4B1ABB1BEB1C6B1C9B1CCB1CFB1A9
:10032000D2B1D9B2E0B2EFB2F7B2F9B2FBB2FDB2DC
:1003300000B33BC245C243C761C22AC5A8C435C287
:1003400043C743C743C7A9C67BC284C2A0C6D6C29F
:100350000EC3F6C200C338C538C5D3C343C743C7AD
:10036000E3C5E3C5E3C543C7E3C5E3C5DCC5DCC5F9
:100370008FC543C743C743C705C3C5C6CAC6D2C591
:10038000D6C570C47EC49AC48CC424C43FC41AC4E5
:1003900009C46FC605C70AC70FC735C743C757C4C7
:1003A0005FC468C443C73BC243C761C27BC23EC38C
:1003B00084C284C2D6C200C3F6C21AC443C743C7AC
:1003C000D3C30EC3E0C343C743C743C743C7F4C344
:1003D000F4C3F4C3F4C3F4C3F4C3F4C3F4C3F4C365
:1003E00002C402C402C402C402C402C402C402C4DD
:1003F00002C443C343C343C38EC38EC38EC3AAC3C5
:10040000AAC3AAC357DB5BDB6DDB7EDBB5DDB5DDE5
:10041000B5DD29DC7FDC2EDDB5DD82DB85DBB5DDFE
:10042000A1DBFFDBABDBAFDBB5DDB5DDE9DAFADBAA
:10043000BEDBB5DDB5DDB5DDB5DDB5DDB5DDB5DD25
:10044000B5DDB5DD1BDC1EDC21DC17DCB5DD6ADDCE
:10045000B5DDB5DDDADAE0DADDDAE3DA2BDB40DB75
:10046000B5DDB5DDB5DD7EDD82DD89DDB1DDCBDA83
:10047000CEDAD1DAD7DA69DB57DB6DDB7EDB82DB04
:10048000E6DA97DB9CDBA1DBAFDBABDBBADBBEDB09
:10049000FADBE9DAFFDB17DB1ADB1ADB1ADB1ADB24
:1004A00005DB05DB05DB05DB05DB05DB05DB05DB4C
:1004B00005DB0EDB0EDB0EDB0EDB0EDB0EDB0EDBFD
:1004C0000EDB0EDBEEDAEEDAEEDAF3DAF3DAF3DA9B
:1004D000FCDAFCDAFCDAD8DDD8DEDEDEDADDDEDE00
:1004E000DEDEDEDEDEDEDEDEDEDE81DED5DEE7DD8A
:1004F000DEDEF3DDD8DE02DE09DED8DED8DE10DE99
:10050000DEDEDEDE62DE6EDE76DEDEDED8DE62DEE1
:10051000DEDEDEDE5FDEDEDEDEDEDEDE9FDEDEDEB9
:10052000D8DEDEDEDEDED5DED5DED5DE5CDE42DE2A
:100530003CDED5DE28DE35DE17DE9FDEB3DED5DE1F
:10054000DEDED3DDD3DDD3DDDEDED8DDDEDEDADDFB
:10055000D5DED5DEE7DDE7DDF3DD09DE02DED5DE63
:10056000DEDEDEDE10DED8DE25DEDEDEDEDEDEDE38
:10057000DEDE17DE17DE17DE17DE17DE17DE17DE0C
:1005800017DE17DED5DED5DED5DED5DED5DED5DE4F
:10059000D5DED5DED5DE17DE17DE17DE1BDE1BDE71
:1005A0001BDE20DE20DE20DE000000000000000058
:1005B000000000000000000000000000000000003B
:1005C000000000000000000000000000000000002B
:1005D000000000000000000000000000000000001B
:1005E000000000000000000000000000000000000B
:1005F00000000000000000000000000000000000FB
:1006000000000000000000000000000000000000EA
:10061000000001020100020205080000FFFF341281
:1006200000000000000000000505000501017D0C30
:10063000910C000800000000000000000000000015
:1006400000000000000000000000000000000000AA
:100650000000000000000000000000000500FF0096
:100660000002AAAAAAAAAAAAAAAAC832000000340A
:1006700012010303000010270000102700000100F2
:1006800001E803000004E80300000000000000008F
:10069000000000000000000000000000000000005A
:1006A0000000000300E0930400000000840000004C
:1006B0000A0A0A0A050502040219031E04030500BA
:1006C000000000141001204E0000C80F0800D20FD7
:1006D0000100DF0F0400E30F0100921001009910E8
:1006E000080095100200211002002A1001008E104F
:1006F000010093100100E60F0100E70F0100E80F71
:100700000100E90F0100E40F0200EA0F0100901060
:1007100001008F100100A20F0100A40F01001010B2
:100720000800780F0400F60F0400EB0F0400EF0F31
:100730000400F30F0100F40F0100F50F0100FF0F9B
:1007400011008B100100FA0F0100FB0F04001810BC
:100750000100A50F0200191001001A1004001E105C
:100760000100630310001F100100A4100100A51078
:10077000010020100100700F080000000000AC060E
:100780000200B0060100AE060200B2060100B30688
:100790000100B4060100B5060100B6060100B70667
:1007A0000100B8060100B9060100B1060100BA0651
:1007B0000100BB060100C3060200BC060100BD0625
:1007C0000100BE060100BF060400C6060400C506FF
:1007D000010097040000F70500001B050000050755
:1007E00000000000000037070000B60E00000E0FEA
:1007F0000000970A0000790B0000460B0000E70B91
:100800000000930C0000170E000000000000000024
:100810000000A31000007D0C0000910C0000270FC9
:10082000000000000000C80F0400E30F0C001010CF
:100830000D00780F1500931019008B101A00F30F9C
:100840001B00F40F1C00F50F1D00FF0F1E00E40F2E
:100850002F00EA0F3100951032008E10340019106D
:100860003500211036002A10380099103900E90FA0
:1008700041001E104200700F430020104B00F7058E
:100880004C00A3105A017D0C6201781BCD1AD11ABD
:10089000741BD51AD91A03040506071A4C864E7222
:1008A00059EF4FE549884FFC472A3F7E2D6B47CDD6
:1008B00038C334A431282D9A2B782C000000000076
:1008C00000000000006B2B02020302010201010183
:1008D00001010101020201010102020202020202FF
:1008E000020202020202030302020302ED3A5D4821
:1008F0000108113D282E0101113D282E0101A53AC4
:100900001D4901012F3A493501012F3A1E350108D1
:10091000E639F94B01018D398254010100000000D4
:1009200001080000000001010000000001030000B8
:10093000242501040000000001050000000001065C
:10094000000000000101000000000101113D000055
:10095000000100000000010000000000010800008C
:100960000000010A00000000010000000000010179
:100970000000000001010000000000000000102F36
:1009800000080000102F000C0000102F00000000D5
:10099000102F00F721B0273123092329230000FF5E
:1009A000210F22212307227A27D621D824E02448A8
:1009B00025D02439230000BA28E74A713EC259C91C
:1009C000540000995BA44DE9360000000003600E5E
:1009D0005EA39F0004081018A2DFA2437D93780055
:1009E0000082750000000000005B72000000000043
:1009F0000000000000F57EB57E867E00005D7E0072
:100A0000000000000000000B7E00018DF6CB527B41
:100A1000D1E84F29C0B0E1E5C774B4AA4B992B6067
:100A20005F583FFDCCFF40EEB23A6E5AF1554DA8EB
:100A3000C9C10A98153044A2C22C45926CF339669C
:100A400042F235206F77BB59191DFE37672D31F5FE
:100A500069A764AB135425E909ED5C05CA4C2487EA
:100A6000BF183E22F051EC6117165EAFD349A6368F
:100A700043F44791DF3393213B79B7978510B5BA9B
:100A80003CB670D006A1FA8182837E7F809673BEC9
:100A9000569B9E95D9F702B9A4DE6A326DD88A8436
:100AA000722A149F88F9DC899AFB7C2EC38FB86563
:100AB0004826C8124ACEE7D2620CE01FEF117578C3
:100AC00071A58E763DBDBC86570B282FA3DAD4E4E2
:100AD0000FA92753041BFCACE67A07AE63C5DBE223
:100AE000EA948BC4D59DF8906BB10DD6EBC60ECFB2
:100AF000AD084ED7E35D501EB35B23383468460320
:100B00008CDD9C7DA0CD1A411C3A4348494C445F82
:100B10004C4F5354202530386C582530386C5800D1
:100B20003A4348494C445F4A4F494E45442025309A
:100B3000386C582530386C58003A4C4F5354003AB2
:100B40004A4F494E45440020253034582C25752CF9
:100B500025753A002575207C202575207C202530C0
:100B6000386C582530386C58207C2025303458207B
:100B70007C2575207C202575200053257500257364
:100B80003A20002B57525353493A2564002B574CB7
:100B900051493A2575002530386C582530386C5845
:100BA00000010100000D0000000000000000000036
:100BB0000000000000020102000A00000000000026
:100BC0000000000000000000000301040008000015
:100BD000000000000000000000000000000401060A
:100BE0000001000000000000000000000000000004
:100BF00000050108000000000000000000000000E7
:100C0000000000000006010A0001000000000000D2
:100C100000000000000000000007010C00010000BF
:100C20000000000000000000000000000008010EAD
:100C300000030000000000000000000000000000B1
:100C4000000901100000000000000000000000008A
:100C500000000000000A0112000000000000000077
:100C60000000000000000000000B021400881300C8
:100C7000000000000000000000000000000C011750
:100C80000000000000000000000000000000000064
:100C9000000D04190000000000000000000000002A
:100CA00000000000000E011E000000000000000017
:100CB0000000000000000000000F01200000000004
:100CC00000000000000000000000000000100122F1
:100CD0000002000000000000000000000000000012
:100CE00000110124000200000000000000000000CC
:100CF00000000000001201260002000000000000B9
:100D000000000000000000000013012800020000A5
:100D10000000000000000000000000000014012A94
:100D200000020000000000000000000000000000C1
:100D30000015012C0002000000000000000000006F
:100D4000000000000016012E00020000000000005C
:100D50000000000000000000001701300002000049
:100D60000000000000000000000000000018013238
:100D70000002000000000000000000000000000071
:100D80000019043500000000000000000000000011
:100D900000000000001A043A006400000000000097
:100DA0000000000000000000001B043F00000000E5
:100DB00000000000000000000000000000253038A6
:100DC0006C582530386C58002530386C5800253068
:100DD0003458002558002575002564004556454EB9
:100DE000540044415441004552524F52004F4B0071
:100DF0002C003A002C0025000525000625000734AC
:100E000000003400013400022B00062B00072E00E6
:100E1000032B5750414E4944002B574E574B5041DE
:100E20004E4944002B574348414E002B5743484DF1
:100E300041534B002B574C45415645002B574A4FC9
:100E4000494E002B574E574B002B57504152454EA1
:100E500054002B574348494C4452454E002B574EA3
:100E60004253495A45002B574E42002B5741555487
:100E70004F4E4554002B57505752002B57534C455B
:100E80004550002B57524F4C45002B5753524300AF
:100E90002B5753594E43505244002B5754585057D8
:100EA00052002B574C5149002B5752535349002B9A
:100EB0005754494D454F5554002B5752455452599C
:100EC000002B5757414954004400445500445300F7
:100ED0004452002B5750494E4700444200264800D8
:100EE00025480049002B474D49002B474D4D002B0D
:100EF000474D52002B47534E002B5743414C49421C
:100F000052415445002B574143414C4942524154B0
:100F100045005A0026460045005100560058002B57
:100F2000495052002B494643002644002B5750415C
:100F30005353574F52440052002B57534543535479
:100F400041545553002B57544341444452002B57AE
:100F50004E45544B4559002B575345434F4E005374
:100F600030005333005334005335005332300053B4
:100F70003231005332320053323300533234005393
:100F80003330005333310053333200533333005383
:100F90003334005333370053353000533531005369
:100FA000353200533533005335350053313030007E
:100FB000533130310053313032005331303300532C
:100FC000313034005331323000533132310053313B
:100FD0003232005331323300533132340053313224
:100FE0003500533132360053313237005331323805
:100FF0000053313330005331333100533133320039
:1010000053313333005331333400533133350053CC
:1010100031333600533133370053313338005331D5
:1010200034300053313431005331343200533134D1
:1010300033005331343400533134350053313436B6
:10104000005331343700533134380000110E02059B
:101050000000E001190E03030000E001240E040665
:10106000000020002B0E05040000E001340E0600F5
:10107000000010003C0E070000001000430E0800A6
:1010800000001000490E090000002000520E0A0066
:10109000000020005D0E0B0000002000660E0C2EEC
:1010A000000010016B0E0D060000E001750E0E0928
:1010B0000000E0027B0E0F0000001000830E1006FF
:1010C0000000E0018A0E11030000E001900E120101
:1010D0000000E0019A0E13020000E001A20E1403CA
:1010E00000001001A80E150300001001AF0E18013A
:1010F00000002001B90E170600002001C10E1601E4
:101100000000E001CD0E1B5900001002CA0E1A01AA
:1011100000001000DA0E1E4B00001003D30E1D035A
:1011200000001001C80E194B00001001120F28001A
:1011300000001000140F290000001000170F2A06ED
:1011400000001000190F2B06000010001B0F2C06CA
:10115000000010001D0F2D06000010001F0F2E01B3
:101160000000E001240F2F360000E003290F3006B5
:1011700000001001DD0E1F0000001000E00E200036
:1011800000001000E30E210600001000E50E22070B
:1011900000002000EA0E230700002000EF0E2407C5
:1011A00000002000F40E250500006001F90E260065
:1011B00000001000050F27010000E0012C0F310492
:1011C00000001001370F32E301001007390F33061A
:1011D0000000E001450F34050000E0014E0F352D01
:1011E0000000E002570F36060000E0015F0F3706EF
:1011F00000002001620F380100006001650F390115
:1012000000006001680F3A01000060016B0F3B05B0
:10121000000020016F0F3C0500006001730F3D06C8
:1012200000002001770F3E04000060017B0F3F06A5
:10123000000060017F0F400600006001830F410144
:1012400000006001870F4201000060018B0F430620
:10125000000060018F0F440200006001930F450100
:1012600000006001970F4606000060019B0F4701D8
:10127000000020019F0F480600002001A30F490134
:1012800000006001A70F4A0300006001AB0F4B068E
:1012900000006001B00F4C0100002001B50F4D01AE
:1012A00000002001BA0F4E0100002001BF0F4F01C6
:1012B00000002001C40F500600006001C90F510654
:1012C00000006001CE0F520600006001D30F5306EC
:1012D00000006001D80F540600006001DD0F5506C4
:1012E00000006001E20F560600006001E70F57069C
:1012F00000006001EC0F580600006001F10F590674
:1013000000006001F60F5A0600006001FB0F5B064B
:101310000000600100105C060000600105105D0621
:10132000000060010A105E06000060010F105F06F9
:1013300000006001141060060000600119106106D1
:10134000000060011E1062060000600123106306A9
:101350000000600128106406000060012D10650186
:101360000000600132106601000060013710670163
:10137000000060013C10680100006001411069013B
:101380000000600146106A01000060014B1000007F
:101390000000000011248091AD1D823141F084B71E
:1013A0008F718093AD1D80FF05C081E001C081E198
:1013B0008093AD1D14BE80916000886180936000B1
:1013C0001092600011241FBECFEFD1E2DEBFCDBF6F
:1013D00012E0A0E0B2E0EEE8F3ED01E00BBF02C0E6
:1013E00007900D92A239B107D9F71DE1A2E9B2E049
:1013F00001C01D92AD3AB107E1F70E9440620E9420
:101400000362FDCF0C9400007F937FB7F8949D9A00
:10141000A5988AEF0E94630A8AEF0E94630A9D984A
:1014200086E40E94630A81E0959980E08F9380EFC3
:101430000E94630A8F917FBF7F9108957F937FB74A
:10144000F8949D9AA59886E00E94630A9D988AE088
:101450000E94630A889495990894881F8F9384E664
:101460000E94630A8F917FBF7F9108959F937F931E
:1014700098E00E941E0A879577959A959923C9F757
:10148000872F7F919F9108957F937FB7F894A598B8
:101490009D9A8F9386E00E94630A8F91879508F446
:1014A0009D988F9384E60E94630A8F919D987FBFD9
:1014B0007F9108959F9398E00E94440A9A959923FA
:1014C000D9F79F91089500000000000000008A9560
:1014D0008823C9F708955F937F937FB7F894CF93DC
:1014E000DF93C0E0D0E07F935091B2007091B200E2
:1014F0007517E1F3739521965091B2005717D9F7FC
:101500007F91CE01DF91CF917FBF7F915F91089551
:10151000EF92FF920F93DF93CF93CDB7DEB7609733
:101520000FB6F894DEBF0FBECDBFA82F002309F47D
:1015300061C07E010894E11CF11C88E0F701119262
:101540008A95E9F729833A834B835C836D837E8395
:10155000AF83988780E2801BE82FFF27E7FDF09597
:101560004D815E816F817885181684F01D861E86F8
:101570001F86188A882799278E1B9F0B04C0769593
:101580006795579547958A95D2F728C0202F33271E
:1015900027FD3095DB01CA01022E04C0B695A79540
:1015A000979587950A94D2F78D879E87AF87B88BDA
:1015B00004C0440F551F661F771FEA95D2F7898133
:1015C0009A81AB81BC8104C0B695A7959795879504
:1015D0002A95D2F7482B592B6A2B7B2B49875A87A0
:1015E0006B877C8729853A854B855C856D857E85F3
:1015F000AF8598898A2F60960FB6F894DEBF0FBE2C
:10160000CDBFCF91DF910F91FF90EF900895EF92B2
:10161000FF920F93DF93CF93CDB7DEB760970FB6EE
:10162000F894DEBF0FBECDBFA82F002309F461C020
:101630007E010894E11CF11C88E0F70111928A9563
:10164000E9F729833A834B835C836D837E83AF8381
:10165000988780E2801BE82FFF27E7FDF0954981FE
:101660005A816B817C81181684F019861A861B8634
:101670001C86882799278E1B9F0B04C0440F551F7B
:10168000661F771F8A95D2F728C0202F332727FDA2
:101690003095DB01CA01022E04C0880F991FAA1FD2
:1016A000BB1F0A94D2F789879A87AB87BC8704C08F
:1016B0007695679557954795EA95D2F78D819E81E6
:1016C000AF81B88504C0880F991FAA1FBB1F2A9538
:1016D000D2F7482B592B6A2B7B2B4D875E876F8760
:1016E000788B29853A854B855C856D857E85AF85B0
:1016F00098898A2F60960FB6F894DEBF0FBECDBFD3
:10170000CF91DF910F91FF90EF90089508950E947F
:10171000C4BA089523E133E03093A7022093A602D0
:1017200020E530E03093A9022093A80223EB32E0B9
:101730003093AB022093AA0220E630E03093AD0252
:101740002093AC021092AF021092AE021092B1023E
:101750001092B00260E0823009F461E082E992E028
:101760000E94C7BA089580E090E00895089584E04B
:10177000089584E0089584E008951092C80F1092AF
:10178000C90F1092CA0F1092CB0F1092CC0F10926B
:10179000CD0F1092CE0F1092CF0F43EE5FE010925C
:1017A000E30FFA01BD96109210101182128213827B
:1017B000148215821682178280E098E0A0E0B0E0E3
:1017C0008093780F9093790FA0937A0FB0937B0F4B
:1017D0001092931021E020938B102093F30F10921E
:1017E000F40F2093F50F84E392E19093E50F80933B
:1017F000E40F1092EA0F8FEF9FEF90939610809373
:10180000951010928E1010921910909322108093C0
:10181000211010922A101092991010929A10109282
:101820009B1010929C1010929D1010929E1010927E
:101830009F101092A0101092E90F10921E108AEAC9
:101840008093700F8093710F8093720F8093730F4A
:101850008093740F8093750F8093760F8093770F2A
:10186000DA01DD961C9288E08093921083E08093E9
:10187000E70F8093E80F10921F108AE0E7EFF5E082
:10188000DF011D928A95E9F785E08093A4102093EB
:10189000A51080E00E94A2360895A4E0B0E0E3E540
:1018A000FCE00C9485E5682F70E0660F771F660FEB
:1018B000771F6653794FCE01019644E050E00E94B5
:1018C00025E669817A818B819C812496E2E00C94E3
:1018D000A1E5CF93DF93EB010E944D0C009719F423
:1018E000CB0168839983DF91CF910895CF93DF93E4
:1018F000EB016115710589F08D3278F406C0CB01DA
:10190000BE01422F0E9473E608C00E944D0C592F61
:10191000282F392F2115310591F7DF91CF910895A7
:101920001F93CF93DF93182FEB016115710571F0B1
:101930000E944D0C9B01AC011D3228F0CE01B90173
:101940000E9425E603C0CE010E9473E6DF91CF918D
:101950001F9108950E94AF0C0E94C10E0895E7EAFE
:10196000FFE088E3DF011D928A95E9F7B1961092B6
:10197000C80F118212821382148215821682178276
:1019800085E08093D20F81E290E168EA75E04AE851
:1019900050E00E9425E688E79FE062E376E04FE2B0
:1019A00050E00E9425E68FE69FE061E676E049E0A0
:1019B00050E00E9425E68FED9FE06AE676E042E483
:1019C00050E00E9425E688ED9AE0E7E9F4E0DF01C7
:1019D0009C011D9221503040E1F70895EF92FF9253
:1019E0001F93DF93CF93CDB7DEB727970FB6F89449
:1019F000DEBF0FBECDBF8FEF8983CE0101969D83E1
:101A00008C8380910102909102029B838A8381E002
:101A100090E09F838E8310E082E0E82EF12CEC0EA4
:101A2000FD1EC70161ED7EE00E94F60E882351F491
:101A30002A813B811F5F1A3029F02F5F3F4F3B8384
:101A40002A83EFCF27960FB6F894DEBF0FBECDBF27
:101A5000CF91DF911F91FF90EF900895A6E0B0E045
:101A6000E4E3FDE00C947BE58C010097E9F1E09064
:101A70000102F0900202FA82E98281E090E09E8306
:101A80008D8348019AE0C92ED12CCE0CDF1C5E015B
:101A90000894A11CB11C1FC08B829C820E94D20E94
:101AA000C50160E070E00E94DB108F5F9F4F21F462
:101AB00081E0F801838318C00E94D20EF801808172
:101AC00029813A818F3F19F0328321830CC02F5F27
:101AD0003F4F3A83298389819A818C159D05E0F2D5
:101AE000F801F282E18213822696ECE00C9497E5ED
:101AF000A7E0B0E0EEE7FDE00C947DE58C010097F7
:101B0000E1F11982FC01108284E090E09B838A83DA
:101B100081E090E09F838E83E0900102F0900202CA
:101B20005E010894A11CB11C22E0C22ED12CCC0E67
:101B3000DD1E1CC0BD82AC820E94D20EC60160E0D8
:101B400070E00E94DB108F5F9F4F21F481E0F8016D
:101B5000838313C00E94D20EF80180819981890F7E
:101B600080838A819B8101969B838A838A819B8162
:101B70008E159F05F8F2F80113822796EAE00C947F
:101B800099E5A8E0B0E0E7ECFDE00C9485E5CE0136
:101B900005960E94780D8885813079F0CE010196F6
:101BA0000E942E0D8C81813041F089819D81890FA9
:101BB00011F082E003C080E001C081E02896E2E0FD
:101BC0000C94A1E5AFE0B0E0E8EEFDE00C9485E513
:101BD0008FEF8983CE0102960E942E0D8D81813078
:101BE000E9F1CE0106960E94780D89858130B1F128
:101BF0009E818A81890F99F191959E838B819C8129
:101C00009B878A87CE0101969D878C8781E090E033
:101C10009F878E87CE010A9661ED7EE00E94F60EC8
:101C20008823E9F48A859B8501969B878A87409162
:101C30000102509102029A01265F3F4F82179307DB
:101C400010F05B874A87CE0106969D878C87CE0170
:101C50000A9661ED7EE00E94F60E01C081E02F96AB
:101C6000E2E00C94A1E5A6E0B0E0E9E3FEE00C942C
:101C700083E589012091010230910202265F3F4FE6
:101C8000280F391F3A8329835E834D837C836B83BE
:101C900002C00E943D62809173038130D1F301152F
:101CA000110511F401ED1EE0CE010196B8010E946C
:101CB000F60E2696E4E00C949FE5A6E0B0E0E3E69D
:101CC000FEE00C9483E5890120910102309102022B
:101CD000265F3F4F280F391F3A8329835E834D8348
:101CE0007C836B8302C00E943D62809173038130CC
:101CF000D1F30115110511F401ED1EE0CE0101969D
:101D0000B8010E94DA0E2696E4E00C949FE58091DB
:101D10007303882349F48BEA90E10E9446100E94E5
:101D2000AE0F02C00E943D62809173038130D1F3F7
:101D30000895A6E0B0E0EFE9FEE00C9481E50E9492
:101D4000BD0B0091000210E07E010894E11CF11C23
:101D50000CC0812FB7010E94120FC70161ED7EE018
:101D60000E94F60E882349F41F5F101790F30E941B
:101D7000EE0C882311F40E94E20D2696E6E00C9406
:101D80009DE50E94C10D882339F40E94590F8130CE
:101D900039F00E94A80F0895813011F00E94A80F19
:101DA0000895089502C00E943D620E943D1188235B
:101DB000D1F708950F931F93CF93DF938C01EB011D
:101DC0000E94D20EC801BE010E94DB108F5F9F4FA0
:101DD00011F481E006C0C15DDE4011F40E94D20E14
:101DE00080E0DF91CF911F910F9108950F931F9382
:101DF000CF93DF938C01EB010E94D20EC801BE018C
:101E00000E9477118F5F9F4F11F481E006C0C15D82
:101E1000DE4011F40E94D20E80E0DF91CF911F913D
:101E20000F910895A8E0B0E0E8E1FFE00C9481E5AF
:101E30007B01082F10E0B801660F771F660F771F30
:101E40006A5D774FCE01019644E050E00E9425E69E
:101E500089819A81F701938382832B813C8131832D
:101E600020838091000290E001970817190739F448
:101E70008091010290910202821B930B14C0000F0B
:101E8000111F000F111F065D174FCE010596B801F7
:101E900044E050E00E9425E68F8198852B813C81AB
:101EA000821B930BF701958384832896E6E00C94BC
:101EB0009DE5A6E0B0E0EFE5FFE00C9481E5009140
:101EC000000210E07E010894E11CF11C0CC0812F7F
:101ED000B7010E94120FC70161ED7EE00E94DA0E89
:101EE000882321F41F5F101790F380E02696E6E028
:101EF0000C949DE5A4E0B0E0E0E8FFE00C9485E5FB
:101F00009093B7108093B610662359F484E2BE0113
:101F10006F5F7F4F0E94900C89819A81AB81BC8159
:101F200004C082E390E0A0E0B0E08093B110909311
:101F3000B210A093B310B093B41081E08093B510A9
:101F40008BEA90E10E946B102496E2E00C94A1E5EC
:101F50008EEA9FE060E00E947A0F0895ADE0B0E065
:101F6000E4EBFFE00C9479E581E0809373037090DB
:101F7000000252E0852E912C8C0E9D1E46E0642EB0
:101F800038E0E32EF12CEC0EFD1E5E010894A11C3E
:101F9000B11C21E0C22ED12C33C0B4010E94120F1B
:101FA000F701862D11928A95E9F7BB86AA86DD8610
:101FB000CC8600E010E01EC08A819B81800F911FBB
:101FC00099878887C70161ED7EE00E94DA0EAA85B5
:101FD000BB85EC81FD81E00FF11F9C9180819817FA
:101FE00039F0CE0102966EEA7FE00E94F60E23C021
:101FF0000F5F1F4F8E819F8108171907E8F215C0E8
:1020000080917403871548F2109274030E94E20DC8
:10201000813031F48EEA9FE061E00E947A0F0BC0BC
:102020000E94A80F1092730306C0809174038F5F03
:1020300080937403E5CF2D96EEE00C9495E58F9296
:102040009F92AF92BF92CF92DF92EF92FF920F9347
:102050000E94FD124B015C012091780330E040E0CA
:1020600050E060E070E080E090E000E20E94070B4A
:10207000282939294A295B290F91FF90EF90DF9099
:10208000CF90BF90AF909F908F900895CF93DF93A4
:10209000EC010097D1F080917503909176038C1735
:1020A0009D0719F460E070E008C085E793E0BE0189
:1020B0000E945D12BC01009741F085E793E0AE01FC
:1020C0000E943F1220E030E002C02FEF3FEFC90135
:1020D000DF91CF910895CF93DF93EC01009771F0DA
:1020E000E0917503F091760306C0EC17FD07D9F077
:1020F0000190F081E02D3097C1F706C02FEF3FEF40
:10210000C901DF91CF9108950E94D9149B01AC01C0
:10211000198218826A837B838C839D8385E793E091
:10212000BE010E94F01120E030E0EACFEF92FF9272
:102130000F931F93CF93DF9318C085E793E060E080
:1021400070E0AE010E943F128A85882359F4EA822A
:10215000FB820C831D8385E793E0BE01A8019701F4
:102160000E94F011EB85FC85099580917503909193
:102170007603892BD9F00E94D9147B018C01C09180
:102180007503D09176038A819B81AC81BD81A801C2
:102190009701281B390B4A0B5B0B8E819F81A88509
:1021A000B985281739074A075B0738F6CDB7DEB778
:1021B000E6E00C949DE5FC0180917703882319F0FB
:1021C0002EEF3FEF58C0309709F453C084819581BA
:1021D00020813181820F931F8150904108F049C0C6
:1021E00081E0809377037093BF106093BE10A8EBDB
:1021F000B0E186E001900D928150E1F7F999FECFB0
:1022000020E030E017C0E091BA10F091BB10E20F6F
:10221000F31F8091B8109091B91001969093B91066
:102220008093B810019792BD81BDF89A80B58083E4
:102230002F5F3F4F8091BC109091BD102817390738
:1022400010F31092BD101092BC1080918E0380612B
:1022500080938E032FB7F8948091C0039091C103AF
:1022600082609093C1038093C0032FBF20E030E0D1
:1022700002C02FEF3FEFC901089590E080917703EE
:10228000813009F491E0892F08958091BC109091DC
:10229000BD10892B51F410927703E091BE10F0919C
:1022A000BF10309719F1099508956091B810709199
:1022B000B9106F5F7F4F7093B9106093B810615081
:1022C0007040E091BA10F091BB104191F093BB10B7
:1022D000E093BA108CE00E940A158091BC10909196
:1022E000BD1001979093BD108093BC100895CF93BB
:1022F000DF93FC0180917703882319F02EEF3FEFE5
:102300006BC0309709F466C084819581208131814A
:10231000820F931F8150904108F05CC081E0809350
:102320007703A8EBB0E186E001900D928150E1F7D0
:102330007093BF106093BE10672B19F4C0E0D0E01B
:102340003BC06091B8107091B9106F5F7F4F709370
:10235000B9106093B81061507040E091BA10F091DC
:10236000BB104191F093BB10E093BA108CE00E9437
:102370000A158091BC109091BD1001979093BD10EB
:102380008093BC1024C06091B8107091B9106F5F39
:102390007F4F7093B9106093B81061507040E09116
:1023A000BA10F091BB104191F093BB10E093BA10BA
:1023B00084E00E940A1521968091BC109091BD1076
:1023C000C817D90700F3F999FECF1092770320E0E0
:1023D00030E002C02FEF3FEFC901DF91CF910895A8
:1023E000A0E0B0E0E6EFF1E10C947DE58C01EB01BB
:1023F00069017A01FC01608171816115710589F1C2
:10240000FB01AA24BB242681378140855185828126
:102410009381A481B581280F391F4A1F5B1F2C1996
:102420003D094E095F092F3F8FEF38078FEF4807AF
:102430008FE7580748F48E819F81A885B9852817B2
:1024400039074A075B0738F4808191815F01009763
:1024500061F0FC01D8CFE617F70731F4F983E88380
:10246000F801D183C08306C0CF01F501D183C083B9
:1024700099838883CDB7DEB7EAE00C9499E5CF93D2
:10248000DF93EC01DB01FA01888199814817590734
:1024900039F48081918111821082888399830AC0E6
:1024A0008081918111969C938E93118210828C91E0
:1024B00011969C91DF91CF910895FC010190F081DC
:1024C000E02D06C0808191818617970719F0FC01E5
:1024D0003097C1F7CF0108958FB7F8941092800319
:1024E00010927F0310927E038FBF08958091700039
:1024F0008C7F809370008091B60080628093B600DC
:102500001092B2001092B0001092B1001092B3007D
:102510008091B60090E08F719070892BC9F783E0AD
:1025200087BB87E08093B1008091700081608093C9
:10253000700008958091B60090E08F719070892BA3
:10254000C9F7809170008C7F809370008091B100FA
:10255000887F8093B10083B5826083BD8091B6008F
:1025600090E08F719070892BC9F78091B6008F7DB4
:102570008093B6000895EF92FF920F931F937B0113
:102580008C016091B200862F90E0809590959C011F
:10259000442737FD4095542F3070407050702E15F1
:1025A0003F054007510798F4D801C701821B930BE0
:1025B000A40BB50B9C01AD01BB27A52F942F832F36
:1025C00090937F0380937E032093800311C08091BA
:1025D000B60090E08F719070892BC9F76E0D6093F3
:1025E000B30082E087BB80917000826080937000AE
:1025F0001F910F91FF90EF900895EF92FF920F932C
:102600001F936FB7F894709179032091B20084E41E
:102610008093B4008091B60090E08F719070892B08
:10262000C9F7B89904C030E040E050E00AC080919A
:10263000B200282F30E040E050E021503F4F4F4F94
:102640005F4F6FBF8FEF789FC0011124AA2797FDBE
:10265000A095BA2F820F931FA41FB51F9C01AD0137
:1026600075E0220F331F441F551F7A95D1F77C0167
:102670008D0162E016950795F794E7946A95D1F776
:102680002E0D3F1D401F511FE0907A03F0907B03F9
:1026900000917C0310917D032E0D3F1D401F511FA3
:1026A000281B390B4A0B5B0BB901CA011F910F9113
:1026B000FF90EF90089560E270E080E090E0089570
:1026C0002FB7F89460917903109279032FBF70E0CF
:1026D00080E090E020E43FE140E050E00E9420E50F
:1026E00020917A0330917B0340917C0350917D03CC
:1026F000260F371F481F591F20937A0330937B03FF
:1027000040937C0350937D032617370748075907EA
:1027100028F4809178038F5F8093780308951F9247
:102720000F920FB60F920BB60F9211242F933F9377
:102730004F935F936F937F938F939F93AF93BF93C9
:10274000EF93FF93809170008D7F809370001092C3
:1027500080038091B70380FF03C080E00E94DA15F8
:102760008091B70382FF11C080918B0381608093B9
:102770008B032FB7F8948091C0039091C1038260BE
:102780009093C1038093C0032FBFFF91EF91BF913E
:10279000AF919F918F917F916F915F914F913F91F9
:1027A0002F910F900BBE0F900FBE0F901F9018959A
:1027B0008091B70380FF0FC081E00E94DA158091FD
:1027C00070008D7F809370000E946C128091B7031F
:1027D0008B7F8093B70308951F920F920FB60F92CD
:1027E0000BB60F9211242F933F934F935F936F93E8
:1027F0007F938F939F93AF93BF93EF93FF938091BA
:102800007E0390917F03892BA1F58091800388231B
:10281000E9F48091B70380FF03C080E00E94DA15DD
:102820008091B70382FF34C080918B0381608093D5
:102830008B032FB7F8948091C0039091C1038260FD
:102840009093C1038093C0032FBF22C08091B60034
:1028500090E08F719070892BC9F7809180038093ED
:10286000B30082E087BB809170008260809370002B
:1028700009C080917E0390917F03019790937F031D
:1028800080937E038091B70380FF02C00E9466158B
:10289000809179038F5F8093790380918B038260AD
:1028A00080938B032FB7F8948091C0039091C1035C
:1028B00082609093C1038093C0032FBFFF91EF917B
:1028C000BF91AF919F918F917F916F915F914F9148
:1028D0003F912F910F900BBE0F900FBE0F901F9046
:1028E000189580E197E29093A9008093A800E1EA0F
:1028F000F0E088E08083808182608083E2E7F0E01E
:1029000080818260808308952091830330918403C5
:102910004091850350918603260F371F481F591F8A
:10292000209383033093840340938503509386035D
:1029300080918F03806880938F032FB7F8948091E4
:10294000C0039091C10382609093C1038093C00340
:102950002FBF08952FB7F8946091820310928203DD
:102960002FBF70E080E090E02AE030E040E050E0EF
:102970000E9420E5209183033091840340918503D8
:1029800050918603260F371F481F591F209383033A
:1029900030938403409385035093860326173707AB
:1029A0004807590728F4809181038F5F8093810342
:1029B00008950E94AA14609183037091840380910A
:1029C00085039091860308951F920F920FB60F9280
:1029D00011242F938F939F93809182038F5F809315
:1029E000820380918F03806880938F032FB7F894C0
:1029F0008091C0039091C10382609093C103809342
:102A0000C0032FBF9F918F912F910F900FBE0F90FA
:102A10001F901895982FF999FECF07B600FCFDCFAF
:102A200072BD61BD40BD8FB7F8949FBBF99A8FBF4F
:102A300008951F920F920FB60F9211242F938F9328
:102A40009F93FB9880918E03806180938E032FB7B4
:102A5000F8948091C0039091C10382609093C10368
:102A60008093C0032FBF9F918F912F910F900FBE26
:102A70000F901F9018950E94FD12209187033091AE
:102A800088034091890350918A03621B730B840B66
:102A9000950B10928703109288031092890310926D
:102AA0008A030E9484148091A10082608093A10017
:102AB0000E9410178091B70381FD07C0E091A80321
:102AC000F091A903309709F0099508950E940F1E0F
:102AD000882309F44EC08091B70382FD03C02FEF15
:102AE0003FEF66C024982C988091B60090E08F71DB
:102AF0009070892BC9F78091700081FD0AC08FEF1B
:102B00008093B3008091B60090E08F719070892B14
:102B1000C9F78091B000806C8093B0008091B600BE
:102B200090E08F719070892BC9F78091B100806817
:102B30008093B1008091B60090E08F719070892BE6
:102B4000C9F78091B0008F738093B0008091B60078
:102B500090E08F719070892BC9F78091B0008068E8
:102B60008093B0008091B60090E08F719070892BB7
:102B7000C9F78091B70381608093B7038091B60055
:102B800090E08F719070892BC9F7809190038068D5
:102B9000809390032FB7F8948091C0039091C10364
:102BA00082609093C1038093C0032FBF20E030E088
:102BB000C90108959091B7038170880F9C7F982B6D
:102BC0009093B7030E940F1E882311F42C980EC017
:102BD00024982C988091B0008F738093B0008091DE
:102BE000B60090E08F719070892BC9F7249A80917C
:102BF0008F03846080938F032FB7F8948091C00374
:102C00009091C10382609093C1038093C0032FBF52
:102C100008958091B70380FF5CC08091A1008D7FF3
:102C20008093A1008091870390918803A0918903EC
:102C3000B0918A030097A105B10551F40E94FD12DD
:102C400060938703709388038093890390938A032A
:102C5000809195038111EC9AF999FECF0E940F1E85
:102C60008823B1F42C9A249A8091B70382FF05C07F
:102C700087E083BF889513BE22C00E949A1285E028
:102C800083BF889513BE0E9476120E94DF1617C07C
:102C9000909172002091BC0030917A0010927200E5
:102CA0001092BC0010927A00249A87E083BF889526
:102CB00013BE909372002093BC0030937A0084E49A
:102CC0008093B4008091B60090E08F719070892B52
:102CD000C9F70895A0E0B0E0E0E7F6E10C9479E5EB
:102CE00000E8C2E8DBE810E092E8C92E9BE8D92EA4
:102CF000E12CF12C82E8A82E8BE8B82E0E946B0AFA
:102D0000BC018BE86338780718F19E0140E050E081
:102D1000CB01A0E0B0E082589B48A040B04028170B
:102D200039074A075B074CF4123039F4809166008A
:102D3000815080936600000036C08091660081500B
:102D4000809366000000EB01C258DB4811E028C008
:102D50008BE86238780739F1CE01A0E0B0E09B0142
:102D600040E050E036014701621A730A840A950A6E
:102D700086159705A805B9054CF4113039F48091F2
:102D800066008F5F8093660000000DC08091660032
:102D90008F5F809366000000E501C61BD70B12E031
:102DA000015009F0ABCFCDB7DEB7EEE00C9495E55E
:102DB0000E940F1E882311F40E946A160895CF9373
:102DC000DF93C0E0D0E088EC0E94630A219683E1A3
:102DD000C838D807C1F70E94D816DF91CF9108955F
:102DE00080E28CBB0895ED9A08958DB3ED988072C2
:102DF00008952C9A08952C980895179A0895179875
:102E000008952C98249A179A0F9A6D98759808959A
:102E1000EAE6F0E080818C608083089584E0089584
:102E20001F9310E00E94692181E80E945221812FA6
:102E30000E945221182F0E946721183099F71F9184
:102E400008950E94630A089580918B0380FF0BC050
:102E50009FB7F89480918B038E7F80938B039FBFE5
:102E60000E946B2177C080918B0381FF0BC09FB7BD
:102E7000F89480918B038D7F80938B039FBF0E947A
:102E8000601368C080918D0387FF0BC09FB7F894D3
:102E900080918D038F7780938D039FBF0E94E61BE7
:102EA00059C080918E0383FF0BC09FB7F894809127
:102EB0008E03877F80938E039FBF0E946E1D4AC042
:102EC00080918E0384FF0BC09FB7F89480918E038E
:102ED0008F7E80938E039FBF0E9445113BC08091DF
:102EE0008F0382FF0BC09FB7F89480918F038B7F75
:102EF00080938F039FBF0E943B152CC080918F034E
:102F000085FF0BC09FB7F89480918F038F7D8093CE
:102F10008F039FBF0E94521D1DC080918F0387FFAA
:102F20000BC09FB7F89480918F038F7780938F03A6
:102F30009FBF0E9496100EC08091900387FF0AC029
:102F40009FB7F894809190038F77809390039FBFF1
:102F50000E94091680918B038823A1F480918C0331
:102F6000882381F480918D03882361F480918E03FE
:102F7000882341F480918F03882321F4809190036A
:102F8000882361F02FB7F8948091C0039091C1031A
:102F900082609093C1038093C0032FBF08959091E6
:102FA000980321E030E002C0220F331F8A95E2F738
:102FB000922B9093980380918D03806880938D036A
:102FC0002FB7F8948091C0039091C10382609093D1
:102FD000C1038093C0032FBF0895CF93DF93E82FE1
:102FE000F0E0CF01805C9040A3E095958795AA958D
:102FF000E1F7482F50E0EA01CC0FDD1FCF56DC4F40
:10300000A881B981109721F481818F7781836CC069
:1030100090968C91909783FD67C05496ED91FC91AA
:10302000559784FF09C06083E881F9818489958977
:103030000196958B848B58C0EF2B09F455C01696DA
:10304000CD91DC91179716968D919C9117970196CB
:1030500017969C938E93169716962D913C911797E1
:1030600056968D919C9157972817390721F41796FA
:103070001C921E92169716962D913C9117971496B6
:103080008D919C9115972817390729F41796DC9391
:10309000CE93169729C05496ED91FC915597EC0F5D
:1030A000FD1F608318968D919C9119970196199632
:1030B0009C938E931897440F551F4F565C4FEA010F
:1030C000E881F98180A180FF0FC08385883C61F48D
:1030D00018962D913C911997868997899695879591
:1030E0008217930708F45D9ADF91CF910895E82F36
:1030F000F0E0E05CF04083E0F595E7958A95E1F734
:10310000F0E0EE0FFF1FEF56FC4F0190F081E02D35
:103110003097C1F04FB7F89422813381808191813B
:103120004FBF2817390711F481E08287828D938D74
:10313000892B11F4118E108E068CF78DE02D3097AF
:1031400009F009950895E82FF0E0E05CF04023E0F5
:10315000F595E7952A95E1F7F0E0EE0FFF1FEF56A2
:10316000FC4F0190F081E02D309791F080A18871A3
:1031700079F48FB7F894208531858FBF21153105FB
:1031800039F0048CF58DE02D309711F0C9010995C7
:103190000895909397038093960381E0809395031D
:1031A0000895109295030895803C21F0883C11F019
:1031B00080E0089581E008951F93CF93DF93EC01A1
:1031C000009751F11B85812F0E94D418882321F18B
:1031D000E12FF0E0E05CF04043E0F595E7954A959B
:1031E000E1F7F0E0EE0FFF1FEF56FC4F8081918179
:1031F000C817D90789F44FB7F8942A813B81888191
:1032000099814FBF2817390719F020E030E006C038
:103210008A85282F30E002C02FEF3FEFC901DF91F0
:10322000CF911F9108951F93CF93DF93EC010097E7
:10323000F9F01B85812F0E94D4188823C9F0E12F53
:10324000F0E0E05CF04093E0F595E7959A95E1F7C2
:10325000F0E0EE0FFF1FEF56FC4F80819181C81701
:10326000D90731F4183C21F45D9820E030E002C029
:103270002FEF3FEFC901DF91CF911F9108951F9369
:10328000CF93DF93EC010097F9F01B85812F0E940B
:10329000D4188823C9F0E12FF0E0E05CF04033E07F
:1032A000F595E7953A95E1F7F0E0EE0FFF1FEF5641
:1032B000FC4F80819181C817D90731F4183C21F463
:1032C0005D9A20E030E002C02FEF3FEFC901DF91AF
:1032D000CF911F910895A0E0B0E0E1E7F9E10C94EF
:1032E0007DE58C015B016A01009709F46DC0DC018A
:1032F0001B96FC908F2D0E94D418882309F464C07B
:10330000A114B10409F460C0C114D10409F45CC073
:10331000EF2DF0E0E05CF040A3E0F595E795AA958D
:10332000E1F7F0E0EE0FFF1FEF56FC4FC081D181B7
:103330000C171D0709F048C08FB7F894F801668193
:103340007781248135818FBF40E050E01AC075013C
:10335000E40EF51ED8015496ED91FC915597E20FBD
:10336000F31F8081F70180832F5F3F4F56968D9129
:103370009C9157972817390711F420E030E04F5FF0
:103380005F4F2617370719F04C155D0500F38FB70F
:10339000F8943D832C8328853985241B350B398788
:1033A0002887288539858FBF8B85883C59F488A16B
:1033B00080FF08C08E899F8996958795821793070D
:1033C00008F05D989A0102C02FEF3FEFC901CDB719
:1033D000DEB7EAE00C9499E5A0E0B0E0E2EFF9E1B5
:1033E0000C947BE5EC016B018A01009709F46FC036
:1033F000FB848F2D0E94D418882309F468C0C1145F
:10340000D10409F464C00115110509F460C0EF2D61
:10341000F0E0E05CF04083E0F595E7958A95E1F710
:10342000F0E0EE0FFF1FEF56FC4F80809180C81533
:10343000D90509F04CC08A8D9B8D892B81F42A8196
:103440003B81888199812817390709F040C0D98EBE
:10345000C88E1B830A8319821882B80130C08FB7C7
:10346000F894AA80BB80E880F9808FBFA50160E056
:1034700070E019C09A012F5F3F4F8A8D9B8D2817EE
:10348000390711F420E030E02E153F0579F0E88D82
:10349000F98DE40FF51FD601A60FB71F8C9180831D
:1034A0006F5F7F4FA9016017710720F38FB7F89402
:1034B000F401538342838FBFAE14BF0431F41A86E4
:1034C000EB85F0E08181806281839B0102C02FEF58
:1034D0003FEFC901CDB7DEB7ECE00C9497E5FC01F6
:1034E00083899385882349F4903C19F0983C89F4AA
:1034F00002C06A9A0895559A0895903C19F0983C34
:1035000041F404C06A987298729A089555985D982B
:103510005D9A08951F93CF93DF93FC010097B1F15B
:103520001385812F0E94D418882381F1812F90E088
:10353000805C904033E0959587953A95E1F7C82FE8
:10354000D0E0DE01AA0FBB1FAF56BC4FED91FC913E
:1035500011973097D9F0E385F0E01182ED91FC915D
:1035600080A180FF02C055985D988485803429F43D
:1035700081E0838BCF010E946F1ACC0FDD1FCF56E5
:10358000DC4F1982188220E030E002C02FEF3FEFBD
:10359000C901DF91CF911F91089580EC0E947718A7
:1035A000089580EC0E94A318089588EC0E94771873
:1035B000089588EC0E94A3180895CF93DF93282FD5
:1035C000A82FB0E0CD01805C904033E095958795C1
:1035D0003A95E1F7C82FD0E0FE01EE0FFF1FEF563E
:1035E000FC4F608171816115710509F476C0283C3A
:1035F000D1F5FB0180A1282F81FD02C030E009C078
:103600008CB190E0E4E096958795EA95E1F7382F44
:10361000317020FD02C080E008C089B190E054E024
:10362000969587955A95E1F78170332311F4882395
:10363000D1F08AE090E0A0E0B0E080939F03909307
:10364000A003A093A103B093A20381E08093A303FE
:1036500080E79BE19093A5038093A40389E993E01D
:103660000E946B103AC02FB7F894FB0182819381BE
:10367000408151812FBF8417950749F1808D918D2D
:10368000840F951FFC0190819A012F5F3F4F8C9111
:1036900080648C9316969C931697CC0FDD1FCF56A3
:1036A000DC4FE881F981828D938D2817390711F459
:1036B00020E030E011968C911197806211968C93E6
:1036C0008FB7F894FB01318320838FBF06C011961A
:1036D0008C911197806411968C93DF91CF9108950E
:1036E00088EC0E94DD1A089588EC0E94DD1A089586
:1036F00080EC0E94DD1A08951F93CF93DF93EC01B5
:10370000009709F45CC01B85812F0E94D418882380
:1037100009F455C088A1282F30E0A90141705070EC
:1037200080FF03C0183C09F04AC0812F90E0805C04
:10373000904073E0959587957A95E1F7E82FF0E052
:10374000EE0FFF1FEF56FC4F80819181892BB9F559
:10375000D183C083183C81F421FF02C06C98749817
:10376000452B51F0559A54985C988C899D89892BEA
:1037700011F45D9A01C05D988C85803419F4CE01F6
:103780000E946F1A198218821B821A828C899D8965
:10379000892B11F41F8A1E8A888D998D892B11F42B
:1037A0001B8E1A8E1D821C821F821E8281E08A87D8
:1037B000CE010E94381E8B85282F30E002C02FEFEB
:1037C0003FEFC901DF91CF911F910895CF92DF9212
:1037D000FF920F931F93DF93CF9300D00F92CDB73B
:1037E000DEB781E08983FF2400E010E0F2E0CF2E15
:1037F000D12CCC0EDD1E9091980389818923B9F0DC
:103800002FB7F89490919803898189278093980322
:103810002FBF6F2D70E0660F771F6657774FC60179
:1038200042E050E00E9425E6EA81FB810995F3948D
:103830008981880F89830F5F1F4F06301105D9F6E4
:103840000F900F900F90CF91DF911F910F91FF90EC
:10385000DF90CF90089587E08093A60380E980935E
:10386000BC0080918F03806280938F032FB7F89400
:103870008091C0039091C10382609093C1038093B3
:10388000C0032FBF08958091A603823041F080913C
:10389000A603833021F08091A603843021F4809127
:1038A000C410880F08C08091A603853051F4809120
:1038B000C410880F8F5F8093BB0085E88093BC00A5
:1038C00008950E942B1C08959091C3108091C210FE
:1038D000981790F48091C310E091C010F091C1103E
:1038E000E80FF11D90818F5F8093C3109093BB0010
:1038F00085E88093BC00089586E08093A60384E960
:103900008093BC0080918F03806280938F032FB7D8
:10391000F8948091C0039091C10382609093C10399
:103920008093C0032FBF08958091C5109091C61059
:10393000A091C710B091C8102091C31021502093BE
:10394000C3102091C310220F220F220F04C0B6957E
:10395000A795979587952A95D2F78093BB0085E820
:103960008093BC008091C310882359F48091A603F2
:10397000823021F484E08093A603089585E080934B
:10398000A60308958091A603843019F40E94641C54
:1039900008958091A603823021F08091A6038330A0
:1039A00019F40E94941C08958091A603853021F497
:1039B00085EA8093BC0008950E942B1C0895809195
:1039C000A603853099F48091C210813021F4809152
:1039D000BC008F7B03C08091BC0080648093BC00DE
:1039E0008091BC0085688093BC0008950E942B1CC8
:1039F0000895982F8091A603853029F58091C310F2
:103A0000E091C010F091C110E80FF11D90838F5F1D
:103A10008093C3102091C3108091C21030E090E0D9
:103A200001972817390724F48091BC00806403C0F3
:103A30008091BC008F7B8093BC008091BC00856826
:103A40008093BC0008950E942B1C0895982F8091AC
:103A5000A603853021F58091C310E091C010F0914C
:103A6000C110E80FF11D90838F5F8093C31086E033
:103A70008093A60384E98093BC0080918F038062C9
:103A800080938F032FB7F8948091C0039091C10366
:103A900082609093C1038093C0032FBF08950E945A
:103AA0002B1C0895E091C910F091CA10309791F045
:103AB0008091A603863041F48091BC0084FDFCCF48
:103AC00081E08093A60304C081E08093A60380E098
:103AD0000995089581E08093A60308958091A70336
:103AE000813051F482E08093A703E091CB10F091F4
:103AF000CC10309709F0099508958091A703882389
:103B000019F42FEF3FEF06C01092A7030E945A202E
:103B100020E030E0C9010895982F8091A7038230FA
:103B200079F4892F8450843058F0903148F481E042
:103B30008093A703892F0E94C62020E030E002C0B6
:103B40002FEF3FEFC9010895CF93DF93EC018091F0
:103B5000A703882319F5209709F18B819C81892B74
:103B6000E9F028812230D0F48A8190E08F73907040
:103B7000892BA1F4213019F48981833078F082E017
:103B80008093A703CE010E9413218F819885909383
:103B9000CC108093CB1020E030E002C02FEF3FEF3D
:103BA000C901DF91CF910895ADE0B0E0EAEDFDE10C
:103BB0000C9485E5FC01009719F42FEF3FEF2AC024
:103BC000848195819093A9038093A803808191813A
:103BD000A281B3818F839887A987BA8781E08B8779
:103BE0001D861C86CE0101960E9494212FEF8F3FE7
:103BF000920771F08D5F9F4F59F00E9466158F5F9D
:103C00009F4F19F020E030E005C02DEF3FEF02C0DC
:103C10002EEF3FEFC9012D96E2E00C94A1E58091D3
:103C2000B8030895F999FECF9FB7F894E0E0F0E06B
:103C300089E08093570084919FBF8F70823019F480
:103C40001092B80303C081E08093B8038091B80359
:103C5000882369F48FB7F8945F9350E8509361001C
:103C600050E0509361005F918FBF0E94DF1608956E
:103C7000DC011B96EC911B97F0E011821B96EC91F6
:103C80001B97F0E01D968D919C911E9795838483E0
:103C90001C968C911C971B96EC911B97882349F4DA
:103CA000F0E082E080831B96EC911B97F0E012829B
:103CB0000AC0F0E010821B96EC911B97F0E0529640
:103CC0008C91529782831B96EC911B97F0E0828136
:103CD0001C969C911C97892B82831B96EC911B97B9
:103CE000F0E082811F969C911F97892B82831B96FF
:103CF000EC911B97F0E0828150969C915097892B14
:103D000082831B96EC911B97F0E0828151969C91E7
:103D10005197892B82831B96EC911B97F0E0808151
:103D2000806880831B96EC911B97F0E0818188610D
:103D300081831B96EC91F0E08181806881830895F6
:103D40001F920F920FB60F920BB60F9211242F9362
:103D50003F934F935F936F937F938F939F93AF9313
:103D6000BF93EF93FF930E94D81380919503811125
:103D7000EC98E0919603F0919703309709F009953C
:103D8000FF91EF91BF91AF919F918F917F916F9133
:103D90005F914F913F912F910F900BBE0F900FBEEF
:103DA0000F901F9018951F920F920FB60F920BB69F
:103DB0000F9211242F933F934F935F936F937F93B1
:103DC0008F939F93AF93BF93EF93FF938091C8001E
:103DD0006091CE008C7131F488EC0E94ED1785E083
:103DE0000E94CF17FF91EF91BF91AF919F918F915B
:103DF0007F916F915F914F913F912F910F900BBEEB
:103E00000F900FBE0F901F9018951F920F920FB634
:103E10000F920BB60F9211242F933F934F935F9302
:103E20006F937F938F939F93AF93BF93EF93FF9382
:103E3000E9ECF0E080818F7B808384E00E94CF17E3
:103E4000FF91EF91BF91AF919F918F917F916F9172
:103E50005F914F913F912F910F900BBE0F900FBE2E
:103E60000F901F9018951F920F920FB60F920BB6DE
:103E70000F9211242F933F934F935F936F937F93F0
:103E80008F939F93AF93BF93EF93FF93E9ECF0E091
:103E900080818F7D808383E00E94CF17FF91EF9117
:103EA000BF91AF919F918F917F916F915F914F9152
:103EB0003F912F910F900BBE0F900FBE0F901F9050
:103EC00018951F920F920FB60F920BB60F921124F6
:103ED0002F933F934F935F936F937F938F939F9312
:103EE000AF93BF93EF93FF938091C0006091C600A2
:103EF0008C7131F480EC0E94ED1782E00E94CF17A4
:103F0000FF91EF91BF91AF919F918F917F916F91B1
:103F10005F914F913F912F910F900BBE0F900FBE6D
:103F20000F901F9018951F920F920FB60F920BB61D
:103F30000F9211242F933F934F935F936F937F932F
:103F40008F939F93AF93BF93EF93FF93E1ECF0E0D8
:103F500080818F7B808381E00E94CF17FF91EF915A
:103F6000BF91AF919F918F917F916F915F914F9191
:103F70003F912F910F900BBE0F900FBE0F901F908F
:103F800018951F920F920FB60F920BB60F92112435
:103F90002F933F934F935F936F937F938F939F9351
:103FA000AF93BF93EF93FF93E1ECF0E080818F7DBF
:103FB000808380E00E94CF17FF91EF91BF91AF9176
:103FC0009F918F917F916F915F914F913F912F9131
:103FD0000F900BBE0F900FBE0F901F9018951F9261
:103FE0000F920FB60F920BB60F9211242F933F939F
:103FF0004F935F936F937F938F939F93AF93BF93F1
:10400000EF93FF938091B90090E0887F90708832A1
:10401000910559F1893291058CF48031910511F1A6
:10402000813191052CF4009719F1089781F51AC098
:1040300088319105D1F0809751F51AC088349105E7
:10404000B9F0893491053CF48033910589F08034CE
:104050009105E9F410C08035910581F0883591050E
:10406000B1F411C00E94431C12C00E94C21C0FC0B8
:104070000E942B1C0CC00E94DF1C09C08091BB0059
:104080000E94F91C04C08091BB000E94261DFF9174
:10409000EF91BF91AF919F918F917F916F915F91C0
:1040A0004F913F912F910F900BBE0F900FBE0F902D
:1040B0001F90189510927C0010927A0010927E004A
:1040C00008951F920F920FB60F920BB60F92112404
:1040D0002F933F934F935F938F939F93EF93FF9310
:1040E0008091B903E091BA03F091BB03882351F4A6
:1040F0008091BC039091BD0320917900E80FF91FD6
:1041000020830FC08091BC039091BD034091780043
:10411000509179009C01220F331FE20FF31F51834E
:10412000408301969093BD038093BC032091BC0310
:104130003091BD038091BE039091BF0328173907CA
:10414000B1F480917A00877F80937A0080918E030A
:10415000886080938E032FB7F8948091C00390916C
:10416000C10382609093C1038093C0032FBFFF916E
:10417000EF919F918F915F914F913F912F910F9070
:104180000BBE0F900FBE0F901F901895282F109206
:10419000BD031092BC03843048F481E090E0022E0D
:1041A00002C0880F991F0A94E2F717C0883011F0F7
:1041B0008A3011F481E011C0893011F08B3011F494
:1041C00083E00BC08C3011F08E3011F484E005C018
:1041D0008D3011F08F3019F48CE080937E00809147
:1041E0007C0090917C00907E90937C0090917C006C
:1041F000922B90937C008F71821729F0243018F055
:104200008DE70E94630A8091BE039091BF030297DD
:1042100020F080917A00886603C080917A008864DB
:1042200080937A000895A1E0B0E0E9E1F1E20C9416
:1042300085E5FC01858196819093BF038093BE0341
:1042400080818093B903838194819093BB03809391
:10425000BA03828180937C008091B903882329F47A
:1042600080917C00806280937C00618170E06A565E
:10427000774FCE01019641E050E00E9425E689810A
:10428000806880937A002196E2E00C94A1E5289A58
:1042900023982B98229A219A209A80E58CBD81E060
:1042A0008DBD08958EBD00000000000000000000DC
:1042B00000000000000000000000000000000000FE
:1042C00000000000000000008DB58EB50895289A0A
:1042D0000895289808959091B70392FF24C0809183
:1042E000B4038823B1F4E091B503F091B60330979D
:1042F00009F009958091B70382FF15C06091B00362
:104300007091B1038091B2039091B3030E94BB12EC
:1043100008959B7F9093B703E091B503F091B603A6
:10432000309709F009950895CF93DF93EC0100973A
:1043300019F42FEF3FEF2EC00E945B132E813F81B7
:10434000488559850E9420E528EE33E040E050E0A2
:104350000E9453E5B901CA016115710581059105F6
:1043600019F42EEF3FEF16C02091B70322FF03C0D0
:104370002DEF3FEF0FC024602093B703AAEAB3E00C
:10438000FE012DE001900D922150E1F70E94BB1239
:1043900020E030E0C901DF91CF9108958091951020
:1043A00090919610089580918E10089590E08091DC
:1043B0003A118A3A09F491E0892F0895AC01E0910D
:1043C0002011F0912111209122113091231180812F
:1043D00080FF05C0818192814817590731F03B96D3
:1043E000E217F307A0F3E0E0F0E0CF01089590E0DA
:1043F0008091ED10813409F491E0892F089590E0C7
:104400008091E810863D09F491E0892F089590E0AD
:1044100080911411833109F491E0892F089590E07F
:1044200080917311873B09F491E0892F0895CF9310
:10443000DF93EC01DB019C01285F3F4F19963C9311
:104440002E931897898183FF0AC011963C932E936F
:10445000285F3F4F19963C932E93189703C01196EF
:104460001C921E92898184FF0EC018968D919C919A
:10447000199713969C938E931297089619969C936E
:104480008E93189704C013961C921E9212978981DE
:1044900080FF0EC018968D919C91199715969C934C
:1044A0008E931497019619969C938E93189704C037
:1044B00015961C921E921497898182FF14C018963B
:1044C000ED91FC9119971796FC93EE9316978081C6
:1044D00090E00196880F991FE80FF91F1996FC9339
:1044E000EE93189704C017961C921E921697189672
:1044F0008C9118978C1B1A968C93DF91CF9108950D
:1045000090919110981708F4892F80932A1008959C
:104510008091211090912210089580919710909190
:10452000981008952091991030919A1040919B1005
:1045300050919C1060919D1070919E1080919F10E1
:104540009091A0100895FC01808180939910818141
:1045500080939A10828180939B10838180939C101A
:10456000848180939D10858180939E1086818093A5
:104570009F1087818093A010089580918B100895DB
:1045800080919410089580939410089560912C1058
:1045900070912D1080912E1090912F100895809180
:1045A0002710909128100895909328108093271039
:1045B00008958091231090912410089580912510E2
:1045C00090912610089590912C11242F941708F49F
:1045D000292F921B292F691708F4262F921B882355
:1045E00061F0992331F020E030E08091A11048176C
:1045F00010F021E030E0822F0895992331F020E07F
:1046000030E08091A210681710F021E030E0822F96
:104610000895E091C611F091C7119091C5118CE2F7
:10462000989F900111242E0F3F1F06C08081882380
:1046300011F080E00895BC96E217F307B8F381E02B
:10464000089590E0809179118A3D09F491E0892FD5
:10465000089590E080910311863E09F491E0892F3E
:10466000089590E08091E811823009F091E0892F5F
:10467000089590E0809170118E3809F491E0892FAF
:104680000895382FE0912611F091271120E046E09F
:104690008081882311F4332311F040832F5F7B96B0
:1046A0008091281190912911E817F90788F32223A6
:1046B00011F490E005C08091A110811181E0982F44
:1046C0009170990F990F80917E108B7F892B809329
:1046D0007E10222311F490E005C08091A210811178
:1046E00081E0982F97959927979580917E108F77E5
:1046F000892B80937E100895AC01E0912611F091F2
:10470000271120912811309129118081863029F0BC
:10471000848195814817590731F07B96E217F3079A
:10472000A0F3E0E0F0E0CF010895282F80912C1154
:10473000962F861708F4982F891B982F281708F4AE
:10474000922F382F391B11F490E006C090E0809131
:10475000A110681708F491E0990F990F80917E10CD
:104760008B7F892B80937E10332311F490E006C059
:1047700090E08091A210281708F491E0979599276E
:10478000979580917E108F77892B80937E10089566
:1047900010927C1090918F10809190108295807F64
:1047A0009F70982B90937D1090917E1080912A108D
:1047B0008F70880F880F880F9478982B90937E10B5
:1047C0008091991080937F1080919A10809380102F
:1047D00080919B108093811080919C108093821017
:1047E00080919D108093831080919E1080938410FF
:1047F00080919F10809385108091A01080938610E7
:104800008FEF809387108093881080938910809118
:10481000301080938A1040912811509129112091D5
:10482000261130912711C901FC0160E090E08081E0
:10483000863051F0813011F0853031F48181823041
:1048400011F49F5F01C06F5F7B96E417F50778F363
:10485000892F0E9495230895809330100E94C823C9
:104860000895FC018081813011F0853061F48181EF
:10487000823021F480917E10806803C080917E1088
:10488000846080937E1086E080830895282FE3E083
:10489000F2E090E08081281720F49F5F31969630F7
:1048A000C9F7892F8F5F0895CF93DF932091261149
:1048B00030912711821B930B23E13AEDF9018E9F72
:1048C00090018F9F300D9E9F300D1124C901880FDC
:1048D000991F880F991F820F931FC0912A11D091A1
:1048E0002B11C80FD91F4B838A81882341F08695ED
:1048F000962F96959695682F6695680F690F6A832F
:10490000862F0E9446248770880F880F880F9C810D
:10491000977C982B9C83DF91CF91089586E291E15B
:1049200008952091261130912711821B930B23E1CA
:104930003AEDA901849F9001859F300D949F300D21
:104940001124C901880F991F880F991F820F931F87
:10495000E0912A11F0912B11E80FF91F828108953F
:104960002091261130912711821B930B23E13AED00
:10497000A901849F9001859F300D949F300D1124D3
:10498000C901880F991F880F991F820F931FE0910B
:104990002A11F0912B11E80FF91F838108950895D2
:1049A00090E08091C811883409F491E0892F08952E
:1049B00090E08091D310893109F491E0892F089516
:1049C00020E08091E9119091EA11892B09F421E00E
:1049D000822F0895AC01E091F911F091FA11209124
:1049E000FB113091FC118081882341F0828568178A
:1049F00029F4848195814817590731F07196E2179F
:104A0000F30788F3E0E0F0E0CF010895CF93DF9360
:104A1000EC018D859E85892B99F0EF85F88930977B
:104A200039F083819481C817D90711F41482138255
:104A3000ED85FE8527813085CF010996F90109951D
:104A40001882DF91CF910895CF93DF93EC01662315
:104A5000E1F0EB81FC81A585B6853097B1F0109728
:104A6000A1F0878590898C179D0779F4108219969B
:104A70006C93199784E11A968C931A971796ED9177
:104A8000FC911897CD0109960995DF91CF91089572
:104A900090E08091FD11882309F491E0892F089519
:104AA000AC01E091FF11F09100129091011287E0AA
:104AB000989F900111242E0F3F1F848180FF09C011
:104AC00082958170681729F4808191814817590770
:104AD00031F03796E217F30780F3E0E0F0E0CF0122
:104AE00008950E945025FC01009719F084818E7F63
:104AF000848308956F927F928F929F92AF92BF921C
:104B0000CF92EF92FF920F931F93CF93DF935C01AD
:104B10004B013A01122FE70180918B10823041F452
:104B200080912110909122109983888383E083C023
:104B3000222321F0002309F44AC005C088EFA816FB
:104B40008FEFB80638F08FEF9FEF998388839C2D05
:104B500088E077C0C5010E947C23FC010097B9F171
:104B6000B982A882828D80FD02C082E064C080810B
:104B7000853009F45FC08181823009F45BC0809187
:104B8000261190912711E81BF90B83E19AEDE89F1C
:104B90009001E99F300DF89F300D1124C901880F55
:104BA000991F880F991F820F931FE0912A11F0918E
:104BB0002B11E80FF91F848186958695869587705D
:104BC0002091921090E030E0821793079CF1C5018C
:104BD000612F0E945025FC01009731F48EEF9FEF6A
:104BE0009983888380E02CC0828193819983888314
:104BF000828193818816990601F168167906E9F099
:104C0000248122FF10C080919510909196108816F3
:104C10009906A9F423FD13C086819C2D8C1508F4F8
:104C2000982F87E00EC086819C2D8C1508F4982F54
:104C300086E007C084E091E004C081E001C08AE022
:104C400090E0DF91CF911F910F91FF90EF90CF9067
:104C5000BF90AF909F908F907F906F900895EF924C
:104C6000FF920F931F93CF93DF93EC01162F7A01DE
:104C7000022F0E945025DC01009799F016968C9126
:104C80001697801708F44FC081E090E00090021260
:104C900002C0880F991F0A94E2F715968C93159716
:104CA0003CC0E091FF11F09100129091011287E059
:104CB000989F900111242E0F3F1F848180FD02C018
:104CC000DF010DC0109731F0958115968C911597E5
:104CD000981708F4DF013796E217F30770F314967C
:104CE0002C911497216014962C93149781E090E0F6
:104CF0000090021202C0880F991F0A94E2F71596DD
:104D00008C9315971196DC93CE9311701295107FAA
:104D1000217E212B14962C9314971396FC92EE92DD
:104D2000129716960C93CDB7DEB7E6E00C949DE58E
:104D3000FC0180918B10823011F420E005C020E04E
:104D40008681823008F021E0822F08958091A5109D
:104D5000089520E09091A3108091A610981708F470
:104D600021E0822F08958091A31090E024E130E0AB
:104D7000AC01429FC001439F900D529F900D1124A2
:104D8000E091A710F091A810E80FF91F8181089514
:104D90008091A31024E1829FC00111242091A710CB
:104DA0003091A810280F391F2C5F3F4FC90108957B
:104DB0002091A31030E0C901880F991FE091A9103C
:104DC000F091AA10E80FF91F6081718184E190E0F1
:104DD000AC01249FC001259F900D349F900D11249C
:104DE000E091A710F091A810E80FF91F828193813C
:104DF00008950F931F930E94D8269B01AC012F5F4B
:104E00003F4F4F4F5F4F0091A31010E0000F111F55
:104E1000E091A910F091AA10E00FF11FC9012083C1
:104E200091830091A31010E084E190E0BC01069F03
:104E3000C001079F900D169F900D1124E091A710BF
:104E4000F091A810E80FF91FCA0142839383B901BA
:104E50001F910F91089590E09C01220F331FE09164
:104E6000A910F091AA10E20FF31F1182108224E121
:104E700030E0AC01429FC001439F900D529F900DC6
:104E80001124E091A710F091A810E80FF91F1382E8
:104E9000128208951F9310E004C0812F0E942B27D7
:104EA0001F5F8091A6101817C0F31F910895382F27
:104EB0002091A610E091A710F091A81090E008C0F2
:104EC0008081882319F08181381729F09F5F7496BB
:104ED0009217B0F39FEF892F08950E945727982FBC
:104EE0008091A610981710F080E008959093A31079
:104EF00081E0089590E0809175118A3909F491E07C
:104F0000892F089520E08091991090919A10892B13
:104F100090919B10892B90919C10892B90919D10C2
:104F2000892B90919E10892B90919F10892B9091A5
:104F3000A010892B09F021E0822F0895FC018281C5
:104F40008C3011F480E1089583819481885F9F4FB4
:104F500010F482E0089581E00895109206120895F9
:104F600090E080911512813309F491E0892F089522
:104F7000089521E030E040E050E004C0220F331FEC
:104F8000441F551F8A95D2F78091CE109091CF1073
:104F9000A091D010B091D110282B392B4A2B5B2B2C
:104FA0002093CE103093CF104093D0105093D11057
:104FB0002FB7F8948091C0039091C10388609093BB
:104FC000C1038093C0032FBF0895CF93DF93FC01EB
:104FD00020911211309113118081D90190968C93F8
:104FE00083819481A581B681E90189A39AA3ABA3AA
:104FF000BCA387818DA389EE809314118091151134
:105000008093CD108DE00E94B927DF91CF91089554
:10501000FC01A0917111B09172118081D0968C9396
:1050200088E58093731189E00E94B9270895FC01F7
:10503000A091E610B091E710E081EE2311F0EA3F75
:1050400019F490961C9202C09096EC9382E780939C
:10505000E81088E00E94B9270895FC01A091C911C9
:10506000B091CA11808115968C938EE58093C811FA
:1050700087E00E94B9270895FC01A0917611B091B4
:105080007711808150968C9387E48093751186E028
:105090000E94B9270895FC01818181606170660FCB
:1050A0008D7F862B81838091FD11882331F483E9E4
:1050B0008093FD1185E00E94B92708958AEA8093C4
:1050C0003A1182E00E94B92708950F931F938C0133
:1050D000DC011196ED91FC911297668380E00E94AD
:1050E000B92782ECF80180831F910F910895FC018C
:1050F00083ED90E160810E9465280895FC01818123
:10510000846081838091FD11882331F483E9809349
:10511000FD1185E00E94B9270895609570958095EE
:1051200090952091CE103091CF104091D010509199
:10513000D11026233723482359232093CE103093B0
:10514000CF104093D0105093D1100895FC0182E00D
:10515000818B828B8091971090919810948B838B88
:105160008EEF9FEF968B858B11A283EE9BE493A32A
:1051700082A3089520E08091FC109091FD10892B6E
:1051800009F421E0822F0895823021F0833021F448
:105190008EEC08958CEC089583EC0895A8E0B0E0BF
:1051A000E4EDF8E20C9481E5E090911060E074E0A9
:1051B00080E090E00E94E8802091D20F620F711D84
:1051C000811D911DFF2400E010E0A80197010E94BD
:1051D00020E57B018C0188E1BE016F5F7F4F0E945B
:1051E000900C87E1BE016B5F7F4F0E94900C2D8178
:1051F0003E814F815885220F331F441F551F8981DF
:105200009A81AB81BC81280F391F4A1F5B1F2E0D6D
:105210003F1D401F511FB901CA012896E6E00C94BA
:105220009DE5A1E0B0E0E7E1F9E20C9483E51982A5
:1052300083E38E010F5F1F4FB8010E94900C89819C
:105240008093911082E361EA70E10E94900C81E307
:10525000B8010E94900C9091A1108981981720F4B8
:10526000891B8093A21004C08093A1101092A210F9
:1052700082E0898384E3BE016F5F7F4F0E94900CC0
:10528000898180938C102196E4E00C949FE5ADE039
:10529000B0E0EDE4F9E20C947BE56C01A0902A11FA
:1052A000B0902B118090261190902711FC018081E5
:1052B000853039F480E4BE016E5F7F4F0E94900C10
:1052C0004BC0F6018181823089F5828D80FF09C053
:1052D00080E090EEA1E0B0E08A839B83AC83BD8345
:1052E0003BC088E1BE016A5F7F4F0E94900C87E15E
:1052F000BE01665F7F4F0E94900C8DE0BE016F5F24
:105300007F4F0E94900CE9802A853B854C855D8506
:105310008E819F81A885B985280F391F4A1F5B1F81
:10532000FF2400E010E0C801B70110C08CE0BE010E
:105330006F5F7F4F0E94900CE980FF2400E010E037
:10534000C801B70128E93AE340E050E00E9420E5B7
:105350006A837B838C839D83C818D90883E19AED87
:10536000C89E9001C99E300DD89E300D1124C901F0
:10537000880F991F880F991F820F931FA80EB91EBF
:105380008A819B81AC81BD812BE0B695A7959795CD
:1053900087952A95D1F70196A11DB11DF50191833D
:1053A00080832D96ECE00C9497E5209126113091A6
:1053B0002711AC01421B530B23E13AEDFA01E29FA6
:1053C000A001E39F500DF29F500D11249A01220F6E
:1053D000331F220F331F240F351FE0912A11F09144
:1053E0002B11E20FF31F67702481287F262B248363
:1053F0000E9447290895A1E0B0E0E1E0FAE20C94B0
:1054000084E5DC015E96ED91FC915F97118181E06E
:10541000898381818D7F818387E2BE016F5F7F4FAA
:105420000E94900C8981882361F00E94A92688231C
:1054300041F08091A410882321F0812F86958170FE
:1054400001C080E02196E3E00C94A0E5A1E0B0E08B
:10545000ECE2FAE20C9484E585E2BE016F5F7F4FD7
:105460000E94900C1981112311F480E002C00E9467
:1054700082278170880F1170812B2196E3E00C94B4
:10548000A0E5A2E0B0E0E7E4FAE20C9485E57091D3
:10549000D2108091D2108F5F8093D210863110F09D
:1054A0001092D2102091CE103091CF104091D01098
:1054B0005091D1106091D210DA01C901062E04C0BA
:1054C000B695A795979587950A94D2F781709070B5
:1054D000892B39F181E090E0A0E0B0E0062E04C015
:1054E000880F991FAA1FBB1F0A94D2F78227932700
:1054F000A427B5278093CE109093CF10A093D010FF
:10550000B093D11070E0660F771F6556774FCE01CC
:10551000019642E050E00E9425E6E981FA81099572
:1055200003C0761709F0B5CF8091CE109091CF10BF
:10553000A091D010B091D1100097A105B10561F0F4
:105540002FB7F8948091C0039091C1038860909325
:10555000C1038093C0032FBF2296E2E00C94A1E523
:10556000A1E0B0E0E6EBFAE20C9480E5E82EE091F1
:10557000FE10F091FF1040910011D42E50E088ED04
:1055800090E0489F9001499F300D589F300D1124A5
:105590002E0F3F1F00E010E0FF240AC08081882307
:1055A00011F48F0103C0E81609F4F394E852FF4F99
:1055B000E217F30798F30115110599F12E2D30E04C
:1055C000CE01019665E06D1598F0BA01660F771F60
:1055D000640F711D660F771F620F731F6A53774F39
:1055E00041E050E00E9425E68981F816A8F417C032
:1055F0002A53374FB90141E050E00E9425E62F2D94
:1056000030E08981D89EC0011124959587959595A4
:105610008795281739071CF000E010E002C0F80158
:10562000E082C8012196E7E00C949CE5653770F4B0
:105630000E94B02AFC01009749F00C96EF57FF4FEB
:10564000918380839F012150304002C020E030E0F0
:10565000C90108950E94B02ADC01009719F4E0E026
:10566000F0E00DC0FC01E256FF4F5A96B183A083D3
:10567000A559BF4F11961C921E92FD013597CF017F
:105680000895A2E0B0E0E7E4FBE20C9481E58091AC
:10569000CD108038D9F003E919E07E010894E11CAF
:1056A000F11CC701B80142E050E00E9425E6E98103
:1056B000FA81309729F00995882311F481E007C019
:1056C0000E5F1F4F89E0093B180759F780E02296CB
:1056D000E6E00C949DE5CF93DF9386E00E94B02A2C
:1056E000EC01009721F181E091E10E94A65CFC01B0
:1056F000CD53DF4F82818883C35CD040CE01839637
:10570000CC53DF4F99838883C454D040D683C5835C
:1057100023813481CF010596F9010995809101110A
:1057200090910211892B19F085E10E94B927DF9130
:10573000CF9108958BEE90E10E94A65CFC01E45BA2
:10574000FF4F21913191CF01F90109958091EB1023
:105750009091EC10892B21F08EE00E94B9270895DA
:1057600081E48093ED100895EF92FF920F931F93C1
:10577000F82EE92E062F8091A610823078F1862F20
:105780000E945727182F8091A610181760F1982FA4
:1057900091506091A7107091A810A091A3104FEFA5
:1057A0005FEFB4E19B9FF0011124E60FF71F8081AA
:1057B000882311F4192F17C09A1751F08181282FCF
:1057C00030E02417350720F4801710F4192F01C09A
:1057D0009A01992341F09150A901E4CF813011F44D
:1057E00010E001C01FEF8091A610181710F080E0A4
:1057F00021C0812F0E942B2784E1189FC001112412
:10580000E091A710F091A810E80FF91F21E0208384
:105810000183E091A710F091A810E80FF91F3496CA
:105820002F2D3E2DC901DC0180E10D9001928150A8
:10583000E1F781E01F910F91FF90EF9008954F9253
:105840005F927F928F929F92AF92BF92CF92DF92A0
:10585000EF92FF920F931F936C015B012A01822E3E
:105860009E2CFB014689FC014383FB016789708DF7
:10587000FC018181928150E00E9473E6F601138160
:10588000F501E380F480718CB38CB6016C5F7F4FBF
:10589000F601818192810E941722F6018685181BEC
:1058A0001787F18AE08A728AB38A017080818E7FBD
:1058B000802BF201918192708570880C880C880C85
:1058C000892B8829F1E09F22990C990C8B7F8929DB
:1058D000F60180831F910F91FF90EF90DF90CF90A2
:1058E000BF90AF909F908F907F905F904F90089562
:1058F000EF92FF920F931F93CF93DF93C0916E119E
:10590000D0916F1113E4E12EF12CEC0EFD1E85E019
:10591000F70160810E94162B8C01009709F45CC08E
:10592000FC018081887F8083C05CDF4F8991868BFA
:1059300088819981908F878B809195109091961096
:10594000928F818FF7014081F801458F818192818B
:105950000996978F868F2A968881CB54D04086A34C
:105960008DED9EE290A787A3F7018081875FF80104
:105970008383FE01EC5BFF4F60817181F801868DAE
:10598000978D50E00E9473E68EE691E10E94A65C3E
:10599000C05BDF4F1882C055D040FE01EF5AFF4F69
:1059A000CA5BDF4F88819981918380832696E99134
:1059B000F991CE010995C80144960E94B471809175
:1059C0006E1190916F11892B29F08FE00E94B927F9
:1059D0008FE803C08EE801C080E980937011CDB7D5
:1059E000DEB7E6E00C949DE5FC01A181B281119641
:1059F0008C91119780FD02C082E001C081E0868B0E
:105A000012968D919C911397908F878B14968D9100
:105A10009C911597928F818F80899189948F838F24
:105A20008785858F84859585978F868F828980A3CA
:105A3000838981A311968C918695817086A38DEDC3
:105A40009EE290A787A3CF0144960E94B471089567
:105A500080911411873E99F5E0911211F091131184
:105A60008091CD1080FF26C01582818D928DA38DEF
:105A7000B48D86839783A087B187858D8287809137
:105A80009310838780E1848785EE97E296878587E8
:105A9000CF018696908F878BCF0102960E94BE8998
:105AA0008091CD10809315111092CD1088EE8093C7
:105AB0001411089583EC80A389EE809314118091D2
:105AC0001411893ED1F482E191E10E94A65CFC01AF
:105AD000268D378D8096F90109958091121190914C
