S011000053657269616C4E65742E737265638C
S2840000000C94C2080C94D4C30C94FA080C94FA080C94FA080C942A1D0C9471C60C9442C60C9413C60C94FA080C94FA080C94FA080C94FA080C9467120C94FA080C94C4120C94FA080C94FA080C94FA080C94FA080C94FA080C94FA080C94FA080C94FA080C94FA080C94EB1D0C944B1E0C941D1E0C94FA080C94EB1E0C94F1130C94FA088D
S2840000800C94FA080C94FA080C94FA080C94FA080C945D1D0C94BD1D0C948F1D0C94791E0C94FA080C94FA080C94BC130C94FCC30C94FA080C94FA080C94FA080C94FA080C94FA080C94FA080C94FA087A34AA34AA34AA347F34943489348E34B9348434993499349E34AA34B034B434D435D735DA35DA35DD35E935E335E635F935E03506
S284000100EC35EF35F235F53506370A3732370E371237323716373237243728372F378B3C3E3D5B3D0F3CD73DD73D4C3D5B3D613DAF3D883DD73DD73DAF3D683CB23D1A652265AE6457655765F56402655765576557652C653B65CE64DA645765AB640D6525683268466858685F686C68796884688C68AA68D56896685D6A5D6A1B6A226A8D
S284000180226A2E6A2E6A3F6A3F6A3F6AE28216834C83388329834C83638363836383638363836383638363836383638338834C836383D5823F832383CB83D0839484AC84C384B785EC85EC85EC85EC85EC85EC85EC85EC85EC85EC8567857585EC8585838D8576845096CB959D969D969D96D195D69567969D96D995DC95E695EE959D96E5
S284000200F195F495F7959D96FC95FF9567960496449659969D9647964A96CF954D964D96679667966796679667966796679667966796679667966796679667966796679667963A9667969D969D969D969D969D969D969D969D969D969D969D969D969D969D9667965C965F9667963396AC97B796AE97AE97AE97BC96C496AE97AE97CC9607
S284000280D196EB96F396AE97F89600970A97AE9712971797AE971F973C974E97AE9741974997AC97AC97AC975897589758975897589758975897589758975897589758975897589758975897589732975897AE97AE97AE97AE97AE97AE97AE97AE97AE97AE97AE97AE97AE97AE9758975397AC9758972D97DC98DA98DA98099910992399DD
S2840003002B992E993199349937993E9A459A549A5C9A5E9A609A629A659A4AA754A717AC70A739AAB7A944A717AC17AC17ACB8AB88A791A7AFABE3A71BA803A80DA847AA47AAE2A817AC17ACF2AAF2AAF2AA17ACF2AAF2AAEBAAEBAA9EAA17AC17AC17AC12A8D4ABD9ABE1AAE5AA7FA98DA9A9A99BA933A94EA929A918A97EAB17AC66A948
S2840003806EA977A917AC4AA717AC70A788A74DA891A791A7E3A70DA803A829A917AC17ACE2A81BA8EFA817AC17AC17AC17AC03A903A903A903A903A903A903A903A903A911A911A911A911A911A911A911A911A911A952A852A852A89DA89DA89DA8B9A8B9A8B9A812C016C028C039C03BC23BC23BC2E6C03CC1EBC13BC23DC040C03BC231
S2840004005CC0B9C066C06AC03BC23BC2A4BFB4C079C03BC23BC23BC23BC23BC23BC23BC23BC23BC2D8C0DBC0DEC0D1C03BC227C23BC23BC295BF9BBF98BF9EBFE6BFFBBF3BC23BC23BC286BF89BF8CBF92BF24C012C028C039C03DC0A1BF52C057C05CC06AC066C075C079C0B4C0A4BFB9C0D2BFD5BFD5BFD5BFD5BFC0BFC0BFC0BFC0BF5C
S284000480C0BFC0BFC0BFC0BFC0BFC9BFC9BFC9BFC9BFC9BFC9BFC9BFC9BFC9BFA9BFA9BFA9BFAEBFAEBFAEBFB7BFB7BFB7BF61C239C33FC363C23FC33FC33FC33FC33FC33FC30BC359C270C23FC37CC239C38BC292C239C339C399C23FC33FC3EBC2F7C202C33FC339C3EBC23FC33FC3E8C23FC33FC33FC3FFC23FC339C33FC33FC359C2CA
S28400050059C259C2E5C2CBC2C5C259C2B1C2BEC23FC35CC25CC25CC23FC361C23FC363C259C259C270C270C27CC292C28BC259C23FC33FC399C239C3AEC23FC33FC33FC33FC3A0C2A0C2A0C2A0C2A0C2A0C2A0C2A0C2A0C259C259C259C259C259C259C259C259C259C2A0C2A0C2A0C2A4C2A4C2A4C2A9C2A9C2A9C200000000000000006A
S284000580000000000000000000000000000000000000000000000000000000000000000000000000000000000000000000000000000000000000000000000000000000000000000000000000000000000000000000000000000000000000000000000000000001020100020206080000FFFF341200000000000000000A0F0008000000007B
S2840006000000000000000000000000000000000000000000000000000000000000000000000000000500FF000002C832000000341201030300001027000010270000010001E803000004E8030000000000000000000000000000000000000000000000000000000300E09304000084000000190A19190A0602040228043204030500000009
S284000680001410711208007B120100881204008C12010039130100401308003C130200C8120200D1120100351301003A1301008F1201009012010091120100921201008D1202009312010037130100361301004B1201004D120100B9120800211204009F12040094120400981204009C1201009D1201009E120100A812110032130100A328
S284000700120100A4120400C11201004E120200C2120100C3120400C7120100000000006A0602006E0601006C06020070060100710601007206010073060100740601007506010076060100770601006F0601007806010079060100810602007A0601007B0601007C0601007D060400840400002E07000008050000D1090000000000004EBD
S2840007800A0000AF11000007120000220D00007E0E00003A0E0000EC0E0000E60F0000461100000000000000000000711204008C120C00B9120D00211215003A13190032131A009C121B009D121C009E121D00A8121E008D122F00931231003C13320035133400C2123500C8123600D11238004013390092124100C71242002E074300029E
S2840008001A57195B19FE195F1963190304050607472FF9290000000000000000000000008B6EF5705079846D2B6B396D8869BD60F54FF768605AFC56F7539F4F1D4F374F00000000000000000000000002020302010201010101010101020201010102020202020202020202020202030302020302805CE9690108A45E9F500101A45E9F70
S284000880500101385CA96A0101C25B82570101C25B57570108795B6A6E0101205B9F76010100000000010800000000010100000000010300002A490104000000000105000000000106000000000101000000000101A45E0000000100000000010000000000010800000000010A000000000100000000000101000000000101000000000037
S2840009000000007651000800007651000C000076510000000076510066465C4B37470F472F4700006E467E4627477646264B4546DE48E6484E49D6483F470000664C1F6C0460A079E67600006B7B1570B258000000003A4348494C445F4C4F5354202530386C582530386C58003A4348494C445F4A4F494E4544202530386C582530386CCC
S28400098058003A4C4F5354003A4A4F494E45440020253034582C25752C25753A002575207C202575207C202530386C582530386C58207C2025303458207C2575207C20257520005325750025733A20002B57525353493A2564002B574C51493A2575002530386C582530386C5800010100000D000000000000000000000000000000020178
S284000A0002000A00000000000000000000000000000003010400080000000000000000000000000000000401060001000000000000000000000000000000050108000000000000000000000000000000000006010A000100000000000000000000000000000007010C000100000000000000000000000000000008010E00030000000000FA
S284000A800000000000000000000009011000000000000000000000000000000000000A011200000000000000000000000000000000000B021400881300000000000000000000000000000C011700000000000000000000000000000000000D041900000000000000000000000000000000000E012000000000000000000000000000000081
S284000B0000000F0122000200000000000000000000000000000010012400020000000000000000000000000000001101260002000000000000000000000000000000120128000200000000000000000000000000000013012A000200000000000000000000000000000014012C000200000000000000000000000000000015012E000200C5
S284000B80000000000000000000000000000016013000020000000000000000000000000000001701320002000000000000000000000000000000180435000000000000000000000000000000000019043A00640000000000000000000000000000001A043F00000000000000000000000000000000002530386C582530386C5800253038C3
S284000C006C580025303458002558002575002564004556454E540044415441004552524F52004F4B002C003A002C002500052500062500073400003400013400022B00062B00072E00032B5750414E4944002B574E574B50414E4944002B574348414E002B5743484D41534B002B574C45415645002B574A4F494E002B574E574B002B57EE
S284000C80504152454E54002B574348494C4452454E002B574E4253495A45002B574E42002B574155544F4E4554002B57505752002B57534C454550002B57524F4C45002B57535243002B5753594E43505244002B575458505752002B574C5149002B5752535349002B5754494D454F5554002B575245545259002B575741495400440044CE
S284000D0055004453004452002B5750494E470044420026480025480049002B474D49002B474D4D002B474D52002B47534E002B5743414C494252415445002B574143414C494252415445005A0026460045005100560058002B495052002B494643002644002B5750415353574F5244005200533000533300533400533500533230005332E7
S284000D803100533232005332330053323400533330005333310053333200533333005333340053333700533530005335310053353200533533005335350053313030005331303100533130320053313033005331303400533132300053313231005331323200533132330053313234005331323500533132360053313237005331323800E5
S284000E0053313330005331333100533133320053313333005331333400533133350053313336005331333700533133380053313430005331343100533134320053313433005331343400533134350053313436005331343700533134380000460C02050000E0014E0C03030000E001590C040600002000600C05040000E001690C06000003
S284000E80001000710C070000001000780C0800000010007E0C090000002000870C0A0000002000920C0B00000020009B0C0C2E00001001A00C0D060000E001AA0C0E090000E002B00C0F0000001000B80C10060000E001BF0C11030000E001C50C12010000E001CF0C13020000E001D70C140300001001DD0C150300001001E40C18010021
S284000F00002001EE0C170600002001F60C16010000E001020D1B5900001002FF0C1A01000010000F0D1E4B00001003080D1D0300001001FD0C194B00001001470D280000001000490D2900000010004C0D2A06000010004E0D2B0600001000500D2C0600001000520D2D0600001000540D2E010000E001590D2F360000E0035E0D300600A1
S284000F80001001120D1F0000001000150D200000001000180D2106000010001A0D2207000020001F0D230700002000240D240700002000290D2505000060012E0D2600000010003A0D27010000E001610D3104000010016C0D32E3010010076E0D330600002001710D340100006001740D350100006001770D3601000060017A0D370500C1
S2840010000020017E0D380500006001820D390600002001860D3A04000060018A0D3B06000060018E0D3C0600006001920D3D0100006001960D3E01000060019A0D3F06000060019E0D400200006001A20D410100006001A60D420600006001AA0D430100002001AE0D440600002001B20D450100006001B60D460300006001BA0D47060096
S284001080006001BF0D480100002001C40D490100002001C90D4A0100002001CE0D4B0100002001D30D4C0600006001D80D4D0600006001DD0D4E0600006001E20D4F0600006001E70D500600006001EC0D510600006001F10D520600006001F60D530600006001FB0D540600006001000E550600006001050E5606000060010A0E5706007C
S2840011000060010F0E580600006001140E590600006001190E5A06000060011E0E5B0600006001230E5C0600006001280E5D06000060012D0E5E0600006001320E5F0600006001370E6006000060013C0E610100006001410E620100006001460E6301000060014B0E640100006001500E650100006001550E6601000060015A0E00000065
S2840011800000000011248091191E823141F084B78F718093191E80FF05C081E001C081E18093191E14BE809160008861809360001092600011241FBECFEFD1E2DEBFCDBF12E0A0E0B2E0EEECF9E901E00BBF02C007900D92A838B107D9F71EE1A8E8B2E001C01D92A931B107E1F70E94C4200E948720FDCF0C9400007F937FB7F8949D9A99
S284001200A5988AEF0E945B098AEF0E945B099D9886E40E945B0981E0959980E08F9380EF0E945B098F917FBF7F9108957F937FB7F8949D9AA59886E00E945B099D988AE00E945B09889495990894881F8F9384E60E945B098F917FBF7F9108959F937F9398E00E941609879577959A959923C9F7872F7F919F9108957F937FB7F894A59881
S2840012809D9A8F9386E00E945B098F91879508F49D988F9384E60E945B098F919D987FBF7F9108959F9398E00E943C099A959923D9F79F91089500000000000000008A958823C9F708955F937F937FB7F894CF93DF93C0E0D0E07F935091B2007091B2007517E1F3739521965091B2005717D9F77F91CE01DF91CF917FBF7F915F910895E9
S284001300EF92FF920F93DF93CF93CDB7DEB760970FB6F894DEBF0FBECDBFA82F002309F461C07E010894E11CF11C88E0F70111928A95E9F729833A834B835C836D837E83AF83988780E2801BE82FFF27E7FDF0954D815E816F817885181684F01D861E861F86188A882799278E1B9F0B04C076956795579547958A95D2F728C0202F3327B7
S28400138027FD3095DB01CA01022E04C0B695A795979587950A94D2F78D879E87AF87B88B04C0440F551F661F771FEA95D2F789819A81AB81BC8104C0B695A795979587952A95D2F7482B592B6A2B7B2B49875A876B877C8729853A854B855C856D857E85AF8598898A2F60960FB6F894DEBF0FBECDBFCF91DF910F91FF90EF900895EF9213
S284001400FF920F93DF93CF93CDB7DEB760970FB6F894DEBF0FBECDBFA82F002309F461C07E010894E11CF11C88E0F70111928A95E9F729833A834B835C836D837E83AF83988780E2801BE82FFF27E7FDF09549815A816B817C81181684F019861A861B861C86882799278E1B9F0B04C0440F551F661F771F8A95D2F728C0202F332727FD18
S2840014803095DB01CA01022E04C0880F991FAA1FBB1F0A94D2F789879A87AB87BC8704C07695679557954795EA95D2F78D819E81AF81B88504C0880F991FAA1FBB1F2A95D2F7482B592B6A2B7B2B4D875E876F87788B29853A854B855C856D857E85AF8598898A2F60960FB6F894DEBF0FBECDBFCF91DF910F91FF90EF90089508950E9439
S28400150002A008952BE133E030939D0220939C0220E530E030939F0220939E0229EA32E03093A1022093A00222E730E03093A3022093A2021092A5021092A4021092A7021092A60260E0823009F461E088E892E00E9405A0089580E090E00895089584E0089584E0089584E008951092711210927212109273121092741210927512109243
S2840015807612109277121092781210928C12E9EBF2E11092B912118212821382148215821682178280E098E0A0E0B0E08093211290932212A0932312B093241210923A1381E08093321380939C1210929D1280939E1284E392E190938E1280938D12109293128FEF9FEF90933D1380933C13109235131092C2129093C9128093C812109252
S284001600D1121092401310924113109242131092431310924413109245131092461310924713109292121092C71288E08093391383E0809390128093911289E1EEE2F7E0DF011D928A95E9F70895A4E0B0E0EBE2FBE00C94A5C8682F70E0660F771F660F771F6D57794FCE01019644E050E00E9445C969817A818B819C812496E2E00C9446
S284001680C1C8CF93DF93EB010E94250B009719F4CB0168839983DF91CF910895CF93DF93EB016115710589F0873278F406C0CB01BE01422F0E9493C908C00E94250B592F282F392F2115310591F7DF91CF9108951F93CF93DF93182FEB016115710571F00E94250B9B01AC01173228F0CE01B9010E9445C903C0CE010E9493C9DF91CF917F
S2840017001F9108950E94870B0E94990D0895E0E5F2E188E3DF011D928A95E9F7B19610927112118212821382148215821682178285E080937B1288EC92E168E775E042E850E00E9445C981E292E16AEF75E04FE250E00E9445C980E292E169E276E041E050E00E9445C988E892E16AE276E040E450E00E9445C98CE99DE0E4E8F4E0DF0146
S2840017809C011D9221503040E1F70895EF92FF921F93DF93CF93CDB7DEB727970FB6F894DEBF0FBECDBF8FEF8983CE0101969D838C8380910102909102029B838A8381E090E09F838E8310E082E0E82EF12CEC0EFD1EC70169EA7DE00E94CE0D882351F42A813B811F5F1A3029F02F5F3F4F3B832A83EFCF27960FB6F894DEBF0FBECDBFF5
S284001800CF91DF911F91FF90EF900895A6E0B0E0ECE0FCE00C949BC88C010097E9F1E0900102F0900202FA82E98281E090E09E838D8348019AE0C92ED12CCE0CDF1C5E010894A11CB11C1FC08B829C820E94AA0DC50160E070E00E94B30F8F5F9F4F21F481E0F801838318C00E94AA0DF801808129813A818F3F19F0328321830CC02F5F00
S2840018803F4F3A83298389819A818C159D05E0F2F801F282E18213822696ECE00C94B7C8A7E0B0E0E6E5FCE00C949DC88C010097E1F11982FC01108284E090E09B838A8381E090E09F838E83E0900102F09002025E010894A11CB11C22E0C22ED12CCC0EDD1E1CC0BD82AC820E94AA0DC60160E070E00E94B30F8F5F9F4F21F481E0F801D8
S284001900838313C00E94AA0DF80180819981890F80838A819B8101969B838A838A819B818E159F05F8F2F80113822796EAE00C94B9C8A8E0B0E0EFE9FCE00C94A5C8CE0105960E94500C8885813079F0CE0101960E94060C8C81813041F089819D81890F11F082E003C080E001C081E02896E2E00C94C1C8AFE0B0E0E0ECFCE00C94A5C8B4
S2840019808FEF8983CE0102960E94060C8D818130E9F1CE0106960E94500C89858130B1F19E818A81890F99F191959E838B819C819B878A87CE0101969D878C8781E090E09F878E87CE010A9669EA7DE00E94CE0D8823E9F48A859B8501969B878A8740910102509102029A01265F3F4F8217930710F05B874A87CE0106969D878C87CE0167
S284001A000A9669EA7DE00E94CE0D01C081E02F96E2E00C94C1C8A6E0B0E0E1E1FDE00C94A3C889012091010230910202265F3F4F280F391F3A8329835E834D837C836B8302C00E94C12080916B038130D1F30115110511F409EA1DE0CE010196B8010E94CE0D2696E4E00C94BFC8A6E0B0E0EBE3FDE00C94A3C889012091010230910202EA
S284001A80265F3F4F280F391F3A8329835E834D837C836B8302C00E94C12080916B038130D1F30115110511F409EA1DE0CE010196B8010E94B20D2696E4E00C94BFC880916B03882349F48AE493E10E941E0F0E94860E02C00E94C12080916B038130D1F30895A6E0B0E0E7E7FDE00C94A1C80E94B50A0091000210E07E010894E11CF11CC0
S284001B000CC0812FB7010E94EA0DC70169EA7DE00E94CE0D882349F41F5F101790F30E94C60B882311F40E94BA0C2696E6E00C94BDC80E94990C882339F40E94310E813039F00E94800E0895813011F00E94800E0895089502C00E94C1200E9415108823D1F708950F931F93CF93DF938C01EB010E94AA0DC801BE010E94B30F8F5F9F4FBB
S284001B8011F481E006C0C95ADD4011F40E94AA0D80E0DF91CF911F910F9108950F931F93CF93DF938C01EB010E94AA0DC801BE010E944F108F5F9F4F11F481E006C0C95ADD4011F40E94AA0D80E0DF91CF911F910F910895A8E0B0E0E0EFFDE00C94A1C87B01082F10E0B801660F771F660F771F6555784FCE01019644E050E00E9445C989
S284001C0089819A81F701938382832B813C81318320838091000290E001970817190739F48091010290910202821B930B14C0000F111F000F111F0155184FCE010596B80144E050E00E9445C98F8198852B813C81821B930BF701958384832896E6E00C94BDC8A6E0B0E0E7E3FEE00C94A1C80091000210E07E010894E11CF11C0CC0812FBA
S284001C80B7010E94EA0DC70169EA7DE00E94B20D882321F41F5F101790F380E02696E6E00C94BDC8A4E0B0E0E8E5FEE00C94A5C89093561380935513662359F484E2BE016F5F7F4F0E94680B89819A81AB81BC8104C082E390E0A0E0B0E08093501390935113A0935213B093531381E0809354138AE493E10E94430F2496E2E00C94C1C87C
S284001D0086E89EE060E00E94520E0895ADE0B0E0ECE8FEE00C9499C881E080936B037090000252E0852E912C8C0E9D1E46E0642E38E0E32EF12CEC0EFD1E5E010894A11CB11C21E0C22ED12C33C0B4010E94EA0DF701862D11928A95E9F7BB86AA86DD86CC8600E010E01EC08A819B81800F911F99878887C70169EA7DE00E94B20DAA8563
S284001D80BB85EC81FD81E00FF11F9C918081981739F0CE01029666E87EE00E94CE0D23C00F5F1F4F8E819F8108171907E8F215C080916C03871548F210926C030E94BA0C813031F486E89EE061E00E94520E0BC00E94800E10926B0306C080916C038F5F80936C03E5CF2D96EEE00C94B5C88F929F92AF92BF92CF92DF92EF92FF920F93E1
S284001E000E94D5114B015C012091700330E040E050E060E070E080E090E000E20E94FF09282939294A295B290F91FF90EF90DF90CF90BF90AF909F908F900895CF93DF93EC010097D1F080916D0390916E038C179D0719F460E070E008C08DE693E0BE010E943511BC01009741F08DE693E0AE010E94171120E030E002C02FEF3FEFC901EC
S284001E80DF91CF910895CF93DF93EC01009771F0E0916D03F0916E0306C0EC17FD07D9F00190F081E02D3097C1F706C02FEF3FEFC901DF91CF9108950E94B1139B01AC01198218826A837B838C839D838DE693E0BE010E94C81020E030E0EACFEF92FF920F931F93CF93DF9318C08DE693E060E070E0AE010E9417118A85882359F4EA821D
S284001F00FB820C831D838DE693E0BE01A80197010E94C810EB85FC85099580916D0390916E03892BD9F00E94B1137B018C01C0916D03D0916E038A819B81AC81BD81A8019701281B390B4A0B5B0B8E819F81A885B985281739074A075B0738F6CDB7DEB7E6E00C94BDC8FC0180916F03882319F02EEF3FEF58C0309709F453C08481958193
S284001F8020813181820F931F8150904108F049C081E080936F0370935E1360935D13A7E5B3E186E001900D928150E1F7F999FECF20E030E017C0E0915913F0915A13E20FF31F809157139091581301969093581380935713019792BD81BDF89A80B580832F5F3F4F80915B1390915C132817390710F310925C1310925B1380918603806192
S284002000809386032FB7F8948091BA039091BB0382609093BB038093BA032FBF20E030E002C02FEF3FEFC901089590E080916F03813009F491E0892F089580915B1390915C13892B51F410926F03E0915D13F0915E13309719F10995089560915713709158136F5F7F4F709358136093571361507040E0915913F0915A134191F0935A131C
S284002080E09359138CE00E94E21380915B1390915C13019790935C1380935B130895CF93DF93FC0180916F03882319F02EEF3FEF6BC0309709F466C08481958120813181820F931F8150904108F05CC081E080936F03A7E5B3E186E001900D928150E1F770935E1360935D13672B19F4C0E0D0E03BC060915713709158136F5F7F4F709367
S28400210058136093571361507040E0915913F0915A134191F0935A13E09359138CE00E94E21380915B1390915C13019790935C1380935B1324C060915713709158136F5F7F4F709358136093571361507040E0915913F0915A134191F0935A13E093591384E00E94E213219680915B1390915C13C817D90700F3F999FECF10926F0320E043
S28400218030E002C02FEF3FEFC901DF91CF910895A0E0B0E0EEECF0E10C949DC88C01EB0169017A01FC01608171816115710589F1FB01AA24BB24268137814085518582819381A481B581280F391F4A1F5B1F2C193D094E095F092F3F8FEF38078FEF48078FE7580748F48E819F81A885B985281739074A075B0738F4808191815F01009755
S28400220061F0FC01D8CFE617F70731F4F983E883F801D183C08306C0CF01F501D183C08399838883CDB7DEB7EAE00C94B9C8CF93DF93EC01DB01FA01888199814817590739F48081918111821082888399830AC08081918111969C938E93118210828C9111969C91DF91CF910895FC010190F081E02D06C0808191818617970719F0FC01FC
S2840022803097C1F7CF0108958FB7F8941092780310927703109276038FBF0895809170008C7F809370008091B60080628093B6001092B2001092B0001092B1001092B3008091B60090E08F719070892BC9F783E087BB87E08093B1008091700081608093700008958091B60090E08F719070892BC9F7809170008C7F809370008091B10094
S284002300887F8093B10083B5826083BD8091B60090E08F719070892BC9F78091B6008F7D8093B6000895EF92FF920F931F937B018C016091B200862F90E0809590959C01442737FD4095542F3070407050702E153F054007510798F4D801C701821B930BA40BB50B9C01AD01BB27A52F942F832F90937703809376032093780311C080918E
S284002380B60090E08F719070892BC9F76E0D6093B30082E087BB809170008260809370001F910F91FF90EF900895EF92FF920F931F936FB7F894709171032091B20084E48093B4008091B60090E08F719070892BC9F7B89904C030E040E050E00AC08091B200282F30E040E050E021503F4F4F4F5F4F6FBF8FEF789FC0011124AA2797FDAC
S284002400A095BA2F820F931FA41FB51F9C01AD0175E0220F331F441F551F7A95D1F77C018D0162E016950795F794E7946A95D1F72E0D3F1D401F511FE0907203F090730300917403109175032E0D3F1D401F511F281B390B4A0B5B0BB901CA011F910F91FF90EF90089560E270E080E090E008952FB7F89460917103109271032FBF70E079
S28400248080E090E020E43FE140E050E00E9440C820917203309173034091740350917503260F371F481F591F20937203309373034093740350937503261737074807590728F4809170038F5F8093700308951F920F920FB60F920BB60F9211242F933F934F935F936F937F938F939F93AF93BF93EF93FF93809170008D7F80937000109227
S28400250078038091AF0380FF03C080E00E94B4148091AF0382FF11C0809183038160809383032FB7F8948091BA039091BB0382609093BB038093BA032FBFFF91EF91BF91AF919F918F917F916F915F914F913F912F910F900BBE0F900FBE0F901F9018958091AF0380FF0FC081E00E94B414809170008D7F809370000E9444118091AF0371
S2840025808B7F8093AF0308951F920F920FB60F920BB60F9211242F933F934F935F936F937F938F939F93AF93BF93EF93FF938091760390917703892BA1F5809178038823E9F48091AF0380FF03C080E00E94B4148091AF0382FF34C0809183038160809383032FB7F8948091BA039091BB0382609093BB038093BA032FBF22C08091B600BF
S28400260090E08F719070892BC9F7809178038093B30082E087BB8091700082608093700009C08091760390917703019790937703809376038091AF0380FF02C00E944014809171038F5F80937103809183038260809383032FB7F8948091BA039091BB0382609093BB038093BA032FBFFF91EF91BF91AF919F918F917F916F915F914F9170
S2840026803F912F910F900BBE0F900FBE0F901F90189580E197E29093A9008093A800E1EAF0E088E08083808182608083E2E7F0E0808182608083089520917B0330917C0340917D0350917E03260F371F481F591F20937B0330937C0340937D0350937E03809187038068809387032FB7F8948091BA039091BB0382609093BB038093BA0385
S2840027002FBF08952FB7F89460917A0310927A032FBF70E080E090E02AE030E040E050E00E9440C820917B0330917C0340917D0350917E03260F371F481F591F20937B0330937C0340937D0350937E03261737074807590728F4809179038F5F8093790308950E94821360917B0370917C0380917D0390917E0308951F920F920FB60F9257
S28400278011242F938F939F9380917A038F5F80937A03809187038068809387032FB7F8948091BA039091BB0382609093BB038093BA032FBF9F918F912F910F900FBE0F901F901895982FF999FECF07B600FCFDCF72BD61BD40BD8FB7F8949FBBF99A8FBF08951F920F920FB60F9211242F938F939F93FB98809186038061809386032FB714
S284002800F8948091BA039091BB0382609093BB038093BA032FBF9F918F912F910F900FBE0F901F9018950E94D51120917F03309180034091810350918203621B730B840B950B10927F031092800310928103109282030E945C138091A10082608093A1000E94F2150E9483208091AF0381FD07C0E091A003F091A103309709F00995089525
S2840028800E94991C882309F44EC08091AF0382FD03C02FEF3FEF66C024982C988091B60090E08F719070892BC9F78091700081FD0AC08FEF8093B3008091B60090E08F719070892BC9F78091B000806C8093B0008091B60090E08F719070892BC9F78091B10080688093B1008091B60090E08F719070892BC9F78091B0008F738093B000B2
S2840029008091B60090E08F719070892BC9F78091B00080688093B0008091B60090E08F719070892BC9F78091AF0381608093AF038091B60090E08F719070892BC9F7809188038068809388032FB7F8948091BA039091BB0382609093BB038093BA032FBF20E030E0C90108959091AF038170880F9C7F982B9093AF030E94991C882311F42E
S2840029802C980EC024982C988091B0008F738093B0008091B60090E08F719070892BC9F7249A809187038460809387032FB7F8948091BA039091BB0382609093BB038093BA032FBF08958091AF0380FF5EC08091A1008D7F8093A10080917F0390918003A0918103B09182030097A105B10551F40E94D51160937F037093800380938103A2
S284002A00909382030E947F2080918D038111EC9AF999FECF0E94991C8823B1F42C9A249A8091AF0382FF05C087E083BF889513BE22C00E94721185E083BF889513BE0E944E110E94BB1517C0909172002091BC0030917A00109272001092BC0010927A00249A87E083BF889513BE909372002093BC0030937A0084E48093B4008091B6004A
S284002A8090E08F719070892BC9F70895A0E0B0E0ECE4F5E10C9499C800E8C2E8DBE810E092E8C92E9BE8D92EE12CF12C82E8A82E8BE8B82E0E946309BC018BE86338780718F19E0140E050E0CB01A0E0B0E082589B48A040B040281739074A075B074CF4123039F480916600815080936600000036C0809166008150809366000000EB0198
S284002B00C258DB4811E028C08BE86238780739F1CE01A0E0B0E09B0140E050E036014701621A730A840A950A86159705A805B9054CF4113039F4809166008F5F8093660000000DC0809166008F5F809366000000E501C61BD70B12E0015009F0ABCFCDB7DEB7EEE00C94B5C80E94991C882311F40E9446150895CF93DF93C0E0D0E088EC9F
S284002B800E945B09219683E1C838D807C1F70E94B415DF91CF91089581E08CBB0895E89A08958DB3E898817008952C9A08952C9808952D9A08952D9808952C98249A2D9A259A509858980895E9E6F0E0808183608083089584E008950895089508950E94832008951F9310E00E94F31F81E80E94DC1F812F0E94DC1F182F0E94F11F1830C0
S284002C0099F71F9108950E945B0908958091830380FF0BC09FB7F894809183038E7F809383039FBF0E94F51F77C08091830381FF0BC09FB7F894809183038D7F809383039FBF0E94381268C08091850387FF0BC09FB7F894809185038F77809385039FBF0E94701A59C08091860383FF0BC09FB7F89480918603877F809386039FBF0E9464
S284002C80F81B4AC08091860384FF0BC09FB7F894809186038F7E809386039FBF0E941D103BC08091870382FF0BC09FB7F894809187038B7F809387039FBF0E9413142CC08091870385FF0BC09FB7F894809187038F7D809387039FBF0E94DC1B1DC08091870387FF0BC09FB7F894809187038F77809387039FBF0E946E0F0EC08091880388
S284002D0087FF0AC09FB7F894809188038F77809388039FBF0E94E314809183038823A1F480918403882381F480918503882361F480918603882341F480918703882321F480918803882361F02FB7F8948091BA039091BB0382609093BB038093BA032FBF08959091900321E030E002C0220F331F8A95E2F7922B909390038091850380681D
S284002D80809385032FB7F8948091BA039091BB0382609093BB038093BA032FBF0895CF93DF93E82FF0E0CF01805C9040A3E095958795AA95E1F7482F50E0EA01CC0FDD1FC757DC4FA881B981109721F481818F7781836CC090968C91909783FD67C05496ED91FC91559784FF09C06083E881F981848995890196958B848B58C0EF2B09F4B2
S284002E0055C01696CD91DC91179716968D919C911797019617969C938E93169716962D913C91179756968D919C9157972817390721F417961C921E92169716962D913C91179714968D919C9115972817390729F41796DC93CE93169729C05496ED91FC915597EC0FFD1F608318968D919C911997019619969C938E931897440F551F475774
S284002E805C4FEA01E881F98180A180FF0FC08385883C61F418962D913C91199786899789969587958217930708F45D9ADF91CF910895E82FF0E0E05CF04083E0F595E7958A95E1F7F0E0EE0FFF1FE757FC4F0190F081E02D3097C1F04FB7F89422813381808191814FBF2817390711F481E08287828D938D892B11F4118E108E068CF78DF1
S284002F00E02D309709F009950895E82FF0E0E05CF04023E0F595E7952A95E1F7F0E0EE0FFF1FE757FC4F0190F081E02D309791F080A1887179F48FB7F894208531858FBF2115310539F0048CF58DE02D309711F0C9010995089590938F0380938E0381E080938D03089510928D030895803C21F0883C11F080E0089581E008951F93CF9399
S284002F80DF93EC01009751F11B85812F0E94B617882321F1E12FF0E0E05CF04043E0F595E7954A95E1F7F0E0EE0FFF1FE757FC4F80819181C817D90789F44FB7F8942A813B81888199814FBF2817390719F020E030E006C08A85282F30E002C02FEF3FEFC901DF91CF911F910895A0E0B0E0EBEFF7E10C949DC88C015B016A01009709F487
S2840030006DC0DC011B96FC908F2D0E94B617882309F464C0A114B10409F460C0C114D10409F45CC0EF2DF0E0E05CF040A3E0F595E795AA95E1F7F0E0EE0FFF1FE757FC4FC081D1810C171D0709F048C08FB7F894F80166817781248135818FBF40E050E01AC07501E40EF51ED8015496ED91FC915597E20FF31F8081F70180832F5F3F4FAF
S28400308056968D919C9157972817390711F420E030E04F5F5F4F2617370719F04C155D0500F38FB7F8943D832C8328853985241B350B39872887288539858FBF8B85883C59F488A180FF08C08E899F89969587958217930708F05D989A0102C02FEF3FEFC901CDB7DEB7EAE00C94B9C8A0E0B0E0ECE7F8E10C949BC8EC016B018A01009741
S28400310009F46FC0FB848F2D0E94B617882309F468C0C114D10409F464C00115110509F460C0EF2DF0E0E05CF04083E0F595E7958A95E1F7F0E0EE0FFF1FE757FC4F80809180C815D90509F04CC08A8D9B8D892B81F42A813B81888199812817390709F040C0D98EC88E1B830A8319821882B80130C08FB7F894AA80BB80E880F9808FBFFD
S284003180A50160E070E019C09A012F5F3F4F8A8D9B8D2817390711F420E030E02E153F0579F0E88DF98DE40FF51FD601A60FB71F8C9180836F5F7F4FA9016017710720F38FB7F894F401538342838FBFAE14BF0431F41A86EB85F0E08181806281839B0102C02FEF3FEFC901CDB7DEB7ECE00C94B7C8FC0183899385882349F4903C19F0FD
S284003200983C89F402C06A9A0895559A0895903C19F0983C41F404C06A987298729A089555985D985D9A08951F93CF93DF93FC010097B1F11385812F0E94B617882381F1812F90E0805C904033E0959587953A95E1F7C82FD0E0DE01AA0FBB1FA757BC4FED91FC9111973097D9F0E385F0E01182ED91FC9180A180FF02C055985D98848558
S284003280803429F481E0838BCF010E94F918CC0FDD1FC757DC4F1982188220E030E002C02FEF3FEFC901DF91CF911F91089580EC0E945917089580EC0E948517089588EC0E945917089588EC0E9485170895CF93DF93282FA82FB0E0CD01805C904033E0959587953A95E1F7C82FD0E0FE01EE0FFF1FE757FC4F608171816115710509F4C6
S28400330076C0283CD1F5FB0180A1282F81FD02C030E009C08CB190E0E4E096958795EA95E1F7382F317020FD02C080E008C089B190E054E0969587955A95E1F78170332311F48823D1F08AE090E0A0E0B0E08093970390939803A0939903B0939A0381E080939B038AEF99E190939D0380939C0381E993E00E94430F3AC02FB7F894FB01E2
S28400338082819381408151812FBF8417950749F1808D918D840F951FFC0190819A012F5F3F4F8C9180648C9316969C931697CC0FDD1FC757DC4FE881F981828D938D2817390711F420E030E011968C911197806211968C938FB7F894FB01318320838FBF06C011968C911197806411968C93DF91CF91089588EC0E946719089588EC0E9401
S2840034006719089580EC0E94671908951F93CF93DF93EC01009709F45CC01B85812F0E94B617882309F455C088A1282F30E0A9014170507080FF03C0183C09F04AC0812F90E0805C904073E0959587957A95E1F7E82FF0E0EE0FFF1FE757FC4F80819181892BB9F5D183C083183C81F421FF02C06C987498452B51F0559A54985C988C89E9
S2840034809D89892B11F45D9A01C05D988C85803419F4CE010E94F918198218821B821A828C899D89892B11F41F8A1E8A888D998D892B11F41B8E1A8E1D821C821F821E8281E08A87CE010E94C21C8B85282F30E002C02FEF3FEFC901DF91CF911F910895CF92DF92FF920F931F93DF93CF9300D00F92CDB7DEB781E08983FF2400E010E0CF
S284003500F2E0CF2ED12CCC0EDD1E9091900389818923B9F02FB7F8949091900389818927809390032FBF6F2D70E0660F771F6150784FC60142E050E00E9445C9EA81FB810995F3948981880F89830F5F1F4F06301105D9F60F900F900F90CF91DF911F910F91FF90DF90CF90089587E080939E0380E98093BC0080918703806280938703D2
S2840035802FB7F8948091BA039091BB0382609093BB038093BA032FBF089580919E03823041F080919E03833021F080919E03843021F480916313880F08C080919E03853051F480916313880F8F5F8093BB0085E88093BC0008950E94B51A08959091621380916113981790F480916213E0915F13F0916013E80FF11D90818F5F8093621379
S2840036009093BB0085E88093BC00089586E080939E0384E98093BC00809187038062809387032FB7F8948091BA039091BB0382609093BB038093BA032FBF08958091641390916513A0916613B09167132091621321502093621320916213220F220F220F04C0B695A795979587952A95D2F78093BB0085E88093BC0080916213882359F440
S28400368080919E03823021F484E080939E03089585E080939E03089580919E03843019F40E94EE1A089580919E03823021F080919E03833019F40E941E1B089580919E03853021F485EA8093BC0008950E94B51A089580919E03853099F480916113813021F48091BC008F7B03C08091BC0080648093BC008091BC0085688093BC000895E4
S2840037000E94B51A0895982F80919E03853029F580916213E0915F13F0916013E80FF11D90838F5F80936213209162138091611330E090E001972817390724F48091BC00806403C08091BC008F7B8093BC008091BC0085688093BC0008950E94B51A0895982F80919E03853021F580916213E0915F13F0916013E80FF11D90838F5F80939D
S284003780621386E080939E0384E98093BC00809187038062809387032FB7F8948091BA039091BB0382609093BB038093BA032FBF08950E94B51A0895E0916813F0916913309791F080919E03863041F48091BC0084FDFCCF81E080939E0304C081E080939E0380E00995089581E080939E03089580919F03813051F482E080939F03E09141
S2840038006A13F0916B13309709F00995089580919F03882319F42FEF3FEF06C010929F030E94E41E20E030E0C9010895982F80919F03823079F4892F8450843058F0903148F481E080939F03892F0E94501F20E030E002C02FEF3FEFC9010895CF93DF93EC0180919F03882319F5209709F18B819C81892BE9F028812230D0F48A8190E0A0
S2840038808F739070892BA1F4213019F48981833078F082E080939F03CE010E949D1F8F81988590936B1380936A1320E030E002C02FEF3FEFC901DF91CF910895ADE0B0E0E4E6FCE10C94A5C8FC01009719F42FEF3FEF2AC0848195819093A1038093A00380819181A281B3818F839887A987BA8781E08B871D861C86CE0101960E941E20B4
S2840039002FEF8F3F920771F08D5F9F4F59F00E9440148F5F9F4F19F020E030E005C02DEF3FEF02C02EEF3FEFC9012D96E2E00C94C1C88091B0030895F999FECF9FB7F894E0E0F0E089E08093570084919FBF8F70823019F41092B00303C081E08093B0038091B003882369F48FB7F8945F9350E85093610050E0509361005F918FBF0E94E5
S284003980BB150895DC011B96EC911B97F0E011821B96EC911B97F0E01D968D919C911E97958384831C968C911C971B96EC911B97882349F4F0E082E080831B96EC911B97F0E012820AC0F0E010821B96EC911B97F0E052968C91529782831B96EC911B97F0E082811C969C911C97892B82831B96EC911B97F0E082811F969C911F97892B24
S284003A0082831B96EC911B97F0E0828150969C915097892B82831B96EC911B97F0E0828151969C915197892B82831B96EC911B97F0E08081806880831B96EC911B97F0E08181886181831B96EC91F0E081818068818308951F920F920FB60F920BB60F9211242F933F934F935F936F937F938F939F93AF93BF93EF93FF930E94B01280916E
S284003A808D038111EC98E0918E03F0918F03309709F00995FF91EF91BF91AF919F918F917F916F915F914F913F912F910F900BBE0F900FBE0F901F9018951F920F920FB60F920BB60F9211242F933F934F935F936F937F938F939F93AF93BF93EF93FF938091C8006091CE008C7131F488EC0E94CF1685E00E94B116FF91EF91BF91AF918F
S284003B009F918F917F916F915F914F913F912F910F900BBE0F900FBE0F901F9018951F920F920FB60F920BB60F9211242F933F934F935F936F937F938F939F93AF93BF93EF93FF93E9ECF0E080818F7B808384E00E94B116FF91EF91BF91AF919F918F917F916F915F914F913F912F910F900BBE0F900FBE0F901F9018951F920F920FB624
S284003B800F920BB60F9211242F933F934F935F936F937F938F939F93AF93BF93EF93FF93E9ECF0E080818F7D808383E00E94B116FF91EF91BF91AF919F918F917F916F915F914F913F912F910F900BBE0F900FBE0F901F9018951F920F920FB60F920BB60F9211242F933F934F935F936F937F938F939F93AF93BF93EF93FF938091C000C8
S284003C006091C6008C7131F480EC0E94CF1682E00E94B116FF91EF91BF91AF919F918F917F916F915F914F913F912F910F900BBE0F900FBE0F901F9018951F920F920FB60F920BB60F9211242F933F934F935F936F937F938F939F93AF93BF93EF93FF93E1ECF0E080818F7B808381E00E94B116FF91EF91BF91AF919F918F917F916F913D
S284003C805F914F913F912F910F900BBE0F900FBE0F901F9018951F920F920FB60F920BB60F9211242F933F934F935F936F937F938F939F93AF93BF93EF93FF93E1ECF0E080818F7D808380E00E94B116FF91EF91BF91AF919F918F917F916F915F914F913F912F910F900BBE0F900FBE0F901F9018951F920F920FB60F920BB60F921124D5
S284003D002F933F934F935F936F937F938F939F93AF93BF93EF93FF938091B90090E0887F90708832910559F1893291058CF48031910511F1813191052CF4009719F1089781F51AC088319105D1F0809751F51AC088349105B9F0893491053CF48033910589F080349105E9F410C08035910581F088359105B1F411C00E94CD1A12C00E94D9
S284003D804C1B0FC00E94B51A0CC00E94691B09C08091BB000E94831B04C08091BB000E94B01BFF91EF91BF91AF919F918F917F916F915F914F913F912F910F900BBE0F900FBE0F901F90189510927C0010927A0010927E0008951F920F920FB60F920BB60F9211242F933F934F935F938F939F93EF93FF938091B103E091B203F091B303EC
S284003E00882351F48091B4039091B50320917900E80FF91F20830FC08091B4039091B50340917800509179009C01220F331FE20FF31F5183408301969093B5038093B4032091B4033091B5038091B6039091B70328173907B1F480917A00877F80937A00809186038860809386032FB7F8948091BA039091BB0382609093BB038093BA032F
S284003E802FBFFF91EF919F918F915F914F913F912F910F900BBE0F900FBE0F901F901895282F1092B5031092B403843048F481E090E0022E02C0880F991F0A94E2F717C0883011F08A3011F481E011C0893011F08B3011F483E00BC08C3011F08E3011F484E005C08D3011F08F3019F48CE080937E0080917C0090917C00907E90937C008D
S284003F0090917C00922B90937C008F71821729F0243018F08DE70E945B098091B6039091B703029720F080917A00886603C080917A00886480937A000895A1E0B0E0E3EAFFE10C94A5C8FC01858196819093B7038093B60380818093B103838194819093B3038093B203828180937C008091B103882329F480917C00806280937C00618181
S284003F8070E0655F774FCE01019641E050E00E9445C98981806880937A002196E2E00C94C1C8289A23982B98229A219A209A80E58CBD81E08DBD08958EBD000000000000000000000000000000000000000000000000000000000000000000008DB58EB50895289A0895289808959091AF0392FF24C08091AC038823B1F4E091AD03F091D0
S284004000AE03309709F009958091AF0382FF15C06091A8037091A9038091AA039091AB030E94931108959B7F9093AF03E091AD03F091AE03309709F009950895CF93DF93EC01009719F42FEF3FEF2EC00E9433122E813F81488559850E9440C828EE33E040E050E00E9473C8B901CA01611571058105910519F42EEF3FEF16C02091AF035F
S28400408022FF03C02DEF3FEF0FC024602093AF03A2EAB3E0FE012DE001900D922150E1F70E94931120E030E0C901DF91CF9108950F931F93182F0E94D115082F8091B803813019F48093B90302C0882311F011E00EC084E00E94457D103819F4682F606802C0682F6F7784E00E94577D10E0002311F00E94CF15812F1F910F91089580E098
S2840041000E945820089580E80E9458200895E0E0F0E021E030E0B9010E2E02C0660F771F0A94E2F78091BA039091BB0386239723892BC9F04FB7F8942091BA033091BB03CB0180959095822393239093BB038093BA034FBFEE0FFF1FED5FFD4F0190F081E02D099504C03196EB30F105A1F68091BA039091BB0320E0892B09F021E0822FCE
S28400418008950E94872008950E9442C30E94937C2FB7F8948091BA039091BB0380619093BB038093BA032FBF089521E030E002C0220F331F8A95E2F78091190290911A02822B932B90931A02809319022FB7F8948091BA039091BB0380619093BB038093BA032FBF089521E030E002C0220F331F8A95E2F7209530958091190290911A02A7
S2840042008223932390931A028093190208952091190230911A0221153105A9F1E0E0F0E061E070E0AB010E2E02C0440F551F0A94E2F7CA0182239323892B09F12427352730931A0220931902EE0FFF1FE55EFD4F0190F081E02D09958091190290911A02892B89F02FB7F8948091BA039091BB0380619093BB038093BA032FBF0895319604
S284004280E630F10579F6089580930018882319F481E00E94D52008958093DF17882361F48091661790916717892B19F082E00E94D52081E00E94D52008959093DE178093DD1781E00E94D5200895CF93DF938091DF17823041F483E00E944C2180EE97E10E947028B7C0882309F0B4C0809100188130F9F40E944C2180E2E0EEF7E1DF0153
S2840043001D928A95E9F780911F18909120189F778F31910518F40E94678305C0C097099710F40E94BC888091DF17823009F092C08EC08091DD179091DE17892B09F48AC081E00E944C2180E2E0EEF7E1DF011D928A95E9F78DE292E29093FA178093F917E091DD17F091DE17C681D781DF7782E00E944C21E091DD17F091DE17EC57FF4FEA
S2840043801082CF31D10518F40E94BE8205C0E097299710F40E945E8BE091DD17F091DE17868197819093F1178093F0178331910551F08833910539F0B0E888339B0719F08052904831F4E091DD17F091DE1783E001C082E084838091F3179091F417009771F4E091DD17F091DE1787E084831092DE171092DD1780E00E944C2128C00196B7
S2840044009093F4178093F317E091DD17F091DE178681978197FF06C0F196F093F617E093F51715C08091DC1781AB8F5F8093DC17E091DD17F091DE1781A985838091DD179091DE17C1969093F6178093F51781E00E94D520DF91CF910895DC01E091DD17F091DE1722A933A944A955A9EC57FF4F8C918083E091DD17F091DE178481833046
S28400448049F0863001F1823029F58C91882301F584E01FC08C918823D9F486819781C897B9F481859285885F9F4F90F086A98E3F79F4CA01B9010E94CF87E091DD17F091DE1788E006C08C91882311F485E001C087E084831092DE171092DD1780E00E944C2108950F931F93CF93DF93EC018E8D9F8D97FF71C08853904809F46DC0A09119
S2840045006617B091671764C0EAA1FBA1908115968C911597981709F056C014968C911497823039F416968D919C911797069769F477C0843009F047C016968D919C911797069709F46BC087E001C083E014968C9314978E85823059F4A658BF4F1D928F85988911969C938E93AB57B0401BC08330C9F4A658BF4F81E08C93AA57B040FD0177
S284004580E558FF4F898980838A8981838B8982838C8983838D8984838E8985838F898683888D8783FD01ED57FF4F87E4DF011D928A95E9F76AA17BA148A159A1CF010E9493C982E028C08C9111969C919C01D901109709F099CF26C080910018882311F50EE218E16AA17BA148A159A1C8010E9493C9D8019D97FE018DE201900D9281503E
S284004600E1F78EE298E1909324188093231881E00E94442181E00E94D52004C085E096CF86E094CFDF91CF911F910F91089581E00E94F3201092DE171092DD171092DF178DE2E1E0F8E1DF011D928A95E9F7EEE2F8E18FE5DF011D928A95E9F7F0932418E0932318109200180895FC0187E076956795579547958A95D1F753834283089520
S2840046800F931F93CF93DF93C0916617D091671707E01DE021C02C818A819B81009791F42430B1F48E819F81FE01EC57FF4F069711F4108302C082E080830C8382E00E94D52006C02250233018F401979B838A83888199819C01E9012097E9F6DF91CF911F910F910895EF92FF920F931F93CF93DF93C0916617D091671722E0E22E94E0CB
S284004700F92E17E001E07DC08C81873028F4853050F5882339F071C08730B9F1883009F06CC01CC080918D1890918E1892FF0CC08091DD179091DE17892B09F05EC00C83CE010E945D2159C01C83CC57DF4F1883C458D04082E00E94D5204FC0D0937116C09370164AC0853011F4FC8201C0EC82C858DF4FE881F981C857D0403097E9F1B4
S284004780CE0186589F4F099538C086E697E1BE010E9474808E819F810197C9F4CC57DF4F8881C458D040882391F4DE01A357BF4FFE01EB57FF4F008111812281338144815581668177818D919C910E94385EC858DF4FE881F981C857D040309721F0CE0186589F4F09958091661790916717892B59F082E00E94D52007C0888199819C0118
S284004800E901209709F080CFCDB7DEB7E6E00C94BDC8EF92FF920F931F93CF93DF93EC0140914E1250914F124115510569F40E94CC467B018C010E94704CAB01BC014E0D5F1D601F711F02C060E070E0CE010E9435231C8286E697E1BE010E944C8082E00E94D520CDB7DEB7E6E00C94BDC80F931F9382E00E94F3201092671710926617C8
S2840048800E9417230E94CB8708E617E1C8010E941E0F1092721780E493E2909374178093731780E890E0A0E0B0E080936E1790936F17A0937017B0937117C8010E94430F1F910F910895FC01DA010097D9F0638F4115510551F08D919D910D90BC91A02D848F958FA68FB78F04C0148E158E168E178E218D328D2115310521F0CF014B9605
S284004900F901099508952091741330917513FC01EC5BFF4F80819181821B930B63E270E00E945FC883E2689FB0011124620F731FCB010895FC01009729F48091C9039091CA0308958081918108950F931F93182F062FA0E0B0E010C01F3F21F412960C9312970AC01396ED91FC9114978081181719F412960C9306C0CD010E949A24DC0126
S284004980009751F71F910F91089560E00E94A524089561E00E94A52408951F93182FA0E0B0E007C01396ED91FC9114978081181731F0CD010E949A24DC01009799F7CD011F910895FF920F931F93082FA0916C13409171135091721390E060E070E081C0FA01E60FF71F9B01285A3F4F878180FD76C0EC5BFF4F11821082E454F0400230FF
S284004A00F1F0023018F0033009F06EC09091701380916E13981708F067C09F5F909370131382148215821682E0917113F0917213E60FF71F80858F70808712823BC090916F1380916D13981708F04EC0F0907313E0917413F091751310E040E050E024C0DF018081B3969A012D5D3F4F8823D1F49F5F90936F1321E02C93E0917113F091E0
S284004A807213E60FF71FEC5BFF4F8091741390917513840F951F489691838083E454F040228304C01F5FA9011F15D0F2809173138117D1F0E0917113F0917213E60FF71F8085807F8087000F01600783118210822091711330917213260F371F07C09F5FB9019A1708F47CCF20E030E0C9011F910F91FF900895CF93DF9320917113309163
S284004B007213821B930B68E570E00E945FC888E5689FE0011124F901EC0FFD1F8781869590E08230910569F08330910514F0039731F580917013882311F18150809370131EC080916F13882319F0815080936F132091741330917513EC5BFF4F80819181821B930B63E270E00E945FC883E2689FF0011124E20FF31F808181111082E0910E
S284004B807113F0917213EC0FFD1F87818E7F8783DF91CF910895CF93DF93EC01E881F981442371F4CD5ADF4F88819981AA81BB81C355D040848F958FA68FB78F638F03C04250423050F488819981638D7C96AF010E946324CE010E947B25DF91CF91089520917313E0917413F091751390E005C08081B3968823A9F49F5F9217C8F32091CF
S284004C006C13E0917113F091721390E006C08781E85AFF4F80FD05C09F5F9217C0F380E0089581E0089521E030E002C0220F331F8A95E2F78091ED03822B8093ED032FB7F8948091BA039091BB0380629093BB038093BA032FBF0895A2E0B0E0E2E3F6E20C94A5C84091EE032091ED03522F642F30E06F5F683008F060E0C901062E02C073
S284004C80969587950A94E2F780FF1CC06093EE0381E090E0062E02C0880F991F0A94E2F758275093ED0370E0660F771F605F774FCE01019642E050E00E9445C9E981FA81099504C04617A9F64093EE038091ED03882361F02FB7F8948091BA039091BB0380629093BB038093BA032FBF2296E2E00C94C1C8FF920F931F938C01F62E85EC3D
S284004D0093E00E946480D8011796FC9217971596ED91FC911697C801079609958091C5039091C603892B19F080E00E9413261F910F91FF9008950F931F930E942DC98C0194E0000F111F9A95E1F700700E942DC9282F30E0202B312BC9011F910F910895ADE2B0E0E6EBF6E20C949DC87C01A62EDC011A960D911C911B9715966D917C9177
S284004D8016978BEC93E0F80147810E940A81882309F4C6C0D80111969C91892F81508E3F18F0CC24DD2404C0892F0E94CD246C01F801818181508E3F20F4C114D10409F4AFC022E0B22EBB82D70113968D919C9114979D838C83F80181818E8715968D919C9116970E947E5D9C01009759F083E08F87DE015296F90188E001900D928150AB
S284004E00E1F701C0BF86D70115968D919C911697998B888B17968D919C9118979B8F8A8FF80186818C8F848195819E8F8D8F8281938198A38F8F19962C9130E02A5030403AA329A3265F3F4F1DA2808187FD07C0285030403AA329A3285F3F4F0BC0D80118968C91837031F4295030403AA329A3275F3F4F89A19AA1281B390BF7018285D9
S284004E809385820F931F9CA38BA3AEA282898FA3848588A786859785A089B18989A79AA7ABA7BCA785858DA7C114D10449F0D6011596ED91FC911697CE010196099530C0F80181818F3F41F500E010E06E010894C11CD11C1AC0D8011396ED91FC9114978081882391F012968C911297882369F4218132818D8D9E8D2817390731F41596DF
S284004F00ED91FC911697C6010995C8010E949A248C01009701F704C0CE0101960E947222F701158A0388F489E02DC70145960995AD96EAE00C94B9C8CF93DF93EC01DB01A45BBF4F8CE098E211969C938E931C9782E08D932B813C8111963C932E931796888D8D931D9281E08D938C9318978B89885F8D93ED89FE8938971196FC93EE9375
S284004F80A454B0409081892F8C7E8083907E275F3F4F08F0986090832081922F9F7D90838F8982FD03C02F79208313C09064908318968C911897807F816018968C9318979091E4039295907F8F70892B18968C93189780818F7780838D85818388899989938382838E859F85958384838A8986838091D5038F5F8093D503815087838091E8
S284005000C2038F5F8093C203CD0109960E94FA5780E0DF91CF910895BC018091C20381508093C2038EEB93E00E944C8081E00E94132608950F931F93BC010091C5031091C60385EC93E00E944C80012B19F480E00E9413261F910F910895FC0185EC8283CF010E941A280895FC018AE88283CF010E941A280895FC0189E18283CF010E9416
S2840050801A280895CF93DF93EC010097E9F086EA8F83EB81FC813097B9F09081892F8150803F90F4892F0E94CD24892B69F420E08D819E81892B09F421E02A8389EC93E0BE010E944C801F82DF91CF910895BC0180EC93E00E944C8081E00E9413260895BC0183EC93E00E944C8081E00E941326089587E363E773E10E94680B87E464E73C
S28400510073E10E94410B20E043E250E012C0822F90E0BC01649FC001659F900D749F900D1124E0917413F0917513E80FF91F10822F5F80917313281750F386E36CE673E10E94680B86E461E773E10E94410B20916C13E0917113F091721390E006C087818E7F87839F5FE85AFF4F9217C0F38091731380936D13223008F0215020936E13B5
S28400518010926F13109270130895FF920F931F9301E010E038E5F32E34C01F9DC0011124E0917113F0917213E80FF91F978190FF27C080858F70823019F5892F8E7F823011F08630E9F483819481A581B6818A309105A105B10548F00A97A109B10983839483A583B68300E00BC08085807F84608087138214821582168281E00E941326B6
S2840052001F5F80916C13181740F2002321F086ED93E00E948B811F910F91FF90089580E191E09093BD038093BC031092C6031092C5031092ED031092EE031092CA031092C9030E9479280E949A580895A8E0B0E0ECE2F9E20C94A1C8F0907B128DE2BE016F5F7F4F0E94680B8E010B5F1F4F87E1B8010E94680B2D813E814F8158858F2D7B
S28400528090E0A0E0B0E082179307A407B50760F0220F331F441F551F2D833E834F83588787E1B8010E944E0B2F2D30E0295F3F4F442737FD4095542F2093E5033093E6034093E7035093E803E980FF2400E010E0C801B701660F771F881F991F6E0D711D811D911D0E9440C82D813E814F815885260F371F481F591F2093E9033093EA0343
S2840053004093EB035093EC0386ED93E060E02AE030E040E050E005EC18E20E94948188E3BE016E5F7F4F0E94680B81E4BE016D5F7F4F0E94410B7091E403E090E903F090EA030091EB031091EC0360E020E030E040E050E013C0D801C701062E04C0880F991FAA1FBB1F0A94D2F781509E4FAF4FBF4F280F391F4A1F5B1F6F5F671758F3E5
S284005380CA01B90124EF31E040E050E00E9473C8022F6B817C810E5F8BEC93E04A8124EF31E0EE24E3940E9494802896E6E00C94BDC8882359F00E949B268093D5031092C20381E264EE73E00E94680B1092C4031092C3031092C1031092C0031092BF031092BE031092C8031092C7030E9426290895A3E1B0E0EFEFF9E20C9495C820917F
S284005400BC033091BD033987288741E02031340709F41CC32053334009F007C117C32091711330917213C801821B930B68E570E00E945FC888E5689F60011124C20ED31EA885B985E6E0A031BE0719F0A050B540F1F4D60117968C918E7F843071F4C6010E948324FC016181D80112968C91882321F4828193810E94B026A8014B5F5F4F80
S284005480F6018081918163EA0E946324CBC0D60117968C91682E66947724B1E06B16710489F0E2E06E16710409F4B3C06114710409F0BBC0C601D80112966C9140E00E94CB25B3C0F60180858F70813009F0ADC0D8011996BC91BD8387E1BE016F5F7F4F0E94680B2090E5033090E6034090E7035090E80389809A80AB80BC80E091E40336
S284005500EE83D60118968C9182958F70F0E0E81BF109FF83EE83D80112966C91662309F03FC00E949B267C0100E010E02FEF31E040E050E0E222F32204231523A3010E8002C0440F551F0A94E2F75B874A873A015D81652F70E080E090E0A20191010E9440C8860E971EA81EB91EC301AA2797FDA095BA2F8A879B87AC87BD87BC01CD01A4
S284005580A50194010E9440C8E60EF71E081F191FD6011396ED92FD920D931C9316972CC06E3C11F0603F61F4A8014B5F5F4FF601808191810E946324C8010E947B2546C20E949B26917028EE33E00E8002C0220F331F0A94E2F7AC01420F531F5F874E87CA01A0E0B0E08E879F87A88BB98BF60183839483A583B683D60118968C911897A8
S284005600807F826018968C9386ED93E00E94B6810CC0C6010E948324FC018281938161810E94B026C8010E947B258EEB93E00E9464808C01009709F0F2CE08C280EC93E00E9464800F53144051F0D6011A96ED91FC911B9780818370813009F0EBC1F60162857385FB013081532F507436FF14C040916F1360906C1320917013842F90E075
S284005680820F911D7724861597050CF0D3C180916D13481708F0CEC1932F9C70943009F4C9C1552359F0832F8370823009F4C2C1983009F4BFC19C3009F4BCC135FDBAC1D60112968C91823009F0B4C18081E3E08E2E882299248114910431F0B2E08B16910409F0A7C13FC19C3009F4A3C18B01FB019181892F81508E3FA0F4892F0E9482
S284005700CD24DC01009771F01396ED91FC91149721813281F801848195812817390709F013C109C0D80111968C9181508E3F08F40BC1A0E0B0E0F801908197FF04C08085837009F001C196FD02C091E0FEC09C70983009F4F9C0F601A580B680F7EFAF16FFEFBF0608F0F0C0109729F012968C91882309F0E9C0D6011A960D911C911B979B
S284005780F801808186FF56C18370813019F077E0E72E02C0EE24E39430916C13A0917113B0917213AF5BBF4F20E04E2D50E0B801640F751F22C0A154B04017968C911797AF5BBF4F8530B1F48D919C911197A816B90681F413968D919C911497840F951F9B8B8A8BFB019081EA89FB898081981709F420C12F5FA85ABF4F2317E0F282E017
S2840058000E94E224DC01009709F414C1AC5BBF4F2D913C911197F90178978FEA8183D382C282149762E0B62EBD92F6018581968111969C938E9317961D921D923D923D9211965C924E92AC54B040F90180818C7F82608083F80190819C70837F892BF9018083F801908190718F7E892B982F9F79F9019083F801908190788F71892BF90169
S2840058808083F80180816E2D70E0AD014D5B5F4F84FF0CC0F60182859385860F971FFC018081F9018183FA01B08244C088E0FA018083F8018681F9018183F80182819381F90193838283F80184819581F90195838483F8018181F9018683F60182859385860F971FFC018081F9018783F801808187FF20C08085837039F4F9011086FA01B3
S28400590080818F5F808316C0FA0180818D5F8083F80180858370F90180872286F80180858370813019F4F901118604C0F8018185F90181878091C2038F5F8093C203CD0109960E94FA578CC090E0D60112968C91813009F46FC0992309F46CC0C6016FEA0E94B0267DC0AB01A0917113B091721380916C138F9DB00111246A0F7B1F56C0F3
S28400598017961C91179710FF4FC018968C9118978F70823009F048C0FD01EC5BFF4F0081E1808D919C911197F60125813681FC018381948128173907B9F5A02EBE2CFA019781F5018781981779F5FA0124813581F501848195812817390731F5FA0122813381F5018281938128173907E9F4FA019181F50186819817B9F4FA019681F50136
S284005A008181981789F41E7F123071F418968C911897807F836018968C931897CD0160E040E00E94CB2506C0A85ABF4FA617B70708F4A6CFD60155961C9255975396ED91FC915497C601459609950AC0332433945CE0452E58E2552E22242A9448E5F42EC090C003D090C1030091BC031091BD03C114D10409F0E2CD01FF0CC094C083EC6A
S284005A8093E0B8010E947480C80163EA40E050E00E9463240091C3031091C4030115110571F78BC0F8019789892F837F09F025C18281813009F421C193FD1FC1838994898036910518F030EAE32E51C0D80152968C91882329F00E94CD24892B09F416C1F8018789282F247082FF0DC08281823039F483819481885F9F4F08F007C103C0F2
S284005B00813009F403C1D80112969C911297892F8250823030F41D968C91815F8E3008F4F5C0992309F0E1C0222309F0EFC0E5C0C80105960E945577FC01009719F429EAE22E15C080819181F801948383839282D80157968C9182FF02C081E001C080E00E94E2246C01009709F0CAC026C0CC24DD24AA24BB2483EC93E0B8010E947480BC
S284005B80EE2051F4F60111830083C801B601F5010995E82E882349F0C8016E2D40E050E00E94632402C092E0992E0091C3031091C4030115110509F075CF8091BC039091BD03F5E080309F0751F126E08031920769F525C0109F60011124E0917113F0917213EC0DFD1D87818330B9F480858F70843011F0823089F48081918163EA40E05D
S284005C0050E00E94632480917113909172138C0D9D1D825B9F4F0E947B251F5F02C010E008E580916C131817A8F245C08F53944009F041C010E008E53AC0109FC0011124E0917113F0917213E80FF91F278120FF2DC09085892F8F70843041F5822F8E7F823011F0863011F5907FD9F09085892F8F708130D9F0907F9160905190878091BC
S284005C80C2038F5F8093C20387818E7F823071F4CF0109960E94FA5786ED93E00E94B68105C0CF0167EA40E00E94CB251F5F80916C13181710F28091BC039091BD0380509540B9F58091C203882399F522C080E00E94D92980E196E09093BD038093BC03C80160E00E947A2624C0923009F430CF923018F0933051F41BCF8AEAE82E37CF32
S284005D00EE24BCE9AB2EB7E2BB2E35CFA6EAEA2E2ECF0091C5031091C603D80113968D919C9114978D7F14969C938E931397892B71F26396E2E10C94B1C8A0E0B0E0E3EAFEE20C949EC86C01A7EFEA2EAFEFFA2EE80EF91E8091BC039091BD038050974009F05FC00AC083EC93E00E946480CE0163EA40E050E00E946324C091C303D0912C
S284005D80C403209781F72EC08EEB93E0BE010E9474802091711330917213CE01821B930B68E570E00E945FC86B9DF0011124E20FF31F208131818781082F069510E00115110521F00130110579F405C0C9016A812596AE0104C0C90167EA40E050E00E94632402C0F8E5BF2EC091BE03D091BF03209751F610E008E510C0E0917113F09131
S284005E007213109FC0011124E80FF91F878180FF03C0CF010E947B251F5F80916C13181760F31092ED031092EE0381E00E94D9290E947928D7011A968C9181FF03C08FE394E002C080E393E09093BD038093BC03F6018081D7011E968C9385EC93E00E946480D7011C96ED91FC911D97C7010E9609958091C5039091C603892B19F080E030
S284005E800E941326CDB7DEB7E9E00C94BAC8CF93DF93C091C503D091C6038A818A3819F1853C09F448C0893109F062C08091BC039091BD038051914019F480E092E002C080E097E09093BD038093BC038A858D838B858E838DE99EE298878F83CE0103960E94105245C08091BC039091BD0323E08033920719F08051964051F48FE394E002
S284005F009093BD038093BC030E9426291D8202C083EA8D8385EC93E00E946480EB81FC81CE01059609958091C5039091C603892BF9F080E016C08091BC039091BD038F53944091F480E095E09093BD038093BC0382E090E09C838B8386ED93E00E948B8181E00E94132604C0CE0163EA0E947A26DF91CF9108954FB7F8948091FD0390910F
S284005F80FE0392609093FE038093FD039FB7F8948091EF03882379F48FB7F8942091BA033091BB0321603093BB032093BA038FBF81E08093EF039FBF4FBF0895A2E0B0E0E4EEFFE20C94A3C81FB7F8941092EF03CE0101960E94099B882341F08091F203823021F41092F20351E001C050E0498121E030E0042E02C0220F331F0A94E2F7EA
S284006000209530958091FD039091FE03822393239093FE038093FD031FBF552309F0A7C081E08093F2034930C9F50091F0031091F10380EF93E00E946480F80182818230D1F0833030F4882351F0813009F04FC00CC08330B1F0843009F049C018C0C8010E943134982F83E017C0C8010E94C633982F84E011C0C8010E94FA32982F85E078
S2840060800BC0C8010E947398982F86E005C0C8010E948431982F88E0898327C04430C9F0453038F4413079F0413050F04330F9F40DC04630A1F0463078F04830C1F412C00E946D3211C00E941C320EC00E94FF330BC00E94AE3308C00E94E33205C00E945F9802C00E946B31982F992349F5CE0102960E94099B8823B9F49FB7F894809134
S284006100EF03882379F48FB7F8942091BA033091BB0321603093BB032093BA038FBF81E08093EF039FBF23C08091F0039091F103892B19F00E94BB2F1AC01092F20317C09130A9F44FB7F89421E030E0098002C0220F331F0A94E2F78091FD039091FE03822B932B9093FE038093FD034FBF2296E4E00C94BFC8A1E0B0E0E1ECF0E30C9423
S284006180A4C81092F1031092F0030E940F311FB7F894CE0101960E94099B882321F482E08093F20302C01092F2031092FE031092FD031FBF2196E3E00C94C0C8BC0180EF93E00E944C808091F203882311F40E94BB2F0895FC0184E082831582148282E08383CF010E94DE300895FC0183E08283CF010E94DE300895FC0182E08283CF0111
S2840062000E94DE300895FC0181E08283CF010E94DE300895FC0112820E94DE300895A9E0B0E0E5E1F1E30C94A3C80E94BF7C0E94EB310E9470980E9490320E94AB330E94E6330E9468318EE48983809167128A838E010F5F1F4FC8010E94FC7E80E5898380916A1290916B129B838A83C8010E94FC7E83E5898380916F12909170129B83B9
S2840062808A83C8010E94FC7E8FE48983809169128A83C8010E94FC7E89E58983809168128A83C8010E94FC7E8FE689830E946D95DE011296FC0188E001900D928150E1F7CE0101960E94FC7E2996E4E00C94BFC81092F30308951F93CF93DF93C091FF03D0910004CE010E947F7D182F882329F4E885F985CE01049609951093F303812F73
S284006300DF91CF911F9108951F93CF93DF93EC010E947F7D182F882319F0813059F406C0E885F985CE010496099504C0D0930004C093FF031093F303812FDF91CF911F91089520911E1930911F192F5F3F4FC90108954FB7F894E0911E19F0911F19808190E001968E0F9F1F90931F1980931E19108220911E1930911F1980912019909116
S284006380211928173907A1F480911C1990911D199093211980932019809118199091191990931D1980931C1990931F1980931E194FBF0895E0911E19F0911F1980911A1990911B19E817F90711F480E008958081811181E00895A2E0B0E0E1EFF1E30C94A5C88AE368E179E10E94410B87E2BE016F5F7F4F0E94680B8091181990911919C3
S28400640090931D1980931C1990931F1980931E19909321198093201929813A81820F931F909323198093221910921B1910921A192296E2E00C94C1C8A5E3B0E0E2E2F2E30C94A5C80E94DA31882309F43DC00E94A131BC01CE0101960E94D499882379F09A81892F877039F495FD05C096FD03C08B818C7071F1CE0101960E94F6360E94D7
S284006480A9310E94DA318823F9F08091FD039091FE0382609093FE038093FD039FB7F8948091EF03882379F48FB7F8942091BA033091BB0321603093BB032093BA038FBF81E08093EF039FBF80E0E596E2E00C94C1C880917C12898FCECF0E940C7E8091FD039091FE0382609093FE038093FD039FB7F8948091EF03882379F48FB7F8948F
S2840065002091BA033091BB0321603093BB032093BA038FBF81E08093EF039FBF80E008951092F4031092F5031092F6030895EF92FF921F93DF93CF93CDB7DEB729970FB6F894DEBF0FBECDBF7C018091F503813039F465E00E94A433182F882391F40FC080E065E00E94A433182F882351F416C08091F7030E94953365E00E94A43310921D
S284006580F503812F29960FB6F894DEBF0FBECDBFCF91DF911F91FF90EF900895F70183818983DE011296349688E001900D928150E1F7CE0101960E94FC7E182F8091F5038230F9F6D5CF1F93CF93DF93C091FF03D0910004CE010E949732182F882319F4EC85FD8509951093F403812FDF91CF911F910895EF92FF921F93DF93CF93CDB781
S284006600DEB729970FB6F894DEBF0FBECDBF7C01DC0113962C91213548F42E3408F06BC0222309F468C0822F82500DC02F3609F462C0203730F4233509F45DC0293509F55AC0822F805F8330E0F455C0F70194818091F6039817B9F09093F60380912D028093F703863179F481E009C0293559F080912D028093F703863119F482E0809382
S284006680F50390E001C091E08091F503882399F4992311F010E015C02983DE011296F701349688E001900D928150E1F7CE0101960E94FC7E03C0C7010E949732182F882339F4D7011C96ED91FC911D97099504C0F0920004E092FF031093F403812F29960FB6F894DEBF0FBECDBFCF91DF911F91FF90EF900895213F09F0B8CFA7CF88234A
S28400670019F0813019F404C089E1089583E0089586E10895882319F0813019F404C089E1089588E0089586E10895863149F0893119F0883019F406C080E0089588E0089581E0089582E00895609376130E947F330E94F07F08951092F80308951F93CF93DF93C091FF03D09100048B8164E00E94A433182F882319F4EC81FD810995109311
S284006780F803812FDF91CF911F9108951F93CF93DF93EC0110912D028B810E948A33181731F08B8164E00E94A433882329F4EC81FD81099580E004C0D0930004C093FF038093F803DF91CF911F9108951092F9031092FA030895CF93DF93EC0180E063E00E94A433882341F41092FA03CE0103960E94AF980E944180DF91CF910895CF93F0
S284006800DF93C091FF03D09100048091FA03813029F4CE010E94EB338823F1F480917713833061F0843028F4813061F0823041F40BC0853049F0873019F406C081E005C083E003C080E001C082E08BAFE9ADFAADCE01CB96099580E08093F903DF91CF910895CF93DF93EC0188AD0E947F338093D714D0930004C093FF0380912D02893165
S28400688039F4CE0103960E94AF980E94418006C081E08093FA03CE010E94EB338093F903DF91CF91089590911719982B909317198091A718882361F42FB7F8948091BA039091BB0384609093BB038093BA032FBF08950F931F93CF93DF93EC018A8190E0FC013197E031F10508F043C0EA59FF4F0C94CCC8EC85FD85CE010E962FC0EB8519
S284006900FC85CE010D962AC0EF81F885CE01099625C0E989FA89CE01439620C0EB89FC89CE01459609953DC0E985FA85CE010B9615C0EE85FF85CE01409610C0088D10E004701070E98DFA8DCE014B960995012B41F50FC0EC81FD81CE010696099509C0809117198E7F03C0809117198D7F809317191092A718209117198091B818909105
S284006980B918892B11F4222361F02FB7F8948091BA039091BB0384609093BB038093BA032FBFDF91CF911F910F91089581E00E945334089582E00E945334089580911719882311F091E004C00E94A74391E09827892F08959C018091A718833019F0C9010E94815408959C018091A718833019F0C9010E94D54808959C018091A71883301B
S284006A0019F0C9010E94644B08959C018091A718833019F0C9010E94B95408959C018091A718833019F0C9010E94957408959C018091A718833019F0C9010E94F07B0895BC0188EB98E10E944C808091A718882361F42FB7F8948091BA039091BB0384609093BB038093BA032FBF0895FC018DE08283CF010E9420350895FC018CE08283D2
S284006A80CF010E9420350895FC0186E08283CF010E9420350895FC0181E08283CF010E9420350895FC0185E08283CF010E9420350895FC018AE08283CF010E9420350895FC0182E08283CF010E9420350895FC0188E08283CF010E9420350895FC0187E08283CF010E9420350895FC018381882311F183E082838093A7181092B91810929F
S284006B00B8181092171988EB98E1BF010E944C800E94BB308BEA98E10E941E0F2FB7F8948091BA039091BB0384609093BB038093BA032FBF089584E08283CF010E94203508950F931F9380911719882389F080FF09C08FE08093A7180E94974361EF0E94BC425BC080E18093A7180E94019E55C01091B8180091B91888EB98E10E94648067
S284006B80E12FF02F82818093A7181093A9180093AA18828190E0FC013197EE30F10548F5EA58FF4F0C94CCC80E942A4020C00E9481401DC00E9445391AC00E94413F17C00E94A83914C00E946C9D11C00E94CC9D0EC00E9438410BC00E94323608C00E94433705C00E94069F02C00E9427398823A1F41092A7188091B8189091B918892BEF
S284006C0061F02FB7F8948091BA039091BB0384609093BB038093BA032FBF1F910F910895A8E0B0E0E6E1F6E30C94A5C8FC018281807C81F08089898381898A8382898B8383898C8384898D8385898E8386898F8387898887CE0101960E94F3342896E2E00C94C1C8CF93DF93C091A918D091AA1880916A1290916B12998B888B83E08A8B66
S284006C800E946D95DE015396FC0188E001900D928150E1F783E08B8F8B818C8F8C818D8F8D818E8F8E818F8F8F8188A3888589A389858AA38A858BA38D85882331F41CA2CE010E94693480E075C08BE08093C718809165128F5F8093651281508093CA182091C9182C6083E28093C8182C7C2093C9188FEF9FEF9093CC188093CB188B81A7
S284006D008093CD188C818093CE188D818093CF188E818093D0188F818093D11888858093D21889858093D3188A858093D418206C2093C91880916A1290916B129093D6188093D5180E946D95A7EDB8E1FC0188E001900D928150E1F780916A1290916B129093E0188093DF1880916F12909170129093E2188093E1188B859C859093E51864
S284006D808093E41880917C128093E3188DED96E39093FE188093FD1880916D12882311F081E001C082E08093FC1884EC98E10E940A3181E0DF91CF9108950F931F93FC010091A9181091AA1880810E94819EF80184A3C8010E9469341F910F91089581E080937A12089510927A1208950F931F93CF93DF93EC01888190E001978B30910547
S284006E0088F58C579F4FFC010C94CCC8CE010E94573E28C0CE010E940A3824C0CE010E94DC9D20C0CE010E94399B1CC01C2F0D2FCE010E94CE43882311F00E94D634812F902F0E94F9380EC0CE010E9410360AC080917A12882331F00E94DA3403C0CE010E94143ADF91CF911F910F9108951092A81808958091A9189091AA180E946934E1
S284006E801092A81808951F93E091A918F091AA188381882359F0823049F0833039F088EE808BCF010E94693480E06EC087E08093C718809165128F5F8093651281508093CA182091C818207E2362822F8F7B8093C818848195819093CC188093CB1893819370990F990F8091C918807C2F732093C818892B8093C918ADECB8E1369688E059
S284006F0001900D928150E1F780916A1290916B129093D6188093D51820916F12309170128FEF2F3F380721F08FEF2E3F380781F48091C918806C8093C9180E946D95A7EDB8E1FC0188E001900D928150E1F70AC08091C9188F7380688093C9183093D8182093D71882ED97E39093FE188093FD1811E01093FC181093A81884EC98E10E94F7
S284006F800A311093131981E01F91089583E08093A8181092131984EC98E16AE377E30E9471420895CF93DF93FC01C091A918D091AA188081833018F4813020F409C0833019F506C00E94819E888B0E94C6371CC08BEE888B81E08093B51887E098E39093B7188093B6180E9493946093B1187093B2188093B3189093B41882E08093A8184E
S2840070008BEA98E10E94430FDF91CF9108950E94C6370895ACE1B0E0E0E1F8E30C94A1C8FC01428142954695469543704983868597859B838A839E012C5F3F4FBF01605F7F4F88E0DB010D90BD01D9010D929D018150C1F7F280F694F694B3E0FB22FC86848195819E878D879E01215F3F4FBF016A5F7F4F88E0DB010D90BD01D9010D9234
S2840070809D018150C1F7E2A8EF8A80A991A9998F888F83A98A8F83818B8F84A98C8F8091A818882309F498C09091A9182091AA18842F8250823008F098C0092F122FF8018381481709F043C0423029F42C813D818681978154C0433009F087C09C81D80116968C911697981709F07FC09D8117968C911797981709F078C09E8118968C9103
S2840071001897981709F071C09F8119968C911997981709F06AC098851A968C911A97981709F063C099851B968C911B97981709F05CC09A851C968C911C97981709F055C09B851D968C91981709F04FC04AC0823029F0833071F0882351F047C0CE0104966BE572E148E050E00E9486C916C0423051F42C813D8180916312909164122817C2
S284007180390799F52EC0433081F5CE0104966BE572E148E050E00E9486C9009711F125C02F85388980916F129091701228173907E1F4EE2031F0CE0101960E940E35F801108A8091A818823081F48BEA98E10E941E0F0E94C63709C0CE0101960E940E3504C0F2E0FF1629F7DBCF6C96E6E00C94BDC8AEE0B0E0EFEFF8E30C94A5C8FC015C
S284007200828182958695869583708983868597859B838A839E012C5F3F4FAF01405F5F4F88E0DA010D90AD01D9010D929D018150C1F783A98C8783818D8784A98E87CE0101960E94EA342E96E2E00C94C1C8CF93DF93C091A918D091AA188B818E830E94E644882311F01F8202C087EE8F83CE010E94693480E0DF91CF9108958091A918E2
S2840072809091AA180E9469340895A0E1B0E0EBE4F9E30C94A3C80091A9181091AA18F80116820E94F336F80183818823F1F00E94CA970E94BB308BEA98E10E941E0F109213190E94A7400E9487420E94B1430E942A9B0E94113A0E9437378091A9189091AA180E94693480E021C01982DE011996FE01319688E001900D928150E1F782EF8A
S2840073008093C718A8ECB8E1FE01399688E001900D928150E1F78AE999E39093D1188093D01884EC98E10E94FC3081E06096E4E00C94BFC882E08093C7188EE399E39093C9188093C81884EC98E10E9403310895E091A918F091AA1883819481A581B6810097A105B10511F482E001C081E08093C71885EC99E39093C9188093C81884ECAA
S28400738098E10E94033181E00895E091A918F091AA181186CF010E9469340895CF93DF93FC01DB0112968C911297829586958695837080831E968D919C911F97928381839F012D5F3F4FAB01405F5F4F88E0EA010990AE01E90109929E018150C1F758968C915897838780918312848759968D919C915A979687858790E05B968C915B97E3
S28400740087FD91E09787D3968C91D397808BD4968C91818B128A138A148A158ADF91CF9108951092A6180895A5E1B0E0EAE1FAE30C94A1C87C018091A6188C3009F043C00091A9181091AA188BEA98E10E941E0FF8011586F701828D938D9093641280936312808D918D90936B1280936A12858D968D9093701280936F12848D80937C12F3
S2840074808E83DE011E96FE01369688E001900D928150E1F71092C718A8ECB8E1FE013E9688E001900D928150E1F788EF9BE39093D1188093D01884EC98E10E94FC308BE08093A61831C0F7018281829586958695837090E08230910519F0039729F50BC0F70120893189809163129091641228173907D1F40AC0C70140966BE572E148E0C7
S28400750050E00E9486C9009779F481E08983F701808D918D9B838A83848D8C83878D8D83CE0101960E94FC346596E6E00C94BDC8A0E1B0E0EEE9FAE30C94A5C8E091A918F091AA18882319F01092161905C0809116198F5F8093161944815581668177812091161934C0DB01CA01022E04C0B695A795979587950A94D2F781709070892BFF
S28400758029F12093161920937C122983DE011996FE01319688E001900D928150E1F71092C718A8ECB8E1FE01399688E001900D928150E1F788EF9BE39093D1188093D01884EC98E10E94FC3081E004C02F5F203250F280E06096E2E00C94C1C8A0E1B0E0E4EFFAE30C94A5C88EE08093A6188091FB0380937C128983DE011996FE013196F3
S28400760088E001900D928150E1F71092C718A8ECB8E1FE01399688E001900D928150E1F788EF9BE39093D1188093D01884EC98E10E94FC306096E2E00C94C1C8E091A918F091AA188381882351F080E00E94983A882311F081E004C00E94EE3A08958DE08093A6180895FC01E081E33011F0EE2349F5E091A918F091AA1821E030E040E0C0
